{
	"Enum.sol": {
		"Enum": {
			"abi": [
				{
					"constant": true,
					"inputs": [],
					"name": "getChoice",
					"outputs": [
						{
							"internalType": "enum Enum.FreshJuiceSize",
							"name": "",
							"type": "uint8"
						}
					],
					"payable": false,
					"stateMutability": "view",
					"type": "function"
				},
				{
					"constant": true,
					"inputs": [],
					"name": "getDefaultChoice",
					"outputs": [
						{
							"internalType": "uint256",
							"name": "",
							"type": "uint256"
						}
					],
					"payable": false,
					"stateMutability": "view",
					"type": "function"
				},
				{
					"constant": false,
					"inputs": [],
					"name": "setLarge",
					"outputs": [],
					"payable": false,
					"stateMutability": "nonpayable",
					"type": "function"
				}
			],
			"devdoc": {
				"methods": {}
			},
			"evm": {
				"assembly": "    /* \"Enum.sol\":25:459  contract Enum {... */\n  mstore(0x40, 0x80)\n  callvalue\n    /* \"--CODEGEN--\":8:17   */\n  dup1\n    /* \"--CODEGEN--\":5:7   */\n  iszero\n  tag_1\n  jumpi\n    /* \"--CODEGEN--\":30:31   */\n  0x00\n    /* \"--CODEGEN--\":27:28   */\n  dup1\n    /* \"--CODEGEN--\":20:32   */\n  revert\n    /* \"--CODEGEN--\":5:7   */\ntag_1:\n    /* \"Enum.sol\":25:459  contract Enum {... */\n  pop\n  dataSize(sub_0)\n  dup1\n  dataOffset(sub_0)\n  0x00\n  codecopy\n  0x00\n  return\nstop\n\nsub_0: assembly {\n        /* \"Enum.sol\":25:459  contract Enum {... */\n      mstore(0x40, 0x80)\n      callvalue\n        /* \"--CODEGEN--\":8:17   */\n      dup1\n        /* \"--CODEGEN--\":5:7   */\n      iszero\n      tag_1\n      jumpi\n        /* \"--CODEGEN--\":30:31   */\n      0x00\n        /* \"--CODEGEN--\":27:28   */\n      dup1\n        /* \"--CODEGEN--\":20:32   */\n      revert\n        /* \"--CODEGEN--\":5:7   */\n    tag_1:\n        /* \"Enum.sol\":25:459  contract Enum {... */\n      pop\n      jumpi(tag_2, lt(calldatasize, 0x04))\n      shr(0xe0, calldataload(0x00))\n      dup1\n      0x67cb61b6\n      eq\n      tag_3\n      jumpi\n      dup1\n      0x694ebe4f\n      eq\n      tag_4\n      jumpi\n      dup1\n      0x843f7258\n      eq\n      tag_5\n      jumpi\n    tag_2:\n      0x00\n      dup1\n      revert\n        /* \"Enum.sol\":267:354  function getChoice() public view returns (FreshJuiceSize){... */\n    tag_3:\n      tag_6\n      tag_7\n      jump\t// in\n    tag_6:\n      mload(0x40)\n      dup1\n      dup3\n      0x02\n      dup2\n      gt\n      iszero\n      tag_8\n      jumpi\n      invalid\n    tag_8:\n      0xff\n      and\n      dup2\n      mstore\n      0x20\n      add\n      swap2\n      pop\n      pop\n      mload(0x40)\n      dup1\n      swap2\n      sub\n      swap1\n      return\n        /* \"Enum.sol\":188:261  function setLarge() public {... */\n    tag_4:\n      tag_9\n      tag_10\n      jump\t// in\n    tag_9:\n      stop\n        /* \"Enum.sol\":360:457  function getDefaultChoice() public pure returns (uint){... */\n    tag_5:\n      tag_11\n      tag_12\n      jump\t// in\n    tag_11:\n      mload(0x40)\n      dup1\n      dup3\n      dup2\n      mstore\n      0x20\n      add\n      swap2\n      pop\n      pop\n      mload(0x40)\n      dup1\n      swap2\n      sub\n      swap1\n      return\n        /* \"Enum.sol\":267:354  function getChoice() public view returns (FreshJuiceSize){... */\n    tag_7:\n        /* \"Enum.sol\":309:323  FreshJuiceSize */\n      0x00\n        /* \"Enum.sol\":341:347  choice */\n      dup1\n      0x00\n      swap1\n      sload\n      swap1\n      0x0100\n      exp\n      swap1\n      div\n      0xff\n      and\n        /* \"Enum.sol\":334:347  return choice */\n      swap1\n      pop\n        /* \"Enum.sol\":267:354  function getChoice() public view returns (FreshJuiceSize){... */\n      swap1\n      jump\t// out\n        /* \"Enum.sol\":188:261  function setLarge() public {... */\n    tag_10:\n        /* \"Enum.sol\":234:254  FreshJuiceSize.LARGE */\n      0x02\n        /* \"Enum.sol\":225:231  choice */\n      0x00\n      dup1\n        /* \"Enum.sol\":225:254  choice = FreshJuiceSize.LARGE */\n      0x0100\n      exp\n      dup2\n      sload\n      dup2\n      0xff\n      mul\n      not\n      and\n      swap1\n      dup4\n      0x02\n      dup2\n      gt\n      iszero\n      tag_15\n      jumpi\n      invalid\n    tag_15:\n      mul\n      or\n      swap1\n      sstore\n      pop\n        /* \"Enum.sol\":188:261  function setLarge() public {... */\n      jump\t// out\n        /* \"Enum.sol\":360:457  function getDefaultChoice() public pure returns (uint){... */\n    tag_12:\n        /* \"Enum.sol\":409:413  uint */\n      0x00\n        /* \"Enum.sol\":160:181  FreshJuiceSize.MEDIUM */\n      0x01\n        /* \"Enum.sol\":431:450  uint(defaultChoice) */\n      0x02\n      dup2\n      gt\n      iszero\n      tag_17\n      jumpi\n      invalid\n    tag_17:\n        /* \"Enum.sol\":424:450  return uint(defaultChoice) */\n      swap1\n      pop\n        /* \"Enum.sol\":360:457  function getDefaultChoice() public pure returns (uint){... */\n      swap1\n      jump\t// out\n\n    auxdata: 0xa265627a7a7231582086131c4c442fcf0d011d7a6d2f27ab7967c90c1f744e3c82d00bb406adb2b03464736f6c63430005110032\n}\n",
				"bytecode": {
					"linkReferences": {},
					"object": "608060405234801561001057600080fd5b50610110806100206000396000f3fe6080604052348015600f57600080fd5b5060043610603c5760003560e01c806367cb61b6146041578063694ebe4f14606a578063843f7258146072575b600080fd5b6047608e565b60405180826002811115605657fe5b60ff16815260200191505060405180910390f35b607060a4565b005b607860c8565b6040518082815260200191505060405180910390f35b60008060009054906101000a900460ff16905090565b60026000806101000a81548160ff0219169083600281111560c157fe5b0217905550565b60006001600281111560d657fe5b90509056fea265627a7a7231582086131c4c442fcf0d011d7a6d2f27ab7967c90c1f744e3c82d00bb406adb2b03464736f6c63430005110032",
					"opcodes": "PUSH1 0x80 PUSH1 0x40 MSTORE CALLVALUE DUP1 ISZERO PUSH2 0x10 JUMPI PUSH1 0x0 DUP1 REVERT JUMPDEST POP PUSH2 0x110 DUP1 PUSH2 0x20 PUSH1 0x0 CODECOPY PUSH1 0x0 RETURN INVALID PUSH1 0x80 PUSH1 0x40 MSTORE CALLVALUE DUP1 ISZERO PUSH1 0xF JUMPI PUSH1 0x0 DUP1 REVERT JUMPDEST POP PUSH1 0x4 CALLDATASIZE LT PUSH1 0x3C JUMPI PUSH1 0x0 CALLDATALOAD PUSH1 0xE0 SHR DUP1 PUSH4 0x67CB61B6 EQ PUSH1 0x41 JUMPI DUP1 PUSH4 0x694EBE4F EQ PUSH1 0x6A JUMPI DUP1 PUSH4 0x843F7258 EQ PUSH1 0x72 JUMPI JUMPDEST PUSH1 0x0 DUP1 REVERT JUMPDEST PUSH1 0x47 PUSH1 0x8E JUMP JUMPDEST PUSH1 0x40 MLOAD DUP1 DUP3 PUSH1 0x2 DUP2 GT ISZERO PUSH1 0x56 JUMPI INVALID JUMPDEST PUSH1 0xFF AND DUP2 MSTORE PUSH1 0x20 ADD SWAP2 POP POP PUSH1 0x40 MLOAD DUP1 SWAP2 SUB SWAP1 RETURN JUMPDEST PUSH1 0x70 PUSH1 0xA4 JUMP JUMPDEST STOP JUMPDEST PUSH1 0x78 PUSH1 0xC8 JUMP JUMPDEST PUSH1 0x40 MLOAD DUP1 DUP3 DUP2 MSTORE PUSH1 0x20 ADD SWAP2 POP POP PUSH1 0x40 MLOAD DUP1 SWAP2 SUB SWAP1 RETURN JUMPDEST PUSH1 0x0 DUP1 PUSH1 0x0 SWAP1 SLOAD SWAP1 PUSH2 0x100 EXP SWAP1 DIV PUSH1 0xFF AND SWAP1 POP SWAP1 JUMP JUMPDEST PUSH1 0x2 PUSH1 0x0 DUP1 PUSH2 0x100 EXP DUP2 SLOAD DUP2 PUSH1 0xFF MUL NOT AND SWAP1 DUP4 PUSH1 0x2 DUP2 GT ISZERO PUSH1 0xC1 JUMPI INVALID JUMPDEST MUL OR SWAP1 SSTORE POP JUMP JUMPDEST PUSH1 0x0 PUSH1 0x1 PUSH1 0x2 DUP2 GT ISZERO PUSH1 0xD6 JUMPI INVALID JUMPDEST SWAP1 POP SWAP1 JUMP INVALID LOG2 PUSH6 0x627A7A723158 KECCAK256 DUP7 SGT SHR 0x4C DIFFICULTY 0x2F 0xCF 0xD ADD SAR PUSH27 0x6D2F27AB7967C90C1F744E3C82D00BB406ADB2B03464736F6C6343 STOP SDIV GT STOP ORIGIN "
				},
				"gasEstimates": {
					"creation": {
						"codeDepositCost": "54400",
						"executionCost": "105",
						"totalCost": "54505"
					},
					"external": {
						"getChoice()": "1059",
						"getDefaultChoice()": "261",
						"setLarge()": "21031"
					}
				},
				"methodIdentifiers": {
					"getChoice()": "67cb61b6",
					"getDefaultChoice()": "843f7258",
					"setLarge()": "694ebe4f"
				}
			},
			"storageLayout": {
				"storage": [
					{
						"astId": 7,
						"contract": "Enum.sol:Enum",
						"label": "choice",
						"offset": 0,
						"slot": "0",
						"type": "t_enum(FreshJuiceSize)5"
					}
				],
				"types": {
					"t_enum(FreshJuiceSize)5": {
						"encoding": "inplace",
						"label": "enum Enum.FreshJuiceSize",
						"numberOfBytes": "1"
					}
				}
			},
			"userdoc": {
				"methods": {}
			}
		}
	}
}