{
	"Token_ETH.sol": {
		"CATE": {
			"abi": [
				{
					"inputs": [],
					"stateMutability": "nonpayable",
					"type": "constructor"
				},
				{
					"anonymous": false,
					"inputs": [
						{
							"indexed": true,
							"internalType": "address",
							"name": "owner",
							"type": "address"
						},
						{
							"indexed": true,
							"internalType": "address",
							"name": "spender",
							"type": "address"
						},
						{
							"indexed": false,
							"internalType": "uint256",
							"name": "value",
							"type": "uint256"
						}
					],
					"name": "Approval",
					"type": "event"
				},
				{
					"anonymous": false,
					"inputs": [
						{
							"indexed": false,
							"internalType": "uint256",
							"name": "_maxTxAmount",
							"type": "uint256"
						}
					],
					"name": "MaxTxAmountUpdated",
					"type": "event"
				},
				{
					"anonymous": false,
					"inputs": [
						{
							"indexed": true,
							"internalType": "address",
							"name": "previousOwner",
							"type": "address"
						},
						{
							"indexed": true,
							"internalType": "address",
							"name": "newOwner",
							"type": "address"
						}
					],
					"name": "OwnershipTransferred",
					"type": "event"
				},
				{
					"anonymous": false,
					"inputs": [
						{
							"indexed": true,
							"internalType": "address",
							"name": "from",
							"type": "address"
						},
						{
							"indexed": true,
							"internalType": "address",
							"name": "to",
							"type": "address"
						},
						{
							"indexed": false,
							"internalType": "uint256",
							"name": "value",
							"type": "uint256"
						}
					],
					"name": "Transfer",
					"type": "event"
				},
				{
					"anonymous": false,
					"inputs": [
						{
							"indexed": false,
							"internalType": "uint256",
							"name": "_tax",
							"type": "uint256"
						}
					],
					"name": "TransferTaxUpdated",
					"type": "event"
				},
				{
					"inputs": [],
					"name": "_maxTaxSwap",
					"outputs": [
						{
							"internalType": "uint256",
							"name": "",
							"type": "uint256"
						}
					],
					"stateMutability": "view",
					"type": "function"
				},
				{
					"inputs": [],
					"name": "_maxTxAmount",
					"outputs": [
						{
							"internalType": "uint256",
							"name": "",
							"type": "uint256"
						}
					],
					"stateMutability": "view",
					"type": "function"
				},
				{
					"inputs": [],
					"name": "_maxWalletSize",
					"outputs": [
						{
							"internalType": "uint256",
							"name": "",
							"type": "uint256"
						}
					],
					"stateMutability": "view",
					"type": "function"
				},
				{
					"inputs": [],
					"name": "_taxSwapThreshold",
					"outputs": [
						{
							"internalType": "uint256",
							"name": "",
							"type": "uint256"
						}
					],
					"stateMutability": "view",
					"type": "function"
				},
				{
					"inputs": [
						{
							"internalType": "address[]",
							"name": "bots_",
							"type": "address[]"
						}
					],
					"name": "addB",
					"outputs": [],
					"stateMutability": "nonpayable",
					"type": "function"
				},
				{
					"inputs": [
						{
							"internalType": "address",
							"name": "owner",
							"type": "address"
						},
						{
							"internalType": "address",
							"name": "spender",
							"type": "address"
						}
					],
					"name": "allowance",
					"outputs": [
						{
							"internalType": "uint256",
							"name": "",
							"type": "uint256"
						}
					],
					"stateMutability": "view",
					"type": "function"
				},
				{
					"inputs": [
						{
							"internalType": "address",
							"name": "spender",
							"type": "address"
						},
						{
							"internalType": "uint256",
							"name": "amount",
							"type": "uint256"
						}
					],
					"name": "approve",
					"outputs": [
						{
							"internalType": "bool",
							"name": "",
							"type": "bool"
						}
					],
					"stateMutability": "nonpayable",
					"type": "function"
				},
				{
					"inputs": [
						{
							"internalType": "address",
							"name": "account",
							"type": "address"
						}
					],
					"name": "balanceOf",
					"outputs": [
						{
							"internalType": "uint256",
							"name": "",
							"type": "uint256"
						}
					],
					"stateMutability": "view",
					"type": "function"
				},
				{
					"inputs": [],
					"name": "decimals",
					"outputs": [
						{
							"internalType": "uint8",
							"name": "",
							"type": "uint8"
						}
					],
					"stateMutability": "pure",
					"type": "function"
				},
				{
					"inputs": [
						{
							"internalType": "address[]",
							"name": "notbot",
							"type": "address[]"
						}
					],
					"name": "delB",
					"outputs": [],
					"stateMutability": "nonpayable",
					"type": "function"
				},
				{
					"inputs": [
						{
							"internalType": "address",
							"name": "a",
							"type": "address"
						}
					],
					"name": "isBot",
					"outputs": [
						{
							"internalType": "bool",
							"name": "",
							"type": "bool"
						}
					],
					"stateMutability": "view",
					"type": "function"
				},
				{
					"inputs": [],
					"name": "manualSend",
					"outputs": [],
					"stateMutability": "nonpayable",
					"type": "function"
				},
				{
					"inputs": [],
					"name": "manualUnclog",
					"outputs": [],
					"stateMutability": "nonpayable",
					"type": "function"
				},
				{
					"inputs": [],
					"name": "name",
					"outputs": [
						{
							"internalType": "string",
							"name": "",
							"type": "string"
						}
					],
					"stateMutability": "pure",
					"type": "function"
				},
				{
					"inputs": [],
					"name": "openTrading",
					"outputs": [],
					"stateMutability": "nonpayable",
					"type": "function"
				},
				{
					"inputs": [],
					"name": "owner",
					"outputs": [
						{
							"internalType": "address",
							"name": "",
							"type": "address"
						}
					],
					"stateMutability": "view",
					"type": "function"
				},
				{
					"inputs": [],
					"name": "removeLimit",
					"outputs": [],
					"stateMutability": "nonpayable",
					"type": "function"
				},
				{
					"inputs": [],
					"name": "renounceOwnership",
					"outputs": [],
					"stateMutability": "nonpayable",
					"type": "function"
				},
				{
					"inputs": [],
					"name": "symbol",
					"outputs": [
						{
							"internalType": "string",
							"name": "",
							"type": "string"
						}
					],
					"stateMutability": "pure",
					"type": "function"
				},
				{
					"inputs": [],
					"name": "totalSupply",
					"outputs": [
						{
							"internalType": "uint256",
							"name": "",
							"type": "uint256"
						}
					],
					"stateMutability": "pure",
					"type": "function"
				},
				{
					"inputs": [
						{
							"internalType": "address",
							"name": "recipient",
							"type": "address"
						},
						{
							"internalType": "uint256",
							"name": "amount",
							"type": "uint256"
						}
					],
					"name": "transfer",
					"outputs": [
						{
							"internalType": "bool",
							"name": "",
							"type": "bool"
						}
					],
					"stateMutability": "nonpayable",
					"type": "function"
				},
				{
					"inputs": [
						{
							"internalType": "address",
							"name": "sender",
							"type": "address"
						},
						{
							"internalType": "address",
							"name": "recipient",
							"type": "address"
						},
						{
							"internalType": "uint256",
							"name": "amount",
							"type": "uint256"
						}
					],
					"name": "transferFrom",
					"outputs": [
						{
							"internalType": "bool",
							"name": "",
							"type": "bool"
						}
					],
					"stateMutability": "nonpayable",
					"type": "function"
				},
				{
					"stateMutability": "payable",
					"type": "receive"
				}
			],
			"devdoc": {
				"kind": "dev",
				"methods": {},
				"version": 1
			},
			"evm": {
				"assembly": "    /* \"Token_ETH.sol\":3683:13227  contract CATE is Context, IERC20, Ownable {... */\n  mstore(0x40, 0x80)\n    /* \"Token_ETH.sol\":4061:4063  20 */\n  0x14\n    /* \"Token_ETH.sol\":4028:4063  uint256 private _initialBuyTax = 20 */\n  0x06\n  sstore\n    /* \"Token_ETH.sol\":4103:4105  20 */\n  0x14\n    /* \"Token_ETH.sol\":4069:4105  uint256 private _initialSellTax = 20 */\n  0x07\n  sstore\n    /* \"Token_ETH.sol\":4142:4143  0 */\n  0x00\n    /* \"Token_ETH.sol\":4111:4143  uint256 private _finalBuyTax = 0 */\n  0x08\n  sstore\n    /* \"Token_ETH.sol\":4181:4182  0 */\n  0x00\n    /* \"Token_ETH.sol\":4149:4182  uint256 private _finalSellTax = 0 */\n  0x09\n  sstore\n    /* \"Token_ETH.sol\":4222:4224  10 */\n  0x0a\n    /* \"Token_ETH.sol\":4188:4224  uint256 private _reduceBuyTaxAt = 10 */\n  dup1\n  sstore\n    /* \"Token_ETH.sol\":4265:4267  10 */\n  0x0a\n    /* \"Token_ETH.sol\":4230:4267  uint256 private _reduceSellTaxAt = 10 */\n  0x0b\n  sstore\n    /* \"Token_ETH.sol\":4310:4312  10 */\n  0x0a\n    /* \"Token_ETH.sol\":4273:4312  uint256 private _preventSwapBefore = 10 */\n  0x0c\n  sstore\n    /* \"Token_ETH.sol\":4349:4350  0 */\n  0x00\n    /* \"Token_ETH.sol\":4318:4350  uint256 private _transferTax = 0 */\n  0x0d\n  sstore\n    /* \"Token_ETH.sol\":4384:4385  0 */\n  0x00\n    /* \"Token_ETH.sol\":4356:4385  uint256 private _buyCount = 0 */\n  0x0e\n  sstore\n    /* \"Token_ETH.sol\":4655:4658  100 */\n  0x64\n    /* \"Token_ETH.sol\":4427:4428  9 */\n  0x09\n    /* \"Token_ETH.sol\":4485:4487  10 */\n  0x0a\n    /* \"Token_ETH.sol\":4485:4500  10 ** _decimals */\n  tag_1\n  swap2\n  swap1\n  tag_2\n  jump\t// in\ntag_1:\n    /* \"Token_ETH.sol\":4469:4482  1_000_000_000 */\n  0x3b9aca00\n    /* \"Token_ETH.sol\":4469:4500  1_000_000_000 * 10 ** _decimals */\n  tag_3\n  swap2\n  swap1\n  tag_4\n  jump\t// in\ntag_3:\n    /* \"Token_ETH.sol\":4645:4658  _tTotal / 100 */\n  tag_5\n  swap2\n  swap1\n  tag_6\n  jump\t// in\ntag_5:\n    /* \"Token_ETH.sol\":4640:4641  1 */\n  0x01\n    /* \"Token_ETH.sol\":4640:4659  1 * (_tTotal / 100) */\n  tag_7\n  swap2\n  swap1\n  tag_4\n  jump\t// in\ntag_7:\n    /* \"Token_ETH.sol\":4610:4659  uint256 public _maxTxAmount = 1 * (_tTotal / 100) */\n  0x0f\n  sstore\n    /* \"Token_ETH.sol\":4712:4715  100 */\n  0x64\n    /* \"Token_ETH.sol\":4427:4428  9 */\n  0x09\n    /* \"Token_ETH.sol\":4485:4487  10 */\n  0x0a\n    /* \"Token_ETH.sol\":4485:4500  10 ** _decimals */\n  tag_8\n  swap2\n  swap1\n  tag_2\n  jump\t// in\ntag_8:\n    /* \"Token_ETH.sol\":4469:4482  1_000_000_000 */\n  0x3b9aca00\n    /* \"Token_ETH.sol\":4469:4500  1_000_000_000 * 10 ** _decimals */\n  tag_9\n  swap2\n  swap1\n  tag_4\n  jump\t// in\ntag_9:\n    /* \"Token_ETH.sol\":4702:4715  _tTotal / 100 */\n  tag_10\n  swap2\n  swap1\n  tag_6\n  jump\t// in\ntag_10:\n    /* \"Token_ETH.sol\":4697:4698  1 */\n  0x01\n    /* \"Token_ETH.sol\":4697:4716  1 * (_tTotal / 100) */\n  tag_11\n  swap2\n  swap1\n  tag_4\n  jump\t// in\ntag_11:\n    /* \"Token_ETH.sol\":4665:4716  uint256 public _maxWalletSize = 1 * (_tTotal / 100) */\n  0x10\n  sstore\n    /* \"Token_ETH.sol\":4772:4776  1000 */\n  0x03e8\n    /* \"Token_ETH.sol\":4427:4428  9 */\n  0x09\n    /* \"Token_ETH.sol\":4485:4487  10 */\n  0x0a\n    /* \"Token_ETH.sol\":4485:4500  10 ** _decimals */\n  tag_12\n  swap2\n  swap1\n  tag_2\n  jump\t// in\ntag_12:\n    /* \"Token_ETH.sol\":4469:4482  1_000_000_000 */\n  0x3b9aca00\n    /* \"Token_ETH.sol\":4469:4500  1_000_000_000 * 10 ** _decimals */\n  tag_13\n  swap2\n  swap1\n  tag_4\n  jump\t// in\ntag_13:\n    /* \"Token_ETH.sol\":4762:4776  _tTotal / 1000 */\n  tag_14\n  swap2\n  swap1\n  tag_6\n  jump\t// in\ntag_14:\n    /* \"Token_ETH.sol\":4757:4758  1 */\n  0x01\n    /* \"Token_ETH.sol\":4757:4777  1 * (_tTotal / 1000) */\n  tag_15\n  swap2\n  swap1\n  tag_4\n  jump\t// in\ntag_15:\n    /* \"Token_ETH.sol\":4722:4777  uint256 public _taxSwapThreshold = 1 * (_tTotal / 1000) */\n  0x11\n  sstore\n    /* \"Token_ETH.sol\":4827:4830  100 */\n  0x64\n    /* \"Token_ETH.sol\":4427:4428  9 */\n  0x09\n    /* \"Token_ETH.sol\":4485:4487  10 */\n  0x0a\n    /* \"Token_ETH.sol\":4485:4500  10 ** _decimals */\n  tag_16\n  swap2\n  swap1\n  tag_2\n  jump\t// in\ntag_16:\n    /* \"Token_ETH.sol\":4469:4482  1_000_000_000 */\n  0x3b9aca00\n    /* \"Token_ETH.sol\":4469:4500  1_000_000_000 * 10 ** _decimals */\n  tag_17\n  swap2\n  swap1\n  tag_4\n  jump\t// in\ntag_17:\n    /* \"Token_ETH.sol\":4817:4830  _tTotal / 100 */\n  tag_18\n  swap2\n  swap1\n  tag_6\n  jump\t// in\ntag_18:\n    /* \"Token_ETH.sol\":4812:4813  1 */\n  0x01\n    /* \"Token_ETH.sol\":4812:4831  1 * (_tTotal / 100) */\n  tag_19\n  swap2\n  swap1\n  tag_4\n  jump\t// in\ntag_19:\n    /* \"Token_ETH.sol\":4783:4831  uint256 public _maxTaxSwap = 1 * (_tTotal / 100) */\n  0x12\n  sstore\n    /* \"Token_ETH.sol\":4973:4978  false */\n  0x00\n    /* \"Token_ETH.sol\":4951:4978  bool private inSwap = false */\n  0x14\n  exp(0x0100, 0x15)\n  dup2\n  sload\n  dup2\n  0xff\n  mul\n  not\n  and\n  swap1\n  dup4\n  iszero\n  iszero\n  mul\n  or\n  swap1\n  sstore\n  pop\n    /* \"Token_ETH.sol\":5011:5016  false */\n  0x00\n    /* \"Token_ETH.sol\":4984:5016  bool private swapEnabled = false */\n  0x14\n  exp(0x0100, 0x16)\n  dup2\n  sload\n  dup2\n  0xff\n  mul\n  not\n  and\n  swap1\n  dup4\n  iszero\n  iszero\n  mul\n  or\n  swap1\n  sstore\n  pop\n    /* \"Token_ETH.sol\":5050:5051  0 */\n  0x00\n    /* \"Token_ETH.sol\":5022:5051  uint256 private sellCount = 0 */\n  0x15\n  sstore\n    /* \"Token_ETH.sol\":5089:5090  0 */\n  0x00\n    /* \"Token_ETH.sol\":5057:5090  uint256 private lastSellBlock = 0 */\n  0x16\n  sstore\n    /* \"Token_ETH.sol\":5280:5966  constructor() {... */\n  callvalue\n  dup1\n  iszero\n  tag_20\n  jumpi\n  0x00\n  dup1\n  revert\ntag_20:\n  pop\n    /* \"Token_ETH.sol\":2414:2431  address msgSender */\n  0x00\n    /* \"Token_ETH.sol\":2434:2446  _msgSender() */\n  tag_24\n    /* \"Token_ETH.sol\":2434:2444  _msgSender */\n  shl(0x20, tag_25)\n    /* \"Token_ETH.sol\":2434:2446  _msgSender() */\n  0x20\n  shr\n  jump\t// in\ntag_24:\n    /* \"Token_ETH.sol\":2414:2446  address msgSender = _msgSender() */\n  swap1\n  pop\n    /* \"Token_ETH.sol\":2465:2474  msgSender */\n  dup1\n    /* \"Token_ETH.sol\":2456:2462  _owner */\n  0x00\n  dup1\n    /* \"Token_ETH.sol\":2456:2474  _owner = msgSender */\n  0x0100\n  exp\n  dup2\n  sload\n  dup2\n  0xffffffffffffffffffffffffffffffffffffffff\n  mul\n  not\n  and\n  swap1\n  dup4\n  0xffffffffffffffffffffffffffffffffffffffff\n  and\n  mul\n  or\n  swap1\n  sstore\n  pop\n    /* \"Token_ETH.sol\":2522:2531  msgSender */\n  dup1\n    /* \"Token_ETH.sol\":2489:2532  OwnershipTransferred(address(0), msgSender) */\n  0xffffffffffffffffffffffffffffffffffffffff\n  and\n    /* \"Token_ETH.sol\":2518:2519  0 */\n  0x00\n    /* \"Token_ETH.sol\":2489:2532  OwnershipTransferred(address(0), msgSender) */\n  0xffffffffffffffffffffffffffffffffffffffff\n  and\n  0x8be0079c531659141344cd1fd0a4f28419497f9722a3daafe3b4186f6b6457e0\n  mload(0x40)\n  mload(0x40)\n  dup1\n  swap2\n  sub\n  swap1\n  log3\n    /* \"Token_ETH.sol\":2404:2539  {... */\n  pop\n    /* \"Token_ETH.sol\":5325:5367  0x411AA08cCD060D1101223397b3711b71199E67b5 */\n  0x411aa08ccd060d1101223397b3711b71199e67b5\n    /* \"Token_ETH.sol\":5304:5314  _taxWallet */\n  0x05\n  0x00\n    /* \"Token_ETH.sol\":5304:5368  _taxWallet = payable(0x411AA08cCD060D1101223397b3711b71199E67b5) */\n  0x0100\n  exp\n  dup2\n  sload\n  dup2\n  0xffffffffffffffffffffffffffffffffffffffff\n  mul\n  not\n  and\n  swap1\n  dup4\n  0xffffffffffffffffffffffffffffffffffffffff\n  and\n  mul\n  or\n  swap1\n  sstore\n  pop\n    /* \"Token_ETH.sol\":4427:4428  9 */\n  0x09\n    /* \"Token_ETH.sol\":4485:4487  10 */\n  0x0a\n    /* \"Token_ETH.sol\":4485:4500  10 ** _decimals */\n  tag_27\n  swap2\n  swap1\n  tag_2\n  jump\t// in\ntag_27:\n    /* \"Token_ETH.sol\":4469:4482  1_000_000_000 */\n  0x3b9aca00\n    /* \"Token_ETH.sol\":4469:4500  1_000_000_000 * 10 ** _decimals */\n  tag_28\n  swap2\n  swap1\n  tag_4\n  jump\t// in\ntag_28:\n    /* \"Token_ETH.sol\":5378:5387  _balances */\n  0x01\n    /* \"Token_ETH.sol\":5378:5401  _balances[_msgSender()] */\n  0x00\n    /* \"Token_ETH.sol\":5388:5400  _msgSender() */\n  tag_29\n    /* \"Token_ETH.sol\":5388:5398  _msgSender */\n  shl(0x20, tag_25)\n    /* \"Token_ETH.sol\":5388:5400  _msgSender() */\n  0x20\n  shr\n  jump\t// in\ntag_29:\n    /* \"Token_ETH.sol\":5378:5401  _balances[_msgSender()] */\n  0xffffffffffffffffffffffffffffffffffffffff\n  and\n  0xffffffffffffffffffffffffffffffffffffffff\n  and\n  dup2\n  mstore\n  0x20\n  add\n  swap1\n  dup2\n  mstore\n  0x20\n  add\n  0x00\n  keccak256\n    /* \"Token_ETH.sol\":5378:5411  _balances[_msgSender()] = _tTotal */\n  dup2\n  swap1\n  sstore\n  pop\n    /* \"Token_ETH.sol\":5451:5455  true */\n  0x01\n    /* \"Token_ETH.sol\":5421:5439  _isExcludedFromFee */\n  0x03\n    /* \"Token_ETH.sol\":5421:5448  _isExcludedFromFee[owner()] */\n  0x00\n    /* \"Token_ETH.sol\":5440:5447  owner() */\n  tag_30\n    /* \"Token_ETH.sol\":5440:5445  owner */\n  shl(0x20, tag_31)\n    /* \"Token_ETH.sol\":5440:5447  owner() */\n  0x20\n  shr\n  jump\t// in\ntag_30:\n    /* \"Token_ETH.sol\":5421:5448  _isExcludedFromFee[owner()] */\n  0xffffffffffffffffffffffffffffffffffffffff\n  and\n  0xffffffffffffffffffffffffffffffffffffffff\n  and\n  dup2\n  mstore\n  0x20\n  add\n  swap1\n  dup2\n  mstore\n  0x20\n  add\n  0x00\n  keccak256\n  0x00\n    /* \"Token_ETH.sol\":5421:5455  _isExcludedFromFee[owner()] = true */\n  0x0100\n  exp\n  dup2\n  sload\n  dup2\n  0xff\n  mul\n  not\n  and\n  swap1\n  dup4\n  iszero\n  iszero\n  mul\n  or\n  swap1\n  sstore\n  pop\n    /* \"Token_ETH.sol\":5501:5505  true */\n  0x01\n    /* \"Token_ETH.sol\":5465:5483  _isExcludedFromFee */\n  0x03\n    /* \"Token_ETH.sol\":5465:5498  _isExcludedFromFee[address(this)] */\n  0x00\n    /* \"Token_ETH.sol\":5492:5496  this */\n  address\n    /* \"Token_ETH.sol\":5465:5498  _isExcludedFromFee[address(this)] */\n  0xffffffffffffffffffffffffffffffffffffffff\n  and\n  0xffffffffffffffffffffffffffffffffffffffff\n  and\n  dup2\n  mstore\n  0x20\n  add\n  swap1\n  dup2\n  mstore\n  0x20\n  add\n  0x00\n  keccak256\n  0x00\n    /* \"Token_ETH.sol\":5465:5505  _isExcludedFromFee[address(this)] = true */\n  0x0100\n  exp\n  dup2\n  sload\n  dup2\n  0xff\n  mul\n  not\n  and\n  swap1\n  dup4\n  iszero\n  iszero\n  mul\n  or\n  swap1\n  sstore\n  pop\n    /* \"Token_ETH.sol\":5548:5552  true */\n  0x01\n    /* \"Token_ETH.sol\":5515:5533  _isExcludedFromFee */\n  0x03\n    /* \"Token_ETH.sol\":5515:5545  _isExcludedFromFee[_taxWallet] */\n  0x00\n    /* \"Token_ETH.sol\":5534:5544  _taxWallet */\n  0x05\n  0x00\n  swap1\n  sload\n  swap1\n  0x0100\n  exp\n  swap1\n  div\n  0xffffffffffffffffffffffffffffffffffffffff\n  and\n    /* \"Token_ETH.sol\":5515:5545  _isExcludedFromFee[_taxWallet] */\n  0xffffffffffffffffffffffffffffffffffffffff\n  and\n  0xffffffffffffffffffffffffffffffffffffffff\n  and\n  dup2\n  mstore\n  0x20\n  add\n  swap1\n  dup2\n  mstore\n  0x20\n  add\n  0x00\n  keccak256\n  0x00\n    /* \"Token_ETH.sol\":5515:5552  _isExcludedFromFee[_taxWallet] = true */\n  0x0100\n  exp\n  dup2\n  sload\n  dup2\n  0xff\n  mul\n  not\n  and\n  swap1\n  dup4\n  iszero\n  iszero\n  mul\n  or\n  swap1\n  sstore\n  pop\n    /* \"Token_ETH.sol\":5613:5655  0x7a250d5630B4cF539739dF2C5dAcb4c659F2488D */\n  0x7a250d5630b4cf539739df2c5dacb4c659f2488d\n    /* \"Token_ETH.sol\":5563:5578  uniswapV2Router */\n  0x13\n  0x00\n    /* \"Token_ETH.sol\":5563:5665  uniswapV2Router = IUniswapV2Router02(... */\n  0x0100\n  exp\n  dup2\n  sload\n  dup2\n  0xffffffffffffffffffffffffffffffffffffffff\n  mul\n  not\n  and\n  swap1\n  dup4\n  0xffffffffffffffffffffffffffffffffffffffff\n  and\n  mul\n  or\n  swap1\n  sstore\n  pop\n    /* \"Token_ETH.sol\":5709:5724  uniswapV2Router */\n  0x13\n  0x00\n  swap1\n  sload\n  swap1\n  0x0100\n  exp\n  swap1\n  div\n  0xffffffffffffffffffffffffffffffffffffffff\n  and\n    /* \"Token_ETH.sol\":5709:5732  uniswapV2Router.factory */\n  0xffffffffffffffffffffffffffffffffffffffff\n  and\n  0xc45a0155\n    /* \"Token_ETH.sol\":5709:5734  uniswapV2Router.factory() */\n  mload(0x40)\n  dup2\n  0xffffffff\n  and\n  0xe0\n  shl\n  dup2\n  mstore\n  0x04\n  add\n  0x20\n  mload(0x40)\n  dup1\n  dup4\n  sub\n  dup2\n  dup7\n  gas\n  staticcall\n  iszero\n  dup1\n  iszero\n  tag_33\n  jumpi\n  returndatasize\n  0x00\n  dup1\n  returndatacopy\n  revert(0x00, returndatasize)\ntag_33:\n  pop\n  pop\n  pop\n  pop\n  mload(0x40)\n  returndatasize\n  not(0x1f)\n  0x1f\n  dup3\n  add\n  and\n  dup3\n  add\n  dup1\n  0x40\n  mstore\n  pop\n  dup2\n  add\n  swap1\n  tag_34\n  swap2\n  swap1\n  tag_35\n  jump\t// in\ntag_34:\n    /* \"Token_ETH.sol\":5691:5746  IUniswapV2Factory(uniswapV2Router.factory()).createPair */\n  0xffffffffffffffffffffffffffffffffffffffff\n  and\n  0xc9c65396\n    /* \"Token_ETH.sol\":5768:5772  this */\n  address\n    /* \"Token_ETH.sol\":5787:5802  uniswapV2Router */\n  0x13\n  0x00\n  swap1\n  sload\n  swap1\n  0x0100\n  exp\n  swap1\n  div\n  0xffffffffffffffffffffffffffffffffffffffff\n  and\n    /* \"Token_ETH.sol\":5787:5807  uniswapV2Router.WETH */\n  0xffffffffffffffffffffffffffffffffffffffff\n  and\n  0xad5c4648\n    /* \"Token_ETH.sol\":5787:5809  uniswapV2Router.WETH() */\n  mload(0x40)\n  dup2\n  0xffffffff\n  and\n  0xe0\n  shl\n  dup2\n  mstore\n  0x04\n  add\n  0x20\n  mload(0x40)\n  dup1\n  dup4\n  sub\n  dup2\n  dup7\n  gas\n  staticcall\n  iszero\n  dup1\n  iszero\n  tag_37\n  jumpi\n  returndatasize\n  0x00\n  dup1\n  returndatacopy\n  revert(0x00, returndatasize)\ntag_37:\n  pop\n  pop\n  pop\n  pop\n  mload(0x40)\n  returndatasize\n  not(0x1f)\n  0x1f\n  dup3\n  add\n  and\n  dup3\n  add\n  dup1\n  0x40\n  mstore\n  pop\n  dup2\n  add\n  swap1\n  tag_38\n  swap2\n  swap1\n  tag_35\n  jump\t// in\ntag_38:\n    /* \"Token_ETH.sol\":5691:5819  IUniswapV2Factory(uniswapV2Router.factory()).createPair(... */\n  mload(0x40)\n  dup4\n  0xffffffff\n  and\n  0xe0\n  shl\n  dup2\n  mstore\n  0x04\n  add\n  tag_39\n  swap3\n  swap2\n  swap1\n  tag_40\n  jump\t// in\ntag_39:\n  0x20\n  mload(0x40)\n  dup1\n  dup4\n  sub\n  dup2\n  0x00\n  dup8\n  gas\n  call\n  iszero\n  dup1\n  iszero\n  tag_42\n  jumpi\n  returndatasize\n  0x00\n  dup1\n  returndatacopy\n  revert(0x00, returndatasize)\ntag_42:\n  pop\n  pop\n  pop\n  pop\n  mload(0x40)\n  returndatasize\n  not(0x1f)\n  0x1f\n  dup3\n  add\n  and\n  dup3\n  add\n  dup1\n  0x40\n  mstore\n  pop\n  dup2\n  add\n  swap1\n  tag_43\n  swap2\n  swap1\n  tag_35\n  jump\t// in\ntag_43:\n    /* \"Token_ETH.sol\":5675:5688  uniswapV2Pair */\n  0x14\n  0x00\n    /* \"Token_ETH.sol\":5675:5819  uniswapV2Pair = IUniswapV2Factory(uniswapV2Router.factory()).createPair(... */\n  0x0100\n  exp\n  dup2\n  sload\n  dup2\n  0xffffffffffffffffffffffffffffffffffffffff\n  mul\n  not\n  and\n  swap1\n  dup4\n  0xffffffffffffffffffffffffffffffffffffffff\n  and\n  mul\n  or\n  swap1\n  sstore\n  pop\n    /* \"Token_ETH.sol\":5836:5849  uniswapV2Pair */\n  0x14\n  0x00\n  swap1\n  sload\n  swap1\n  0x0100\n  exp\n  swap1\n  div\n  0xffffffffffffffffffffffffffffffffffffffff\n  and\n    /* \"Token_ETH.sol\":5829:5858  IERC20(uniswapV2Pair).approve */\n  0xffffffffffffffffffffffffffffffffffffffff\n  and\n  0x095ea7b3\n    /* \"Token_ETH.sol\":5867:5882  uniswapV2Router */\n  0x13\n  0x00\n  swap1\n  sload\n  swap1\n  0x0100\n  exp\n  swap1\n  div\n  0xffffffffffffffffffffffffffffffffffffffff\n  and\n    /* \"Token_ETH.sol\":5885:5899  type(uint).max */\n  0xffffffffffffffffffffffffffffffffffffffffffffffffffffffffffffffff\n    /* \"Token_ETH.sol\":5829:5900  IERC20(uniswapV2Pair).approve(address(uniswapV2Router), type(uint).max) */\n  mload(0x40)\n  dup4\n  0xffffffff\n  and\n  0xe0\n  shl\n  dup2\n  mstore\n  0x04\n  add\n  tag_44\n  swap3\n  swap2\n  swap1\n  tag_45\n  jump\t// in\ntag_44:\n  0x20\n  mload(0x40)\n  dup1\n  dup4\n  sub\n  dup2\n  0x00\n  dup8\n  gas\n  call\n  iszero\n  dup1\n  iszero\n  tag_47\n  jumpi\n  returndatasize\n  0x00\n  dup1\n  returndatacopy\n  revert(0x00, returndatasize)\ntag_47:\n  pop\n  pop\n  pop\n  pop\n  mload(0x40)\n  returndatasize\n  not(0x1f)\n  0x1f\n  dup3\n  add\n  and\n  dup3\n  add\n  dup1\n  0x40\n  mstore\n  pop\n  dup2\n  add\n  swap1\n  tag_48\n  swap2\n  swap1\n  tag_49\n  jump\t// in\ntag_48:\n  pop\n    /* \"Token_ETH.sol\":5937:5949  _msgSender() */\n  tag_50\n    /* \"Token_ETH.sol\":5937:5947  _msgSender */\n  shl(0x20, tag_25)\n    /* \"Token_ETH.sol\":5937:5949  _msgSender() */\n  0x20\n  shr\n  jump\t// in\ntag_50:\n    /* \"Token_ETH.sol\":5916:5959  Transfer(address(0), _msgSender(), _tTotal) */\n  0xffffffffffffffffffffffffffffffffffffffff\n  and\n    /* \"Token_ETH.sol\":5933:5934  0 */\n  0x00\n    /* \"Token_ETH.sol\":5916:5959  Transfer(address(0), _msgSender(), _tTotal) */\n  0xffffffffffffffffffffffffffffffffffffffff\n  and\n  0xddf252ad1be2c89b69c2b068fc378daa952ba7f163c4a11628f55a4df523b3ef\n    /* \"Token_ETH.sol\":4427:4428  9 */\n  0x09\n    /* \"Token_ETH.sol\":4485:4487  10 */\n  0x0a\n    /* \"Token_ETH.sol\":4485:4500  10 ** _decimals */\n  tag_51\n  swap2\n  swap1\n  tag_2\n  jump\t// in\ntag_51:\n    /* \"Token_ETH.sol\":4469:4482  1_000_000_000 */\n  0x3b9aca00\n    /* \"Token_ETH.sol\":4469:4500  1_000_000_000 * 10 ** _decimals */\n  tag_52\n  swap2\n  swap1\n  tag_4\n  jump\t// in\ntag_52:\n    /* \"Token_ETH.sol\":5916:5959  Transfer(address(0), _msgSender(), _tTotal) */\n  mload(0x40)\n  tag_53\n  swap2\n  swap1\n  tag_54\n  jump\t// in\ntag_53:\n  mload(0x40)\n  dup1\n  swap2\n  sub\n  swap1\n  log3\n    /* \"Token_ETH.sol\":3683:13227  contract CATE is Context, IERC20, Ownable {... */\n  jump(tag_55)\n    /* \"Token_ETH.sol\":180:276  function _msgSender() internal view virtual returns (address) {... */\ntag_25:\n    /* \"Token_ETH.sol\":233:240  address */\n  0x00\n    /* \"Token_ETH.sol\":259:269  msg.sender */\n  caller\n    /* \"Token_ETH.sol\":252:269  return msg.sender */\n  swap1\n  pop\n    /* \"Token_ETH.sol\":180:276  function _msgSender() internal view virtual returns (address) {... */\n  swap1\n  jump\t// out\n    /* \"Token_ETH.sol\":2545:2622  function owner() public view returns (address) {... */\ntag_31:\n    /* \"Token_ETH.sol\":2583:2590  address */\n  0x00\n    /* \"Token_ETH.sol\":2609:2615  _owner */\n  dup1\n  0x00\n  swap1\n  sload\n  swap1\n  0x0100\n  exp\n  swap1\n  div\n  0xffffffffffffffffffffffffffffffffffffffff\n  and\n    /* \"Token_ETH.sol\":2602:2615  return _owner */\n  swap1\n  pop\n    /* \"Token_ETH.sol\":2545:2622  function owner() public view returns (address) {... */\n  swap1\n  jump\t// out\n    /* \"#utility.yul\":7:187   */\ntag_58:\n    /* \"#utility.yul\":55:132   */\n  0x4e487b7100000000000000000000000000000000000000000000000000000000\n    /* \"#utility.yul\":52:53   */\n  0x00\n    /* \"#utility.yul\":45:133   */\n  mstore\n    /* \"#utility.yul\":152:156   */\n  0x11\n    /* \"#utility.yul\":149:150   */\n  0x04\n    /* \"#utility.yul\":142:157   */\n  mstore\n    /* \"#utility.yul\":176:180   */\n  0x24\n    /* \"#utility.yul\":173:174   */\n  0x00\n    /* \"#utility.yul\":166:181   */\n  revert\n    /* \"#utility.yul\":193:295   */\ntag_59:\n    /* \"#utility.yul\":235:243   */\n  0x00\n    /* \"#utility.yul\":282:287   */\n  dup2\n    /* \"#utility.yul\":279:280   */\n  0x01\n    /* \"#utility.yul\":275:288   */\n  shr\n    /* \"#utility.yul\":254:288   */\n  swap1\n  pop\n    /* \"#utility.yul\":193:295   */\n  swap2\n  swap1\n  pop\n  jump\t// out\n    /* \"#utility.yul\":301:1149   */\ntag_60:\n    /* \"#utility.yul\":362:367   */\n  0x00\n    /* \"#utility.yul\":369:373   */\n  dup1\n    /* \"#utility.yul\":393:399   */\n  dup3\n    /* \"#utility.yul\":384:399   */\n  swap2\n  pop\n    /* \"#utility.yul\":417:422   */\n  dup4\n    /* \"#utility.yul\":408:422   */\n  swap1\n  pop\n    /* \"#utility.yul\":431:1143   */\ntag_81:\n    /* \"#utility.yul\":452:453   */\n  0x01\n    /* \"#utility.yul\":442:450   */\n  dup6\n    /* \"#utility.yul\":439:454   */\n  gt\n    /* \"#utility.yul\":431:1143   */\n  iszero\n  tag_83\n  jumpi\n    /* \"#utility.yul\":547:551   */\n  dup1\n    /* \"#utility.yul\":542:545   */\n  dup7\n    /* \"#utility.yul\":538:552   */\n  div\n    /* \"#utility.yul\":532:536   */\n  dup2\n    /* \"#utility.yul\":529:553   */\n  gt\n    /* \"#utility.yul\":526:576   */\n  iszero\n  tag_84\n  jumpi\n    /* \"#utility.yul\":556:574   */\n  tag_85\n  tag_58\n  jump\t// in\ntag_85:\n    /* \"#utility.yul\":526:576   */\ntag_84:\n    /* \"#utility.yul\":606:607   */\n  0x01\n    /* \"#utility.yul\":596:604   */\n  dup6\n    /* \"#utility.yul\":592:608   */\n  and\n    /* \"#utility.yul\":589:1040   */\n  iszero\n  tag_86\n  jumpi\n    /* \"#utility.yul\":1021:1025   */\n  dup1\n    /* \"#utility.yul\":1014:1019   */\n  dup3\n    /* \"#utility.yul\":1010:1026   */\n  mul\n    /* \"#utility.yul\":1001:1026   */\n  swap2\n  pop\n    /* \"#utility.yul\":589:1040   */\ntag_86:\n    /* \"#utility.yul\":1071:1075   */\n  dup1\n    /* \"#utility.yul\":1065:1069   */\n  dup2\n    /* \"#utility.yul\":1061:1076   */\n  mul\n    /* \"#utility.yul\":1053:1076   */\n  swap1\n  pop\n    /* \"#utility.yul\":1101:1133   */\n  tag_87\n    /* \"#utility.yul\":1124:1132   */\n  dup6\n    /* \"#utility.yul\":1101:1133   */\n  tag_59\n  jump\t// in\ntag_87:\n    /* \"#utility.yul\":1089:1133   */\n  swap5\n  pop\n    /* \"#utility.yul\":431:1143   */\n  jump(tag_81)\ntag_83:\n    /* \"#utility.yul\":301:1149   */\n  swap5\n  pop\n  swap5\n  swap3\n  pop\n  pop\n  pop\n  jump\t// out\n    /* \"#utility.yul\":1155:2228   */\ntag_61:\n    /* \"#utility.yul\":1209:1214   */\n  0x00\n    /* \"#utility.yul\":1400:1408   */\n  dup3\n    /* \"#utility.yul\":1390:1430   */\n  tag_89\n  jumpi\n    /* \"#utility.yul\":1421:1422   */\n  0x01\n    /* \"#utility.yul\":1412:1422   */\n  swap1\n  pop\n    /* \"#utility.yul\":1423:1428   */\n  jump(tag_88)\n    /* \"#utility.yul\":1390:1430   */\ntag_89:\n    /* \"#utility.yul\":1449:1453   */\n  dup2\n    /* \"#utility.yul\":1439:1475   */\n  tag_90\n  jumpi\n    /* \"#utility.yul\":1466:1467   */\n  0x00\n    /* \"#utility.yul\":1457:1467   */\n  swap1\n  pop\n    /* \"#utility.yul\":1468:1473   */\n  jump(tag_88)\n    /* \"#utility.yul\":1439:1475   */\ntag_90:\n    /* \"#utility.yul\":1535:1539   */\n  dup2\n    /* \"#utility.yul\":1583:1584   */\n  0x01\n    /* \"#utility.yul\":1578:1605   */\n  dup2\n  eq\n  tag_92\n  jumpi\n    /* \"#utility.yul\":1619:1620   */\n  0x02\n    /* \"#utility.yul\":1614:1805   */\n  dup2\n  eq\n  tag_93\n  jumpi\n    /* \"#utility.yul\":1528:1805   */\n  jump(tag_91)\n    /* \"#utility.yul\":1578:1605   */\ntag_92:\n    /* \"#utility.yul\":1596:1597   */\n  0x01\n    /* \"#utility.yul\":1587:1597   */\n  swap2\n  pop\n    /* \"#utility.yul\":1598:1603   */\n  pop\n  jump(tag_88)\n    /* \"#utility.yul\":1614:1805   */\ntag_93:\n    /* \"#utility.yul\":1659:1662   */\n  0xff\n    /* \"#utility.yul\":1649:1657   */\n  dup5\n    /* \"#utility.yul\":1646:1663   */\n  gt\n    /* \"#utility.yul\":1643:1686   */\n  iszero\n  tag_94\n  jumpi\n    /* \"#utility.yul\":1666:1684   */\n  tag_95\n  tag_58\n  jump\t// in\ntag_95:\n    /* \"#utility.yul\":1643:1686   */\ntag_94:\n    /* \"#utility.yul\":1715:1723   */\n  dup4\n    /* \"#utility.yul\":1712:1713   */\n  0x02\n    /* \"#utility.yul\":1708:1724   */\n  exp\n    /* \"#utility.yul\":1699:1724   */\n  swap2\n  pop\n    /* \"#utility.yul\":1750:1753   */\n  dup5\n    /* \"#utility.yul\":1743:1748   */\n  dup3\n    /* \"#utility.yul\":1740:1754   */\n  gt\n    /* \"#utility.yul\":1737:1777   */\n  iszero\n  tag_96\n  jumpi\n    /* \"#utility.yul\":1757:1775   */\n  tag_97\n  tag_58\n  jump\t// in\ntag_97:\n    /* \"#utility.yul\":1737:1777   */\ntag_96:\n    /* \"#utility.yul\":1790:1795   */\n  pop\n  jump(tag_88)\n    /* \"#utility.yul\":1528:1805   */\ntag_91:\n  pop\n    /* \"#utility.yul\":1914:1916   */\n  0x20\n    /* \"#utility.yul\":1904:1912   */\n  dup4\n    /* \"#utility.yul\":1901:1917   */\n  lt\n    /* \"#utility.yul\":1895:1898   */\n  0x0133\n    /* \"#utility.yul\":1889:1893   */\n  dup4\n    /* \"#utility.yul\":1886:1899   */\n  lt\n    /* \"#utility.yul\":1882:1918   */\n  and\n    /* \"#utility.yul\":1864:1866   */\n  0x4e\n    /* \"#utility.yul\":1854:1862   */\n  dup5\n    /* \"#utility.yul\":1851:1867   */\n  lt\n    /* \"#utility.yul\":1846:1848   */\n  0x0b\n    /* \"#utility.yul\":1840:1844   */\n  dup5\n    /* \"#utility.yul\":1837:1849   */\n  lt\n    /* \"#utility.yul\":1833:1868   */\n  and\n    /* \"#utility.yul\":1817:1928   */\n  or\n    /* \"#utility.yul\":1814:2060   */\n  iszero\n  tag_98\n  jumpi\n    /* \"#utility.yul\":1970:1978   */\n  dup3\n    /* \"#utility.yul\":1964:1968   */\n  dup3\n    /* \"#utility.yul\":1960:1979   */\n  exp\n    /* \"#utility.yul\":1951:1979   */\n  swap1\n  pop\n    /* \"#utility.yul\":2005:2008   */\n  dup4\n    /* \"#utility.yul\":1998:2003   */\n  dup2\n    /* \"#utility.yul\":1995:2009   */\n  gt\n    /* \"#utility.yul\":1992:2032   */\n  iszero\n  tag_99\n  jumpi\n    /* \"#utility.yul\":2012:2030   */\n  tag_100\n  tag_58\n  jump\t// in\ntag_100:\n    /* \"#utility.yul\":1992:2032   */\ntag_99:\n    /* \"#utility.yul\":2045:2050   */\n  jump(tag_88)\n    /* \"#utility.yul\":1814:2060   */\ntag_98:\n    /* \"#utility.yul\":2085:2127   */\n  tag_101\n    /* \"#utility.yul\":2123:2126   */\n  dup5\n    /* \"#utility.yul\":2113:2121   */\n  dup5\n    /* \"#utility.yul\":2107:2111   */\n  dup5\n    /* \"#utility.yul\":2104:2105   */\n  0x01\n    /* \"#utility.yul\":2085:2127   */\n  tag_60\n  jump\t// in\ntag_101:\n    /* \"#utility.yul\":2070:2127   */\n  swap3\n  pop\n  swap1\n  pop\n    /* \"#utility.yul\":2159:2163   */\n  dup2\n    /* \"#utility.yul\":2154:2157   */\n  dup5\n    /* \"#utility.yul\":2150:2164   */\n  div\n    /* \"#utility.yul\":2143:2148   */\n  dup2\n    /* \"#utility.yul\":2140:2165   */\n  gt\n    /* \"#utility.yul\":2137:2188   */\n  iszero\n  tag_102\n  jumpi\n    /* \"#utility.yul\":2168:2186   */\n  tag_103\n  tag_58\n  jump\t// in\ntag_103:\n    /* \"#utility.yul\":2137:2188   */\ntag_102:\n    /* \"#utility.yul\":2217:2221   */\n  dup2\n    /* \"#utility.yul\":2210:2215   */\n  dup2\n    /* \"#utility.yul\":2206:2222   */\n  mul\n    /* \"#utility.yul\":2197:2222   */\n  swap1\n  pop\n    /* \"#utility.yul\":1155:2228   */\ntag_88:\n  swap4\n  swap3\n  pop\n  pop\n  pop\n  jump\t// out\n    /* \"#utility.yul\":2234:2311   */\ntag_62:\n    /* \"#utility.yul\":2271:2278   */\n  0x00\n    /* \"#utility.yul\":2300:2305   */\n  dup2\n    /* \"#utility.yul\":2289:2305   */\n  swap1\n  pop\n    /* \"#utility.yul\":2234:2311   */\n  swap2\n  swap1\n  pop\n  jump\t// out\n    /* \"#utility.yul\":2317:2403   */\ntag_63:\n    /* \"#utility.yul\":2352:2359   */\n  0x00\n    /* \"#utility.yul\":2392:2396   */\n  0xff\n    /* \"#utility.yul\":2385:2390   */\n  dup3\n    /* \"#utility.yul\":2381:2397   */\n  and\n    /* \"#utility.yul\":2370:2397   */\n  swap1\n  pop\n    /* \"#utility.yul\":2317:2403   */\n  swap2\n  swap1\n  pop\n  jump\t// out\n    /* \"#utility.yul\":2409:2690   */\ntag_2:\n    /* \"#utility.yul\":2467:2472   */\n  0x00\n    /* \"#utility.yul\":2491:2514   */\n  tag_107\n    /* \"#utility.yul\":2509:2513   */\n  dup3\n    /* \"#utility.yul\":2491:2514   */\n  tag_62\n  jump\t// in\ntag_107:\n    /* \"#utility.yul\":2483:2514   */\n  swap2\n  pop\n    /* \"#utility.yul\":2535:2560   */\n  tag_108\n    /* \"#utility.yul\":2551:2559   */\n  dup4\n    /* \"#utility.yul\":2535:2560   */\n  tag_63\n  jump\t// in\ntag_108:\n    /* \"#utility.yul\":2523:2560   */\n  swap3\n  pop\n    /* \"#utility.yul\":2579:2683   */\n  tag_109\n    /* \"#utility.yul\":2616:2682   */\n  0xffffffffffffffffffffffffffffffffffffffffffffffffffffffffffffffff\n    /* \"#utility.yul\":2606:2614   */\n  dup5\n    /* \"#utility.yul\":2600:2604   */\n  dup5\n    /* \"#utility.yul\":2579:2683   */\n  tag_61\n  jump\t// in\ntag_109:\n    /* \"#utility.yul\":2570:2683   */\n  swap1\n  pop\n    /* \"#utility.yul\":2409:2690   */\n  swap3\n  swap2\n  pop\n  pop\n  jump\t// out\n    /* \"#utility.yul\":2696:3106   */\ntag_4:\n    /* \"#utility.yul\":2736:2743   */\n  0x00\n    /* \"#utility.yul\":2759:2779   */\n  tag_111\n    /* \"#utility.yul\":2777:2778   */\n  dup3\n    /* \"#utility.yul\":2759:2779   */\n  tag_62\n  jump\t// in\ntag_111:\n    /* \"#utility.yul\":2754:2779   */\n  swap2\n  pop\n    /* \"#utility.yul\":2793:2813   */\n  tag_112\n    /* \"#utility.yul\":2811:2812   */\n  dup4\n    /* \"#utility.yul\":2793:2813   */\n  tag_62\n  jump\t// in\ntag_112:\n    /* \"#utility.yul\":2788:2813   */\n  swap3\n  pop\n    /* \"#utility.yul\":2848:2849   */\n  dup3\n    /* \"#utility.yul\":2845:2846   */\n  dup3\n    /* \"#utility.yul\":2841:2850   */\n  mul\n    /* \"#utility.yul\":2870:2900   */\n  tag_113\n    /* \"#utility.yul\":2888:2899   */\n  dup2\n    /* \"#utility.yul\":2870:2900   */\n  tag_62\n  jump\t// in\ntag_113:\n    /* \"#utility.yul\":2859:2900   */\n  swap2\n  pop\n    /* \"#utility.yul\":3049:3050   */\n  dup3\n    /* \"#utility.yul\":3040:3047   */\n  dup3\n    /* \"#utility.yul\":3036:3051   */\n  div\n    /* \"#utility.yul\":3033:3034   */\n  dup5\n    /* \"#utility.yul\":3030:3052   */\n  eq\n    /* \"#utility.yul\":3010:3011   */\n  dup4\n    /* \"#utility.yul\":3003:3012   */\n  iszero\n    /* \"#utility.yul\":2983:3066   */\n  or\n    /* \"#utility.yul\":2960:3099   */\n  tag_114\n  jumpi\n    /* \"#utility.yul\":3079:3097   */\n  tag_115\n  tag_58\n  jump\t// in\ntag_115:\n    /* \"#utility.yul\":2960:3099   */\ntag_114:\n    /* \"#utility.yul\":2744:3106   */\n  pop\n    /* \"#utility.yul\":2696:3106   */\n  swap3\n  swap2\n  pop\n  pop\n  jump\t// out\n    /* \"#utility.yul\":3112:3292   */\ntag_64:\n    /* \"#utility.yul\":3160:3237   */\n  0x4e487b7100000000000000000000000000000000000000000000000000000000\n    /* \"#utility.yul\":3157:3158   */\n  0x00\n    /* \"#utility.yul\":3150:3238   */\n  mstore\n    /* \"#utility.yul\":3257:3261   */\n  0x12\n    /* \"#utility.yul\":3254:3255   */\n  0x04\n    /* \"#utility.yul\":3247:3262   */\n  mstore\n    /* \"#utility.yul\":3281:3285   */\n  0x24\n    /* \"#utility.yul\":3278:3279   */\n  0x00\n    /* \"#utility.yul\":3271:3286   */\n  revert\n    /* \"#utility.yul\":3298:3483   */\ntag_6:\n    /* \"#utility.yul\":3338:3339   */\n  0x00\n    /* \"#utility.yul\":3355:3375   */\n  tag_118\n    /* \"#utility.yul\":3373:3374   */\n  dup3\n    /* \"#utility.yul\":3355:3375   */\n  tag_62\n  jump\t// in\ntag_118:\n    /* \"#utility.yul\":3350:3375   */\n  swap2\n  pop\n    /* \"#utility.yul\":3389:3409   */\n  tag_119\n    /* \"#utility.yul\":3407:3408   */\n  dup4\n    /* \"#utility.yul\":3389:3409   */\n  tag_62\n  jump\t// in\ntag_119:\n    /* \"#utility.yul\":3384:3409   */\n  swap3\n  pop\n    /* \"#utility.yul\":3428:3429   */\n  dup3\n    /* \"#utility.yul\":3418:3453   */\n  tag_120\n  jumpi\n    /* \"#utility.yul\":3433:3451   */\n  tag_121\n  tag_64\n  jump\t// in\ntag_121:\n    /* \"#utility.yul\":3418:3453   */\ntag_120:\n    /* \"#utility.yul\":3475:3476   */\n  dup3\n    /* \"#utility.yul\":3472:3473   */\n  dup3\n    /* \"#utility.yul\":3468:3477   */\n  div\n    /* \"#utility.yul\":3463:3477   */\n  swap1\n  pop\n    /* \"#utility.yul\":3298:3483   */\n  swap3\n  swap2\n  pop\n  pop\n  jump\t// out\n    /* \"#utility.yul\":3570:3687   */\ntag_66:\n    /* \"#utility.yul\":3679:3680   */\n  0x00\n    /* \"#utility.yul\":3676:3677   */\n  dup1\n    /* \"#utility.yul\":3669:3681   */\n  revert\n    /* \"#utility.yul\":3816:3942   */\ntag_68:\n    /* \"#utility.yul\":3853:3860   */\n  0x00\n    /* \"#utility.yul\":3893:3935   */\n  0xffffffffffffffffffffffffffffffffffffffff\n    /* \"#utility.yul\":3886:3891   */\n  dup3\n    /* \"#utility.yul\":3882:3936   */\n  and\n    /* \"#utility.yul\":3871:3936   */\n  swap1\n  pop\n    /* \"#utility.yul\":3816:3942   */\n  swap2\n  swap1\n  pop\n  jump\t// out\n    /* \"#utility.yul\":3948:4044   */\ntag_69:\n    /* \"#utility.yul\":3985:3992   */\n  0x00\n    /* \"#utility.yul\":4014:4038   */\n  tag_127\n    /* \"#utility.yul\":4032:4037   */\n  dup3\n    /* \"#utility.yul\":4014:4038   */\n  tag_68\n  jump\t// in\ntag_127:\n    /* \"#utility.yul\":4003:4038   */\n  swap1\n  pop\n    /* \"#utility.yul\":3948:4044   */\n  swap2\n  swap1\n  pop\n  jump\t// out\n    /* \"#utility.yul\":4050:4172   */\ntag_70:\n    /* \"#utility.yul\":4123:4147   */\n  tag_129\n    /* \"#utility.yul\":4141:4146   */\n  dup2\n    /* \"#utility.yul\":4123:4147   */\n  tag_69\n  jump\t// in\ntag_129:\n    /* \"#utility.yul\":4116:4121   */\n  dup2\n    /* \"#utility.yul\":4113:4148   */\n  eq\n    /* \"#utility.yul\":4103:4166   */\n  tag_130\n  jumpi\n    /* \"#utility.yul\":4162:4163   */\n  0x00\n    /* \"#utility.yul\":4159:4160   */\n  dup1\n    /* \"#utility.yul\":4152:4164   */\n  revert\n    /* \"#utility.yul\":4103:4166   */\ntag_130:\n    /* \"#utility.yul\":4050:4172   */\n  pop\n  jump\t// out\n    /* \"#utility.yul\":4178:4321   */\ntag_71:\n    /* \"#utility.yul\":4235:4240   */\n  0x00\n    /* \"#utility.yul\":4266:4272   */\n  dup2\n    /* \"#utility.yul\":4260:4273   */\n  mload\n    /* \"#utility.yul\":4251:4273   */\n  swap1\n  pop\n    /* \"#utility.yul\":4282:4315   */\n  tag_132\n    /* \"#utility.yul\":4309:4314   */\n  dup2\n    /* \"#utility.yul\":4282:4315   */\n  tag_70\n  jump\t// in\ntag_132:\n    /* \"#utility.yul\":4178:4321   */\n  swap3\n  swap2\n  pop\n  pop\n  jump\t// out\n    /* \"#utility.yul\":4327:4678   */\ntag_35:\n    /* \"#utility.yul\":4397:4403   */\n  0x00\n    /* \"#utility.yul\":4446:4448   */\n  0x20\n    /* \"#utility.yul\":4434:4443   */\n  dup3\n    /* \"#utility.yul\":4425:4432   */\n  dup5\n    /* \"#utility.yul\":4421:4444   */\n  sub\n    /* \"#utility.yul\":4417:4449   */\n  slt\n    /* \"#utility.yul\":4414:4533   */\n  iszero\n  tag_134\n  jumpi\n    /* \"#utility.yul\":4452:4531   */\n  tag_135\n  tag_66\n  jump\t// in\ntag_135:\n    /* \"#utility.yul\":4414:4533   */\ntag_134:\n    /* \"#utility.yul\":4572:4573   */\n  0x00\n    /* \"#utility.yul\":4597:4661   */\n  tag_136\n    /* \"#utility.yul\":4653:4660   */\n  dup5\n    /* \"#utility.yul\":4644:4650   */\n  dup3\n    /* \"#utility.yul\":4633:4642   */\n  dup6\n    /* \"#utility.yul\":4629:4651   */\n  add\n    /* \"#utility.yul\":4597:4661   */\n  tag_71\n  jump\t// in\ntag_136:\n    /* \"#utility.yul\":4587:4661   */\n  swap2\n  pop\n    /* \"#utility.yul\":4543:4671   */\n  pop\n    /* \"#utility.yul\":4327:4678   */\n  swap3\n  swap2\n  pop\n  pop\n  jump\t// out\n    /* \"#utility.yul\":4684:4802   */\ntag_72:\n    /* \"#utility.yul\":4771:4795   */\n  tag_138\n    /* \"#utility.yul\":4789:4794   */\n  dup2\n    /* \"#utility.yul\":4771:4795   */\n  tag_69\n  jump\t// in\ntag_138:\n    /* \"#utility.yul\":4766:4769   */\n  dup3\n    /* \"#utility.yul\":4759:4796   */\n  mstore\n    /* \"#utility.yul\":4684:4802   */\n  pop\n  pop\n  jump\t// out\n    /* \"#utility.yul\":4808:5140   */\ntag_40:\n    /* \"#utility.yul\":4929:4933   */\n  0x00\n    /* \"#utility.yul\":4967:4969   */\n  0x40\n    /* \"#utility.yul\":4956:4965   */\n  dup3\n    /* \"#utility.yul\":4952:4970   */\n  add\n    /* \"#utility.yul\":4944:4970   */\n  swap1\n  pop\n    /* \"#utility.yul\":4980:5051   */\n  tag_140\n    /* \"#utility.yul\":5048:5049   */\n  0x00\n    /* \"#utility.yul\":5037:5046   */\n  dup4\n    /* \"#utility.yul\":5033:5050   */\n  add\n    /* \"#utility.yul\":5024:5030   */\n  dup6\n    /* \"#utility.yul\":4980:5051   */\n  tag_72\n  jump\t// in\ntag_140:\n    /* \"#utility.yul\":5061:5133   */\n  tag_141\n    /* \"#utility.yul\":5129:5131   */\n  0x20\n    /* \"#utility.yul\":5118:5127   */\n  dup4\n    /* \"#utility.yul\":5114:5132   */\n  add\n    /* \"#utility.yul\":5105:5111   */\n  dup5\n    /* \"#utility.yul\":5061:5133   */\n  tag_72\n  jump\t// in\ntag_141:\n    /* \"#utility.yul\":4808:5140   */\n  swap4\n  swap3\n  pop\n  pop\n  pop\n  jump\t// out\n    /* \"#utility.yul\":5146:5264   */\ntag_73:\n    /* \"#utility.yul\":5233:5257   */\n  tag_143\n    /* \"#utility.yul\":5251:5256   */\n  dup2\n    /* \"#utility.yul\":5233:5257   */\n  tag_62\n  jump\t// in\ntag_143:\n    /* \"#utility.yul\":5228:5231   */\n  dup3\n    /* \"#utility.yul\":5221:5258   */\n  mstore\n    /* \"#utility.yul\":5146:5264   */\n  pop\n  pop\n  jump\t// out\n    /* \"#utility.yul\":5270:5602   */\ntag_45:\n    /* \"#utility.yul\":5391:5395   */\n  0x00\n    /* \"#utility.yul\":5429:5431   */\n  0x40\n    /* \"#utility.yul\":5418:5427   */\n  dup3\n    /* \"#utility.yul\":5414:5432   */\n  add\n    /* \"#utility.yul\":5406:5432   */\n  swap1\n  pop\n    /* \"#utility.yul\":5442:5513   */\n  tag_145\n    /* \"#utility.yul\":5510:5511   */\n  0x00\n    /* \"#utility.yul\":5499:5508   */\n  dup4\n    /* \"#utility.yul\":5495:5512   */\n  add\n    /* \"#utility.yul\":5486:5492   */\n  dup6\n    /* \"#utility.yul\":5442:5513   */\n  tag_72\n  jump\t// in\ntag_145:\n    /* \"#utility.yul\":5523:5595   */\n  tag_146\n    /* \"#utility.yul\":5591:5593   */\n  0x20\n    /* \"#utility.yul\":5580:5589   */\n  dup4\n    /* \"#utility.yul\":5576:5594   */\n  add\n    /* \"#utility.yul\":5567:5573   */\n  dup5\n    /* \"#utility.yul\":5523:5595   */\n  tag_73\n  jump\t// in\ntag_146:\n    /* \"#utility.yul\":5270:5602   */\n  swap4\n  swap3\n  pop\n  pop\n  pop\n  jump\t// out\n    /* \"#utility.yul\":5608:5698   */\ntag_74:\n    /* \"#utility.yul\":5642:5649   */\n  0x00\n    /* \"#utility.yul\":5685:5690   */\n  dup2\n    /* \"#utility.yul\":5678:5691   */\n  iszero\n    /* \"#utility.yul\":5671:5692   */\n  iszero\n    /* \"#utility.yul\":5660:5692   */\n  swap1\n  pop\n    /* \"#utility.yul\":5608:5698   */\n  swap2\n  swap1\n  pop\n  jump\t// out\n    /* \"#utility.yul\":5704:5820   */\ntag_75:\n    /* \"#utility.yul\":5774:5795   */\n  tag_149\n    /* \"#utility.yul\":5789:5794   */\n  dup2\n    /* \"#utility.yul\":5774:5795   */\n  tag_74\n  jump\t// in\ntag_149:\n    /* \"#utility.yul\":5767:5772   */\n  dup2\n    /* \"#utility.yul\":5764:5796   */\n  eq\n    /* \"#utility.yul\":5754:5814   */\n  tag_150\n  jumpi\n    /* \"#utility.yul\":5810:5811   */\n  0x00\n    /* \"#utility.yul\":5807:5808   */\n  dup1\n    /* \"#utility.yul\":5800:5812   */\n  revert\n    /* \"#utility.yul\":5754:5814   */\ntag_150:\n    /* \"#utility.yul\":5704:5820   */\n  pop\n  jump\t// out\n    /* \"#utility.yul\":5826:5963   */\ntag_76:\n    /* \"#utility.yul\":5880:5885   */\n  0x00\n    /* \"#utility.yul\":5911:5917   */\n  dup2\n    /* \"#utility.yul\":5905:5918   */\n  mload\n    /* \"#utility.yul\":5896:5918   */\n  swap1\n  pop\n    /* \"#utility.yul\":5927:5957   */\n  tag_152\n    /* \"#utility.yul\":5951:5956   */\n  dup2\n    /* \"#utility.yul\":5927:5957   */\n  tag_75\n  jump\t// in\ntag_152:\n    /* \"#utility.yul\":5826:5963   */\n  swap3\n  swap2\n  pop\n  pop\n  jump\t// out\n    /* \"#utility.yul\":5969:6314   */\ntag_49:\n    /* \"#utility.yul\":6036:6042   */\n  0x00\n    /* \"#utility.yul\":6085:6087   */\n  0x20\n    /* \"#utility.yul\":6073:6082   */\n  dup3\n    /* \"#utility.yul\":6064:6071   */\n  dup5\n    /* \"#utility.yul\":6060:6083   */\n  sub\n    /* \"#utility.yul\":6056:6088   */\n  slt\n    /* \"#utility.yul\":6053:6172   */\n  iszero\n  tag_154\n  jumpi\n    /* \"#utility.yul\":6091:6170   */\n  tag_155\n  tag_66\n  jump\t// in\ntag_155:\n    /* \"#utility.yul\":6053:6172   */\ntag_154:\n    /* \"#utility.yul\":6211:6212   */\n  0x00\n    /* \"#utility.yul\":6236:6297   */\n  tag_156\n    /* \"#utility.yul\":6289:6296   */\n  dup5\n    /* \"#utility.yul\":6280:6286   */\n  dup3\n    /* \"#utility.yul\":6269:6278   */\n  dup6\n    /* \"#utility.yul\":6265:6287   */\n  add\n    /* \"#utility.yul\":6236:6297   */\n  tag_76\n  jump\t// in\ntag_156:\n    /* \"#utility.yul\":6226:6297   */\n  swap2\n  pop\n    /* \"#utility.yul\":6182:6307   */\n  pop\n    /* \"#utility.yul\":5969:6314   */\n  swap3\n  swap2\n  pop\n  pop\n  jump\t// out\n    /* \"#utility.yul\":6320:6542   */\ntag_54:\n    /* \"#utility.yul\":6413:6417   */\n  0x00\n    /* \"#utility.yul\":6451:6453   */\n  0x20\n    /* \"#utility.yul\":6440:6449   */\n  dup3\n    /* \"#utility.yul\":6436:6454   */\n  add\n    /* \"#utility.yul\":6428:6454   */\n  swap1\n  pop\n    /* \"#utility.yul\":6464:6535   */\n  tag_158\n    /* \"#utility.yul\":6532:6533   */\n  0x00\n    /* \"#utility.yul\":6521:6530   */\n  dup4\n    /* \"#utility.yul\":6517:6534   */\n  add\n    /* \"#utility.yul\":6508:6514   */\n  dup5\n    /* \"#utility.yul\":6464:6535   */\n  tag_73\n  jump\t// in\ntag_158:\n    /* \"#utility.yul\":6320:6542   */\n  swap3\n  swap2\n  pop\n  pop\n  jump\t// out\n    /* \"Token_ETH.sol\":3683:13227  contract CATE is Context, IERC20, Ownable {... */\ntag_55:\n  dataSize(sub_0)\n  dup1\n  dataOffset(sub_0)\n  0x00\n  codecopy\n  0x00\n  return\nstop\n\nsub_0: assembly {\n        /* \"Token_ETH.sol\":3683:13227  contract CATE is Context, IERC20, Ownable {... */\n      mstore(0x40, 0x80)\n      jumpi(tag_1, lt(calldatasize, 0x04))\n      shr(0xe0, calldataload(0x00))\n      dup1\n      0x7d1db4a5\n      gt\n      tag_25\n      jumpi\n      dup1\n      0x9b8fe422\n      gt\n      tag_26\n      jumpi\n      dup1\n      0x9b8fe422\n      eq\n      tag_19\n      jumpi\n      dup1\n      0xa9059cbb\n      eq\n      tag_20\n      jumpi\n      dup1\n      0xbf474bed\n      eq\n      tag_21\n      jumpi\n      dup1\n      0xc9567bf9\n      eq\n      tag_22\n      jumpi\n      dup1\n      0xdd62ed3e\n      eq\n      tag_23\n      jumpi\n      dup1\n      0xf4293890\n      eq\n      tag_24\n      jumpi\n      jump(tag_2)\n    tag_26:\n      dup1\n      0x7d1db4a5\n      eq\n      tag_14\n      jumpi\n      dup1\n      0x874d9e3b\n      eq\n      tag_15\n      jumpi\n      dup1\n      0x8da5cb5b\n      eq\n      tag_16\n      jumpi\n      dup1\n      0x8f9a55c0\n      eq\n      tag_17\n      jumpi\n      dup1\n      0x95d89b41\n      eq\n      tag_18\n      jumpi\n      jump(tag_2)\n    tag_25:\n      dup1\n      0x313ce567\n      gt\n      tag_27\n      jumpi\n      dup1\n      0x313ce567\n      eq\n      tag_8\n      jumpi\n      dup1\n      0x38347fa4\n      eq\n      tag_9\n      jumpi\n      dup1\n      0x3bbac579\n      eq\n      tag_10\n      jumpi\n      dup1\n      0x62256589\n      eq\n      tag_11\n      jumpi\n      dup1\n      0x70a08231\n      eq\n      tag_12\n      jumpi\n      dup1\n      0x715018a6\n      eq\n      tag_13\n      jumpi\n      jump(tag_2)\n    tag_27:\n      dup1\n      0x06fdde03\n      eq\n      tag_3\n      jumpi\n      dup1\n      0x095ea7b3\n      eq\n      tag_4\n      jumpi\n      dup1\n      0x0faee56f\n      eq\n      tag_5\n      jumpi\n      dup1\n      0x18160ddd\n      eq\n      tag_6\n      jumpi\n      dup1\n      0x23b872dd\n      eq\n      tag_7\n      jumpi\n      jump(tag_2)\n    tag_1:\n      jumpi(tag_2, calldatasize)\n      stop\n    tag_2:\n      0x00\n      dup1\n      revert\n        /* \"Token_ETH.sol\":5972:6053  function name() public pure returns (string memory) {... */\n    tag_3:\n      callvalue\n      dup1\n      iszero\n      tag_30\n      jumpi\n      0x00\n      dup1\n      revert\n    tag_30:\n      pop\n      tag_31\n      tag_32\n      jump\t// in\n    tag_31:\n      mload(0x40)\n      tag_33\n      swap2\n      swap1\n      tag_34\n      jump\t// in\n    tag_33:\n      mload(0x40)\n      dup1\n      swap2\n      sub\n      swap1\n      return\n        /* \"Token_ETH.sol\":6820:7000  function approve(... */\n    tag_4:\n      callvalue\n      dup1\n      iszero\n      tag_35\n      jumpi\n      0x00\n      dup1\n      revert\n    tag_35:\n      pop\n      tag_36\n      0x04\n      dup1\n      calldatasize\n      sub\n      dup2\n      add\n      swap1\n      tag_37\n      swap2\n      swap1\n      tag_38\n      jump\t// in\n    tag_37:\n      tag_39\n      jump\t// in\n    tag_36:\n      mload(0x40)\n      tag_40\n      swap2\n      swap1\n      tag_41\n      jump\t// in\n    tag_40:\n      mload(0x40)\n      dup1\n      swap2\n      sub\n      swap1\n      return\n        /* \"Token_ETH.sol\":4783:4831  uint256 public _maxTaxSwap = 1 * (_tTotal / 100) */\n    tag_5:\n      callvalue\n      dup1\n      iszero\n      tag_42\n      jumpi\n      0x00\n      dup1\n      revert\n    tag_42:\n      pop\n      tag_43\n      tag_44\n      jump\t// in\n    tag_43:\n      mload(0x40)\n      tag_45\n      swap2\n      swap1\n      tag_46\n      jump\t// in\n    tag_45:\n      mload(0x40)\n      dup1\n      swap2\n      sub\n      swap1\n      return\n        /* \"Token_ETH.sol\":6237:6330  function totalSupply() public pure override returns (uint256) {... */\n    tag_6:\n      callvalue\n      dup1\n      iszero\n      tag_47\n      jumpi\n      0x00\n      dup1\n      revert\n    tag_47:\n      pop\n      tag_48\n      tag_49\n      jump\t// in\n    tag_48:\n      mload(0x40)\n      tag_50\n      swap2\n      swap1\n      tag_46\n      jump\t// in\n    tag_50:\n      mload(0x40)\n      dup1\n      swap2\n      sub\n      swap1\n      return\n        /* \"Token_ETH.sol\":7006:7437  function transferFrom(... */\n    tag_7:\n      callvalue\n      dup1\n      iszero\n      tag_51\n      jumpi\n      0x00\n      dup1\n      revert\n    tag_51:\n      pop\n      tag_52\n      0x04\n      dup1\n      calldatasize\n      sub\n      dup2\n      add\n      swap1\n      tag_53\n      swap2\n      swap1\n      tag_54\n      jump\t// in\n    tag_53:\n      tag_55\n      jump\t// in\n    tag_52:\n      mload(0x40)\n      tag_56\n      swap2\n      swap1\n      tag_41\n      jump\t// in\n    tag_56:\n      mload(0x40)\n      dup1\n      swap2\n      sub\n      swap1\n      return\n        /* \"Token_ETH.sol\":6150:6231  function decimals() public pure returns (uint8) {... */\n    tag_8:\n      callvalue\n      dup1\n      iszero\n      tag_57\n      jumpi\n      0x00\n      dup1\n      revert\n    tag_57:\n      pop\n      tag_58\n      tag_59\n      jump\t// in\n    tag_58:\n      mload(0x40)\n      tag_60\n      swap2\n      swap1\n      tag_61\n      jump\t// in\n    tag_60:\n      mload(0x40)\n      dup1\n      swap2\n      sub\n      swap1\n      return\n        /* \"Token_ETH.sol\":12676:13034  function manualUnclog() external {... */\n    tag_9:\n      callvalue\n      dup1\n      iszero\n      tag_62\n      jumpi\n      0x00\n      dup1\n      revert\n    tag_62:\n      pop\n      tag_63\n      tag_64\n      jump\t// in\n    tag_63:\n      stop\n        /* \"Token_ETH.sol\":12088:12172  function isBot(address a) public view returns (bool) {... */\n    tag_10:\n      callvalue\n      dup1\n      iszero\n      tag_65\n      jumpi\n      0x00\n      dup1\n      revert\n    tag_65:\n      pop\n      tag_66\n      0x04\n      dup1\n      calldatasize\n      sub\n      dup2\n      add\n      swap1\n      tag_67\n      swap2\n      swap1\n      tag_68\n      jump\t// in\n    tag_67:\n      tag_69\n      jump\t// in\n    tag_66:\n      mload(0x40)\n      tag_70\n      swap2\n      swap1\n      tag_41\n      jump\t// in\n    tag_70:\n      mload(0x40)\n      dup1\n      swap2\n      sub\n      swap1\n      return\n        /* \"Token_ETH.sol\":11499:11656  function removeLimit() external onlyOwner {... */\n    tag_11:\n      callvalue\n      dup1\n      iszero\n      tag_71\n      jumpi\n      0x00\n      dup1\n      revert\n    tag_71:\n      pop\n      tag_72\n      tag_73\n      jump\t// in\n    tag_72:\n      stop\n        /* \"Token_ETH.sol\":6336:6453  function balanceOf(address account) public view override returns (uint256) {... */\n    tag_12:\n      callvalue\n      dup1\n      iszero\n      tag_74\n      jumpi\n      0x00\n      dup1\n      revert\n    tag_74:\n      pop\n      tag_75\n      0x04\n      dup1\n      calldatasize\n      sub\n      dup2\n      add\n      swap1\n      tag_76\n      swap2\n      swap1\n      tag_68\n      jump\t// in\n    tag_76:\n      tag_77\n      jump\t// in\n    tag_75:\n      mload(0x40)\n      tag_78\n      swap2\n      swap1\n      tag_46\n      jump\t// in\n    tag_78:\n      mload(0x40)\n      dup1\n      swap2\n      sub\n      swap1\n      return\n        /* \"Token_ETH.sol\":2750:2895  function renounceOwnership() public virtual onlyOwner {... */\n    tag_13:\n      callvalue\n      dup1\n      iszero\n      tag_79\n      jumpi\n      0x00\n      dup1\n      revert\n    tag_79:\n      pop\n      tag_80\n      tag_81\n      jump\t// in\n    tag_80:\n      stop\n        /* \"Token_ETH.sol\":4610:4659  uint256 public _maxTxAmount = 1 * (_tTotal / 100) */\n    tag_14:\n      callvalue\n      dup1\n      iszero\n      tag_82\n      jumpi\n      0x00\n      dup1\n      revert\n    tag_82:\n      pop\n      tag_83\n      tag_84\n      jump\t// in\n    tag_83:\n      mload(0x40)\n      tag_85\n      swap2\n      swap1\n      tag_46\n      jump\t// in\n    tag_85:\n      mload(0x40)\n      dup1\n      swap2\n      sub\n      swap1\n      return\n        /* \"Token_ETH.sol\":11758:11915  function addB(address[] memory bots_) public onlyOwner {... */\n    tag_15:\n      callvalue\n      dup1\n      iszero\n      tag_86\n      jumpi\n      0x00\n      dup1\n      revert\n    tag_86:\n      pop\n      tag_87\n      0x04\n      dup1\n      calldatasize\n      sub\n      dup2\n      add\n      swap1\n      tag_88\n      swap2\n      swap1\n      tag_89\n      jump\t// in\n    tag_88:\n      tag_90\n      jump\t// in\n    tag_87:\n      stop\n        /* \"Token_ETH.sol\":2545:2622  function owner() public view returns (address) {... */\n    tag_16:\n      callvalue\n      dup1\n      iszero\n      tag_91\n      jumpi\n      0x00\n      dup1\n      revert\n    tag_91:\n      pop\n      tag_92\n      tag_93\n      jump\t// in\n    tag_92:\n      mload(0x40)\n      tag_94\n      swap2\n      swap1\n      tag_95\n      jump\t// in\n    tag_94:\n      mload(0x40)\n      dup1\n      swap2\n      sub\n      swap1\n      return\n        /* \"Token_ETH.sol\":4665:4716  uint256 public _maxWalletSize = 1 * (_tTotal / 100) */\n    tag_17:\n      callvalue\n      dup1\n      iszero\n      tag_96\n      jumpi\n      0x00\n      dup1\n      revert\n    tag_96:\n      pop\n      tag_97\n      tag_98\n      jump\t// in\n    tag_97:\n      mload(0x40)\n      tag_99\n      swap2\n      swap1\n      tag_46\n      jump\t// in\n    tag_99:\n      mload(0x40)\n      dup1\n      swap2\n      sub\n      swap1\n      return\n        /* \"Token_ETH.sol\":6059:6144  function symbol() public pure returns (string memory) {... */\n    tag_18:\n      callvalue\n      dup1\n      iszero\n      tag_100\n      jumpi\n      0x00\n      dup1\n      revert\n    tag_100:\n      pop\n      tag_101\n      tag_102\n      jump\t// in\n    tag_101:\n      mload(0x40)\n      tag_103\n      swap2\n      swap1\n      tag_34\n      jump\t// in\n    tag_103:\n      mload(0x40)\n      dup1\n      swap2\n      sub\n      swap1\n      return\n        /* \"Token_ETH.sol\":11921:12082  function delB(address[] memory notbot) public onlyOwner {... */\n    tag_19:\n      callvalue\n      dup1\n      iszero\n      tag_104\n      jumpi\n      0x00\n      dup1\n      revert\n    tag_104:\n      pop\n      tag_105\n      0x04\n      dup1\n      calldatasize\n      sub\n      dup2\n      add\n      swap1\n      tag_106\n      swap2\n      swap1\n      tag_89\n      jump\t// in\n    tag_106:\n      tag_107\n      jump\t// in\n    tag_105:\n      stop\n        /* \"Token_ETH.sol\":6459:6645  function transfer(... */\n    tag_20:\n      callvalue\n      dup1\n      iszero\n      tag_108\n      jumpi\n      0x00\n      dup1\n      revert\n    tag_108:\n      pop\n      tag_109\n      0x04\n      dup1\n      calldatasize\n      sub\n      dup2\n      add\n      swap1\n      tag_110\n      swap2\n      swap1\n      tag_38\n      jump\t// in\n    tag_110:\n      tag_111\n      jump\t// in\n    tag_109:\n      mload(0x40)\n      tag_112\n      swap2\n      swap1\n      tag_41\n      jump\t// in\n    tag_112:\n      mload(0x40)\n      dup1\n      swap2\n      sub\n      swap1\n      return\n        /* \"Token_ETH.sol\":4722:4777  uint256 public _taxSwapThreshold = 1 * (_tTotal / 1000) */\n    tag_21:\n      callvalue\n      dup1\n      iszero\n      tag_113\n      jumpi\n      0x00\n      dup1\n      revert\n    tag_113:\n      pop\n      tag_114\n      tag_115\n      jump\t// in\n    tag_114:\n      mload(0x40)\n      tag_116\n      swap2\n      swap1\n      tag_46\n      jump\t// in\n    tag_116:\n      mload(0x40)\n      dup1\n      swap2\n      sub\n      swap1\n      return\n        /* \"Token_ETH.sol\":12178:12635  function openTrading() external onlyOwner {... */\n    tag_22:\n      callvalue\n      dup1\n      iszero\n      tag_117\n      jumpi\n      0x00\n      dup1\n      revert\n    tag_117:\n      pop\n      tag_118\n      tag_119\n      jump\t// in\n    tag_118:\n      stop\n        /* \"Token_ETH.sol\":6651:6814  function allowance(... */\n    tag_23:\n      callvalue\n      dup1\n      iszero\n      tag_120\n      jumpi\n      0x00\n      dup1\n      revert\n    tag_120:\n      pop\n      tag_121\n      0x04\n      dup1\n      calldatasize\n      sub\n      dup2\n      add\n      swap1\n      tag_122\n      swap2\n      swap1\n      tag_123\n      jump\t// in\n    tag_122:\n      tag_124\n      jump\t// in\n    tag_121:\n      mload(0x40)\n      tag_125\n      swap2\n      swap1\n      tag_46\n      jump\t// in\n    tag_125:\n      mload(0x40)\n      dup1\n      swap2\n      sub\n      swap1\n      return\n        /* \"Token_ETH.sol\":13040:13225  function manualSend() external {... */\n    tag_24:\n      callvalue\n      dup1\n      iszero\n      tag_126\n      jumpi\n      0x00\n      dup1\n      revert\n    tag_126:\n      pop\n      tag_127\n      tag_128\n      jump\t// in\n    tag_127:\n      stop\n        /* \"Token_ETH.sol\":5972:6053  function name() public pure returns (string memory) {... */\n    tag_32:\n        /* \"Token_ETH.sol\":6009:6022  string memory */\n      0x60\n        /* \"Token_ETH.sol\":6041:6046  _name */\n      mload(0x40)\n      dup1\n      0x40\n      add\n      0x40\n      mstore\n      dup1\n      0x04\n      dup2\n      mstore\n      0x20\n      add\n      0x4361746500000000000000000000000000000000000000000000000000000000\n      dup2\n      mstore\n      pop\n        /* \"Token_ETH.sol\":6034:6046  return _name */\n      swap1\n      pop\n        /* \"Token_ETH.sol\":5972:6053  function name() public pure returns (string memory) {... */\n      swap1\n      jump\t// out\n        /* \"Token_ETH.sol\":6820:7000  function approve(... */\n    tag_39:\n        /* \"Token_ETH.sol\":6917:6921  bool */\n      0x00\n        /* \"Token_ETH.sol\":6933:6972  _approve(_msgSender(), spender, amount) */\n      tag_131\n        /* \"Token_ETH.sol\":6942:6954  _msgSender() */\n      tag_132\n        /* \"Token_ETH.sol\":6942:6952  _msgSender */\n      tag_133\n        /* \"Token_ETH.sol\":6942:6954  _msgSender() */\n      jump\t// in\n    tag_132:\n        /* \"Token_ETH.sol\":6956:6963  spender */\n      dup5\n        /* \"Token_ETH.sol\":6965:6971  amount */\n      dup5\n        /* \"Token_ETH.sol\":6933:6941  _approve */\n      tag_134\n        /* \"Token_ETH.sol\":6933:6972  _approve(_msgSender(), spender, amount) */\n      jump\t// in\n    tag_131:\n        /* \"Token_ETH.sol\":6989:6993  true */\n      0x01\n        /* \"Token_ETH.sol\":6982:6993  return true */\n      swap1\n      pop\n        /* \"Token_ETH.sol\":6820:7000  function approve(... */\n      swap3\n      swap2\n      pop\n      pop\n      jump\t// out\n        /* \"Token_ETH.sol\":4783:4831  uint256 public _maxTaxSwap = 1 * (_tTotal / 100) */\n    tag_44:\n      sload(0x12)\n      dup2\n      jump\t// out\n        /* \"Token_ETH.sol\":6237:6330  function totalSupply() public pure override returns (uint256) {... */\n    tag_49:\n        /* \"Token_ETH.sol\":6290:6297  uint256 */\n      0x00\n        /* \"Token_ETH.sol\":4427:4428  9 */\n      0x09\n        /* \"Token_ETH.sol\":4485:4487  10 */\n      0x0a\n        /* \"Token_ETH.sol\":4485:4500  10 ** _decimals */\n      tag_136\n      swap2\n      swap1\n      tag_137\n      jump\t// in\n    tag_136:\n        /* \"Token_ETH.sol\":4469:4482  1_000_000_000 */\n      0x3b9aca00\n        /* \"Token_ETH.sol\":4469:4500  1_000_000_000 * 10 ** _decimals */\n      tag_138\n      swap2\n      swap1\n      tag_139\n      jump\t// in\n    tag_138:\n        /* \"Token_ETH.sol\":6309:6323  return _tTotal */\n      swap1\n      pop\n        /* \"Token_ETH.sol\":6237:6330  function totalSupply() public pure override returns (uint256) {... */\n      swap1\n      jump\t// out\n        /* \"Token_ETH.sol\":7006:7437  function transferFrom(... */\n    tag_55:\n        /* \"Token_ETH.sol\":7134:7138  bool */\n      0x00\n        /* \"Token_ETH.sol\":7150:7186  _transfer(sender, recipient, amount) */\n      tag_141\n        /* \"Token_ETH.sol\":7160:7166  sender */\n      dup5\n        /* \"Token_ETH.sol\":7168:7177  recipient */\n      dup5\n        /* \"Token_ETH.sol\":7179:7185  amount */\n      dup5\n        /* \"Token_ETH.sol\":7150:7159  _transfer */\n      tag_142\n        /* \"Token_ETH.sol\":7150:7186  _transfer(sender, recipient, amount) */\n      jump\t// in\n    tag_141:\n        /* \"Token_ETH.sol\":7196:7409  _approve(... */\n      tag_143\n        /* \"Token_ETH.sol\":7218:7224  sender */\n      dup5\n        /* \"Token_ETH.sol\":7238:7250  _msgSender() */\n      tag_144\n        /* \"Token_ETH.sol\":7238:7248  _msgSender */\n      tag_133\n        /* \"Token_ETH.sol\":7238:7250  _msgSender() */\n      jump\t// in\n    tag_144:\n        /* \"Token_ETH.sol\":7264:7399  _allowances[sender][_msgSender()].sub(... */\n      tag_145\n        /* \"Token_ETH.sol\":7319:7325  amount */\n      dup6\n        /* \"Token_ETH.sol\":7264:7399  _allowances[sender][_msgSender()].sub(... */\n      mload(0x40)\n      dup1\n      0x60\n      add\n      0x40\n      mstore\n      dup1\n      0x28\n      dup2\n      mstore\n      0x20\n      add\n      data_974d1b4421da69cc60b481194f0dad36a5bb4e23da810da7a7fb30cdba178330\n      0x28\n      swap2\n      codecopy\n        /* \"Token_ETH.sol\":7264:7275  _allowances */\n      0x02\n        /* \"Token_ETH.sol\":7264:7283  _allowances[sender] */\n      0x00\n        /* \"Token_ETH.sol\":7276:7282  sender */\n      dup12\n        /* \"Token_ETH.sol\":7264:7283  _allowances[sender] */\n      0xffffffffffffffffffffffffffffffffffffffff\n      and\n      0xffffffffffffffffffffffffffffffffffffffff\n      and\n      dup2\n      mstore\n      0x20\n      add\n      swap1\n      dup2\n      mstore\n      0x20\n      add\n      0x00\n      keccak256\n        /* \"Token_ETH.sol\":7264:7297  _allowances[sender][_msgSender()] */\n      0x00\n        /* \"Token_ETH.sol\":7284:7296  _msgSender() */\n      tag_146\n        /* \"Token_ETH.sol\":7284:7294  _msgSender */\n      tag_133\n        /* \"Token_ETH.sol\":7284:7296  _msgSender() */\n      jump\t// in\n    tag_146:\n        /* \"Token_ETH.sol\":7264:7297  _allowances[sender][_msgSender()] */\n      0xffffffffffffffffffffffffffffffffffffffff\n      and\n      0xffffffffffffffffffffffffffffffffffffffff\n      and\n      dup2\n      mstore\n      0x20\n      add\n      swap1\n      dup2\n      mstore\n      0x20\n      add\n      0x00\n      keccak256\n      sload\n        /* \"Token_ETH.sol\":7264:7301  _allowances[sender][_msgSender()].sub */\n      tag_147\n      swap1\n        /* \"Token_ETH.sol\":7264:7399  _allowances[sender][_msgSender()].sub(... */\n      swap3\n      swap2\n      swap1\n      0xffffffff\n      and\n      jump\t// in\n    tag_145:\n        /* \"Token_ETH.sol\":7196:7204  _approve */\n      tag_134\n        /* \"Token_ETH.sol\":7196:7409  _approve(... */\n      jump\t// in\n    tag_143:\n        /* \"Token_ETH.sol\":7426:7430  true */\n      0x01\n        /* \"Token_ETH.sol\":7419:7430  return true */\n      swap1\n      pop\n        /* \"Token_ETH.sol\":7006:7437  function transferFrom(... */\n      swap4\n      swap3\n      pop\n      pop\n      pop\n      jump\t// out\n        /* \"Token_ETH.sol\":6150:6231  function decimals() public pure returns (uint8) {... */\n    tag_59:\n        /* \"Token_ETH.sol\":6191:6196  uint8 */\n      0x00\n        /* \"Token_ETH.sol\":4427:4428  9 */\n      0x09\n        /* \"Token_ETH.sol\":6208:6224  return _decimals */\n      swap1\n      pop\n        /* \"Token_ETH.sol\":6150:6231  function decimals() public pure returns (uint8) {... */\n      swap1\n      jump\t// out\n        /* \"Token_ETH.sol\":12676:13034  function manualUnclog() external {... */\n    tag_64:\n        /* \"Token_ETH.sol\":12743:12753  _taxWallet */\n      0x05\n      0x00\n      swap1\n      sload\n      swap1\n      0x0100\n      exp\n      swap1\n      div\n      0xffffffffffffffffffffffffffffffffffffffff\n      and\n        /* \"Token_ETH.sol\":12727:12753  _msgSender() == _taxWallet */\n      0xffffffffffffffffffffffffffffffffffffffff\n      and\n        /* \"Token_ETH.sol\":12727:12739  _msgSender() */\n      tag_150\n        /* \"Token_ETH.sol\":12727:12737  _msgSender */\n      tag_133\n        /* \"Token_ETH.sol\":12727:12739  _msgSender() */\n      jump\t// in\n    tag_150:\n        /* \"Token_ETH.sol\":12727:12753  _msgSender() == _taxWallet */\n      0xffffffffffffffffffffffffffffffffffffffff\n      and\n      eq\n        /* \"Token_ETH.sol\":12719:12754  require(_msgSender() == _taxWallet) */\n      tag_151\n      jumpi\n      0x00\n      dup1\n      revert\n    tag_151:\n        /* \"Token_ETH.sol\":12764:12784  uint256 tokenBalance */\n      0x00\n        /* \"Token_ETH.sol\":12787:12811  balanceOf(address(this)) */\n      tag_152\n        /* \"Token_ETH.sol\":12805:12809  this */\n      address\n        /* \"Token_ETH.sol\":12787:12796  balanceOf */\n      tag_77\n        /* \"Token_ETH.sol\":12787:12811  balanceOf(address(this)) */\n      jump\t// in\n    tag_152:\n        /* \"Token_ETH.sol\":12764:12811  uint256 tokenBalance = balanceOf(address(this)) */\n      swap1\n      pop\n        /* \"Token_ETH.sol\":12840:12841  0 */\n      0x00\n        /* \"Token_ETH.sol\":12825:12837  tokenBalance */\n      dup2\n        /* \"Token_ETH.sol\":12825:12841  tokenBalance > 0 */\n      gt\n        /* \"Token_ETH.sol\":12821:12898  if (tokenBalance > 0) {... */\n      iszero\n      tag_153\n      jumpi\n        /* \"Token_ETH.sol\":12857:12887  swapTokensForEth(tokenBalance) */\n      tag_154\n        /* \"Token_ETH.sol\":12874:12886  tokenBalance */\n      dup2\n        /* \"Token_ETH.sol\":12857:12873  swapTokensForEth */\n      tag_155\n        /* \"Token_ETH.sol\":12857:12887  swapTokensForEth(tokenBalance) */\n      jump\t// in\n    tag_154:\n        /* \"Token_ETH.sol\":12821:12898  if (tokenBalance > 0) {... */\n    tag_153:\n        /* \"Token_ETH.sol\":12907:12925  uint256 ethBalance */\n      0x00\n        /* \"Token_ETH.sol\":12928:12949  address(this).balance */\n      selfbalance\n        /* \"Token_ETH.sol\":12907:12949  uint256 ethBalance = address(this).balance */\n      swap1\n      pop\n        /* \"Token_ETH.sol\":12976:12977  0 */\n      0x00\n        /* \"Token_ETH.sol\":12963:12973  ethBalance */\n      dup2\n        /* \"Token_ETH.sol\":12963:12977  ethBalance > 0 */\n      gt\n        /* \"Token_ETH.sol\":12959:13028  if (ethBalance > 0) {... */\n      iszero\n      tag_156\n      jumpi\n        /* \"Token_ETH.sol\":12993:13017  sendETHToFee(ethBalance) */\n      tag_157\n        /* \"Token_ETH.sol\":13006:13016  ethBalance */\n      dup2\n        /* \"Token_ETH.sol\":12993:13005  sendETHToFee */\n      tag_158\n        /* \"Token_ETH.sol\":12993:13017  sendETHToFee(ethBalance) */\n      jump\t// in\n    tag_157:\n        /* \"Token_ETH.sol\":12959:13028  if (ethBalance > 0) {... */\n    tag_156:\n        /* \"Token_ETH.sol\":12709:13034  {... */\n      pop\n      pop\n        /* \"Token_ETH.sol\":12676:13034  function manualUnclog() external {... */\n      jump\t// out\n        /* \"Token_ETH.sol\":12088:12172  function isBot(address a) public view returns (bool) {... */\n    tag_69:\n        /* \"Token_ETH.sol\":12135:12139  bool */\n      0x00\n        /* \"Token_ETH.sol\":12158:12162  bots */\n      0x04\n        /* \"Token_ETH.sol\":12158:12165  bots[a] */\n      0x00\n        /* \"Token_ETH.sol\":12163:12164  a */\n      dup4\n        /* \"Token_ETH.sol\":12158:12165  bots[a] */\n      0xffffffffffffffffffffffffffffffffffffffff\n      and\n      0xffffffffffffffffffffffffffffffffffffffff\n      and\n      dup2\n      mstore\n      0x20\n      add\n      swap1\n      dup2\n      mstore\n      0x20\n      add\n      0x00\n      keccak256\n      0x00\n      swap1\n      sload\n      swap1\n      0x0100\n      exp\n      swap1\n      div\n      0xff\n      and\n        /* \"Token_ETH.sol\":12151:12165  return bots[a] */\n      swap1\n      pop\n        /* \"Token_ETH.sol\":12088:12172  function isBot(address a) public view returns (bool) {... */\n      swap2\n      swap1\n      pop\n      jump\t// out\n        /* \"Token_ETH.sol\":11499:11656  function removeLimit() external onlyOwner {... */\n    tag_73:\n        /* \"Token_ETH.sol\":2677:2689  _msgSender() */\n      tag_161\n        /* \"Token_ETH.sol\":2677:2687  _msgSender */\n      tag_133\n        /* \"Token_ETH.sol\":2677:2689  _msgSender() */\n      jump\t// in\n    tag_161:\n        /* \"Token_ETH.sol\":2667:2689  _owner == _msgSender() */\n      0xffffffffffffffffffffffffffffffffffffffff\n      and\n        /* \"Token_ETH.sol\":2667:2673  _owner */\n      0x00\n      dup1\n      sload\n      swap1\n      0x0100\n      exp\n      swap1\n      div\n      0xffffffffffffffffffffffffffffffffffffffff\n      and\n        /* \"Token_ETH.sol\":2667:2689  _owner == _msgSender() */\n      0xffffffffffffffffffffffffffffffffffffffff\n      and\n      eq\n        /* \"Token_ETH.sol\":2659:2726  require(_owner == _msgSender(), \"Ownable: caller is not the owner\") */\n      tag_162\n      jumpi\n      mload(0x40)\n      0x08c379a000000000000000000000000000000000000000000000000000000000\n      dup2\n      mstore\n      0x04\n      add\n      tag_163\n      swap1\n      tag_164\n      jump\t// in\n    tag_163:\n      mload(0x40)\n      dup1\n      swap2\n      sub\n      swap1\n      revert\n    tag_162:\n        /* \"Token_ETH.sol\":4427:4428  9 */\n      0x09\n        /* \"Token_ETH.sol\":4485:4487  10 */\n      0x0a\n        /* \"Token_ETH.sol\":4485:4500  10 ** _decimals */\n      tag_166\n      swap2\n      swap1\n      tag_137\n      jump\t// in\n    tag_166:\n        /* \"Token_ETH.sol\":4469:4482  1_000_000_000 */\n      0x3b9aca00\n        /* \"Token_ETH.sol\":4469:4500  1_000_000_000 * 10 ** _decimals */\n      tag_167\n      swap2\n      swap1\n      tag_139\n      jump\t// in\n    tag_167:\n        /* \"Token_ETH.sol\":11551:11563  _maxTxAmount */\n      0x0f\n        /* \"Token_ETH.sol\":11551:11573  _maxTxAmount = _tTotal */\n      dup2\n      swap1\n      sstore\n      pop\n        /* \"Token_ETH.sol\":4427:4428  9 */\n      0x09\n        /* \"Token_ETH.sol\":4485:4487  10 */\n      0x0a\n        /* \"Token_ETH.sol\":4485:4500  10 ** _decimals */\n      tag_168\n      swap2\n      swap1\n      tag_137\n      jump\t// in\n    tag_168:\n        /* \"Token_ETH.sol\":4469:4482  1_000_000_000 */\n      0x3b9aca00\n        /* \"Token_ETH.sol\":4469:4500  1_000_000_000 * 10 ** _decimals */\n      tag_169\n      swap2\n      swap1\n      tag_139\n      jump\t// in\n    tag_169:\n        /* \"Token_ETH.sol\":11583:11597  _maxWalletSize */\n      0x10\n        /* \"Token_ETH.sol\":11583:11607  _maxWalletSize = _tTotal */\n      dup2\n      swap1\n      sstore\n      pop\n        /* \"Token_ETH.sol\":11622:11649  MaxTxAmountUpdated(_tTotal) */\n      0x947f344d56e1e8c70dc492fb94c4ddddd490c016aab685f5e7e47b2e85cb44cf\n        /* \"Token_ETH.sol\":4427:4428  9 */\n      0x09\n        /* \"Token_ETH.sol\":4485:4487  10 */\n      0x0a\n        /* \"Token_ETH.sol\":4485:4500  10 ** _decimals */\n      tag_170\n      swap2\n      swap1\n      tag_137\n      jump\t// in\n    tag_170:\n        /* \"Token_ETH.sol\":4469:4482  1_000_000_000 */\n      0x3b9aca00\n        /* \"Token_ETH.sol\":4469:4500  1_000_000_000 * 10 ** _decimals */\n      tag_171\n      swap2\n      swap1\n      tag_139\n      jump\t// in\n    tag_171:\n        /* \"Token_ETH.sol\":11622:11649  MaxTxAmountUpdated(_tTotal) */\n      mload(0x40)\n      tag_172\n      swap2\n      swap1\n      tag_46\n      jump\t// in\n    tag_172:\n      mload(0x40)\n      dup1\n      swap2\n      sub\n      swap1\n      log1\n        /* \"Token_ETH.sol\":11499:11656  function removeLimit() external onlyOwner {... */\n      jump\t// out\n        /* \"Token_ETH.sol\":6336:6453  function balanceOf(address account) public view override returns (uint256) {... */\n    tag_77:\n        /* \"Token_ETH.sol\":6402:6409  uint256 */\n      0x00\n        /* \"Token_ETH.sol\":6428:6437  _balances */\n      0x01\n        /* \"Token_ETH.sol\":6428:6446  _balances[account] */\n      0x00\n        /* \"Token_ETH.sol\":6438:6445  account */\n      dup4\n        /* \"Token_ETH.sol\":6428:6446  _balances[account] */\n      0xffffffffffffffffffffffffffffffffffffffff\n      and\n      0xffffffffffffffffffffffffffffffffffffffff\n      and\n      dup2\n      mstore\n      0x20\n      add\n      swap1\n      dup2\n      mstore\n      0x20\n      add\n      0x00\n      keccak256\n      sload\n        /* \"Token_ETH.sol\":6421:6446  return _balances[account] */\n      swap1\n      pop\n        /* \"Token_ETH.sol\":6336:6453  function balanceOf(address account) public view override returns (uint256) {... */\n      swap2\n      swap1\n      pop\n      jump\t// out\n        /* \"Token_ETH.sol\":2750:2895  function renounceOwnership() public virtual onlyOwner {... */\n    tag_81:\n        /* \"Token_ETH.sol\":2677:2689  _msgSender() */\n      tag_175\n        /* \"Token_ETH.sol\":2677:2687  _msgSender */\n      tag_133\n        /* \"Token_ETH.sol\":2677:2689  _msgSender() */\n      jump\t// in\n    tag_175:\n        /* \"Token_ETH.sol\":2667:2689  _owner == _msgSender() */\n      0xffffffffffffffffffffffffffffffffffffffff\n      and\n        /* \"Token_ETH.sol\":2667:2673  _owner */\n      0x00\n      dup1\n      sload\n      swap1\n      0x0100\n      exp\n      swap1\n      div\n      0xffffffffffffffffffffffffffffffffffffffff\n      and\n        /* \"Token_ETH.sol\":2667:2689  _owner == _msgSender() */\n      0xffffffffffffffffffffffffffffffffffffffff\n      and\n      eq\n        /* \"Token_ETH.sol\":2659:2726  require(_owner == _msgSender(), \"Ownable: caller is not the owner\") */\n      tag_176\n      jumpi\n      mload(0x40)\n      0x08c379a000000000000000000000000000000000000000000000000000000000\n      dup2\n      mstore\n      0x04\n      add\n      tag_177\n      swap1\n      tag_164\n      jump\t// in\n    tag_177:\n      mload(0x40)\n      dup1\n      swap2\n      sub\n      swap1\n      revert\n    tag_176:\n        /* \"Token_ETH.sol\":2856:2857  0 */\n      0x00\n        /* \"Token_ETH.sol\":2819:2859  OwnershipTransferred(_owner, address(0)) */\n      0xffffffffffffffffffffffffffffffffffffffff\n      and\n        /* \"Token_ETH.sol\":2840:2846  _owner */\n      0x00\n      dup1\n      sload\n      swap1\n      0x0100\n      exp\n      swap1\n      div\n      0xffffffffffffffffffffffffffffffffffffffff\n      and\n        /* \"Token_ETH.sol\":2819:2859  OwnershipTransferred(_owner, address(0)) */\n      0xffffffffffffffffffffffffffffffffffffffff\n      and\n      0x8be0079c531659141344cd1fd0a4f28419497f9722a3daafe3b4186f6b6457e0\n      mload(0x40)\n      mload(0x40)\n      dup1\n      swap2\n      sub\n      swap1\n      log3\n        /* \"Token_ETH.sol\":2886:2887  0 */\n      0x00\n        /* \"Token_ETH.sol\":2869:2875  _owner */\n      dup1\n      0x00\n        /* \"Token_ETH.sol\":2869:2888  _owner = address(0) */\n      0x0100\n      exp\n      dup2\n      sload\n      dup2\n      0xffffffffffffffffffffffffffffffffffffffff\n      mul\n      not\n      and\n      swap1\n      dup4\n      0xffffffffffffffffffffffffffffffffffffffff\n      and\n      mul\n      or\n      swap1\n      sstore\n      pop\n        /* \"Token_ETH.sol\":2750:2895  function renounceOwnership() public virtual onlyOwner {... */\n      jump\t// out\n        /* \"Token_ETH.sol\":4610:4659  uint256 public _maxTxAmount = 1 * (_tTotal / 100) */\n    tag_84:\n      sload(0x0f)\n      dup2\n      jump\t// out\n        /* \"Token_ETH.sol\":11758:11915  function addB(address[] memory bots_) public onlyOwner {... */\n    tag_90:\n        /* \"Token_ETH.sol\":2677:2689  _msgSender() */\n      tag_180\n        /* \"Token_ETH.sol\":2677:2687  _msgSender */\n      tag_133\n        /* \"Token_ETH.sol\":2677:2689  _msgSender() */\n      jump\t// in\n    tag_180:\n        /* \"Token_ETH.sol\":2667:2689  _owner == _msgSender() */\n      0xffffffffffffffffffffffffffffffffffffffff\n      and\n        /* \"Token_ETH.sol\":2667:2673  _owner */\n      0x00\n      dup1\n      sload\n      swap1\n      0x0100\n      exp\n      swap1\n      div\n      0xffffffffffffffffffffffffffffffffffffffff\n      and\n        /* \"Token_ETH.sol\":2667:2689  _owner == _msgSender() */\n      0xffffffffffffffffffffffffffffffffffffffff\n      and\n      eq\n        /* \"Token_ETH.sol\":2659:2726  require(_owner == _msgSender(), \"Ownable: caller is not the owner\") */\n      tag_181\n      jumpi\n      mload(0x40)\n      0x08c379a000000000000000000000000000000000000000000000000000000000\n      dup2\n      mstore\n      0x04\n      add\n      tag_182\n      swap1\n      tag_164\n      jump\t// in\n    tag_182:\n      mload(0x40)\n      dup1\n      swap2\n      sub\n      swap1\n      revert\n    tag_181:\n        /* \"Token_ETH.sol\":11828:11834  uint i */\n      0x00\n        /* \"Token_ETH.sol\":11823:11909  for (uint i = 0; i < bots_.length; i++) {... */\n    tag_184:\n        /* \"Token_ETH.sol\":11844:11849  bots_ */\n      dup2\n        /* \"Token_ETH.sol\":11844:11856  bots_.length */\n      mload\n        /* \"Token_ETH.sol\":11840:11841  i */\n      dup2\n        /* \"Token_ETH.sol\":11840:11856  i < bots_.length */\n      lt\n        /* \"Token_ETH.sol\":11823:11909  for (uint i = 0; i < bots_.length; i++) {... */\n      iszero\n      tag_185\n      jumpi\n        /* \"Token_ETH.sol\":11894:11898  true */\n      0x01\n        /* \"Token_ETH.sol\":11877:11881  bots */\n      0x04\n        /* \"Token_ETH.sol\":11877:11891  bots[bots_[i]] */\n      0x00\n        /* \"Token_ETH.sol\":11882:11887  bots_ */\n      dup5\n        /* \"Token_ETH.sol\":11888:11889  i */\n      dup5\n        /* \"Token_ETH.sol\":11882:11890  bots_[i] */\n      dup2\n      mload\n      dup2\n      lt\n      tag_187\n      jumpi\n      tag_188\n      tag_189\n      jump\t// in\n    tag_188:\n    tag_187:\n      0x20\n      mul\n      0x20\n      add\n      add\n      mload\n        /* \"Token_ETH.sol\":11877:11891  bots[bots_[i]] */\n      0xffffffffffffffffffffffffffffffffffffffff\n      and\n      0xffffffffffffffffffffffffffffffffffffffff\n      and\n      dup2\n      mstore\n      0x20\n      add\n      swap1\n      dup2\n      mstore\n      0x20\n      add\n      0x00\n      keccak256\n      0x00\n        /* \"Token_ETH.sol\":11877:11898  bots[bots_[i]] = true */\n      0x0100\n      exp\n      dup2\n      sload\n      dup2\n      0xff\n      mul\n      not\n      and\n      swap1\n      dup4\n      iszero\n      iszero\n      mul\n      or\n      swap1\n      sstore\n      pop\n        /* \"Token_ETH.sol\":11858:11861  i++ */\n      dup1\n      dup1\n      0x01\n      add\n      swap2\n      pop\n      pop\n        /* \"Token_ETH.sol\":11823:11909  for (uint i = 0; i < bots_.length; i++) {... */\n      jump(tag_184)\n    tag_185:\n      pop\n        /* \"Token_ETH.sol\":11758:11915  function addB(address[] memory bots_) public onlyOwner {... */\n      pop\n      jump\t// out\n        /* \"Token_ETH.sol\":2545:2622  function owner() public view returns (address) {... */\n    tag_93:\n        /* \"Token_ETH.sol\":2583:2590  address */\n      0x00\n        /* \"Token_ETH.sol\":2609:2615  _owner */\n      dup1\n      0x00\n      swap1\n      sload\n      swap1\n      0x0100\n      exp\n      swap1\n      div\n      0xffffffffffffffffffffffffffffffffffffffff\n      and\n        /* \"Token_ETH.sol\":2602:2615  return _owner */\n      swap1\n      pop\n        /* \"Token_ETH.sol\":2545:2622  function owner() public view returns (address) {... */\n      swap1\n      jump\t// out\n        /* \"Token_ETH.sol\":4665:4716  uint256 public _maxWalletSize = 1 * (_tTotal / 100) */\n    tag_98:\n      sload(0x10)\n      dup2\n      jump\t// out\n        /* \"Token_ETH.sol\":6059:6144  function symbol() public pure returns (string memory) {... */\n    tag_102:\n        /* \"Token_ETH.sol\":6098:6111  string memory */\n      0x60\n        /* \"Token_ETH.sol\":6130:6137  _symbol */\n      mload(0x40)\n      dup1\n      0x40\n      add\n      0x40\n      mstore\n      dup1\n      0x04\n      dup2\n      mstore\n      0x20\n      add\n      0x4341544500000000000000000000000000000000000000000000000000000000\n      dup2\n      mstore\n      pop\n        /* \"Token_ETH.sol\":6123:6137  return _symbol */\n      swap1\n      pop\n        /* \"Token_ETH.sol\":6059:6144  function symbol() public pure returns (string memory) {... */\n      swap1\n      jump\t// out\n        /* \"Token_ETH.sol\":11921:12082  function delB(address[] memory notbot) public onlyOwner {... */\n    tag_107:\n        /* \"Token_ETH.sol\":2677:2689  _msgSender() */\n      tag_193\n        /* \"Token_ETH.sol\":2677:2687  _msgSender */\n      tag_133\n        /* \"Token_ETH.sol\":2677:2689  _msgSender() */\n      jump\t// in\n    tag_193:\n        /* \"Token_ETH.sol\":2667:2689  _owner == _msgSender() */\n      0xffffffffffffffffffffffffffffffffffffffff\n      and\n        /* \"Token_ETH.sol\":2667:2673  _owner */\n      0x00\n      dup1\n      sload\n      swap1\n      0x0100\n      exp\n      swap1\n      div\n      0xffffffffffffffffffffffffffffffffffffffff\n      and\n        /* \"Token_ETH.sol\":2667:2689  _owner == _msgSender() */\n      0xffffffffffffffffffffffffffffffffffffffff\n      and\n      eq\n        /* \"Token_ETH.sol\":2659:2726  require(_owner == _msgSender(), \"Ownable: caller is not the owner\") */\n      tag_194\n      jumpi\n      mload(0x40)\n      0x08c379a000000000000000000000000000000000000000000000000000000000\n      dup2\n      mstore\n      0x04\n      add\n      tag_195\n      swap1\n      tag_164\n      jump\t// in\n    tag_195:\n      mload(0x40)\n      dup1\n      swap2\n      sub\n      swap1\n      revert\n    tag_194:\n        /* \"Token_ETH.sol\":11992:11998  uint i */\n      0x00\n        /* \"Token_ETH.sol\":11987:12076  for (uint i = 0; i < notbot.length; i++) {... */\n    tag_197:\n        /* \"Token_ETH.sol\":12008:12014  notbot */\n      dup2\n        /* \"Token_ETH.sol\":12008:12021  notbot.length */\n      mload\n        /* \"Token_ETH.sol\":12004:12005  i */\n      dup2\n        /* \"Token_ETH.sol\":12004:12021  i < notbot.length */\n      lt\n        /* \"Token_ETH.sol\":11987:12076  for (uint i = 0; i < notbot.length; i++) {... */\n      iszero\n      tag_198\n      jumpi\n        /* \"Token_ETH.sol\":12060:12065  false */\n      0x00\n        /* \"Token_ETH.sol\":12042:12046  bots */\n      0x04\n        /* \"Token_ETH.sol\":12042:12057  bots[notbot[i]] */\n      0x00\n        /* \"Token_ETH.sol\":12047:12053  notbot */\n      dup5\n        /* \"Token_ETH.sol\":12054:12055  i */\n      dup5\n        /* \"Token_ETH.sol\":12047:12056  notbot[i] */\n      dup2\n      mload\n      dup2\n      lt\n      tag_200\n      jumpi\n      tag_201\n      tag_189\n      jump\t// in\n    tag_201:\n    tag_200:\n      0x20\n      mul\n      0x20\n      add\n      add\n      mload\n        /* \"Token_ETH.sol\":12042:12057  bots[notbot[i]] */\n      0xffffffffffffffffffffffffffffffffffffffff\n      and\n      0xffffffffffffffffffffffffffffffffffffffff\n      and\n      dup2\n      mstore\n      0x20\n      add\n      swap1\n      dup2\n      mstore\n      0x20\n      add\n      0x00\n      keccak256\n      0x00\n        /* \"Token_ETH.sol\":12042:12065  bots[notbot[i]] = false */\n      0x0100\n      exp\n      dup2\n      sload\n      dup2\n      0xff\n      mul\n      not\n      and\n      swap1\n      dup4\n      iszero\n      iszero\n      mul\n      or\n      swap1\n      sstore\n      pop\n        /* \"Token_ETH.sol\":12023:12026  i++ */\n      dup1\n      dup1\n      0x01\n      add\n      swap2\n      pop\n      pop\n        /* \"Token_ETH.sol\":11987:12076  for (uint i = 0; i < notbot.length; i++) {... */\n      jump(tag_197)\n    tag_198:\n      pop\n        /* \"Token_ETH.sol\":11921:12082  function delB(address[] memory notbot) public onlyOwner {... */\n      pop\n      jump\t// out\n        /* \"Token_ETH.sol\":6459:6645  function transfer(... */\n    tag_111:\n        /* \"Token_ETH.sol\":6559:6563  bool */\n      0x00\n        /* \"Token_ETH.sol\":6575:6617  _transfer(_msgSender(), recipient, amount) */\n      tag_203\n        /* \"Token_ETH.sol\":6585:6597  _msgSender() */\n      tag_204\n        /* \"Token_ETH.sol\":6585:6595  _msgSender */\n      tag_133\n        /* \"Token_ETH.sol\":6585:6597  _msgSender() */\n      jump\t// in\n    tag_204:\n        /* \"Token_ETH.sol\":6599:6608  recipient */\n      dup5\n        /* \"Token_ETH.sol\":6610:6616  amount */\n      dup5\n        /* \"Token_ETH.sol\":6575:6584  _transfer */\n      tag_142\n        /* \"Token_ETH.sol\":6575:6617  _transfer(_msgSender(), recipient, amount) */\n      jump\t// in\n    tag_203:\n        /* \"Token_ETH.sol\":6634:6638  true */\n      0x01\n        /* \"Token_ETH.sol\":6627:6638  return true */\n      swap1\n      pop\n        /* \"Token_ETH.sol\":6459:6645  function transfer(... */\n      swap3\n      swap2\n      pop\n      pop\n      jump\t// out\n        /* \"Token_ETH.sol\":4722:4777  uint256 public _taxSwapThreshold = 1 * (_tTotal / 1000) */\n    tag_115:\n      sload(0x11)\n      dup2\n      jump\t// out\n        /* \"Token_ETH.sol\":12178:12635  function openTrading() external onlyOwner {... */\n    tag_119:\n        /* \"Token_ETH.sol\":2677:2689  _msgSender() */\n      tag_206\n        /* \"Token_ETH.sol\":2677:2687  _msgSender */\n      tag_133\n        /* \"Token_ETH.sol\":2677:2689  _msgSender() */\n      jump\t// in\n    tag_206:\n        /* \"Token_ETH.sol\":2667:2689  _owner == _msgSender() */\n      0xffffffffffffffffffffffffffffffffffffffff\n      and\n        /* \"Token_ETH.sol\":2667:2673  _owner */\n      0x00\n      dup1\n      sload\n      swap1\n      0x0100\n      exp\n      swap1\n      div\n      0xffffffffffffffffffffffffffffffffffffffff\n      and\n        /* \"Token_ETH.sol\":2667:2689  _owner == _msgSender() */\n      0xffffffffffffffffffffffffffffffffffffffff\n      and\n      eq\n        /* \"Token_ETH.sol\":2659:2726  require(_owner == _msgSender(), \"Ownable: caller is not the owner\") */\n      tag_207\n      jumpi\n      mload(0x40)\n      0x08c379a000000000000000000000000000000000000000000000000000000000\n      dup2\n      mstore\n      0x04\n      add\n      tag_208\n      swap1\n      tag_164\n      jump\t// in\n    tag_208:\n      mload(0x40)\n      dup1\n      swap2\n      sub\n      swap1\n      revert\n    tag_207:\n        /* \"Token_ETH.sol\":12239:12250  tradingOpen */\n      0x14\n      dup1\n      sload\n      swap1\n      0x0100\n      exp\n      swap1\n      div\n      0xff\n      and\n        /* \"Token_ETH.sol\":12238:12250  !tradingOpen */\n      iszero\n        /* \"Token_ETH.sol\":12230:12278  require(!tradingOpen, \"trading is already open\") */\n      tag_210\n      jumpi\n      mload(0x40)\n      0x08c379a000000000000000000000000000000000000000000000000000000000\n      dup2\n      mstore\n      0x04\n      add\n      tag_211\n      swap1\n      tag_212\n      jump\t// in\n    tag_211:\n      mload(0x40)\n      dup1\n      swap2\n      sub\n      swap1\n      revert\n    tag_210:\n        /* \"Token_ETH.sol\":12288:12346  _approve(address(this), address(uniswapV2Router), _tTotal) */\n      tag_213\n        /* \"Token_ETH.sol\":12305:12309  this */\n      address\n        /* \"Token_ETH.sol\":12320:12335  uniswapV2Router */\n      0x13\n      0x00\n      swap1\n      sload\n      swap1\n      0x0100\n      exp\n      swap1\n      div\n      0xffffffffffffffffffffffffffffffffffffffff\n      and\n        /* \"Token_ETH.sol\":4427:4428  9 */\n      0x09\n        /* \"Token_ETH.sol\":4485:4487  10 */\n      0x0a\n        /* \"Token_ETH.sol\":4485:4500  10 ** _decimals */\n      tag_214\n      swap2\n      swap1\n      tag_137\n      jump\t// in\n    tag_214:\n        /* \"Token_ETH.sol\":4469:4482  1_000_000_000 */\n      0x3b9aca00\n        /* \"Token_ETH.sol\":4469:4500  1_000_000_000 * 10 ** _decimals */\n      tag_215\n      swap2\n      swap1\n      tag_139\n      jump\t// in\n    tag_215:\n        /* \"Token_ETH.sol\":12288:12296  _approve */\n      tag_134\n        /* \"Token_ETH.sol\":12288:12346  _approve(address(this), address(uniswapV2Router), _tTotal) */\n      jump\t// in\n    tag_213:\n        /* \"Token_ETH.sol\":12356:12371  uniswapV2Router */\n      0x13\n      0x00\n      swap1\n      sload\n      swap1\n      0x0100\n      exp\n      swap1\n      div\n      0xffffffffffffffffffffffffffffffffffffffff\n      and\n        /* \"Token_ETH.sol\":12356:12387  uniswapV2Router.addLiquidityETH */\n      0xffffffffffffffffffffffffffffffffffffffff\n      and\n      0xf305d719\n        /* \"Token_ETH.sol\":12395:12416  address(this).balance */\n      selfbalance\n        /* \"Token_ETH.sol\":12439:12443  this */\n      address\n        /* \"Token_ETH.sol\":12458:12482  balanceOf(address(this)) */\n      tag_216\n        /* \"Token_ETH.sol\":12476:12480  this */\n      address\n        /* \"Token_ETH.sol\":12458:12467  balanceOf */\n      tag_77\n        /* \"Token_ETH.sol\":12458:12482  balanceOf(address(this)) */\n      jump\t// in\n    tag_216:\n        /* \"Token_ETH.sol\":12496:12497  0 */\n      0x00\n        /* \"Token_ETH.sol\":12511:12512  0 */\n      dup1\n        /* \"Token_ETH.sol\":12526:12533  owner() */\n      tag_217\n        /* \"Token_ETH.sol\":12526:12531  owner */\n      tag_93\n        /* \"Token_ETH.sol\":12526:12533  owner() */\n      jump\t// in\n    tag_217:\n        /* \"Token_ETH.sol\":12547:12562  block.timestamp */\n      timestamp\n        /* \"Token_ETH.sol\":12356:12572  uniswapV2Router.addLiquidityETH{value: address(this).balance}(... */\n      mload(0x40)\n      dup9\n      0xffffffff\n      and\n      0xe0\n      shl\n      dup2\n      mstore\n      0x04\n      add\n      tag_218\n      swap7\n      swap6\n      swap5\n      swap4\n      swap3\n      swap2\n      swap1\n      tag_219\n      jump\t// in\n    tag_218:\n      0x60\n      mload(0x40)\n      dup1\n      dup4\n      sub\n      dup2\n      dup6\n      dup9\n      gas\n      call\n      iszero\n      dup1\n      iszero\n      tag_221\n      jumpi\n      returndatasize\n      0x00\n      dup1\n      returndatacopy\n      revert(0x00, returndatasize)\n    tag_221:\n      pop\n      pop\n      pop\n      pop\n      pop\n      mload(0x40)\n      returndatasize\n      not(0x1f)\n      0x1f\n      dup3\n      add\n      and\n      dup3\n      add\n      dup1\n      0x40\n      mstore\n      pop\n      dup2\n      add\n      swap1\n      tag_222\n      swap2\n      swap1\n      tag_223\n      jump\t// in\n    tag_222:\n      pop\n      pop\n      pop\n        /* \"Token_ETH.sol\":12596:12600  true */\n      0x01\n        /* \"Token_ETH.sol\":12582:12593  swapEnabled */\n      0x14\n      0x16\n        /* \"Token_ETH.sol\":12582:12600  swapEnabled = true */\n      0x0100\n      exp\n      dup2\n      sload\n      dup2\n      0xff\n      mul\n      not\n      and\n      swap1\n      dup4\n      iszero\n      iszero\n      mul\n      or\n      swap1\n      sstore\n      pop\n        /* \"Token_ETH.sol\":12624:12628  true */\n      0x01\n        /* \"Token_ETH.sol\":12610:12621  tradingOpen */\n      0x14\n      dup1\n        /* \"Token_ETH.sol\":12610:12628  tradingOpen = true */\n      0x0100\n      exp\n      dup2\n      sload\n      dup2\n      0xff\n      mul\n      not\n      and\n      swap1\n      dup4\n      iszero\n      iszero\n      mul\n      or\n      swap1\n      sstore\n      pop\n        /* \"Token_ETH.sol\":12178:12635  function openTrading() external onlyOwner {... */\n      jump\t// out\n        /* \"Token_ETH.sol\":6651:6814  function allowance(... */\n    tag_124:\n        /* \"Token_ETH.sol\":6754:6761  uint256 */\n      0x00\n        /* \"Token_ETH.sol\":6780:6791  _allowances */\n      0x02\n        /* \"Token_ETH.sol\":6780:6798  _allowances[owner] */\n      0x00\n        /* \"Token_ETH.sol\":6792:6797  owner */\n      dup5\n        /* \"Token_ETH.sol\":6780:6798  _allowances[owner] */\n      0xffffffffffffffffffffffffffffffffffffffff\n      and\n      0xffffffffffffffffffffffffffffffffffffffff\n      and\n      dup2\n      mstore\n      0x20\n      add\n      swap1\n      dup2\n      mstore\n      0x20\n      add\n      0x00\n      keccak256\n        /* \"Token_ETH.sol\":6780:6807  _allowances[owner][spender] */\n      0x00\n        /* \"Token_ETH.sol\":6799:6806  spender */\n      dup4\n        /* \"Token_ETH.sol\":6780:6807  _allowances[owner][spender] */\n      0xffffffffffffffffffffffffffffffffffffffff\n      and\n      0xffffffffffffffffffffffffffffffffffffffff\n      and\n      dup2\n      mstore\n      0x20\n      add\n      swap1\n      dup2\n      mstore\n      0x20\n      add\n      0x00\n      keccak256\n      sload\n        /* \"Token_ETH.sol\":6773:6807  return _allowances[owner][spender] */\n      swap1\n      pop\n        /* \"Token_ETH.sol\":6651:6814  function allowance(... */\n      swap3\n      swap2\n      pop\n      pop\n      jump\t// out\n        /* \"Token_ETH.sol\":13040:13225  function manualSend() external {... */\n    tag_128:\n        /* \"Token_ETH.sol\":13105:13115  _taxWallet */\n      0x05\n      0x00\n      swap1\n      sload\n      swap1\n      0x0100\n      exp\n      swap1\n      div\n      0xffffffffffffffffffffffffffffffffffffffff\n      and\n        /* \"Token_ETH.sol\":13089:13115  _msgSender() == _taxWallet */\n      0xffffffffffffffffffffffffffffffffffffffff\n      and\n        /* \"Token_ETH.sol\":13089:13101  _msgSender() */\n      tag_226\n        /* \"Token_ETH.sol\":13089:13099  _msgSender */\n      tag_133\n        /* \"Token_ETH.sol\":13089:13101  _msgSender() */\n      jump\t// in\n    tag_226:\n        /* \"Token_ETH.sol\":13089:13115  _msgSender() == _taxWallet */\n      0xffffffffffffffffffffffffffffffffffffffff\n      and\n      eq\n        /* \"Token_ETH.sol\":13081:13116  require(_msgSender() == _taxWallet) */\n      tag_227\n      jumpi\n      0x00\n      dup1\n      revert\n    tag_227:\n        /* \"Token_ETH.sol\":13126:13152  uint256 contractETHBalance */\n      0x00\n        /* \"Token_ETH.sol\":13155:13176  address(this).balance */\n      selfbalance\n        /* \"Token_ETH.sol\":13126:13176  uint256 contractETHBalance = address(this).balance */\n      swap1\n      pop\n        /* \"Token_ETH.sol\":13186:13218  sendETHToFee(contractETHBalance) */\n      tag_228\n        /* \"Token_ETH.sol\":13199:13217  contractETHBalance */\n      dup2\n        /* \"Token_ETH.sol\":13186:13198  sendETHToFee */\n      tag_158\n        /* \"Token_ETH.sol\":13186:13218  sendETHToFee(contractETHBalance) */\n      jump\t// in\n    tag_228:\n        /* \"Token_ETH.sol\":13071:13225  {... */\n      pop\n        /* \"Token_ETH.sol\":13040:13225  function manualSend() external {... */\n      jump\t// out\n        /* \"Token_ETH.sol\":180:276  function _msgSender() internal view virtual returns (address) {... */\n    tag_133:\n        /* \"Token_ETH.sol\":233:240  address */\n      0x00\n        /* \"Token_ETH.sol\":259:269  msg.sender */\n      caller\n        /* \"Token_ETH.sol\":252:269  return msg.sender */\n      swap1\n      pop\n        /* \"Token_ETH.sol\":180:276  function _msgSender() internal view virtual returns (address) {... */\n      swap1\n      jump\t// out\n        /* \"Token_ETH.sol\":7443:7773  function _approve(address owner, address spender, uint256 amount) private {... */\n    tag_134:\n        /* \"Token_ETH.sol\":7552:7553  0 */\n      0x00\n        /* \"Token_ETH.sol\":7535:7554  owner != address(0) */\n      0xffffffffffffffffffffffffffffffffffffffff\n      and\n        /* \"Token_ETH.sol\":7535:7540  owner */\n      dup4\n        /* \"Token_ETH.sol\":7535:7554  owner != address(0) */\n      0xffffffffffffffffffffffffffffffffffffffff\n      and\n      sub\n        /* \"Token_ETH.sol\":7527:7595  require(owner != address(0), \"ERC20: approve from the zero address\") */\n      tag_231\n      jumpi\n      mload(0x40)\n      0x08c379a000000000000000000000000000000000000000000000000000000000\n      dup2\n      mstore\n      0x04\n      add\n      tag_232\n      swap1\n      tag_233\n      jump\t// in\n    tag_232:\n      mload(0x40)\n      dup1\n      swap2\n      sub\n      swap1\n      revert\n    tag_231:\n        /* \"Token_ETH.sol\":7632:7633  0 */\n      0x00\n        /* \"Token_ETH.sol\":7613:7634  spender != address(0) */\n      0xffffffffffffffffffffffffffffffffffffffff\n      and\n        /* \"Token_ETH.sol\":7613:7620  spender */\n      dup3\n        /* \"Token_ETH.sol\":7613:7634  spender != address(0) */\n      0xffffffffffffffffffffffffffffffffffffffff\n      and\n      sub\n        /* \"Token_ETH.sol\":7605:7673  require(spender != address(0), \"ERC20: approve to the zero address\") */\n      tag_234\n      jumpi\n      mload(0x40)\n      0x08c379a000000000000000000000000000000000000000000000000000000000\n      dup2\n      mstore\n      0x04\n      add\n      tag_235\n      swap1\n      tag_236\n      jump\t// in\n    tag_235:\n      mload(0x40)\n      dup1\n      swap2\n      sub\n      swap1\n      revert\n    tag_234:\n        /* \"Token_ETH.sol\":7713:7719  amount */\n      dup1\n        /* \"Token_ETH.sol\":7683:7694  _allowances */\n      0x02\n        /* \"Token_ETH.sol\":7683:7701  _allowances[owner] */\n      0x00\n        /* \"Token_ETH.sol\":7695:7700  owner */\n      dup6\n        /* \"Token_ETH.sol\":7683:7701  _allowances[owner] */\n      0xffffffffffffffffffffffffffffffffffffffff\n      and\n      0xffffffffffffffffffffffffffffffffffffffff\n      and\n      dup2\n      mstore\n      0x20\n      add\n      swap1\n      dup2\n      mstore\n      0x20\n      add\n      0x00\n      keccak256\n        /* \"Token_ETH.sol\":7683:7710  _allowances[owner][spender] */\n      0x00\n        /* \"Token_ETH.sol\":7702:7709  spender */\n      dup5\n        /* \"Token_ETH.sol\":7683:7710  _allowances[owner][spender] */\n      0xffffffffffffffffffffffffffffffffffffffff\n      and\n      0xffffffffffffffffffffffffffffffffffffffff\n      and\n      dup2\n      mstore\n      0x20\n      add\n      swap1\n      dup2\n      mstore\n      0x20\n      add\n      0x00\n      keccak256\n        /* \"Token_ETH.sol\":7683:7719  _allowances[owner][spender] = amount */\n      dup2\n      swap1\n      sstore\n      pop\n        /* \"Token_ETH.sol\":7750:7757  spender */\n      dup2\n        /* \"Token_ETH.sol\":7734:7766  Approval(owner, spender, amount) */\n      0xffffffffffffffffffffffffffffffffffffffff\n      and\n        /* \"Token_ETH.sol\":7743:7748  owner */\n      dup4\n        /* \"Token_ETH.sol\":7734:7766  Approval(owner, spender, amount) */\n      0xffffffffffffffffffffffffffffffffffffffff\n      and\n      0x8c5be1e5ebec7d5bd14f71427d1e84f3dd0314c0f7b2291e5b200ac8c7c3b925\n        /* \"Token_ETH.sol\":7759:7765  amount */\n      dup4\n        /* \"Token_ETH.sol\":7734:7766  Approval(owner, spender, amount) */\n      mload(0x40)\n      tag_237\n      swap2\n      swap1\n      tag_46\n      jump\t// in\n    tag_237:\n      mload(0x40)\n      dup1\n      swap2\n      sub\n      swap1\n      log3\n        /* \"Token_ETH.sol\":7443:7773  function _approve(address owner, address spender, uint256 amount) private {... */\n      pop\n      pop\n      pop\n      jump\t// out\n        /* \"Token_ETH.sol\":7779:10905  function _transfer(address from, address to, uint256 amount) private {... */\n    tag_142:\n        /* \"Token_ETH.sol\":7882:7883  0 */\n      0x00\n        /* \"Token_ETH.sol\":7866:7884  from != address(0) */\n      0xffffffffffffffffffffffffffffffffffffffff\n      and\n        /* \"Token_ETH.sol\":7866:7870  from */\n      dup4\n        /* \"Token_ETH.sol\":7866:7884  from != address(0) */\n      0xffffffffffffffffffffffffffffffffffffffff\n      and\n      sub\n        /* \"Token_ETH.sol\":7858:7926  require(from != address(0), \"ERC20: transfer from the zero address\") */\n      tag_239\n      jumpi\n      mload(0x40)\n      0x08c379a000000000000000000000000000000000000000000000000000000000\n      dup2\n      mstore\n      0x04\n      add\n      tag_240\n      swap1\n      tag_241\n      jump\t// in\n    tag_240:\n      mload(0x40)\n      dup1\n      swap2\n      sub\n      swap1\n      revert\n    tag_239:\n        /* \"Token_ETH.sol\":7958:7959  0 */\n      0x00\n        /* \"Token_ETH.sol\":7944:7960  to != address(0) */\n      0xffffffffffffffffffffffffffffffffffffffff\n      and\n        /* \"Token_ETH.sol\":7944:7946  to */\n      dup3\n        /* \"Token_ETH.sol\":7944:7960  to != address(0) */\n      0xffffffffffffffffffffffffffffffffffffffff\n      and\n      sub\n        /* \"Token_ETH.sol\":7936:8000  require(to != address(0), \"ERC20: transfer to the zero address\") */\n      tag_242\n      jumpi\n      mload(0x40)\n      0x08c379a000000000000000000000000000000000000000000000000000000000\n      dup2\n      mstore\n      0x04\n      add\n      tag_243\n      swap1\n      tag_244\n      jump\t// in\n    tag_243:\n      mload(0x40)\n      dup1\n      swap2\n      sub\n      swap1\n      revert\n    tag_242:\n        /* \"Token_ETH.sol\":8027:8028  0 */\n      0x00\n        /* \"Token_ETH.sol\":8018:8024  amount */\n      dup2\n        /* \"Token_ETH.sol\":8018:8028  amount > 0 */\n      gt\n        /* \"Token_ETH.sol\":8010:8074  require(amount > 0, \"Transfer amount must be greater than zero\") */\n      tag_245\n      jumpi\n      mload(0x40)\n      0x08c379a000000000000000000000000000000000000000000000000000000000\n      dup2\n      mstore\n      0x04\n      add\n      tag_246\n      swap1\n      tag_247\n      jump\t// in\n    tag_246:\n      mload(0x40)\n      dup1\n      swap2\n      sub\n      swap1\n      revert\n    tag_245:\n        /* \"Token_ETH.sol\":8084:8101  uint256 taxAmount */\n      0x00\n        /* \"Token_ETH.sol\":8127:8134  owner() */\n      tag_248\n        /* \"Token_ETH.sol\":8127:8132  owner */\n      tag_93\n        /* \"Token_ETH.sol\":8127:8134  owner() */\n      jump\t// in\n    tag_248:\n        /* \"Token_ETH.sol\":8119:8134  from != owner() */\n      0xffffffffffffffffffffffffffffffffffffffff\n      and\n        /* \"Token_ETH.sol\":8119:8123  from */\n      dup5\n        /* \"Token_ETH.sol\":8119:8134  from != owner() */\n      0xffffffffffffffffffffffffffffffffffffffff\n      and\n      eq\n      iszero\n        /* \"Token_ETH.sol\":8119:8151  from != owner() && to != owner() */\n      dup1\n      iszero\n      tag_249\n      jumpi\n      pop\n        /* \"Token_ETH.sol\":8144:8151  owner() */\n      tag_250\n        /* \"Token_ETH.sol\":8144:8149  owner */\n      tag_93\n        /* \"Token_ETH.sol\":8144:8151  owner() */\n      jump\t// in\n    tag_250:\n        /* \"Token_ETH.sol\":8138:8151  to != owner() */\n      0xffffffffffffffffffffffffffffffffffffffff\n      and\n        /* \"Token_ETH.sol\":8138:8140  to */\n      dup4\n        /* \"Token_ETH.sol\":8138:8151  to != owner() */\n      0xffffffffffffffffffffffffffffffffffffffff\n      and\n      eq\n      iszero\n        /* \"Token_ETH.sol\":8119:8151  from != owner() && to != owner() */\n    tag_249:\n        /* \"Token_ETH.sol\":8115:10543  if (from != owner() && to != owner()) {... */\n      iszero\n      tag_251\n      jumpi\n        /* \"Token_ETH.sol\":8176:8180  bots */\n      0x04\n        /* \"Token_ETH.sol\":8176:8186  bots[from] */\n      0x00\n        /* \"Token_ETH.sol\":8181:8185  from */\n      dup6\n        /* \"Token_ETH.sol\":8176:8186  bots[from] */\n      0xffffffffffffffffffffffffffffffffffffffff\n      and\n      0xffffffffffffffffffffffffffffffffffffffff\n      and\n      dup2\n      mstore\n      0x20\n      add\n      swap1\n      dup2\n      mstore\n      0x20\n      add\n      0x00\n      keccak256\n      0x00\n      swap1\n      sload\n      swap1\n      0x0100\n      exp\n      swap1\n      div\n      0xff\n      and\n        /* \"Token_ETH.sol\":8175:8186  !bots[from] */\n      iszero\n        /* \"Token_ETH.sol\":8175:8199  !bots[from] && !bots[to] */\n      dup1\n      iszero\n      tag_252\n      jumpi\n      pop\n        /* \"Token_ETH.sol\":8191:8195  bots */\n      0x04\n        /* \"Token_ETH.sol\":8191:8199  bots[to] */\n      0x00\n        /* \"Token_ETH.sol\":8196:8198  to */\n      dup5\n        /* \"Token_ETH.sol\":8191:8199  bots[to] */\n      0xffffffffffffffffffffffffffffffffffffffff\n      and\n      0xffffffffffffffffffffffffffffffffffffffff\n      and\n      dup2\n      mstore\n      0x20\n      add\n      swap1\n      dup2\n      mstore\n      0x20\n      add\n      0x00\n      keccak256\n      0x00\n      swap1\n      sload\n      swap1\n      0x0100\n      exp\n      swap1\n      div\n      0xff\n      and\n        /* \"Token_ETH.sol\":8190:8199  !bots[to] */\n      iszero\n        /* \"Token_ETH.sol\":8175:8199  !bots[from] && !bots[to] */\n    tag_252:\n        /* \"Token_ETH.sol\":8167:8200  require(!bots[from] && !bots[to]) */\n      tag_253\n      jumpi\n      0x00\n      dup1\n      revert\n    tag_253:\n        /* \"Token_ETH.sol\":8232:8233  0 */\n      0x00\n        /* \"Token_ETH.sol\":8219:8228  _buyCount */\n      sload(0x0e)\n        /* \"Token_ETH.sol\":8219:8233  _buyCount == 0 */\n      sub\n        /* \"Token_ETH.sol\":8215:8506  if (_buyCount == 0) {... */\n      tag_254\n      jumpi\n        /* \"Token_ETH.sol\":8265:8491  amount... */\n      tag_255\n        /* \"Token_ETH.sol\":8487:8490  100 */\n      0x64\n        /* \"Token_ETH.sol\":8265:8461  amount... */\n      tag_256\n        /* \"Token_ETH.sol\":8335:8350  _reduceBuyTaxAt */\n      sload(0x0a)\n        /* \"Token_ETH.sol\":8323:8332  _buyCount */\n      sload(0x0e)\n        /* \"Token_ETH.sol\":8323:8350  _buyCount > _reduceBuyTaxAt */\n      gt\n        /* \"Token_ETH.sol\":8322:8439  (_buyCount > _reduceBuyTaxAt)... */\n      tag_257\n      jumpi\n        /* \"Token_ETH.sol\":8425:8439  _initialBuyTax */\n      sload(0x06)\n        /* \"Token_ETH.sol\":8322:8439  (_buyCount > _reduceBuyTaxAt)... */\n      jump(tag_258)\n    tag_257:\n        /* \"Token_ETH.sol\":8382:8394  _finalBuyTax */\n      sload(0x08)\n        /* \"Token_ETH.sol\":8322:8439  (_buyCount > _reduceBuyTaxAt)... */\n    tag_258:\n        /* \"Token_ETH.sol\":8265:8271  amount */\n      dup6\n        /* \"Token_ETH.sol\":8265:8296  amount... */\n      tag_259\n      swap1\n        /* \"Token_ETH.sol\":8265:8461  amount... */\n      swap2\n      swap1\n      0xffffffff\n      and\n      jump\t// in\n    tag_256:\n        /* \"Token_ETH.sol\":8265:8486  amount... */\n      tag_260\n      swap1\n        /* \"Token_ETH.sol\":8265:8491  amount... */\n      swap2\n      swap1\n      0xffffffff\n      and\n      jump\t// in\n    tag_255:\n        /* \"Token_ETH.sol\":8253:8491  taxAmount = amount... */\n      swap1\n      pop\n        /* \"Token_ETH.sol\":8215:8506  if (_buyCount == 0) {... */\n    tag_254:\n        /* \"Token_ETH.sol\":8535:8536  0 */\n      0x00\n        /* \"Token_ETH.sol\":8523:8532  _buyCount */\n      sload(0x0e)\n        /* \"Token_ETH.sol\":8523:8536  _buyCount > 0 */\n      gt\n        /* \"Token_ETH.sol\":8519:8616  if (_buyCount > 0) {... */\n      iszero\n      tag_261\n      jumpi\n        /* \"Token_ETH.sol\":8568:8601  amount.mul(_transferTax).div(100) */\n      tag_262\n        /* \"Token_ETH.sol\":8597:8600  100 */\n      0x64\n        /* \"Token_ETH.sol\":8568:8592  amount.mul(_transferTax) */\n      tag_263\n        /* \"Token_ETH.sol\":8579:8591  _transferTax */\n      sload(0x0d)\n        /* \"Token_ETH.sol\":8568:8574  amount */\n      dup6\n        /* \"Token_ETH.sol\":8568:8578  amount.mul */\n      tag_259\n      swap1\n        /* \"Token_ETH.sol\":8568:8592  amount.mul(_transferTax) */\n      swap2\n      swap1\n      0xffffffff\n      and\n      jump\t// in\n    tag_263:\n        /* \"Token_ETH.sol\":8568:8596  amount.mul(_transferTax).div */\n      tag_260\n      swap1\n        /* \"Token_ETH.sol\":8568:8601  amount.mul(_transferTax).div(100) */\n      swap2\n      swap1\n      0xffffffff\n      and\n      jump\t// in\n    tag_262:\n        /* \"Token_ETH.sol\":8556:8601  taxAmount = amount.mul(_transferTax).div(100) */\n      swap1\n      pop\n        /* \"Token_ETH.sol\":8519:8616  if (_buyCount > 0) {... */\n    tag_261:\n        /* \"Token_ETH.sol\":8659:8672  uniswapV2Pair */\n      0x14\n      0x00\n      swap1\n      sload\n      swap1\n      0x0100\n      exp\n      swap1\n      div\n      0xffffffffffffffffffffffffffffffffffffffff\n      and\n        /* \"Token_ETH.sol\":8651:8672  from == uniswapV2Pair */\n      0xffffffffffffffffffffffffffffffffffffffff\n      and\n        /* \"Token_ETH.sol\":8651:8655  from */\n      dup5\n        /* \"Token_ETH.sol\":8651:8672  from == uniswapV2Pair */\n      0xffffffffffffffffffffffffffffffffffffffff\n      and\n      eq\n        /* \"Token_ETH.sol\":8651:8722  from == uniswapV2Pair &&... */\n      dup1\n      iszero\n      tag_264\n      jumpi\n      pop\n        /* \"Token_ETH.sol\":8706:8721  uniswapV2Router */\n      0x13\n      0x00\n      swap1\n      sload\n      swap1\n      0x0100\n      exp\n      swap1\n      div\n      0xffffffffffffffffffffffffffffffffffffffff\n      and\n        /* \"Token_ETH.sol\":8692:8722  to != address(uniswapV2Router) */\n      0xffffffffffffffffffffffffffffffffffffffff\n      and\n        /* \"Token_ETH.sol\":8692:8694  to */\n      dup4\n        /* \"Token_ETH.sol\":8692:8722  to != address(uniswapV2Router) */\n      0xffffffffffffffffffffffffffffffffffffffff\n      and\n      eq\n      iszero\n        /* \"Token_ETH.sol\":8651:8722  from == uniswapV2Pair &&... */\n    tag_264:\n        /* \"Token_ETH.sol\":8651:8765  from == uniswapV2Pair &&... */\n      dup1\n      iszero\n      tag_265\n      jumpi\n      pop\n        /* \"Token_ETH.sol\":8743:8761  _isExcludedFromFee */\n      0x03\n        /* \"Token_ETH.sol\":8743:8765  _isExcludedFromFee[to] */\n      0x00\n        /* \"Token_ETH.sol\":8762:8764  to */\n      dup5\n        /* \"Token_ETH.sol\":8743:8765  _isExcludedFromFee[to] */\n      0xffffffffffffffffffffffffffffffffffffffff\n      and\n      0xffffffffffffffffffffffffffffffffffffffff\n      and\n      dup2\n      mstore\n      0x20\n      add\n      swap1\n      dup2\n      mstore\n      0x20\n      add\n      0x00\n      keccak256\n      0x00\n      swap1\n      sload\n      swap1\n      0x0100\n      exp\n      swap1\n      div\n      0xff\n      and\n        /* \"Token_ETH.sol\":8742:8765  !_isExcludedFromFee[to] */\n      iszero\n        /* \"Token_ETH.sol\":8651:8765  from == uniswapV2Pair &&... */\n    tag_265:\n        /* \"Token_ETH.sol\":8630:9313  if (... */\n      iszero\n      tag_266\n      jumpi\n        /* \"Token_ETH.sol\":8816:8828  _maxTxAmount */\n      sload(0x0f)\n        /* \"Token_ETH.sol\":8806:8812  amount */\n      dup3\n        /* \"Token_ETH.sol\":8806:8828  amount <= _maxTxAmount */\n      gt\n      iszero\n        /* \"Token_ETH.sol\":8798:8858  require(amount <= _maxTxAmount, \"Exceeds the _maxTxAmount.\") */\n      tag_267\n      jumpi\n      mload(0x40)\n      0x08c379a000000000000000000000000000000000000000000000000000000000\n      dup2\n      mstore\n      0x04\n      add\n      tag_268\n      swap1\n      tag_269\n      jump\t// in\n    tag_268:\n      mload(0x40)\n      dup1\n      swap2\n      sub\n      swap1\n      revert\n    tag_267:\n        /* \"Token_ETH.sol\":8931:8945  _maxWalletSize */\n      sload(0x10)\n        /* \"Token_ETH.sol\":8921:8927  amount */\n      dup3\n        /* \"Token_ETH.sol\":8905:8918  balanceOf(to) */\n      tag_270\n        /* \"Token_ETH.sol\":8915:8917  to */\n      dup6\n        /* \"Token_ETH.sol\":8905:8914  balanceOf */\n      tag_77\n        /* \"Token_ETH.sol\":8905:8918  balanceOf(to) */\n      jump\t// in\n    tag_270:\n        /* \"Token_ETH.sol\":8905:8927  balanceOf(to) + amount */\n      tag_271\n      swap2\n      swap1\n      tag_272\n      jump\t// in\n    tag_271:\n        /* \"Token_ETH.sol\":8905:8945  balanceOf(to) + amount <= _maxWalletSize */\n      gt\n      iszero\n        /* \"Token_ETH.sol\":8876:9013  require(... */\n      tag_273\n      jumpi\n      mload(0x40)\n      0x08c379a000000000000000000000000000000000000000000000000000000000\n      dup2\n      mstore\n      0x04\n      add\n      tag_274\n      swap1\n      tag_275\n      jump\t// in\n    tag_274:\n      mload(0x40)\n      dup1\n      swap2\n      sub\n      swap1\n      revert\n    tag_273:\n        /* \"Token_ETH.sol\":9043:9269  amount... */\n      tag_276\n        /* \"Token_ETH.sol\":9265:9268  100 */\n      0x64\n        /* \"Token_ETH.sol\":9043:9239  amount... */\n      tag_277\n        /* \"Token_ETH.sol\":9113:9128  _reduceBuyTaxAt */\n      sload(0x0a)\n        /* \"Token_ETH.sol\":9101:9110  _buyCount */\n      sload(0x0e)\n        /* \"Token_ETH.sol\":9101:9128  _buyCount > _reduceBuyTaxAt */\n      gt\n        /* \"Token_ETH.sol\":9100:9217  (_buyCount > _reduceBuyTaxAt)... */\n      tag_278\n      jumpi\n        /* \"Token_ETH.sol\":9203:9217  _initialBuyTax */\n      sload(0x06)\n        /* \"Token_ETH.sol\":9100:9217  (_buyCount > _reduceBuyTaxAt)... */\n      jump(tag_279)\n    tag_278:\n        /* \"Token_ETH.sol\":9160:9172  _finalBuyTax */\n      sload(0x08)\n        /* \"Token_ETH.sol\":9100:9217  (_buyCount > _reduceBuyTaxAt)... */\n    tag_279:\n        /* \"Token_ETH.sol\":9043:9049  amount */\n      dup6\n        /* \"Token_ETH.sol\":9043:9074  amount... */\n      tag_259\n      swap1\n        /* \"Token_ETH.sol\":9043:9239  amount... */\n      swap2\n      swap1\n      0xffffffff\n      and\n      jump\t// in\n    tag_277:\n        /* \"Token_ETH.sol\":9043:9264  amount... */\n      tag_260\n      swap1\n        /* \"Token_ETH.sol\":9043:9269  amount... */\n      swap2\n      swap1\n      0xffffffff\n      and\n      jump\t// in\n    tag_276:\n        /* \"Token_ETH.sol\":9031:9269  taxAmount = amount... */\n      swap1\n      pop\n        /* \"Token_ETH.sol\":9287:9296  _buyCount */\n      0x0e\n      0x00\n        /* \"Token_ETH.sol\":9287:9298  _buyCount++ */\n      dup2\n      sload\n      dup1\n      swap3\n      swap2\n      swap1\n      tag_280\n      swap1\n      tag_281\n      jump\t// in\n    tag_280:\n      swap2\n      swap1\n      pop\n      sstore\n      pop\n        /* \"Token_ETH.sol\":8630:9313  if (... */\n    tag_266:\n        /* \"Token_ETH.sol\":9337:9350  uniswapV2Pair */\n      0x14\n      0x00\n      swap1\n      sload\n      swap1\n      0x0100\n      exp\n      swap1\n      div\n      0xffffffffffffffffffffffffffffffffffffffff\n      and\n        /* \"Token_ETH.sol\":9331:9350  to == uniswapV2Pair */\n      0xffffffffffffffffffffffffffffffffffffffff\n      and\n        /* \"Token_ETH.sol\":9331:9333  to */\n      dup4\n        /* \"Token_ETH.sol\":9331:9350  to == uniswapV2Pair */\n      0xffffffffffffffffffffffffffffffffffffffff\n      and\n      eq\n        /* \"Token_ETH.sol\":9331:9375  to == uniswapV2Pair && from != address(this) */\n      dup1\n      iszero\n      tag_282\n      jumpi\n      pop\n        /* \"Token_ETH.sol\":9370:9374  this */\n      address\n        /* \"Token_ETH.sol\":9354:9375  from != address(this) */\n      0xffffffffffffffffffffffffffffffffffffffff\n      and\n        /* \"Token_ETH.sol\":9354:9358  from */\n      dup5\n        /* \"Token_ETH.sol\":9354:9375  from != address(this) */\n      0xffffffffffffffffffffffffffffffffffffffff\n      and\n      eq\n      iszero\n        /* \"Token_ETH.sol\":9331:9375  to == uniswapV2Pair && from != address(this) */\n    tag_282:\n        /* \"Token_ETH.sol\":9327:9651  if (to == uniswapV2Pair && from != address(this)) {... */\n      iszero\n      tag_283\n      jumpi\n        /* \"Token_ETH.sol\":9407:9636  amount... */\n      tag_284\n        /* \"Token_ETH.sol\":9632:9635  100 */\n      0x64\n        /* \"Token_ETH.sol\":9407:9606  amount... */\n      tag_285\n        /* \"Token_ETH.sol\":9477:9493  _reduceSellTaxAt */\n      sload(0x0b)\n        /* \"Token_ETH.sol\":9465:9474  _buyCount */\n      sload(0x0e)\n        /* \"Token_ETH.sol\":9465:9493  _buyCount > _reduceSellTaxAt */\n      gt\n        /* \"Token_ETH.sol\":9464:9584  (_buyCount > _reduceSellTaxAt)... */\n      tag_286\n      jumpi\n        /* \"Token_ETH.sol\":9569:9584  _initialSellTax */\n      sload(0x07)\n        /* \"Token_ETH.sol\":9464:9584  (_buyCount > _reduceSellTaxAt)... */\n      jump(tag_287)\n    tag_286:\n        /* \"Token_ETH.sol\":9525:9538  _finalSellTax */\n      sload(0x09)\n        /* \"Token_ETH.sol\":9464:9584  (_buyCount > _reduceSellTaxAt)... */\n    tag_287:\n        /* \"Token_ETH.sol\":9407:9413  amount */\n      dup6\n        /* \"Token_ETH.sol\":9407:9438  amount... */\n      tag_259\n      swap1\n        /* \"Token_ETH.sol\":9407:9606  amount... */\n      swap2\n      swap1\n      0xffffffff\n      and\n      jump\t// in\n    tag_285:\n        /* \"Token_ETH.sol\":9407:9631  amount... */\n      tag_260\n      swap1\n        /* \"Token_ETH.sol\":9407:9636  amount... */\n      swap2\n      swap1\n      0xffffffff\n      and\n      jump\t// in\n    tag_284:\n        /* \"Token_ETH.sol\":9395:9636  taxAmount = amount... */\n      swap1\n      pop\n        /* \"Token_ETH.sol\":9327:9651  if (to == uniswapV2Pair && from != address(this)) {... */\n    tag_283:\n        /* \"Token_ETH.sol\":9665:9693  uint256 contractTokenBalance */\n      0x00\n        /* \"Token_ETH.sol\":9696:9720  balanceOf(address(this)) */\n      tag_288\n        /* \"Token_ETH.sol\":9714:9718  this */\n      address\n        /* \"Token_ETH.sol\":9696:9705  balanceOf */\n      tag_77\n        /* \"Token_ETH.sol\":9696:9720  balanceOf(address(this)) */\n      jump\t// in\n    tag_288:\n        /* \"Token_ETH.sol\":9665:9720  uint256 contractTokenBalance = balanceOf(address(this)) */\n      swap1\n      pop\n        /* \"Token_ETH.sol\":9756:9762  inSwap */\n      0x14\n      0x15\n      swap1\n      sload\n      swap1\n      0x0100\n      exp\n      swap1\n      div\n      0xff\n      and\n        /* \"Token_ETH.sol\":9755:9762  !inSwap */\n      iszero\n        /* \"Token_ETH.sol\":9755:9801  !inSwap &&... */\n      dup1\n      iszero\n      tag_289\n      jumpi\n      pop\n        /* \"Token_ETH.sol\":9788:9801  uniswapV2Pair */\n      0x14\n      0x00\n      swap1\n      sload\n      swap1\n      0x0100\n      exp\n      swap1\n      div\n      0xffffffffffffffffffffffffffffffffffffffff\n      and\n        /* \"Token_ETH.sol\":9782:9801  to == uniswapV2Pair */\n      0xffffffffffffffffffffffffffffffffffffffff\n      and\n        /* \"Token_ETH.sol\":9782:9784  to */\n      dup5\n        /* \"Token_ETH.sol\":9782:9801  to == uniswapV2Pair */\n      0xffffffffffffffffffffffffffffffffffffffff\n      and\n      eq\n        /* \"Token_ETH.sol\":9755:9801  !inSwap &&... */\n    tag_289:\n        /* \"Token_ETH.sol\":9755:9832  !inSwap &&... */\n      dup1\n      iszero\n      tag_290\n      jumpi\n      pop\n        /* \"Token_ETH.sol\":9821:9832  swapEnabled */\n      0x14\n      0x16\n      swap1\n      sload\n      swap1\n      0x0100\n      exp\n      swap1\n      div\n      0xff\n      and\n        /* \"Token_ETH.sol\":9755:9832  !inSwap &&... */\n    tag_290:\n        /* \"Token_ETH.sol\":9755:9892  !inSwap &&... */\n      dup1\n      iszero\n      tag_291\n      jumpi\n      pop\n        /* \"Token_ETH.sol\":9875:9892  _taxSwapThreshold */\n      sload(0x11)\n        /* \"Token_ETH.sol\":9852:9872  contractTokenBalance */\n      dup2\n        /* \"Token_ETH.sol\":9852:9892  contractTokenBalance > _taxSwapThreshold */\n      gt\n        /* \"Token_ETH.sol\":9755:9892  !inSwap &&... */\n    tag_291:\n        /* \"Token_ETH.sol\":9755:9942  !inSwap &&... */\n      dup1\n      iszero\n      tag_292\n      jumpi\n      pop\n        /* \"Token_ETH.sol\":9924:9942  _preventSwapBefore */\n      sload(0x0c)\n        /* \"Token_ETH.sol\":9912:9921  _buyCount */\n      sload(0x0e)\n        /* \"Token_ETH.sol\":9912:9942  _buyCount > _preventSwapBefore */\n      gt\n        /* \"Token_ETH.sol\":9755:9942  !inSwap &&... */\n    tag_292:\n        /* \"Token_ETH.sol\":9734:10533  if (... */\n      iszero\n      tag_293\n      jumpi\n        /* \"Token_ETH.sol\":9994:10007  lastSellBlock */\n      sload(0x16)\n        /* \"Token_ETH.sol\":9979:9991  block.number */\n      number\n        /* \"Token_ETH.sol\":9979:10007  block.number > lastSellBlock */\n      gt\n        /* \"Token_ETH.sol\":9975:10063  if (block.number > lastSellBlock) {... */\n      iszero\n      tag_294\n      jumpi\n        /* \"Token_ETH.sol\":10043:10044  0 */\n      0x00\n        /* \"Token_ETH.sol\":10031:10040  sellCount */\n      0x15\n        /* \"Token_ETH.sol\":10031:10044  sellCount = 0 */\n      dup2\n      swap1\n      sstore\n      pop\n        /* \"Token_ETH.sol\":9975:10063  if (block.number > lastSellBlock) {... */\n    tag_294:\n        /* \"Token_ETH.sol\":10100:10101  3 */\n      0x03\n        /* \"Token_ETH.sol\":10088:10097  sellCount */\n      sload(0x15)\n        /* \"Token_ETH.sol\":10088:10101  sellCount < 3 */\n      lt\n        /* \"Token_ETH.sol\":10080:10129  require(sellCount < 3, \"Only 3 sells per block!\") */\n      tag_295\n      jumpi\n      mload(0x40)\n      0x08c379a000000000000000000000000000000000000000000000000000000000\n      dup2\n      mstore\n      0x04\n      add\n      tag_296\n      swap1\n      tag_297\n      jump\t// in\n    tag_296:\n      mload(0x40)\n      dup1\n      swap2\n      sub\n      swap1\n      revert\n    tag_295:\n        /* \"Token_ETH.sol\":10147:10254  swapTokensForEth(... */\n      tag_298\n        /* \"Token_ETH.sol\":10185:10236  min(amount, min(contractTokenBalance, _maxTaxSwap)) */\n      tag_299\n        /* \"Token_ETH.sol\":10189:10195  amount */\n      dup5\n        /* \"Token_ETH.sol\":10197:10235  min(contractTokenBalance, _maxTaxSwap) */\n      tag_300\n        /* \"Token_ETH.sol\":10201:10221  contractTokenBalance */\n      dup5\n        /* \"Token_ETH.sol\":10223:10234  _maxTaxSwap */\n      sload(0x12)\n        /* \"Token_ETH.sol\":10197:10200  min */\n      tag_301\n        /* \"Token_ETH.sol\":10197:10235  min(contractTokenBalance, _maxTaxSwap) */\n      jump\t// in\n    tag_300:\n        /* \"Token_ETH.sol\":10185:10188  min */\n      tag_301\n        /* \"Token_ETH.sol\":10185:10236  min(amount, min(contractTokenBalance, _maxTaxSwap)) */\n      jump\t// in\n    tag_299:\n        /* \"Token_ETH.sol\":10147:10163  swapTokensForEth */\n      tag_155\n        /* \"Token_ETH.sol\":10147:10254  swapTokensForEth(... */\n      jump\t// in\n    tag_298:\n        /* \"Token_ETH.sol\":10272:10298  uint256 contractETHBalance */\n      0x00\n        /* \"Token_ETH.sol\":10301:10322  address(this).balance */\n      selfbalance\n        /* \"Token_ETH.sol\":10272:10322  uint256 contractETHBalance = address(this).balance */\n      swap1\n      pop\n        /* \"Token_ETH.sol\":10365:10366  0 */\n      0x00\n        /* \"Token_ETH.sol\":10344:10362  contractETHBalance */\n      dup2\n        /* \"Token_ETH.sol\":10344:10366  contractETHBalance > 0 */\n      gt\n        /* \"Token_ETH.sol\":10340:10444  if (contractETHBalance > 0) {... */\n      iszero\n      tag_302\n      jumpi\n        /* \"Token_ETH.sol\":10390:10425  sendETHToFee(address(this).balance) */\n      tag_303\n        /* \"Token_ETH.sol\":10403:10424  address(this).balance */\n      selfbalance\n        /* \"Token_ETH.sol\":10390:10402  sendETHToFee */\n      tag_158\n        /* \"Token_ETH.sol\":10390:10425  sendETHToFee(address(this).balance) */\n      jump\t// in\n    tag_303:\n        /* \"Token_ETH.sol\":10340:10444  if (contractETHBalance > 0) {... */\n    tag_302:\n        /* \"Token_ETH.sol\":10461:10470  sellCount */\n      0x15\n      0x00\n        /* \"Token_ETH.sol\":10461:10472  sellCount++ */\n      dup2\n      sload\n      dup1\n      swap3\n      swap2\n      swap1\n      tag_304\n      swap1\n      tag_281\n      jump\t// in\n    tag_304:\n      swap2\n      swap1\n      pop\n      sstore\n      pop\n        /* \"Token_ETH.sol\":10506:10518  block.number */\n      number\n        /* \"Token_ETH.sol\":10490:10503  lastSellBlock */\n      0x16\n        /* \"Token_ETH.sol\":10490:10518  lastSellBlock = block.number */\n      dup2\n      swap1\n      sstore\n      pop\n        /* \"Token_ETH.sol\":9957:10533  {... */\n      pop\n        /* \"Token_ETH.sol\":9734:10533  if (... */\n    tag_293:\n        /* \"Token_ETH.sol\":8153:10543  {... */\n      pop\n        /* \"Token_ETH.sol\":8115:10543  if (from != owner() && to != owner()) {... */\n    tag_251:\n        /* \"Token_ETH.sol\":10569:10570  0 */\n      0x00\n        /* \"Token_ETH.sol\":10557:10566  taxAmount */\n      dup2\n        /* \"Token_ETH.sol\":10557:10570  taxAmount > 0 */\n      gt\n        /* \"Token_ETH.sol\":10553:10722  if (taxAmount > 0) {... */\n      iszero\n      tag_305\n      jumpi\n        /* \"Token_ETH.sol\":10613:10652  _balances[address(this)].add(taxAmount) */\n      tag_306\n        /* \"Token_ETH.sol\":10642:10651  taxAmount */\n      dup2\n        /* \"Token_ETH.sol\":10613:10622  _balances */\n      0x01\n        /* \"Token_ETH.sol\":10613:10637  _balances[address(this)] */\n      0x00\n        /* \"Token_ETH.sol\":10631:10635  this */\n      address\n        /* \"Token_ETH.sol\":10613:10637  _balances[address(this)] */\n      0xffffffffffffffffffffffffffffffffffffffff\n      and\n      0xffffffffffffffffffffffffffffffffffffffff\n      and\n      dup2\n      mstore\n      0x20\n      add\n      swap1\n      dup2\n      mstore\n      0x20\n      add\n      0x00\n      keccak256\n      sload\n        /* \"Token_ETH.sol\":10613:10641  _balances[address(this)].add */\n      tag_307\n      swap1\n        /* \"Token_ETH.sol\":10613:10652  _balances[address(this)].add(taxAmount) */\n      swap2\n      swap1\n      0xffffffff\n      and\n      jump\t// in\n    tag_306:\n        /* \"Token_ETH.sol\":10586:10595  _balances */\n      0x01\n        /* \"Token_ETH.sol\":10586:10610  _balances[address(this)] */\n      0x00\n        /* \"Token_ETH.sol\":10604:10608  this */\n      address\n        /* \"Token_ETH.sol\":10586:10610  _balances[address(this)] */\n      0xffffffffffffffffffffffffffffffffffffffff\n      and\n      0xffffffffffffffffffffffffffffffffffffffff\n      and\n      dup2\n      mstore\n      0x20\n      add\n      swap1\n      dup2\n      mstore\n      0x20\n      add\n      0x00\n      keccak256\n        /* \"Token_ETH.sol\":10586:10652  _balances[address(this)] = _balances[address(this)].add(taxAmount) */\n      dup2\n      swap1\n      sstore\n      pop\n        /* \"Token_ETH.sol\":10694:10698  this */\n      address\n        /* \"Token_ETH.sol\":10671:10711  Transfer(from, address(this), taxAmount) */\n      0xffffffffffffffffffffffffffffffffffffffff\n      and\n        /* \"Token_ETH.sol\":10680:10684  from */\n      dup5\n        /* \"Token_ETH.sol\":10671:10711  Transfer(from, address(this), taxAmount) */\n      0xffffffffffffffffffffffffffffffffffffffff\n      and\n      0xddf252ad1be2c89b69c2b068fc378daa952ba7f163c4a11628f55a4df523b3ef\n        /* \"Token_ETH.sol\":10701:10710  taxAmount */\n      dup4\n        /* \"Token_ETH.sol\":10671:10711  Transfer(from, address(this), taxAmount) */\n      mload(0x40)\n      tag_308\n      swap2\n      swap1\n      tag_46\n      jump\t// in\n    tag_308:\n      mload(0x40)\n      dup1\n      swap2\n      sub\n      swap1\n      log3\n        /* \"Token_ETH.sol\":10553:10722  if (taxAmount > 0) {... */\n    tag_305:\n        /* \"Token_ETH.sol\":10749:10776  _balances[from].sub(amount) */\n      tag_309\n        /* \"Token_ETH.sol\":10769:10775  amount */\n      dup3\n        /* \"Token_ETH.sol\":10749:10758  _balances */\n      0x01\n        /* \"Token_ETH.sol\":10749:10764  _balances[from] */\n      0x00\n        /* \"Token_ETH.sol\":10759:10763  from */\n      dup8\n        /* \"Token_ETH.sol\":10749:10764  _balances[from] */\n      0xffffffffffffffffffffffffffffffffffffffff\n      and\n      0xffffffffffffffffffffffffffffffffffffffff\n      and\n      dup2\n      mstore\n      0x20\n      add\n      swap1\n      dup2\n      mstore\n      0x20\n      add\n      0x00\n      keccak256\n      sload\n        /* \"Token_ETH.sol\":10749:10768  _balances[from].sub */\n      tag_310\n      swap1\n        /* \"Token_ETH.sol\":10749:10776  _balances[from].sub(amount) */\n      swap2\n      swap1\n      0xffffffff\n      and\n      jump\t// in\n    tag_309:\n        /* \"Token_ETH.sol\":10731:10740  _balances */\n      0x01\n        /* \"Token_ETH.sol\":10731:10746  _balances[from] */\n      0x00\n        /* \"Token_ETH.sol\":10741:10745  from */\n      dup7\n        /* \"Token_ETH.sol\":10731:10746  _balances[from] */\n      0xffffffffffffffffffffffffffffffffffffffff\n      and\n      0xffffffffffffffffffffffffffffffffffffffff\n      and\n      dup2\n      mstore\n      0x20\n      add\n      swap1\n      dup2\n      mstore\n      0x20\n      add\n      0x00\n      keccak256\n        /* \"Token_ETH.sol\":10731:10776  _balances[from] = _balances[from].sub(amount) */\n      dup2\n      swap1\n      sstore\n      pop\n        /* \"Token_ETH.sol\":10802:10842  _balances[to].add(amount.sub(taxAmount)) */\n      tag_311\n        /* \"Token_ETH.sol\":10820:10841  amount.sub(taxAmount) */\n      tag_312\n        /* \"Token_ETH.sol\":10831:10840  taxAmount */\n      dup3\n        /* \"Token_ETH.sol\":10820:10826  amount */\n      dup5\n        /* \"Token_ETH.sol\":10820:10830  amount.sub */\n      tag_310\n      swap1\n        /* \"Token_ETH.sol\":10820:10841  amount.sub(taxAmount) */\n      swap2\n      swap1\n      0xffffffff\n      and\n      jump\t// in\n    tag_312:\n        /* \"Token_ETH.sol\":10802:10811  _balances */\n      0x01\n        /* \"Token_ETH.sol\":10802:10815  _balances[to] */\n      0x00\n        /* \"Token_ETH.sol\":10812:10814  to */\n      dup7\n        /* \"Token_ETH.sol\":10802:10815  _balances[to] */\n      0xffffffffffffffffffffffffffffffffffffffff\n      and\n      0xffffffffffffffffffffffffffffffffffffffff\n      and\n      dup2\n      mstore\n      0x20\n      add\n      swap1\n      dup2\n      mstore\n      0x20\n      add\n      0x00\n      keccak256\n      sload\n        /* \"Token_ETH.sol\":10802:10819  _balances[to].add */\n      tag_307\n      swap1\n        /* \"Token_ETH.sol\":10802:10842  _balances[to].add(amount.sub(taxAmount)) */\n      swap2\n      swap1\n      0xffffffff\n      and\n      jump\t// in\n    tag_311:\n        /* \"Token_ETH.sol\":10786:10795  _balances */\n      0x01\n        /* \"Token_ETH.sol\":10786:10799  _balances[to] */\n      0x00\n        /* \"Token_ETH.sol\":10796:10798  to */\n      dup6\n        /* \"Token_ETH.sol\":10786:10799  _balances[to] */\n      0xffffffffffffffffffffffffffffffffffffffff\n      and\n      0xffffffffffffffffffffffffffffffffffffffff\n      and\n      dup2\n      mstore\n      0x20\n      add\n      swap1\n      dup2\n      mstore\n      0x20\n      add\n      0x00\n      keccak256\n        /* \"Token_ETH.sol\":10786:10842  _balances[to] = _balances[to].add(amount.sub(taxAmount)) */\n      dup2\n      swap1\n      sstore\n      pop\n        /* \"Token_ETH.sol\":10872:10874  to */\n      dup3\n        /* \"Token_ETH.sol\":10857:10898  Transfer(from, to, amount.sub(taxAmount)) */\n      0xffffffffffffffffffffffffffffffffffffffff\n      and\n        /* \"Token_ETH.sol\":10866:10870  from */\n      dup5\n        /* \"Token_ETH.sol\":10857:10898  Transfer(from, to, amount.sub(taxAmount)) */\n      0xffffffffffffffffffffffffffffffffffffffff\n      and\n      0xddf252ad1be2c89b69c2b068fc378daa952ba7f163c4a11628f55a4df523b3ef\n        /* \"Token_ETH.sol\":10876:10897  amount.sub(taxAmount) */\n      tag_313\n        /* \"Token_ETH.sol\":10887:10896  taxAmount */\n      dup5\n        /* \"Token_ETH.sol\":10876:10882  amount */\n      dup7\n        /* \"Token_ETH.sol\":10876:10886  amount.sub */\n      tag_310\n      swap1\n        /* \"Token_ETH.sol\":10876:10897  amount.sub(taxAmount) */\n      swap2\n      swap1\n      0xffffffff\n      and\n      jump\t// in\n    tag_313:\n        /* \"Token_ETH.sol\":10857:10898  Transfer(from, to, amount.sub(taxAmount)) */\n      mload(0x40)\n      tag_314\n      swap2\n      swap1\n      tag_46\n      jump\t// in\n    tag_314:\n      mload(0x40)\n      dup1\n      swap2\n      sub\n      swap1\n      log3\n        /* \"Token_ETH.sol\":7848:10905  {... */\n      pop\n        /* \"Token_ETH.sol\":7779:10905  function _transfer(address from, address to, uint256 amount) private {... */\n      pop\n      pop\n      pop\n      jump\t// out\n        /* \"Token_ETH.sol\":1394:1610  function sub(... */\n    tag_147:\n        /* \"Token_ETH.sol\":1510:1517  uint256 */\n      0x00\n        /* \"Token_ETH.sol\":1542:1543  a */\n      dup4\n        /* \"Token_ETH.sol\":1537:1538  b */\n      dup4\n        /* \"Token_ETH.sol\":1537:1543  b <= a */\n      gt\n      iszero\n        /* \"Token_ETH.sol\":1545:1557  errorMessage */\n      dup3\n        /* \"Token_ETH.sol\":1529:1558  require(b <= a, errorMessage) */\n      swap1\n      tag_316\n      jumpi\n      mload(0x40)\n      0x08c379a000000000000000000000000000000000000000000000000000000000\n      dup2\n      mstore\n      0x04\n      add\n      tag_317\n      swap2\n      swap1\n      tag_34\n      jump\t// in\n    tag_317:\n      mload(0x40)\n      dup1\n      swap2\n      sub\n      swap1\n      revert\n    tag_316:\n      pop\n        /* \"Token_ETH.sol\":1568:1577  uint256 c */\n      0x00\n        /* \"Token_ETH.sol\":1584:1585  b */\n      dup4\n        /* \"Token_ETH.sol\":1580:1581  a */\n      dup6\n        /* \"Token_ETH.sol\":1580:1585  a - b */\n      tag_318\n      swap2\n      swap1\n      tag_319\n      jump\t// in\n    tag_318:\n        /* \"Token_ETH.sol\":1568:1585  uint256 c = a - b */\n      swap1\n      pop\n        /* \"Token_ETH.sol\":1602:1603  c */\n      dup1\n        /* \"Token_ETH.sol\":1595:1603  return c */\n      swap2\n      pop\n      pop\n        /* \"Token_ETH.sol\":1394:1610  function sub(... */\n      swap4\n      swap3\n      pop\n      pop\n      pop\n      jump\t// out\n        /* \"Token_ETH.sol\":11022:11493  function swapTokensForEth(uint256 tokenAmount) private lockTheSwap {... */\n    tag_155:\n        /* \"Token_ETH.sol\":5228:5232  true */\n      0x01\n        /* \"Token_ETH.sol\":5219:5225  inSwap */\n      0x14\n      0x15\n        /* \"Token_ETH.sol\":5219:5232  inSwap = true */\n      0x0100\n      exp\n      dup2\n      sload\n      dup2\n      0xff\n      mul\n      not\n      and\n      swap1\n      dup4\n      iszero\n      iszero\n      mul\n      or\n      swap1\n      sstore\n      pop\n        /* \"Token_ETH.sol\":11099:11120  address[] memory path */\n      0x00\n        /* \"Token_ETH.sol\":11137:11138  2 */\n      0x02\n        /* \"Token_ETH.sol\":11123:11139  new address[](2) */\n      0xffffffffffffffff\n      dup2\n      gt\n      iszero\n      tag_322\n      jumpi\n      tag_323\n      tag_324\n      jump\t// in\n    tag_323:\n    tag_322:\n      mload(0x40)\n      swap1\n      dup1\n      dup3\n      mstore\n      dup1\n      0x20\n      mul\n      0x20\n      add\n      dup3\n      add\n      0x40\n      mstore\n      dup1\n      iszero\n      tag_325\n      jumpi\n      dup2\n      0x20\n      add\n      0x20\n      dup3\n      mul\n      dup1\n      calldatasize\n      dup4\n      calldatacopy\n      dup1\n      dup3\n      add\n      swap2\n      pop\n      pop\n      swap1\n      pop\n    tag_325:\n      pop\n        /* \"Token_ETH.sol\":11099:11139  address[] memory path = new address[](2) */\n      swap1\n      pop\n        /* \"Token_ETH.sol\":11167:11171  this */\n      address\n        /* \"Token_ETH.sol\":11149:11153  path */\n      dup2\n        /* \"Token_ETH.sol\":11154:11155  0 */\n      0x00\n        /* \"Token_ETH.sol\":11149:11156  path[0] */\n      dup2\n      mload\n      dup2\n      lt\n      tag_326\n      jumpi\n      tag_327\n      tag_189\n      jump\t// in\n    tag_327:\n    tag_326:\n      0x20\n      mul\n      0x20\n      add\n      add\n        /* \"Token_ETH.sol\":11149:11172  path[0] = address(this) */\n      swap1\n      0xffffffffffffffffffffffffffffffffffffffff\n      and\n      swap1\n      dup2\n      0xffffffffffffffffffffffffffffffffffffffff\n      and\n      dup2\n      mstore\n      pop\n      pop\n        /* \"Token_ETH.sol\":11192:11207  uniswapV2Router */\n      0x13\n      0x00\n      swap1\n      sload\n      swap1\n      0x0100\n      exp\n      swap1\n      div\n      0xffffffffffffffffffffffffffffffffffffffff\n      and\n        /* \"Token_ETH.sol\":11192:11212  uniswapV2Router.WETH */\n      0xffffffffffffffffffffffffffffffffffffffff\n      and\n      0xad5c4648\n        /* \"Token_ETH.sol\":11192:11214  uniswapV2Router.WETH() */\n      mload(0x40)\n      dup2\n      0xffffffff\n      and\n      0xe0\n      shl\n      dup2\n      mstore\n      0x04\n      add\n      0x20\n      mload(0x40)\n      dup1\n      dup4\n      sub\n      dup2\n      dup7\n      gas\n      staticcall\n      iszero\n      dup1\n      iszero\n      tag_329\n      jumpi\n      returndatasize\n      0x00\n      dup1\n      returndatacopy\n      revert(0x00, returndatasize)\n    tag_329:\n      pop\n      pop\n      pop\n      pop\n      mload(0x40)\n      returndatasize\n      not(0x1f)\n      0x1f\n      dup3\n      add\n      and\n      dup3\n      add\n      dup1\n      0x40\n      mstore\n      pop\n      dup2\n      add\n      swap1\n      tag_330\n      swap2\n      swap1\n      tag_331\n      jump\t// in\n    tag_330:\n        /* \"Token_ETH.sol\":11182:11186  path */\n      dup2\n        /* \"Token_ETH.sol\":11187:11188  1 */\n      0x01\n        /* \"Token_ETH.sol\":11182:11189  path[1] */\n      dup2\n      mload\n      dup2\n      lt\n      tag_332\n      jumpi\n      tag_333\n      tag_189\n      jump\t// in\n    tag_333:\n    tag_332:\n      0x20\n      mul\n      0x20\n      add\n      add\n        /* \"Token_ETH.sol\":11182:11214  path[1] = uniswapV2Router.WETH() */\n      swap1\n      0xffffffffffffffffffffffffffffffffffffffff\n      and\n      swap1\n      dup2\n      0xffffffffffffffffffffffffffffffffffffffff\n      and\n      dup2\n      mstore\n      pop\n      pop\n        /* \"Token_ETH.sol\":11224:11286  _approve(address(this), address(uniswapV2Router), tokenAmount) */\n      tag_334\n        /* \"Token_ETH.sol\":11241:11245  this */\n      address\n        /* \"Token_ETH.sol\":11256:11271  uniswapV2Router */\n      0x13\n      0x00\n      swap1\n      sload\n      swap1\n      0x0100\n      exp\n      swap1\n      div\n      0xffffffffffffffffffffffffffffffffffffffff\n      and\n        /* \"Token_ETH.sol\":11274:11285  tokenAmount */\n      dup5\n        /* \"Token_ETH.sol\":11224:11232  _approve */\n      tag_134\n        /* \"Token_ETH.sol\":11224:11286  _approve(address(this), address(uniswapV2Router), tokenAmount) */\n      jump\t// in\n    tag_334:\n        /* \"Token_ETH.sol\":11296:11311  uniswapV2Router */\n      0x13\n      0x00\n      swap1\n      sload\n      swap1\n      0x0100\n      exp\n      swap1\n      div\n      0xffffffffffffffffffffffffffffffffffffffff\n      and\n        /* \"Token_ETH.sol\":11296:11362  uniswapV2Router.swapExactTokensForETHSupportingFeeOnTransferTokens */\n      0xffffffffffffffffffffffffffffffffffffffff\n      and\n      0x791ac947\n        /* \"Token_ETH.sol\":11376:11387  tokenAmount */\n      dup4\n        /* \"Token_ETH.sol\":11401:11402  0 */\n      0x00\n        /* \"Token_ETH.sol\":11416:11420  path */\n      dup5\n        /* \"Token_ETH.sol\":11442:11446  this */\n      address\n        /* \"Token_ETH.sol\":11461:11476  block.timestamp */\n      timestamp\n        /* \"Token_ETH.sol\":11296:11486  uniswapV2Router.swapExactTokensForETHSupportingFeeOnTransferTokens(... */\n      mload(0x40)\n      dup7\n      0xffffffff\n      and\n      0xe0\n      shl\n      dup2\n      mstore\n      0x04\n      add\n      tag_335\n      swap6\n      swap5\n      swap4\n      swap3\n      swap2\n      swap1\n      tag_336\n      jump\t// in\n    tag_335:\n      0x00\n      mload(0x40)\n      dup1\n      dup4\n      sub\n      dup2\n      0x00\n      dup8\n      dup1\n      extcodesize\n      iszero\n      dup1\n      iszero\n      tag_337\n      jumpi\n      0x00\n      dup1\n      revert\n    tag_337:\n      pop\n      gas\n      call\n      iszero\n      dup1\n      iszero\n      tag_339\n      jumpi\n      returndatasize\n      0x00\n      dup1\n      returndatacopy\n      revert(0x00, returndatasize)\n    tag_339:\n      pop\n      pop\n      pop\n      pop\n        /* \"Token_ETH.sol\":11089:11493  {... */\n      pop\n        /* \"Token_ETH.sol\":5262:5267  false */\n      0x00\n        /* \"Token_ETH.sol\":5253:5259  inSwap */\n      0x14\n      0x15\n        /* \"Token_ETH.sol\":5253:5267  inSwap = false */\n      0x0100\n      exp\n      dup2\n      sload\n      dup2\n      0xff\n      mul\n      not\n      and\n      swap1\n      dup4\n      iszero\n      iszero\n      mul\n      or\n      swap1\n      sstore\n      pop\n        /* \"Token_ETH.sol\":11022:11493  function swapTokensForEth(uint256 tokenAmount) private lockTheSwap {... */\n      pop\n      jump\t// out\n        /* \"Token_ETH.sol\":11662:11752  function sendETHToFee(uint256 amount) private {... */\n    tag_158:\n        /* \"Token_ETH.sol\":11718:11728  _taxWallet */\n      0x05\n      0x00\n      swap1\n      sload\n      swap1\n      0x0100\n      exp\n      swap1\n      div\n      0xffffffffffffffffffffffffffffffffffffffff\n      and\n        /* \"Token_ETH.sol\":11718:11737  _taxWallet.transfer */\n      0xffffffffffffffffffffffffffffffffffffffff\n      and\n        /* \"Token_ETH.sol\":11718:11745  _taxWallet.transfer(amount) */\n      0x08fc\n        /* \"Token_ETH.sol\":11738:11744  amount */\n      dup3\n        /* \"Token_ETH.sol\":11718:11745  _taxWallet.transfer(amount) */\n      swap1\n      dup2\n      iszero\n      mul\n      swap1\n      mload(0x40)\n      0x00\n      mload(0x40)\n      dup1\n      dup4\n      sub\n      dup2\n      dup6\n      dup9\n      dup9\n      call\n      swap4\n      pop\n      pop\n      pop\n      pop\n      iszero\n      dup1\n      iszero\n      tag_342\n      jumpi\n      returndatasize\n      0x00\n      dup1\n      returndatacopy\n      revert(0x00, returndatasize)\n    tag_342:\n      pop\n        /* \"Token_ETH.sol\":11662:11752  function sendETHToFee(uint256 amount) private {... */\n      pop\n      jump\t// out\n        /* \"Token_ETH.sol\":1616:1855  function mul(uint256 a, uint256 b) internal pure returns (uint256) {... */\n    tag_259:\n        /* \"Token_ETH.sol\":1674:1681  uint256 */\n      0x00\n        /* \"Token_ETH.sol\":1702:1703  0 */\n      dup1\n        /* \"Token_ETH.sol\":1697:1698  a */\n      dup4\n        /* \"Token_ETH.sol\":1697:1703  a == 0 */\n      sub\n        /* \"Token_ETH.sol\":1693:1738  if (a == 0) {... */\n      tag_344\n      jumpi\n        /* \"Token_ETH.sol\":1726:1727  0 */\n      0x00\n        /* \"Token_ETH.sol\":1719:1727  return 0 */\n      swap1\n      pop\n      jump(tag_343)\n        /* \"Token_ETH.sol\":1693:1738  if (a == 0) {... */\n    tag_344:\n        /* \"Token_ETH.sol\":1747:1756  uint256 c */\n      0x00\n        /* \"Token_ETH.sol\":1763:1764  b */\n      dup3\n        /* \"Token_ETH.sol\":1759:1760  a */\n      dup5\n        /* \"Token_ETH.sol\":1759:1764  a * b */\n      tag_345\n      swap2\n      swap1\n      tag_139\n      jump\t// in\n    tag_345:\n        /* \"Token_ETH.sol\":1747:1764  uint256 c = a * b */\n      swap1\n      pop\n        /* \"Token_ETH.sol\":1791:1792  b */\n      dup3\n        /* \"Token_ETH.sol\":1786:1787  a */\n      dup5\n        /* \"Token_ETH.sol\":1782:1783  c */\n      dup3\n        /* \"Token_ETH.sol\":1782:1787  c / a */\n      tag_346\n      swap2\n      swap1\n      tag_347\n      jump\t// in\n    tag_346:\n        /* \"Token_ETH.sol\":1782:1792  c / a == b */\n      eq\n        /* \"Token_ETH.sol\":1774:1830  require(c / a == b, \"SafeMath: multiplication overflow\") */\n      tag_348\n      jumpi\n      mload(0x40)\n      0x08c379a000000000000000000000000000000000000000000000000000000000\n      dup2\n      mstore\n      0x04\n      add\n      tag_349\n      swap1\n      tag_350\n      jump\t// in\n    tag_349:\n      mload(0x40)\n      dup1\n      swap2\n      sub\n      swap1\n      revert\n    tag_348:\n        /* \"Token_ETH.sol\":1847:1848  c */\n      dup1\n        /* \"Token_ETH.sol\":1840:1848  return c */\n      swap2\n      pop\n      pop\n        /* \"Token_ETH.sol\":1616:1855  function mul(uint256 a, uint256 b) internal pure returns (uint256) {... */\n    tag_343:\n      swap3\n      swap2\n      pop\n      pop\n      jump\t// out\n        /* \"Token_ETH.sol\":1861:1991  function div(uint256 a, uint256 b) internal pure returns (uint256) {... */\n    tag_260:\n        /* \"Token_ETH.sol\":1919:1926  uint256 */\n      0x00\n        /* \"Token_ETH.sol\":1945:1984  div(a, b, \"SafeMath: division by zero\") */\n      tag_352\n        /* \"Token_ETH.sol\":1949:1950  a */\n      dup4\n        /* \"Token_ETH.sol\":1952:1953  b */\n      dup4\n        /* \"Token_ETH.sol\":1945:1984  div(a, b, \"SafeMath: division by zero\") */\n      mload(0x40)\n      dup1\n      0x40\n      add\n      0x40\n      mstore\n      dup1\n      0x1a\n      dup2\n      mstore\n      0x20\n      add\n      0x536166654d6174683a206469766973696f6e206279207a65726f000000000000\n      dup2\n      mstore\n      pop\n        /* \"Token_ETH.sol\":1945:1948  div */\n      tag_353\n        /* \"Token_ETH.sol\":1945:1984  div(a, b, \"SafeMath: division by zero\") */\n      jump\t// in\n    tag_352:\n        /* \"Token_ETH.sol\":1938:1984  return div(a, b, \"SafeMath: division by zero\") */\n      swap1\n      pop\n        /* \"Token_ETH.sol\":1861:1991  function div(uint256 a, uint256 b) internal pure returns (uint256) {... */\n      swap3\n      swap2\n      pop\n      pop\n      jump\t// out\n        /* \"Token_ETH.sol\":10911:11016  function min(uint256 a, uint256 b) private pure returns (uint256) {... */\n    tag_301:\n        /* \"Token_ETH.sol\":10968:10975  uint256 */\n      0x00\n        /* \"Token_ETH.sol\":10999:11000  b */\n      dup2\n        /* \"Token_ETH.sol\":10995:10996  a */\n      dup4\n        /* \"Token_ETH.sol\":10995:11000  a > b */\n      gt\n        /* \"Token_ETH.sol\":10994:11009  (a > b) ? b : a */\n      tag_355\n      jumpi\n        /* \"Token_ETH.sol\":11008:11009  a */\n      dup3\n        /* \"Token_ETH.sol\":10994:11009  (a > b) ? b : a */\n      jump(tag_356)\n    tag_355:\n        /* \"Token_ETH.sol\":11004:11005  b */\n      dup2\n        /* \"Token_ETH.sol\":10994:11009  (a > b) ? b : a */\n    tag_356:\n        /* \"Token_ETH.sol\":10987:11009  return (a > b) ? b : a */\n      swap1\n      pop\n        /* \"Token_ETH.sol\":10911:11016  function min(uint256 a, uint256 b) private pure returns (uint256) {... */\n      swap3\n      swap2\n      pop\n      pop\n      jump\t// out\n        /* \"Token_ETH.sol\":1073:1248  function add(uint256 a, uint256 b) internal pure returns (uint256) {... */\n    tag_307:\n        /* \"Token_ETH.sol\":1131:1138  uint256 */\n      0x00\n        /* \"Token_ETH.sol\":1150:1159  uint256 c */\n      dup1\n        /* \"Token_ETH.sol\":1166:1167  b */\n      dup3\n        /* \"Token_ETH.sol\":1162:1163  a */\n      dup5\n        /* \"Token_ETH.sol\":1162:1167  a + b */\n      tag_358\n      swap2\n      swap1\n      tag_272\n      jump\t// in\n    tag_358:\n        /* \"Token_ETH.sol\":1150:1167  uint256 c = a + b */\n      swap1\n      pop\n        /* \"Token_ETH.sol\":1190:1191  a */\n      dup4\n        /* \"Token_ETH.sol\":1185:1186  c */\n      dup2\n        /* \"Token_ETH.sol\":1185:1191  c >= a */\n      lt\n      iszero\n        /* \"Token_ETH.sol\":1177:1223  require(c >= a, \"SafeMath: addition overflow\") */\n      tag_359\n      jumpi\n      mload(0x40)\n      0x08c379a000000000000000000000000000000000000000000000000000000000\n      dup2\n      mstore\n      0x04\n      add\n      tag_360\n      swap1\n      tag_361\n      jump\t// in\n    tag_360:\n      mload(0x40)\n      dup1\n      swap2\n      sub\n      swap1\n      revert\n    tag_359:\n        /* \"Token_ETH.sol\":1240:1241  c */\n      dup1\n        /* \"Token_ETH.sol\":1233:1241  return c */\n      swap2\n      pop\n      pop\n        /* \"Token_ETH.sol\":1073:1248  function add(uint256 a, uint256 b) internal pure returns (uint256) {... */\n      swap3\n      swap2\n      pop\n      pop\n      jump\t// out\n        /* \"Token_ETH.sol\":1254:1388  function sub(uint256 a, uint256 b) internal pure returns (uint256) {... */\n    tag_310:\n        /* \"Token_ETH.sol\":1312:1319  uint256 */\n      0x00\n        /* \"Token_ETH.sol\":1338:1381  sub(a, b, \"SafeMath: subtraction overflow\") */\n      tag_363\n        /* \"Token_ETH.sol\":1342:1343  a */\n      dup4\n        /* \"Token_ETH.sol\":1345:1346  b */\n      dup4\n        /* \"Token_ETH.sol\":1338:1381  sub(a, b, \"SafeMath: subtraction overflow\") */\n      mload(0x40)\n      dup1\n      0x40\n      add\n      0x40\n      mstore\n      dup1\n      0x1e\n      dup2\n      mstore\n      0x20\n      add\n      0x536166654d6174683a207375627472616374696f6e206f766572666c6f770000\n      dup2\n      mstore\n      pop\n        /* \"Token_ETH.sol\":1338:1341  sub */\n      tag_147\n        /* \"Token_ETH.sol\":1338:1381  sub(a, b, \"SafeMath: subtraction overflow\") */\n      jump\t// in\n    tag_363:\n        /* \"Token_ETH.sol\":1331:1381  return sub(a, b, \"SafeMath: subtraction overflow\") */\n      swap1\n      pop\n        /* \"Token_ETH.sol\":1254:1388  function sub(uint256 a, uint256 b) internal pure returns (uint256) {... */\n      swap3\n      swap2\n      pop\n      pop\n      jump\t// out\n        /* \"Token_ETH.sol\":1997:2212  function div(... */\n    tag_353:\n        /* \"Token_ETH.sol\":2113:2120  uint256 */\n      0x00\n        /* \"Token_ETH.sol\":2144:2145  0 */\n      dup1\n        /* \"Token_ETH.sol\":2140:2141  b */\n      dup4\n        /* \"Token_ETH.sol\":2140:2145  b > 0 */\n      gt\n        /* \"Token_ETH.sol\":2147:2159  errorMessage */\n      dup3\n        /* \"Token_ETH.sol\":2132:2160  require(b > 0, errorMessage) */\n      swap1\n      tag_365\n      jumpi\n      mload(0x40)\n      0x08c379a000000000000000000000000000000000000000000000000000000000\n      dup2\n      mstore\n      0x04\n      add\n      tag_366\n      swap2\n      swap1\n      tag_34\n      jump\t// in\n    tag_366:\n      mload(0x40)\n      dup1\n      swap2\n      sub\n      swap1\n      revert\n    tag_365:\n      pop\n        /* \"Token_ETH.sol\":2170:2179  uint256 c */\n      0x00\n        /* \"Token_ETH.sol\":2186:2187  b */\n      dup4\n        /* \"Token_ETH.sol\":2182:2183  a */\n      dup6\n        /* \"Token_ETH.sol\":2182:2187  a / b */\n      tag_367\n      swap2\n      swap1\n      tag_347\n      jump\t// in\n    tag_367:\n        /* \"Token_ETH.sol\":2170:2187  uint256 c = a / b */\n      swap1\n      pop\n        /* \"Token_ETH.sol\":2204:2205  c */\n      dup1\n        /* \"Token_ETH.sol\":2197:2205  return c */\n      swap2\n      pop\n      pop\n        /* \"Token_ETH.sol\":1997:2212  function div(... */\n      swap4\n      swap3\n      pop\n      pop\n      pop\n      jump\t// out\n        /* \"#utility.yul\":7:106   */\n    tag_368:\n        /* \"#utility.yul\":59:65   */\n      0x00\n        /* \"#utility.yul\":93:98   */\n      dup2\n        /* \"#utility.yul\":87:99   */\n      mload\n        /* \"#utility.yul\":77:99   */\n      swap1\n      pop\n        /* \"#utility.yul\":7:106   */\n      swap2\n      swap1\n      pop\n      jump\t// out\n        /* \"#utility.yul\":112:281   */\n    tag_369:\n        /* \"#utility.yul\":196:207   */\n      0x00\n        /* \"#utility.yul\":230:236   */\n      dup3\n        /* \"#utility.yul\":225:228   */\n      dup3\n        /* \"#utility.yul\":218:237   */\n      mstore\n        /* \"#utility.yul\":270:274   */\n      0x20\n        /* \"#utility.yul\":265:268   */\n      dup3\n        /* \"#utility.yul\":261:275   */\n      add\n        /* \"#utility.yul\":246:275   */\n      swap1\n      pop\n        /* \"#utility.yul\":112:281   */\n      swap3\n      swap2\n      pop\n      pop\n      jump\t// out\n        /* \"#utility.yul\":287:533   */\n    tag_370:\n        /* \"#utility.yul\":368:369   */\n      0x00\n        /* \"#utility.yul\":378:491   */\n    tag_442:\n        /* \"#utility.yul\":392:398   */\n      dup4\n        /* \"#utility.yul\":389:390   */\n      dup2\n        /* \"#utility.yul\":386:399   */\n      lt\n        /* \"#utility.yul\":378:491   */\n      iszero\n      tag_444\n      jumpi\n        /* \"#utility.yul\":477:478   */\n      dup1\n        /* \"#utility.yul\":472:475   */\n      dup3\n        /* \"#utility.yul\":468:479   */\n      add\n        /* \"#utility.yul\":462:480   */\n      mload\n        /* \"#utility.yul\":458:459   */\n      dup2\n        /* \"#utility.yul\":453:456   */\n      dup5\n        /* \"#utility.yul\":449:460   */\n      add\n        /* \"#utility.yul\":442:481   */\n      mstore\n        /* \"#utility.yul\":414:416   */\n      0x20\n        /* \"#utility.yul\":411:412   */\n      dup2\n        /* \"#utility.yul\":407:417   */\n      add\n        /* \"#utility.yul\":402:417   */\n      swap1\n      pop\n        /* \"#utility.yul\":378:491   */\n      jump(tag_442)\n    tag_444:\n        /* \"#utility.yul\":525:526   */\n      0x00\n        /* \"#utility.yul\":516:522   */\n      dup5\n        /* \"#utility.yul\":511:514   */\n      dup5\n        /* \"#utility.yul\":507:523   */\n      add\n        /* \"#utility.yul\":500:527   */\n      mstore\n        /* \"#utility.yul\":349:533   */\n      pop\n        /* \"#utility.yul\":287:533   */\n      pop\n      pop\n      pop\n      jump\t// out\n        /* \"#utility.yul\":539:641   */\n    tag_371:\n        /* \"#utility.yul\":580:586   */\n      0x00\n        /* \"#utility.yul\":631:633   */\n      0x1f\n        /* \"#utility.yul\":627:634   */\n      not\n        /* \"#utility.yul\":622:624   */\n      0x1f\n        /* \"#utility.yul\":615:620   */\n      dup4\n        /* \"#utility.yul\":611:625   */\n      add\n        /* \"#utility.yul\":607:635   */\n      and\n        /* \"#utility.yul\":597:635   */\n      swap1\n      pop\n        /* \"#utility.yul\":539:641   */\n      swap2\n      swap1\n      pop\n      jump\t// out\n        /* \"#utility.yul\":647:1024   */\n    tag_372:\n        /* \"#utility.yul\":735:738   */\n      0x00\n        /* \"#utility.yul\":763:802   */\n      tag_447\n        /* \"#utility.yul\":796:801   */\n      dup3\n        /* \"#utility.yul\":763:802   */\n      tag_368\n      jump\t// in\n    tag_447:\n        /* \"#utility.yul\":818:889   */\n      tag_448\n        /* \"#utility.yul\":882:888   */\n      dup2\n        /* \"#utility.yul\":877:880   */\n      dup6\n        /* \"#utility.yul\":818:889   */\n      tag_369\n      jump\t// in\n    tag_448:\n        /* \"#utility.yul\":811:889   */\n      swap4\n      pop\n        /* \"#utility.yul\":898:963   */\n      tag_449\n        /* \"#utility.yul\":956:962   */\n      dup2\n        /* \"#utility.yul\":951:954   */\n      dup6\n        /* \"#utility.yul\":944:948   */\n      0x20\n        /* \"#utility.yul\":937:942   */\n      dup7\n        /* \"#utility.yul\":933:949   */\n      add\n        /* \"#utility.yul\":898:963   */\n      tag_370\n      jump\t// in\n    tag_449:\n        /* \"#utility.yul\":988:1017   */\n      tag_450\n        /* \"#utility.yul\":1010:1016   */\n      dup2\n        /* \"#utility.yul\":988:1017   */\n      tag_371\n      jump\t// in\n    tag_450:\n        /* \"#utility.yul\":983:986   */\n      dup5\n        /* \"#utility.yul\":979:1018   */\n      add\n        /* \"#utility.yul\":972:1018   */\n      swap2\n      pop\n        /* \"#utility.yul\":739:1024   */\n      pop\n        /* \"#utility.yul\":647:1024   */\n      swap3\n      swap2\n      pop\n      pop\n      jump\t// out\n        /* \"#utility.yul\":1030:1343   */\n    tag_34:\n        /* \"#utility.yul\":1143:1147   */\n      0x00\n        /* \"#utility.yul\":1181:1183   */\n      0x20\n        /* \"#utility.yul\":1170:1179   */\n      dup3\n        /* \"#utility.yul\":1166:1184   */\n      add\n        /* \"#utility.yul\":1158:1184   */\n      swap1\n      pop\n        /* \"#utility.yul\":1230:1239   */\n      dup2\n        /* \"#utility.yul\":1224:1228   */\n      dup2\n        /* \"#utility.yul\":1220:1240   */\n      sub\n        /* \"#utility.yul\":1216:1217   */\n      0x00\n        /* \"#utility.yul\":1205:1214   */\n      dup4\n        /* \"#utility.yul\":1201:1218   */\n      add\n        /* \"#utility.yul\":1194:1241   */\n      mstore\n        /* \"#utility.yul\":1258:1336   */\n      tag_452\n        /* \"#utility.yul\":1331:1335   */\n      dup2\n        /* \"#utility.yul\":1322:1328   */\n      dup5\n        /* \"#utility.yul\":1258:1336   */\n      tag_372\n      jump\t// in\n    tag_452:\n        /* \"#utility.yul\":1250:1336   */\n      swap1\n      pop\n        /* \"#utility.yul\":1030:1343   */\n      swap3\n      swap2\n      pop\n      pop\n      jump\t// out\n        /* \"#utility.yul\":1349:1424   */\n    tag_373:\n        /* \"#utility.yul\":1382:1388   */\n      0x00\n        /* \"#utility.yul\":1415:1417   */\n      0x40\n        /* \"#utility.yul\":1409:1418   */\n      mload\n        /* \"#utility.yul\":1399:1418   */\n      swap1\n      pop\n        /* \"#utility.yul\":1349:1424   */\n      swap1\n      jump\t// out\n        /* \"#utility.yul\":1430:1547   */\n    tag_374:\n        /* \"#utility.yul\":1539:1540   */\n      0x00\n        /* \"#utility.yul\":1536:1537   */\n      dup1\n        /* \"#utility.yul\":1529:1541   */\n      revert\n        /* \"#utility.yul\":1553:1670   */\n    tag_375:\n        /* \"#utility.yul\":1662:1663   */\n      0x00\n        /* \"#utility.yul\":1659:1660   */\n      dup1\n        /* \"#utility.yul\":1652:1664   */\n      revert\n        /* \"#utility.yul\":1676:1802   */\n    tag_376:\n        /* \"#utility.yul\":1713:1720   */\n      0x00\n        /* \"#utility.yul\":1753:1795   */\n      0xffffffffffffffffffffffffffffffffffffffff\n        /* \"#utility.yul\":1746:1751   */\n      dup3\n        /* \"#utility.yul\":1742:1796   */\n      and\n        /* \"#utility.yul\":1731:1796   */\n      swap1\n      pop\n        /* \"#utility.yul\":1676:1802   */\n      swap2\n      swap1\n      pop\n      jump\t// out\n        /* \"#utility.yul\":1808:1904   */\n    tag_377:\n        /* \"#utility.yul\":1845:1852   */\n      0x00\n        /* \"#utility.yul\":1874:1898   */\n      tag_458\n        /* \"#utility.yul\":1892:1897   */\n      dup3\n        /* \"#utility.yul\":1874:1898   */\n      tag_376\n      jump\t// in\n    tag_458:\n        /* \"#utility.yul\":1863:1898   */\n      swap1\n      pop\n        /* \"#utility.yul\":1808:1904   */\n      swap2\n      swap1\n      pop\n      jump\t// out\n        /* \"#utility.yul\":1910:2032   */\n    tag_378:\n        /* \"#utility.yul\":1983:2007   */\n      tag_460\n        /* \"#utility.yul\":2001:2006   */\n      dup2\n        /* \"#utility.yul\":1983:2007   */\n      tag_377\n      jump\t// in\n    tag_460:\n        /* \"#utility.yul\":1976:1981   */\n      dup2\n        /* \"#utility.yul\":1973:2008   */\n      eq\n        /* \"#utility.yul\":1963:2026   */\n      tag_461\n      jumpi\n        /* \"#utility.yul\":2022:2023   */\n      0x00\n        /* \"#utility.yul\":2019:2020   */\n      dup1\n        /* \"#utility.yul\":2012:2024   */\n      revert\n        /* \"#utility.yul\":1963:2026   */\n    tag_461:\n        /* \"#utility.yul\":1910:2032   */\n      pop\n      jump\t// out\n        /* \"#utility.yul\":2038:2177   */\n    tag_379:\n        /* \"#utility.yul\":2084:2089   */\n      0x00\n        /* \"#utility.yul\":2122:2128   */\n      dup2\n        /* \"#utility.yul\":2109:2129   */\n      calldataload\n        /* \"#utility.yul\":2100:2129   */\n      swap1\n      pop\n        /* \"#utility.yul\":2138:2171   */\n      tag_463\n        /* \"#utility.yul\":2165:2170   */\n      dup2\n        /* \"#utility.yul\":2138:2171   */\n      tag_378\n      jump\t// in\n    tag_463:\n        /* \"#utility.yul\":2038:2177   */\n      swap3\n      swap2\n      pop\n      pop\n      jump\t// out\n        /* \"#utility.yul\":2183:2260   */\n    tag_380:\n        /* \"#utility.yul\":2220:2227   */\n      0x00\n        /* \"#utility.yul\":2249:2254   */\n      dup2\n        /* \"#utility.yul\":2238:2254   */\n      swap1\n      pop\n        /* \"#utility.yul\":2183:2260   */\n      swap2\n      swap1\n      pop\n      jump\t// out\n        /* \"#utility.yul\":2266:2388   */\n    tag_381:\n        /* \"#utility.yul\":2339:2363   */\n      tag_466\n        /* \"#utility.yul\":2357:2362   */\n      dup2\n        /* \"#utility.yul\":2339:2363   */\n      tag_380\n      jump\t// in\n    tag_466:\n        /* \"#utility.yul\":2332:2337   */\n      dup2\n        /* \"#utility.yul\":2329:2364   */\n      eq\n        /* \"#utility.yul\":2319:2382   */\n      tag_467\n      jumpi\n        /* \"#utility.yul\":2378:2379   */\n      0x00\n        /* \"#utility.yul\":2375:2376   */\n      dup1\n        /* \"#utility.yul\":2368:2380   */\n      revert\n        /* \"#utility.yul\":2319:2382   */\n    tag_467:\n        /* \"#utility.yul\":2266:2388   */\n      pop\n      jump\t// out\n        /* \"#utility.yul\":2394:2533   */\n    tag_382:\n        /* \"#utility.yul\":2440:2445   */\n      0x00\n        /* \"#utility.yul\":2478:2484   */\n      dup2\n        /* \"#utility.yul\":2465:2485   */\n      calldataload\n        /* \"#utility.yul\":2456:2485   */\n      swap1\n      pop\n        /* \"#utility.yul\":2494:2527   */\n      tag_469\n        /* \"#utility.yul\":2521:2526   */\n      dup2\n        /* \"#utility.yul\":2494:2527   */\n      tag_381\n      jump\t// in\n    tag_469:\n        /* \"#utility.yul\":2394:2533   */\n      swap3\n      swap2\n      pop\n      pop\n      jump\t// out\n        /* \"#utility.yul\":2539:3013   */\n    tag_38:\n        /* \"#utility.yul\":2607:2613   */\n      0x00\n        /* \"#utility.yul\":2615:2621   */\n      dup1\n        /* \"#utility.yul\":2664:2666   */\n      0x40\n        /* \"#utility.yul\":2652:2661   */\n      dup4\n        /* \"#utility.yul\":2643:2650   */\n      dup6\n        /* \"#utility.yul\":2639:2662   */\n      sub\n        /* \"#utility.yul\":2635:2667   */\n      slt\n        /* \"#utility.yul\":2632:2751   */\n      iszero\n      tag_471\n      jumpi\n        /* \"#utility.yul\":2670:2749   */\n      tag_472\n      tag_374\n      jump\t// in\n    tag_472:\n        /* \"#utility.yul\":2632:2751   */\n    tag_471:\n        /* \"#utility.yul\":2790:2791   */\n      0x00\n        /* \"#utility.yul\":2815:2868   */\n      tag_473\n        /* \"#utility.yul\":2860:2867   */\n      dup6\n        /* \"#utility.yul\":2851:2857   */\n      dup3\n        /* \"#utility.yul\":2840:2849   */\n      dup7\n        /* \"#utility.yul\":2836:2858   */\n      add\n        /* \"#utility.yul\":2815:2868   */\n      tag_379\n      jump\t// in\n    tag_473:\n        /* \"#utility.yul\":2805:2868   */\n      swap3\n      pop\n        /* \"#utility.yul\":2761:2878   */\n      pop\n        /* \"#utility.yul\":2917:2919   */\n      0x20\n        /* \"#utility.yul\":2943:2996   */\n      tag_474\n        /* \"#utility.yul\":2988:2995   */\n      dup6\n        /* \"#utility.yul\":2979:2985   */\n      dup3\n        /* \"#utility.yul\":2968:2977   */\n      dup7\n        /* \"#utility.yul\":2964:2986   */\n      add\n        /* \"#utility.yul\":2943:2996   */\n      tag_382\n      jump\t// in\n    tag_474:\n        /* \"#utility.yul\":2933:2996   */\n      swap2\n      pop\n        /* \"#utility.yul\":2888:3006   */\n      pop\n        /* \"#utility.yul\":2539:3013   */\n      swap3\n      pop\n      swap3\n      swap1\n      pop\n      jump\t// out\n        /* \"#utility.yul\":3019:3109   */\n    tag_383:\n        /* \"#utility.yul\":3053:3060   */\n      0x00\n        /* \"#utility.yul\":3096:3101   */\n      dup2\n        /* \"#utility.yul\":3089:3102   */\n      iszero\n        /* \"#utility.yul\":3082:3103   */\n      iszero\n        /* \"#utility.yul\":3071:3103   */\n      swap1\n      pop\n        /* \"#utility.yul\":3019:3109   */\n      swap2\n      swap1\n      pop\n      jump\t// out\n        /* \"#utility.yul\":3115:3224   */\n    tag_384:\n        /* \"#utility.yul\":3196:3217   */\n      tag_477\n        /* \"#utility.yul\":3211:3216   */\n      dup2\n        /* \"#utility.yul\":3196:3217   */\n      tag_383\n      jump\t// in\n    tag_477:\n        /* \"#utility.yul\":3191:3194   */\n      dup3\n        /* \"#utility.yul\":3184:3218   */\n      mstore\n        /* \"#utility.yul\":3115:3224   */\n      pop\n      pop\n      jump\t// out\n        /* \"#utility.yul\":3230:3440   */\n    tag_41:\n        /* \"#utility.yul\":3317:3321   */\n      0x00\n        /* \"#utility.yul\":3355:3357   */\n      0x20\n        /* \"#utility.yul\":3344:3353   */\n      dup3\n        /* \"#utility.yul\":3340:3358   */\n      add\n        /* \"#utility.yul\":3332:3358   */\n      swap1\n      pop\n        /* \"#utility.yul\":3368:3433   */\n      tag_479\n        /* \"#utility.yul\":3430:3431   */\n      0x00\n        /* \"#utility.yul\":3419:3428   */\n      dup4\n        /* \"#utility.yul\":3415:3432   */\n      add\n        /* \"#utility.yul\":3406:3412   */\n      dup5\n        /* \"#utility.yul\":3368:3433   */\n      tag_384\n      jump\t// in\n    tag_479:\n        /* \"#utility.yul\":3230:3440   */\n      swap3\n      swap2\n      pop\n      pop\n      jump\t// out\n        /* \"#utility.yul\":3446:3564   */\n    tag_385:\n        /* \"#utility.yul\":3533:3557   */\n      tag_481\n        /* \"#utility.yul\":3551:3556   */\n      dup2\n        /* \"#utility.yul\":3533:3557   */\n      tag_380\n      jump\t// in\n    tag_481:\n        /* \"#utility.yul\":3528:3531   */\n      dup3\n        /* \"#utility.yul\":3521:3558   */\n      mstore\n        /* \"#utility.yul\":3446:3564   */\n      pop\n      pop\n      jump\t// out\n        /* \"#utility.yul\":3570:3792   */\n    tag_46:\n        /* \"#utility.yul\":3663:3667   */\n      0x00\n        /* \"#utility.yul\":3701:3703   */\n      0x20\n        /* \"#utility.yul\":3690:3699   */\n      dup3\n        /* \"#utility.yul\":3686:3704   */\n      add\n        /* \"#utility.yul\":3678:3704   */\n      swap1\n      pop\n        /* \"#utility.yul\":3714:3785   */\n      tag_483\n        /* \"#utility.yul\":3782:3783   */\n      0x00\n        /* \"#utility.yul\":3771:3780   */\n      dup4\n        /* \"#utility.yul\":3767:3784   */\n      add\n        /* \"#utility.yul\":3758:3764   */\n      dup5\n        /* \"#utility.yul\":3714:3785   */\n      tag_385\n      jump\t// in\n    tag_483:\n        /* \"#utility.yul\":3570:3792   */\n      swap3\n      swap2\n      pop\n      pop\n      jump\t// out\n        /* \"#utility.yul\":3798:4417   */\n    tag_54:\n        /* \"#utility.yul\":3875:3881   */\n      0x00\n        /* \"#utility.yul\":3883:3889   */\n      dup1\n        /* \"#utility.yul\":3891:3897   */\n      0x00\n        /* \"#utility.yul\":3940:3942   */\n      0x60\n        /* \"#utility.yul\":3928:3937   */\n      dup5\n        /* \"#utility.yul\":3919:3926   */\n      dup7\n        /* \"#utility.yul\":3915:3938   */\n      sub\n        /* \"#utility.yul\":3911:3943   */\n      slt\n        /* \"#utility.yul\":3908:4027   */\n      iszero\n      tag_485\n      jumpi\n        /* \"#utility.yul\":3946:4025   */\n      tag_486\n      tag_374\n      jump\t// in\n    tag_486:\n        /* \"#utility.yul\":3908:4027   */\n    tag_485:\n        /* \"#utility.yul\":4066:4067   */\n      0x00\n        /* \"#utility.yul\":4091:4144   */\n      tag_487\n        /* \"#utility.yul\":4136:4143   */\n      dup7\n        /* \"#utility.yul\":4127:4133   */\n      dup3\n        /* \"#utility.yul\":4116:4125   */\n      dup8\n        /* \"#utility.yul\":4112:4134   */\n      add\n        /* \"#utility.yul\":4091:4144   */\n      tag_379\n      jump\t// in\n    tag_487:\n        /* \"#utility.yul\":4081:4144   */\n      swap4\n      pop\n        /* \"#utility.yul\":4037:4154   */\n      pop\n        /* \"#utility.yul\":4193:4195   */\n      0x20\n        /* \"#utility.yul\":4219:4272   */\n      tag_488\n        /* \"#utility.yul\":4264:4271   */\n      dup7\n        /* \"#utility.yul\":4255:4261   */\n      dup3\n        /* \"#utility.yul\":4244:4253   */\n      dup8\n        /* \"#utility.yul\":4240:4262   */\n      add\n        /* \"#utility.yul\":4219:4272   */\n      tag_379\n      jump\t// in\n    tag_488:\n        /* \"#utility.yul\":4209:4272   */\n      swap3\n      pop\n        /* \"#utility.yul\":4164:4282   */\n      pop\n        /* \"#utility.yul\":4321:4323   */\n      0x40\n        /* \"#utility.yul\":4347:4400   */\n      tag_489\n        /* \"#utility.yul\":4392:4399   */\n      dup7\n        /* \"#utility.yul\":4383:4389   */\n      dup3\n        /* \"#utility.yul\":4372:4381   */\n      dup8\n        /* \"#utility.yul\":4368:4390   */\n      add\n        /* \"#utility.yul\":4347:4400   */\n      tag_382\n      jump\t// in\n    tag_489:\n        /* \"#utility.yul\":4337:4400   */\n      swap2\n      pop\n        /* \"#utility.yul\":4292:4410   */\n      pop\n        /* \"#utility.yul\":3798:4417   */\n      swap3\n      pop\n      swap3\n      pop\n      swap3\n      jump\t// out\n        /* \"#utility.yul\":4423:4509   */\n    tag_386:\n        /* \"#utility.yul\":4458:4465   */\n      0x00\n        /* \"#utility.yul\":4498:4502   */\n      0xff\n        /* \"#utility.yul\":4491:4496   */\n      dup3\n        /* \"#utility.yul\":4487:4503   */\n      and\n        /* \"#utility.yul\":4476:4503   */\n      swap1\n      pop\n        /* \"#utility.yul\":4423:4509   */\n      swap2\n      swap1\n      pop\n      jump\t// out\n        /* \"#utility.yul\":4515:4627   */\n    tag_387:\n        /* \"#utility.yul\":4598:4620   */\n      tag_492\n        /* \"#utility.yul\":4614:4619   */\n      dup2\n        /* \"#utility.yul\":4598:4620   */\n      tag_386\n      jump\t// in\n    tag_492:\n        /* \"#utility.yul\":4593:4596   */\n      dup3\n        /* \"#utility.yul\":4586:4621   */\n      mstore\n        /* \"#utility.yul\":4515:4627   */\n      pop\n      pop\n      jump\t// out\n        /* \"#utility.yul\":4633:4847   */\n    tag_61:\n        /* \"#utility.yul\":4722:4726   */\n      0x00\n        /* \"#utility.yul\":4760:4762   */\n      0x20\n        /* \"#utility.yul\":4749:4758   */\n      dup3\n        /* \"#utility.yul\":4745:4763   */\n      add\n        /* \"#utility.yul\":4737:4763   */\n      swap1\n      pop\n        /* \"#utility.yul\":4773:4840   */\n      tag_494\n        /* \"#utility.yul\":4837:4838   */\n      0x00\n        /* \"#utility.yul\":4826:4835   */\n      dup4\n        /* \"#utility.yul\":4822:4839   */\n      add\n        /* \"#utility.yul\":4813:4819   */\n      dup5\n        /* \"#utility.yul\":4773:4840   */\n      tag_387\n      jump\t// in\n    tag_494:\n        /* \"#utility.yul\":4633:4847   */\n      swap3\n      swap2\n      pop\n      pop\n      jump\t// out\n        /* \"#utility.yul\":4853:5182   */\n    tag_68:\n        /* \"#utility.yul\":4912:4918   */\n      0x00\n        /* \"#utility.yul\":4961:4963   */\n      0x20\n        /* \"#utility.yul\":4949:4958   */\n      dup3\n        /* \"#utility.yul\":4940:4947   */\n      dup5\n        /* \"#utility.yul\":4936:4959   */\n      sub\n        /* \"#utility.yul\":4932:4964   */\n      slt\n        /* \"#utility.yul\":4929:5048   */\n      iszero\n      tag_496\n      jumpi\n        /* \"#utility.yul\":4967:5046   */\n      tag_497\n      tag_374\n      jump\t// in\n    tag_497:\n        /* \"#utility.yul\":4929:5048   */\n    tag_496:\n        /* \"#utility.yul\":5087:5088   */\n      0x00\n        /* \"#utility.yul\":5112:5165   */\n      tag_498\n        /* \"#utility.yul\":5157:5164   */\n      dup5\n        /* \"#utility.yul\":5148:5154   */\n      dup3\n        /* \"#utility.yul\":5137:5146   */\n      dup6\n        /* \"#utility.yul\":5133:5155   */\n      add\n        /* \"#utility.yul\":5112:5165   */\n      tag_379\n      jump\t// in\n    tag_498:\n        /* \"#utility.yul\":5102:5165   */\n      swap2\n      pop\n        /* \"#utility.yul\":5058:5175   */\n      pop\n        /* \"#utility.yul\":4853:5182   */\n      swap3\n      swap2\n      pop\n      pop\n      jump\t// out\n        /* \"#utility.yul\":5188:5305   */\n    tag_388:\n        /* \"#utility.yul\":5297:5298   */\n      0x00\n        /* \"#utility.yul\":5294:5295   */\n      dup1\n        /* \"#utility.yul\":5287:5299   */\n      revert\n        /* \"#utility.yul\":5311:5491   */\n    tag_324:\n        /* \"#utility.yul\":5359:5436   */\n      0x4e487b7100000000000000000000000000000000000000000000000000000000\n        /* \"#utility.yul\":5356:5357   */\n      0x00\n        /* \"#utility.yul\":5349:5437   */\n      mstore\n        /* \"#utility.yul\":5456:5460   */\n      0x41\n        /* \"#utility.yul\":5453:5454   */\n      0x04\n        /* \"#utility.yul\":5446:5461   */\n      mstore\n        /* \"#utility.yul\":5480:5484   */\n      0x24\n        /* \"#utility.yul\":5477:5478   */\n      0x00\n        /* \"#utility.yul\":5470:5485   */\n      revert\n        /* \"#utility.yul\":5497:5778   */\n    tag_389:\n        /* \"#utility.yul\":5580:5607   */\n      tag_502\n        /* \"#utility.yul\":5602:5606   */\n      dup3\n        /* \"#utility.yul\":5580:5607   */\n      tag_371\n      jump\t// in\n    tag_502:\n        /* \"#utility.yul\":5572:5578   */\n      dup2\n        /* \"#utility.yul\":5568:5608   */\n      add\n        /* \"#utility.yul\":5710:5716   */\n      dup2\n        /* \"#utility.yul\":5698:5708   */\n      dup2\n        /* \"#utility.yul\":5695:5717   */\n      lt\n        /* \"#utility.yul\":5674:5692   */\n      0xffffffffffffffff\n        /* \"#utility.yul\":5662:5672   */\n      dup3\n        /* \"#utility.yul\":5659:5693   */\n      gt\n        /* \"#utility.yul\":5656:5718   */\n      or\n        /* \"#utility.yul\":5653:5741   */\n      iszero\n      tag_503\n      jumpi\n        /* \"#utility.yul\":5721:5739   */\n      tag_504\n      tag_324\n      jump\t// in\n    tag_504:\n        /* \"#utility.yul\":5653:5741   */\n    tag_503:\n        /* \"#utility.yul\":5761:5771   */\n      dup1\n        /* \"#utility.yul\":5757:5759   */\n      0x40\n        /* \"#utility.yul\":5750:5772   */\n      mstore\n        /* \"#utility.yul\":5540:5778   */\n      pop\n        /* \"#utility.yul\":5497:5778   */\n      pop\n      pop\n      jump\t// out\n        /* \"#utility.yul\":5784:5913   */\n    tag_390:\n        /* \"#utility.yul\":5818:5824   */\n      0x00\n        /* \"#utility.yul\":5845:5865   */\n      tag_506\n      tag_373\n      jump\t// in\n    tag_506:\n        /* \"#utility.yul\":5835:5865   */\n      swap1\n      pop\n        /* \"#utility.yul\":5874:5907   */\n      tag_507\n        /* \"#utility.yul\":5902:5906   */\n      dup3\n        /* \"#utility.yul\":5894:5900   */\n      dup3\n        /* \"#utility.yul\":5874:5907   */\n      tag_389\n      jump\t// in\n    tag_507:\n        /* \"#utility.yul\":5784:5913   */\n      swap2\n      swap1\n      pop\n      jump\t// out\n        /* \"#utility.yul\":5919:6230   */\n    tag_391:\n        /* \"#utility.yul\":5996:6000   */\n      0x00\n        /* \"#utility.yul\":6086:6104   */\n      0xffffffffffffffff\n        /* \"#utility.yul\":6078:6084   */\n      dup3\n        /* \"#utility.yul\":6075:6105   */\n      gt\n        /* \"#utility.yul\":6072:6128   */\n      iszero\n      tag_509\n      jumpi\n        /* \"#utility.yul\":6108:6126   */\n      tag_510\n      tag_324\n      jump\t// in\n    tag_510:\n        /* \"#utility.yul\":6072:6128   */\n    tag_509:\n        /* \"#utility.yul\":6158:6162   */\n      0x20\n        /* \"#utility.yul\":6150:6156   */\n      dup3\n        /* \"#utility.yul\":6146:6163   */\n      mul\n        /* \"#utility.yul\":6138:6163   */\n      swap1\n      pop\n        /* \"#utility.yul\":6218:6222   */\n      0x20\n        /* \"#utility.yul\":6212:6216   */\n      dup2\n        /* \"#utility.yul\":6208:6223   */\n      add\n        /* \"#utility.yul\":6200:6223   */\n      swap1\n      pop\n        /* \"#utility.yul\":5919:6230   */\n      swap2\n      swap1\n      pop\n      jump\t// out\n        /* \"#utility.yul\":6236:6353   */\n    tag_392:\n        /* \"#utility.yul\":6345:6346   */\n      0x00\n        /* \"#utility.yul\":6342:6343   */\n      dup1\n        /* \"#utility.yul\":6335:6347   */\n      revert\n        /* \"#utility.yul\":6376:7086   */\n    tag_393:\n        /* \"#utility.yul\":6472:6477   */\n      0x00\n        /* \"#utility.yul\":6497:6578   */\n      tag_513\n        /* \"#utility.yul\":6513:6577   */\n      tag_514\n        /* \"#utility.yul\":6570:6576   */\n      dup5\n        /* \"#utility.yul\":6513:6577   */\n      tag_391\n      jump\t// in\n    tag_514:\n        /* \"#utility.yul\":6497:6578   */\n      tag_390\n      jump\t// in\n    tag_513:\n        /* \"#utility.yul\":6488:6578   */\n      swap1\n      pop\n        /* \"#utility.yul\":6598:6603   */\n      dup1\n        /* \"#utility.yul\":6627:6633   */\n      dup4\n        /* \"#utility.yul\":6620:6625   */\n      dup3\n        /* \"#utility.yul\":6613:6634   */\n      mstore\n        /* \"#utility.yul\":6661:6665   */\n      0x20\n        /* \"#utility.yul\":6654:6659   */\n      dup3\n        /* \"#utility.yul\":6650:6666   */\n      add\n        /* \"#utility.yul\":6643:6666   */\n      swap1\n      pop\n        /* \"#utility.yul\":6714:6718   */\n      0x20\n        /* \"#utility.yul\":6706:6712   */\n      dup5\n        /* \"#utility.yul\":6702:6719   */\n      mul\n        /* \"#utility.yul\":6694:6700   */\n      dup4\n        /* \"#utility.yul\":6690:6720   */\n      add\n        /* \"#utility.yul\":6743:6746   */\n      dup6\n        /* \"#utility.yul\":6735:6741   */\n      dup2\n        /* \"#utility.yul\":6732:6747   */\n      gt\n        /* \"#utility.yul\":6729:6851   */\n      iszero\n      tag_515\n      jumpi\n        /* \"#utility.yul\":6762:6841   */\n      tag_516\n      tag_392\n      jump\t// in\n    tag_516:\n        /* \"#utility.yul\":6729:6851   */\n    tag_515:\n        /* \"#utility.yul\":6877:6883   */\n      dup4\n        /* \"#utility.yul\":6860:7080   */\n    tag_517:\n        /* \"#utility.yul\":6894:6900   */\n      dup2\n        /* \"#utility.yul\":6889:6892   */\n      dup2\n        /* \"#utility.yul\":6886:6901   */\n      lt\n        /* \"#utility.yul\":6860:7080   */\n      iszero\n      tag_519\n      jumpi\n        /* \"#utility.yul\":6969:6972   */\n      dup1\n        /* \"#utility.yul\":6998:7035   */\n      tag_520\n        /* \"#utility.yul\":7031:7034   */\n      dup9\n        /* \"#utility.yul\":7019:7029   */\n      dup3\n        /* \"#utility.yul\":6998:7035   */\n      tag_379\n      jump\t// in\n    tag_520:\n        /* \"#utility.yul\":6993:6996   */\n      dup5\n        /* \"#utility.yul\":6986:7036   */\n      mstore\n        /* \"#utility.yul\":7065:7069   */\n      0x20\n        /* \"#utility.yul\":7060:7063   */\n      dup5\n        /* \"#utility.yul\":7056:7070   */\n      add\n        /* \"#utility.yul\":7049:7070   */\n      swap4\n      pop\n        /* \"#utility.yul\":6936:7080   */\n      pop\n        /* \"#utility.yul\":6920:6924   */\n      0x20\n        /* \"#utility.yul\":6915:6918   */\n      dup2\n        /* \"#utility.yul\":6911:6925   */\n      add\n        /* \"#utility.yul\":6904:6925   */\n      swap1\n      pop\n        /* \"#utility.yul\":6860:7080   */\n      jump(tag_517)\n    tag_519:\n        /* \"#utility.yul\":6864:6885   */\n      pop\n        /* \"#utility.yul\":6478:7086   */\n      pop\n      pop\n        /* \"#utility.yul\":6376:7086   */\n      swap4\n      swap3\n      pop\n      pop\n      pop\n      jump\t// out\n        /* \"#utility.yul\":7109:7479   */\n    tag_394:\n        /* \"#utility.yul\":7180:7185   */\n      0x00\n        /* \"#utility.yul\":7229:7232   */\n      dup3\n        /* \"#utility.yul\":7222:7226   */\n      0x1f\n        /* \"#utility.yul\":7214:7220   */\n      dup4\n        /* \"#utility.yul\":7210:7227   */\n      add\n        /* \"#utility.yul\":7206:7233   */\n      slt\n        /* \"#utility.yul\":7196:7318   */\n      tag_522\n      jumpi\n        /* \"#utility.yul\":7237:7316   */\n      tag_523\n      tag_388\n      jump\t// in\n    tag_523:\n        /* \"#utility.yul\":7196:7318   */\n    tag_522:\n        /* \"#utility.yul\":7354:7360   */\n      dup2\n        /* \"#utility.yul\":7341:7361   */\n      calldataload\n        /* \"#utility.yul\":7379:7473   */\n      tag_524\n        /* \"#utility.yul\":7469:7472   */\n      dup5\n        /* \"#utility.yul\":7461:7467   */\n      dup3\n        /* \"#utility.yul\":7454:7458   */\n      0x20\n        /* \"#utility.yul\":7446:7452   */\n      dup7\n        /* \"#utility.yul\":7442:7459   */\n      add\n        /* \"#utility.yul\":7379:7473   */\n      tag_393\n      jump\t// in\n    tag_524:\n        /* \"#utility.yul\":7370:7473   */\n      swap2\n      pop\n        /* \"#utility.yul\":7186:7479   */\n      pop\n        /* \"#utility.yul\":7109:7479   */\n      swap3\n      swap2\n      pop\n      pop\n      jump\t// out\n        /* \"#utility.yul\":7485:8024   */\n    tag_89:\n        /* \"#utility.yul\":7569:7575   */\n      0x00\n        /* \"#utility.yul\":7618:7620   */\n      0x20\n        /* \"#utility.yul\":7606:7615   */\n      dup3\n        /* \"#utility.yul\":7597:7604   */\n      dup5\n        /* \"#utility.yul\":7593:7616   */\n      sub\n        /* \"#utility.yul\":7589:7621   */\n      slt\n        /* \"#utility.yul\":7586:7705   */\n      iszero\n      tag_526\n      jumpi\n        /* \"#utility.yul\":7624:7703   */\n      tag_527\n      tag_374\n      jump\t// in\n    tag_527:\n        /* \"#utility.yul\":7586:7705   */\n    tag_526:\n        /* \"#utility.yul\":7772:7773   */\n      0x00\n        /* \"#utility.yul\":7761:7770   */\n      dup3\n        /* \"#utility.yul\":7757:7774   */\n      add\n        /* \"#utility.yul\":7744:7775   */\n      calldataload\n        /* \"#utility.yul\":7802:7820   */\n      0xffffffffffffffff\n        /* \"#utility.yul\":7794:7800   */\n      dup2\n        /* \"#utility.yul\":7791:7821   */\n      gt\n        /* \"#utility.yul\":7788:7905   */\n      iszero\n      tag_528\n      jumpi\n        /* \"#utility.yul\":7824:7903   */\n      tag_529\n      tag_375\n      jump\t// in\n    tag_529:\n        /* \"#utility.yul\":7788:7905   */\n    tag_528:\n        /* \"#utility.yul\":7929:8007   */\n      tag_530\n        /* \"#utility.yul\":7999:8006   */\n      dup5\n        /* \"#utility.yul\":7990:7996   */\n      dup3\n        /* \"#utility.yul\":7979:7988   */\n      dup6\n        /* \"#utility.yul\":7975:7997   */\n      add\n        /* \"#utility.yul\":7929:8007   */\n      tag_394\n      jump\t// in\n    tag_530:\n        /* \"#utility.yul\":7919:8007   */\n      swap2\n      pop\n        /* \"#utility.yul\":7715:8017   */\n      pop\n        /* \"#utility.yul\":7485:8024   */\n      swap3\n      swap2\n      pop\n      pop\n      jump\t// out\n        /* \"#utility.yul\":8030:8148   */\n    tag_395:\n        /* \"#utility.yul\":8117:8141   */\n      tag_532\n        /* \"#utility.yul\":8135:8140   */\n      dup2\n        /* \"#utility.yul\":8117:8141   */\n      tag_377\n      jump\t// in\n    tag_532:\n        /* \"#utility.yul\":8112:8115   */\n      dup3\n        /* \"#utility.yul\":8105:8142   */\n      mstore\n        /* \"#utility.yul\":8030:8148   */\n      pop\n      pop\n      jump\t// out\n        /* \"#utility.yul\":8154:8376   */\n    tag_95:\n        /* \"#utility.yul\":8247:8251   */\n      0x00\n        /* \"#utility.yul\":8285:8287   */\n      0x20\n        /* \"#utility.yul\":8274:8283   */\n      dup3\n        /* \"#utility.yul\":8270:8288   */\n      add\n        /* \"#utility.yul\":8262:8288   */\n      swap1\n      pop\n        /* \"#utility.yul\":8298:8369   */\n      tag_534\n        /* \"#utility.yul\":8366:8367   */\n      0x00\n        /* \"#utility.yul\":8355:8364   */\n      dup4\n        /* \"#utility.yul\":8351:8368   */\n      add\n        /* \"#utility.yul\":8342:8348   */\n      dup5\n        /* \"#utility.yul\":8298:8369   */\n      tag_395\n      jump\t// in\n    tag_534:\n        /* \"#utility.yul\":8154:8376   */\n      swap3\n      swap2\n      pop\n      pop\n      jump\t// out\n        /* \"#utility.yul\":8382:8856   */\n    tag_123:\n        /* \"#utility.yul\":8450:8456   */\n      0x00\n        /* \"#utility.yul\":8458:8464   */\n      dup1\n        /* \"#utility.yul\":8507:8509   */\n      0x40\n        /* \"#utility.yul\":8495:8504   */\n      dup4\n        /* \"#utility.yul\":8486:8493   */\n      dup6\n        /* \"#utility.yul\":8482:8505   */\n      sub\n        /* \"#utility.yul\":8478:8510   */\n      slt\n        /* \"#utility.yul\":8475:8594   */\n      iszero\n      tag_536\n      jumpi\n        /* \"#utility.yul\":8513:8592   */\n      tag_537\n      tag_374\n      jump\t// in\n    tag_537:\n        /* \"#utility.yul\":8475:8594   */\n    tag_536:\n        /* \"#utility.yul\":8633:8634   */\n      0x00\n        /* \"#utility.yul\":8658:8711   */\n      tag_538\n        /* \"#utility.yul\":8703:8710   */\n      dup6\n        /* \"#utility.yul\":8694:8700   */\n      dup3\n        /* \"#utility.yul\":8683:8692   */\n      dup7\n        /* \"#utility.yul\":8679:8701   */\n      add\n        /* \"#utility.yul\":8658:8711   */\n      tag_379\n      jump\t// in\n    tag_538:\n        /* \"#utility.yul\":8648:8711   */\n      swap3\n      pop\n        /* \"#utility.yul\":8604:8721   */\n      pop\n        /* \"#utility.yul\":8760:8762   */\n      0x20\n        /* \"#utility.yul\":8786:8839   */\n      tag_539\n        /* \"#utility.yul\":8831:8838   */\n      dup6\n        /* \"#utility.yul\":8822:8828   */\n      dup3\n        /* \"#utility.yul\":8811:8820   */\n      dup7\n        /* \"#utility.yul\":8807:8829   */\n      add\n        /* \"#utility.yul\":8786:8839   */\n      tag_379\n      jump\t// in\n    tag_539:\n        /* \"#utility.yul\":8776:8839   */\n      swap2\n      pop\n        /* \"#utility.yul\":8731:8849   */\n      pop\n        /* \"#utility.yul\":8382:8856   */\n      swap3\n      pop\n      swap3\n      swap1\n      pop\n      jump\t// out\n        /* \"#utility.yul\":8862:9042   */\n    tag_396:\n        /* \"#utility.yul\":8910:8987   */\n      0x4e487b7100000000000000000000000000000000000000000000000000000000\n        /* \"#utility.yul\":8907:8908   */\n      0x00\n        /* \"#utility.yul\":8900:8988   */\n      mstore\n        /* \"#utility.yul\":9007:9011   */\n      0x11\n        /* \"#utility.yul\":9004:9005   */\n      0x04\n        /* \"#utility.yul\":8997:9012   */\n      mstore\n        /* \"#utility.yul\":9031:9035   */\n      0x24\n        /* \"#utility.yul\":9028:9029   */\n      0x00\n        /* \"#utility.yul\":9021:9036   */\n      revert\n        /* \"#utility.yul\":9048:9150   */\n    tag_397:\n        /* \"#utility.yul\":9090:9098   */\n      0x00\n        /* \"#utility.yul\":9137:9142   */\n      dup2\n        /* \"#utility.yul\":9134:9135   */\n      0x01\n        /* \"#utility.yul\":9130:9143   */\n      shr\n        /* \"#utility.yul\":9109:9143   */\n      swap1\n      pop\n        /* \"#utility.yul\":9048:9150   */\n      swap2\n      swap1\n      pop\n      jump\t// out\n        /* \"#utility.yul\":9156:10004   */\n    tag_398:\n        /* \"#utility.yul\":9217:9222   */\n      0x00\n        /* \"#utility.yul\":9224:9228   */\n      dup1\n        /* \"#utility.yul\":9248:9254   */\n      dup3\n        /* \"#utility.yul\":9239:9254   */\n      swap2\n      pop\n        /* \"#utility.yul\":9272:9277   */\n      dup4\n        /* \"#utility.yul\":9263:9277   */\n      swap1\n      pop\n        /* \"#utility.yul\":9286:9998   */\n    tag_543:\n        /* \"#utility.yul\":9307:9308   */\n      0x01\n        /* \"#utility.yul\":9297:9305   */\n      dup6\n        /* \"#utility.yul\":9294:9309   */\n      gt\n        /* \"#utility.yul\":9286:9998   */\n      iszero\n      tag_545\n      jumpi\n        /* \"#utility.yul\":9402:9406   */\n      dup1\n        /* \"#utility.yul\":9397:9400   */\n      dup7\n        /* \"#utility.yul\":9393:9407   */\n      div\n        /* \"#utility.yul\":9387:9391   */\n      dup2\n        /* \"#utility.yul\":9384:9408   */\n      gt\n        /* \"#utility.yul\":9381:9431   */\n      iszero\n      tag_546\n      jumpi\n        /* \"#utility.yul\":9411:9429   */\n      tag_547\n      tag_396\n      jump\t// in\n    tag_547:\n        /* \"#utility.yul\":9381:9431   */\n    tag_546:\n        /* \"#utility.yul\":9461:9462   */\n      0x01\n        /* \"#utility.yul\":9451:9459   */\n      dup6\n        /* \"#utility.yul\":9447:9463   */\n      and\n        /* \"#utility.yul\":9444:9895   */\n      iszero\n      tag_548\n      jumpi\n        /* \"#utility.yul\":9876:9880   */\n      dup1\n        /* \"#utility.yul\":9869:9874   */\n      dup3\n        /* \"#utility.yul\":9865:9881   */\n      mul\n        /* \"#utility.yul\":9856:9881   */\n      swap2\n      pop\n        /* \"#utility.yul\":9444:9895   */\n    tag_548:\n        /* \"#utility.yul\":9926:9930   */\n      dup1\n        /* \"#utility.yul\":9920:9924   */\n      dup2\n        /* \"#utility.yul\":9916:9931   */\n      mul\n        /* \"#utility.yul\":9908:9931   */\n      swap1\n      pop\n        /* \"#utility.yul\":9956:9988   */\n      tag_549\n        /* \"#utility.yul\":9979:9987   */\n      dup6\n        /* \"#utility.yul\":9956:9988   */\n      tag_397\n      jump\t// in\n    tag_549:\n        /* \"#utility.yul\":9944:9988   */\n      swap5\n      pop\n        /* \"#utility.yul\":9286:9998   */\n      jump(tag_543)\n    tag_545:\n        /* \"#utility.yul\":9156:10004   */\n      swap5\n      pop\n      swap5\n      swap3\n      pop\n      pop\n      pop\n      jump\t// out\n        /* \"#utility.yul\":10010:11083   */\n    tag_399:\n        /* \"#utility.yul\":10064:10069   */\n      0x00\n        /* \"#utility.yul\":10255:10263   */\n      dup3\n        /* \"#utility.yul\":10245:10285   */\n      tag_551\n      jumpi\n        /* \"#utility.yul\":10276:10277   */\n      0x01\n        /* \"#utility.yul\":10267:10277   */\n      swap1\n      pop\n        /* \"#utility.yul\":10278:10283   */\n      jump(tag_550)\n        /* \"#utility.yul\":10245:10285   */\n    tag_551:\n        /* \"#utility.yul\":10304:10308   */\n      dup2\n        /* \"#utility.yul\":10294:10330   */\n      tag_552\n      jumpi\n        /* \"#utility.yul\":10321:10322   */\n      0x00\n        /* \"#utility.yul\":10312:10322   */\n      swap1\n      pop\n        /* \"#utility.yul\":10323:10328   */\n      jump(tag_550)\n        /* \"#utility.yul\":10294:10330   */\n    tag_552:\n        /* \"#utility.yul\":10390:10394   */\n      dup2\n        /* \"#utility.yul\":10438:10439   */\n      0x01\n        /* \"#utility.yul\":10433:10460   */\n      dup2\n      eq\n      tag_554\n      jumpi\n        /* \"#utility.yul\":10474:10475   */\n      0x02\n        /* \"#utility.yul\":10469:10660   */\n      dup2\n      eq\n      tag_555\n      jumpi\n        /* \"#utility.yul\":10383:10660   */\n      jump(tag_553)\n        /* \"#utility.yul\":10433:10460   */\n    tag_554:\n        /* \"#utility.yul\":10451:10452   */\n      0x01\n        /* \"#utility.yul\":10442:10452   */\n      swap2\n      pop\n        /* \"#utility.yul\":10453:10458   */\n      pop\n      jump(tag_550)\n        /* \"#utility.yul\":10469:10660   */\n    tag_555:\n        /* \"#utility.yul\":10514:10517   */\n      0xff\n        /* \"#utility.yul\":10504:10512   */\n      dup5\n        /* \"#utility.yul\":10501:10518   */\n      gt\n        /* \"#utility.yul\":10498:10541   */\n      iszero\n      tag_556\n      jumpi\n        /* \"#utility.yul\":10521:10539   */\n      tag_557\n      tag_396\n      jump\t// in\n    tag_557:\n        /* \"#utility.yul\":10498:10541   */\n    tag_556:\n        /* \"#utility.yul\":10570:10578   */\n      dup4\n        /* \"#utility.yul\":10567:10568   */\n      0x02\n        /* \"#utility.yul\":10563:10579   */\n      exp\n        /* \"#utility.yul\":10554:10579   */\n      swap2\n      pop\n        /* \"#utility.yul\":10605:10608   */\n      dup5\n        /* \"#utility.yul\":10598:10603   */\n      dup3\n        /* \"#utility.yul\":10595:10609   */\n      gt\n        /* \"#utility.yul\":10592:10632   */\n      iszero\n      tag_558\n      jumpi\n        /* \"#utility.yul\":10612:10630   */\n      tag_559\n      tag_396\n      jump\t// in\n    tag_559:\n        /* \"#utility.yul\":10592:10632   */\n    tag_558:\n        /* \"#utility.yul\":10645:10650   */\n      pop\n      jump(tag_550)\n        /* \"#utility.yul\":10383:10660   */\n    tag_553:\n      pop\n        /* \"#utility.yul\":10769:10771   */\n      0x20\n        /* \"#utility.yul\":10759:10767   */\n      dup4\n        /* \"#utility.yul\":10756:10772   */\n      lt\n        /* \"#utility.yul\":10750:10753   */\n      0x0133\n        /* \"#utility.yul\":10744:10748   */\n      dup4\n        /* \"#utility.yul\":10741:10754   */\n      lt\n        /* \"#utility.yul\":10737:10773   */\n      and\n        /* \"#utility.yul\":10719:10721   */\n      0x4e\n        /* \"#utility.yul\":10709:10717   */\n      dup5\n        /* \"#utility.yul\":10706:10722   */\n      lt\n        /* \"#utility.yul\":10701:10703   */\n      0x0b\n        /* \"#utility.yul\":10695:10699   */\n      dup5\n        /* \"#utility.yul\":10692:10704   */\n      lt\n        /* \"#utility.yul\":10688:10723   */\n      and\n        /* \"#utility.yul\":10672:10783   */\n      or\n        /* \"#utility.yul\":10669:10915   */\n      iszero\n      tag_560\n      jumpi\n        /* \"#utility.yul\":10825:10833   */\n      dup3\n        /* \"#utility.yul\":10819:10823   */\n      dup3\n        /* \"#utility.yul\":10815:10834   */\n      exp\n        /* \"#utility.yul\":10806:10834   */\n      swap1\n      pop\n        /* \"#utility.yul\":10860:10863   */\n      dup4\n        /* \"#utility.yul\":10853:10858   */\n      dup2\n        /* \"#utility.yul\":10850:10864   */\n      gt\n        /* \"#utility.yul\":10847:10887   */\n      iszero\n      tag_561\n      jumpi\n        /* \"#utility.yul\":10867:10885   */\n      tag_562\n      tag_396\n      jump\t// in\n    tag_562:\n        /* \"#utility.yul\":10847:10887   */\n    tag_561:\n        /* \"#utility.yul\":10900:10905   */\n      jump(tag_550)\n        /* \"#utility.yul\":10669:10915   */\n    tag_560:\n        /* \"#utility.yul\":10940:10982   */\n      tag_563\n        /* \"#utility.yul\":10978:10981   */\n      dup5\n        /* \"#utility.yul\":10968:10976   */\n      dup5\n        /* \"#utility.yul\":10962:10966   */\n      dup5\n        /* \"#utility.yul\":10959:10960   */\n      0x01\n        /* \"#utility.yul\":10940:10982   */\n      tag_398\n      jump\t// in\n    tag_563:\n        /* \"#utility.yul\":10925:10982   */\n      swap3\n      pop\n      swap1\n      pop\n        /* \"#utility.yul\":11014:11018   */\n      dup2\n        /* \"#utility.yul\":11009:11012   */\n      dup5\n        /* \"#utility.yul\":11005:11019   */\n      div\n        /* \"#utility.yul\":10998:11003   */\n      dup2\n        /* \"#utility.yul\":10995:11020   */\n      gt\n        /* \"#utility.yul\":10992:11043   */\n      iszero\n      tag_564\n      jumpi\n        /* \"#utility.yul\":11023:11041   */\n      tag_565\n      tag_396\n      jump\t// in\n    tag_565:\n        /* \"#utility.yul\":10992:11043   */\n    tag_564:\n        /* \"#utility.yul\":11072:11076   */\n      dup2\n        /* \"#utility.yul\":11065:11070   */\n      dup2\n        /* \"#utility.yul\":11061:11077   */\n      mul\n        /* \"#utility.yul\":11052:11077   */\n      swap1\n      pop\n        /* \"#utility.yul\":10010:11083   */\n    tag_550:\n      swap4\n      swap3\n      pop\n      pop\n      pop\n      jump\t// out\n        /* \"#utility.yul\":11089:11370   */\n    tag_137:\n        /* \"#utility.yul\":11147:11152   */\n      0x00\n        /* \"#utility.yul\":11171:11194   */\n      tag_567\n        /* \"#utility.yul\":11189:11193   */\n      dup3\n        /* \"#utility.yul\":11171:11194   */\n      tag_380\n      jump\t// in\n    tag_567:\n        /* \"#utility.yul\":11163:11194   */\n      swap2\n      pop\n        /* \"#utility.yul\":11215:11240   */\n      tag_568\n        /* \"#utility.yul\":11231:11239   */\n      dup4\n        /* \"#utility.yul\":11215:11240   */\n      tag_386\n      jump\t// in\n    tag_568:\n        /* \"#utility.yul\":11203:11240   */\n      swap3\n      pop\n        /* \"#utility.yul\":11259:11363   */\n      tag_569\n        /* \"#utility.yul\":11296:11362   */\n      0xffffffffffffffffffffffffffffffffffffffffffffffffffffffffffffffff\n        /* \"#utility.yul\":11286:11294   */\n      dup5\n        /* \"#utility.yul\":11280:11284   */\n      dup5\n        /* \"#utility.yul\":11259:11363   */\n      tag_399\n      jump\t// in\n    tag_569:\n        /* \"#utility.yul\":11250:11363   */\n      swap1\n      pop\n        /* \"#utility.yul\":11089:11370   */\n      swap3\n      swap2\n      pop\n      pop\n      jump\t// out\n        /* \"#utility.yul\":11376:11786   */\n    tag_139:\n        /* \"#utility.yul\":11416:11423   */\n      0x00\n        /* \"#utility.yul\":11439:11459   */\n      tag_571\n        /* \"#utility.yul\":11457:11458   */\n      dup3\n        /* \"#utility.yul\":11439:11459   */\n      tag_380\n      jump\t// in\n    tag_571:\n        /* \"#utility.yul\":11434:11459   */\n      swap2\n      pop\n        /* \"#utility.yul\":11473:11493   */\n      tag_572\n        /* \"#utility.yul\":11491:11492   */\n      dup4\n        /* \"#utility.yul\":11473:11493   */\n      tag_380\n      jump\t// in\n    tag_572:\n        /* \"#utility.yul\":11468:11493   */\n      swap3\n      pop\n        /* \"#utility.yul\":11528:11529   */\n      dup3\n        /* \"#utility.yul\":11525:11526   */\n      dup3\n        /* \"#utility.yul\":11521:11530   */\n      mul\n        /* \"#utility.yul\":11550:11580   */\n      tag_573\n        /* \"#utility.yul\":11568:11579   */\n      dup2\n        /* \"#utility.yul\":11550:11580   */\n      tag_380\n      jump\t// in\n    tag_573:\n        /* \"#utility.yul\":11539:11580   */\n      swap2\n      pop\n        /* \"#utility.yul\":11729:11730   */\n      dup3\n        /* \"#utility.yul\":11720:11727   */\n      dup3\n        /* \"#utility.yul\":11716:11731   */\n      div\n        /* \"#utility.yul\":11713:11714   */\n      dup5\n        /* \"#utility.yul\":11710:11732   */\n      eq\n        /* \"#utility.yul\":11690:11691   */\n      dup4\n        /* \"#utility.yul\":11683:11692   */\n      iszero\n        /* \"#utility.yul\":11663:11746   */\n      or\n        /* \"#utility.yul\":11640:11779   */\n      tag_574\n      jumpi\n        /* \"#utility.yul\":11759:11777   */\n      tag_575\n      tag_396\n      jump\t// in\n    tag_575:\n        /* \"#utility.yul\":11640:11779   */\n    tag_574:\n        /* \"#utility.yul\":11424:11786   */\n      pop\n        /* \"#utility.yul\":11376:11786   */\n      swap3\n      swap2\n      pop\n      pop\n      jump\t// out\n        /* \"#utility.yul\":11792:11974   */\n    tag_400:\n        /* \"#utility.yul\":11932:11966   */\n      0x4f776e61626c653a2063616c6c6572206973206e6f7420746865206f776e6572\n        /* \"#utility.yul\":11928:11929   */\n      0x00\n        /* \"#utility.yul\":11920:11926   */\n      dup3\n        /* \"#utility.yul\":11916:11930   */\n      add\n        /* \"#utility.yul\":11909:11967   */\n      mstore\n        /* \"#utility.yul\":11792:11974   */\n      pop\n      jump\t// out\n        /* \"#utility.yul\":11980:12346   */\n    tag_401:\n        /* \"#utility.yul\":12122:12125   */\n      0x00\n        /* \"#utility.yul\":12143:12210   */\n      tag_578\n        /* \"#utility.yul\":12207:12209   */\n      0x20\n        /* \"#utility.yul\":12202:12205   */\n      dup4\n        /* \"#utility.yul\":12143:12210   */\n      tag_369\n      jump\t// in\n    tag_578:\n        /* \"#utility.yul\":12136:12210   */\n      swap2\n      pop\n        /* \"#utility.yul\":12219:12312   */\n      tag_579\n        /* \"#utility.yul\":12308:12311   */\n      dup3\n        /* \"#utility.yul\":12219:12312   */\n      tag_400\n      jump\t// in\n    tag_579:\n        /* \"#utility.yul\":12337:12339   */\n      0x20\n        /* \"#utility.yul\":12332:12335   */\n      dup3\n        /* \"#utility.yul\":12328:12340   */\n      add\n        /* \"#utility.yul\":12321:12340   */\n      swap1\n      pop\n        /* \"#utility.yul\":11980:12346   */\n      swap2\n      swap1\n      pop\n      jump\t// out\n        /* \"#utility.yul\":12352:12771   */\n    tag_164:\n        /* \"#utility.yul\":12518:12522   */\n      0x00\n        /* \"#utility.yul\":12556:12558   */\n      0x20\n        /* \"#utility.yul\":12545:12554   */\n      dup3\n        /* \"#utility.yul\":12541:12559   */\n      add\n        /* \"#utility.yul\":12533:12559   */\n      swap1\n      pop\n        /* \"#utility.yul\":12605:12614   */\n      dup2\n        /* \"#utility.yul\":12599:12603   */\n      dup2\n        /* \"#utility.yul\":12595:12615   */\n      sub\n        /* \"#utility.yul\":12591:12592   */\n      0x00\n        /* \"#utility.yul\":12580:12589   */\n      dup4\n        /* \"#utility.yul\":12576:12593   */\n      add\n        /* \"#utility.yul\":12569:12616   */\n      mstore\n        /* \"#utility.yul\":12633:12764   */\n      tag_581\n        /* \"#utility.yul\":12759:12763   */\n      dup2\n        /* \"#utility.yul\":12633:12764   */\n      tag_401\n      jump\t// in\n    tag_581:\n        /* \"#utility.yul\":12625:12764   */\n      swap1\n      pop\n        /* \"#utility.yul\":12352:12771   */\n      swap2\n      swap1\n      pop\n      jump\t// out\n        /* \"#utility.yul\":12777:12957   */\n    tag_189:\n        /* \"#utility.yul\":12825:12902   */\n      0x4e487b7100000000000000000000000000000000000000000000000000000000\n        /* \"#utility.yul\":12822:12823   */\n      0x00\n        /* \"#utility.yul\":12815:12903   */\n      mstore\n        /* \"#utility.yul\":12922:12926   */\n      0x32\n        /* \"#utility.yul\":12919:12920   */\n      0x04\n        /* \"#utility.yul\":12912:12927   */\n      mstore\n        /* \"#utility.yul\":12946:12950   */\n      0x24\n        /* \"#utility.yul\":12943:12944   */\n      0x00\n        /* \"#utility.yul\":12936:12951   */\n      revert\n        /* \"#utility.yul\":12963:13136   */\n    tag_402:\n        /* \"#utility.yul\":13103:13128   */\n      0x74726164696e6720697320616c7265616479206f70656e000000000000000000\n        /* \"#utility.yul\":13099:13100   */\n      0x00\n        /* \"#utility.yul\":13091:13097   */\n      dup3\n        /* \"#utility.yul\":13087:13101   */\n      add\n        /* \"#utility.yul\":13080:13129   */\n      mstore\n        /* \"#utility.yul\":12963:13136   */\n      pop\n      jump\t// out\n        /* \"#utility.yul\":13142:13508   */\n    tag_403:\n        /* \"#utility.yul\":13284:13287   */\n      0x00\n        /* \"#utility.yul\":13305:13372   */\n      tag_585\n        /* \"#utility.yul\":13369:13371   */\n      0x17\n        /* \"#utility.yul\":13364:13367   */\n      dup4\n        /* \"#utility.yul\":13305:13372   */\n      tag_369\n      jump\t// in\n    tag_585:\n        /* \"#utility.yul\":13298:13372   */\n      swap2\n      pop\n        /* \"#utility.yul\":13381:13474   */\n      tag_586\n        /* \"#utility.yul\":13470:13473   */\n      dup3\n        /* \"#utility.yul\":13381:13474   */\n      tag_402\n      jump\t// in\n    tag_586:\n        /* \"#utility.yul\":13499:13501   */\n      0x20\n        /* \"#utility.yul\":13494:13497   */\n      dup3\n        /* \"#utility.yul\":13490:13502   */\n      add\n        /* \"#utility.yul\":13483:13502   */\n      swap1\n      pop\n        /* \"#utility.yul\":13142:13508   */\n      swap2\n      swap1\n      pop\n      jump\t// out\n        /* \"#utility.yul\":13514:13933   */\n    tag_212:\n        /* \"#utility.yul\":13680:13684   */\n      0x00\n        /* \"#utility.yul\":13718:13720   */\n      0x20\n        /* \"#utility.yul\":13707:13716   */\n      dup3\n        /* \"#utility.yul\":13703:13721   */\n      add\n        /* \"#utility.yul\":13695:13721   */\n      swap1\n      pop\n        /* \"#utility.yul\":13767:13776   */\n      dup2\n        /* \"#utility.yul\":13761:13765   */\n      dup2\n        /* \"#utility.yul\":13757:13777   */\n      sub\n        /* \"#utility.yul\":13753:13754   */\n      0x00\n        /* \"#utility.yul\":13742:13751   */\n      dup4\n        /* \"#utility.yul\":13738:13755   */\n      add\n        /* \"#utility.yul\":13731:13778   */\n      mstore\n        /* \"#utility.yul\":13795:13926   */\n      tag_588\n        /* \"#utility.yul\":13921:13925   */\n      dup2\n        /* \"#utility.yul\":13795:13926   */\n      tag_403\n      jump\t// in\n    tag_588:\n        /* \"#utility.yul\":13787:13926   */\n      swap1\n      pop\n        /* \"#utility.yul\":13514:13933   */\n      swap2\n      swap1\n      pop\n      jump\t// out\n        /* \"#utility.yul\":13939:14024   */\n    tag_404:\n        /* \"#utility.yul\":13984:13991   */\n      0x00\n        /* \"#utility.yul\":14013:14018   */\n      dup2\n        /* \"#utility.yul\":14002:14018   */\n      swap1\n      pop\n        /* \"#utility.yul\":13939:14024   */\n      swap2\n      swap1\n      pop\n      jump\t// out\n        /* \"#utility.yul\":14030:14090   */\n    tag_405:\n        /* \"#utility.yul\":14058:14061   */\n      0x00\n        /* \"#utility.yul\":14079:14084   */\n      dup2\n        /* \"#utility.yul\":14072:14084   */\n      swap1\n      pop\n        /* \"#utility.yul\":14030:14090   */\n      swap2\n      swap1\n      pop\n      jump\t// out\n        /* \"#utility.yul\":14096:14254   */\n    tag_406:\n        /* \"#utility.yul\":14154:14163   */\n      0x00\n        /* \"#utility.yul\":14187:14248   */\n      tag_592\n        /* \"#utility.yul\":14205:14247   */\n      tag_593\n        /* \"#utility.yul\":14214:14246   */\n      tag_594\n        /* \"#utility.yul\":14240:14245   */\n      dup5\n        /* \"#utility.yul\":14214:14246   */\n      tag_404\n      jump\t// in\n    tag_594:\n        /* \"#utility.yul\":14205:14247   */\n      tag_405\n      jump\t// in\n    tag_593:\n        /* \"#utility.yul\":14187:14248   */\n      tag_380\n      jump\t// in\n    tag_592:\n        /* \"#utility.yul\":14174:14248   */\n      swap1\n      pop\n        /* \"#utility.yul\":14096:14254   */\n      swap2\n      swap1\n      pop\n      jump\t// out\n        /* \"#utility.yul\":14260:14407   */\n    tag_407:\n        /* \"#utility.yul\":14355:14400   */\n      tag_596\n        /* \"#utility.yul\":14394:14399   */\n      dup2\n        /* \"#utility.yul\":14355:14400   */\n      tag_406\n      jump\t// in\n    tag_596:\n        /* \"#utility.yul\":14350:14353   */\n      dup3\n        /* \"#utility.yul\":14343:14401   */\n      mstore\n        /* \"#utility.yul\":14260:14407   */\n      pop\n      pop\n      jump\t// out\n        /* \"#utility.yul\":14413:15220   */\n    tag_219:\n        /* \"#utility.yul\":14662:14666   */\n      0x00\n        /* \"#utility.yul\":14700:14703   */\n      0xc0\n        /* \"#utility.yul\":14689:14698   */\n      dup3\n        /* \"#utility.yul\":14685:14704   */\n      add\n        /* \"#utility.yul\":14677:14704   */\n      swap1\n      pop\n        /* \"#utility.yul\":14714:14785   */\n      tag_598\n        /* \"#utility.yul\":14782:14783   */\n      0x00\n        /* \"#utility.yul\":14771:14780   */\n      dup4\n        /* \"#utility.yul\":14767:14784   */\n      add\n        /* \"#utility.yul\":14758:14764   */\n      dup10\n        /* \"#utility.yul\":14714:14785   */\n      tag_395\n      jump\t// in\n    tag_598:\n        /* \"#utility.yul\":14795:14867   */\n      tag_599\n        /* \"#utility.yul\":14863:14865   */\n      0x20\n        /* \"#utility.yul\":14852:14861   */\n      dup4\n        /* \"#utility.yul\":14848:14866   */\n      add\n        /* \"#utility.yul\":14839:14845   */\n      dup9\n        /* \"#utility.yul\":14795:14867   */\n      tag_385\n      jump\t// in\n    tag_599:\n        /* \"#utility.yul\":14877:14957   */\n      tag_600\n        /* \"#utility.yul\":14953:14955   */\n      0x40\n        /* \"#utility.yul\":14942:14951   */\n      dup4\n        /* \"#utility.yul\":14938:14956   */\n      add\n        /* \"#utility.yul\":14929:14935   */\n      dup8\n        /* \"#utility.yul\":14877:14957   */\n      tag_407\n      jump\t// in\n    tag_600:\n        /* \"#utility.yul\":14967:15047   */\n      tag_601\n        /* \"#utility.yul\":15043:15045   */\n      0x60\n        /* \"#utility.yul\":15032:15041   */\n      dup4\n        /* \"#utility.yul\":15028:15046   */\n      add\n        /* \"#utility.yul\":15019:15025   */\n      dup7\n        /* \"#utility.yul\":14967:15047   */\n      tag_407\n      jump\t// in\n    tag_601:\n        /* \"#utility.yul\":15057:15130   */\n      tag_602\n        /* \"#utility.yul\":15125:15128   */\n      0x80\n        /* \"#utility.yul\":15114:15123   */\n      dup4\n        /* \"#utility.yul\":15110:15129   */\n      add\n        /* \"#utility.yul\":15101:15107   */\n      dup6\n        /* \"#utility.yul\":15057:15130   */\n      tag_395\n      jump\t// in\n    tag_602:\n        /* \"#utility.yul\":15140:15213   */\n      tag_603\n        /* \"#utility.yul\":15208:15211   */\n      0xa0\n        /* \"#utility.yul\":15197:15206   */\n      dup4\n        /* \"#utility.yul\":15193:15212   */\n      add\n        /* \"#utility.yul\":15184:15190   */\n      dup5\n        /* \"#utility.yul\":15140:15213   */\n      tag_385\n      jump\t// in\n    tag_603:\n        /* \"#utility.yul\":14413:15220   */\n      swap8\n      swap7\n      pop\n      pop\n      pop\n      pop\n      pop\n      pop\n      pop\n      jump\t// out\n        /* \"#utility.yul\":15226:15369   */\n    tag_408:\n        /* \"#utility.yul\":15283:15288   */\n      0x00\n        /* \"#utility.yul\":15314:15320   */\n      dup2\n        /* \"#utility.yul\":15308:15321   */\n      mload\n        /* \"#utility.yul\":15299:15321   */\n      swap1\n      pop\n        /* \"#utility.yul\":15330:15363   */\n      tag_605\n        /* \"#utility.yul\":15357:15362   */\n      dup2\n        /* \"#utility.yul\":15330:15363   */\n      tag_381\n      jump\t// in\n    tag_605:\n        /* \"#utility.yul\":15226:15369   */\n      swap3\n      swap2\n      pop\n      pop\n      jump\t// out\n        /* \"#utility.yul\":15375:16038   */\n    tag_223:\n        /* \"#utility.yul\":15463:15469   */\n      0x00\n        /* \"#utility.yul\":15471:15477   */\n      dup1\n        /* \"#utility.yul\":15479:15485   */\n      0x00\n        /* \"#utility.yul\":15528:15530   */\n      0x60\n        /* \"#utility.yul\":15516:15525   */\n      dup5\n        /* \"#utility.yul\":15507:15514   */\n      dup7\n        /* \"#utility.yul\":15503:15526   */\n      sub\n        /* \"#utility.yul\":15499:15531   */\n      slt\n        /* \"#utility.yul\":15496:15615   */\n      iszero\n      tag_607\n      jumpi\n        /* \"#utility.yul\":15534:15613   */\n      tag_608\n      tag_374\n      jump\t// in\n    tag_608:\n        /* \"#utility.yul\":15496:15615   */\n    tag_607:\n        /* \"#utility.yul\":15654:15655   */\n      0x00\n        /* \"#utility.yul\":15679:15743   */\n      tag_609\n        /* \"#utility.yul\":15735:15742   */\n      dup7\n        /* \"#utility.yul\":15726:15732   */\n      dup3\n        /* \"#utility.yul\":15715:15724   */\n      dup8\n        /* \"#utility.yul\":15711:15733   */\n      add\n        /* \"#utility.yul\":15679:15743   */\n      tag_408\n      jump\t// in\n    tag_609:\n        /* \"#utility.yul\":15669:15743   */\n      swap4\n      pop\n        /* \"#utility.yul\":15625:15753   */\n      pop\n        /* \"#utility.yul\":15792:15794   */\n      0x20\n        /* \"#utility.yul\":15818:15882   */\n      tag_610\n        /* \"#utility.yul\":15874:15881   */\n      dup7\n        /* \"#utility.yul\":15865:15871   */\n      dup3\n        /* \"#utility.yul\":15854:15863   */\n      dup8\n        /* \"#utility.yul\":15850:15872   */\n      add\n        /* \"#utility.yul\":15818:15882   */\n      tag_408\n      jump\t// in\n    tag_610:\n        /* \"#utility.yul\":15808:15882   */\n      swap3\n      pop\n        /* \"#utility.yul\":15763:15892   */\n      pop\n        /* \"#utility.yul\":15931:15933   */\n      0x40\n        /* \"#utility.yul\":15957:16021   */\n      tag_611\n        /* \"#utility.yul\":16013:16020   */\n      dup7\n        /* \"#utility.yul\":16004:16010   */\n      dup3\n        /* \"#utility.yul\":15993:16002   */\n      dup8\n        /* \"#utility.yul\":15989:16011   */\n      add\n        /* \"#utility.yul\":15957:16021   */\n      tag_408\n      jump\t// in\n    tag_611:\n        /* \"#utility.yul\":15947:16021   */\n      swap2\n      pop\n        /* \"#utility.yul\":15902:16031   */\n      pop\n        /* \"#utility.yul\":15375:16038   */\n      swap3\n      pop\n      swap3\n      pop\n      swap3\n      jump\t// out\n        /* \"#utility.yul\":16044:16267   */\n    tag_409:\n        /* \"#utility.yul\":16184:16218   */\n      0x45524332303a20617070726f76652066726f6d20746865207a65726f20616464\n        /* \"#utility.yul\":16180:16181   */\n      0x00\n        /* \"#utility.yul\":16172:16178   */\n      dup3\n        /* \"#utility.yul\":16168:16182   */\n      add\n        /* \"#utility.yul\":16161:16219   */\n      mstore\n        /* \"#utility.yul\":16253:16259   */\n      0x7265737300000000000000000000000000000000000000000000000000000000\n        /* \"#utility.yul\":16248:16250   */\n      0x20\n        /* \"#utility.yul\":16240:16246   */\n      dup3\n        /* \"#utility.yul\":16236:16251   */\n      add\n        /* \"#utility.yul\":16229:16260   */\n      mstore\n        /* \"#utility.yul\":16044:16267   */\n      pop\n      jump\t// out\n        /* \"#utility.yul\":16273:16639   */\n    tag_410:\n        /* \"#utility.yul\":16415:16418   */\n      0x00\n        /* \"#utility.yul\":16436:16503   */\n      tag_614\n        /* \"#utility.yul\":16500:16502   */\n      0x24\n        /* \"#utility.yul\":16495:16498   */\n      dup4\n        /* \"#utility.yul\":16436:16503   */\n      tag_369\n      jump\t// in\n    tag_614:\n        /* \"#utility.yul\":16429:16503   */\n      swap2\n      pop\n        /* \"#utility.yul\":16512:16605   */\n      tag_615\n        /* \"#utility.yul\":16601:16604   */\n      dup3\n        /* \"#utility.yul\":16512:16605   */\n      tag_409\n      jump\t// in\n    tag_615:\n        /* \"#utility.yul\":16630:16632   */\n      0x40\n        /* \"#utility.yul\":16625:16628   */\n      dup3\n        /* \"#utility.yul\":16621:16633   */\n      add\n        /* \"#utility.yul\":16614:16633   */\n      swap1\n      pop\n        /* \"#utility.yul\":16273:16639   */\n      swap2\n      swap1\n      pop\n      jump\t// out\n        /* \"#utility.yul\":16645:17064   */\n    tag_233:\n        /* \"#utility.yul\":16811:16815   */\n      0x00\n        /* \"#utility.yul\":16849:16851   */\n      0x20\n        /* \"#utility.yul\":16838:16847   */\n      dup3\n        /* \"#utility.yul\":16834:16852   */\n      add\n        /* \"#utility.yul\":16826:16852   */\n      swap1\n      pop\n        /* \"#utility.yul\":16898:16907   */\n      dup2\n        /* \"#utility.yul\":16892:16896   */\n      dup2\n        /* \"#utility.yul\":16888:16908   */\n      sub\n        /* \"#utility.yul\":16884:16885   */\n      0x00\n        /* \"#utility.yul\":16873:16882   */\n      dup4\n        /* \"#utility.yul\":16869:16886   */\n      add\n        /* \"#utility.yul\":16862:16909   */\n      mstore\n        /* \"#utility.yul\":16926:17057   */\n      tag_617\n        /* \"#utility.yul\":17052:17056   */\n      dup2\n        /* \"#utility.yul\":16926:17057   */\n      tag_410\n      jump\t// in\n    tag_617:\n        /* \"#utility.yul\":16918:17057   */\n      swap1\n      pop\n        /* \"#utility.yul\":16645:17064   */\n      swap2\n      swap1\n      pop\n      jump\t// out\n        /* \"#utility.yul\":17070:17291   */\n    tag_411:\n        /* \"#utility.yul\":17210:17244   */\n      0x45524332303a20617070726f766520746f20746865207a65726f206164647265\n        /* \"#utility.yul\":17206:17207   */\n      0x00\n        /* \"#utility.yul\":17198:17204   */\n      dup3\n        /* \"#utility.yul\":17194:17208   */\n      add\n        /* \"#utility.yul\":17187:17245   */\n      mstore\n        /* \"#utility.yul\":17279:17283   */\n      0x7373000000000000000000000000000000000000000000000000000000000000\n        /* \"#utility.yul\":17274:17276   */\n      0x20\n        /* \"#utility.yul\":17266:17272   */\n      dup3\n        /* \"#utility.yul\":17262:17277   */\n      add\n        /* \"#utility.yul\":17255:17284   */\n      mstore\n        /* \"#utility.yul\":17070:17291   */\n      pop\n      jump\t// out\n        /* \"#utility.yul\":17297:17663   */\n    tag_412:\n        /* \"#utility.yul\":17439:17442   */\n      0x00\n        /* \"#utility.yul\":17460:17527   */\n      tag_620\n        /* \"#utility.yul\":17524:17526   */\n      0x22\n        /* \"#utility.yul\":17519:17522   */\n      dup4\n        /* \"#utility.yul\":17460:17527   */\n      tag_369\n      jump\t// in\n    tag_620:\n        /* \"#utility.yul\":17453:17527   */\n      swap2\n      pop\n        /* \"#utility.yul\":17536:17629   */\n      tag_621\n        /* \"#utility.yul\":17625:17628   */\n      dup3\n        /* \"#utility.yul\":17536:17629   */\n      tag_411\n      jump\t// in\n    tag_621:\n        /* \"#utility.yul\":17654:17656   */\n      0x40\n        /* \"#utility.yul\":17649:17652   */\n      dup3\n        /* \"#utility.yul\":17645:17657   */\n      add\n        /* \"#utility.yul\":17638:17657   */\n      swap1\n      pop\n        /* \"#utility.yul\":17297:17663   */\n      swap2\n      swap1\n      pop\n      jump\t// out\n        /* \"#utility.yul\":17669:18088   */\n    tag_236:\n        /* \"#utility.yul\":17835:17839   */\n      0x00\n        /* \"#utility.yul\":17873:17875   */\n      0x20\n        /* \"#utility.yul\":17862:17871   */\n      dup3\n        /* \"#utility.yul\":17858:17876   */\n      add\n        /* \"#utility.yul\":17850:17876   */\n      swap1\n      pop\n        /* \"#utility.yul\":17922:17931   */\n      dup2\n        /* \"#utility.yul\":17916:17920   */\n      dup2\n        /* \"#utility.yul\":17912:17932   */\n      sub\n        /* \"#utility.yul\":17908:17909   */\n      0x00\n        /* \"#utility.yul\":17897:17906   */\n      dup4\n        /* \"#utility.yul\":17893:17910   */\n      add\n        /* \"#utility.yul\":17886:17933   */\n      mstore\n        /* \"#utility.yul\":17950:18081   */\n      tag_623\n        /* \"#utility.yul\":18076:18080   */\n      dup2\n        /* \"#utility.yul\":17950:18081   */\n      tag_412\n      jump\t// in\n    tag_623:\n        /* \"#utility.yul\":17942:18081   */\n      swap1\n      pop\n        /* \"#utility.yul\":17669:18088   */\n      swap2\n      swap1\n      pop\n      jump\t// out\n        /* \"#utility.yul\":18094:18318   */\n    tag_413:\n        /* \"#utility.yul\":18234:18268   */\n      0x45524332303a207472616e736665722066726f6d20746865207a65726f206164\n        /* \"#utility.yul\":18230:18231   */\n      0x00\n        /* \"#utility.yul\":18222:18228   */\n      dup3\n        /* \"#utility.yul\":18218:18232   */\n      add\n        /* \"#utility.yul\":18211:18269   */\n      mstore\n        /* \"#utility.yul\":18303:18310   */\n      0x6472657373000000000000000000000000000000000000000000000000000000\n        /* \"#utility.yul\":18298:18300   */\n      0x20\n        /* \"#utility.yul\":18290:18296   */\n      dup3\n        /* \"#utility.yul\":18286:18301   */\n      add\n        /* \"#utility.yul\":18279:18311   */\n      mstore\n        /* \"#utility.yul\":18094:18318   */\n      pop\n      jump\t// out\n        /* \"#utility.yul\":18324:18690   */\n    tag_414:\n        /* \"#utility.yul\":18466:18469   */\n      0x00\n        /* \"#utility.yul\":18487:18554   */\n      tag_626\n        /* \"#utility.yul\":18551:18553   */\n      0x25\n        /* \"#utility.yul\":18546:18549   */\n      dup4\n        /* \"#utility.yul\":18487:18554   */\n      tag_369\n      jump\t// in\n    tag_626:\n        /* \"#utility.yul\":18480:18554   */\n      swap2\n      pop\n        /* \"#utility.yul\":18563:18656   */\n      tag_627\n        /* \"#utility.yul\":18652:18655   */\n      dup3\n        /* \"#utility.yul\":18563:18656   */\n      tag_413\n      jump\t// in\n    tag_627:\n        /* \"#utility.yul\":18681:18683   */\n      0x40\n        /* \"#utility.yul\":18676:18679   */\n      dup3\n        /* \"#utility.yul\":18672:18684   */\n      add\n        /* \"#utility.yul\":18665:18684   */\n      swap1\n      pop\n        /* \"#utility.yul\":18324:18690   */\n      swap2\n      swap1\n      pop\n      jump\t// out\n        /* \"#utility.yul\":18696:19115   */\n    tag_241:\n        /* \"#utility.yul\":18862:18866   */\n      0x00\n        /* \"#utility.yul\":18900:18902   */\n      0x20\n        /* \"#utility.yul\":18889:18898   */\n      dup3\n        /* \"#utility.yul\":18885:18903   */\n      add\n        /* \"#utility.yul\":18877:18903   */\n      swap1\n      pop\n        /* \"#utility.yul\":18949:18958   */\n      dup2\n        /* \"#utility.yul\":18943:18947   */\n      dup2\n        /* \"#utility.yul\":18939:18959   */\n      sub\n        /* \"#utility.yul\":18935:18936   */\n      0x00\n        /* \"#utility.yul\":18924:18933   */\n      dup4\n        /* \"#utility.yul\":18920:18937   */\n      add\n        /* \"#utility.yul\":18913:18960   */\n      mstore\n        /* \"#utility.yul\":18977:19108   */\n      tag_629\n        /* \"#utility.yul\":19103:19107   */\n      dup2\n        /* \"#utility.yul\":18977:19108   */\n      tag_414\n      jump\t// in\n    tag_629:\n        /* \"#utility.yul\":18969:19108   */\n      swap1\n      pop\n        /* \"#utility.yul\":18696:19115   */\n      swap2\n      swap1\n      pop\n      jump\t// out\n        /* \"#utility.yul\":19121:19343   */\n    tag_415:\n        /* \"#utility.yul\":19261:19295   */\n      0x45524332303a207472616e7366657220746f20746865207a65726f2061646472\n        /* \"#utility.yul\":19257:19258   */\n      0x00\n        /* \"#utility.yul\":19249:19255   */\n      dup3\n        /* \"#utility.yul\":19245:19259   */\n      add\n        /* \"#utility.yul\":19238:19296   */\n      mstore\n        /* \"#utility.yul\":19330:19335   */\n      0x6573730000000000000000000000000000000000000000000000000000000000\n        /* \"#utility.yul\":19325:19327   */\n      0x20\n        /* \"#utility.yul\":19317:19323   */\n      dup3\n        /* \"#utility.yul\":19313:19328   */\n      add\n        /* \"#utility.yul\":19306:19336   */\n      mstore\n        /* \"#utility.yul\":19121:19343   */\n      pop\n      jump\t// out\n        /* \"#utility.yul\":19349:19715   */\n    tag_416:\n        /* \"#utility.yul\":19491:19494   */\n      0x00\n        /* \"#utility.yul\":19512:19579   */\n      tag_632\n        /* \"#utility.yul\":19576:19578   */\n      0x23\n        /* \"#utility.yul\":19571:19574   */\n      dup4\n        /* \"#utility.yul\":19512:19579   */\n      tag_369\n      jump\t// in\n    tag_632:\n        /* \"#utility.yul\":19505:19579   */\n      swap2\n      pop\n        /* \"#utility.yul\":19588:19681   */\n      tag_633\n        /* \"#utility.yul\":19677:19680   */\n      dup3\n        /* \"#utility.yul\":19588:19681   */\n      tag_415\n      jump\t// in\n    tag_633:\n        /* \"#utility.yul\":19706:19708   */\n      0x40\n        /* \"#utility.yul\":19701:19704   */\n      dup3\n        /* \"#utility.yul\":19697:19709   */\n      add\n        /* \"#utility.yul\":19690:19709   */\n      swap1\n      pop\n        /* \"#utility.yul\":19349:19715   */\n      swap2\n      swap1\n      pop\n      jump\t// out\n        /* \"#utility.yul\":19721:20140   */\n    tag_244:\n        /* \"#utility.yul\":19887:19891   */\n      0x00\n        /* \"#utility.yul\":19925:19927   */\n      0x20\n        /* \"#utility.yul\":19914:19923   */\n      dup3\n        /* \"#utility.yul\":19910:19928   */\n      add\n        /* \"#utility.yul\":19902:19928   */\n      swap1\n      pop\n        /* \"#utility.yul\":19974:19983   */\n      dup2\n        /* \"#utility.yul\":19968:19972   */\n      dup2\n        /* \"#utility.yul\":19964:19984   */\n      sub\n        /* \"#utility.yul\":19960:19961   */\n      0x00\n        /* \"#utility.yul\":19949:19958   */\n      dup4\n        /* \"#utility.yul\":19945:19962   */\n      add\n        /* \"#utility.yul\":19938:19985   */\n      mstore\n        /* \"#utility.yul\":20002:20133   */\n      tag_635\n        /* \"#utility.yul\":20128:20132   */\n      dup2\n        /* \"#utility.yul\":20002:20133   */\n      tag_416\n      jump\t// in\n    tag_635:\n        /* \"#utility.yul\":19994:20133   */\n      swap1\n      pop\n        /* \"#utility.yul\":19721:20140   */\n      swap2\n      swap1\n      pop\n      jump\t// out\n        /* \"#utility.yul\":20146:20374   */\n    tag_417:\n        /* \"#utility.yul\":20286:20320   */\n      0x5472616e7366657220616d6f756e74206d757374206265206772656174657220\n        /* \"#utility.yul\":20282:20283   */\n      0x00\n        /* \"#utility.yul\":20274:20280   */\n      dup3\n        /* \"#utility.yul\":20270:20284   */\n      add\n        /* \"#utility.yul\":20263:20321   */\n      mstore\n        /* \"#utility.yul\":20355:20366   */\n      0x7468616e207a65726f0000000000000000000000000000000000000000000000\n        /* \"#utility.yul\":20350:20352   */\n      0x20\n        /* \"#utility.yul\":20342:20348   */\n      dup3\n        /* \"#utility.yul\":20338:20353   */\n      add\n        /* \"#utility.yul\":20331:20367   */\n      mstore\n        /* \"#utility.yul\":20146:20374   */\n      pop\n      jump\t// out\n        /* \"#utility.yul\":20380:20746   */\n    tag_418:\n        /* \"#utility.yul\":20522:20525   */\n      0x00\n        /* \"#utility.yul\":20543:20610   */\n      tag_638\n        /* \"#utility.yul\":20607:20609   */\n      0x29\n        /* \"#utility.yul\":20602:20605   */\n      dup4\n        /* \"#utility.yul\":20543:20610   */\n      tag_369\n      jump\t// in\n    tag_638:\n        /* \"#utility.yul\":20536:20610   */\n      swap2\n      pop\n        /* \"#utility.yul\":20619:20712   */\n      tag_639\n        /* \"#utility.yul\":20708:20711   */\n      dup3\n        /* \"#utility.yul\":20619:20712   */\n      tag_417\n      jump\t// in\n    tag_639:\n        /* \"#utility.yul\":20737:20739   */\n      0x40\n        /* \"#utility.yul\":20732:20735   */\n      dup3\n        /* \"#utility.yul\":20728:20740   */\n      add\n        /* \"#utility.yul\":20721:20740   */\n      swap1\n      pop\n        /* \"#utility.yul\":20380:20746   */\n      swap2\n      swap1\n      pop\n      jump\t// out\n        /* \"#utility.yul\":20752:21171   */\n    tag_247:\n        /* \"#utility.yul\":20918:20922   */\n      0x00\n        /* \"#utility.yul\":20956:20958   */\n      0x20\n        /* \"#utility.yul\":20945:20954   */\n      dup3\n        /* \"#utility.yul\":20941:20959   */\n      add\n        /* \"#utility.yul\":20933:20959   */\n      swap1\n      pop\n        /* \"#utility.yul\":21005:21014   */\n      dup2\n        /* \"#utility.yul\":20999:21003   */\n      dup2\n        /* \"#utility.yul\":20995:21015   */\n      sub\n        /* \"#utility.yul\":20991:20992   */\n      0x00\n        /* \"#utility.yul\":20980:20989   */\n      dup4\n        /* \"#utility.yul\":20976:20993   */\n      add\n        /* \"#utility.yul\":20969:21016   */\n      mstore\n        /* \"#utility.yul\":21033:21164   */\n      tag_641\n        /* \"#utility.yul\":21159:21163   */\n      dup2\n        /* \"#utility.yul\":21033:21164   */\n      tag_418\n      jump\t// in\n    tag_641:\n        /* \"#utility.yul\":21025:21164   */\n      swap1\n      pop\n        /* \"#utility.yul\":20752:21171   */\n      swap2\n      swap1\n      pop\n      jump\t// out\n        /* \"#utility.yul\":21177:21352   */\n    tag_419:\n        /* \"#utility.yul\":21317:21344   */\n      0x4578636565647320746865205f6d61785478416d6f756e742e00000000000000\n        /* \"#utility.yul\":21313:21314   */\n      0x00\n        /* \"#utility.yul\":21305:21311   */\n      dup3\n        /* \"#utility.yul\":21301:21315   */\n      add\n        /* \"#utility.yul\":21294:21345   */\n      mstore\n        /* \"#utility.yul\":21177:21352   */\n      pop\n      jump\t// out\n        /* \"#utility.yul\":21358:21724   */\n    tag_420:\n        /* \"#utility.yul\":21500:21503   */\n      0x00\n        /* \"#utility.yul\":21521:21588   */\n      tag_644\n        /* \"#utility.yul\":21585:21587   */\n      0x19\n        /* \"#utility.yul\":21580:21583   */\n      dup4\n        /* \"#utility.yul\":21521:21588   */\n      tag_369\n      jump\t// in\n    tag_644:\n        /* \"#utility.yul\":21514:21588   */\n      swap2\n      pop\n        /* \"#utility.yul\":21597:21690   */\n      tag_645\n        /* \"#utility.yul\":21686:21689   */\n      dup3\n        /* \"#utility.yul\":21597:21690   */\n      tag_419\n      jump\t// in\n    tag_645:\n        /* \"#utility.yul\":21715:21717   */\n      0x20\n        /* \"#utility.yul\":21710:21713   */\n      dup3\n        /* \"#utility.yul\":21706:21718   */\n      add\n        /* \"#utility.yul\":21699:21718   */\n      swap1\n      pop\n        /* \"#utility.yul\":21358:21724   */\n      swap2\n      swap1\n      pop\n      jump\t// out\n        /* \"#utility.yul\":21730:22149   */\n    tag_269:\n        /* \"#utility.yul\":21896:21900   */\n      0x00\n        /* \"#utility.yul\":21934:21936   */\n      0x20\n        /* \"#utility.yul\":21923:21932   */\n      dup3\n        /* \"#utility.yul\":21919:21937   */\n      add\n        /* \"#utility.yul\":21911:21937   */\n      swap1\n      pop\n        /* \"#utility.yul\":21983:21992   */\n      dup2\n        /* \"#utility.yul\":21977:21981   */\n      dup2\n        /* \"#utility.yul\":21973:21993   */\n      sub\n        /* \"#utility.yul\":21969:21970   */\n      0x00\n        /* \"#utility.yul\":21958:21967   */\n      dup4\n        /* \"#utility.yul\":21954:21971   */\n      add\n        /* \"#utility.yul\":21947:21994   */\n      mstore\n        /* \"#utility.yul\":22011:22142   */\n      tag_647\n        /* \"#utility.yul\":22137:22141   */\n      dup2\n        /* \"#utility.yul\":22011:22142   */\n      tag_420\n      jump\t// in\n    tag_647:\n        /* \"#utility.yul\":22003:22142   */\n      swap1\n      pop\n        /* \"#utility.yul\":21730:22149   */\n      swap2\n      swap1\n      pop\n      jump\t// out\n        /* \"#utility.yul\":22155:22346   */\n    tag_272:\n        /* \"#utility.yul\":22195:22198   */\n      0x00\n        /* \"#utility.yul\":22214:22234   */\n      tag_649\n        /* \"#utility.yul\":22232:22233   */\n      dup3\n        /* \"#utility.yul\":22214:22234   */\n      tag_380\n      jump\t// in\n    tag_649:\n        /* \"#utility.yul\":22209:22234   */\n      swap2\n      pop\n        /* \"#utility.yul\":22248:22268   */\n      tag_650\n        /* \"#utility.yul\":22266:22267   */\n      dup4\n        /* \"#utility.yul\":22248:22268   */\n      tag_380\n      jump\t// in\n    tag_650:\n        /* \"#utility.yul\":22243:22268   */\n      swap3\n      pop\n        /* \"#utility.yul\":22291:22292   */\n      dup3\n        /* \"#utility.yul\":22288:22289   */\n      dup3\n        /* \"#utility.yul\":22284:22293   */\n      add\n        /* \"#utility.yul\":22277:22293   */\n      swap1\n      pop\n        /* \"#utility.yul\":22312:22315   */\n      dup1\n        /* \"#utility.yul\":22309:22310   */\n      dup3\n        /* \"#utility.yul\":22306:22316   */\n      gt\n        /* \"#utility.yul\":22303:22339   */\n      iszero\n      tag_651\n      jumpi\n        /* \"#utility.yul\":22319:22337   */\n      tag_652\n      tag_396\n      jump\t// in\n    tag_652:\n        /* \"#utility.yul\":22303:22339   */\n    tag_651:\n        /* \"#utility.yul\":22155:22346   */\n      swap3\n      swap2\n      pop\n      pop\n      jump\t// out\n        /* \"#utility.yul\":22352:22528   */\n    tag_421:\n        /* \"#utility.yul\":22492:22520   */\n      0x4578636565647320746865206d617857616c6c657453697a652e000000000000\n        /* \"#utility.yul\":22488:22489   */\n      0x00\n        /* \"#utility.yul\":22480:22486   */\n      dup3\n        /* \"#utility.yul\":22476:22490   */\n      add\n        /* \"#utility.yul\":22469:22521   */\n      mstore\n        /* \"#utility.yul\":22352:22528   */\n      pop\n      jump\t// out\n        /* \"#utility.yul\":22534:22900   */\n    tag_422:\n        /* \"#utility.yul\":22676:22679   */\n      0x00\n        /* \"#utility.yul\":22697:22764   */\n      tag_655\n        /* \"#utility.yul\":22761:22763   */\n      0x1a\n        /* \"#utility.yul\":22756:22759   */\n      dup4\n        /* \"#utility.yul\":22697:22764   */\n      tag_369\n      jump\t// in\n    tag_655:\n        /* \"#utility.yul\":22690:22764   */\n      swap2\n      pop\n        /* \"#utility.yul\":22773:22866   */\n      tag_656\n        /* \"#utility.yul\":22862:22865   */\n      dup3\n        /* \"#utility.yul\":22773:22866   */\n      tag_421\n      jump\t// in\n    tag_656:\n        /* \"#utility.yul\":22891:22893   */\n      0x20\n        /* \"#utility.yul\":22886:22889   */\n      dup3\n        /* \"#utility.yul\":22882:22894   */\n      add\n        /* \"#utility.yul\":22875:22894   */\n      swap1\n      pop\n        /* \"#utility.yul\":22534:22900   */\n      swap2\n      swap1\n      pop\n      jump\t// out\n        /* \"#utility.yul\":22906:23325   */\n    tag_275:\n        /* \"#utility.yul\":23072:23076   */\n      0x00\n        /* \"#utility.yul\":23110:23112   */\n      0x20\n        /* \"#utility.yul\":23099:23108   */\n      dup3\n        /* \"#utility.yul\":23095:23113   */\n      add\n        /* \"#utility.yul\":23087:23113   */\n      swap1\n      pop\n        /* \"#utility.yul\":23159:23168   */\n      dup2\n        /* \"#utility.yul\":23153:23157   */\n      dup2\n        /* \"#utility.yul\":23149:23169   */\n      sub\n        /* \"#utility.yul\":23145:23146   */\n      0x00\n        /* \"#utility.yul\":23134:23143   */\n      dup4\n        /* \"#utility.yul\":23130:23147   */\n      add\n        /* \"#utility.yul\":23123:23170   */\n      mstore\n        /* \"#utility.yul\":23187:23318   */\n      tag_658\n        /* \"#utility.yul\":23313:23317   */\n      dup2\n        /* \"#utility.yul\":23187:23318   */\n      tag_422\n      jump\t// in\n    tag_658:\n        /* \"#utility.yul\":23179:23318   */\n      swap1\n      pop\n        /* \"#utility.yul\":22906:23325   */\n      swap2\n      swap1\n      pop\n      jump\t// out\n        /* \"#utility.yul\":23331:23564   */\n    tag_281:\n        /* \"#utility.yul\":23370:23373   */\n      0x00\n        /* \"#utility.yul\":23393:23417   */\n      tag_660\n        /* \"#utility.yul\":23411:23416   */\n      dup3\n        /* \"#utility.yul\":23393:23417   */\n      tag_380\n      jump\t// in\n    tag_660:\n        /* \"#utility.yul\":23384:23417   */\n      swap2\n      pop\n        /* \"#utility.yul\":23439:23505   */\n      0xffffffffffffffffffffffffffffffffffffffffffffffffffffffffffffffff\n        /* \"#utility.yul\":23432:23437   */\n      dup3\n        /* \"#utility.yul\":23429:23506   */\n      sub\n        /* \"#utility.yul\":23426:23529   */\n      tag_661\n      jumpi\n        /* \"#utility.yul\":23509:23527   */\n      tag_662\n      tag_396\n      jump\t// in\n    tag_662:\n        /* \"#utility.yul\":23426:23529   */\n    tag_661:\n        /* \"#utility.yul\":23556:23557   */\n      0x01\n        /* \"#utility.yul\":23549:23554   */\n      dup3\n        /* \"#utility.yul\":23545:23558   */\n      add\n        /* \"#utility.yul\":23538:23558   */\n      swap1\n      pop\n        /* \"#utility.yul\":23331:23564   */\n      swap2\n      swap1\n      pop\n      jump\t// out\n        /* \"#utility.yul\":23570:23743   */\n    tag_423:\n        /* \"#utility.yul\":23710:23735   */\n      0x4f6e6c7920332073656c6c732070657220626c6f636b21000000000000000000\n        /* \"#utility.yul\":23706:23707   */\n      0x00\n        /* \"#utility.yul\":23698:23704   */\n      dup3\n        /* \"#utility.yul\":23694:23708   */\n      add\n        /* \"#utility.yul\":23687:23736   */\n      mstore\n        /* \"#utility.yul\":23570:23743   */\n      pop\n      jump\t// out\n        /* \"#utility.yul\":23749:24115   */\n    tag_424:\n        /* \"#utility.yul\":23891:23894   */\n      0x00\n        /* \"#utility.yul\":23912:23979   */\n      tag_665\n        /* \"#utility.yul\":23976:23978   */\n      0x17\n        /* \"#utility.yul\":23971:23974   */\n      dup4\n        /* \"#utility.yul\":23912:23979   */\n      tag_369\n      jump\t// in\n    tag_665:\n        /* \"#utility.yul\":23905:23979   */\n      swap2\n      pop\n        /* \"#utility.yul\":23988:24081   */\n      tag_666\n        /* \"#utility.yul\":24077:24080   */\n      dup3\n        /* \"#utility.yul\":23988:24081   */\n      tag_423\n      jump\t// in\n    tag_666:\n        /* \"#utility.yul\":24106:24108   */\n      0x20\n        /* \"#utility.yul\":24101:24104   */\n      dup3\n        /* \"#utility.yul\":24097:24109   */\n      add\n        /* \"#utility.yul\":24090:24109   */\n      swap1\n      pop\n        /* \"#utility.yul\":23749:24115   */\n      swap2\n      swap1\n      pop\n      jump\t// out\n        /* \"#utility.yul\":24121:24540   */\n    tag_297:\n        /* \"#utility.yul\":24287:24291   */\n      0x00\n        /* \"#utility.yul\":24325:24327   */\n      0x20\n        /* \"#utility.yul\":24314:24323   */\n      dup3\n        /* \"#utility.yul\":24310:24328   */\n      add\n        /* \"#utility.yul\":24302:24328   */\n      swap1\n      pop\n        /* \"#utility.yul\":24374:24383   */\n      dup2\n        /* \"#utility.yul\":24368:24372   */\n      dup2\n        /* \"#utility.yul\":24364:24384   */\n      sub\n        /* \"#utility.yul\":24360:24361   */\n      0x00\n        /* \"#utility.yul\":24349:24358   */\n      dup4\n        /* \"#utility.yul\":24345:24362   */\n      add\n        /* \"#utility.yul\":24338:24385   */\n      mstore\n        /* \"#utility.yul\":24402:24533   */\n      tag_668\n        /* \"#utility.yul\":24528:24532   */\n      dup2\n        /* \"#utility.yul\":24402:24533   */\n      tag_424\n      jump\t// in\n    tag_668:\n        /* \"#utility.yul\":24394:24533   */\n      swap1\n      pop\n        /* \"#utility.yul\":24121:24540   */\n      swap2\n      swap1\n      pop\n      jump\t// out\n        /* \"#utility.yul\":24546:24740   */\n    tag_319:\n        /* \"#utility.yul\":24586:24590   */\n      0x00\n        /* \"#utility.yul\":24606:24626   */\n      tag_670\n        /* \"#utility.yul\":24624:24625   */\n      dup3\n        /* \"#utility.yul\":24606:24626   */\n      tag_380\n      jump\t// in\n    tag_670:\n        /* \"#utility.yul\":24601:24626   */\n      swap2\n      pop\n        /* \"#utility.yul\":24640:24660   */\n      tag_671\n        /* \"#utility.yul\":24658:24659   */\n      dup4\n        /* \"#utility.yul\":24640:24660   */\n      tag_380\n      jump\t// in\n    tag_671:\n        /* \"#utility.yul\":24635:24660   */\n      swap3\n      pop\n        /* \"#utility.yul\":24684:24685   */\n      dup3\n        /* \"#utility.yul\":24681:24682   */\n      dup3\n        /* \"#utility.yul\":24677:24686   */\n      sub\n        /* \"#utility.yul\":24669:24686   */\n      swap1\n      pop\n        /* \"#utility.yul\":24708:24709   */\n      dup2\n        /* \"#utility.yul\":24702:24706   */\n      dup2\n        /* \"#utility.yul\":24699:24710   */\n      gt\n        /* \"#utility.yul\":24696:24733   */\n      iszero\n      tag_672\n      jumpi\n        /* \"#utility.yul\":24713:24731   */\n      tag_673\n      tag_396\n      jump\t// in\n    tag_673:\n        /* \"#utility.yul\":24696:24733   */\n    tag_672:\n        /* \"#utility.yul\":24546:24740   */\n      swap3\n      swap2\n      pop\n      pop\n      jump\t// out\n        /* \"#utility.yul\":24746:24889   */\n    tag_425:\n        /* \"#utility.yul\":24803:24808   */\n      0x00\n        /* \"#utility.yul\":24834:24840   */\n      dup2\n        /* \"#utility.yul\":24828:24841   */\n      mload\n        /* \"#utility.yul\":24819:24841   */\n      swap1\n      pop\n        /* \"#utility.yul\":24850:24883   */\n      tag_675\n        /* \"#utility.yul\":24877:24882   */\n      dup2\n        /* \"#utility.yul\":24850:24883   */\n      tag_378\n      jump\t// in\n    tag_675:\n        /* \"#utility.yul\":24746:24889   */\n      swap3\n      swap2\n      pop\n      pop\n      jump\t// out\n        /* \"#utility.yul\":24895:25246   */\n    tag_331:\n        /* \"#utility.yul\":24965:24971   */\n      0x00\n        /* \"#utility.yul\":25014:25016   */\n      0x20\n        /* \"#utility.yul\":25002:25011   */\n      dup3\n        /* \"#utility.yul\":24993:25000   */\n      dup5\n        /* \"#utility.yul\":24989:25012   */\n      sub\n        /* \"#utility.yul\":24985:25017   */\n      slt\n        /* \"#utility.yul\":24982:25101   */\n      iszero\n      tag_677\n      jumpi\n        /* \"#utility.yul\":25020:25099   */\n      tag_678\n      tag_374\n      jump\t// in\n    tag_678:\n        /* \"#utility.yul\":24982:25101   */\n    tag_677:\n        /* \"#utility.yul\":25140:25141   */\n      0x00\n        /* \"#utility.yul\":25165:25229   */\n      tag_679\n        /* \"#utility.yul\":25221:25228   */\n      dup5\n        /* \"#utility.yul\":25212:25218   */\n      dup3\n        /* \"#utility.yul\":25201:25210   */\n      dup6\n        /* \"#utility.yul\":25197:25219   */\n      add\n        /* \"#utility.yul\":25165:25229   */\n      tag_425\n      jump\t// in\n    tag_679:\n        /* \"#utility.yul\":25155:25229   */\n      swap2\n      pop\n        /* \"#utility.yul\":25111:25239   */\n      pop\n        /* \"#utility.yul\":24895:25246   */\n      swap3\n      swap2\n      pop\n      pop\n      jump\t// out\n        /* \"#utility.yul\":25252:25366   */\n    tag_426:\n        /* \"#utility.yul\":25319:25325   */\n      0x00\n        /* \"#utility.yul\":25353:25358   */\n      dup2\n        /* \"#utility.yul\":25347:25359   */\n      mload\n        /* \"#utility.yul\":25337:25359   */\n      swap1\n      pop\n        /* \"#utility.yul\":25252:25366   */\n      swap2\n      swap1\n      pop\n      jump\t// out\n        /* \"#utility.yul\":25372:25556   */\n    tag_427:\n        /* \"#utility.yul\":25471:25482   */\n      0x00\n        /* \"#utility.yul\":25505:25511   */\n      dup3\n        /* \"#utility.yul\":25500:25503   */\n      dup3\n        /* \"#utility.yul\":25493:25512   */\n      mstore\n        /* \"#utility.yul\":25545:25549   */\n      0x20\n        /* \"#utility.yul\":25540:25543   */\n      dup3\n        /* \"#utility.yul\":25536:25550   */\n      add\n        /* \"#utility.yul\":25521:25550   */\n      swap1\n      pop\n        /* \"#utility.yul\":25372:25556   */\n      swap3\n      swap2\n      pop\n      pop\n      jump\t// out\n        /* \"#utility.yul\":25562:25694   */\n    tag_428:\n        /* \"#utility.yul\":25629:25633   */\n      0x00\n        /* \"#utility.yul\":25652:25655   */\n      dup2\n        /* \"#utility.yul\":25644:25655   */\n      swap1\n      pop\n        /* \"#utility.yul\":25682:25686   */\n      0x20\n        /* \"#utility.yul\":25677:25680   */\n      dup3\n        /* \"#utility.yul\":25673:25687   */\n      add\n        /* \"#utility.yul\":25665:25687   */\n      swap1\n      pop\n        /* \"#utility.yul\":25562:25694   */\n      swap2\n      swap1\n      pop\n      jump\t// out\n        /* \"#utility.yul\":25700:25808   */\n    tag_429:\n        /* \"#utility.yul\":25777:25801   */\n      tag_684\n        /* \"#utility.yul\":25795:25800   */\n      dup2\n        /* \"#utility.yul\":25777:25801   */\n      tag_377\n      jump\t// in\n    tag_684:\n        /* \"#utility.yul\":25772:25775   */\n      dup3\n        /* \"#utility.yul\":25765:25802   */\n      mstore\n        /* \"#utility.yul\":25700:25808   */\n      pop\n      pop\n      jump\t// out\n        /* \"#utility.yul\":25814:25993   */\n    tag_430:\n        /* \"#utility.yul\":25883:25893   */\n      0x00\n        /* \"#utility.yul\":25904:25950   */\n      tag_686\n        /* \"#utility.yul\":25946:25949   */\n      dup4\n        /* \"#utility.yul\":25938:25944   */\n      dup4\n        /* \"#utility.yul\":25904:25950   */\n      tag_429\n      jump\t// in\n    tag_686:\n        /* \"#utility.yul\":25982:25986   */\n      0x20\n        /* \"#utility.yul\":25977:25980   */\n      dup4\n        /* \"#utility.yul\":25973:25987   */\n      add\n        /* \"#utility.yul\":25959:25987   */\n      swap1\n      pop\n        /* \"#utility.yul\":25814:25993   */\n      swap3\n      swap2\n      pop\n      pop\n      jump\t// out\n        /* \"#utility.yul\":25999:26112   */\n    tag_431:\n        /* \"#utility.yul\":26069:26073   */\n      0x00\n        /* \"#utility.yul\":26101:26105   */\n      0x20\n        /* \"#utility.yul\":26096:26099   */\n      dup3\n        /* \"#utility.yul\":26092:26106   */\n      add\n        /* \"#utility.yul\":26084:26106   */\n      swap1\n      pop\n        /* \"#utility.yul\":25999:26112   */\n      swap2\n      swap1\n      pop\n      jump\t// out\n        /* \"#utility.yul\":26148:26880   */\n    tag_432:\n        /* \"#utility.yul\":26267:26270   */\n      0x00\n        /* \"#utility.yul\":26296:26350   */\n      tag_689\n        /* \"#utility.yul\":26344:26349   */\n      dup3\n        /* \"#utility.yul\":26296:26350   */\n      tag_426\n      jump\t// in\n    tag_689:\n        /* \"#utility.yul\":26366:26452   */\n      tag_690\n        /* \"#utility.yul\":26445:26451   */\n      dup2\n        /* \"#utility.yul\":26440:26443   */\n      dup6\n        /* \"#utility.yul\":26366:26452   */\n      tag_427\n      jump\t// in\n    tag_690:\n        /* \"#utility.yul\":26359:26452   */\n      swap4\n      pop\n        /* \"#utility.yul\":26476:26532   */\n      tag_691\n        /* \"#utility.yul\":26526:26531   */\n      dup4\n        /* \"#utility.yul\":26476:26532   */\n      tag_428\n      jump\t// in\n    tag_691:\n        /* \"#utility.yul\":26555:26562   */\n      dup1\n        /* \"#utility.yul\":26586:26587   */\n      0x00\n        /* \"#utility.yul\":26571:26855   */\n    tag_692:\n        /* \"#utility.yul\":26596:26602   */\n      dup4\n        /* \"#utility.yul\":26593:26594   */\n      dup2\n        /* \"#utility.yul\":26590:26603   */\n      lt\n        /* \"#utility.yul\":26571:26855   */\n      iszero\n      tag_694\n      jumpi\n        /* \"#utility.yul\":26672:26678   */\n      dup2\n        /* \"#utility.yul\":26666:26679   */\n      mload\n        /* \"#utility.yul\":26699:26762   */\n      tag_695\n        /* \"#utility.yul\":26758:26761   */\n      dup9\n        /* \"#utility.yul\":26743:26756   */\n      dup3\n        /* \"#utility.yul\":26699:26762   */\n      tag_430\n      jump\t// in\n    tag_695:\n        /* \"#utility.yul\":26692:26762   */\n      swap8\n      pop\n        /* \"#utility.yul\":26785:26845   */\n      tag_696\n        /* \"#utility.yul\":26838:26844   */\n      dup4\n        /* \"#utility.yul\":26785:26845   */\n      tag_431\n      jump\t// in\n    tag_696:\n        /* \"#utility.yul\":26775:26845   */\n      swap3\n      pop\n        /* \"#utility.yul\":26631:26855   */\n      pop\n        /* \"#utility.yul\":26618:26619   */\n      0x01\n        /* \"#utility.yul\":26615:26616   */\n      dup2\n        /* \"#utility.yul\":26611:26620   */\n      add\n        /* \"#utility.yul\":26606:26620   */\n      swap1\n      pop\n        /* \"#utility.yul\":26571:26855   */\n      jump(tag_692)\n    tag_694:\n        /* \"#utility.yul\":26575:26589   */\n      pop\n        /* \"#utility.yul\":26871:26874   */\n      dup6\n        /* \"#utility.yul\":26864:26874   */\n      swap4\n      pop\n        /* \"#utility.yul\":26272:26880   */\n      pop\n      pop\n      pop\n        /* \"#utility.yul\":26148:26880   */\n      swap3\n      swap2\n      pop\n      pop\n      jump\t// out\n        /* \"#utility.yul\":26886:27717   */\n    tag_336:\n        /* \"#utility.yul\":27149:27153   */\n      0x00\n        /* \"#utility.yul\":27187:27190   */\n      0xa0\n        /* \"#utility.yul\":27176:27185   */\n      dup3\n        /* \"#utility.yul\":27172:27191   */\n      add\n        /* \"#utility.yul\":27164:27191   */\n      swap1\n      pop\n        /* \"#utility.yul\":27201:27272   */\n      tag_698\n        /* \"#utility.yul\":27269:27270   */\n      0x00\n        /* \"#utility.yul\":27258:27267   */\n      dup4\n        /* \"#utility.yul\":27254:27271   */\n      add\n        /* \"#utility.yul\":27245:27251   */\n      dup9\n        /* \"#utility.yul\":27201:27272   */\n      tag_385\n      jump\t// in\n    tag_698:\n        /* \"#utility.yul\":27282:27362   */\n      tag_699\n        /* \"#utility.yul\":27358:27360   */\n      0x20\n        /* \"#utility.yul\":27347:27356   */\n      dup4\n        /* \"#utility.yul\":27343:27361   */\n      add\n        /* \"#utility.yul\":27334:27340   */\n      dup8\n        /* \"#utility.yul\":27282:27362   */\n      tag_407\n      jump\t// in\n    tag_699:\n        /* \"#utility.yul\":27409:27418   */\n      dup2\n        /* \"#utility.yul\":27403:27407   */\n      dup2\n        /* \"#utility.yul\":27399:27419   */\n      sub\n        /* \"#utility.yul\":27394:27396   */\n      0x40\n        /* \"#utility.yul\":27383:27392   */\n      dup4\n        /* \"#utility.yul\":27379:27397   */\n      add\n        /* \"#utility.yul\":27372:27420   */\n      mstore\n        /* \"#utility.yul\":27437:27545   */\n      tag_700\n        /* \"#utility.yul\":27540:27544   */\n      dup2\n        /* \"#utility.yul\":27531:27537   */\n      dup7\n        /* \"#utility.yul\":27437:27545   */\n      tag_432\n      jump\t// in\n    tag_700:\n        /* \"#utility.yul\":27429:27545   */\n      swap1\n      pop\n        /* \"#utility.yul\":27555:27627   */\n      tag_701\n        /* \"#utility.yul\":27623:27625   */\n      0x60\n        /* \"#utility.yul\":27612:27621   */\n      dup4\n        /* \"#utility.yul\":27608:27626   */\n      add\n        /* \"#utility.yul\":27599:27605   */\n      dup6\n        /* \"#utility.yul\":27555:27627   */\n      tag_395\n      jump\t// in\n    tag_701:\n        /* \"#utility.yul\":27637:27710   */\n      tag_702\n        /* \"#utility.yul\":27705:27708   */\n      0x80\n        /* \"#utility.yul\":27694:27703   */\n      dup4\n        /* \"#utility.yul\":27690:27709   */\n      add\n        /* \"#utility.yul\":27681:27687   */\n      dup5\n        /* \"#utility.yul\":27637:27710   */\n      tag_385\n      jump\t// in\n    tag_702:\n        /* \"#utility.yul\":26886:27717   */\n      swap7\n      swap6\n      pop\n      pop\n      pop\n      pop\n      pop\n      pop\n      jump\t// out\n        /* \"#utility.yul\":27723:27903   */\n    tag_433:\n        /* \"#utility.yul\":27771:27848   */\n      0x4e487b7100000000000000000000000000000000000000000000000000000000\n        /* \"#utility.yul\":27768:27769   */\n      0x00\n        /* \"#utility.yul\":27761:27849   */\n      mstore\n        /* \"#utility.yul\":27868:27872   */\n      0x12\n        /* \"#utility.yul\":27865:27866   */\n      0x04\n        /* \"#utility.yul\":27858:27873   */\n      mstore\n        /* \"#utility.yul\":27892:27896   */\n      0x24\n        /* \"#utility.yul\":27889:27890   */\n      0x00\n        /* \"#utility.yul\":27882:27897   */\n      revert\n        /* \"#utility.yul\":27909:28094   */\n    tag_347:\n        /* \"#utility.yul\":27949:27950   */\n      0x00\n        /* \"#utility.yul\":27966:27986   */\n      tag_705\n        /* \"#utility.yul\":27984:27985   */\n      dup3\n        /* \"#utility.yul\":27966:27986   */\n      tag_380\n      jump\t// in\n    tag_705:\n        /* \"#utility.yul\":27961:27986   */\n      swap2\n      pop\n        /* \"#utility.yul\":28000:28020   */\n      tag_706\n        /* \"#utility.yul\":28018:28019   */\n      dup4\n        /* \"#utility.yul\":28000:28020   */\n      tag_380\n      jump\t// in\n    tag_706:\n        /* \"#utility.yul\":27995:28020   */\n      swap3\n      pop\n        /* \"#utility.yul\":28039:28040   */\n      dup3\n        /* \"#utility.yul\":28029:28064   */\n      tag_707\n      jumpi\n        /* \"#utility.yul\":28044:28062   */\n      tag_708\n      tag_433\n      jump\t// in\n    tag_708:\n        /* \"#utility.yul\":28029:28064   */\n    tag_707:\n        /* \"#utility.yul\":28086:28087   */\n      dup3\n        /* \"#utility.yul\":28083:28084   */\n      dup3\n        /* \"#utility.yul\":28079:28088   */\n      div\n        /* \"#utility.yul\":28074:28088   */\n      swap1\n      pop\n        /* \"#utility.yul\":27909:28094   */\n      swap3\n      swap2\n      pop\n      pop\n      jump\t// out\n        /* \"#utility.yul\":28100:28320   */\n    tag_434:\n        /* \"#utility.yul\":28240:28274   */\n      0x536166654d6174683a206d756c7469706c69636174696f6e206f766572666c6f\n        /* \"#utility.yul\":28236:28237   */\n      0x00\n        /* \"#utility.yul\":28228:28234   */\n      dup3\n        /* \"#utility.yul\":28224:28238   */\n      add\n        /* \"#utility.yul\":28217:28275   */\n      mstore\n        /* \"#utility.yul\":28309:28312   */\n      0x7700000000000000000000000000000000000000000000000000000000000000\n        /* \"#utility.yul\":28304:28306   */\n      0x20\n        /* \"#utility.yul\":28296:28302   */\n      dup3\n        /* \"#utility.yul\":28292:28307   */\n      add\n        /* \"#utility.yul\":28285:28313   */\n      mstore\n        /* \"#utility.yul\":28100:28320   */\n      pop\n      jump\t// out\n        /* \"#utility.yul\":28326:28692   */\n    tag_435:\n        /* \"#utility.yul\":28468:28471   */\n      0x00\n        /* \"#utility.yul\":28489:28556   */\n      tag_711\n        /* \"#utility.yul\":28553:28555   */\n      0x21\n        /* \"#utility.yul\":28548:28551   */\n      dup4\n        /* \"#utility.yul\":28489:28556   */\n      tag_369\n      jump\t// in\n    tag_711:\n        /* \"#utility.yul\":28482:28556   */\n      swap2\n      pop\n        /* \"#utility.yul\":28565:28658   */\n      tag_712\n        /* \"#utility.yul\":28654:28657   */\n      dup3\n        /* \"#utility.yul\":28565:28658   */\n      tag_434\n      jump\t// in\n    tag_712:\n        /* \"#utility.yul\":28683:28685   */\n      0x40\n        /* \"#utility.yul\":28678:28681   */\n      dup3\n        /* \"#utility.yul\":28674:28686   */\n      add\n        /* \"#utility.yul\":28667:28686   */\n      swap1\n      pop\n        /* \"#utility.yul\":28326:28692   */\n      swap2\n      swap1\n      pop\n      jump\t// out\n        /* \"#utility.yul\":28698:29117   */\n    tag_350:\n        /* \"#utility.yul\":28864:28868   */\n      0x00\n        /* \"#utility.yul\":28902:28904   */\n      0x20\n        /* \"#utility.yul\":28891:28900   */\n      dup3\n        /* \"#utility.yul\":28887:28905   */\n      add\n        /* \"#utility.yul\":28879:28905   */\n      swap1\n      pop\n        /* \"#utility.yul\":28951:28960   */\n      dup2\n        /* \"#utility.yul\":28945:28949   */\n      dup2\n        /* \"#utility.yul\":28941:28961   */\n      sub\n        /* \"#utility.yul\":28937:28938   */\n      0x00\n        /* \"#utility.yul\":28926:28935   */\n      dup4\n        /* \"#utility.yul\":28922:28939   */\n      add\n        /* \"#utility.yul\":28915:28962   */\n      mstore\n        /* \"#utility.yul\":28979:29110   */\n      tag_714\n        /* \"#utility.yul\":29105:29109   */\n      dup2\n        /* \"#utility.yul\":28979:29110   */\n      tag_435\n      jump\t// in\n    tag_714:\n        /* \"#utility.yul\":28971:29110   */\n      swap1\n      pop\n        /* \"#utility.yul\":28698:29117   */\n      swap2\n      swap1\n      pop\n      jump\t// out\n        /* \"#utility.yul\":29123:29300   */\n    tag_436:\n        /* \"#utility.yul\":29263:29292   */\n      0x536166654d6174683a206164646974696f6e206f766572666c6f770000000000\n        /* \"#utility.yul\":29259:29260   */\n      0x00\n        /* \"#utility.yul\":29251:29257   */\n      dup3\n        /* \"#utility.yul\":29247:29261   */\n      add\n        /* \"#utility.yul\":29240:29293   */\n      mstore\n        /* \"#utility.yul\":29123:29300   */\n      pop\n      jump\t// out\n        /* \"#utility.yul\":29306:29672   */\n    tag_437:\n        /* \"#utility.yul\":29448:29451   */\n      0x00\n        /* \"#utility.yul\":29469:29536   */\n      tag_717\n        /* \"#utility.yul\":29533:29535   */\n      0x1b\n        /* \"#utility.yul\":29528:29531   */\n      dup4\n        /* \"#utility.yul\":29469:29536   */\n      tag_369\n      jump\t// in\n    tag_717:\n        /* \"#utility.yul\":29462:29536   */\n      swap2\n      pop\n        /* \"#utility.yul\":29545:29638   */\n      tag_718\n        /* \"#utility.yul\":29634:29637   */\n      dup3\n        /* \"#utility.yul\":29545:29638   */\n      tag_436\n      jump\t// in\n    tag_718:\n        /* \"#utility.yul\":29663:29665   */\n      0x20\n        /* \"#utility.yul\":29658:29661   */\n      dup3\n        /* \"#utility.yul\":29654:29666   */\n      add\n        /* \"#utility.yul\":29647:29666   */\n      swap1\n      pop\n        /* \"#utility.yul\":29306:29672   */\n      swap2\n      swap1\n      pop\n      jump\t// out\n        /* \"#utility.yul\":29678:30097   */\n    tag_361:\n        /* \"#utility.yul\":29844:29848   */\n      0x00\n        /* \"#utility.yul\":29882:29884   */\n      0x20\n        /* \"#utility.yul\":29871:29880   */\n      dup3\n        /* \"#utility.yul\":29867:29885   */\n      add\n        /* \"#utility.yul\":29859:29885   */\n      swap1\n      pop\n        /* \"#utility.yul\":29931:29940   */\n      dup2\n        /* \"#utility.yul\":29925:29929   */\n      dup2\n        /* \"#utility.yul\":29921:29941   */\n      sub\n        /* \"#utility.yul\":29917:29918   */\n      0x00\n        /* \"#utility.yul\":29906:29915   */\n      dup4\n        /* \"#utility.yul\":29902:29919   */\n      add\n        /* \"#utility.yul\":29895:29942   */\n      mstore\n        /* \"#utility.yul\":29959:30090   */\n      tag_720\n        /* \"#utility.yul\":30085:30089   */\n      dup2\n        /* \"#utility.yul\":29959:30090   */\n      tag_437\n      jump\t// in\n    tag_720:\n        /* \"#utility.yul\":29951:30090   */\n      swap1\n      pop\n        /* \"#utility.yul\":29678:30097   */\n      swap2\n      swap1\n      pop\n      jump\t// out\n    stop\n    data_974d1b4421da69cc60b481194f0dad36a5bb4e23da810da7a7fb30cdba178330 45524332303a207472616e7366657220616d6f756e74206578636565647320616c6c6f77616e6365\n\n    auxdata: 0xa2646970667358221220783334406429a8aa5fdd5a22b784882e7a84cec90bea84cc0cb7c5a221acaaf264736f6c63430008170033\n}\n",
				"bytecode": {
					"linkReferences": {},
					"object": "6080604052601460065560146007555f6008555f600955600a8055600a600b55600a600c555f600d555f600e5560646009600a6200003e919062000989565b633b9aca006200004f9190620009d9565b6200005b919062000a50565b6001620000699190620009d9565b600f5560646009600a6200007e919062000989565b633b9aca006200008f9190620009d9565b6200009b919062000a50565b6001620000a99190620009d9565b6010556103e86009600a620000bf919062000989565b633b9aca00620000d09190620009d9565b620000dc919062000a50565b6001620000ea9190620009d9565b60115560646009600a620000ff919062000989565b633b9aca00620001109190620009d9565b6200011c919062000a50565b60016200012a9190620009d9565b6012555f601460156101000a81548160ff0219169083151502179055505f601460166101000a81548160ff0219169083151502179055505f6015555f60165534801562000175575f80fd5b505f62000187620007c960201b60201c565b9050805f806101000a81548173ffffffffffffffffffffffffffffffffffffffff021916908373ffffffffffffffffffffffffffffffffffffffff1602179055508073ffffffffffffffffffffffffffffffffffffffff165f73ffffffffffffffffffffffffffffffffffffffff167f8be0079c531659141344cd1fd0a4f28419497f9722a3daafe3b4186f6b6457e060405160405180910390a35073411aa08ccd060d1101223397b3711b71199e67b560055f6101000a81548173ffffffffffffffffffffffffffffffffffffffff021916908373ffffffffffffffffffffffffffffffffffffffff1602179055506009600a62000287919062000989565b633b9aca00620002989190620009d9565b60015f620002ab620007c960201b60201c565b73ffffffffffffffffffffffffffffffffffffffff1673ffffffffffffffffffffffffffffffffffffffff1681526020019081526020015f2081905550600160035f620002fd620007d060201b60201c565b73ffffffffffffffffffffffffffffffffffffffff1673ffffffffffffffffffffffffffffffffffffffff1681526020019081526020015f205f6101000a81548160ff021916908315150217905550600160035f3073ffffffffffffffffffffffffffffffffffffffff1673ffffffffffffffffffffffffffffffffffffffff1681526020019081526020015f205f6101000a81548160ff021916908315150217905550600160035f60055f9054906101000a900473ffffffffffffffffffffffffffffffffffffffff1673ffffffffffffffffffffffffffffffffffffffff1673ffffffffffffffffffffffffffffffffffffffff1681526020019081526020015f205f6101000a81548160ff021916908315150217905550737a250d5630b4cf539739df2c5dacb4c659f2488d60135f6101000a81548173ffffffffffffffffffffffffffffffffffffffff021916908373ffffffffffffffffffffffffffffffffffffffff16021790555060135f9054906101000a900473ffffffffffffffffffffffffffffffffffffffff1673ffffffffffffffffffffffffffffffffffffffff1663c45a01556040518163ffffffff1660e01b8152600401602060405180830381865afa158015620004d6573d5f803e3d5ffd5b505050506040513d601f19601f82011682018060405250810190620004fc919062000aec565b73ffffffffffffffffffffffffffffffffffffffff1663c9c653963060135f9054906101000a900473ffffffffffffffffffffffffffffffffffffffff1673ffffffffffffffffffffffffffffffffffffffff1663ad5c46486040518163ffffffff1660e01b8152600401602060405180830381865afa15801562000583573d5f803e3d5ffd5b505050506040513d601f19601f82011682018060405250810190620005a9919062000aec565b6040518363ffffffff1660e01b8152600401620005c892919062000b2d565b6020604051808303815f875af1158015620005e5573d5f803e3d5ffd5b505050506040513d601f19601f820116820180604052508101906200060b919062000aec565b60145f6101000a81548173ffffffffffffffffffffffffffffffffffffffff021916908373ffffffffffffffffffffffffffffffffffffffff16021790555060145f9054906101000a900473ffffffffffffffffffffffffffffffffffffffff1673ffffffffffffffffffffffffffffffffffffffff1663095ea7b360135f9054906101000a900473ffffffffffffffffffffffffffffffffffffffff167fffffffffffffffffffffffffffffffffffffffffffffffffffffffffffffffff6040518363ffffffff1660e01b8152600401620006e992919062000b69565b6020604051808303815f875af115801562000706573d5f803e3d5ffd5b505050506040513d601f19601f820116820180604052508101906200072c919062000bce565b506200073d620007c960201b60201c565b73ffffffffffffffffffffffffffffffffffffffff165f73ffffffffffffffffffffffffffffffffffffffff167fddf252ad1be2c89b69c2b068fc378daa952ba7f163c4a11628f55a4df523b3ef6009600a6200079b919062000989565b633b9aca00620007ac9190620009d9565b604051620007bb919062000bfe565b60405180910390a362000c19565b5f33905090565b5f805f9054906101000a900473ffffffffffffffffffffffffffffffffffffffff16905090565b7f4e487b71000000000000000000000000000000000000000000000000000000005f52601160045260245ffd5b5f8160011c9050919050565b5f808291508390505b60018511156200088157808604811115620008595762000858620007f7565b5b6001851615620008695780820291505b8081029050620008798562000824565b945062000839565b94509492505050565b5f826200089b57600190506200096d565b81620008aa575f90506200096d565b8160018114620008c35760028114620008ce5762000904565b60019150506200096d565b60ff841115620008e357620008e2620007f7565b5b8360020a915084821115620008fd57620008fc620007f7565b5b506200096d565b5060208310610133831016604e8410600b84101617156200093e5782820a905083811115620009385762000937620007f7565b5b6200096d565b6200094d848484600162000830565b92509050818404811115620009675762000966620007f7565b5b81810290505b9392505050565b5f819050919050565b5f60ff82169050919050565b5f620009958262000974565b9150620009a2836200097d565b9250620009d17fffffffffffffffffffffffffffffffffffffffffffffffffffffffffffffffff84846200088a565b905092915050565b5f620009e58262000974565b9150620009f28362000974565b925082820262000a028162000974565b9150828204841483151762000a1c5762000a1b620007f7565b5b5092915050565b7f4e487b71000000000000000000000000000000000000000000000000000000005f52601260045260245ffd5b5f62000a5c8262000974565b915062000a698362000974565b92508262000a7c5762000a7b62000a23565b5b828204905092915050565b5f80fd5b5f73ffffffffffffffffffffffffffffffffffffffff82169050919050565b5f62000ab68262000a8b565b9050919050565b62000ac88162000aaa565b811462000ad3575f80fd5b50565b5f8151905062000ae68162000abd565b92915050565b5f6020828403121562000b045762000b0362000a87565b5b5f62000b138482850162000ad6565b91505092915050565b62000b278162000aaa565b82525050565b5f60408201905062000b425f83018562000b1c565b62000b51602083018462000b1c565b9392505050565b62000b638162000974565b82525050565b5f60408201905062000b7e5f83018562000b1c565b62000b8d602083018462000b58565b9392505050565b5f8115159050919050565b62000baa8162000b94565b811462000bb5575f80fd5b50565b5f8151905062000bc88162000b9f565b92915050565b5f6020828403121562000be65762000be562000a87565b5b5f62000bf58482850162000bb8565b91505092915050565b5f60208201905062000c135f83018462000b58565b92915050565b61303d8062000c275f395ff3fe608060405260043610610138575f3560e01c80637d1db4a5116100aa5780639b8fe4221161006e5780639b8fe422146103ed578063a9059cbb14610415578063bf474bed14610451578063c9567bf91461047b578063dd62ed3e14610491578063f4293890146104cd5761013f565b80637d1db4a51461031d578063874d9e3b146103475780638da5cb5b1461036f5780638f9a55c01461039957806395d89b41146103c35761013f565b8063313ce567116100fc578063313ce5671461023957806338347fa4146102635780633bbac5791461027957806362256589146102b557806370a08231146102cb578063715018a6146103075761013f565b806306fdde0314610143578063095ea7b31461016d5780630faee56f146101a957806318160ddd146101d357806323b872dd146101fd5761013f565b3661013f57005b5f80fd5b34801561014e575f80fd5b506101576104e3565b60405161016491906120b7565b60405180910390f35b348015610178575f80fd5b50610193600480360381019061018e9190612175565b610520565b6040516101a091906121cd565b60405180910390f35b3480156101b4575f80fd5b506101bd61053d565b6040516101ca91906121f5565b60405180910390f35b3480156101de575f80fd5b506101e7610543565b6040516101f491906121f5565b60405180910390f35b348015610208575f80fd5b50610223600480360381019061021e919061220e565b610566565b60405161023091906121cd565b60405180910390f35b348015610244575f80fd5b5061024d61063a565b60405161025a9190612279565b60405180910390f35b34801561026e575f80fd5b50610277610642565b005b348015610284575f80fd5b5061029f600480360381019061029a9190612292565b6106d9565b6040516102ac91906121cd565b60405180910390f35b3480156102c0575f80fd5b506102c961072b565b005b3480156102d6575f80fd5b506102f160048036038101906102ec9190612292565b61085a565b6040516102fe91906121f5565b60405180910390f35b348015610312575f80fd5b5061031b6108a0565b005b348015610328575f80fd5b506103316109ee565b60405161033e91906121f5565b60405180910390f35b348015610352575f80fd5b5061036d600480360381019061036891906123fd565b6109f4565b005b34801561037a575f80fd5b50610383610b13565b6040516103909190612453565b60405180910390f35b3480156103a4575f80fd5b506103ad610b3a565b6040516103ba91906121f5565b60405180910390f35b3480156103ce575f80fd5b506103d7610b40565b6040516103e491906120b7565b60405180910390f35b3480156103f8575f80fd5b50610413600480360381019061040e91906123fd565b610b7d565b005b348015610420575f80fd5b5061043b60048036038101906104369190612175565b610c9b565b60405161044891906121cd565b60405180910390f35b34801561045c575f80fd5b50610465610cb8565b60405161047291906121f5565b60405180910390f35b348015610486575f80fd5b5061048f610cbe565b005b34801561049c575f80fd5b506104b760048036038101906104b2919061246c565b610ed7565b6040516104c491906121f5565b60405180910390f35b3480156104d8575f80fd5b506104e1610f59565b005b60606040518060400160405280600481526020017f4361746500000000000000000000000000000000000000000000000000000000815250905090565b5f61053361052c610fc8565b8484610fcf565b6001905092915050565b60125481565b5f6009600a6105529190612606565b633b9aca006105619190612650565b905090565b5f610572848484611192565b61062f8461057e610fc8565b61062a85604051806060016040528060288152602001612fe06028913960025f8b73ffffffffffffffffffffffffffffffffffffffff1673ffffffffffffffffffffffffffffffffffffffff1681526020019081526020015f205f6105e1610fc8565b73ffffffffffffffffffffffffffffffffffffffff1673ffffffffffffffffffffffffffffffffffffffff1681526020019081526020015f2054611b199092919063ffffffff16565b610fcf565b600190509392505050565b5f6009905090565b60055f9054906101000a900473ffffffffffffffffffffffffffffffffffffffff1673ffffffffffffffffffffffffffffffffffffffff16610682610fc8565b73ffffffffffffffffffffffffffffffffffffffff16146106a1575f80fd5b5f6106ab3061085a565b90505f8111156106bf576106be81611b7b565b5b5f4790505f8111156106d5576106d481611de6565b5b5050565b5f60045f8373ffffffffffffffffffffffffffffffffffffffff1673ffffffffffffffffffffffffffffffffffffffff1681526020019081526020015f205f9054906101000a900460ff169050919050565b610733610fc8565b73ffffffffffffffffffffffffffffffffffffffff165f8054906101000a900473ffffffffffffffffffffffffffffffffffffffff1673ffffffffffffffffffffffffffffffffffffffff16146107bf576040517f08c379a00000000000000000000000000000000000000000000000000000000081526004016107b6906126db565b60405180910390fd5b6009600a6107cd9190612606565b633b9aca006107dc9190612650565b600f819055506009600a6107f09190612606565b633b9aca006107ff9190612650565b6010819055507f947f344d56e1e8c70dc492fb94c4ddddd490c016aab685f5e7e47b2e85cb44cf6009600a6108349190612606565b633b9aca006108439190612650565b60405161085091906121f5565b60405180910390a1565b5f60015f8373ffffffffffffffffffffffffffffffffffffffff1673ffffffffffffffffffffffffffffffffffffffff1681526020019081526020015f20549050919050565b6108a8610fc8565b73ffffffffffffffffffffffffffffffffffffffff165f8054906101000a900473ffffffffffffffffffffffffffffffffffffffff1673ffffffffffffffffffffffffffffffffffffffff1614610934576040517f08c379a000000000000000000000000000000000000000000000000000000000815260040161092b906126db565b60405180910390fd5b5f73ffffffffffffffffffffffffffffffffffffffff165f8054906101000a900473ffffffffffffffffffffffffffffffffffffffff1673ffffffffffffffffffffffffffffffffffffffff167f8be0079c531659141344cd1fd0a4f28419497f9722a3daafe3b4186f6b6457e060405160405180910390a35f805f6101000a81548173ffffffffffffffffffffffffffffffffffffffff021916908373ffffffffffffffffffffffffffffffffffffffff160217905550565b600f5481565b6109fc610fc8565b73ffffffffffffffffffffffffffffffffffffffff165f8054906101000a900473ffffffffffffffffffffffffffffffffffffffff1673ffffffffffffffffffffffffffffffffffffffff1614610a88576040517f08c379a0000000000000000000000000000000000000000000000000000000008152600401610a7f906126db565b60405180910390fd5b5f5b8151811015610b0f57600160045f848481518110610aab57610aaa6126f9565b5b602002602001015173ffffffffffffffffffffffffffffffffffffffff1673ffffffffffffffffffffffffffffffffffffffff1681526020019081526020015f205f6101000a81548160ff0219169083151502179055508080600101915050610a8a565b5050565b5f805f9054906101000a900473ffffffffffffffffffffffffffffffffffffffff16905090565b60105481565b60606040518060400160405280600481526020017f4341544500000000000000000000000000000000000000000000000000000000815250905090565b610b85610fc8565b73ffffffffffffffffffffffffffffffffffffffff165f8054906101000a900473ffffffffffffffffffffffffffffffffffffffff1673ffffffffffffffffffffffffffffffffffffffff1614610c11576040517f08c379a0000000000000000000000000000000000000000000000000000000008152600401610c08906126db565b60405180910390fd5b5f5b8151811015610c97575f60045f848481518110610c3357610c326126f9565b5b602002602001015173ffffffffffffffffffffffffffffffffffffffff1673ffffffffffffffffffffffffffffffffffffffff1681526020019081526020015f205f6101000a81548160ff0219169083151502179055508080600101915050610c13565b5050565b5f610cae610ca7610fc8565b8484611192565b6001905092915050565b60115481565b610cc6610fc8565b73ffffffffffffffffffffffffffffffffffffffff165f8054906101000a900473ffffffffffffffffffffffffffffffffffffffff1673ffffffffffffffffffffffffffffffffffffffff1614610d52576040517f08c379a0000000000000000000000000000000000000000000000000000000008152600401610d49906126db565b60405180910390fd5b60148054906101000a900460ff1615610da0576040517f08c379a0000000000000000000000000000000000000000000000000000000008152600401610d9790612770565b60405180910390fd5b610de83060135f9054906101000a900473ffffffffffffffffffffffffffffffffffffffff166009600a610dd49190612606565b633b9aca00610de39190612650565b610fcf565b60135f9054906101000a900473ffffffffffffffffffffffffffffffffffffffff1673ffffffffffffffffffffffffffffffffffffffff1663f305d7194730610e303061085a565b5f80610e3a610b13565b426040518863ffffffff1660e01b8152600401610e5c969594939291906127d0565b60606040518083038185885af1158015610e78573d5f803e3d5ffd5b50505050506040513d601f19601f82011682018060405250810190610e9d9190612843565b5050506001601460166101000a81548160ff02191690831515021790555060016014806101000a81548160ff021916908315150217905550565b5f60025f8473ffffffffffffffffffffffffffffffffffffffff1673ffffffffffffffffffffffffffffffffffffffff1681526020019081526020015f205f8373ffffffffffffffffffffffffffffffffffffffff1673ffffffffffffffffffffffffffffffffffffffff1681526020019081526020015f2054905092915050565b60055f9054906101000a900473ffffffffffffffffffffffffffffffffffffffff1673ffffffffffffffffffffffffffffffffffffffff16610f99610fc8565b73ffffffffffffffffffffffffffffffffffffffff1614610fb8575f80fd5b5f479050610fc581611de6565b50565b5f33905090565b5f73ffffffffffffffffffffffffffffffffffffffff168373ffffffffffffffffffffffffffffffffffffffff160361103d576040517f08c379a000000000000000000000000000000000000000000000000000000000815260040161103490612903565b60405180910390fd5b5f73ffffffffffffffffffffffffffffffffffffffff168273ffffffffffffffffffffffffffffffffffffffff16036110ab576040517f08c379a00000000000000000000000000000000000000000000000000000000081526004016110a290612991565b60405180910390fd5b8060025f8573ffffffffffffffffffffffffffffffffffffffff1673ffffffffffffffffffffffffffffffffffffffff1681526020019081526020015f205f8473ffffffffffffffffffffffffffffffffffffffff1673ffffffffffffffffffffffffffffffffffffffff1681526020019081526020015f20819055508173ffffffffffffffffffffffffffffffffffffffff168373ffffffffffffffffffffffffffffffffffffffff167f8c5be1e5ebec7d5bd14f71427d1e84f3dd0314c0f7b2291e5b200ac8c7c3b9258360405161118591906121f5565b60405180910390a3505050565b5f73ffffffffffffffffffffffffffffffffffffffff168373ffffffffffffffffffffffffffffffffffffffff1603611200576040517f08c379a00000000000000000000000000000000000000000000000000000000081526004016111f790612a1f565b60405180910390fd5b5f73ffffffffffffffffffffffffffffffffffffffff168273ffffffffffffffffffffffffffffffffffffffff160361126e576040517f08c379a000000000000000000000000000000000000000000000000000000000815260040161126590612aad565b60405180910390fd5b5f81116112b0576040517f08c379a00000000000000000000000000000000000000000000000000000000081526004016112a790612b3b565b60405180910390fd5b5f6112b9610b13565b73ffffffffffffffffffffffffffffffffffffffff168473ffffffffffffffffffffffffffffffffffffffff161415801561132757506112f7610b13565b73ffffffffffffffffffffffffffffffffffffffff168373ffffffffffffffffffffffffffffffffffffffff1614155b156118695760045f8573ffffffffffffffffffffffffffffffffffffffff1673ffffffffffffffffffffffffffffffffffffffff1681526020019081526020015f205f9054906101000a900460ff161580156113ca575060045f8473ffffffffffffffffffffffffffffffffffffffff1673ffffffffffffffffffffffffffffffffffffffff1681526020019081526020015f205f9054906101000a900460ff16155b6113d2575f80fd5b5f600e540361141a576114176064611409600a54600e54116113f6576006546113fa565b6008545b85611e4e90919063ffffffff16565b611ec590919063ffffffff16565b90505b5f600e54111561144f5761144c606461143e600d5485611e4e90919063ffffffff16565b611ec590919063ffffffff16565b90505b60145f9054906101000a900473ffffffffffffffffffffffffffffffffffffffff1673ffffffffffffffffffffffffffffffffffffffff168473ffffffffffffffffffffffffffffffffffffffff161480156114f8575060135f9054906101000a900473ffffffffffffffffffffffffffffffffffffffff1673ffffffffffffffffffffffffffffffffffffffff168373ffffffffffffffffffffffffffffffffffffffff1614155b801561154b575060035f8473ffffffffffffffffffffffffffffffffffffffff1673ffffffffffffffffffffffffffffffffffffffff1681526020019081526020015f205f9054906101000a900460ff16155b1561164357600f54821115611595576040517f08c379a000000000000000000000000000000000000000000000000000000000815260040161158c90612ba3565b60405180910390fd5b601054826115a28561085a565b6115ac9190612bc1565b11156115ed576040517f08c379a00000000000000000000000000000000000000000000000000000000081526004016115e490612c3e565b60405180910390fd5b611629606461161b600a54600e54116116085760065461160c565b6008545b85611e4e90919063ffffffff16565b611ec590919063ffffffff16565b9050600e5f81548092919061163d90612c5c565b91905055505b60145f9054906101000a900473ffffffffffffffffffffffffffffffffffffffff1673ffffffffffffffffffffffffffffffffffffffff168373ffffffffffffffffffffffffffffffffffffffff161480156116cb57503073ffffffffffffffffffffffffffffffffffffffff168473ffffffffffffffffffffffffffffffffffffffff1614155b1561170f5761170c60646116fe600b54600e54116116eb576007546116ef565b6009545b85611e4e90919063ffffffff16565b611ec590919063ffffffff16565b90505b5f6117193061085a565b9050601460159054906101000a900460ff16158015611784575060145f9054906101000a900473ffffffffffffffffffffffffffffffffffffffff1673ffffffffffffffffffffffffffffffffffffffff168473ffffffffffffffffffffffffffffffffffffffff16145b801561179c5750601460169054906101000a900460ff165b80156117a9575060115481115b80156117b85750600c54600e54115b15611867576016544311156117cf575f6015819055505b600360155410611814576040517f08c379a000000000000000000000000000000000000000000000000000000000815260040161180b90612ced565b60405180910390fd5b61183161182c8461182784601254611f0e565b611f0e565b611b7b565b5f4790505f8111156118475761184647611de6565b5b60155f81548092919061185990612c5c565b919050555043601681905550505b505b5f811115611968576118c18160015f3073ffffffffffffffffffffffffffffffffffffffff1673ffffffffffffffffffffffffffffffffffffffff1681526020019081526020015f2054611f2690919063ffffffff16565b60015f3073ffffffffffffffffffffffffffffffffffffffff1673ffffffffffffffffffffffffffffffffffffffff1681526020019081526020015f20819055503073ffffffffffffffffffffffffffffffffffffffff168473ffffffffffffffffffffffffffffffffffffffff167fddf252ad1be2c89b69c2b068fc378daa952ba7f163c4a11628f55a4df523b3ef8360405161195f91906121f5565b60405180910390a35b6119b88260015f8773ffffffffffffffffffffffffffffffffffffffff1673ffffffffffffffffffffffffffffffffffffffff1681526020019081526020015f2054611f8390919063ffffffff16565b60015f8673ffffffffffffffffffffffffffffffffffffffff1673ffffffffffffffffffffffffffffffffffffffff1681526020019081526020015f2081905550611a5b611a0f8284611f8390919063ffffffff16565b60015f8673ffffffffffffffffffffffffffffffffffffffff1673ffffffffffffffffffffffffffffffffffffffff1681526020019081526020015f2054611f2690919063ffffffff16565b60015f8573ffffffffffffffffffffffffffffffffffffffff1673ffffffffffffffffffffffffffffffffffffffff1681526020019081526020015f20819055508273ffffffffffffffffffffffffffffffffffffffff168473ffffffffffffffffffffffffffffffffffffffff167fddf252ad1be2c89b69c2b068fc378daa952ba7f163c4a11628f55a4df523b3ef611afe8486611f8390919063ffffffff16565b604051611b0b91906121f5565b60405180910390a350505050565b5f838311158290611b60576040517f08c379a0000000000000000000000000000000000000000000000000000000008152600401611b5791906120b7565b60405180910390fd5b505f8385611b6e9190612d0b565b9050809150509392505050565b6001601460156101000a81548160ff0219169083151502179055505f600267ffffffffffffffff811115611bb257611bb16122c1565b5b604051908082528060200260200182016040528015611be05781602001602082028036833780820191505090505b50905030815f81518110611bf757611bf66126f9565b5b602002602001019073ffffffffffffffffffffffffffffffffffffffff16908173ffffffffffffffffffffffffffffffffffffffff168152505060135f9054906101000a900473ffffffffffffffffffffffffffffffffffffffff1673ffffffffffffffffffffffffffffffffffffffff1663ad5c46486040518163ffffffff1660e01b8152600401602060405180830381865afa158015611c9b573d5f803e3d5ffd5b505050506040513d601f19601f82011682018060405250810190611cbf9190612d52565b81600181518110611cd357611cd26126f9565b5b602002602001019073ffffffffffffffffffffffffffffffffffffffff16908173ffffffffffffffffffffffffffffffffffffffff1681525050611d393060135f9054906101000a900473ffffffffffffffffffffffffffffffffffffffff1684610fcf565b60135f9054906101000a900473ffffffffffffffffffffffffffffffffffffffff1673ffffffffffffffffffffffffffffffffffffffff1663791ac947835f8430426040518663ffffffff1660e01b8152600401611d9b959493929190612e34565b5f604051808303815f87803b158015611db2575f80fd5b505af1158015611dc4573d5f803e3d5ffd5b50505050505f601460156101000a81548160ff02191690831515021790555050565b60055f9054906101000a900473ffffffffffffffffffffffffffffffffffffffff1673ffffffffffffffffffffffffffffffffffffffff166108fc8290811502906040515f60405180830381858888f19350505050158015611e4a573d5f803e3d5ffd5b5050565b5f808303611e5e575f9050611ebf565b5f8284611e6b9190612650565b9050828482611e7a9190612eb9565b14611eba576040517f08c379a0000000000000000000000000000000000000000000000000000000008152600401611eb190612f59565b60405180910390fd5b809150505b92915050565b5f611f0683836040518060400160405280601a81526020017f536166654d6174683a206469766973696f6e206279207a65726f000000000000815250611fcc565b905092915050565b5f818311611f1c5782611f1e565b815b905092915050565b5f808284611f349190612bc1565b905083811015611f79576040517f08c379a0000000000000000000000000000000000000000000000000000000008152600401611f7090612fc1565b60405180910390fd5b8091505092915050565b5f611fc483836040518060400160405280601e81526020017f536166654d6174683a207375627472616374696f6e206f766572666c6f770000815250611b19565b905092915050565b5f8083118290612012576040517f08c379a000000000000000000000000000000000000000000000000000000000815260040161200991906120b7565b60405180910390fd5b505f83856120209190612eb9565b9050809150509392505050565b5f81519050919050565b5f82825260208201905092915050565b5f5b83811015612064578082015181840152602081019050612049565b5f8484015250505050565b5f601f19601f8301169050919050565b5f6120898261202d565b6120938185612037565b93506120a3818560208601612047565b6120ac8161206f565b840191505092915050565b5f6020820190508181035f8301526120cf818461207f565b905092915050565b5f604051905090565b5f80fd5b5f80fd5b5f73ffffffffffffffffffffffffffffffffffffffff82169050919050565b5f612111826120e8565b9050919050565b61212181612107565b811461212b575f80fd5b50565b5f8135905061213c81612118565b92915050565b5f819050919050565b61215481612142565b811461215e575f80fd5b50565b5f8135905061216f8161214b565b92915050565b5f806040838503121561218b5761218a6120e0565b5b5f6121988582860161212e565b92505060206121a985828601612161565b9150509250929050565b5f8115159050919050565b6121c7816121b3565b82525050565b5f6020820190506121e05f8301846121be565b92915050565b6121ef81612142565b82525050565b5f6020820190506122085f8301846121e6565b92915050565b5f805f60608486031215612225576122246120e0565b5b5f6122328682870161212e565b93505060206122438682870161212e565b925050604061225486828701612161565b9150509250925092565b5f60ff82169050919050565b6122738161225e565b82525050565b5f60208201905061228c5f83018461226a565b92915050565b5f602082840312156122a7576122a66120e0565b5b5f6122b48482850161212e565b91505092915050565b5f80fd5b7f4e487b71000000000000000000000000000000000000000000000000000000005f52604160045260245ffd5b6122f78261206f565b810181811067ffffffffffffffff82111715612316576123156122c1565b5b80604052505050565b5f6123286120d7565b905061233482826122ee565b919050565b5f67ffffffffffffffff821115612353576123526122c1565b5b602082029050602081019050919050565b5f80fd5b5f61237a61237584612339565b61231f565b9050808382526020820190506020840283018581111561239d5761239c612364565b5b835b818110156123c657806123b2888261212e565b84526020840193505060208101905061239f565b5050509392505050565b5f82601f8301126123e4576123e36122bd565b5b81356123f4848260208601612368565b91505092915050565b5f60208284031215612412576124116120e0565b5b5f82013567ffffffffffffffff81111561242f5761242e6120e4565b5b61243b848285016123d0565b91505092915050565b61244d81612107565b82525050565b5f6020820190506124665f830184612444565b92915050565b5f8060408385031215612482576124816120e0565b5b5f61248f8582860161212e565b92505060206124a08582860161212e565b9150509250929050565b7f4e487b71000000000000000000000000000000000000000000000000000000005f52601160045260245ffd5b5f8160011c9050919050565b5f808291508390505b600185111561252c57808604811115612508576125076124aa565b5b60018516156125175780820291505b8081029050612525856124d7565b94506124ec565b94509492505050565b5f8261254457600190506125ff565b81612551575f90506125ff565b81600181146125675760028114612571576125a0565b60019150506125ff565b60ff841115612583576125826124aa565b5b8360020a91508482111561259a576125996124aa565b5b506125ff565b5060208310610133831016604e8410600b84101617156125d55782820a9050838111156125d0576125cf6124aa565b5b6125ff565b6125e284848460016124e3565b925090508184048111156125f9576125f86124aa565b5b81810290505b9392505050565b5f61261082612142565b915061261b8361225e565b92506126487fffffffffffffffffffffffffffffffffffffffffffffffffffffffffffffffff8484612535565b905092915050565b5f61265a82612142565b915061266583612142565b925082820261267381612142565b9150828204841483151761268a576126896124aa565b5b5092915050565b7f4f776e61626c653a2063616c6c6572206973206e6f7420746865206f776e65725f82015250565b5f6126c5602083612037565b91506126d082612691565b602082019050919050565b5f6020820190508181035f8301526126f2816126b9565b9050919050565b7f4e487b71000000000000000000000000000000000000000000000000000000005f52603260045260245ffd5b7f74726164696e6720697320616c7265616479206f70656e0000000000000000005f82015250565b5f61275a601783612037565b915061276582612726565b602082019050919050565b5f6020820190508181035f8301526127878161274e565b9050919050565b5f819050919050565b5f819050919050565b5f6127ba6127b56127b08461278e565b612797565b612142565b9050919050565b6127ca816127a0565b82525050565b5f60c0820190506127e35f830189612444565b6127f060208301886121e6565b6127fd60408301876127c1565b61280a60608301866127c1565b6128176080830185612444565b61282460a08301846121e6565b979650505050505050565b5f8151905061283d8161214b565b92915050565b5f805f6060848603121561285a576128596120e0565b5b5f6128678682870161282f565b93505060206128788682870161282f565b92505060406128898682870161282f565b9150509250925092565b7f45524332303a20617070726f76652066726f6d20746865207a65726f206164645f8201527f7265737300000000000000000000000000000000000000000000000000000000602082015250565b5f6128ed602483612037565b91506128f882612893565b604082019050919050565b5f6020820190508181035f83015261291a816128e1565b9050919050565b7f45524332303a20617070726f766520746f20746865207a65726f2061646472655f8201527f7373000000000000000000000000000000000000000000000000000000000000602082015250565b5f61297b602283612037565b915061298682612921565b604082019050919050565b5f6020820190508181035f8301526129a88161296f565b9050919050565b7f45524332303a207472616e736665722066726f6d20746865207a65726f2061645f8201527f6472657373000000000000000000000000000000000000000000000000000000602082015250565b5f612a09602583612037565b9150612a14826129af565b604082019050919050565b5f6020820190508181035f830152612a36816129fd565b9050919050565b7f45524332303a207472616e7366657220746f20746865207a65726f20616464725f8201527f6573730000000000000000000000000000000000000000000000000000000000602082015250565b5f612a97602383612037565b9150612aa282612a3d565b604082019050919050565b5f6020820190508181035f830152612ac481612a8b565b9050919050565b7f5472616e7366657220616d6f756e74206d7573742062652067726561746572205f8201527f7468616e207a65726f0000000000000000000000000000000000000000000000602082015250565b5f612b25602983612037565b9150612b3082612acb565b604082019050919050565b5f6020820190508181035f830152612b5281612b19565b9050919050565b7f4578636565647320746865205f6d61785478416d6f756e742e000000000000005f82015250565b5f612b8d601983612037565b9150612b9882612b59565b602082019050919050565b5f6020820190508181035f830152612bba81612b81565b9050919050565b5f612bcb82612142565b9150612bd683612142565b9250828201905080821115612bee57612bed6124aa565b5b92915050565b7f4578636565647320746865206d617857616c6c657453697a652e0000000000005f82015250565b5f612c28601a83612037565b9150612c3382612bf4565b602082019050919050565b5f6020820190508181035f830152612c5581612c1c565b9050919050565b5f612c6682612142565b91507fffffffffffffffffffffffffffffffffffffffffffffffffffffffffffffffff8203612c9857612c976124aa565b5b600182019050919050565b7f4f6e6c7920332073656c6c732070657220626c6f636b210000000000000000005f82015250565b5f612cd7601783612037565b9150612ce282612ca3565b602082019050919050565b5f6020820190508181035f830152612d0481612ccb565b9050919050565b5f612d1582612142565b9150612d2083612142565b9250828203905081811115612d3857612d376124aa565b5b92915050565b5f81519050612d4c81612118565b92915050565b5f60208284031215612d6757612d666120e0565b5b5f612d7484828501612d3e565b91505092915050565b5f81519050919050565b5f82825260208201905092915050565b5f819050602082019050919050565b612daf81612107565b82525050565b5f612dc08383612da6565b60208301905092915050565b5f602082019050919050565b5f612de282612d7d565b612dec8185612d87565b9350612df783612d97565b805f5b83811015612e27578151612e0e8882612db5565b9750612e1983612dcc565b925050600181019050612dfa565b5085935050505092915050565b5f60a082019050612e475f8301886121e6565b612e5460208301876127c1565b8181036040830152612e668186612dd8565b9050612e756060830185612444565b612e8260808301846121e6565b9695505050505050565b7f4e487b71000000000000000000000000000000000000000000000000000000005f52601260045260245ffd5b5f612ec382612142565b9150612ece83612142565b925082612ede57612edd612e8c565b5b828204905092915050565b7f536166654d6174683a206d756c7469706c69636174696f6e206f766572666c6f5f8201527f7700000000000000000000000000000000000000000000000000000000000000602082015250565b5f612f43602183612037565b9150612f4e82612ee9565b604082019050919050565b5f6020820190508181035f830152612f7081612f37565b9050919050565b7f536166654d6174683a206164646974696f6e206f766572666c6f7700000000005f82015250565b5f612fab601b83612037565b9150612fb682612f77565b602082019050919050565b5f6020820190508181035f830152612fd881612f9f565b905091905056fe45524332303a207472616e7366657220616d6f756e74206578636565647320616c6c6f77616e6365a2646970667358221220783334406429a8aa5fdd5a22b784882e7a84cec90bea84cc0cb7c5a221acaaf264736f6c63430008170033",
					"opcodes": "PUSH1 0x80 PUSH1 0x40 MSTORE PUSH1 0x14 PUSH1 0x6 SSTORE PUSH1 0x14 PUSH1 0x7 SSTORE PUSH0 PUSH1 0x8 SSTORE PUSH0 PUSH1 0x9 SSTORE PUSH1 0xA DUP1 SSTORE PUSH1 0xA PUSH1 0xB SSTORE PUSH1 0xA PUSH1 0xC SSTORE PUSH0 PUSH1 0xD SSTORE PUSH0 PUSH1 0xE SSTORE PUSH1 0x64 PUSH1 0x9 PUSH1 0xA PUSH3 0x3E SWAP2 SWAP1 PUSH3 0x989 JUMP JUMPDEST PUSH4 0x3B9ACA00 PUSH3 0x4F SWAP2 SWAP1 PUSH3 0x9D9 JUMP JUMPDEST PUSH3 0x5B SWAP2 SWAP1 PUSH3 0xA50 JUMP JUMPDEST PUSH1 0x1 PUSH3 0x69 SWAP2 SWAP1 PUSH3 0x9D9 JUMP JUMPDEST PUSH1 0xF SSTORE PUSH1 0x64 PUSH1 0x9 PUSH1 0xA PUSH3 0x7E SWAP2 SWAP1 PUSH3 0x989 JUMP JUMPDEST PUSH4 0x3B9ACA00 PUSH3 0x8F SWAP2 SWAP1 PUSH3 0x9D9 JUMP JUMPDEST PUSH3 0x9B SWAP2 SWAP1 PUSH3 0xA50 JUMP JUMPDEST PUSH1 0x1 PUSH3 0xA9 SWAP2 SWAP1 PUSH3 0x9D9 JUMP JUMPDEST PUSH1 0x10 SSTORE PUSH2 0x3E8 PUSH1 0x9 PUSH1 0xA PUSH3 0xBF SWAP2 SWAP1 PUSH3 0x989 JUMP JUMPDEST PUSH4 0x3B9ACA00 PUSH3 0xD0 SWAP2 SWAP1 PUSH3 0x9D9 JUMP JUMPDEST PUSH3 0xDC SWAP2 SWAP1 PUSH3 0xA50 JUMP JUMPDEST PUSH1 0x1 PUSH3 0xEA SWAP2 SWAP1 PUSH3 0x9D9 JUMP JUMPDEST PUSH1 0x11 SSTORE PUSH1 0x64 PUSH1 0x9 PUSH1 0xA PUSH3 0xFF SWAP2 SWAP1 PUSH3 0x989 JUMP JUMPDEST PUSH4 0x3B9ACA00 PUSH3 0x110 SWAP2 SWAP1 PUSH3 0x9D9 JUMP JUMPDEST PUSH3 0x11C SWAP2 SWAP1 PUSH3 0xA50 JUMP JUMPDEST PUSH1 0x1 PUSH3 0x12A SWAP2 SWAP1 PUSH3 0x9D9 JUMP JUMPDEST PUSH1 0x12 SSTORE PUSH0 PUSH1 0x14 PUSH1 0x15 PUSH2 0x100 EXP DUP2 SLOAD DUP2 PUSH1 0xFF MUL NOT AND SWAP1 DUP4 ISZERO ISZERO MUL OR SWAP1 SSTORE POP PUSH0 PUSH1 0x14 PUSH1 0x16 PUSH2 0x100 EXP DUP2 SLOAD DUP2 PUSH1 0xFF MUL NOT AND SWAP1 DUP4 ISZERO ISZERO MUL OR SWAP1 SSTORE POP PUSH0 PUSH1 0x15 SSTORE PUSH0 PUSH1 0x16 SSTORE CALLVALUE DUP1 ISZERO PUSH3 0x175 JUMPI PUSH0 DUP1 REVERT JUMPDEST POP PUSH0 PUSH3 0x187 PUSH3 0x7C9 PUSH1 0x20 SHL PUSH1 0x20 SHR JUMP JUMPDEST SWAP1 POP DUP1 PUSH0 DUP1 PUSH2 0x100 EXP DUP2 SLOAD DUP2 PUSH20 0xFFFFFFFFFFFFFFFFFFFFFFFFFFFFFFFFFFFFFFFF MUL NOT AND SWAP1 DUP4 PUSH20 0xFFFFFFFFFFFFFFFFFFFFFFFFFFFFFFFFFFFFFFFF AND MUL OR SWAP1 SSTORE POP DUP1 PUSH20 0xFFFFFFFFFFFFFFFFFFFFFFFFFFFFFFFFFFFFFFFF AND PUSH0 PUSH20 0xFFFFFFFFFFFFFFFFFFFFFFFFFFFFFFFFFFFFFFFF AND PUSH32 0x8BE0079C531659141344CD1FD0A4F28419497F9722A3DAAFE3B4186F6B6457E0 PUSH1 0x40 MLOAD PUSH1 0x40 MLOAD DUP1 SWAP2 SUB SWAP1 LOG3 POP PUSH20 0x411AA08CCD060D1101223397B3711B71199E67B5 PUSH1 0x5 PUSH0 PUSH2 0x100 EXP DUP2 SLOAD DUP2 PUSH20 0xFFFFFFFFFFFFFFFFFFFFFFFFFFFFFFFFFFFFFFFF MUL NOT AND SWAP1 DUP4 PUSH20 0xFFFFFFFFFFFFFFFFFFFFFFFFFFFFFFFFFFFFFFFF AND MUL OR SWAP1 SSTORE POP PUSH1 0x9 PUSH1 0xA PUSH3 0x287 SWAP2 SWAP1 PUSH3 0x989 JUMP JUMPDEST PUSH4 0x3B9ACA00 PUSH3 0x298 SWAP2 SWAP1 PUSH3 0x9D9 JUMP JUMPDEST PUSH1 0x1 PUSH0 PUSH3 0x2AB PUSH3 0x7C9 PUSH1 0x20 SHL PUSH1 0x20 SHR JUMP JUMPDEST PUSH20 0xFFFFFFFFFFFFFFFFFFFFFFFFFFFFFFFFFFFFFFFF AND PUSH20 0xFFFFFFFFFFFFFFFFFFFFFFFFFFFFFFFFFFFFFFFF AND DUP2 MSTORE PUSH1 0x20 ADD SWAP1 DUP2 MSTORE PUSH1 0x20 ADD PUSH0 KECCAK256 DUP2 SWAP1 SSTORE POP PUSH1 0x1 PUSH1 0x3 PUSH0 PUSH3 0x2FD PUSH3 0x7D0 PUSH1 0x20 SHL PUSH1 0x20 SHR JUMP JUMPDEST PUSH20 0xFFFFFFFFFFFFFFFFFFFFFFFFFFFFFFFFFFFFFFFF AND PUSH20 0xFFFFFFFFFFFFFFFFFFFFFFFFFFFFFFFFFFFFFFFF AND DUP2 MSTORE PUSH1 0x20 ADD SWAP1 DUP2 MSTORE PUSH1 0x20 ADD PUSH0 KECCAK256 PUSH0 PUSH2 0x100 EXP DUP2 SLOAD DUP2 PUSH1 0xFF MUL NOT AND SWAP1 DUP4 ISZERO ISZERO MUL OR SWAP1 SSTORE POP PUSH1 0x1 PUSH1 0x3 PUSH0 ADDRESS PUSH20 0xFFFFFFFFFFFFFFFFFFFFFFFFFFFFFFFFFFFFFFFF AND PUSH20 0xFFFFFFFFFFFFFFFFFFFFFFFFFFFFFFFFFFFFFFFF AND DUP2 MSTORE PUSH1 0x20 ADD SWAP1 DUP2 MSTORE PUSH1 0x20 ADD PUSH0 KECCAK256 PUSH0 PUSH2 0x100 EXP DUP2 SLOAD DUP2 PUSH1 0xFF MUL NOT AND SWAP1 DUP4 ISZERO ISZERO MUL OR SWAP1 SSTORE POP PUSH1 0x1 PUSH1 0x3 PUSH0 PUSH1 0x5 PUSH0 SWAP1 SLOAD SWAP1 PUSH2 0x100 EXP SWAP1 DIV PUSH20 0xFFFFFFFFFFFFFFFFFFFFFFFFFFFFFFFFFFFFFFFF AND PUSH20 0xFFFFFFFFFFFFFFFFFFFFFFFFFFFFFFFFFFFFFFFF AND PUSH20 0xFFFFFFFFFFFFFFFFFFFFFFFFFFFFFFFFFFFFFFFF AND DUP2 MSTORE PUSH1 0x20 ADD SWAP1 DUP2 MSTORE PUSH1 0x20 ADD PUSH0 KECCAK256 PUSH0 PUSH2 0x100 EXP DUP2 SLOAD DUP2 PUSH1 0xFF MUL NOT AND SWAP1 DUP4 ISZERO ISZERO MUL OR SWAP1 SSTORE POP PUSH20 0x7A250D5630B4CF539739DF2C5DACB4C659F2488D PUSH1 0x13 PUSH0 PUSH2 0x100 EXP DUP2 SLOAD DUP2 PUSH20 0xFFFFFFFFFFFFFFFFFFFFFFFFFFFFFFFFFFFFFFFF MUL NOT AND SWAP1 DUP4 PUSH20 0xFFFFFFFFFFFFFFFFFFFFFFFFFFFFFFFFFFFFFFFF AND MUL OR SWAP1 SSTORE POP PUSH1 0x13 PUSH0 SWAP1 SLOAD SWAP1 PUSH2 0x100 EXP SWAP1 DIV PUSH20 0xFFFFFFFFFFFFFFFFFFFFFFFFFFFFFFFFFFFFFFFF AND PUSH20 0xFFFFFFFFFFFFFFFFFFFFFFFFFFFFFFFFFFFFFFFF AND PUSH4 0xC45A0155 PUSH1 0x40 MLOAD DUP2 PUSH4 0xFFFFFFFF AND PUSH1 0xE0 SHL DUP2 MSTORE PUSH1 0x4 ADD PUSH1 0x20 PUSH1 0x40 MLOAD DUP1 DUP4 SUB DUP2 DUP7 GAS STATICCALL ISZERO DUP1 ISZERO PUSH3 0x4D6 JUMPI RETURNDATASIZE PUSH0 DUP1 RETURNDATACOPY RETURNDATASIZE PUSH0 REVERT JUMPDEST POP POP POP POP PUSH1 0x40 MLOAD RETURNDATASIZE PUSH1 0x1F NOT PUSH1 0x1F DUP3 ADD AND DUP3 ADD DUP1 PUSH1 0x40 MSTORE POP DUP2 ADD SWAP1 PUSH3 0x4FC SWAP2 SWAP1 PUSH3 0xAEC JUMP JUMPDEST PUSH20 0xFFFFFFFFFFFFFFFFFFFFFFFFFFFFFFFFFFFFFFFF AND PUSH4 0xC9C65396 ADDRESS PUSH1 0x13 PUSH0 SWAP1 SLOAD SWAP1 PUSH2 0x100 EXP SWAP1 DIV PUSH20 0xFFFFFFFFFFFFFFFFFFFFFFFFFFFFFFFFFFFFFFFF AND PUSH20 0xFFFFFFFFFFFFFFFFFFFFFFFFFFFFFFFFFFFFFFFF AND PUSH4 0xAD5C4648 PUSH1 0x40 MLOAD DUP2 PUSH4 0xFFFFFFFF AND PUSH1 0xE0 SHL DUP2 MSTORE PUSH1 0x4 ADD PUSH1 0x20 PUSH1 0x40 MLOAD DUP1 DUP4 SUB DUP2 DUP7 GAS STATICCALL ISZERO DUP1 ISZERO PUSH3 0x583 JUMPI RETURNDATASIZE PUSH0 DUP1 RETURNDATACOPY RETURNDATASIZE PUSH0 REVERT JUMPDEST POP POP POP POP PUSH1 0x40 MLOAD RETURNDATASIZE PUSH1 0x1F NOT PUSH1 0x1F DUP3 ADD AND DUP3 ADD DUP1 PUSH1 0x40 MSTORE POP DUP2 ADD SWAP1 PUSH3 0x5A9 SWAP2 SWAP1 PUSH3 0xAEC JUMP JUMPDEST PUSH1 0x40 MLOAD DUP4 PUSH4 0xFFFFFFFF AND PUSH1 0xE0 SHL DUP2 MSTORE PUSH1 0x4 ADD PUSH3 0x5C8 SWAP3 SWAP2 SWAP1 PUSH3 0xB2D JUMP JUMPDEST PUSH1 0x20 PUSH1 0x40 MLOAD DUP1 DUP4 SUB DUP2 PUSH0 DUP8 GAS CALL ISZERO DUP1 ISZERO PUSH3 0x5E5 JUMPI RETURNDATASIZE PUSH0 DUP1 RETURNDATACOPY RETURNDATASIZE PUSH0 REVERT JUMPDEST POP POP POP POP PUSH1 0x40 MLOAD RETURNDATASIZE PUSH1 0x1F NOT PUSH1 0x1F DUP3 ADD AND DUP3 ADD DUP1 PUSH1 0x40 MSTORE POP DUP2 ADD SWAP1 PUSH3 0x60B SWAP2 SWAP1 PUSH3 0xAEC JUMP JUMPDEST PUSH1 0x14 PUSH0 PUSH2 0x100 EXP DUP2 SLOAD DUP2 PUSH20 0xFFFFFFFFFFFFFFFFFFFFFFFFFFFFFFFFFFFFFFFF MUL NOT AND SWAP1 DUP4 PUSH20 0xFFFFFFFFFFFFFFFFFFFFFFFFFFFFFFFFFFFFFFFF AND MUL OR SWAP1 SSTORE POP PUSH1 0x14 PUSH0 SWAP1 SLOAD SWAP1 PUSH2 0x100 EXP SWAP1 DIV PUSH20 0xFFFFFFFFFFFFFFFFFFFFFFFFFFFFFFFFFFFFFFFF AND PUSH20 0xFFFFFFFFFFFFFFFFFFFFFFFFFFFFFFFFFFFFFFFF AND PUSH4 0x95EA7B3 PUSH1 0x13 PUSH0 SWAP1 SLOAD SWAP1 PUSH2 0x100 EXP SWAP1 DIV PUSH20 0xFFFFFFFFFFFFFFFFFFFFFFFFFFFFFFFFFFFFFFFF AND PUSH32 0xFFFFFFFFFFFFFFFFFFFFFFFFFFFFFFFFFFFFFFFFFFFFFFFFFFFFFFFFFFFFFFFF PUSH1 0x40 MLOAD DUP4 PUSH4 0xFFFFFFFF AND PUSH1 0xE0 SHL DUP2 MSTORE PUSH1 0x4 ADD PUSH3 0x6E9 SWAP3 SWAP2 SWAP1 PUSH3 0xB69 JUMP JUMPDEST PUSH1 0x20 PUSH1 0x40 MLOAD DUP1 DUP4 SUB DUP2 PUSH0 DUP8 GAS CALL ISZERO DUP1 ISZERO PUSH3 0x706 JUMPI RETURNDATASIZE PUSH0 DUP1 RETURNDATACOPY RETURNDATASIZE PUSH0 REVERT JUMPDEST POP POP POP POP PUSH1 0x40 MLOAD RETURNDATASIZE PUSH1 0x1F NOT PUSH1 0x1F DUP3 ADD AND DUP3 ADD DUP1 PUSH1 0x40 MSTORE POP DUP2 ADD SWAP1 PUSH3 0x72C SWAP2 SWAP1 PUSH3 0xBCE JUMP JUMPDEST POP PUSH3 0x73D PUSH3 0x7C9 PUSH1 0x20 SHL PUSH1 0x20 SHR JUMP JUMPDEST PUSH20 0xFFFFFFFFFFFFFFFFFFFFFFFFFFFFFFFFFFFFFFFF AND PUSH0 PUSH20 0xFFFFFFFFFFFFFFFFFFFFFFFFFFFFFFFFFFFFFFFF AND PUSH32 0xDDF252AD1BE2C89B69C2B068FC378DAA952BA7F163C4A11628F55A4DF523B3EF PUSH1 0x9 PUSH1 0xA PUSH3 0x79B SWAP2 SWAP1 PUSH3 0x989 JUMP JUMPDEST PUSH4 0x3B9ACA00 PUSH3 0x7AC SWAP2 SWAP1 PUSH3 0x9D9 JUMP JUMPDEST PUSH1 0x40 MLOAD PUSH3 0x7BB SWAP2 SWAP1 PUSH3 0xBFE JUMP JUMPDEST PUSH1 0x40 MLOAD DUP1 SWAP2 SUB SWAP1 LOG3 PUSH3 0xC19 JUMP JUMPDEST PUSH0 CALLER SWAP1 POP SWAP1 JUMP JUMPDEST PUSH0 DUP1 PUSH0 SWAP1 SLOAD SWAP1 PUSH2 0x100 EXP SWAP1 DIV PUSH20 0xFFFFFFFFFFFFFFFFFFFFFFFFFFFFFFFFFFFFFFFF AND SWAP1 POP SWAP1 JUMP JUMPDEST PUSH32 0x4E487B7100000000000000000000000000000000000000000000000000000000 PUSH0 MSTORE PUSH1 0x11 PUSH1 0x4 MSTORE PUSH1 0x24 PUSH0 REVERT JUMPDEST PUSH0 DUP2 PUSH1 0x1 SHR SWAP1 POP SWAP2 SWAP1 POP JUMP JUMPDEST PUSH0 DUP1 DUP3 SWAP2 POP DUP4 SWAP1 POP JUMPDEST PUSH1 0x1 DUP6 GT ISZERO PUSH3 0x881 JUMPI DUP1 DUP7 DIV DUP2 GT ISZERO PUSH3 0x859 JUMPI PUSH3 0x858 PUSH3 0x7F7 JUMP JUMPDEST JUMPDEST PUSH1 0x1 DUP6 AND ISZERO PUSH3 0x869 JUMPI DUP1 DUP3 MUL SWAP2 POP JUMPDEST DUP1 DUP2 MUL SWAP1 POP PUSH3 0x879 DUP6 PUSH3 0x824 JUMP JUMPDEST SWAP5 POP PUSH3 0x839 JUMP JUMPDEST SWAP5 POP SWAP5 SWAP3 POP POP POP JUMP JUMPDEST PUSH0 DUP3 PUSH3 0x89B JUMPI PUSH1 0x1 SWAP1 POP PUSH3 0x96D JUMP JUMPDEST DUP2 PUSH3 0x8AA JUMPI PUSH0 SWAP1 POP PUSH3 0x96D JUMP JUMPDEST DUP2 PUSH1 0x1 DUP2 EQ PUSH3 0x8C3 JUMPI PUSH1 0x2 DUP2 EQ PUSH3 0x8CE JUMPI PUSH3 0x904 JUMP JUMPDEST PUSH1 0x1 SWAP2 POP POP PUSH3 0x96D JUMP JUMPDEST PUSH1 0xFF DUP5 GT ISZERO PUSH3 0x8E3 JUMPI PUSH3 0x8E2 PUSH3 0x7F7 JUMP JUMPDEST JUMPDEST DUP4 PUSH1 0x2 EXP SWAP2 POP DUP5 DUP3 GT ISZERO PUSH3 0x8FD JUMPI PUSH3 0x8FC PUSH3 0x7F7 JUMP JUMPDEST JUMPDEST POP PUSH3 0x96D JUMP JUMPDEST POP PUSH1 0x20 DUP4 LT PUSH2 0x133 DUP4 LT AND PUSH1 0x4E DUP5 LT PUSH1 0xB DUP5 LT AND OR ISZERO PUSH3 0x93E JUMPI DUP3 DUP3 EXP SWAP1 POP DUP4 DUP2 GT ISZERO PUSH3 0x938 JUMPI PUSH3 0x937 PUSH3 0x7F7 JUMP JUMPDEST JUMPDEST PUSH3 0x96D JUMP JUMPDEST PUSH3 0x94D DUP5 DUP5 DUP5 PUSH1 0x1 PUSH3 0x830 JUMP JUMPDEST SWAP3 POP SWAP1 POP DUP2 DUP5 DIV DUP2 GT ISZERO PUSH3 0x967 JUMPI PUSH3 0x966 PUSH3 0x7F7 JUMP JUMPDEST JUMPDEST DUP2 DUP2 MUL SWAP1 POP JUMPDEST SWAP4 SWAP3 POP POP POP JUMP JUMPDEST PUSH0 DUP2 SWAP1 POP SWAP2 SWAP1 POP JUMP JUMPDEST PUSH0 PUSH1 0xFF DUP3 AND SWAP1 POP SWAP2 SWAP1 POP JUMP JUMPDEST PUSH0 PUSH3 0x995 DUP3 PUSH3 0x974 JUMP JUMPDEST SWAP2 POP PUSH3 0x9A2 DUP4 PUSH3 0x97D JUMP JUMPDEST SWAP3 POP PUSH3 0x9D1 PUSH32 0xFFFFFFFFFFFFFFFFFFFFFFFFFFFFFFFFFFFFFFFFFFFFFFFFFFFFFFFFFFFFFFFF DUP5 DUP5 PUSH3 0x88A JUMP JUMPDEST SWAP1 POP SWAP3 SWAP2 POP POP JUMP JUMPDEST PUSH0 PUSH3 0x9E5 DUP3 PUSH3 0x974 JUMP JUMPDEST SWAP2 POP PUSH3 0x9F2 DUP4 PUSH3 0x974 JUMP JUMPDEST SWAP3 POP DUP3 DUP3 MUL PUSH3 0xA02 DUP2 PUSH3 0x974 JUMP JUMPDEST SWAP2 POP DUP3 DUP3 DIV DUP5 EQ DUP4 ISZERO OR PUSH3 0xA1C JUMPI PUSH3 0xA1B PUSH3 0x7F7 JUMP JUMPDEST JUMPDEST POP SWAP3 SWAP2 POP POP JUMP JUMPDEST PUSH32 0x4E487B7100000000000000000000000000000000000000000000000000000000 PUSH0 MSTORE PUSH1 0x12 PUSH1 0x4 MSTORE PUSH1 0x24 PUSH0 REVERT JUMPDEST PUSH0 PUSH3 0xA5C DUP3 PUSH3 0x974 JUMP JUMPDEST SWAP2 POP PUSH3 0xA69 DUP4 PUSH3 0x974 JUMP JUMPDEST SWAP3 POP DUP3 PUSH3 0xA7C JUMPI PUSH3 0xA7B PUSH3 0xA23 JUMP JUMPDEST JUMPDEST DUP3 DUP3 DIV SWAP1 POP SWAP3 SWAP2 POP POP JUMP JUMPDEST PUSH0 DUP1 REVERT JUMPDEST PUSH0 PUSH20 0xFFFFFFFFFFFFFFFFFFFFFFFFFFFFFFFFFFFFFFFF DUP3 AND SWAP1 POP SWAP2 SWAP1 POP JUMP JUMPDEST PUSH0 PUSH3 0xAB6 DUP3 PUSH3 0xA8B JUMP JUMPDEST SWAP1 POP SWAP2 SWAP1 POP JUMP JUMPDEST PUSH3 0xAC8 DUP2 PUSH3 0xAAA JUMP JUMPDEST DUP2 EQ PUSH3 0xAD3 JUMPI PUSH0 DUP1 REVERT JUMPDEST POP JUMP JUMPDEST PUSH0 DUP2 MLOAD SWAP1 POP PUSH3 0xAE6 DUP2 PUSH3 0xABD JUMP JUMPDEST SWAP3 SWAP2 POP POP JUMP JUMPDEST PUSH0 PUSH1 0x20 DUP3 DUP5 SUB SLT ISZERO PUSH3 0xB04 JUMPI PUSH3 0xB03 PUSH3 0xA87 JUMP JUMPDEST JUMPDEST PUSH0 PUSH3 0xB13 DUP5 DUP3 DUP6 ADD PUSH3 0xAD6 JUMP JUMPDEST SWAP2 POP POP SWAP3 SWAP2 POP POP JUMP JUMPDEST PUSH3 0xB27 DUP2 PUSH3 0xAAA JUMP JUMPDEST DUP3 MSTORE POP POP JUMP JUMPDEST PUSH0 PUSH1 0x40 DUP3 ADD SWAP1 POP PUSH3 0xB42 PUSH0 DUP4 ADD DUP6 PUSH3 0xB1C JUMP JUMPDEST PUSH3 0xB51 PUSH1 0x20 DUP4 ADD DUP5 PUSH3 0xB1C JUMP JUMPDEST SWAP4 SWAP3 POP POP POP JUMP JUMPDEST PUSH3 0xB63 DUP2 PUSH3 0x974 JUMP JUMPDEST DUP3 MSTORE POP POP JUMP JUMPDEST PUSH0 PUSH1 0x40 DUP3 ADD SWAP1 POP PUSH3 0xB7E PUSH0 DUP4 ADD DUP6 PUSH3 0xB1C JUMP JUMPDEST PUSH3 0xB8D PUSH1 0x20 DUP4 ADD DUP5 PUSH3 0xB58 JUMP JUMPDEST SWAP4 SWAP3 POP POP POP JUMP JUMPDEST PUSH0 DUP2 ISZERO ISZERO SWAP1 POP SWAP2 SWAP1 POP JUMP JUMPDEST PUSH3 0xBAA DUP2 PUSH3 0xB94 JUMP JUMPDEST DUP2 EQ PUSH3 0xBB5 JUMPI PUSH0 DUP1 REVERT JUMPDEST POP JUMP JUMPDEST PUSH0 DUP2 MLOAD SWAP1 POP PUSH3 0xBC8 DUP2 PUSH3 0xB9F JUMP JUMPDEST SWAP3 SWAP2 POP POP JUMP JUMPDEST PUSH0 PUSH1 0x20 DUP3 DUP5 SUB SLT ISZERO PUSH3 0xBE6 JUMPI PUSH3 0xBE5 PUSH3 0xA87 JUMP JUMPDEST JUMPDEST PUSH0 PUSH3 0xBF5 DUP5 DUP3 DUP6 ADD PUSH3 0xBB8 JUMP JUMPDEST SWAP2 POP POP SWAP3 SWAP2 POP POP JUMP JUMPDEST PUSH0 PUSH1 0x20 DUP3 ADD SWAP1 POP PUSH3 0xC13 PUSH0 DUP4 ADD DUP5 PUSH3 0xB58 JUMP JUMPDEST SWAP3 SWAP2 POP POP JUMP JUMPDEST PUSH2 0x303D DUP1 PUSH3 0xC27 PUSH0 CODECOPY PUSH0 RETURN INVALID PUSH1 0x80 PUSH1 0x40 MSTORE PUSH1 0x4 CALLDATASIZE LT PUSH2 0x138 JUMPI PUSH0 CALLDATALOAD PUSH1 0xE0 SHR DUP1 PUSH4 0x7D1DB4A5 GT PUSH2 0xAA JUMPI DUP1 PUSH4 0x9B8FE422 GT PUSH2 0x6E JUMPI DUP1 PUSH4 0x9B8FE422 EQ PUSH2 0x3ED JUMPI DUP1 PUSH4 0xA9059CBB EQ PUSH2 0x415 JUMPI DUP1 PUSH4 0xBF474BED EQ PUSH2 0x451 JUMPI DUP1 PUSH4 0xC9567BF9 EQ PUSH2 0x47B JUMPI DUP1 PUSH4 0xDD62ED3E EQ PUSH2 0x491 JUMPI DUP1 PUSH4 0xF4293890 EQ PUSH2 0x4CD JUMPI PUSH2 0x13F JUMP JUMPDEST DUP1 PUSH4 0x7D1DB4A5 EQ PUSH2 0x31D JUMPI DUP1 PUSH4 0x874D9E3B EQ PUSH2 0x347 JUMPI DUP1 PUSH4 0x8DA5CB5B EQ PUSH2 0x36F JUMPI DUP1 PUSH4 0x8F9A55C0 EQ PUSH2 0x399 JUMPI DUP1 PUSH4 0x95D89B41 EQ PUSH2 0x3C3 JUMPI PUSH2 0x13F JUMP JUMPDEST DUP1 PUSH4 0x313CE567 GT PUSH2 0xFC JUMPI DUP1 PUSH4 0x313CE567 EQ PUSH2 0x239 JUMPI DUP1 PUSH4 0x38347FA4 EQ PUSH2 0x263 JUMPI DUP1 PUSH4 0x3BBAC579 EQ PUSH2 0x279 JUMPI DUP1 PUSH4 0x62256589 EQ PUSH2 0x2B5 JUMPI DUP1 PUSH4 0x70A08231 EQ PUSH2 0x2CB JUMPI DUP1 PUSH4 0x715018A6 EQ PUSH2 0x307 JUMPI PUSH2 0x13F JUMP JUMPDEST DUP1 PUSH4 0x6FDDE03 EQ PUSH2 0x143 JUMPI DUP1 PUSH4 0x95EA7B3 EQ PUSH2 0x16D JUMPI DUP1 PUSH4 0xFAEE56F EQ PUSH2 0x1A9 JUMPI DUP1 PUSH4 0x18160DDD EQ PUSH2 0x1D3 JUMPI DUP1 PUSH4 0x23B872DD EQ PUSH2 0x1FD JUMPI PUSH2 0x13F JUMP JUMPDEST CALLDATASIZE PUSH2 0x13F JUMPI STOP JUMPDEST PUSH0 DUP1 REVERT JUMPDEST CALLVALUE DUP1 ISZERO PUSH2 0x14E JUMPI PUSH0 DUP1 REVERT JUMPDEST POP PUSH2 0x157 PUSH2 0x4E3 JUMP JUMPDEST PUSH1 0x40 MLOAD PUSH2 0x164 SWAP2 SWAP1 PUSH2 0x20B7 JUMP JUMPDEST PUSH1 0x40 MLOAD DUP1 SWAP2 SUB SWAP1 RETURN JUMPDEST CALLVALUE DUP1 ISZERO PUSH2 0x178 JUMPI PUSH0 DUP1 REVERT JUMPDEST POP PUSH2 0x193 PUSH1 0x4 DUP1 CALLDATASIZE SUB DUP2 ADD SWAP1 PUSH2 0x18E SWAP2 SWAP1 PUSH2 0x2175 JUMP JUMPDEST PUSH2 0x520 JUMP JUMPDEST PUSH1 0x40 MLOAD PUSH2 0x1A0 SWAP2 SWAP1 PUSH2 0x21CD JUMP JUMPDEST PUSH1 0x40 MLOAD DUP1 SWAP2 SUB SWAP1 RETURN JUMPDEST CALLVALUE DUP1 ISZERO PUSH2 0x1B4 JUMPI PUSH0 DUP1 REVERT JUMPDEST POP PUSH2 0x1BD PUSH2 0x53D JUMP JUMPDEST PUSH1 0x40 MLOAD PUSH2 0x1CA SWAP2 SWAP1 PUSH2 0x21F5 JUMP JUMPDEST PUSH1 0x40 MLOAD DUP1 SWAP2 SUB SWAP1 RETURN JUMPDEST CALLVALUE DUP1 ISZERO PUSH2 0x1DE JUMPI PUSH0 DUP1 REVERT JUMPDEST POP PUSH2 0x1E7 PUSH2 0x543 JUMP JUMPDEST PUSH1 0x40 MLOAD PUSH2 0x1F4 SWAP2 SWAP1 PUSH2 0x21F5 JUMP JUMPDEST PUSH1 0x40 MLOAD DUP1 SWAP2 SUB SWAP1 RETURN JUMPDEST CALLVALUE DUP1 ISZERO PUSH2 0x208 JUMPI PUSH0 DUP1 REVERT JUMPDEST POP PUSH2 0x223 PUSH1 0x4 DUP1 CALLDATASIZE SUB DUP2 ADD SWAP1 PUSH2 0x21E SWAP2 SWAP1 PUSH2 0x220E JUMP JUMPDEST PUSH2 0x566 JUMP JUMPDEST PUSH1 0x40 MLOAD PUSH2 0x230 SWAP2 SWAP1 PUSH2 0x21CD JUMP JUMPDEST PUSH1 0x40 MLOAD DUP1 SWAP2 SUB SWAP1 RETURN JUMPDEST CALLVALUE DUP1 ISZERO PUSH2 0x244 JUMPI PUSH0 DUP1 REVERT JUMPDEST POP PUSH2 0x24D PUSH2 0x63A JUMP JUMPDEST PUSH1 0x40 MLOAD PUSH2 0x25A SWAP2 SWAP1 PUSH2 0x2279 JUMP JUMPDEST PUSH1 0x40 MLOAD DUP1 SWAP2 SUB SWAP1 RETURN JUMPDEST CALLVALUE DUP1 ISZERO PUSH2 0x26E JUMPI PUSH0 DUP1 REVERT JUMPDEST POP PUSH2 0x277 PUSH2 0x642 JUMP JUMPDEST STOP JUMPDEST CALLVALUE DUP1 ISZERO PUSH2 0x284 JUMPI PUSH0 DUP1 REVERT JUMPDEST POP PUSH2 0x29F PUSH1 0x4 DUP1 CALLDATASIZE SUB DUP2 ADD SWAP1 PUSH2 0x29A SWAP2 SWAP1 PUSH2 0x2292 JUMP JUMPDEST PUSH2 0x6D9 JUMP JUMPDEST PUSH1 0x40 MLOAD PUSH2 0x2AC SWAP2 SWAP1 PUSH2 0x21CD JUMP JUMPDEST PUSH1 0x40 MLOAD DUP1 SWAP2 SUB SWAP1 RETURN JUMPDEST CALLVALUE DUP1 ISZERO PUSH2 0x2C0 JUMPI PUSH0 DUP1 REVERT JUMPDEST POP PUSH2 0x2C9 PUSH2 0x72B JUMP JUMPDEST STOP JUMPDEST CALLVALUE DUP1 ISZERO PUSH2 0x2D6 JUMPI PUSH0 DUP1 REVERT JUMPDEST POP PUSH2 0x2F1 PUSH1 0x4 DUP1 CALLDATASIZE SUB DUP2 ADD SWAP1 PUSH2 0x2EC SWAP2 SWAP1 PUSH2 0x2292 JUMP JUMPDEST PUSH2 0x85A JUMP JUMPDEST PUSH1 0x40 MLOAD PUSH2 0x2FE SWAP2 SWAP1 PUSH2 0x21F5 JUMP JUMPDEST PUSH1 0x40 MLOAD DUP1 SWAP2 SUB SWAP1 RETURN JUMPDEST CALLVALUE DUP1 ISZERO PUSH2 0x312 JUMPI PUSH0 DUP1 REVERT JUMPDEST POP PUSH2 0x31B PUSH2 0x8A0 JUMP JUMPDEST STOP JUMPDEST CALLVALUE DUP1 ISZERO PUSH2 0x328 JUMPI PUSH0 DUP1 REVERT JUMPDEST POP PUSH2 0x331 PUSH2 0x9EE JUMP JUMPDEST PUSH1 0x40 MLOAD PUSH2 0x33E SWAP2 SWAP1 PUSH2 0x21F5 JUMP JUMPDEST PUSH1 0x40 MLOAD DUP1 SWAP2 SUB SWAP1 RETURN JUMPDEST CALLVALUE DUP1 ISZERO PUSH2 0x352 JUMPI PUSH0 DUP1 REVERT JUMPDEST POP PUSH2 0x36D PUSH1 0x4 DUP1 CALLDATASIZE SUB DUP2 ADD SWAP1 PUSH2 0x368 SWAP2 SWAP1 PUSH2 0x23FD JUMP JUMPDEST PUSH2 0x9F4 JUMP JUMPDEST STOP JUMPDEST CALLVALUE DUP1 ISZERO PUSH2 0x37A JUMPI PUSH0 DUP1 REVERT JUMPDEST POP PUSH2 0x383 PUSH2 0xB13 JUMP JUMPDEST PUSH1 0x40 MLOAD PUSH2 0x390 SWAP2 SWAP1 PUSH2 0x2453 JUMP JUMPDEST PUSH1 0x40 MLOAD DUP1 SWAP2 SUB SWAP1 RETURN JUMPDEST CALLVALUE DUP1 ISZERO PUSH2 0x3A4 JUMPI PUSH0 DUP1 REVERT JUMPDEST POP PUSH2 0x3AD PUSH2 0xB3A JUMP JUMPDEST PUSH1 0x40 MLOAD PUSH2 0x3BA SWAP2 SWAP1 PUSH2 0x21F5 JUMP JUMPDEST PUSH1 0x40 MLOAD DUP1 SWAP2 SUB SWAP1 RETURN JUMPDEST CALLVALUE DUP1 ISZERO PUSH2 0x3CE JUMPI PUSH0 DUP1 REVERT JUMPDEST POP PUSH2 0x3D7 PUSH2 0xB40 JUMP JUMPDEST PUSH1 0x40 MLOAD PUSH2 0x3E4 SWAP2 SWAP1 PUSH2 0x20B7 JUMP JUMPDEST PUSH1 0x40 MLOAD DUP1 SWAP2 SUB SWAP1 RETURN JUMPDEST CALLVALUE DUP1 ISZERO PUSH2 0x3F8 JUMPI PUSH0 DUP1 REVERT JUMPDEST POP PUSH2 0x413 PUSH1 0x4 DUP1 CALLDATASIZE SUB DUP2 ADD SWAP1 PUSH2 0x40E SWAP2 SWAP1 PUSH2 0x23FD JUMP JUMPDEST PUSH2 0xB7D JUMP JUMPDEST STOP JUMPDEST CALLVALUE DUP1 ISZERO PUSH2 0x420 JUMPI PUSH0 DUP1 REVERT JUMPDEST POP PUSH2 0x43B PUSH1 0x4 DUP1 CALLDATASIZE SUB DUP2 ADD SWAP1 PUSH2 0x436 SWAP2 SWAP1 PUSH2 0x2175 JUMP JUMPDEST PUSH2 0xC9B JUMP JUMPDEST PUSH1 0x40 MLOAD PUSH2 0x448 SWAP2 SWAP1 PUSH2 0x21CD JUMP JUMPDEST PUSH1 0x40 MLOAD DUP1 SWAP2 SUB SWAP1 RETURN JUMPDEST CALLVALUE DUP1 ISZERO PUSH2 0x45C JUMPI PUSH0 DUP1 REVERT JUMPDEST POP PUSH2 0x465 PUSH2 0xCB8 JUMP JUMPDEST PUSH1 0x40 MLOAD PUSH2 0x472 SWAP2 SWAP1 PUSH2 0x21F5 JUMP JUMPDEST PUSH1 0x40 MLOAD DUP1 SWAP2 SUB SWAP1 RETURN JUMPDEST CALLVALUE DUP1 ISZERO PUSH2 0x486 JUMPI PUSH0 DUP1 REVERT JUMPDEST POP PUSH2 0x48F PUSH2 0xCBE JUMP JUMPDEST STOP JUMPDEST CALLVALUE DUP1 ISZERO PUSH2 0x49C JUMPI PUSH0 DUP1 REVERT JUMPDEST POP PUSH2 0x4B7 PUSH1 0x4 DUP1 CALLDATASIZE SUB DUP2 ADD SWAP1 PUSH2 0x4B2 SWAP2 SWAP1 PUSH2 0x246C JUMP JUMPDEST PUSH2 0xED7 JUMP JUMPDEST PUSH1 0x40 MLOAD PUSH2 0x4C4 SWAP2 SWAP1 PUSH2 0x21F5 JUMP JUMPDEST PUSH1 0x40 MLOAD DUP1 SWAP2 SUB SWAP1 RETURN JUMPDEST CALLVALUE DUP1 ISZERO PUSH2 0x4D8 JUMPI PUSH0 DUP1 REVERT JUMPDEST POP PUSH2 0x4E1 PUSH2 0xF59 JUMP JUMPDEST STOP JUMPDEST PUSH1 0x60 PUSH1 0x40 MLOAD DUP1 PUSH1 0x40 ADD PUSH1 0x40 MSTORE DUP1 PUSH1 0x4 DUP2 MSTORE PUSH1 0x20 ADD PUSH32 0x4361746500000000000000000000000000000000000000000000000000000000 DUP2 MSTORE POP SWAP1 POP SWAP1 JUMP JUMPDEST PUSH0 PUSH2 0x533 PUSH2 0x52C PUSH2 0xFC8 JUMP JUMPDEST DUP5 DUP5 PUSH2 0xFCF JUMP JUMPDEST PUSH1 0x1 SWAP1 POP SWAP3 SWAP2 POP POP JUMP JUMPDEST PUSH1 0x12 SLOAD DUP2 JUMP JUMPDEST PUSH0 PUSH1 0x9 PUSH1 0xA PUSH2 0x552 SWAP2 SWAP1 PUSH2 0x2606 JUMP JUMPDEST PUSH4 0x3B9ACA00 PUSH2 0x561 SWAP2 SWAP1 PUSH2 0x2650 JUMP JUMPDEST SWAP1 POP SWAP1 JUMP JUMPDEST PUSH0 PUSH2 0x572 DUP5 DUP5 DUP5 PUSH2 0x1192 JUMP JUMPDEST PUSH2 0x62F DUP5 PUSH2 0x57E PUSH2 0xFC8 JUMP JUMPDEST PUSH2 0x62A DUP6 PUSH1 0x40 MLOAD DUP1 PUSH1 0x60 ADD PUSH1 0x40 MSTORE DUP1 PUSH1 0x28 DUP2 MSTORE PUSH1 0x20 ADD PUSH2 0x2FE0 PUSH1 0x28 SWAP2 CODECOPY PUSH1 0x2 PUSH0 DUP12 PUSH20 0xFFFFFFFFFFFFFFFFFFFFFFFFFFFFFFFFFFFFFFFF AND PUSH20 0xFFFFFFFFFFFFFFFFFFFFFFFFFFFFFFFFFFFFFFFF AND DUP2 MSTORE PUSH1 0x20 ADD SWAP1 DUP2 MSTORE PUSH1 0x20 ADD PUSH0 KECCAK256 PUSH0 PUSH2 0x5E1 PUSH2 0xFC8 JUMP JUMPDEST PUSH20 0xFFFFFFFFFFFFFFFFFFFFFFFFFFFFFFFFFFFFFFFF AND PUSH20 0xFFFFFFFFFFFFFFFFFFFFFFFFFFFFFFFFFFFFFFFF AND DUP2 MSTORE PUSH1 0x20 ADD SWAP1 DUP2 MSTORE PUSH1 0x20 ADD PUSH0 KECCAK256 SLOAD PUSH2 0x1B19 SWAP1 SWAP3 SWAP2 SWAP1 PUSH4 0xFFFFFFFF AND JUMP JUMPDEST PUSH2 0xFCF JUMP JUMPDEST PUSH1 0x1 SWAP1 POP SWAP4 SWAP3 POP POP POP JUMP JUMPDEST PUSH0 PUSH1 0x9 SWAP1 POP SWAP1 JUMP JUMPDEST PUSH1 0x5 PUSH0 SWAP1 SLOAD SWAP1 PUSH2 0x100 EXP SWAP1 DIV PUSH20 0xFFFFFFFFFFFFFFFFFFFFFFFFFFFFFFFFFFFFFFFF AND PUSH20 0xFFFFFFFFFFFFFFFFFFFFFFFFFFFFFFFFFFFFFFFF AND PUSH2 0x682 PUSH2 0xFC8 JUMP JUMPDEST PUSH20 0xFFFFFFFFFFFFFFFFFFFFFFFFFFFFFFFFFFFFFFFF AND EQ PUSH2 0x6A1 JUMPI PUSH0 DUP1 REVERT JUMPDEST PUSH0 PUSH2 0x6AB ADDRESS PUSH2 0x85A JUMP JUMPDEST SWAP1 POP PUSH0 DUP2 GT ISZERO PUSH2 0x6BF JUMPI PUSH2 0x6BE DUP2 PUSH2 0x1B7B JUMP JUMPDEST JUMPDEST PUSH0 SELFBALANCE SWAP1 POP PUSH0 DUP2 GT ISZERO PUSH2 0x6D5 JUMPI PUSH2 0x6D4 DUP2 PUSH2 0x1DE6 JUMP JUMPDEST JUMPDEST POP POP JUMP JUMPDEST PUSH0 PUSH1 0x4 PUSH0 DUP4 PUSH20 0xFFFFFFFFFFFFFFFFFFFFFFFFFFFFFFFFFFFFFFFF AND PUSH20 0xFFFFFFFFFFFFFFFFFFFFFFFFFFFFFFFFFFFFFFFF AND DUP2 MSTORE PUSH1 0x20 ADD SWAP1 DUP2 MSTORE PUSH1 0x20 ADD PUSH0 KECCAK256 PUSH0 SWAP1 SLOAD SWAP1 PUSH2 0x100 EXP SWAP1 DIV PUSH1 0xFF AND SWAP1 POP SWAP2 SWAP1 POP JUMP JUMPDEST PUSH2 0x733 PUSH2 0xFC8 JUMP JUMPDEST PUSH20 0xFFFFFFFFFFFFFFFFFFFFFFFFFFFFFFFFFFFFFFFF AND PUSH0 DUP1 SLOAD SWAP1 PUSH2 0x100 EXP SWAP1 DIV PUSH20 0xFFFFFFFFFFFFFFFFFFFFFFFFFFFFFFFFFFFFFFFF AND PUSH20 0xFFFFFFFFFFFFFFFFFFFFFFFFFFFFFFFFFFFFFFFF AND EQ PUSH2 0x7BF JUMPI PUSH1 0x40 MLOAD PUSH32 0x8C379A000000000000000000000000000000000000000000000000000000000 DUP2 MSTORE PUSH1 0x4 ADD PUSH2 0x7B6 SWAP1 PUSH2 0x26DB JUMP JUMPDEST PUSH1 0x40 MLOAD DUP1 SWAP2 SUB SWAP1 REVERT JUMPDEST PUSH1 0x9 PUSH1 0xA PUSH2 0x7CD SWAP2 SWAP1 PUSH2 0x2606 JUMP JUMPDEST PUSH4 0x3B9ACA00 PUSH2 0x7DC SWAP2 SWAP1 PUSH2 0x2650 JUMP JUMPDEST PUSH1 0xF DUP2 SWAP1 SSTORE POP PUSH1 0x9 PUSH1 0xA PUSH2 0x7F0 SWAP2 SWAP1 PUSH2 0x2606 JUMP JUMPDEST PUSH4 0x3B9ACA00 PUSH2 0x7FF SWAP2 SWAP1 PUSH2 0x2650 JUMP JUMPDEST PUSH1 0x10 DUP2 SWAP1 SSTORE POP PUSH32 0x947F344D56E1E8C70DC492FB94C4DDDDD490C016AAB685F5E7E47B2E85CB44CF PUSH1 0x9 PUSH1 0xA PUSH2 0x834 SWAP2 SWAP1 PUSH2 0x2606 JUMP JUMPDEST PUSH4 0x3B9ACA00 PUSH2 0x843 SWAP2 SWAP1 PUSH2 0x2650 JUMP JUMPDEST PUSH1 0x40 MLOAD PUSH2 0x850 SWAP2 SWAP1 PUSH2 0x21F5 JUMP JUMPDEST PUSH1 0x40 MLOAD DUP1 SWAP2 SUB SWAP1 LOG1 JUMP JUMPDEST PUSH0 PUSH1 0x1 PUSH0 DUP4 PUSH20 0xFFFFFFFFFFFFFFFFFFFFFFFFFFFFFFFFFFFFFFFF AND PUSH20 0xFFFFFFFFFFFFFFFFFFFFFFFFFFFFFFFFFFFFFFFF AND DUP2 MSTORE PUSH1 0x20 ADD SWAP1 DUP2 MSTORE PUSH1 0x20 ADD PUSH0 KECCAK256 SLOAD SWAP1 POP SWAP2 SWAP1 POP JUMP JUMPDEST PUSH2 0x8A8 PUSH2 0xFC8 JUMP JUMPDEST PUSH20 0xFFFFFFFFFFFFFFFFFFFFFFFFFFFFFFFFFFFFFFFF AND PUSH0 DUP1 SLOAD SWAP1 PUSH2 0x100 EXP SWAP1 DIV PUSH20 0xFFFFFFFFFFFFFFFFFFFFFFFFFFFFFFFFFFFFFFFF AND PUSH20 0xFFFFFFFFFFFFFFFFFFFFFFFFFFFFFFFFFFFFFFFF AND EQ PUSH2 0x934 JUMPI PUSH1 0x40 MLOAD PUSH32 0x8C379A000000000000000000000000000000000000000000000000000000000 DUP2 MSTORE PUSH1 0x4 ADD PUSH2 0x92B SWAP1 PUSH2 0x26DB JUMP JUMPDEST PUSH1 0x40 MLOAD DUP1 SWAP2 SUB SWAP1 REVERT JUMPDEST PUSH0 PUSH20 0xFFFFFFFFFFFFFFFFFFFFFFFFFFFFFFFFFFFFFFFF AND PUSH0 DUP1 SLOAD SWAP1 PUSH2 0x100 EXP SWAP1 DIV PUSH20 0xFFFFFFFFFFFFFFFFFFFFFFFFFFFFFFFFFFFFFFFF AND PUSH20 0xFFFFFFFFFFFFFFFFFFFFFFFFFFFFFFFFFFFFFFFF AND PUSH32 0x8BE0079C531659141344CD1FD0A4F28419497F9722A3DAAFE3B4186F6B6457E0 PUSH1 0x40 MLOAD PUSH1 0x40 MLOAD DUP1 SWAP2 SUB SWAP1 LOG3 PUSH0 DUP1 PUSH0 PUSH2 0x100 EXP DUP2 SLOAD DUP2 PUSH20 0xFFFFFFFFFFFFFFFFFFFFFFFFFFFFFFFFFFFFFFFF MUL NOT AND SWAP1 DUP4 PUSH20 0xFFFFFFFFFFFFFFFFFFFFFFFFFFFFFFFFFFFFFFFF AND MUL OR SWAP1 SSTORE POP JUMP JUMPDEST PUSH1 0xF SLOAD DUP2 JUMP JUMPDEST PUSH2 0x9FC PUSH2 0xFC8 JUMP JUMPDEST PUSH20 0xFFFFFFFFFFFFFFFFFFFFFFFFFFFFFFFFFFFFFFFF AND PUSH0 DUP1 SLOAD SWAP1 PUSH2 0x100 EXP SWAP1 DIV PUSH20 0xFFFFFFFFFFFFFFFFFFFFFFFFFFFFFFFFFFFFFFFF AND PUSH20 0xFFFFFFFFFFFFFFFFFFFFFFFFFFFFFFFFFFFFFFFF AND EQ PUSH2 0xA88 JUMPI PUSH1 0x40 MLOAD PUSH32 0x8C379A000000000000000000000000000000000000000000000000000000000 DUP2 MSTORE PUSH1 0x4 ADD PUSH2 0xA7F SWAP1 PUSH2 0x26DB JUMP JUMPDEST PUSH1 0x40 MLOAD DUP1 SWAP2 SUB SWAP1 REVERT JUMPDEST PUSH0 JUMPDEST DUP2 MLOAD DUP2 LT ISZERO PUSH2 0xB0F JUMPI PUSH1 0x1 PUSH1 0x4 PUSH0 DUP5 DUP5 DUP2 MLOAD DUP2 LT PUSH2 0xAAB JUMPI PUSH2 0xAAA PUSH2 0x26F9 JUMP JUMPDEST JUMPDEST PUSH1 0x20 MUL PUSH1 0x20 ADD ADD MLOAD PUSH20 0xFFFFFFFFFFFFFFFFFFFFFFFFFFFFFFFFFFFFFFFF AND PUSH20 0xFFFFFFFFFFFFFFFFFFFFFFFFFFFFFFFFFFFFFFFF AND DUP2 MSTORE PUSH1 0x20 ADD SWAP1 DUP2 MSTORE PUSH1 0x20 ADD PUSH0 KECCAK256 PUSH0 PUSH2 0x100 EXP DUP2 SLOAD DUP2 PUSH1 0xFF MUL NOT AND SWAP1 DUP4 ISZERO ISZERO MUL OR SWAP1 SSTORE POP DUP1 DUP1 PUSH1 0x1 ADD SWAP2 POP POP PUSH2 0xA8A JUMP JUMPDEST POP POP JUMP JUMPDEST PUSH0 DUP1 PUSH0 SWAP1 SLOAD SWAP1 PUSH2 0x100 EXP SWAP1 DIV PUSH20 0xFFFFFFFFFFFFFFFFFFFFFFFFFFFFFFFFFFFFFFFF AND SWAP1 POP SWAP1 JUMP JUMPDEST PUSH1 0x10 SLOAD DUP2 JUMP JUMPDEST PUSH1 0x60 PUSH1 0x40 MLOAD DUP1 PUSH1 0x40 ADD PUSH1 0x40 MSTORE DUP1 PUSH1 0x4 DUP2 MSTORE PUSH1 0x20 ADD PUSH32 0x4341544500000000000000000000000000000000000000000000000000000000 DUP2 MSTORE POP SWAP1 POP SWAP1 JUMP JUMPDEST PUSH2 0xB85 PUSH2 0xFC8 JUMP JUMPDEST PUSH20 0xFFFFFFFFFFFFFFFFFFFFFFFFFFFFFFFFFFFFFFFF AND PUSH0 DUP1 SLOAD SWAP1 PUSH2 0x100 EXP SWAP1 DIV PUSH20 0xFFFFFFFFFFFFFFFFFFFFFFFFFFFFFFFFFFFFFFFF AND PUSH20 0xFFFFFFFFFFFFFFFFFFFFFFFFFFFFFFFFFFFFFFFF AND EQ PUSH2 0xC11 JUMPI PUSH1 0x40 MLOAD PUSH32 0x8C379A000000000000000000000000000000000000000000000000000000000 DUP2 MSTORE PUSH1 0x4 ADD PUSH2 0xC08 SWAP1 PUSH2 0x26DB JUMP JUMPDEST PUSH1 0x40 MLOAD DUP1 SWAP2 SUB SWAP1 REVERT JUMPDEST PUSH0 JUMPDEST DUP2 MLOAD DUP2 LT ISZERO PUSH2 0xC97 JUMPI PUSH0 PUSH1 0x4 PUSH0 DUP5 DUP5 DUP2 MLOAD DUP2 LT PUSH2 0xC33 JUMPI PUSH2 0xC32 PUSH2 0x26F9 JUMP JUMPDEST JUMPDEST PUSH1 0x20 MUL PUSH1 0x20 ADD ADD MLOAD PUSH20 0xFFFFFFFFFFFFFFFFFFFFFFFFFFFFFFFFFFFFFFFF AND PUSH20 0xFFFFFFFFFFFFFFFFFFFFFFFFFFFFFFFFFFFFFFFF AND DUP2 MSTORE PUSH1 0x20 ADD SWAP1 DUP2 MSTORE PUSH1 0x20 ADD PUSH0 KECCAK256 PUSH0 PUSH2 0x100 EXP DUP2 SLOAD DUP2 PUSH1 0xFF MUL NOT AND SWAP1 DUP4 ISZERO ISZERO MUL OR SWAP1 SSTORE POP DUP1 DUP1 PUSH1 0x1 ADD SWAP2 POP POP PUSH2 0xC13 JUMP JUMPDEST POP POP JUMP JUMPDEST PUSH0 PUSH2 0xCAE PUSH2 0xCA7 PUSH2 0xFC8 JUMP JUMPDEST DUP5 DUP5 PUSH2 0x1192 JUMP JUMPDEST PUSH1 0x1 SWAP1 POP SWAP3 SWAP2 POP POP JUMP JUMPDEST PUSH1 0x11 SLOAD DUP2 JUMP JUMPDEST PUSH2 0xCC6 PUSH2 0xFC8 JUMP JUMPDEST PUSH20 0xFFFFFFFFFFFFFFFFFFFFFFFFFFFFFFFFFFFFFFFF AND PUSH0 DUP1 SLOAD SWAP1 PUSH2 0x100 EXP SWAP1 DIV PUSH20 0xFFFFFFFFFFFFFFFFFFFFFFFFFFFFFFFFFFFFFFFF AND PUSH20 0xFFFFFFFFFFFFFFFFFFFFFFFFFFFFFFFFFFFFFFFF AND EQ PUSH2 0xD52 JUMPI PUSH1 0x40 MLOAD PUSH32 0x8C379A000000000000000000000000000000000000000000000000000000000 DUP2 MSTORE PUSH1 0x4 ADD PUSH2 0xD49 SWAP1 PUSH2 0x26DB JUMP JUMPDEST PUSH1 0x40 MLOAD DUP1 SWAP2 SUB SWAP1 REVERT JUMPDEST PUSH1 0x14 DUP1 SLOAD SWAP1 PUSH2 0x100 EXP SWAP1 DIV PUSH1 0xFF AND ISZERO PUSH2 0xDA0 JUMPI PUSH1 0x40 MLOAD PUSH32 0x8C379A000000000000000000000000000000000000000000000000000000000 DUP2 MSTORE PUSH1 0x4 ADD PUSH2 0xD97 SWAP1 PUSH2 0x2770 JUMP JUMPDEST PUSH1 0x40 MLOAD DUP1 SWAP2 SUB SWAP1 REVERT JUMPDEST PUSH2 0xDE8 ADDRESS PUSH1 0x13 PUSH0 SWAP1 SLOAD SWAP1 PUSH2 0x100 EXP SWAP1 DIV PUSH20 0xFFFFFFFFFFFFFFFFFFFFFFFFFFFFFFFFFFFFFFFF AND PUSH1 0x9 PUSH1 0xA PUSH2 0xDD4 SWAP2 SWAP1 PUSH2 0x2606 JUMP JUMPDEST PUSH4 0x3B9ACA00 PUSH2 0xDE3 SWAP2 SWAP1 PUSH2 0x2650 JUMP JUMPDEST PUSH2 0xFCF JUMP JUMPDEST PUSH1 0x13 PUSH0 SWAP1 SLOAD SWAP1 PUSH2 0x100 EXP SWAP1 DIV PUSH20 0xFFFFFFFFFFFFFFFFFFFFFFFFFFFFFFFFFFFFFFFF AND PUSH20 0xFFFFFFFFFFFFFFFFFFFFFFFFFFFFFFFFFFFFFFFF AND PUSH4 0xF305D719 SELFBALANCE ADDRESS PUSH2 0xE30 ADDRESS PUSH2 0x85A JUMP JUMPDEST PUSH0 DUP1 PUSH2 0xE3A PUSH2 0xB13 JUMP JUMPDEST TIMESTAMP PUSH1 0x40 MLOAD DUP9 PUSH4 0xFFFFFFFF AND PUSH1 0xE0 SHL DUP2 MSTORE PUSH1 0x4 ADD PUSH2 0xE5C SWAP7 SWAP6 SWAP5 SWAP4 SWAP3 SWAP2 SWAP1 PUSH2 0x27D0 JUMP JUMPDEST PUSH1 0x60 PUSH1 0x40 MLOAD DUP1 DUP4 SUB DUP2 DUP6 DUP9 GAS CALL ISZERO DUP1 ISZERO PUSH2 0xE78 JUMPI RETURNDATASIZE PUSH0 DUP1 RETURNDATACOPY RETURNDATASIZE PUSH0 REVERT JUMPDEST POP POP POP POP POP PUSH1 0x40 MLOAD RETURNDATASIZE PUSH1 0x1F NOT PUSH1 0x1F DUP3 ADD AND DUP3 ADD DUP1 PUSH1 0x40 MSTORE POP DUP2 ADD SWAP1 PUSH2 0xE9D SWAP2 SWAP1 PUSH2 0x2843 JUMP JUMPDEST POP POP POP PUSH1 0x1 PUSH1 0x14 PUSH1 0x16 PUSH2 0x100 EXP DUP2 SLOAD DUP2 PUSH1 0xFF MUL NOT AND SWAP1 DUP4 ISZERO ISZERO MUL OR SWAP1 SSTORE POP PUSH1 0x1 PUSH1 0x14 DUP1 PUSH2 0x100 EXP DUP2 SLOAD DUP2 PUSH1 0xFF MUL NOT AND SWAP1 DUP4 ISZERO ISZERO MUL OR SWAP1 SSTORE POP JUMP JUMPDEST PUSH0 PUSH1 0x2 PUSH0 DUP5 PUSH20 0xFFFFFFFFFFFFFFFFFFFFFFFFFFFFFFFFFFFFFFFF AND PUSH20 0xFFFFFFFFFFFFFFFFFFFFFFFFFFFFFFFFFFFFFFFF AND DUP2 MSTORE PUSH1 0x20 ADD SWAP1 DUP2 MSTORE PUSH1 0x20 ADD PUSH0 KECCAK256 PUSH0 DUP4 PUSH20 0xFFFFFFFFFFFFFFFFFFFFFFFFFFFFFFFFFFFFFFFF AND PUSH20 0xFFFFFFFFFFFFFFFFFFFFFFFFFFFFFFFFFFFFFFFF AND DUP2 MSTORE PUSH1 0x20 ADD SWAP1 DUP2 MSTORE PUSH1 0x20 ADD PUSH0 KECCAK256 SLOAD SWAP1 POP SWAP3 SWAP2 POP POP JUMP JUMPDEST PUSH1 0x5 PUSH0 SWAP1 SLOAD SWAP1 PUSH2 0x100 EXP SWAP1 DIV PUSH20 0xFFFFFFFFFFFFFFFFFFFFFFFFFFFFFFFFFFFFFFFF AND PUSH20 0xFFFFFFFFFFFFFFFFFFFFFFFFFFFFFFFFFFFFFFFF AND PUSH2 0xF99 PUSH2 0xFC8 JUMP JUMPDEST PUSH20 0xFFFFFFFFFFFFFFFFFFFFFFFFFFFFFFFFFFFFFFFF AND EQ PUSH2 0xFB8 JUMPI PUSH0 DUP1 REVERT JUMPDEST PUSH0 SELFBALANCE SWAP1 POP PUSH2 0xFC5 DUP2 PUSH2 0x1DE6 JUMP JUMPDEST POP JUMP JUMPDEST PUSH0 CALLER SWAP1 POP SWAP1 JUMP JUMPDEST PUSH0 PUSH20 0xFFFFFFFFFFFFFFFFFFFFFFFFFFFFFFFFFFFFFFFF AND DUP4 PUSH20 0xFFFFFFFFFFFFFFFFFFFFFFFFFFFFFFFFFFFFFFFF AND SUB PUSH2 0x103D JUMPI PUSH1 0x40 MLOAD PUSH32 0x8C379A000000000000000000000000000000000000000000000000000000000 DUP2 MSTORE PUSH1 0x4 ADD PUSH2 0x1034 SWAP1 PUSH2 0x2903 JUMP JUMPDEST PUSH1 0x40 MLOAD DUP1 SWAP2 SUB SWAP1 REVERT JUMPDEST PUSH0 PUSH20 0xFFFFFFFFFFFFFFFFFFFFFFFFFFFFFFFFFFFFFFFF AND DUP3 PUSH20 0xFFFFFFFFFFFFFFFFFFFFFFFFFFFFFFFFFFFFFFFF AND SUB PUSH2 0x10AB JUMPI PUSH1 0x40 MLOAD PUSH32 0x8C379A000000000000000000000000000000000000000000000000000000000 DUP2 MSTORE PUSH1 0x4 ADD PUSH2 0x10A2 SWAP1 PUSH2 0x2991 JUMP JUMPDEST PUSH1 0x40 MLOAD DUP1 SWAP2 SUB SWAP1 REVERT JUMPDEST DUP1 PUSH1 0x2 PUSH0 DUP6 PUSH20 0xFFFFFFFFFFFFFFFFFFFFFFFFFFFFFFFFFFFFFFFF AND PUSH20 0xFFFFFFFFFFFFFFFFFFFFFFFFFFFFFFFFFFFFFFFF AND DUP2 MSTORE PUSH1 0x20 ADD SWAP1 DUP2 MSTORE PUSH1 0x20 ADD PUSH0 KECCAK256 PUSH0 DUP5 PUSH20 0xFFFFFFFFFFFFFFFFFFFFFFFFFFFFFFFFFFFFFFFF AND PUSH20 0xFFFFFFFFFFFFFFFFFFFFFFFFFFFFFFFFFFFFFFFF AND DUP2 MSTORE PUSH1 0x20 ADD SWAP1 DUP2 MSTORE PUSH1 0x20 ADD PUSH0 KECCAK256 DUP2 SWAP1 SSTORE POP DUP2 PUSH20 0xFFFFFFFFFFFFFFFFFFFFFFFFFFFFFFFFFFFFFFFF AND DUP4 PUSH20 0xFFFFFFFFFFFFFFFFFFFFFFFFFFFFFFFFFFFFFFFF AND PUSH32 0x8C5BE1E5EBEC7D5BD14F71427D1E84F3DD0314C0F7B2291E5B200AC8C7C3B925 DUP4 PUSH1 0x40 MLOAD PUSH2 0x1185 SWAP2 SWAP1 PUSH2 0x21F5 JUMP JUMPDEST PUSH1 0x40 MLOAD DUP1 SWAP2 SUB SWAP1 LOG3 POP POP POP JUMP JUMPDEST PUSH0 PUSH20 0xFFFFFFFFFFFFFFFFFFFFFFFFFFFFFFFFFFFFFFFF AND DUP4 PUSH20 0xFFFFFFFFFFFFFFFFFFFFFFFFFFFFFFFFFFFFFFFF AND SUB PUSH2 0x1200 JUMPI PUSH1 0x40 MLOAD PUSH32 0x8C379A000000000000000000000000000000000000000000000000000000000 DUP2 MSTORE PUSH1 0x4 ADD PUSH2 0x11F7 SWAP1 PUSH2 0x2A1F JUMP JUMPDEST PUSH1 0x40 MLOAD DUP1 SWAP2 SUB SWAP1 REVERT JUMPDEST PUSH0 PUSH20 0xFFFFFFFFFFFFFFFFFFFFFFFFFFFFFFFFFFFFFFFF AND DUP3 PUSH20 0xFFFFFFFFFFFFFFFFFFFFFFFFFFFFFFFFFFFFFFFF AND SUB PUSH2 0x126E JUMPI PUSH1 0x40 MLOAD PUSH32 0x8C379A000000000000000000000000000000000000000000000000000000000 DUP2 MSTORE PUSH1 0x4 ADD PUSH2 0x1265 SWAP1 PUSH2 0x2AAD JUMP JUMPDEST PUSH1 0x40 MLOAD DUP1 SWAP2 SUB SWAP1 REVERT JUMPDEST PUSH0 DUP2 GT PUSH2 0x12B0 JUMPI PUSH1 0x40 MLOAD PUSH32 0x8C379A000000000000000000000000000000000000000000000000000000000 DUP2 MSTORE PUSH1 0x4 ADD PUSH2 0x12A7 SWAP1 PUSH2 0x2B3B JUMP JUMPDEST PUSH1 0x40 MLOAD DUP1 SWAP2 SUB SWAP1 REVERT JUMPDEST PUSH0 PUSH2 0x12B9 PUSH2 0xB13 JUMP JUMPDEST PUSH20 0xFFFFFFFFFFFFFFFFFFFFFFFFFFFFFFFFFFFFFFFF AND DUP5 PUSH20 0xFFFFFFFFFFFFFFFFFFFFFFFFFFFFFFFFFFFFFFFF AND EQ ISZERO DUP1 ISZERO PUSH2 0x1327 JUMPI POP PUSH2 0x12F7 PUSH2 0xB13 JUMP JUMPDEST PUSH20 0xFFFFFFFFFFFFFFFFFFFFFFFFFFFFFFFFFFFFFFFF AND DUP4 PUSH20 0xFFFFFFFFFFFFFFFFFFFFFFFFFFFFFFFFFFFFFFFF AND EQ ISZERO JUMPDEST ISZERO PUSH2 0x1869 JUMPI PUSH1 0x4 PUSH0 DUP6 PUSH20 0xFFFFFFFFFFFFFFFFFFFFFFFFFFFFFFFFFFFFFFFF AND PUSH20 0xFFFFFFFFFFFFFFFFFFFFFFFFFFFFFFFFFFFFFFFF AND DUP2 MSTORE PUSH1 0x20 ADD SWAP1 DUP2 MSTORE PUSH1 0x20 ADD PUSH0 KECCAK256 PUSH0 SWAP1 SLOAD SWAP1 PUSH2 0x100 EXP SWAP1 DIV PUSH1 0xFF AND ISZERO DUP1 ISZERO PUSH2 0x13CA JUMPI POP PUSH1 0x4 PUSH0 DUP5 PUSH20 0xFFFFFFFFFFFFFFFFFFFFFFFFFFFFFFFFFFFFFFFF AND PUSH20 0xFFFFFFFFFFFFFFFFFFFFFFFFFFFFFFFFFFFFFFFF AND DUP2 MSTORE PUSH1 0x20 ADD SWAP1 DUP2 MSTORE PUSH1 0x20 ADD PUSH0 KECCAK256 PUSH0 SWAP1 SLOAD SWAP1 PUSH2 0x100 EXP SWAP1 DIV PUSH1 0xFF AND ISZERO JUMPDEST PUSH2 0x13D2 JUMPI PUSH0 DUP1 REVERT JUMPDEST PUSH0 PUSH1 0xE SLOAD SUB PUSH2 0x141A JUMPI PUSH2 0x1417 PUSH1 0x64 PUSH2 0x1409 PUSH1 0xA SLOAD PUSH1 0xE SLOAD GT PUSH2 0x13F6 JUMPI PUSH1 0x6 SLOAD PUSH2 0x13FA JUMP JUMPDEST PUSH1 0x8 SLOAD JUMPDEST DUP6 PUSH2 0x1E4E SWAP1 SWAP2 SWAP1 PUSH4 0xFFFFFFFF AND JUMP JUMPDEST PUSH2 0x1EC5 SWAP1 SWAP2 SWAP1 PUSH4 0xFFFFFFFF AND JUMP JUMPDEST SWAP1 POP JUMPDEST PUSH0 PUSH1 0xE SLOAD GT ISZERO PUSH2 0x144F JUMPI PUSH2 0x144C PUSH1 0x64 PUSH2 0x143E PUSH1 0xD SLOAD DUP6 PUSH2 0x1E4E SWAP1 SWAP2 SWAP1 PUSH4 0xFFFFFFFF AND JUMP JUMPDEST PUSH2 0x1EC5 SWAP1 SWAP2 SWAP1 PUSH4 0xFFFFFFFF AND JUMP JUMPDEST SWAP1 POP JUMPDEST PUSH1 0x14 PUSH0 SWAP1 SLOAD SWAP1 PUSH2 0x100 EXP SWAP1 DIV PUSH20 0xFFFFFFFFFFFFFFFFFFFFFFFFFFFFFFFFFFFFFFFF AND PUSH20 0xFFFFFFFFFFFFFFFFFFFFFFFFFFFFFFFFFFFFFFFF AND DUP5 PUSH20 0xFFFFFFFFFFFFFFFFFFFFFFFFFFFFFFFFFFFFFFFF AND EQ DUP1 ISZERO PUSH2 0x14F8 JUMPI POP PUSH1 0x13 PUSH0 SWAP1 SLOAD SWAP1 PUSH2 0x100 EXP SWAP1 DIV PUSH20 0xFFFFFFFFFFFFFFFFFFFFFFFFFFFFFFFFFFFFFFFF AND PUSH20 0xFFFFFFFFFFFFFFFFFFFFFFFFFFFFFFFFFFFFFFFF AND DUP4 PUSH20 0xFFFFFFFFFFFFFFFFFFFFFFFFFFFFFFFFFFFFFFFF AND EQ ISZERO JUMPDEST DUP1 ISZERO PUSH2 0x154B JUMPI POP PUSH1 0x3 PUSH0 DUP5 PUSH20 0xFFFFFFFFFFFFFFFFFFFFFFFFFFFFFFFFFFFFFFFF AND PUSH20 0xFFFFFFFFFFFFFFFFFFFFFFFFFFFFFFFFFFFFFFFF AND DUP2 MSTORE PUSH1 0x20 ADD SWAP1 DUP2 MSTORE PUSH1 0x20 ADD PUSH0 KECCAK256 PUSH0 SWAP1 SLOAD SWAP1 PUSH2 0x100 EXP SWAP1 DIV PUSH1 0xFF AND ISZERO JUMPDEST ISZERO PUSH2 0x1643 JUMPI PUSH1 0xF SLOAD DUP3 GT ISZERO PUSH2 0x1595 JUMPI PUSH1 0x40 MLOAD PUSH32 0x8C379A000000000000000000000000000000000000000000000000000000000 DUP2 MSTORE PUSH1 0x4 ADD PUSH2 0x158C SWAP1 PUSH2 0x2BA3 JUMP JUMPDEST PUSH1 0x40 MLOAD DUP1 SWAP2 SUB SWAP1 REVERT JUMPDEST PUSH1 0x10 SLOAD DUP3 PUSH2 0x15A2 DUP6 PUSH2 0x85A JUMP JUMPDEST PUSH2 0x15AC SWAP2 SWAP1 PUSH2 0x2BC1 JUMP JUMPDEST GT ISZERO PUSH2 0x15ED JUMPI PUSH1 0x40 MLOAD PUSH32 0x8C379A000000000000000000000000000000000000000000000000000000000 DUP2 MSTORE PUSH1 0x4 ADD PUSH2 0x15E4 SWAP1 PUSH2 0x2C3E JUMP JUMPDEST PUSH1 0x40 MLOAD DUP1 SWAP2 SUB SWAP1 REVERT JUMPDEST PUSH2 0x1629 PUSH1 0x64 PUSH2 0x161B PUSH1 0xA SLOAD PUSH1 0xE SLOAD GT PUSH2 0x1608 JUMPI PUSH1 0x6 SLOAD PUSH2 0x160C JUMP JUMPDEST PUSH1 0x8 SLOAD JUMPDEST DUP6 PUSH2 0x1E4E SWAP1 SWAP2 SWAP1 PUSH4 0xFFFFFFFF AND JUMP JUMPDEST PUSH2 0x1EC5 SWAP1 SWAP2 SWAP1 PUSH4 0xFFFFFFFF AND JUMP JUMPDEST SWAP1 POP PUSH1 0xE PUSH0 DUP2 SLOAD DUP1 SWAP3 SWAP2 SWAP1 PUSH2 0x163D SWAP1 PUSH2 0x2C5C JUMP JUMPDEST SWAP2 SWAP1 POP SSTORE POP JUMPDEST PUSH1 0x14 PUSH0 SWAP1 SLOAD SWAP1 PUSH2 0x100 EXP SWAP1 DIV PUSH20 0xFFFFFFFFFFFFFFFFFFFFFFFFFFFFFFFFFFFFFFFF AND PUSH20 0xFFFFFFFFFFFFFFFFFFFFFFFFFFFFFFFFFFFFFFFF AND DUP4 PUSH20 0xFFFFFFFFFFFFFFFFFFFFFFFFFFFFFFFFFFFFFFFF AND EQ DUP1 ISZERO PUSH2 0x16CB JUMPI POP ADDRESS PUSH20 0xFFFFFFFFFFFFFFFFFFFFFFFFFFFFFFFFFFFFFFFF AND DUP5 PUSH20 0xFFFFFFFFFFFFFFFFFFFFFFFFFFFFFFFFFFFFFFFF AND EQ ISZERO JUMPDEST ISZERO PUSH2 0x170F JUMPI PUSH2 0x170C PUSH1 0x64 PUSH2 0x16FE PUSH1 0xB SLOAD PUSH1 0xE SLOAD GT PUSH2 0x16EB JUMPI PUSH1 0x7 SLOAD PUSH2 0x16EF JUMP JUMPDEST PUSH1 0x9 SLOAD JUMPDEST DUP6 PUSH2 0x1E4E SWAP1 SWAP2 SWAP1 PUSH4 0xFFFFFFFF AND JUMP JUMPDEST PUSH2 0x1EC5 SWAP1 SWAP2 SWAP1 PUSH4 0xFFFFFFFF AND JUMP JUMPDEST SWAP1 POP JUMPDEST PUSH0 PUSH2 0x1719 ADDRESS PUSH2 0x85A JUMP JUMPDEST SWAP1 POP PUSH1 0x14 PUSH1 0x15 SWAP1 SLOAD SWAP1 PUSH2 0x100 EXP SWAP1 DIV PUSH1 0xFF AND ISZERO DUP1 ISZERO PUSH2 0x1784 JUMPI POP PUSH1 0x14 PUSH0 SWAP1 SLOAD SWAP1 PUSH2 0x100 EXP SWAP1 DIV PUSH20 0xFFFFFFFFFFFFFFFFFFFFFFFFFFFFFFFFFFFFFFFF AND PUSH20 0xFFFFFFFFFFFFFFFFFFFFFFFFFFFFFFFFFFFFFFFF AND DUP5 PUSH20 0xFFFFFFFFFFFFFFFFFFFFFFFFFFFFFFFFFFFFFFFF AND EQ JUMPDEST DUP1 ISZERO PUSH2 0x179C JUMPI POP PUSH1 0x14 PUSH1 0x16 SWAP1 SLOAD SWAP1 PUSH2 0x100 EXP SWAP1 DIV PUSH1 0xFF AND JUMPDEST DUP1 ISZERO PUSH2 0x17A9 JUMPI POP PUSH1 0x11 SLOAD DUP2 GT JUMPDEST DUP1 ISZERO PUSH2 0x17B8 JUMPI POP PUSH1 0xC SLOAD PUSH1 0xE SLOAD GT JUMPDEST ISZERO PUSH2 0x1867 JUMPI PUSH1 0x16 SLOAD NUMBER GT ISZERO PUSH2 0x17CF JUMPI PUSH0 PUSH1 0x15 DUP2 SWAP1 SSTORE POP JUMPDEST PUSH1 0x3 PUSH1 0x15 SLOAD LT PUSH2 0x1814 JUMPI PUSH1 0x40 MLOAD PUSH32 0x8C379A000000000000000000000000000000000000000000000000000000000 DUP2 MSTORE PUSH1 0x4 ADD PUSH2 0x180B SWAP1 PUSH2 0x2CED JUMP JUMPDEST PUSH1 0x40 MLOAD DUP1 SWAP2 SUB SWAP1 REVERT JUMPDEST PUSH2 0x1831 PUSH2 0x182C DUP5 PUSH2 0x1827 DUP5 PUSH1 0x12 SLOAD PUSH2 0x1F0E JUMP JUMPDEST PUSH2 0x1F0E JUMP JUMPDEST PUSH2 0x1B7B JUMP JUMPDEST PUSH0 SELFBALANCE SWAP1 POP PUSH0 DUP2 GT ISZERO PUSH2 0x1847 JUMPI PUSH2 0x1846 SELFBALANCE PUSH2 0x1DE6 JUMP JUMPDEST JUMPDEST PUSH1 0x15 PUSH0 DUP2 SLOAD DUP1 SWAP3 SWAP2 SWAP1 PUSH2 0x1859 SWAP1 PUSH2 0x2C5C JUMP JUMPDEST SWAP2 SWAP1 POP SSTORE POP NUMBER PUSH1 0x16 DUP2 SWAP1 SSTORE POP POP JUMPDEST POP JUMPDEST PUSH0 DUP2 GT ISZERO PUSH2 0x1968 JUMPI PUSH2 0x18C1 DUP2 PUSH1 0x1 PUSH0 ADDRESS PUSH20 0xFFFFFFFFFFFFFFFFFFFFFFFFFFFFFFFFFFFFFFFF AND PUSH20 0xFFFFFFFFFFFFFFFFFFFFFFFFFFFFFFFFFFFFFFFF AND DUP2 MSTORE PUSH1 0x20 ADD SWAP1 DUP2 MSTORE PUSH1 0x20 ADD PUSH0 KECCAK256 SLOAD PUSH2 0x1F26 SWAP1 SWAP2 SWAP1 PUSH4 0xFFFFFFFF AND JUMP JUMPDEST PUSH1 0x1 PUSH0 ADDRESS PUSH20 0xFFFFFFFFFFFFFFFFFFFFFFFFFFFFFFFFFFFFFFFF AND PUSH20 0xFFFFFFFFFFFFFFFFFFFFFFFFFFFFFFFFFFFFFFFF AND DUP2 MSTORE PUSH1 0x20 ADD SWAP1 DUP2 MSTORE PUSH1 0x20 ADD PUSH0 KECCAK256 DUP2 SWAP1 SSTORE POP ADDRESS PUSH20 0xFFFFFFFFFFFFFFFFFFFFFFFFFFFFFFFFFFFFFFFF AND DUP5 PUSH20 0xFFFFFFFFFFFFFFFFFFFFFFFFFFFFFFFFFFFFFFFF AND PUSH32 0xDDF252AD1BE2C89B69C2B068FC378DAA952BA7F163C4A11628F55A4DF523B3EF DUP4 PUSH1 0x40 MLOAD PUSH2 0x195F SWAP2 SWAP1 PUSH2 0x21F5 JUMP JUMPDEST PUSH1 0x40 MLOAD DUP1 SWAP2 SUB SWAP1 LOG3 JUMPDEST PUSH2 0x19B8 DUP3 PUSH1 0x1 PUSH0 DUP8 PUSH20 0xFFFFFFFFFFFFFFFFFFFFFFFFFFFFFFFFFFFFFFFF AND PUSH20 0xFFFFFFFFFFFFFFFFFFFFFFFFFFFFFFFFFFFFFFFF AND DUP2 MSTORE PUSH1 0x20 ADD SWAP1 DUP2 MSTORE PUSH1 0x20 ADD PUSH0 KECCAK256 SLOAD PUSH2 0x1F83 SWAP1 SWAP2 SWAP1 PUSH4 0xFFFFFFFF AND JUMP JUMPDEST PUSH1 0x1 PUSH0 DUP7 PUSH20 0xFFFFFFFFFFFFFFFFFFFFFFFFFFFFFFFFFFFFFFFF AND PUSH20 0xFFFFFFFFFFFFFFFFFFFFFFFFFFFFFFFFFFFFFFFF AND DUP2 MSTORE PUSH1 0x20 ADD SWAP1 DUP2 MSTORE PUSH1 0x20 ADD PUSH0 KECCAK256 DUP2 SWAP1 SSTORE POP PUSH2 0x1A5B PUSH2 0x1A0F DUP3 DUP5 PUSH2 0x1F83 SWAP1 SWAP2 SWAP1 PUSH4 0xFFFFFFFF AND JUMP JUMPDEST PUSH1 0x1 PUSH0 DUP7 PUSH20 0xFFFFFFFFFFFFFFFFFFFFFFFFFFFFFFFFFFFFFFFF AND PUSH20 0xFFFFFFFFFFFFFFFFFFFFFFFFFFFFFFFFFFFFFFFF AND DUP2 MSTORE PUSH1 0x20 ADD SWAP1 DUP2 MSTORE PUSH1 0x20 ADD PUSH0 KECCAK256 SLOAD PUSH2 0x1F26 SWAP1 SWAP2 SWAP1 PUSH4 0xFFFFFFFF AND JUMP JUMPDEST PUSH1 0x1 PUSH0 DUP6 PUSH20 0xFFFFFFFFFFFFFFFFFFFFFFFFFFFFFFFFFFFFFFFF AND PUSH20 0xFFFFFFFFFFFFFFFFFFFFFFFFFFFFFFFFFFFFFFFF AND DUP2 MSTORE PUSH1 0x20 ADD SWAP1 DUP2 MSTORE PUSH1 0x20 ADD PUSH0 KECCAK256 DUP2 SWAP1 SSTORE POP DUP3 PUSH20 0xFFFFFFFFFFFFFFFFFFFFFFFFFFFFFFFFFFFFFFFF AND DUP5 PUSH20 0xFFFFFFFFFFFFFFFFFFFFFFFFFFFFFFFFFFFFFFFF AND PUSH32 0xDDF252AD1BE2C89B69C2B068FC378DAA952BA7F163C4A11628F55A4DF523B3EF PUSH2 0x1AFE DUP5 DUP7 PUSH2 0x1F83 SWAP1 SWAP2 SWAP1 PUSH4 0xFFFFFFFF AND JUMP JUMPDEST PUSH1 0x40 MLOAD PUSH2 0x1B0B SWAP2 SWAP1 PUSH2 0x21F5 JUMP JUMPDEST PUSH1 0x40 MLOAD DUP1 SWAP2 SUB SWAP1 LOG3 POP POP POP POP JUMP JUMPDEST PUSH0 DUP4 DUP4 GT ISZERO DUP3 SWAP1 PUSH2 0x1B60 JUMPI PUSH1 0x40 MLOAD PUSH32 0x8C379A000000000000000000000000000000000000000000000000000000000 DUP2 MSTORE PUSH1 0x4 ADD PUSH2 0x1B57 SWAP2 SWAP1 PUSH2 0x20B7 JUMP JUMPDEST PUSH1 0x40 MLOAD DUP1 SWAP2 SUB SWAP1 REVERT JUMPDEST POP PUSH0 DUP4 DUP6 PUSH2 0x1B6E SWAP2 SWAP1 PUSH2 0x2D0B JUMP JUMPDEST SWAP1 POP DUP1 SWAP2 POP POP SWAP4 SWAP3 POP POP POP JUMP JUMPDEST PUSH1 0x1 PUSH1 0x14 PUSH1 0x15 PUSH2 0x100 EXP DUP2 SLOAD DUP2 PUSH1 0xFF MUL NOT AND SWAP1 DUP4 ISZERO ISZERO MUL OR SWAP1 SSTORE POP PUSH0 PUSH1 0x2 PUSH8 0xFFFFFFFFFFFFFFFF DUP2 GT ISZERO PUSH2 0x1BB2 JUMPI PUSH2 0x1BB1 PUSH2 0x22C1 JUMP JUMPDEST JUMPDEST PUSH1 0x40 MLOAD SWAP1 DUP1 DUP3 MSTORE DUP1 PUSH1 0x20 MUL PUSH1 0x20 ADD DUP3 ADD PUSH1 0x40 MSTORE DUP1 ISZERO PUSH2 0x1BE0 JUMPI DUP2 PUSH1 0x20 ADD PUSH1 0x20 DUP3 MUL DUP1 CALLDATASIZE DUP4 CALLDATACOPY DUP1 DUP3 ADD SWAP2 POP POP SWAP1 POP JUMPDEST POP SWAP1 POP ADDRESS DUP2 PUSH0 DUP2 MLOAD DUP2 LT PUSH2 0x1BF7 JUMPI PUSH2 0x1BF6 PUSH2 0x26F9 JUMP JUMPDEST JUMPDEST PUSH1 0x20 MUL PUSH1 0x20 ADD ADD SWAP1 PUSH20 0xFFFFFFFFFFFFFFFFFFFFFFFFFFFFFFFFFFFFFFFF AND SWAP1 DUP2 PUSH20 0xFFFFFFFFFFFFFFFFFFFFFFFFFFFFFFFFFFFFFFFF AND DUP2 MSTORE POP POP PUSH1 0x13 PUSH0 SWAP1 SLOAD SWAP1 PUSH2 0x100 EXP SWAP1 DIV PUSH20 0xFFFFFFFFFFFFFFFFFFFFFFFFFFFFFFFFFFFFFFFF AND PUSH20 0xFFFFFFFFFFFFFFFFFFFFFFFFFFFFFFFFFFFFFFFF AND PUSH4 0xAD5C4648 PUSH1 0x40 MLOAD DUP2 PUSH4 0xFFFFFFFF AND PUSH1 0xE0 SHL DUP2 MSTORE PUSH1 0x4 ADD PUSH1 0x20 PUSH1 0x40 MLOAD DUP1 DUP4 SUB DUP2 DUP7 GAS STATICCALL ISZERO DUP1 ISZERO PUSH2 0x1C9B JUMPI RETURNDATASIZE PUSH0 DUP1 RETURNDATACOPY RETURNDATASIZE PUSH0 REVERT JUMPDEST POP POP POP POP PUSH1 0x40 MLOAD RETURNDATASIZE PUSH1 0x1F NOT PUSH1 0x1F DUP3 ADD AND DUP3 ADD DUP1 PUSH1 0x40 MSTORE POP DUP2 ADD SWAP1 PUSH2 0x1CBF SWAP2 SWAP1 PUSH2 0x2D52 JUMP JUMPDEST DUP2 PUSH1 0x1 DUP2 MLOAD DUP2 LT PUSH2 0x1CD3 JUMPI PUSH2 0x1CD2 PUSH2 0x26F9 JUMP JUMPDEST JUMPDEST PUSH1 0x20 MUL PUSH1 0x20 ADD ADD SWAP1 PUSH20 0xFFFFFFFFFFFFFFFFFFFFFFFFFFFFFFFFFFFFFFFF AND SWAP1 DUP2 PUSH20 0xFFFFFFFFFFFFFFFFFFFFFFFFFFFFFFFFFFFFFFFF AND DUP2 MSTORE POP POP PUSH2 0x1D39 ADDRESS PUSH1 0x13 PUSH0 SWAP1 SLOAD SWAP1 PUSH2 0x100 EXP SWAP1 DIV PUSH20 0xFFFFFFFFFFFFFFFFFFFFFFFFFFFFFFFFFFFFFFFF AND DUP5 PUSH2 0xFCF JUMP JUMPDEST PUSH1 0x13 PUSH0 SWAP1 SLOAD SWAP1 PUSH2 0x100 EXP SWAP1 DIV PUSH20 0xFFFFFFFFFFFFFFFFFFFFFFFFFFFFFFFFFFFFFFFF AND PUSH20 0xFFFFFFFFFFFFFFFFFFFFFFFFFFFFFFFFFFFFFFFF AND PUSH4 0x791AC947 DUP4 PUSH0 DUP5 ADDRESS TIMESTAMP PUSH1 0x40 MLOAD DUP7 PUSH4 0xFFFFFFFF AND PUSH1 0xE0 SHL DUP2 MSTORE PUSH1 0x4 ADD PUSH2 0x1D9B SWAP6 SWAP5 SWAP4 SWAP3 SWAP2 SWAP1 PUSH2 0x2E34 JUMP JUMPDEST PUSH0 PUSH1 0x40 MLOAD DUP1 DUP4 SUB DUP2 PUSH0 DUP8 DUP1 EXTCODESIZE ISZERO DUP1 ISZERO PUSH2 0x1DB2 JUMPI PUSH0 DUP1 REVERT JUMPDEST POP GAS CALL ISZERO DUP1 ISZERO PUSH2 0x1DC4 JUMPI RETURNDATASIZE PUSH0 DUP1 RETURNDATACOPY RETURNDATASIZE PUSH0 REVERT JUMPDEST POP POP POP POP POP PUSH0 PUSH1 0x14 PUSH1 0x15 PUSH2 0x100 EXP DUP2 SLOAD DUP2 PUSH1 0xFF MUL NOT AND SWAP1 DUP4 ISZERO ISZERO MUL OR SWAP1 SSTORE POP POP JUMP JUMPDEST PUSH1 0x5 PUSH0 SWAP1 SLOAD SWAP1 PUSH2 0x100 EXP SWAP1 DIV PUSH20 0xFFFFFFFFFFFFFFFFFFFFFFFFFFFFFFFFFFFFFFFF AND PUSH20 0xFFFFFFFFFFFFFFFFFFFFFFFFFFFFFFFFFFFFFFFF AND PUSH2 0x8FC DUP3 SWAP1 DUP2 ISZERO MUL SWAP1 PUSH1 0x40 MLOAD PUSH0 PUSH1 0x40 MLOAD DUP1 DUP4 SUB DUP2 DUP6 DUP9 DUP9 CALL SWAP4 POP POP POP POP ISZERO DUP1 ISZERO PUSH2 0x1E4A JUMPI RETURNDATASIZE PUSH0 DUP1 RETURNDATACOPY RETURNDATASIZE PUSH0 REVERT JUMPDEST POP POP JUMP JUMPDEST PUSH0 DUP1 DUP4 SUB PUSH2 0x1E5E JUMPI PUSH0 SWAP1 POP PUSH2 0x1EBF JUMP JUMPDEST PUSH0 DUP3 DUP5 PUSH2 0x1E6B SWAP2 SWAP1 PUSH2 0x2650 JUMP JUMPDEST SWAP1 POP DUP3 DUP5 DUP3 PUSH2 0x1E7A SWAP2 SWAP1 PUSH2 0x2EB9 JUMP JUMPDEST EQ PUSH2 0x1EBA JUMPI PUSH1 0x40 MLOAD PUSH32 0x8C379A000000000000000000000000000000000000000000000000000000000 DUP2 MSTORE PUSH1 0x4 ADD PUSH2 0x1EB1 SWAP1 PUSH2 0x2F59 JUMP JUMPDEST PUSH1 0x40 MLOAD DUP1 SWAP2 SUB SWAP1 REVERT JUMPDEST DUP1 SWAP2 POP POP JUMPDEST SWAP3 SWAP2 POP POP JUMP JUMPDEST PUSH0 PUSH2 0x1F06 DUP4 DUP4 PUSH1 0x40 MLOAD DUP1 PUSH1 0x40 ADD PUSH1 0x40 MSTORE DUP1 PUSH1 0x1A DUP2 MSTORE PUSH1 0x20 ADD PUSH32 0x536166654D6174683A206469766973696F6E206279207A65726F000000000000 DUP2 MSTORE POP PUSH2 0x1FCC JUMP JUMPDEST SWAP1 POP SWAP3 SWAP2 POP POP JUMP JUMPDEST PUSH0 DUP2 DUP4 GT PUSH2 0x1F1C JUMPI DUP3 PUSH2 0x1F1E JUMP JUMPDEST DUP2 JUMPDEST SWAP1 POP SWAP3 SWAP2 POP POP JUMP JUMPDEST PUSH0 DUP1 DUP3 DUP5 PUSH2 0x1F34 SWAP2 SWAP1 PUSH2 0x2BC1 JUMP JUMPDEST SWAP1 POP DUP4 DUP2 LT ISZERO PUSH2 0x1F79 JUMPI PUSH1 0x40 MLOAD PUSH32 0x8C379A000000000000000000000000000000000000000000000000000000000 DUP2 MSTORE PUSH1 0x4 ADD PUSH2 0x1F70 SWAP1 PUSH2 0x2FC1 JUMP JUMPDEST PUSH1 0x40 MLOAD DUP1 SWAP2 SUB SWAP1 REVERT JUMPDEST DUP1 SWAP2 POP POP SWAP3 SWAP2 POP POP JUMP JUMPDEST PUSH0 PUSH2 0x1FC4 DUP4 DUP4 PUSH1 0x40 MLOAD DUP1 PUSH1 0x40 ADD PUSH1 0x40 MSTORE DUP1 PUSH1 0x1E DUP2 MSTORE PUSH1 0x20 ADD PUSH32 0x536166654D6174683A207375627472616374696F6E206F766572666C6F770000 DUP2 MSTORE POP PUSH2 0x1B19 JUMP JUMPDEST SWAP1 POP SWAP3 SWAP2 POP POP JUMP JUMPDEST PUSH0 DUP1 DUP4 GT DUP3 SWAP1 PUSH2 0x2012 JUMPI PUSH1 0x40 MLOAD PUSH32 0x8C379A000000000000000000000000000000000000000000000000000000000 DUP2 MSTORE PUSH1 0x4 ADD PUSH2 0x2009 SWAP2 SWAP1 PUSH2 0x20B7 JUMP JUMPDEST PUSH1 0x40 MLOAD DUP1 SWAP2 SUB SWAP1 REVERT JUMPDEST POP PUSH0 DUP4 DUP6 PUSH2 0x2020 SWAP2 SWAP1 PUSH2 0x2EB9 JUMP JUMPDEST SWAP1 POP DUP1 SWAP2 POP POP SWAP4 SWAP3 POP POP POP JUMP JUMPDEST PUSH0 DUP2 MLOAD SWAP1 POP SWAP2 SWAP1 POP JUMP JUMPDEST PUSH0 DUP3 DUP3 MSTORE PUSH1 0x20 DUP3 ADD SWAP1 POP SWAP3 SWAP2 POP POP JUMP JUMPDEST PUSH0 JUMPDEST DUP4 DUP2 LT ISZERO PUSH2 0x2064 JUMPI DUP1 DUP3 ADD MLOAD DUP2 DUP5 ADD MSTORE PUSH1 0x20 DUP2 ADD SWAP1 POP PUSH2 0x2049 JUMP JUMPDEST PUSH0 DUP5 DUP5 ADD MSTORE POP POP POP POP JUMP JUMPDEST PUSH0 PUSH1 0x1F NOT PUSH1 0x1F DUP4 ADD AND SWAP1 POP SWAP2 SWAP1 POP JUMP JUMPDEST PUSH0 PUSH2 0x2089 DUP3 PUSH2 0x202D JUMP JUMPDEST PUSH2 0x2093 DUP2 DUP6 PUSH2 0x2037 JUMP JUMPDEST SWAP4 POP PUSH2 0x20A3 DUP2 DUP6 PUSH1 0x20 DUP7 ADD PUSH2 0x2047 JUMP JUMPDEST PUSH2 0x20AC DUP2 PUSH2 0x206F JUMP JUMPDEST DUP5 ADD SWAP2 POP POP SWAP3 SWAP2 POP POP JUMP JUMPDEST PUSH0 PUSH1 0x20 DUP3 ADD SWAP1 POP DUP2 DUP2 SUB PUSH0 DUP4 ADD MSTORE PUSH2 0x20CF DUP2 DUP5 PUSH2 0x207F JUMP JUMPDEST SWAP1 POP SWAP3 SWAP2 POP POP JUMP JUMPDEST PUSH0 PUSH1 0x40 MLOAD SWAP1 POP SWAP1 JUMP JUMPDEST PUSH0 DUP1 REVERT JUMPDEST PUSH0 DUP1 REVERT JUMPDEST PUSH0 PUSH20 0xFFFFFFFFFFFFFFFFFFFFFFFFFFFFFFFFFFFFFFFF DUP3 AND SWAP1 POP SWAP2 SWAP1 POP JUMP JUMPDEST PUSH0 PUSH2 0x2111 DUP3 PUSH2 0x20E8 JUMP JUMPDEST SWAP1 POP SWAP2 SWAP1 POP JUMP JUMPDEST PUSH2 0x2121 DUP2 PUSH2 0x2107 JUMP JUMPDEST DUP2 EQ PUSH2 0x212B JUMPI PUSH0 DUP1 REVERT JUMPDEST POP JUMP JUMPDEST PUSH0 DUP2 CALLDATALOAD SWAP1 POP PUSH2 0x213C DUP2 PUSH2 0x2118 JUMP JUMPDEST SWAP3 SWAP2 POP POP JUMP JUMPDEST PUSH0 DUP2 SWAP1 POP SWAP2 SWAP1 POP JUMP JUMPDEST PUSH2 0x2154 DUP2 PUSH2 0x2142 JUMP JUMPDEST DUP2 EQ PUSH2 0x215E JUMPI PUSH0 DUP1 REVERT JUMPDEST POP JUMP JUMPDEST PUSH0 DUP2 CALLDATALOAD SWAP1 POP PUSH2 0x216F DUP2 PUSH2 0x214B JUMP JUMPDEST SWAP3 SWAP2 POP POP JUMP JUMPDEST PUSH0 DUP1 PUSH1 0x40 DUP4 DUP6 SUB SLT ISZERO PUSH2 0x218B JUMPI PUSH2 0x218A PUSH2 0x20E0 JUMP JUMPDEST JUMPDEST PUSH0 PUSH2 0x2198 DUP6 DUP3 DUP7 ADD PUSH2 0x212E JUMP JUMPDEST SWAP3 POP POP PUSH1 0x20 PUSH2 0x21A9 DUP6 DUP3 DUP7 ADD PUSH2 0x2161 JUMP JUMPDEST SWAP2 POP POP SWAP3 POP SWAP3 SWAP1 POP JUMP JUMPDEST PUSH0 DUP2 ISZERO ISZERO SWAP1 POP SWAP2 SWAP1 POP JUMP JUMPDEST PUSH2 0x21C7 DUP2 PUSH2 0x21B3 JUMP JUMPDEST DUP3 MSTORE POP POP JUMP JUMPDEST PUSH0 PUSH1 0x20 DUP3 ADD SWAP1 POP PUSH2 0x21E0 PUSH0 DUP4 ADD DUP5 PUSH2 0x21BE JUMP JUMPDEST SWAP3 SWAP2 POP POP JUMP JUMPDEST PUSH2 0x21EF DUP2 PUSH2 0x2142 JUMP JUMPDEST DUP3 MSTORE POP POP JUMP JUMPDEST PUSH0 PUSH1 0x20 DUP3 ADD SWAP1 POP PUSH2 0x2208 PUSH0 DUP4 ADD DUP5 PUSH2 0x21E6 JUMP JUMPDEST SWAP3 SWAP2 POP POP JUMP JUMPDEST PUSH0 DUP1 PUSH0 PUSH1 0x60 DUP5 DUP7 SUB SLT ISZERO PUSH2 0x2225 JUMPI PUSH2 0x2224 PUSH2 0x20E0 JUMP JUMPDEST JUMPDEST PUSH0 PUSH2 0x2232 DUP7 DUP3 DUP8 ADD PUSH2 0x212E JUMP JUMPDEST SWAP4 POP POP PUSH1 0x20 PUSH2 0x2243 DUP7 DUP3 DUP8 ADD PUSH2 0x212E JUMP JUMPDEST SWAP3 POP POP PUSH1 0x40 PUSH2 0x2254 DUP7 DUP3 DUP8 ADD PUSH2 0x2161 JUMP JUMPDEST SWAP2 POP POP SWAP3 POP SWAP3 POP SWAP3 JUMP JUMPDEST PUSH0 PUSH1 0xFF DUP3 AND SWAP1 POP SWAP2 SWAP1 POP JUMP JUMPDEST PUSH2 0x2273 DUP2 PUSH2 0x225E JUMP JUMPDEST DUP3 MSTORE POP POP JUMP JUMPDEST PUSH0 PUSH1 0x20 DUP3 ADD SWAP1 POP PUSH2 0x228C PUSH0 DUP4 ADD DUP5 PUSH2 0x226A JUMP JUMPDEST SWAP3 SWAP2 POP POP JUMP JUMPDEST PUSH0 PUSH1 0x20 DUP3 DUP5 SUB SLT ISZERO PUSH2 0x22A7 JUMPI PUSH2 0x22A6 PUSH2 0x20E0 JUMP JUMPDEST JUMPDEST PUSH0 PUSH2 0x22B4 DUP5 DUP3 DUP6 ADD PUSH2 0x212E JUMP JUMPDEST SWAP2 POP POP SWAP3 SWAP2 POP POP JUMP JUMPDEST PUSH0 DUP1 REVERT JUMPDEST PUSH32 0x4E487B7100000000000000000000000000000000000000000000000000000000 PUSH0 MSTORE PUSH1 0x41 PUSH1 0x4 MSTORE PUSH1 0x24 PUSH0 REVERT JUMPDEST PUSH2 0x22F7 DUP3 PUSH2 0x206F JUMP JUMPDEST DUP2 ADD DUP2 DUP2 LT PUSH8 0xFFFFFFFFFFFFFFFF DUP3 GT OR ISZERO PUSH2 0x2316 JUMPI PUSH2 0x2315 PUSH2 0x22C1 JUMP JUMPDEST JUMPDEST DUP1 PUSH1 0x40 MSTORE POP POP POP JUMP JUMPDEST PUSH0 PUSH2 0x2328 PUSH2 0x20D7 JUMP JUMPDEST SWAP1 POP PUSH2 0x2334 DUP3 DUP3 PUSH2 0x22EE JUMP JUMPDEST SWAP2 SWAP1 POP JUMP JUMPDEST PUSH0 PUSH8 0xFFFFFFFFFFFFFFFF DUP3 GT ISZERO PUSH2 0x2353 JUMPI PUSH2 0x2352 PUSH2 0x22C1 JUMP JUMPDEST JUMPDEST PUSH1 0x20 DUP3 MUL SWAP1 POP PUSH1 0x20 DUP2 ADD SWAP1 POP SWAP2 SWAP1 POP JUMP JUMPDEST PUSH0 DUP1 REVERT JUMPDEST PUSH0 PUSH2 0x237A PUSH2 0x2375 DUP5 PUSH2 0x2339 JUMP JUMPDEST PUSH2 0x231F JUMP JUMPDEST SWAP1 POP DUP1 DUP4 DUP3 MSTORE PUSH1 0x20 DUP3 ADD SWAP1 POP PUSH1 0x20 DUP5 MUL DUP4 ADD DUP6 DUP2 GT ISZERO PUSH2 0x239D JUMPI PUSH2 0x239C PUSH2 0x2364 JUMP JUMPDEST JUMPDEST DUP4 JUMPDEST DUP2 DUP2 LT ISZERO PUSH2 0x23C6 JUMPI DUP1 PUSH2 0x23B2 DUP9 DUP3 PUSH2 0x212E JUMP JUMPDEST DUP5 MSTORE PUSH1 0x20 DUP5 ADD SWAP4 POP POP PUSH1 0x20 DUP2 ADD SWAP1 POP PUSH2 0x239F JUMP JUMPDEST POP POP POP SWAP4 SWAP3 POP POP POP JUMP JUMPDEST PUSH0 DUP3 PUSH1 0x1F DUP4 ADD SLT PUSH2 0x23E4 JUMPI PUSH2 0x23E3 PUSH2 0x22BD JUMP JUMPDEST JUMPDEST DUP2 CALLDATALOAD PUSH2 0x23F4 DUP5 DUP3 PUSH1 0x20 DUP7 ADD PUSH2 0x2368 JUMP JUMPDEST SWAP2 POP POP SWAP3 SWAP2 POP POP JUMP JUMPDEST PUSH0 PUSH1 0x20 DUP3 DUP5 SUB SLT ISZERO PUSH2 0x2412 JUMPI PUSH2 0x2411 PUSH2 0x20E0 JUMP JUMPDEST JUMPDEST PUSH0 DUP3 ADD CALLDATALOAD PUSH8 0xFFFFFFFFFFFFFFFF DUP2 GT ISZERO PUSH2 0x242F JUMPI PUSH2 0x242E PUSH2 0x20E4 JUMP JUMPDEST JUMPDEST PUSH2 0x243B DUP5 DUP3 DUP6 ADD PUSH2 0x23D0 JUMP JUMPDEST SWAP2 POP POP SWAP3 SWAP2 POP POP JUMP JUMPDEST PUSH2 0x244D DUP2 PUSH2 0x2107 JUMP JUMPDEST DUP3 MSTORE POP POP JUMP JUMPDEST PUSH0 PUSH1 0x20 DUP3 ADD SWAP1 POP PUSH2 0x2466 PUSH0 DUP4 ADD DUP5 PUSH2 0x2444 JUMP JUMPDEST SWAP3 SWAP2 POP POP JUMP JUMPDEST PUSH0 DUP1 PUSH1 0x40 DUP4 DUP6 SUB SLT ISZERO PUSH2 0x2482 JUMPI PUSH2 0x2481 PUSH2 0x20E0 JUMP JUMPDEST JUMPDEST PUSH0 PUSH2 0x248F DUP6 DUP3 DUP7 ADD PUSH2 0x212E JUMP JUMPDEST SWAP3 POP POP PUSH1 0x20 PUSH2 0x24A0 DUP6 DUP3 DUP7 ADD PUSH2 0x212E JUMP JUMPDEST SWAP2 POP POP SWAP3 POP SWAP3 SWAP1 POP JUMP JUMPDEST PUSH32 0x4E487B7100000000000000000000000000000000000000000000000000000000 PUSH0 MSTORE PUSH1 0x11 PUSH1 0x4 MSTORE PUSH1 0x24 PUSH0 REVERT JUMPDEST PUSH0 DUP2 PUSH1 0x1 SHR SWAP1 POP SWAP2 SWAP1 POP JUMP JUMPDEST PUSH0 DUP1 DUP3 SWAP2 POP DUP4 SWAP1 POP JUMPDEST PUSH1 0x1 DUP6 GT ISZERO PUSH2 0x252C JUMPI DUP1 DUP7 DIV DUP2 GT ISZERO PUSH2 0x2508 JUMPI PUSH2 0x2507 PUSH2 0x24AA JUMP JUMPDEST JUMPDEST PUSH1 0x1 DUP6 AND ISZERO PUSH2 0x2517 JUMPI DUP1 DUP3 MUL SWAP2 POP JUMPDEST DUP1 DUP2 MUL SWAP1 POP PUSH2 0x2525 DUP6 PUSH2 0x24D7 JUMP JUMPDEST SWAP5 POP PUSH2 0x24EC JUMP JUMPDEST SWAP5 POP SWAP5 SWAP3 POP POP POP JUMP JUMPDEST PUSH0 DUP3 PUSH2 0x2544 JUMPI PUSH1 0x1 SWAP1 POP PUSH2 0x25FF JUMP JUMPDEST DUP2 PUSH2 0x2551 JUMPI PUSH0 SWAP1 POP PUSH2 0x25FF JUMP JUMPDEST DUP2 PUSH1 0x1 DUP2 EQ PUSH2 0x2567 JUMPI PUSH1 0x2 DUP2 EQ PUSH2 0x2571 JUMPI PUSH2 0x25A0 JUMP JUMPDEST PUSH1 0x1 SWAP2 POP POP PUSH2 0x25FF JUMP JUMPDEST PUSH1 0xFF DUP5 GT ISZERO PUSH2 0x2583 JUMPI PUSH2 0x2582 PUSH2 0x24AA JUMP JUMPDEST JUMPDEST DUP4 PUSH1 0x2 EXP SWAP2 POP DUP5 DUP3 GT ISZERO PUSH2 0x259A JUMPI PUSH2 0x2599 PUSH2 0x24AA JUMP JUMPDEST JUMPDEST POP PUSH2 0x25FF JUMP JUMPDEST POP PUSH1 0x20 DUP4 LT PUSH2 0x133 DUP4 LT AND PUSH1 0x4E DUP5 LT PUSH1 0xB DUP5 LT AND OR ISZERO PUSH2 0x25D5 JUMPI DUP3 DUP3 EXP SWAP1 POP DUP4 DUP2 GT ISZERO PUSH2 0x25D0 JUMPI PUSH2 0x25CF PUSH2 0x24AA JUMP JUMPDEST JUMPDEST PUSH2 0x25FF JUMP JUMPDEST PUSH2 0x25E2 DUP5 DUP5 DUP5 PUSH1 0x1 PUSH2 0x24E3 JUMP JUMPDEST SWAP3 POP SWAP1 POP DUP2 DUP5 DIV DUP2 GT ISZERO PUSH2 0x25F9 JUMPI PUSH2 0x25F8 PUSH2 0x24AA JUMP JUMPDEST JUMPDEST DUP2 DUP2 MUL SWAP1 POP JUMPDEST SWAP4 SWAP3 POP POP POP JUMP JUMPDEST PUSH0 PUSH2 0x2610 DUP3 PUSH2 0x2142 JUMP JUMPDEST SWAP2 POP PUSH2 0x261B DUP4 PUSH2 0x225E JUMP JUMPDEST SWAP3 POP PUSH2 0x2648 PUSH32 0xFFFFFFFFFFFFFFFFFFFFFFFFFFFFFFFFFFFFFFFFFFFFFFFFFFFFFFFFFFFFFFFF DUP5 DUP5 PUSH2 0x2535 JUMP JUMPDEST SWAP1 POP SWAP3 SWAP2 POP POP JUMP JUMPDEST PUSH0 PUSH2 0x265A DUP3 PUSH2 0x2142 JUMP JUMPDEST SWAP2 POP PUSH2 0x2665 DUP4 PUSH2 0x2142 JUMP JUMPDEST SWAP3 POP DUP3 DUP3 MUL PUSH2 0x2673 DUP2 PUSH2 0x2142 JUMP JUMPDEST SWAP2 POP DUP3 DUP3 DIV DUP5 EQ DUP4 ISZERO OR PUSH2 0x268A JUMPI PUSH2 0x2689 PUSH2 0x24AA JUMP JUMPDEST JUMPDEST POP SWAP3 SWAP2 POP POP JUMP JUMPDEST PUSH32 0x4F776E61626C653A2063616C6C6572206973206E6F7420746865206F776E6572 PUSH0 DUP3 ADD MSTORE POP JUMP JUMPDEST PUSH0 PUSH2 0x26C5 PUSH1 0x20 DUP4 PUSH2 0x2037 JUMP JUMPDEST SWAP2 POP PUSH2 0x26D0 DUP3 PUSH2 0x2691 JUMP JUMPDEST PUSH1 0x20 DUP3 ADD SWAP1 POP SWAP2 SWAP1 POP JUMP JUMPDEST PUSH0 PUSH1 0x20 DUP3 ADD SWAP1 POP DUP2 DUP2 SUB PUSH0 DUP4 ADD MSTORE PUSH2 0x26F2 DUP2 PUSH2 0x26B9 JUMP JUMPDEST SWAP1 POP SWAP2 SWAP1 POP JUMP JUMPDEST PUSH32 0x4E487B7100000000000000000000000000000000000000000000000000000000 PUSH0 MSTORE PUSH1 0x32 PUSH1 0x4 MSTORE PUSH1 0x24 PUSH0 REVERT JUMPDEST PUSH32 0x74726164696E6720697320616C7265616479206F70656E000000000000000000 PUSH0 DUP3 ADD MSTORE POP JUMP JUMPDEST PUSH0 PUSH2 0x275A PUSH1 0x17 DUP4 PUSH2 0x2037 JUMP JUMPDEST SWAP2 POP PUSH2 0x2765 DUP3 PUSH2 0x2726 JUMP JUMPDEST PUSH1 0x20 DUP3 ADD SWAP1 POP SWAP2 SWAP1 POP JUMP JUMPDEST PUSH0 PUSH1 0x20 DUP3 ADD SWAP1 POP DUP2 DUP2 SUB PUSH0 DUP4 ADD MSTORE PUSH2 0x2787 DUP2 PUSH2 0x274E JUMP JUMPDEST SWAP1 POP SWAP2 SWAP1 POP JUMP JUMPDEST PUSH0 DUP2 SWAP1 POP SWAP2 SWAP1 POP JUMP JUMPDEST PUSH0 DUP2 SWAP1 POP SWAP2 SWAP1 POP JUMP JUMPDEST PUSH0 PUSH2 0x27BA PUSH2 0x27B5 PUSH2 0x27B0 DUP5 PUSH2 0x278E JUMP JUMPDEST PUSH2 0x2797 JUMP JUMPDEST PUSH2 0x2142 JUMP JUMPDEST SWAP1 POP SWAP2 SWAP1 POP JUMP JUMPDEST PUSH2 0x27CA DUP2 PUSH2 0x27A0 JUMP JUMPDEST DUP3 MSTORE POP POP JUMP JUMPDEST PUSH0 PUSH1 0xC0 DUP3 ADD SWAP1 POP PUSH2 0x27E3 PUSH0 DUP4 ADD DUP10 PUSH2 0x2444 JUMP JUMPDEST PUSH2 0x27F0 PUSH1 0x20 DUP4 ADD DUP9 PUSH2 0x21E6 JUMP JUMPDEST PUSH2 0x27FD PUSH1 0x40 DUP4 ADD DUP8 PUSH2 0x27C1 JUMP JUMPDEST PUSH2 0x280A PUSH1 0x60 DUP4 ADD DUP7 PUSH2 0x27C1 JUMP JUMPDEST PUSH2 0x2817 PUSH1 0x80 DUP4 ADD DUP6 PUSH2 0x2444 JUMP JUMPDEST PUSH2 0x2824 PUSH1 0xA0 DUP4 ADD DUP5 PUSH2 0x21E6 JUMP JUMPDEST SWAP8 SWAP7 POP POP POP POP POP POP POP JUMP JUMPDEST PUSH0 DUP2 MLOAD SWAP1 POP PUSH2 0x283D DUP2 PUSH2 0x214B JUMP JUMPDEST SWAP3 SWAP2 POP POP JUMP JUMPDEST PUSH0 DUP1 PUSH0 PUSH1 0x60 DUP5 DUP7 SUB SLT ISZERO PUSH2 0x285A JUMPI PUSH2 0x2859 PUSH2 0x20E0 JUMP JUMPDEST JUMPDEST PUSH0 PUSH2 0x2867 DUP7 DUP3 DUP8 ADD PUSH2 0x282F JUMP JUMPDEST SWAP4 POP POP PUSH1 0x20 PUSH2 0x2878 DUP7 DUP3 DUP8 ADD PUSH2 0x282F JUMP JUMPDEST SWAP3 POP POP PUSH1 0x40 PUSH2 0x2889 DUP7 DUP3 DUP8 ADD PUSH2 0x282F JUMP JUMPDEST SWAP2 POP POP SWAP3 POP SWAP3 POP SWAP3 JUMP JUMPDEST PUSH32 0x45524332303A20617070726F76652066726F6D20746865207A65726F20616464 PUSH0 DUP3 ADD MSTORE PUSH32 0x7265737300000000000000000000000000000000000000000000000000000000 PUSH1 0x20 DUP3 ADD MSTORE POP JUMP JUMPDEST PUSH0 PUSH2 0x28ED PUSH1 0x24 DUP4 PUSH2 0x2037 JUMP JUMPDEST SWAP2 POP PUSH2 0x28F8 DUP3 PUSH2 0x2893 JUMP JUMPDEST PUSH1 0x40 DUP3 ADD SWAP1 POP SWAP2 SWAP1 POP JUMP JUMPDEST PUSH0 PUSH1 0x20 DUP3 ADD SWAP1 POP DUP2 DUP2 SUB PUSH0 DUP4 ADD MSTORE PUSH2 0x291A DUP2 PUSH2 0x28E1 JUMP JUMPDEST SWAP1 POP SWAP2 SWAP1 POP JUMP JUMPDEST PUSH32 0x45524332303A20617070726F766520746F20746865207A65726F206164647265 PUSH0 DUP3 ADD MSTORE PUSH32 0x7373000000000000000000000000000000000000000000000000000000000000 PUSH1 0x20 DUP3 ADD MSTORE POP JUMP JUMPDEST PUSH0 PUSH2 0x297B PUSH1 0x22 DUP4 PUSH2 0x2037 JUMP JUMPDEST SWAP2 POP PUSH2 0x2986 DUP3 PUSH2 0x2921 JUMP JUMPDEST PUSH1 0x40 DUP3 ADD SWAP1 POP SWAP2 SWAP1 POP JUMP JUMPDEST PUSH0 PUSH1 0x20 DUP3 ADD SWAP1 POP DUP2 DUP2 SUB PUSH0 DUP4 ADD MSTORE PUSH2 0x29A8 DUP2 PUSH2 0x296F JUMP JUMPDEST SWAP1 POP SWAP2 SWAP1 POP JUMP JUMPDEST PUSH32 0x45524332303A207472616E736665722066726F6D20746865207A65726F206164 PUSH0 DUP3 ADD MSTORE PUSH32 0x6472657373000000000000000000000000000000000000000000000000000000 PUSH1 0x20 DUP3 ADD MSTORE POP JUMP JUMPDEST PUSH0 PUSH2 0x2A09 PUSH1 0x25 DUP4 PUSH2 0x2037 JUMP JUMPDEST SWAP2 POP PUSH2 0x2A14 DUP3 PUSH2 0x29AF JUMP JUMPDEST PUSH1 0x40 DUP3 ADD SWAP1 POP SWAP2 SWAP1 POP JUMP JUMPDEST PUSH0 PUSH1 0x20 DUP3 ADD SWAP1 POP DUP2 DUP2 SUB PUSH0 DUP4 ADD MSTORE PUSH2 0x2A36 DUP2 PUSH2 0x29FD JUMP JUMPDEST SWAP1 POP SWAP2 SWAP1 POP JUMP JUMPDEST PUSH32 0x45524332303A207472616E7366657220746F20746865207A65726F2061646472 PUSH0 DUP3 ADD MSTORE PUSH32 0x6573730000000000000000000000000000000000000000000000000000000000 PUSH1 0x20 DUP3 ADD MSTORE POP JUMP JUMPDEST PUSH0 PUSH2 0x2A97 PUSH1 0x23 DUP4 PUSH2 0x2037 JUMP JUMPDEST SWAP2 POP PUSH2 0x2AA2 DUP3 PUSH2 0x2A3D JUMP JUMPDEST PUSH1 0x40 DUP3 ADD SWAP1 POP SWAP2 SWAP1 POP JUMP JUMPDEST PUSH0 PUSH1 0x20 DUP3 ADD SWAP1 POP DUP2 DUP2 SUB PUSH0 DUP4 ADD MSTORE PUSH2 0x2AC4 DUP2 PUSH2 0x2A8B JUMP JUMPDEST SWAP1 POP SWAP2 SWAP1 POP JUMP JUMPDEST PUSH32 0x5472616E7366657220616D6F756E74206D757374206265206772656174657220 PUSH0 DUP3 ADD MSTORE PUSH32 0x7468616E207A65726F0000000000000000000000000000000000000000000000 PUSH1 0x20 DUP3 ADD MSTORE POP JUMP JUMPDEST PUSH0 PUSH2 0x2B25 PUSH1 0x29 DUP4 PUSH2 0x2037 JUMP JUMPDEST SWAP2 POP PUSH2 0x2B30 DUP3 PUSH2 0x2ACB JUMP JUMPDEST PUSH1 0x40 DUP3 ADD SWAP1 POP SWAP2 SWAP1 POP JUMP JUMPDEST PUSH0 PUSH1 0x20 DUP3 ADD SWAP1 POP DUP2 DUP2 SUB PUSH0 DUP4 ADD MSTORE PUSH2 0x2B52 DUP2 PUSH2 0x2B19 JUMP JUMPDEST SWAP1 POP SWAP2 SWAP1 POP JUMP JUMPDEST PUSH32 0x4578636565647320746865205F6D61785478416D6F756E742E00000000000000 PUSH0 DUP3 ADD MSTORE POP JUMP JUMPDEST PUSH0 PUSH2 0x2B8D PUSH1 0x19 DUP4 PUSH2 0x2037 JUMP JUMPDEST SWAP2 POP PUSH2 0x2B98 DUP3 PUSH2 0x2B59 JUMP JUMPDEST PUSH1 0x20 DUP3 ADD SWAP1 POP SWAP2 SWAP1 POP JUMP JUMPDEST PUSH0 PUSH1 0x20 DUP3 ADD SWAP1 POP DUP2 DUP2 SUB PUSH0 DUP4 ADD MSTORE PUSH2 0x2BBA DUP2 PUSH2 0x2B81 JUMP JUMPDEST SWAP1 POP SWAP2 SWAP1 POP JUMP JUMPDEST PUSH0 PUSH2 0x2BCB DUP3 PUSH2 0x2142 JUMP JUMPDEST SWAP2 POP PUSH2 0x2BD6 DUP4 PUSH2 0x2142 JUMP JUMPDEST SWAP3 POP DUP3 DUP3 ADD SWAP1 POP DUP1 DUP3 GT ISZERO PUSH2 0x2BEE JUMPI PUSH2 0x2BED PUSH2 0x24AA JUMP JUMPDEST JUMPDEST SWAP3 SWAP2 POP POP JUMP JUMPDEST PUSH32 0x4578636565647320746865206D617857616C6C657453697A652E000000000000 PUSH0 DUP3 ADD MSTORE POP JUMP JUMPDEST PUSH0 PUSH2 0x2C28 PUSH1 0x1A DUP4 PUSH2 0x2037 JUMP JUMPDEST SWAP2 POP PUSH2 0x2C33 DUP3 PUSH2 0x2BF4 JUMP JUMPDEST PUSH1 0x20 DUP3 ADD SWAP1 POP SWAP2 SWAP1 POP JUMP JUMPDEST PUSH0 PUSH1 0x20 DUP3 ADD SWAP1 POP DUP2 DUP2 SUB PUSH0 DUP4 ADD MSTORE PUSH2 0x2C55 DUP2 PUSH2 0x2C1C JUMP JUMPDEST SWAP1 POP SWAP2 SWAP1 POP JUMP JUMPDEST PUSH0 PUSH2 0x2C66 DUP3 PUSH2 0x2142 JUMP JUMPDEST SWAP2 POP PUSH32 0xFFFFFFFFFFFFFFFFFFFFFFFFFFFFFFFFFFFFFFFFFFFFFFFFFFFFFFFFFFFFFFFF DUP3 SUB PUSH2 0x2C98 JUMPI PUSH2 0x2C97 PUSH2 0x24AA JUMP JUMPDEST JUMPDEST PUSH1 0x1 DUP3 ADD SWAP1 POP SWAP2 SWAP1 POP JUMP JUMPDEST PUSH32 0x4F6E6C7920332073656C6C732070657220626C6F636B21000000000000000000 PUSH0 DUP3 ADD MSTORE POP JUMP JUMPDEST PUSH0 PUSH2 0x2CD7 PUSH1 0x17 DUP4 PUSH2 0x2037 JUMP JUMPDEST SWAP2 POP PUSH2 0x2CE2 DUP3 PUSH2 0x2CA3 JUMP JUMPDEST PUSH1 0x20 DUP3 ADD SWAP1 POP SWAP2 SWAP1 POP JUMP JUMPDEST PUSH0 PUSH1 0x20 DUP3 ADD SWAP1 POP DUP2 DUP2 SUB PUSH0 DUP4 ADD MSTORE PUSH2 0x2D04 DUP2 PUSH2 0x2CCB JUMP JUMPDEST SWAP1 POP SWAP2 SWAP1 POP JUMP JUMPDEST PUSH0 PUSH2 0x2D15 DUP3 PUSH2 0x2142 JUMP JUMPDEST SWAP2 POP PUSH2 0x2D20 DUP4 PUSH2 0x2142 JUMP JUMPDEST SWAP3 POP DUP3 DUP3 SUB SWAP1 POP DUP2 DUP2 GT ISZERO PUSH2 0x2D38 JUMPI PUSH2 0x2D37 PUSH2 0x24AA JUMP JUMPDEST JUMPDEST SWAP3 SWAP2 POP POP JUMP JUMPDEST PUSH0 DUP2 MLOAD SWAP1 POP PUSH2 0x2D4C DUP2 PUSH2 0x2118 JUMP JUMPDEST SWAP3 SWAP2 POP POP JUMP JUMPDEST PUSH0 PUSH1 0x20 DUP3 DUP5 SUB SLT ISZERO PUSH2 0x2D67 JUMPI PUSH2 0x2D66 PUSH2 0x20E0 JUMP JUMPDEST JUMPDEST PUSH0 PUSH2 0x2D74 DUP5 DUP3 DUP6 ADD PUSH2 0x2D3E JUMP JUMPDEST SWAP2 POP POP SWAP3 SWAP2 POP POP JUMP JUMPDEST PUSH0 DUP2 MLOAD SWAP1 POP SWAP2 SWAP1 POP JUMP JUMPDEST PUSH0 DUP3 DUP3 MSTORE PUSH1 0x20 DUP3 ADD SWAP1 POP SWAP3 SWAP2 POP POP JUMP JUMPDEST PUSH0 DUP2 SWAP1 POP PUSH1 0x20 DUP3 ADD SWAP1 POP SWAP2 SWAP1 POP JUMP JUMPDEST PUSH2 0x2DAF DUP2 PUSH2 0x2107 JUMP JUMPDEST DUP3 MSTORE POP POP JUMP JUMPDEST PUSH0 PUSH2 0x2DC0 DUP4 DUP4 PUSH2 0x2DA6 JUMP JUMPDEST PUSH1 0x20 DUP4 ADD SWAP1 POP SWAP3 SWAP2 POP POP JUMP JUMPDEST PUSH0 PUSH1 0x20 DUP3 ADD SWAP1 POP SWAP2 SWAP1 POP JUMP JUMPDEST PUSH0 PUSH2 0x2DE2 DUP3 PUSH2 0x2D7D JUMP JUMPDEST PUSH2 0x2DEC DUP2 DUP6 PUSH2 0x2D87 JUMP JUMPDEST SWAP4 POP PUSH2 0x2DF7 DUP4 PUSH2 0x2D97 JUMP JUMPDEST DUP1 PUSH0 JUMPDEST DUP4 DUP2 LT ISZERO PUSH2 0x2E27 JUMPI DUP2 MLOAD PUSH2 0x2E0E DUP9 DUP3 PUSH2 0x2DB5 JUMP JUMPDEST SWAP8 POP PUSH2 0x2E19 DUP4 PUSH2 0x2DCC JUMP JUMPDEST SWAP3 POP POP PUSH1 0x1 DUP2 ADD SWAP1 POP PUSH2 0x2DFA JUMP JUMPDEST POP DUP6 SWAP4 POP POP POP POP SWAP3 SWAP2 POP POP JUMP JUMPDEST PUSH0 PUSH1 0xA0 DUP3 ADD SWAP1 POP PUSH2 0x2E47 PUSH0 DUP4 ADD DUP9 PUSH2 0x21E6 JUMP JUMPDEST PUSH2 0x2E54 PUSH1 0x20 DUP4 ADD DUP8 PUSH2 0x27C1 JUMP JUMPDEST DUP2 DUP2 SUB PUSH1 0x40 DUP4 ADD MSTORE PUSH2 0x2E66 DUP2 DUP7 PUSH2 0x2DD8 JUMP JUMPDEST SWAP1 POP PUSH2 0x2E75 PUSH1 0x60 DUP4 ADD DUP6 PUSH2 0x2444 JUMP JUMPDEST PUSH2 0x2E82 PUSH1 0x80 DUP4 ADD DUP5 PUSH2 0x21E6 JUMP JUMPDEST SWAP7 SWAP6 POP POP POP POP POP POP JUMP JUMPDEST PUSH32 0x4E487B7100000000000000000000000000000000000000000000000000000000 PUSH0 MSTORE PUSH1 0x12 PUSH1 0x4 MSTORE PUSH1 0x24 PUSH0 REVERT JUMPDEST PUSH0 PUSH2 0x2EC3 DUP3 PUSH2 0x2142 JUMP JUMPDEST SWAP2 POP PUSH2 0x2ECE DUP4 PUSH2 0x2142 JUMP JUMPDEST SWAP3 POP DUP3 PUSH2 0x2EDE JUMPI PUSH2 0x2EDD PUSH2 0x2E8C JUMP JUMPDEST JUMPDEST DUP3 DUP3 DIV SWAP1 POP SWAP3 SWAP2 POP POP JUMP JUMPDEST PUSH32 0x536166654D6174683A206D756C7469706C69636174696F6E206F766572666C6F PUSH0 DUP3 ADD MSTORE PUSH32 0x7700000000000000000000000000000000000000000000000000000000000000 PUSH1 0x20 DUP3 ADD MSTORE POP JUMP JUMPDEST PUSH0 PUSH2 0x2F43 PUSH1 0x21 DUP4 PUSH2 0x2037 JUMP JUMPDEST SWAP2 POP PUSH2 0x2F4E DUP3 PUSH2 0x2EE9 JUMP JUMPDEST PUSH1 0x40 DUP3 ADD SWAP1 POP SWAP2 SWAP1 POP JUMP JUMPDEST PUSH0 PUSH1 0x20 DUP3 ADD SWAP1 POP DUP2 DUP2 SUB PUSH0 DUP4 ADD MSTORE PUSH2 0x2F70 DUP2 PUSH2 0x2F37 JUMP JUMPDEST SWAP1 POP SWAP2 SWAP1 POP JUMP JUMPDEST PUSH32 0x536166654D6174683A206164646974696F6E206F766572666C6F770000000000 PUSH0 DUP3 ADD MSTORE POP JUMP JUMPDEST PUSH0 PUSH2 0x2FAB PUSH1 0x1B DUP4 PUSH2 0x2037 JUMP JUMPDEST SWAP2 POP PUSH2 0x2FB6 DUP3 PUSH2 0x2F77 JUMP JUMPDEST PUSH1 0x20 DUP3 ADD SWAP1 POP SWAP2 SWAP1 POP JUMP JUMPDEST PUSH0 PUSH1 0x20 DUP3 ADD SWAP1 POP DUP2 DUP2 SUB PUSH0 DUP4 ADD MSTORE PUSH2 0x2FD8 DUP2 PUSH2 0x2F9F JUMP JUMPDEST SWAP1 POP SWAP2 SWAP1 POP JUMP INVALID GASLIMIT MSTORE NUMBER ORIGIN ADDRESS GASPRICE KECCAK256 PUSH21 0x72616E7366657220616D6F756E7420657863656564 PUSH20 0x20616C6C6F77616E6365A2646970667358221220 PUSH25 0x3334406429A8AA5FDD5A22B784882E7A84CEC90BEA84CC0CB7 0xC5 LOG2 0x21 0xAC 0xAA CALLCODE PUSH5 0x736F6C6343 STOP ADDMOD OR STOP CALLER "
				},
				"gasEstimates": {
					"creation": {
						"codeDepositCost": "2469800",
						"executionCost": "infinite",
						"totalCost": "infinite"
					},
					"external": {
						"_maxTaxSwap()": "2493",
						"_maxTxAmount()": "2448",
						"_maxWalletSize()": "2514",
						"_taxSwapThreshold()": "2491",
						"addB(address[])": "infinite",
						"allowance(address,address)": "infinite",
						"approve(address,uint256)": "infinite",
						"balanceOf(address)": "2940",
						"decimals()": "361",
						"delB(address[])": "infinite",
						"isBot(address)": "2937",
						"manualSend()": "infinite",
						"manualUnclog()": "infinite",
						"name()": "infinite",
						"openTrading()": "infinite",
						"owner()": "2582",
						"removeLimit()": "infinite",
						"renounceOwnership()": "30417",
						"symbol()": "infinite",
						"totalSupply()": "infinite",
						"transfer(address,uint256)": "infinite",
						"transferFrom(address,address,uint256)": "infinite"
					},
					"internal": {
						"_approve(address,address,uint256)": "infinite",
						"_transfer(address,address,uint256)": "infinite",
						"min(uint256,uint256)": "63",
						"sendETHToFee(uint256)": "infinite",
						"swapTokensForEth(uint256)": "infinite"
					}
				},
				"methodIdentifiers": {
					"_maxTaxSwap()": "0faee56f",
					"_maxTxAmount()": "7d1db4a5",
					"_maxWalletSize()": "8f9a55c0",
					"_taxSwapThreshold()": "bf474bed",
					"addB(address[])": "874d9e3b",
					"allowance(address,address)": "dd62ed3e",
					"approve(address,uint256)": "095ea7b3",
					"balanceOf(address)": "70a08231",
					"decimals()": "313ce567",
					"delB(address[])": "9b8fe422",
					"isBot(address)": "3bbac579",
					"manualSend()": "f4293890",
					"manualUnclog()": "38347fa4",
					"name()": "06fdde03",
					"openTrading()": "c9567bf9",
					"owner()": "8da5cb5b",
					"removeLimit()": "62256589",
					"renounceOwnership()": "715018a6",
					"symbol()": "95d89b41",
					"totalSupply()": "18160ddd",
					"transfer(address,uint256)": "a9059cbb",
					"transferFrom(address,address,uint256)": "23b872dd"
				}
			},
			"storageLayout": {
				"storage": [
					{
						"astId": 228,
						"contract": "Token_ETH.sol:CATE",
						"label": "_owner",
						"offset": 0,
						"slot": "0",
						"type": "t_address"
					},
					{
						"astId": 366,
						"contract": "Token_ETH.sol:CATE",
						"label": "_balances",
						"offset": 0,
						"slot": "1",
						"type": "t_mapping(t_address,t_uint256)"
					},
					{
						"astId": 372,
						"contract": "Token_ETH.sol:CATE",
						"label": "_allowances",
						"offset": 0,
						"slot": "2",
						"type": "t_mapping(t_address,t_mapping(t_address,t_uint256))"
					},
					{
						"astId": 376,
						"contract": "Token_ETH.sol:CATE",
						"label": "_isExcludedFromFee",
						"offset": 0,
						"slot": "3",
						"type": "t_mapping(t_address,t_bool)"
					},
					{
						"astId": 380,
						"contract": "Token_ETH.sol:CATE",
						"label": "bots",
						"offset": 0,
						"slot": "4",
						"type": "t_mapping(t_address,t_bool)"
					},
					{
						"astId": 382,
						"contract": "Token_ETH.sol:CATE",
						"label": "_taxWallet",
						"offset": 0,
						"slot": "5",
						"type": "t_address_payable"
					},
					{
						"astId": 385,
						"contract": "Token_ETH.sol:CATE",
						"label": "_initialBuyTax",
						"offset": 0,
						"slot": "6",
						"type": "t_uint256"
					},
					{
						"astId": 388,
						"contract": "Token_ETH.sol:CATE",
						"label": "_initialSellTax",
						"offset": 0,
						"slot": "7",
						"type": "t_uint256"
					},
					{
						"astId": 391,
						"contract": "Token_ETH.sol:CATE",
						"label": "_finalBuyTax",
						"offset": 0,
						"slot": "8",
						"type": "t_uint256"
					},
					{
						"astId": 394,
						"contract": "Token_ETH.sol:CATE",
						"label": "_finalSellTax",
						"offset": 0,
						"slot": "9",
						"type": "t_uint256"
					},
					{
						"astId": 397,
						"contract": "Token_ETH.sol:CATE",
						"label": "_reduceBuyTaxAt",
						"offset": 0,
						"slot": "10",
						"type": "t_uint256"
					},
					{
						"astId": 400,
						"contract": "Token_ETH.sol:CATE",
						"label": "_reduceSellTaxAt",
						"offset": 0,
						"slot": "11",
						"type": "t_uint256"
					},
					{
						"astId": 403,
						"contract": "Token_ETH.sol:CATE",
						"label": "_preventSwapBefore",
						"offset": 0,
						"slot": "12",
						"type": "t_uint256"
					},
					{
						"astId": 406,
						"contract": "Token_ETH.sol:CATE",
						"label": "_transferTax",
						"offset": 0,
						"slot": "13",
						"type": "t_uint256"
					},
					{
						"astId": 409,
						"contract": "Token_ETH.sol:CATE",
						"label": "_buyCount",
						"offset": 0,
						"slot": "14",
						"type": "t_uint256"
					},
					{
						"astId": 433,
						"contract": "Token_ETH.sol:CATE",
						"label": "_maxTxAmount",
						"offset": 0,
						"slot": "15",
						"type": "t_uint256"
					},
					{
						"astId": 441,
						"contract": "Token_ETH.sol:CATE",
						"label": "_maxWalletSize",
						"offset": 0,
						"slot": "16",
						"type": "t_uint256"
					},
					{
						"astId": 449,
						"contract": "Token_ETH.sol:CATE",
						"label": "_taxSwapThreshold",
						"offset": 0,
						"slot": "17",
						"type": "t_uint256"
					},
					{
						"astId": 457,
						"contract": "Token_ETH.sol:CATE",
						"label": "_maxTaxSwap",
						"offset": 0,
						"slot": "18",
						"type": "t_uint256"
					},
					{
						"astId": 460,
						"contract": "Token_ETH.sol:CATE",
						"label": "uniswapV2Router",
						"offset": 0,
						"slot": "19",
						"type": "t_contract(IUniswapV2Router02)353"
					},
					{
						"astId": 462,
						"contract": "Token_ETH.sol:CATE",
						"label": "uniswapV2Pair",
						"offset": 0,
						"slot": "20",
						"type": "t_address"
					},
					{
						"astId": 464,
						"contract": "Token_ETH.sol:CATE",
						"label": "tradingOpen",
						"offset": 20,
						"slot": "20",
						"type": "t_bool"
					},
					{
						"astId": 467,
						"contract": "Token_ETH.sol:CATE",
						"label": "inSwap",
						"offset": 21,
						"slot": "20",
						"type": "t_bool"
					},
					{
						"astId": 470,
						"contract": "Token_ETH.sol:CATE",
						"label": "swapEnabled",
						"offset": 22,
						"slot": "20",
						"type": "t_bool"
					},
					{
						"astId": 473,
						"contract": "Token_ETH.sol:CATE",
						"label": "sellCount",
						"offset": 0,
						"slot": "21",
						"type": "t_uint256"
					},
					{
						"astId": 476,
						"contract": "Token_ETH.sol:CATE",
						"label": "lastSellBlock",
						"offset": 0,
						"slot": "22",
						"type": "t_uint256"
					}
				],
				"types": {
					"t_address": {
						"encoding": "inplace",
						"label": "address",
						"numberOfBytes": "20"
					},
					"t_address_payable": {
						"encoding": "inplace",
						"label": "address payable",
						"numberOfBytes": "20"
					},
					"t_bool": {
						"encoding": "inplace",
						"label": "bool",
						"numberOfBytes": "1"
					},
					"t_contract(IUniswapV2Router02)353": {
						"encoding": "inplace",
						"label": "contract IUniswapV2Router02",
						"numberOfBytes": "20"
					},
					"t_mapping(t_address,t_bool)": {
						"encoding": "mapping",
						"key": "t_address",
						"label": "mapping(address => bool)",
						"numberOfBytes": "32",
						"value": "t_bool"
					},
					"t_mapping(t_address,t_mapping(t_address,t_uint256))": {
						"encoding": "mapping",
						"key": "t_address",
						"label": "mapping(address => mapping(address => uint256))",
						"numberOfBytes": "32",
						"value": "t_mapping(t_address,t_uint256)"
					},
					"t_mapping(t_address,t_uint256)": {
						"encoding": "mapping",
						"key": "t_address",
						"label": "mapping(address => uint256)",
						"numberOfBytes": "32",
						"value": "t_uint256"
					},
					"t_uint256": {
						"encoding": "inplace",
						"label": "uint256",
						"numberOfBytes": "32"
					}
				}
			},
			"userdoc": {
				"kind": "user",
				"methods": {},
				"version": 1
			}
		}
	}
}