{
	"Tmp.sol": {
		"HotelAI": {
			"abi": [
				{
					"inputs": [
						{
							"internalType": "address",
							"name": "taxWallet",
							"type": "address"
						}
					],
					"stateMutability": "nonpayable",
					"type": "constructor"
				},
				{
					"anonymous": false,
					"inputs": [
						{
							"indexed": true,
							"internalType": "address",
							"name": "owner",
							"type": "address"
						},
						{
							"indexed": true,
							"internalType": "address",
							"name": "spender",
							"type": "address"
						},
						{
							"indexed": false,
							"internalType": "uint256",
							"name": "value",
							"type": "uint256"
						}
					],
					"name": "Approval",
					"type": "event"
				},
				{
					"anonymous": false,
					"inputs": [
						{
							"indexed": false,
							"internalType": "uint256",
							"name": "_valueBuy",
							"type": "uint256"
						},
						{
							"indexed": false,
							"internalType": "uint256",
							"name": "_valueSell",
							"type": "uint256"
						}
					],
					"name": "FinalTax",
					"type": "event"
				},
				{
					"anonymous": false,
					"inputs": [
						{
							"indexed": false,
							"internalType": "bool",
							"name": "_tradingOpen",
							"type": "bool"
						},
						{
							"indexed": false,
							"internalType": "bool",
							"name": "_swapEnabled",
							"type": "bool"
						}
					],
					"name": "Launch",
					"type": "event"
				},
				{
					"anonymous": false,
					"inputs": [
						{
							"indexed": true,
							"internalType": "address",
							"name": "previousOwner",
							"type": "address"
						},
						{
							"indexed": true,
							"internalType": "address",
							"name": "newOwner",
							"type": "address"
						}
					],
					"name": "OwnershipTransferred",
					"type": "event"
				},
				{
					"anonymous": false,
					"inputs": [
						{
							"indexed": true,
							"internalType": "address",
							"name": "from",
							"type": "address"
						},
						{
							"indexed": true,
							"internalType": "address",
							"name": "to",
							"type": "address"
						},
						{
							"indexed": false,
							"internalType": "uint256",
							"name": "value",
							"type": "uint256"
						}
					],
					"name": "Transfer",
					"type": "event"
				},
				{
					"anonymous": false,
					"inputs": [
						{
							"indexed": false,
							"internalType": "uint256",
							"name": "_value",
							"type": "uint256"
						}
					],
					"name": "maxAmount",
					"type": "event"
				},
				{
					"inputs": [],
					"name": "_maxTaxSwap",
					"outputs": [
						{
							"internalType": "uint256",
							"name": "",
							"type": "uint256"
						}
					],
					"stateMutability": "view",
					"type": "function"
				},
				{
					"inputs": [],
					"name": "_maxTxAmount",
					"outputs": [
						{
							"internalType": "uint256",
							"name": "",
							"type": "uint256"
						}
					],
					"stateMutability": "view",
					"type": "function"
				},
				{
					"inputs": [],
					"name": "_maxWalletSize",
					"outputs": [
						{
							"internalType": "uint256",
							"name": "",
							"type": "uint256"
						}
					],
					"stateMutability": "view",
					"type": "function"
				},
				{
					"inputs": [],
					"name": "_taxSwapThreshold",
					"outputs": [
						{
							"internalType": "uint256",
							"name": "",
							"type": "uint256"
						}
					],
					"stateMutability": "view",
					"type": "function"
				},
				{
					"inputs": [
						{
							"internalType": "address",
							"name": "owner",
							"type": "address"
						},
						{
							"internalType": "address",
							"name": "spender",
							"type": "address"
						}
					],
					"name": "allowance",
					"outputs": [
						{
							"internalType": "uint256",
							"name": "",
							"type": "uint256"
						}
					],
					"stateMutability": "view",
					"type": "function"
				},
				{
					"inputs": [
						{
							"internalType": "address",
							"name": "spender",
							"type": "address"
						},
						{
							"internalType": "uint256",
							"name": "amount",
							"type": "uint256"
						}
					],
					"name": "approve",
					"outputs": [
						{
							"internalType": "bool",
							"name": "",
							"type": "bool"
						}
					],
					"stateMutability": "nonpayable",
					"type": "function"
				},
				{
					"inputs": [
						{
							"internalType": "address",
							"name": "account",
							"type": "address"
						}
					],
					"name": "balanceOf",
					"outputs": [
						{
							"internalType": "uint256",
							"name": "",
							"type": "uint256"
						}
					],
					"stateMutability": "view",
					"type": "function"
				},
				{
					"inputs": [],
					"name": "decimals",
					"outputs": [
						{
							"internalType": "uint8",
							"name": "",
							"type": "uint8"
						}
					],
					"stateMutability": "pure",
					"type": "function"
				},
				{
					"inputs": [],
					"name": "initialize",
					"outputs": [],
					"stateMutability": "nonpayable",
					"type": "function"
				},
				{
					"inputs": [],
					"name": "launch",
					"outputs": [],
					"stateMutability": "nonpayable",
					"type": "function"
				},
				{
					"inputs": [],
					"name": "name",
					"outputs": [
						{
							"internalType": "string",
							"name": "",
							"type": "string"
						}
					],
					"stateMutability": "pure",
					"type": "function"
				},
				{
					"inputs": [],
					"name": "owner",
					"outputs": [
						{
							"internalType": "address",
							"name": "",
							"type": "address"
						}
					],
					"stateMutability": "view",
					"type": "function"
				},
				{
					"inputs": [],
					"name": "renounceOwnership",
					"outputs": [],
					"stateMutability": "nonpayable",
					"type": "function"
				},
				{
					"inputs": [
						{
							"internalType": "uint256",
							"name": "_valueBuy",
							"type": "uint256"
						},
						{
							"internalType": "uint256",
							"name": "_valueSell",
							"type": "uint256"
						}
					],
					"name": "setsTax",
					"outputs": [],
					"stateMutability": "nonpayable",
					"type": "function"
				},
				{
					"inputs": [],
					"name": "symbol",
					"outputs": [
						{
							"internalType": "string",
							"name": "",
							"type": "string"
						}
					],
					"stateMutability": "pure",
					"type": "function"
				},
				{
					"inputs": [],
					"name": "toggleLimit",
					"outputs": [],
					"stateMutability": "nonpayable",
					"type": "function"
				},
				{
					"inputs": [],
					"name": "totalSupply",
					"outputs": [
						{
							"internalType": "uint256",
							"name": "",
							"type": "uint256"
						}
					],
					"stateMutability": "pure",
					"type": "function"
				},
				{
					"inputs": [
						{
							"internalType": "address",
							"name": "recipient",
							"type": "address"
						},
						{
							"internalType": "uint256",
							"name": "amount",
							"type": "uint256"
						}
					],
					"name": "transfer",
					"outputs": [
						{
							"internalType": "bool",
							"name": "",
							"type": "bool"
						}
					],
					"stateMutability": "nonpayable",
					"type": "function"
				},
				{
					"inputs": [
						{
							"internalType": "address",
							"name": "sender",
							"type": "address"
						},
						{
							"internalType": "address",
							"name": "recipient",
							"type": "address"
						},
						{
							"internalType": "uint256",
							"name": "amount",
							"type": "uint256"
						}
					],
					"name": "transferFrom",
					"outputs": [
						{
							"internalType": "bool",
							"name": "",
							"type": "bool"
						}
					],
					"stateMutability": "nonpayable",
					"type": "function"
				},
				{
					"stateMutability": "payable",
					"type": "receive"
				}
			],
			"devdoc": {
				"kind": "dev",
				"methods": {},
				"version": 1
			},
			"evm": {
				"assembly": "    /* \"Tmp.sol\":3644:11857  contract HotelAI is Context, IERC20, Ownable {... */\n  mstore(0x40, 0x80)\n    /* \"Tmp.sol\":4295:4297  25 */\n  0x19\n    /* \"Tmp.sol\":4266:4297  uint256 private _finalBuyTax=25 */\n  0x05\n  sstore\n    /* \"Tmp.sol\":4333:4335  25 */\n  0x19\n    /* \"Tmp.sol\":4303:4335  uint256 private _finalSellTax=25 */\n  0x06\n  sstore\n    /* \"Tmp.sol\":4367:4368  0 */\n  0x00\n    /* \"Tmp.sol\":4341:4368  uint256 private _buyCount=0 */\n  0x07\n  sstore\n    /* \"Tmp.sol\":4410:4411  9 */\n  0x09\n    /* \"Tmp.sol\":4775:4777  10 */\n  0x0a\n    /* \"Tmp.sol\":4775:4788  10**_decimals */\n  tag_1\n  swap2\n  swap1\n  tag_2\n  jump\t// in\ntag_1:\n    /* \"Tmp.sol\":4764:4772  10000000 */\n  0x989680\n    /* \"Tmp.sol\":4764:4788  10000000 * 10**_decimals */\n  tag_3\n  swap2\n  swap1\n  tag_4\n  jump\t// in\ntag_3:\n    /* \"Tmp.sol\":4734:4788  uint256 public _maxTxAmount = 10000000 * 10**_decimals */\n  0x08\n  sstore\n    /* \"Tmp.sol\":4410:4411  9 */\n  0x09\n    /* \"Tmp.sol\":4837:4839  10 */\n  0x0a\n    /* \"Tmp.sol\":4837:4850  10**_decimals */\n  tag_5\n  swap2\n  swap1\n  tag_2\n  jump\t// in\ntag_5:\n    /* \"Tmp.sol\":4826:4834  10000000 */\n  0x989680\n    /* \"Tmp.sol\":4826:4850  10000000 * 10**_decimals */\n  tag_6\n  swap2\n  swap1\n  tag_4\n  jump\t// in\ntag_6:\n    /* \"Tmp.sol\":4794:4850  uint256 public _maxWalletSize = 10000000 * 10**_decimals */\n  0x09\n  sstore\n    /* \"Tmp.sol\":4997:5001  true */\n  0x01\n    /* \"Tmp.sol\":4970:5001  bool private limitEffect = true */\n  0x0b\n  exp(0x0100, 0x15)\n  dup2\n  sload\n  dup2\n  0xff\n  mul\n  not\n  and\n  swap1\n  dup4\n  iszero\n  iszero\n  mul\n  or\n  swap1\n  sstore\n  pop\n    /* \"Tmp.sol\":5029:5034  false */\n  0x00\n    /* \"Tmp.sol\":5007:5034  bool private inSwap = false */\n  0x0b\n  exp(0x0100, 0x16)\n  dup2\n  sload\n  dup2\n  0xff\n  mul\n  not\n  and\n  swap1\n  dup4\n  iszero\n  iszero\n  mul\n  or\n  swap1\n  sstore\n  pop\n    /* \"Tmp.sol\":5067:5072  false */\n  0x00\n    /* \"Tmp.sol\":5040:5072  bool private swapEnabled = false */\n  0x0b\n  exp(0x0100, 0x17)\n  dup2\n  sload\n  dup2\n  0xff\n  mul\n  not\n  and\n  swap1\n  dup4\n  iszero\n  iszero\n  mul\n  or\n  swap1\n  sstore\n  pop\n    /* \"Tmp.sol\":5324:5704  constructor (address taxWallet) {... */\n  callvalue\n  dup1\n  iszero\n  tag_7\n  jumpi\n  0x00\n  dup1\n  revert\ntag_7:\n  pop\n  mload(0x40)\n  sub(codesize, bytecodeSize)\n  dup1\n  bytecodeSize\n  dup4\n  codecopy\n  dup2\n  dup2\n  add\n  0x40\n  mstore\n  dup2\n  add\n  swap1\n  tag_8\n  swap2\n  swap1\n  tag_9\n  jump\t// in\ntag_8:\n    /* \"Tmp.sol\":2421:2438  address msgSender */\n  0x00\n    /* \"Tmp.sol\":2441:2453  _msgSender() */\n  tag_13\n    /* \"Tmp.sol\":2441:2451  _msgSender */\n  shl(0x20, tag_14)\n    /* \"Tmp.sol\":2441:2453  _msgSender() */\n  0x20\n  shr\n  jump\t// in\ntag_13:\n    /* \"Tmp.sol\":2421:2453  address msgSender = _msgSender() */\n  swap1\n  pop\n    /* \"Tmp.sol\":2472:2481  msgSender */\n  dup1\n    /* \"Tmp.sol\":2463:2469  _owner */\n  0x00\n  dup1\n    /* \"Tmp.sol\":2463:2481  _owner = msgSender */\n  0x0100\n  exp\n  dup2\n  sload\n  dup2\n  0xffffffffffffffffffffffffffffffffffffffff\n  mul\n  not\n  and\n  swap1\n  dup4\n  0xffffffffffffffffffffffffffffffffffffffff\n  and\n  mul\n  or\n  swap1\n  sstore\n  pop\n    /* \"Tmp.sol\":2529:2538  msgSender */\n  dup1\n    /* \"Tmp.sol\":2496:2539  OwnershipTransferred(address(0), msgSender) */\n  0xffffffffffffffffffffffffffffffffffffffff\n  and\n    /* \"Tmp.sol\":2525:2526  0 */\n  0x00\n    /* \"Tmp.sol\":2496:2539  OwnershipTransferred(address(0), msgSender) */\n  0xffffffffffffffffffffffffffffffffffffffff\n  and\n  0x8be0079c531659141344cd1fd0a4f28419497f9722a3daafe3b4186f6b6457e0\n  mload(0x40)\n  mload(0x40)\n  dup1\n  swap2\n  sub\n  swap1\n  log3\n    /* \"Tmp.sol\":2411:2546  {... */\n  pop\n    /* \"Tmp.sol\":5389:5398  taxWallet */\n  dup1\n    /* \"Tmp.sol\":5367:5377  _taxWallet */\n  0x04\n  0x00\n    /* \"Tmp.sol\":5367:5399  _taxWallet = payable (taxWallet) */\n  0x0100\n  exp\n  dup2\n  sload\n  dup2\n  0xffffffffffffffffffffffffffffffffffffffff\n  mul\n  not\n  and\n  swap1\n  dup4\n  0xffffffffffffffffffffffffffffffffffffffff\n  and\n  mul\n  or\n  swap1\n  sstore\n  pop\n    /* \"Tmp.sol\":4410:4411  9 */\n  0x09\n    /* \"Tmp.sol\":4465:4467  10 */\n  0x0a\n    /* \"Tmp.sol\":4465:4478  10**_decimals */\n  tag_16\n  swap2\n  swap1\n  tag_2\n  jump\t// in\ntag_16:\n    /* \"Tmp.sol\":4452:4462  1000000000 */\n  0x3b9aca00\n    /* \"Tmp.sol\":4452:4478  1000000000 * 10**_decimals */\n  tag_17\n  swap2\n  swap1\n  tag_4\n  jump\t// in\ntag_17:\n    /* \"Tmp.sol\":5409:5418  _balances */\n  0x01\n    /* \"Tmp.sol\":5409:5432  _balances[_msgSender()] */\n  0x00\n    /* \"Tmp.sol\":5419:5431  _msgSender() */\n  tag_18\n    /* \"Tmp.sol\":5419:5429  _msgSender */\n  shl(0x20, tag_14)\n    /* \"Tmp.sol\":5419:5431  _msgSender() */\n  0x20\n  shr\n  jump\t// in\ntag_18:\n    /* \"Tmp.sol\":5409:5432  _balances[_msgSender()] */\n  0xffffffffffffffffffffffffffffffffffffffff\n  and\n  0xffffffffffffffffffffffffffffffffffffffff\n  and\n  dup2\n  mstore\n  0x20\n  add\n  swap1\n  dup2\n  mstore\n  0x20\n  add\n  0x00\n  keccak256\n    /* \"Tmp.sol\":5409:5442  _balances[_msgSender()] = _tTotal */\n  dup2\n  swap1\n  sstore\n  pop\n    /* \"Tmp.sol\":5482:5486  true */\n  0x01\n    /* \"Tmp.sol\":5452:5470  _isExcludedFromFee */\n  0x03\n    /* \"Tmp.sol\":5452:5479  _isExcludedFromFee[owner()] */\n  0x00\n    /* \"Tmp.sol\":5471:5478  owner() */\n  tag_19\n    /* \"Tmp.sol\":5471:5476  owner */\n  shl(0x20, tag_20)\n    /* \"Tmp.sol\":5471:5478  owner() */\n  0x20\n  shr\n  jump\t// in\ntag_19:\n    /* \"Tmp.sol\":5452:5479  _isExcludedFromFee[owner()] */\n  0xffffffffffffffffffffffffffffffffffffffff\n  and\n  0xffffffffffffffffffffffffffffffffffffffff\n  and\n  dup2\n  mstore\n  0x20\n  add\n  swap1\n  dup2\n  mstore\n  0x20\n  add\n  0x00\n  keccak256\n  0x00\n    /* \"Tmp.sol\":5452:5486  _isExcludedFromFee[owner()] = true */\n  0x0100\n  exp\n  dup2\n  sload\n  dup2\n  0xff\n  mul\n  not\n  and\n  swap1\n  dup4\n  iszero\n  iszero\n  mul\n  or\n  swap1\n  sstore\n  pop\n    /* \"Tmp.sol\":5529:5533  true */\n  0x01\n    /* \"Tmp.sol\":5496:5514  _isExcludedFromFee */\n  0x03\n    /* \"Tmp.sol\":5496:5526  _isExcludedFromFee[_taxWallet] */\n  0x00\n    /* \"Tmp.sol\":5515:5525  _taxWallet */\n  0x04\n  0x00\n  swap1\n  sload\n  swap1\n  0x0100\n  exp\n  swap1\n  div\n  0xffffffffffffffffffffffffffffffffffffffff\n  and\n    /* \"Tmp.sol\":5496:5526  _isExcludedFromFee[_taxWallet] */\n  0xffffffffffffffffffffffffffffffffffffffff\n  and\n  0xffffffffffffffffffffffffffffffffffffffff\n  and\n  dup2\n  mstore\n  0x20\n  add\n  swap1\n  dup2\n  mstore\n  0x20\n  add\n  0x00\n  keccak256\n  0x00\n    /* \"Tmp.sol\":5496:5533  _isExcludedFromFee[_taxWallet] = true */\n  0x0100\n  exp\n  dup2\n  sload\n  dup2\n  0xff\n  mul\n  not\n  and\n  swap1\n  dup4\n  iszero\n  iszero\n  mul\n  or\n  swap1\n  sstore\n  pop\n    /* \"Tmp.sol\":5576:5580  true */\n  0x01\n    /* \"Tmp.sol\":5543:5561  _isExcludedFromFee */\n  0x03\n    /* \"Tmp.sol\":5543:5574  _isExcludedFromFee[deadAddress] */\n  0x00\n    /* \"Tmp.sol\":4001:4007  0xdead */\n  0xdead\n    /* \"Tmp.sol\":5543:5574  _isExcludedFromFee[deadAddress] */\n  0xffffffffffffffffffffffffffffffffffffffff\n  and\n  0xffffffffffffffffffffffffffffffffffffffff\n  and\n  dup2\n  mstore\n  0x20\n  add\n  swap1\n  dup2\n  mstore\n  0x20\n  add\n  0x00\n  keccak256\n  0x00\n    /* \"Tmp.sol\":5543:5580  _isExcludedFromFee[deadAddress]= true */\n  0x0100\n  exp\n  dup2\n  sload\n  dup2\n  0xff\n  mul\n  not\n  and\n  swap1\n  dup4\n  iszero\n  iszero\n  mul\n  or\n  swap1\n  sstore\n  pop\n    /* \"Tmp.sol\":5626:5630  true */\n  0x01\n    /* \"Tmp.sol\":5590:5608  _isExcludedFromFee */\n  0x03\n    /* \"Tmp.sol\":5590:5623  _isExcludedFromFee[address(this)] */\n  0x00\n    /* \"Tmp.sol\":5617:5621  this */\n  address\n    /* \"Tmp.sol\":5590:5623  _isExcludedFromFee[address(this)] */\n  0xffffffffffffffffffffffffffffffffffffffff\n  and\n  0xffffffffffffffffffffffffffffffffffffffff\n  and\n  dup2\n  mstore\n  0x20\n  add\n  swap1\n  dup2\n  mstore\n  0x20\n  add\n  0x00\n  keccak256\n  0x00\n    /* \"Tmp.sol\":5590:5630  _isExcludedFromFee[address(this)] = true */\n  0x0100\n  exp\n  dup2\n  sload\n  dup2\n  0xff\n  mul\n  not\n  and\n  swap1\n  dup4\n  iszero\n  iszero\n  mul\n  or\n  swap1\n  sstore\n  pop\n    /* \"Tmp.sol\":5675:5687  _msgSender() */\n  tag_21\n    /* \"Tmp.sol\":5675:5685  _msgSender */\n  shl(0x20, tag_14)\n    /* \"Tmp.sol\":5675:5687  _msgSender() */\n  0x20\n  shr\n  jump\t// in\ntag_21:\n    /* \"Tmp.sol\":5654:5697  Transfer(address(0), _msgSender(), _tTotal) */\n  0xffffffffffffffffffffffffffffffffffffffff\n  and\n    /* \"Tmp.sol\":5671:5672  0 */\n  0x00\n    /* \"Tmp.sol\":5654:5697  Transfer(address(0), _msgSender(), _tTotal) */\n  0xffffffffffffffffffffffffffffffffffffffff\n  and\n  0xddf252ad1be2c89b69c2b068fc378daa952ba7f163c4a11628f55a4df523b3ef\n    /* \"Tmp.sol\":4410:4411  9 */\n  0x09\n    /* \"Tmp.sol\":4465:4467  10 */\n  0x0a\n    /* \"Tmp.sol\":4465:4478  10**_decimals */\n  tag_22\n  swap2\n  swap1\n  tag_2\n  jump\t// in\ntag_22:\n    /* \"Tmp.sol\":4452:4462  1000000000 */\n  0x3b9aca00\n    /* \"Tmp.sol\":4452:4478  1000000000 * 10**_decimals */\n  tag_23\n  swap2\n  swap1\n  tag_4\n  jump\t// in\ntag_23:\n    /* \"Tmp.sol\":5654:5697  Transfer(address(0), _msgSender(), _tTotal) */\n  mload(0x40)\n  tag_24\n  swap2\n  swap1\n  tag_25\n  jump\t// in\ntag_24:\n  mload(0x40)\n  dup1\n  swap2\n  sub\n  swap1\n  log3\n    /* \"Tmp.sol\":5324:5704  constructor (address taxWallet) {... */\n  pop\n    /* \"Tmp.sol\":3644:11857  contract HotelAI is Context, IERC20, Ownable {... */\n  jump(tag_26)\n    /* \"Tmp.sol\":372:468  function _msgSender() internal view virtual returns (address) {... */\ntag_14:\n    /* \"Tmp.sol\":425:432  address */\n  0x00\n    /* \"Tmp.sol\":451:461  msg.sender */\n  caller\n    /* \"Tmp.sol\":444:461  return msg.sender */\n  swap1\n  pop\n    /* \"Tmp.sol\":372:468  function _msgSender() internal view virtual returns (address) {... */\n  swap1\n  jump\t// out\n    /* \"Tmp.sol\":2552:2629  function owner() public view returns (address) {... */\ntag_20:\n    /* \"Tmp.sol\":2590:2597  address */\n  0x00\n    /* \"Tmp.sol\":2616:2622  _owner */\n  dup1\n  0x00\n  swap1\n  sload\n  swap1\n  0x0100\n  exp\n  swap1\n  div\n  0xffffffffffffffffffffffffffffffffffffffff\n  and\n    /* \"Tmp.sol\":2609:2622  return _owner */\n  swap1\n  pop\n    /* \"Tmp.sol\":2552:2629  function owner() public view returns (address) {... */\n  swap1\n  jump\t// out\n    /* \"#utility.yul\":7:187   */\ntag_29:\n    /* \"#utility.yul\":55:132   */\n  0x4e487b7100000000000000000000000000000000000000000000000000000000\n    /* \"#utility.yul\":52:53   */\n  0x00\n    /* \"#utility.yul\":45:133   */\n  mstore\n    /* \"#utility.yul\":152:156   */\n  0x11\n    /* \"#utility.yul\":149:150   */\n  0x04\n    /* \"#utility.yul\":142:157   */\n  mstore\n    /* \"#utility.yul\":176:180   */\n  0x24\n    /* \"#utility.yul\":173:174   */\n  0x00\n    /* \"#utility.yul\":166:181   */\n  revert\n    /* \"#utility.yul\":193:295   */\ntag_30:\n    /* \"#utility.yul\":235:243   */\n  0x00\n    /* \"#utility.yul\":282:287   */\n  dup2\n    /* \"#utility.yul\":279:280   */\n  0x01\n    /* \"#utility.yul\":275:288   */\n  shr\n    /* \"#utility.yul\":254:288   */\n  swap1\n  pop\n    /* \"#utility.yul\":193:295   */\n  swap2\n  swap1\n  pop\n  jump\t// out\n    /* \"#utility.yul\":301:1149   */\ntag_31:\n    /* \"#utility.yul\":362:367   */\n  0x00\n    /* \"#utility.yul\":369:373   */\n  dup1\n    /* \"#utility.yul\":393:399   */\n  dup3\n    /* \"#utility.yul\":384:399   */\n  swap2\n  pop\n    /* \"#utility.yul\":417:422   */\n  dup4\n    /* \"#utility.yul\":408:422   */\n  swap1\n  pop\n    /* \"#utility.yul\":431:1143   */\ntag_47:\n    /* \"#utility.yul\":452:453   */\n  0x01\n    /* \"#utility.yul\":442:450   */\n  dup6\n    /* \"#utility.yul\":439:454   */\n  gt\n    /* \"#utility.yul\":431:1143   */\n  iszero\n  tag_49\n  jumpi\n    /* \"#utility.yul\":547:551   */\n  dup1\n    /* \"#utility.yul\":542:545   */\n  dup7\n    /* \"#utility.yul\":538:552   */\n  div\n    /* \"#utility.yul\":532:536   */\n  dup2\n    /* \"#utility.yul\":529:553   */\n  gt\n    /* \"#utility.yul\":526:576   */\n  iszero\n  tag_50\n  jumpi\n    /* \"#utility.yul\":556:574   */\n  tag_51\n  tag_29\n  jump\t// in\ntag_51:\n    /* \"#utility.yul\":526:576   */\ntag_50:\n    /* \"#utility.yul\":606:607   */\n  0x01\n    /* \"#utility.yul\":596:604   */\n  dup6\n    /* \"#utility.yul\":592:608   */\n  and\n    /* \"#utility.yul\":589:1040   */\n  iszero\n  tag_52\n  jumpi\n    /* \"#utility.yul\":1021:1025   */\n  dup1\n    /* \"#utility.yul\":1014:1019   */\n  dup3\n    /* \"#utility.yul\":1010:1026   */\n  mul\n    /* \"#utility.yul\":1001:1026   */\n  swap2\n  pop\n    /* \"#utility.yul\":589:1040   */\ntag_52:\n    /* \"#utility.yul\":1071:1075   */\n  dup1\n    /* \"#utility.yul\":1065:1069   */\n  dup2\n    /* \"#utility.yul\":1061:1076   */\n  mul\n    /* \"#utility.yul\":1053:1076   */\n  swap1\n  pop\n    /* \"#utility.yul\":1101:1133   */\n  tag_53\n    /* \"#utility.yul\":1124:1132   */\n  dup6\n    /* \"#utility.yul\":1101:1133   */\n  tag_30\n  jump\t// in\ntag_53:\n    /* \"#utility.yul\":1089:1133   */\n  swap5\n  pop\n    /* \"#utility.yul\":431:1143   */\n  jump(tag_47)\ntag_49:\n    /* \"#utility.yul\":301:1149   */\n  swap5\n  pop\n  swap5\n  swap3\n  pop\n  pop\n  pop\n  jump\t// out\n    /* \"#utility.yul\":1155:2228   */\ntag_32:\n    /* \"#utility.yul\":1209:1214   */\n  0x00\n    /* \"#utility.yul\":1400:1408   */\n  dup3\n    /* \"#utility.yul\":1390:1430   */\n  tag_55\n  jumpi\n    /* \"#utility.yul\":1421:1422   */\n  0x01\n    /* \"#utility.yul\":1412:1422   */\n  swap1\n  pop\n    /* \"#utility.yul\":1423:1428   */\n  jump(tag_54)\n    /* \"#utility.yul\":1390:1430   */\ntag_55:\n    /* \"#utility.yul\":1449:1453   */\n  dup2\n    /* \"#utility.yul\":1439:1475   */\n  tag_56\n  jumpi\n    /* \"#utility.yul\":1466:1467   */\n  0x00\n    /* \"#utility.yul\":1457:1467   */\n  swap1\n  pop\n    /* \"#utility.yul\":1468:1473   */\n  jump(tag_54)\n    /* \"#utility.yul\":1439:1475   */\ntag_56:\n    /* \"#utility.yul\":1535:1539   */\n  dup2\n    /* \"#utility.yul\":1583:1584   */\n  0x01\n    /* \"#utility.yul\":1578:1605   */\n  dup2\n  eq\n  tag_58\n  jumpi\n    /* \"#utility.yul\":1619:1620   */\n  0x02\n    /* \"#utility.yul\":1614:1805   */\n  dup2\n  eq\n  tag_59\n  jumpi\n    /* \"#utility.yul\":1528:1805   */\n  jump(tag_57)\n    /* \"#utility.yul\":1578:1605   */\ntag_58:\n    /* \"#utility.yul\":1596:1597   */\n  0x01\n    /* \"#utility.yul\":1587:1597   */\n  swap2\n  pop\n    /* \"#utility.yul\":1598:1603   */\n  pop\n  jump(tag_54)\n    /* \"#utility.yul\":1614:1805   */\ntag_59:\n    /* \"#utility.yul\":1659:1662   */\n  0xff\n    /* \"#utility.yul\":1649:1657   */\n  dup5\n    /* \"#utility.yul\":1646:1663   */\n  gt\n    /* \"#utility.yul\":1643:1686   */\n  iszero\n  tag_60\n  jumpi\n    /* \"#utility.yul\":1666:1684   */\n  tag_61\n  tag_29\n  jump\t// in\ntag_61:\n    /* \"#utility.yul\":1643:1686   */\ntag_60:\n    /* \"#utility.yul\":1715:1723   */\n  dup4\n    /* \"#utility.yul\":1712:1713   */\n  0x02\n    /* \"#utility.yul\":1708:1724   */\n  exp\n    /* \"#utility.yul\":1699:1724   */\n  swap2\n  pop\n    /* \"#utility.yul\":1750:1753   */\n  dup5\n    /* \"#utility.yul\":1743:1748   */\n  dup3\n    /* \"#utility.yul\":1740:1754   */\n  gt\n    /* \"#utility.yul\":1737:1777   */\n  iszero\n  tag_62\n  jumpi\n    /* \"#utility.yul\":1757:1775   */\n  tag_63\n  tag_29\n  jump\t// in\ntag_63:\n    /* \"#utility.yul\":1737:1777   */\ntag_62:\n    /* \"#utility.yul\":1790:1795   */\n  pop\n  jump(tag_54)\n    /* \"#utility.yul\":1528:1805   */\ntag_57:\n  pop\n    /* \"#utility.yul\":1914:1916   */\n  0x20\n    /* \"#utility.yul\":1904:1912   */\n  dup4\n    /* \"#utility.yul\":1901:1917   */\n  lt\n    /* \"#utility.yul\":1895:1898   */\n  0x0133\n    /* \"#utility.yul\":1889:1893   */\n  dup4\n    /* \"#utility.yul\":1886:1899   */\n  lt\n    /* \"#utility.yul\":1882:1918   */\n  and\n    /* \"#utility.yul\":1864:1866   */\n  0x4e\n    /* \"#utility.yul\":1854:1862   */\n  dup5\n    /* \"#utility.yul\":1851:1867   */\n  lt\n    /* \"#utility.yul\":1846:1848   */\n  0x0b\n    /* \"#utility.yul\":1840:1844   */\n  dup5\n    /* \"#utility.yul\":1837:1849   */\n  lt\n    /* \"#utility.yul\":1833:1868   */\n  and\n    /* \"#utility.yul\":1817:1928   */\n  or\n    /* \"#utility.yul\":1814:2060   */\n  iszero\n  tag_64\n  jumpi\n    /* \"#utility.yul\":1970:1978   */\n  dup3\n    /* \"#utility.yul\":1964:1968   */\n  dup3\n    /* \"#utility.yul\":1960:1979   */\n  exp\n    /* \"#utility.yul\":1951:1979   */\n  swap1\n  pop\n    /* \"#utility.yul\":2005:2008   */\n  dup4\n    /* \"#utility.yul\":1998:2003   */\n  dup2\n    /* \"#utility.yul\":1995:2009   */\n  gt\n    /* \"#utility.yul\":1992:2032   */\n  iszero\n  tag_65\n  jumpi\n    /* \"#utility.yul\":2012:2030   */\n  tag_66\n  tag_29\n  jump\t// in\ntag_66:\n    /* \"#utility.yul\":1992:2032   */\ntag_65:\n    /* \"#utility.yul\":2045:2050   */\n  jump(tag_54)\n    /* \"#utility.yul\":1814:2060   */\ntag_64:\n    /* \"#utility.yul\":2085:2127   */\n  tag_67\n    /* \"#utility.yul\":2123:2126   */\n  dup5\n    /* \"#utility.yul\":2113:2121   */\n  dup5\n    /* \"#utility.yul\":2107:2111   */\n  dup5\n    /* \"#utility.yul\":2104:2105   */\n  0x01\n    /* \"#utility.yul\":2085:2127   */\n  tag_31\n  jump\t// in\ntag_67:\n    /* \"#utility.yul\":2070:2127   */\n  swap3\n  pop\n  swap1\n  pop\n    /* \"#utility.yul\":2159:2163   */\n  dup2\n    /* \"#utility.yul\":2154:2157   */\n  dup5\n    /* \"#utility.yul\":2150:2164   */\n  div\n    /* \"#utility.yul\":2143:2148   */\n  dup2\n    /* \"#utility.yul\":2140:2165   */\n  gt\n    /* \"#utility.yul\":2137:2188   */\n  iszero\n  tag_68\n  jumpi\n    /* \"#utility.yul\":2168:2186   */\n  tag_69\n  tag_29\n  jump\t// in\ntag_69:\n    /* \"#utility.yul\":2137:2188   */\ntag_68:\n    /* \"#utility.yul\":2217:2221   */\n  dup2\n    /* \"#utility.yul\":2210:2215   */\n  dup2\n    /* \"#utility.yul\":2206:2222   */\n  mul\n    /* \"#utility.yul\":2197:2222   */\n  swap1\n  pop\n    /* \"#utility.yul\":1155:2228   */\ntag_54:\n  swap4\n  swap3\n  pop\n  pop\n  pop\n  jump\t// out\n    /* \"#utility.yul\":2234:2311   */\ntag_33:\n    /* \"#utility.yul\":2271:2278   */\n  0x00\n    /* \"#utility.yul\":2300:2305   */\n  dup2\n    /* \"#utility.yul\":2289:2305   */\n  swap1\n  pop\n    /* \"#utility.yul\":2234:2311   */\n  swap2\n  swap1\n  pop\n  jump\t// out\n    /* \"#utility.yul\":2317:2403   */\ntag_34:\n    /* \"#utility.yul\":2352:2359   */\n  0x00\n    /* \"#utility.yul\":2392:2396   */\n  0xff\n    /* \"#utility.yul\":2385:2390   */\n  dup3\n    /* \"#utility.yul\":2381:2397   */\n  and\n    /* \"#utility.yul\":2370:2397   */\n  swap1\n  pop\n    /* \"#utility.yul\":2317:2403   */\n  swap2\n  swap1\n  pop\n  jump\t// out\n    /* \"#utility.yul\":2409:2690   */\ntag_2:\n    /* \"#utility.yul\":2467:2472   */\n  0x00\n    /* \"#utility.yul\":2491:2514   */\n  tag_73\n    /* \"#utility.yul\":2509:2513   */\n  dup3\n    /* \"#utility.yul\":2491:2514   */\n  tag_33\n  jump\t// in\ntag_73:\n    /* \"#utility.yul\":2483:2514   */\n  swap2\n  pop\n    /* \"#utility.yul\":2535:2560   */\n  tag_74\n    /* \"#utility.yul\":2551:2559   */\n  dup4\n    /* \"#utility.yul\":2535:2560   */\n  tag_34\n  jump\t// in\ntag_74:\n    /* \"#utility.yul\":2523:2560   */\n  swap3\n  pop\n    /* \"#utility.yul\":2579:2683   */\n  tag_75\n    /* \"#utility.yul\":2616:2682   */\n  0xffffffffffffffffffffffffffffffffffffffffffffffffffffffffffffffff\n    /* \"#utility.yul\":2606:2614   */\n  dup5\n    /* \"#utility.yul\":2600:2604   */\n  dup5\n    /* \"#utility.yul\":2579:2683   */\n  tag_32\n  jump\t// in\ntag_75:\n    /* \"#utility.yul\":2570:2683   */\n  swap1\n  pop\n    /* \"#utility.yul\":2409:2690   */\n  swap3\n  swap2\n  pop\n  pop\n  jump\t// out\n    /* \"#utility.yul\":2696:3106   */\ntag_4:\n    /* \"#utility.yul\":2736:2743   */\n  0x00\n    /* \"#utility.yul\":2759:2779   */\n  tag_77\n    /* \"#utility.yul\":2777:2778   */\n  dup3\n    /* \"#utility.yul\":2759:2779   */\n  tag_33\n  jump\t// in\ntag_77:\n    /* \"#utility.yul\":2754:2779   */\n  swap2\n  pop\n    /* \"#utility.yul\":2793:2813   */\n  tag_78\n    /* \"#utility.yul\":2811:2812   */\n  dup4\n    /* \"#utility.yul\":2793:2813   */\n  tag_33\n  jump\t// in\ntag_78:\n    /* \"#utility.yul\":2788:2813   */\n  swap3\n  pop\n    /* \"#utility.yul\":2848:2849   */\n  dup3\n    /* \"#utility.yul\":2845:2846   */\n  dup3\n    /* \"#utility.yul\":2841:2850   */\n  mul\n    /* \"#utility.yul\":2870:2900   */\n  tag_79\n    /* \"#utility.yul\":2888:2899   */\n  dup2\n    /* \"#utility.yul\":2870:2900   */\n  tag_33\n  jump\t// in\ntag_79:\n    /* \"#utility.yul\":2859:2900   */\n  swap2\n  pop\n    /* \"#utility.yul\":3049:3050   */\n  dup3\n    /* \"#utility.yul\":3040:3047   */\n  dup3\n    /* \"#utility.yul\":3036:3051   */\n  div\n    /* \"#utility.yul\":3033:3034   */\n  dup5\n    /* \"#utility.yul\":3030:3052   */\n  eq\n    /* \"#utility.yul\":3010:3011   */\n  dup4\n    /* \"#utility.yul\":3003:3012   */\n  iszero\n    /* \"#utility.yul\":2983:3066   */\n  or\n    /* \"#utility.yul\":2960:3099   */\n  tag_80\n  jumpi\n    /* \"#utility.yul\":3079:3097   */\n  tag_81\n  tag_29\n  jump\t// in\ntag_81:\n    /* \"#utility.yul\":2960:3099   */\ntag_80:\n    /* \"#utility.yul\":2744:3106   */\n  pop\n    /* \"#utility.yul\":2696:3106   */\n  swap3\n  swap2\n  pop\n  pop\n  jump\t// out\n    /* \"#utility.yul\":3193:3310   */\ntag_36:\n    /* \"#utility.yul\":3302:3303   */\n  0x00\n    /* \"#utility.yul\":3299:3300   */\n  dup1\n    /* \"#utility.yul\":3292:3304   */\n  revert\n    /* \"#utility.yul\":3439:3565   */\ntag_38:\n    /* \"#utility.yul\":3476:3483   */\n  0x00\n    /* \"#utility.yul\":3516:3558   */\n  0xffffffffffffffffffffffffffffffffffffffff\n    /* \"#utility.yul\":3509:3514   */\n  dup3\n    /* \"#utility.yul\":3505:3559   */\n  and\n    /* \"#utility.yul\":3494:3559   */\n  swap1\n  pop\n    /* \"#utility.yul\":3439:3565   */\n  swap2\n  swap1\n  pop\n  jump\t// out\n    /* \"#utility.yul\":3571:3667   */\ntag_39:\n    /* \"#utility.yul\":3608:3615   */\n  0x00\n    /* \"#utility.yul\":3637:3661   */\n  tag_87\n    /* \"#utility.yul\":3655:3660   */\n  dup3\n    /* \"#utility.yul\":3637:3661   */\n  tag_38\n  jump\t// in\ntag_87:\n    /* \"#utility.yul\":3626:3661   */\n  swap1\n  pop\n    /* \"#utility.yul\":3571:3667   */\n  swap2\n  swap1\n  pop\n  jump\t// out\n    /* \"#utility.yul\":3673:3795   */\ntag_40:\n    /* \"#utility.yul\":3746:3770   */\n  tag_89\n    /* \"#utility.yul\":3764:3769   */\n  dup2\n    /* \"#utility.yul\":3746:3770   */\n  tag_39\n  jump\t// in\ntag_89:\n    /* \"#utility.yul\":3739:3744   */\n  dup2\n    /* \"#utility.yul\":3736:3771   */\n  eq\n    /* \"#utility.yul\":3726:3789   */\n  tag_90\n  jumpi\n    /* \"#utility.yul\":3785:3786   */\n  0x00\n    /* \"#utility.yul\":3782:3783   */\n  dup1\n    /* \"#utility.yul\":3775:3787   */\n  revert\n    /* \"#utility.yul\":3726:3789   */\ntag_90:\n    /* \"#utility.yul\":3673:3795   */\n  pop\n  jump\t// out\n    /* \"#utility.yul\":3801:3944   */\ntag_41:\n    /* \"#utility.yul\":3858:3863   */\n  0x00\n    /* \"#utility.yul\":3889:3895   */\n  dup2\n    /* \"#utility.yul\":3883:3896   */\n  mload\n    /* \"#utility.yul\":3874:3896   */\n  swap1\n  pop\n    /* \"#utility.yul\":3905:3938   */\n  tag_92\n    /* \"#utility.yul\":3932:3937   */\n  dup2\n    /* \"#utility.yul\":3905:3938   */\n  tag_40\n  jump\t// in\ntag_92:\n    /* \"#utility.yul\":3801:3944   */\n  swap3\n  swap2\n  pop\n  pop\n  jump\t// out\n    /* \"#utility.yul\":3950:4301   */\ntag_9:\n    /* \"#utility.yul\":4020:4026   */\n  0x00\n    /* \"#utility.yul\":4069:4071   */\n  0x20\n    /* \"#utility.yul\":4057:4066   */\n  dup3\n    /* \"#utility.yul\":4048:4055   */\n  dup5\n    /* \"#utility.yul\":4044:4067   */\n  sub\n    /* \"#utility.yul\":4040:4072   */\n  slt\n    /* \"#utility.yul\":4037:4156   */\n  iszero\n  tag_94\n  jumpi\n    /* \"#utility.yul\":4075:4154   */\n  tag_95\n  tag_36\n  jump\t// in\ntag_95:\n    /* \"#utility.yul\":4037:4156   */\ntag_94:\n    /* \"#utility.yul\":4195:4196   */\n  0x00\n    /* \"#utility.yul\":4220:4284   */\n  tag_96\n    /* \"#utility.yul\":4276:4283   */\n  dup5\n    /* \"#utility.yul\":4267:4273   */\n  dup3\n    /* \"#utility.yul\":4256:4265   */\n  dup6\n    /* \"#utility.yul\":4252:4274   */\n  add\n    /* \"#utility.yul\":4220:4284   */\n  tag_41\n  jump\t// in\ntag_96:\n    /* \"#utility.yul\":4210:4284   */\n  swap2\n  pop\n    /* \"#utility.yul\":4166:4294   */\n  pop\n    /* \"#utility.yul\":3950:4301   */\n  swap3\n  swap2\n  pop\n  pop\n  jump\t// out\n    /* \"#utility.yul\":4307:4425   */\ntag_42:\n    /* \"#utility.yul\":4394:4418   */\n  tag_98\n    /* \"#utility.yul\":4412:4417   */\n  dup2\n    /* \"#utility.yul\":4394:4418   */\n  tag_33\n  jump\t// in\ntag_98:\n    /* \"#utility.yul\":4389:4392   */\n  dup3\n    /* \"#utility.yul\":4382:4419   */\n  mstore\n    /* \"#utility.yul\":4307:4425   */\n  pop\n  pop\n  jump\t// out\n    /* \"#utility.yul\":4431:4653   */\ntag_25:\n    /* \"#utility.yul\":4524:4528   */\n  0x00\n    /* \"#utility.yul\":4562:4564   */\n  0x20\n    /* \"#utility.yul\":4551:4560   */\n  dup3\n    /* \"#utility.yul\":4547:4565   */\n  add\n    /* \"#utility.yul\":4539:4565   */\n  swap1\n  pop\n    /* \"#utility.yul\":4575:4646   */\n  tag_100\n    /* \"#utility.yul\":4643:4644   */\n  0x00\n    /* \"#utility.yul\":4632:4641   */\n  dup4\n    /* \"#utility.yul\":4628:4645   */\n  add\n    /* \"#utility.yul\":4619:4625   */\n  dup5\n    /* \"#utility.yul\":4575:4646   */\n  tag_42\n  jump\t// in\ntag_100:\n    /* \"#utility.yul\":4431:4653   */\n  swap3\n  swap2\n  pop\n  pop\n  jump\t// out\n    /* \"Tmp.sol\":3644:11857  contract HotelAI is Context, IERC20, Ownable {... */\ntag_26:\n  dataSize(sub_0)\n  dup1\n  dataOffset(sub_0)\n  0x00\n  codecopy\n  0x00\n  return\nstop\n\nsub_0: assembly {\n        /* \"Tmp.sol\":3644:11857  contract HotelAI is Context, IERC20, Ownable {... */\n      mstore(0x40, 0x80)\n      jumpi(tag_1, lt(calldatasize, 0x04))\n      shr(0xe0, calldataload(0x00))\n      dup1\n      0x7d1db4a5\n      gt\n      tag_22\n      jumpi\n      dup1\n      0xa9059cbb\n      gt\n      tag_23\n      jumpi\n      dup1\n      0xa9059cbb\n      eq\n      tag_17\n      jumpi\n      dup1\n      0xbf474bed\n      eq\n      tag_18\n      jumpi\n      dup1\n      0xd007cd4a\n      eq\n      tag_19\n      jumpi\n      dup1\n      0xdd62ed3e\n      eq\n      tag_20\n      jumpi\n      dup1\n      0xf10f864e\n      eq\n      tag_21\n      jumpi\n      jump(tag_2)\n    tag_23:\n      dup1\n      0x7d1db4a5\n      eq\n      tag_12\n      jumpi\n      dup1\n      0x8129fc1c\n      eq\n      tag_13\n      jumpi\n      dup1\n      0x8da5cb5b\n      eq\n      tag_14\n      jumpi\n      dup1\n      0x8f9a55c0\n      eq\n      tag_15\n      jumpi\n      dup1\n      0x95d89b41\n      eq\n      tag_16\n      jumpi\n      jump(tag_2)\n    tag_22:\n      dup1\n      0x18160ddd\n      gt\n      tag_24\n      jumpi\n      dup1\n      0x18160ddd\n      eq\n      tag_7\n      jumpi\n      dup1\n      0x23b872dd\n      eq\n      tag_8\n      jumpi\n      dup1\n      0x313ce567\n      eq\n      tag_9\n      jumpi\n      dup1\n      0x70a08231\n      eq\n      tag_10\n      jumpi\n      dup1\n      0x715018a6\n      eq\n      tag_11\n      jumpi\n      jump(tag_2)\n    tag_24:\n      dup1\n      0x01339c21\n      eq\n      tag_3\n      jumpi\n      dup1\n      0x06fdde03\n      eq\n      tag_4\n      jumpi\n      dup1\n      0x095ea7b3\n      eq\n      tag_5\n      jumpi\n      dup1\n      0x0faee56f\n      eq\n      tag_6\n      jumpi\n      jump(tag_2)\n    tag_1:\n      jumpi(tag_2, calldatasize)\n      stop\n    tag_2:\n      0x00\n      dup1\n      revert\n        /* \"Tmp.sol\":11141:11342  function launch() external onlyOwner {... */\n    tag_3:\n      callvalue\n      dup1\n      iszero\n      tag_27\n      jumpi\n      0x00\n      dup1\n      revert\n    tag_27:\n      pop\n      tag_28\n      tag_29\n      jump\t// in\n    tag_28:\n      stop\n        /* \"Tmp.sol\":5710:5791  function name() public pure returns (string memory) {... */\n    tag_4:\n      callvalue\n      dup1\n      iszero\n      tag_30\n      jumpi\n      0x00\n      dup1\n      revert\n    tag_30:\n      pop\n      tag_31\n      tag_32\n      jump\t// in\n    tag_31:\n      mload(0x40)\n      tag_33\n      swap2\n      swap1\n      tag_34\n      jump\t// in\n    tag_33:\n      mload(0x40)\n      dup1\n      swap2\n      sub\n      swap1\n      return\n        /* \"Tmp.sol\":6514:6672  function approve(address spender, uint256 amount) public override returns (bool) {... */\n    tag_5:\n      callvalue\n      dup1\n      iszero\n      tag_35\n      jumpi\n      0x00\n      dup1\n      revert\n    tag_35:\n      pop\n      tag_36\n      0x04\n      dup1\n      calldatasize\n      sub\n      dup2\n      add\n      swap1\n      tag_37\n      swap2\n      swap1\n      tag_38\n      jump\t// in\n    tag_37:\n      tag_39\n      jump\t// in\n    tag_36:\n      mload(0x40)\n      tag_40\n      swap2\n      swap1\n      tag_41\n      jump\t// in\n    tag_40:\n      mload(0x40)\n      dup1\n      swap2\n      sub\n      swap1\n      return\n        /* \"Tmp.sol\":4666:4728  uint256 public constant _maxTaxSwap = 10000000 * 10**_decimals */\n    tag_6:\n      callvalue\n      dup1\n      iszero\n      tag_42\n      jumpi\n      0x00\n      dup1\n      revert\n    tag_42:\n      pop\n      tag_43\n      tag_44\n      jump\t// in\n    tag_43:\n      mload(0x40)\n      tag_45\n      swap2\n      swap1\n      tag_46\n      jump\t// in\n    tag_45:\n      mload(0x40)\n      dup1\n      swap2\n      sub\n      swap1\n      return\n        /* \"Tmp.sol\":5975:6068  function totalSupply() public pure override returns (uint256) {... */\n    tag_7:\n      callvalue\n      dup1\n      iszero\n      tag_47\n      jumpi\n      0x00\n      dup1\n      revert\n    tag_47:\n      pop\n      tag_48\n      tag_49\n      jump\t// in\n    tag_48:\n      mload(0x40)\n      tag_50\n      swap2\n      swap1\n      tag_46\n      jump\t// in\n    tag_50:\n      mload(0x40)\n      dup1\n      swap2\n      sub\n      swap1\n      return\n        /* \"Tmp.sol\":6678:6987  function transferFrom(address sender, address recipient, uint256 amount) public override returns (bool) {... */\n    tag_8:\n      callvalue\n      dup1\n      iszero\n      tag_51\n      jumpi\n      0x00\n      dup1\n      revert\n    tag_51:\n      pop\n      tag_52\n      0x04\n      dup1\n      calldatasize\n      sub\n      dup2\n      add\n      swap1\n      tag_53\n      swap2\n      swap1\n      tag_54\n      jump\t// in\n    tag_53:\n      tag_55\n      jump\t// in\n    tag_52:\n      mload(0x40)\n      tag_56\n      swap2\n      swap1\n      tag_41\n      jump\t// in\n    tag_56:\n      mload(0x40)\n      dup1\n      swap2\n      sub\n      swap1\n      return\n        /* \"Tmp.sol\":5888:5969  function decimals() public pure returns (uint8) {... */\n    tag_9:\n      callvalue\n      dup1\n      iszero\n      tag_57\n      jumpi\n      0x00\n      dup1\n      revert\n    tag_57:\n      pop\n      tag_58\n      tag_59\n      jump\t// in\n    tag_58:\n      mload(0x40)\n      tag_60\n      swap2\n      swap1\n      tag_61\n      jump\t// in\n    tag_60:\n      mload(0x40)\n      dup1\n      swap2\n      sub\n      swap1\n      return\n        /* \"Tmp.sol\":6074:6191  function balanceOf(address account) public view override returns (uint256) {... */\n    tag_10:\n      callvalue\n      dup1\n      iszero\n      tag_62\n      jumpi\n      0x00\n      dup1\n      revert\n    tag_62:\n      pop\n      tag_63\n      0x04\n      dup1\n      calldatasize\n      sub\n      dup2\n      add\n      swap1\n      tag_64\n      swap2\n      swap1\n      tag_65\n      jump\t// in\n    tag_64:\n      tag_66\n      jump\t// in\n    tag_63:\n      mload(0x40)\n      tag_67\n      swap2\n      swap1\n      tag_46\n      jump\t// in\n    tag_67:\n      mload(0x40)\n      dup1\n      swap2\n      sub\n      swap1\n      return\n        /* \"Tmp.sol\":2757:2902  function renounceOwnership() public virtual onlyOwner {... */\n    tag_11:\n      callvalue\n      dup1\n      iszero\n      tag_68\n      jumpi\n      0x00\n      dup1\n      revert\n    tag_68:\n      pop\n      tag_69\n      tag_70\n      jump\t// in\n    tag_69:\n      stop\n        /* \"Tmp.sol\":4734:4788  uint256 public _maxTxAmount = 10000000 * 10**_decimals */\n    tag_12:\n      callvalue\n      dup1\n      iszero\n      tag_71\n      jumpi\n      0x00\n      dup1\n      revert\n    tag_71:\n      pop\n      tag_72\n      tag_73\n      jump\t// in\n    tag_72:\n      mload(0x40)\n      tag_74\n      swap2\n      swap1\n      tag_46\n      jump\t// in\n    tag_74:\n      mload(0x40)\n      dup1\n      swap2\n      sub\n      swap1\n      return\n        /* \"Tmp.sol\":10333:11135  function initialize () external onlyOwner {... */\n    tag_13:\n      callvalue\n      dup1\n      iszero\n      tag_75\n      jumpi\n      0x00\n      dup1\n      revert\n    tag_75:\n      pop\n      tag_76\n      tag_77\n      jump\t// in\n    tag_76:\n      stop\n        /* \"Tmp.sol\":2552:2629  function owner() public view returns (address) {... */\n    tag_14:\n      callvalue\n      dup1\n      iszero\n      tag_78\n      jumpi\n      0x00\n      dup1\n      revert\n    tag_78:\n      pop\n      tag_79\n      tag_80\n      jump\t// in\n    tag_79:\n      mload(0x40)\n      tag_81\n      swap2\n      swap1\n      tag_82\n      jump\t// in\n    tag_81:\n      mload(0x40)\n      dup1\n      swap2\n      sub\n      swap1\n      return\n        /* \"Tmp.sol\":4794:4850  uint256 public _maxWalletSize = 10000000 * 10**_decimals */\n    tag_15:\n      callvalue\n      dup1\n      iszero\n      tag_83\n      jumpi\n      0x00\n      dup1\n      revert\n    tag_83:\n      pop\n      tag_84\n      tag_85\n      jump\t// in\n    tag_84:\n      mload(0x40)\n      tag_86\n      swap2\n      swap1\n      tag_46\n      jump\t// in\n    tag_86:\n      mload(0x40)\n      dup1\n      swap2\n      sub\n      swap1\n      return\n        /* \"Tmp.sol\":5797:5882  function symbol() public pure returns (string memory) {... */\n    tag_16:\n      callvalue\n      dup1\n      iszero\n      tag_87\n      jumpi\n      0x00\n      dup1\n      revert\n    tag_87:\n      pop\n      tag_88\n      tag_89\n      jump\t// in\n    tag_88:\n      mload(0x40)\n      tag_90\n      swap2\n      swap1\n      tag_34\n      jump\t// in\n    tag_90:\n      mload(0x40)\n      dup1\n      swap2\n      sub\n      swap1\n      return\n        /* \"Tmp.sol\":6197:6361  function transfer(address recipient, uint256 amount) public override returns (bool) {... */\n    tag_17:\n      callvalue\n      dup1\n      iszero\n      tag_91\n      jumpi\n      0x00\n      dup1\n      revert\n    tag_91:\n      pop\n      tag_92\n      0x04\n      dup1\n      calldatasize\n      sub\n      dup2\n      add\n      swap1\n      tag_93\n      swap2\n      swap1\n      tag_38\n      jump\t// in\n    tag_93:\n      tag_94\n      jump\t// in\n    tag_92:\n      mload(0x40)\n      tag_95\n      swap2\n      swap1\n      tag_41\n      jump\t// in\n    tag_95:\n      mload(0x40)\n      dup1\n      swap2\n      sub\n      swap1\n      return\n        /* \"Tmp.sol\":4593:4660  uint256 public constant _taxSwapThreshold = 1000000 * 10**_decimals */\n    tag_18:\n      callvalue\n      dup1\n      iszero\n      tag_96\n      jumpi\n      0x00\n      dup1\n      revert\n    tag_96:\n      pop\n      tag_97\n      tag_98\n      jump\t// in\n    tag_97:\n      mload(0x40)\n      tag_99\n      swap2\n      swap1\n      tag_46\n      jump\t// in\n    tag_99:\n      mload(0x40)\n      dup1\n      swap2\n      sub\n      swap1\n      return\n        /* \"Tmp.sol\":11535:11820  function setsTax (uint256 _valueBuy, uint256 _valueSell) external onlyOwner {... */\n    tag_19:\n      callvalue\n      dup1\n      iszero\n      tag_100\n      jumpi\n      0x00\n      dup1\n      revert\n    tag_100:\n      pop\n      tag_101\n      0x04\n      dup1\n      calldatasize\n      sub\n      dup2\n      add\n      swap1\n      tag_102\n      swap2\n      swap1\n      tag_103\n      jump\t// in\n    tag_102:\n      tag_104\n      jump\t// in\n    tag_101:\n      stop\n        /* \"Tmp.sol\":6367:6508  function allowance(address owner, address spender) public view override returns (uint256) {... */\n    tag_20:\n      callvalue\n      dup1\n      iszero\n      tag_105\n      jumpi\n      0x00\n      dup1\n      revert\n    tag_105:\n      pop\n      tag_106\n      0x04\n      dup1\n      calldatasize\n      sub\n      dup2\n      add\n      swap1\n      tag_107\n      swap2\n      swap1\n      tag_108\n      jump\t// in\n    tag_107:\n      tag_109\n      jump\t// in\n    tag_106:\n      mload(0x40)\n      tag_110\n      swap2\n      swap1\n      tag_46\n      jump\t// in\n    tag_110:\n      mload(0x40)\n      dup1\n      swap2\n      sub\n      swap1\n      return\n        /* \"Tmp.sol\":11348:11525  function toggleLimit () external onlyOwner {... */\n    tag_21:\n      callvalue\n      dup1\n      iszero\n      tag_111\n      jumpi\n      0x00\n      dup1\n      revert\n    tag_111:\n      pop\n      tag_112\n      tag_113\n      jump\t// in\n    tag_112:\n      stop\n        /* \"Tmp.sol\":11141:11342  function launch() external onlyOwner {... */\n    tag_29:\n        /* \"Tmp.sol\":2684:2696  _msgSender() */\n      tag_115\n        /* \"Tmp.sol\":2684:2694  _msgSender */\n      tag_116\n        /* \"Tmp.sol\":2684:2696  _msgSender() */\n      jump\t// in\n    tag_115:\n        /* \"Tmp.sol\":2674:2696  _owner == _msgSender() */\n      0xffffffffffffffffffffffffffffffffffffffff\n      and\n        /* \"Tmp.sol\":2674:2680  _owner */\n      0x00\n      dup1\n      sload\n      swap1\n      0x0100\n      exp\n      swap1\n      div\n      0xffffffffffffffffffffffffffffffffffffffff\n      and\n        /* \"Tmp.sol\":2674:2696  _owner == _msgSender() */\n      0xffffffffffffffffffffffffffffffffffffffff\n      and\n      eq\n        /* \"Tmp.sol\":2666:2733  require(_owner == _msgSender(), \"Ownable: caller is not the owner\") */\n      tag_117\n      jumpi\n      mload(0x40)\n      0x08c379a000000000000000000000000000000000000000000000000000000000\n      dup2\n      mstore\n      0x04\n      add\n      tag_118\n      swap1\n      tag_119\n      jump\t// in\n    tag_118:\n      mload(0x40)\n      dup1\n      swap2\n      sub\n      swap1\n      revert\n    tag_117:\n        /* \"Tmp.sol\":11197:11208  tradingOpen */\n      0x0b\n      0x14\n      swap1\n      sload\n      swap1\n      0x0100\n      exp\n      swap1\n      div\n      0xff\n      and\n        /* \"Tmp.sol\":11196:11208  !tradingOpen */\n      iszero\n        /* \"Tmp.sol\":11188:11232  require(!tradingOpen,\"trading already open\") */\n      tag_121\n      jumpi\n      mload(0x40)\n      0x08c379a000000000000000000000000000000000000000000000000000000000\n      dup2\n      mstore\n      0x04\n      add\n      tag_122\n      swap1\n      tag_123\n      jump\t// in\n    tag_122:\n      mload(0x40)\n      dup1\n      swap2\n      sub\n      swap1\n      revert\n    tag_121:\n        /* \"Tmp.sol\":11256:11260  true */\n      0x01\n        /* \"Tmp.sol\":11242:11253  swapEnabled */\n      0x0b\n      0x17\n        /* \"Tmp.sol\":11242:11260  swapEnabled = true */\n      0x0100\n      exp\n      dup2\n      sload\n      dup2\n      0xff\n      mul\n      not\n      and\n      swap1\n      dup4\n      iszero\n      iszero\n      mul\n      or\n      swap1\n      sstore\n      pop\n        /* \"Tmp.sol\":11284:11288  true */\n      0x01\n        /* \"Tmp.sol\":11270:11281  tradingOpen */\n      0x0b\n      0x14\n        /* \"Tmp.sol\":11270:11288  tradingOpen = true */\n      0x0100\n      exp\n      dup2\n      sload\n      dup2\n      0xff\n      mul\n      not\n      and\n      swap1\n      dup4\n      iszero\n      iszero\n      mul\n      or\n      swap1\n      sstore\n      pop\n        /* \"Tmp.sol\":11303:11335  Launch (tradingOpen,swapEnabled) */\n      0x029ed388f3dd39b342f312d7b12cba9e3065871bf0fb668cc5457f217b15dd7c\n        /* \"Tmp.sol\":11311:11322  tradingOpen */\n      0x0b\n      0x14\n      swap1\n      sload\n      swap1\n      0x0100\n      exp\n      swap1\n      div\n      0xff\n      and\n        /* \"Tmp.sol\":11323:11334  swapEnabled */\n      0x0b\n      0x17\n      swap1\n      sload\n      swap1\n      0x0100\n      exp\n      swap1\n      div\n      0xff\n      and\n        /* \"Tmp.sol\":11303:11335  Launch (tradingOpen,swapEnabled) */\n      mload(0x40)\n      tag_124\n      swap3\n      swap2\n      swap1\n      tag_125\n      jump\t// in\n    tag_124:\n      mload(0x40)\n      dup1\n      swap2\n      sub\n      swap1\n      log1\n        /* \"Tmp.sol\":11141:11342  function launch() external onlyOwner {... */\n      jump\t// out\n        /* \"Tmp.sol\":5710:5791  function name() public pure returns (string memory) {... */\n    tag_32:\n        /* \"Tmp.sol\":5747:5760  string memory */\n      0x60\n        /* \"Tmp.sol\":5779:5784  _name */\n      mload(0x40)\n      dup1\n      0x40\n      add\n      0x40\n      mstore\n      dup1\n      0x08\n      dup2\n      mstore\n      0x20\n      add\n      0x486f74656c204149000000000000000000000000000000000000000000000000\n      dup2\n      mstore\n      pop\n        /* \"Tmp.sol\":5772:5784  return _name */\n      swap1\n      pop\n        /* \"Tmp.sol\":5710:5791  function name() public pure returns (string memory) {... */\n      swap1\n      jump\t// out\n        /* \"Tmp.sol\":6514:6672  function approve(address spender, uint256 amount) public override returns (bool) {... */\n    tag_39:\n        /* \"Tmp.sol\":6589:6593  bool */\n      0x00\n        /* \"Tmp.sol\":6605:6644  _approve(_msgSender(), spender, amount) */\n      tag_128\n        /* \"Tmp.sol\":6614:6626  _msgSender() */\n      tag_129\n        /* \"Tmp.sol\":6614:6624  _msgSender */\n      tag_116\n        /* \"Tmp.sol\":6614:6626  _msgSender() */\n      jump\t// in\n    tag_129:\n        /* \"Tmp.sol\":6628:6635  spender */\n      dup5\n        /* \"Tmp.sol\":6637:6643  amount */\n      dup5\n        /* \"Tmp.sol\":6605:6613  _approve */\n      tag_130\n        /* \"Tmp.sol\":6605:6644  _approve(_msgSender(), spender, amount) */\n      jump\t// in\n    tag_128:\n        /* \"Tmp.sol\":6661:6665  true */\n      0x01\n        /* \"Tmp.sol\":6654:6665  return true */\n      swap1\n      pop\n        /* \"Tmp.sol\":6514:6672  function approve(address spender, uint256 amount) public override returns (bool) {... */\n      swap3\n      swap2\n      pop\n      pop\n      jump\t// out\n        /* \"Tmp.sol\":4666:4728  uint256 public constant _maxTaxSwap = 10000000 * 10**_decimals */\n    tag_44:\n        /* \"Tmp.sol\":4410:4411  9 */\n      0x09\n        /* \"Tmp.sol\":4715:4717  10 */\n      0x0a\n        /* \"Tmp.sol\":4715:4728  10**_decimals */\n      tag_131\n      swap2\n      swap1\n      tag_132\n      jump\t// in\n    tag_131:\n        /* \"Tmp.sol\":4704:4712  10000000 */\n      0x989680\n        /* \"Tmp.sol\":4704:4728  10000000 * 10**_decimals */\n      tag_133\n      swap2\n      swap1\n      tag_134\n      jump\t// in\n    tag_133:\n        /* \"Tmp.sol\":4666:4728  uint256 public constant _maxTaxSwap = 10000000 * 10**_decimals */\n      dup2\n      jump\t// out\n        /* \"Tmp.sol\":5975:6068  function totalSupply() public pure override returns (uint256) {... */\n    tag_49:\n        /* \"Tmp.sol\":6028:6035  uint256 */\n      0x00\n        /* \"Tmp.sol\":4410:4411  9 */\n      0x09\n        /* \"Tmp.sol\":4465:4467  10 */\n      0x0a\n        /* \"Tmp.sol\":4465:4478  10**_decimals */\n      tag_136\n      swap2\n      swap1\n      tag_132\n      jump\t// in\n    tag_136:\n        /* \"Tmp.sol\":4452:4462  1000000000 */\n      0x3b9aca00\n        /* \"Tmp.sol\":4452:4478  1000000000 * 10**_decimals */\n      tag_137\n      swap2\n      swap1\n      tag_134\n      jump\t// in\n    tag_137:\n        /* \"Tmp.sol\":6047:6061  return _tTotal */\n      swap1\n      pop\n        /* \"Tmp.sol\":5975:6068  function totalSupply() public pure override returns (uint256) {... */\n      swap1\n      jump\t// out\n        /* \"Tmp.sol\":6678:6987  function transferFrom(address sender, address recipient, uint256 amount) public override returns (bool) {... */\n    tag_55:\n        /* \"Tmp.sol\":6776:6780  bool */\n      0x00\n        /* \"Tmp.sol\":6792:6828  _transfer(sender, recipient, amount) */\n      tag_139\n        /* \"Tmp.sol\":6802:6808  sender */\n      dup5\n        /* \"Tmp.sol\":6810:6819  recipient */\n      dup5\n        /* \"Tmp.sol\":6821:6827  amount */\n      dup5\n        /* \"Tmp.sol\":6792:6801  _transfer */\n      tag_140\n        /* \"Tmp.sol\":6792:6828  _transfer(sender, recipient, amount) */\n      jump\t// in\n    tag_139:\n        /* \"Tmp.sol\":6838:6959  _approve(sender, _msgSender(), _allowances[sender][_msgSender()].sub(amount, \"ERC20: transfer amount exceeds allowance\")) */\n      tag_141\n        /* \"Tmp.sol\":6847:6853  sender */\n      dup5\n        /* \"Tmp.sol\":6855:6867  _msgSender() */\n      tag_142\n        /* \"Tmp.sol\":6855:6865  _msgSender */\n      tag_116\n        /* \"Tmp.sol\":6855:6867  _msgSender() */\n      jump\t// in\n    tag_142:\n        /* \"Tmp.sol\":6869:6958  _allowances[sender][_msgSender()].sub(amount, \"ERC20: transfer amount exceeds allowance\") */\n      tag_143\n        /* \"Tmp.sol\":6907:6913  amount */\n      dup6\n        /* \"Tmp.sol\":6869:6958  _allowances[sender][_msgSender()].sub(amount, \"ERC20: transfer amount exceeds allowance\") */\n      mload(0x40)\n      dup1\n      0x60\n      add\n      0x40\n      mstore\n      dup1\n      0x28\n      dup2\n      mstore\n      0x20\n      add\n      data_974d1b4421da69cc60b481194f0dad36a5bb4e23da810da7a7fb30cdba178330\n      0x28\n      swap2\n      codecopy\n        /* \"Tmp.sol\":6869:6880  _allowances */\n      0x02\n        /* \"Tmp.sol\":6869:6888  _allowances[sender] */\n      0x00\n        /* \"Tmp.sol\":6881:6887  sender */\n      dup12\n        /* \"Tmp.sol\":6869:6888  _allowances[sender] */\n      0xffffffffffffffffffffffffffffffffffffffff\n      and\n      0xffffffffffffffffffffffffffffffffffffffff\n      and\n      dup2\n      mstore\n      0x20\n      add\n      swap1\n      dup2\n      mstore\n      0x20\n      add\n      0x00\n      keccak256\n        /* \"Tmp.sol\":6869:6902  _allowances[sender][_msgSender()] */\n      0x00\n        /* \"Tmp.sol\":6889:6901  _msgSender() */\n      tag_144\n        /* \"Tmp.sol\":6889:6899  _msgSender */\n      tag_116\n        /* \"Tmp.sol\":6889:6901  _msgSender() */\n      jump\t// in\n    tag_144:\n        /* \"Tmp.sol\":6869:6902  _allowances[sender][_msgSender()] */\n      0xffffffffffffffffffffffffffffffffffffffff\n      and\n      0xffffffffffffffffffffffffffffffffffffffff\n      and\n      dup2\n      mstore\n      0x20\n      add\n      swap1\n      dup2\n      mstore\n      0x20\n      add\n      0x00\n      keccak256\n      sload\n        /* \"Tmp.sol\":6869:6906  _allowances[sender][_msgSender()].sub */\n      tag_145\n      swap1\n        /* \"Tmp.sol\":6869:6958  _allowances[sender][_msgSender()].sub(amount, \"ERC20: transfer amount exceeds allowance\") */\n      swap3\n      swap2\n      swap1\n      0xffffffff\n      and\n      jump\t// in\n    tag_143:\n        /* \"Tmp.sol\":6838:6846  _approve */\n      tag_130\n        /* \"Tmp.sol\":6838:6959  _approve(sender, _msgSender(), _allowances[sender][_msgSender()].sub(amount, \"ERC20: transfer amount exceeds allowance\")) */\n      jump\t// in\n    tag_141:\n        /* \"Tmp.sol\":6976:6980  true */\n      0x01\n        /* \"Tmp.sol\":6969:6980  return true */\n      swap1\n      pop\n        /* \"Tmp.sol\":6678:6987  function transferFrom(address sender, address recipient, uint256 amount) public override returns (bool) {... */\n      swap4\n      swap3\n      pop\n      pop\n      pop\n      jump\t// out\n        /* \"Tmp.sol\":5888:5969  function decimals() public pure returns (uint8) {... */\n    tag_59:\n        /* \"Tmp.sol\":5929:5934  uint8 */\n      0x00\n        /* \"Tmp.sol\":4410:4411  9 */\n      0x09\n        /* \"Tmp.sol\":5946:5962  return _decimals */\n      swap1\n      pop\n        /* \"Tmp.sol\":5888:5969  function decimals() public pure returns (uint8) {... */\n      swap1\n      jump\t// out\n        /* \"Tmp.sol\":6074:6191  function balanceOf(address account) public view override returns (uint256) {... */\n    tag_66:\n        /* \"Tmp.sol\":6140:6147  uint256 */\n      0x00\n        /* \"Tmp.sol\":6166:6175  _balances */\n      0x01\n        /* \"Tmp.sol\":6166:6184  _balances[account] */\n      0x00\n        /* \"Tmp.sol\":6176:6183  account */\n      dup4\n        /* \"Tmp.sol\":6166:6184  _balances[account] */\n      0xffffffffffffffffffffffffffffffffffffffff\n      and\n      0xffffffffffffffffffffffffffffffffffffffff\n      and\n      dup2\n      mstore\n      0x20\n      add\n      swap1\n      dup2\n      mstore\n      0x20\n      add\n      0x00\n      keccak256\n      sload\n        /* \"Tmp.sol\":6159:6184  return _balances[account] */\n      swap1\n      pop\n        /* \"Tmp.sol\":6074:6191  function balanceOf(address account) public view override returns (uint256) {... */\n      swap2\n      swap1\n      pop\n      jump\t// out\n        /* \"Tmp.sol\":2757:2902  function renounceOwnership() public virtual onlyOwner {... */\n    tag_70:\n        /* \"Tmp.sol\":2684:2696  _msgSender() */\n      tag_149\n        /* \"Tmp.sol\":2684:2694  _msgSender */\n      tag_116\n        /* \"Tmp.sol\":2684:2696  _msgSender() */\n      jump\t// in\n    tag_149:\n        /* \"Tmp.sol\":2674:2696  _owner == _msgSender() */\n      0xffffffffffffffffffffffffffffffffffffffff\n      and\n        /* \"Tmp.sol\":2674:2680  _owner */\n      0x00\n      dup1\n      sload\n      swap1\n      0x0100\n      exp\n      swap1\n      div\n      0xffffffffffffffffffffffffffffffffffffffff\n      and\n        /* \"Tmp.sol\":2674:2696  _owner == _msgSender() */\n      0xffffffffffffffffffffffffffffffffffffffff\n      and\n      eq\n        /* \"Tmp.sol\":2666:2733  require(_owner == _msgSender(), \"Ownable: caller is not the owner\") */\n      tag_150\n      jumpi\n      mload(0x40)\n      0x08c379a000000000000000000000000000000000000000000000000000000000\n      dup2\n      mstore\n      0x04\n      add\n      tag_151\n      swap1\n      tag_119\n      jump\t// in\n    tag_151:\n      mload(0x40)\n      dup1\n      swap2\n      sub\n      swap1\n      revert\n    tag_150:\n        /* \"Tmp.sol\":2863:2864  0 */\n      0x00\n        /* \"Tmp.sol\":2826:2866  OwnershipTransferred(_owner, address(0)) */\n      0xffffffffffffffffffffffffffffffffffffffff\n      and\n        /* \"Tmp.sol\":2847:2853  _owner */\n      0x00\n      dup1\n      sload\n      swap1\n      0x0100\n      exp\n      swap1\n      div\n      0xffffffffffffffffffffffffffffffffffffffff\n      and\n        /* \"Tmp.sol\":2826:2866  OwnershipTransferred(_owner, address(0)) */\n      0xffffffffffffffffffffffffffffffffffffffff\n      and\n      0x8be0079c531659141344cd1fd0a4f28419497f9722a3daafe3b4186f6b6457e0\n      mload(0x40)\n      mload(0x40)\n      dup1\n      swap2\n      sub\n      swap1\n      log3\n        /* \"Tmp.sol\":2893:2894  0 */\n      0x00\n        /* \"Tmp.sol\":2876:2882  _owner */\n      dup1\n      0x00\n        /* \"Tmp.sol\":2876:2895  _owner = address(0) */\n      0x0100\n      exp\n      dup2\n      sload\n      dup2\n      0xffffffffffffffffffffffffffffffffffffffff\n      mul\n      not\n      and\n      swap1\n      dup4\n      0xffffffffffffffffffffffffffffffffffffffff\n      and\n      mul\n      or\n      swap1\n      sstore\n      pop\n        /* \"Tmp.sol\":2757:2902  function renounceOwnership() public virtual onlyOwner {... */\n      jump\t// out\n        /* \"Tmp.sol\":4734:4788  uint256 public _maxTxAmount = 10000000 * 10**_decimals */\n    tag_73:\n      sload(0x08)\n      dup2\n      jump\t// out\n        /* \"Tmp.sol\":10333:11135  function initialize () external onlyOwner {... */\n    tag_77:\n        /* \"Tmp.sol\":2684:2696  _msgSender() */\n      tag_154\n        /* \"Tmp.sol\":2684:2694  _msgSender */\n      tag_116\n        /* \"Tmp.sol\":2684:2696  _msgSender() */\n      jump\t// in\n    tag_154:\n        /* \"Tmp.sol\":2674:2696  _owner == _msgSender() */\n      0xffffffffffffffffffffffffffffffffffffffff\n      and\n        /* \"Tmp.sol\":2674:2680  _owner */\n      0x00\n      dup1\n      sload\n      swap1\n      0x0100\n      exp\n      swap1\n      div\n      0xffffffffffffffffffffffffffffffffffffffff\n      and\n        /* \"Tmp.sol\":2674:2696  _owner == _msgSender() */\n      0xffffffffffffffffffffffffffffffffffffffff\n      and\n      eq\n        /* \"Tmp.sol\":2666:2733  require(_owner == _msgSender(), \"Ownable: caller is not the owner\") */\n      tag_155\n      jumpi\n      mload(0x40)\n      0x08c379a000000000000000000000000000000000000000000000000000000000\n      dup2\n      mstore\n      0x04\n      add\n      tag_156\n      swap1\n      tag_119\n      jump\t// in\n    tag_156:\n      mload(0x40)\n      dup1\n      swap2\n      sub\n      swap1\n      revert\n    tag_155:\n        /* \"Tmp.sol\":10394:10405  tradingOpen */\n      0x0b\n      0x14\n      swap1\n      sload\n      swap1\n      0x0100\n      exp\n      swap1\n      div\n      0xff\n      and\n        /* \"Tmp.sol\":10393:10405  !tradingOpen */\n      iszero\n        /* \"Tmp.sol\":10385:10428  require(!tradingOpen,\"init already called\") */\n      tag_158\n      jumpi\n      mload(0x40)\n      0x08c379a000000000000000000000000000000000000000000000000000000000\n      dup2\n      mstore\n      0x04\n      add\n      tag_159\n      swap1\n      tag_160\n      jump\t// in\n    tag_159:\n      mload(0x40)\n      dup1\n      swap2\n      sub\n      swap1\n      revert\n    tag_158:\n        /* \"Tmp.sol\":10438:10457  uint256 tokenAmount */\n      0x00\n        /* \"Tmp.sol\":10460:10527  balanceOf(address(this)).sub(_tTotal.mul(_initiallBuyTax).div(100)) */\n      tag_161\n        /* \"Tmp.sol\":10489:10526  _tTotal.mul(_initiallBuyTax).div(100) */\n      tag_162\n        /* \"Tmp.sol\":10522:10525  100 */\n      0x64\n        /* \"Tmp.sol\":10489:10517  _tTotal.mul(_initiallBuyTax) */\n      tag_163\n        /* \"Tmp.sol\":4057:4059  20 */\n      0x14\n        /* \"Tmp.sol\":4410:4411  9 */\n      0x09\n        /* \"Tmp.sol\":4465:4467  10 */\n      0x0a\n        /* \"Tmp.sol\":4465:4478  10**_decimals */\n      tag_164\n      swap2\n      swap1\n      tag_132\n      jump\t// in\n    tag_164:\n        /* \"Tmp.sol\":4452:4462  1000000000 */\n      0x3b9aca00\n        /* \"Tmp.sol\":4452:4478  1000000000 * 10**_decimals */\n      tag_165\n      swap2\n      swap1\n      tag_134\n      jump\t// in\n    tag_165:\n        /* \"Tmp.sol\":10489:10500  _tTotal.mul */\n      tag_166\n      swap1\n        /* \"Tmp.sol\":10489:10517  _tTotal.mul(_initiallBuyTax) */\n      swap2\n      swap1\n      0xffffffff\n      and\n      jump\t// in\n    tag_163:\n        /* \"Tmp.sol\":10489:10521  _tTotal.mul(_initiallBuyTax).div */\n      tag_167\n      swap1\n        /* \"Tmp.sol\":10489:10526  _tTotal.mul(_initiallBuyTax).div(100) */\n      swap2\n      swap1\n      0xffffffff\n      and\n      jump\t// in\n    tag_162:\n        /* \"Tmp.sol\":10460:10484  balanceOf(address(this)) */\n      tag_168\n        /* \"Tmp.sol\":10478:10482  this */\n      address\n        /* \"Tmp.sol\":10460:10469  balanceOf */\n      tag_66\n        /* \"Tmp.sol\":10460:10484  balanceOf(address(this)) */\n      jump\t// in\n    tag_168:\n        /* \"Tmp.sol\":10460:10488  balanceOf(address(this)).sub */\n      tag_169\n      swap1\n        /* \"Tmp.sol\":10460:10527  balanceOf(address(this)).sub(_tTotal.mul(_initiallBuyTax).div(100)) */\n      swap2\n      swap1\n      0xffffffff\n      and\n      jump\t// in\n    tag_161:\n        /* \"Tmp.sol\":10438:10527  uint256 tokenAmount = balanceOf(address(this)).sub(_tTotal.mul(_initiallBuyTax).div(100)) */\n      swap1\n      pop\n        /* \"Tmp.sol\":10574:10616  0x7a250d5630B4cF539739dF2C5dAcb4c659F2488D */\n      0x7a250d5630b4cf539739df2c5dacb4c659f2488d\n        /* \"Tmp.sol\":10537:10552  uniswapV2Router */\n      0x0a\n      0x00\n        /* \"Tmp.sol\":10537:10617  uniswapV2Router = IUniswapV2Router02(0x7a250d5630B4cF539739dF2C5dAcb4c659F2488D) */\n      0x0100\n      exp\n      dup2\n      sload\n      dup2\n      0xffffffffffffffffffffffffffffffffffffffff\n      mul\n      not\n      and\n      swap1\n      dup4\n      0xffffffffffffffffffffffffffffffffffffffff\n      and\n      mul\n      or\n      swap1\n      sstore\n      pop\n        /* \"Tmp.sol\":10627:10685  _approve(address(this), address(uniswapV2Router), _tTotal) */\n      tag_170\n        /* \"Tmp.sol\":10644:10648  this */\n      address\n        /* \"Tmp.sol\":10659:10674  uniswapV2Router */\n      0x0a\n      0x00\n      swap1\n      sload\n      swap1\n      0x0100\n      exp\n      swap1\n      div\n      0xffffffffffffffffffffffffffffffffffffffff\n      and\n        /* \"Tmp.sol\":4410:4411  9 */\n      0x09\n        /* \"Tmp.sol\":4465:4467  10 */\n      0x0a\n        /* \"Tmp.sol\":4465:4478  10**_decimals */\n      tag_171\n      swap2\n      swap1\n      tag_132\n      jump\t// in\n    tag_171:\n        /* \"Tmp.sol\":4452:4462  1000000000 */\n      0x3b9aca00\n        /* \"Tmp.sol\":4452:4478  1000000000 * 10**_decimals */\n      tag_172\n      swap2\n      swap1\n      tag_134\n      jump\t// in\n    tag_172:\n        /* \"Tmp.sol\":10627:10635  _approve */\n      tag_130\n        /* \"Tmp.sol\":10627:10685  _approve(address(this), address(uniswapV2Router), _tTotal) */\n      jump\t// in\n    tag_170:\n        /* \"Tmp.sol\":10729:10744  uniswapV2Router */\n      0x0a\n      0x00\n      swap1\n      sload\n      swap1\n      0x0100\n      exp\n      swap1\n      div\n      0xffffffffffffffffffffffffffffffffffffffff\n      and\n        /* \"Tmp.sol\":10729:10752  uniswapV2Router.factory */\n      0xffffffffffffffffffffffffffffffffffffffff\n      and\n      0xc45a0155\n        /* \"Tmp.sol\":10729:10754  uniswapV2Router.factory() */\n      mload(0x40)\n      dup2\n      0xffffffff\n      and\n      0xe0\n      shl\n      dup2\n      mstore\n      0x04\n      add\n      0x20\n      mload(0x40)\n      dup1\n      dup4\n      sub\n      dup2\n      dup7\n      gas\n      staticcall\n      iszero\n      dup1\n      iszero\n      tag_174\n      jumpi\n      returndatasize\n      0x00\n      dup1\n      returndatacopy\n      revert(0x00, returndatasize)\n    tag_174:\n      pop\n      pop\n      pop\n      pop\n      mload(0x40)\n      returndatasize\n      not(0x1f)\n      0x1f\n      dup3\n      add\n      and\n      dup3\n      add\n      dup1\n      0x40\n      mstore\n      pop\n      dup2\n      add\n      swap1\n      tag_175\n      swap2\n      swap1\n      tag_176\n      jump\t// in\n    tag_175:\n        /* \"Tmp.sol\":10711:10779  IUniswapV2Factory(uniswapV2Router.factory())... */\n      0xffffffffffffffffffffffffffffffffffffffff\n      and\n      0xc9c65396\n        /* \"Tmp.sol\":10788:10792  this */\n      address\n        /* \"Tmp.sol\":10795:10810  uniswapV2Router */\n      0x0a\n      0x00\n      swap1\n      sload\n      swap1\n      0x0100\n      exp\n      swap1\n      div\n      0xffffffffffffffffffffffffffffffffffffffff\n      and\n        /* \"Tmp.sol\":10795:10815  uniswapV2Router.WETH */\n      0xffffffffffffffffffffffffffffffffffffffff\n      and\n      0xad5c4648\n        /* \"Tmp.sol\":10795:10817  uniswapV2Router.WETH() */\n      mload(0x40)\n      dup2\n      0xffffffff\n      and\n      0xe0\n      shl\n      dup2\n      mstore\n      0x04\n      add\n      0x20\n      mload(0x40)\n      dup1\n      dup4\n      sub\n      dup2\n      dup7\n      gas\n      staticcall\n      iszero\n      dup1\n      iszero\n      tag_178\n      jumpi\n      returndatasize\n      0x00\n      dup1\n      returndatacopy\n      revert(0x00, returndatasize)\n    tag_178:\n      pop\n      pop\n      pop\n      pop\n      mload(0x40)\n      returndatasize\n      not(0x1f)\n      0x1f\n      dup3\n      add\n      and\n      dup3\n      add\n      dup1\n      0x40\n      mstore\n      pop\n      dup2\n      add\n      swap1\n      tag_179\n      swap2\n      swap1\n      tag_176\n      jump\t// in\n    tag_179:\n        /* \"Tmp.sol\":10711:10827  IUniswapV2Factory(uniswapV2Router.factory())... */\n      mload(0x40)\n      dup4\n      0xffffffff\n      and\n      0xe0\n      shl\n      dup2\n      mstore\n      0x04\n      add\n      tag_180\n      swap3\n      swap2\n      swap1\n      tag_181\n      jump\t// in\n    tag_180:\n      0x20\n      mload(0x40)\n      dup1\n      dup4\n      sub\n      dup2\n      0x00\n      dup8\n      gas\n      call\n      iszero\n      dup1\n      iszero\n      tag_183\n      jumpi\n      returndatasize\n      0x00\n      dup1\n      returndatacopy\n      revert(0x00, returndatasize)\n    tag_183:\n      pop\n      pop\n      pop\n      pop\n      mload(0x40)\n      returndatasize\n      not(0x1f)\n      0x1f\n      dup3\n      add\n      and\n      dup3\n      add\n      dup1\n      0x40\n      mstore\n      pop\n      dup2\n      add\n      swap1\n      tag_184\n      swap2\n      swap1\n      tag_176\n      jump\t// in\n    tag_184:\n        /* \"Tmp.sol\":10695:10708  uniswapV2Pair */\n      0x0b\n      0x00\n        /* \"Tmp.sol\":10695:10827  uniswapV2Pair = IUniswapV2Factory(uniswapV2Router.factory())... */\n      0x0100\n      exp\n      dup2\n      sload\n      dup2\n      0xffffffffffffffffffffffffffffffffffffffff\n      mul\n      not\n      and\n      swap1\n      dup4\n      0xffffffffffffffffffffffffffffffffffffffff\n      and\n      mul\n      or\n      swap1\n      sstore\n      pop\n        /* \"Tmp.sol\":10837:10852  uniswapV2Router */\n      0x0a\n      0x00\n      swap1\n      sload\n      swap1\n      0x0100\n      exp\n      swap1\n      div\n      0xffffffffffffffffffffffffffffffffffffffff\n      and\n        /* \"Tmp.sol\":10837:10868  uniswapV2Router.addLiquidityETH */\n      0xffffffffffffffffffffffffffffffffffffffff\n      and\n      0xf305d719\n        /* \"Tmp.sol\":10876:10897  address(this).balance */\n      selfbalance\n        /* \"Tmp.sol\":10921:10925  this */\n      address\n        /* \"Tmp.sol\":10940:10951  tokenAmount */\n      dup5\n        /* \"Tmp.sol\":10965:10966  0 */\n      0x00\n        /* \"Tmp.sol\":10980:10981  0 */\n      dup1\n        /* \"Tmp.sol\":10995:11007  _msgSender() */\n      tag_185\n        /* \"Tmp.sol\":10995:11005  _msgSender */\n      tag_116\n        /* \"Tmp.sol\":10995:11007  _msgSender() */\n      jump\t// in\n    tag_185:\n        /* \"Tmp.sol\":11021:11036  block.timestamp */\n      timestamp\n        /* \"Tmp.sol\":10837:11046  uniswapV2Router.addLiquidityETH{value: address(this).balance} (... */\n      mload(0x40)\n      dup9\n      0xffffffff\n      and\n      0xe0\n      shl\n      dup2\n      mstore\n      0x04\n      add\n      tag_186\n      swap7\n      swap6\n      swap5\n      swap4\n      swap3\n      swap2\n      swap1\n      tag_187\n      jump\t// in\n    tag_186:\n      0x60\n      mload(0x40)\n      dup1\n      dup4\n      sub\n      dup2\n      dup6\n      dup9\n      gas\n      call\n      iszero\n      dup1\n      iszero\n      tag_189\n      jumpi\n      returndatasize\n      0x00\n      dup1\n      returndatacopy\n      revert(0x00, returndatasize)\n    tag_189:\n      pop\n      pop\n      pop\n      pop\n      pop\n      mload(0x40)\n      returndatasize\n      not(0x1f)\n      0x1f\n      dup3\n      add\n      and\n      dup3\n      add\n      dup1\n      0x40\n      mstore\n      pop\n      dup2\n      add\n      swap1\n      tag_190\n      swap2\n      swap1\n      tag_191\n      jump\t// in\n    tag_190:\n      pop\n      pop\n      pop\n        /* \"Tmp.sol\":11063:11076  uniswapV2Pair */\n      0x0b\n      0x00\n      swap1\n      sload\n      swap1\n      0x0100\n      exp\n      swap1\n      div\n      0xffffffffffffffffffffffffffffffffffffffff\n      and\n        /* \"Tmp.sol\":11056:11085  IERC20(uniswapV2Pair).approve */\n      0xffffffffffffffffffffffffffffffffffffffff\n      and\n      0x095ea7b3\n        /* \"Tmp.sol\":11094:11109  uniswapV2Router */\n      0x0a\n      0x00\n      swap1\n      sload\n      swap1\n      0x0100\n      exp\n      swap1\n      div\n      0xffffffffffffffffffffffffffffffffffffffff\n      and\n        /* \"Tmp.sol\":11112:11126  type(uint).max */\n      0xffffffffffffffffffffffffffffffffffffffffffffffffffffffffffffffff\n        /* \"Tmp.sol\":11056:11127  IERC20(uniswapV2Pair).approve(address(uniswapV2Router), type(uint).max) */\n      mload(0x40)\n      dup4\n      0xffffffff\n      and\n      0xe0\n      shl\n      dup2\n      mstore\n      0x04\n      add\n      tag_192\n      swap3\n      swap2\n      swap1\n      tag_193\n      jump\t// in\n    tag_192:\n      0x20\n      mload(0x40)\n      dup1\n      dup4\n      sub\n      dup2\n      0x00\n      dup8\n      gas\n      call\n      iszero\n      dup1\n      iszero\n      tag_195\n      jumpi\n      returndatasize\n      0x00\n      dup1\n      returndatacopy\n      revert(0x00, returndatasize)\n    tag_195:\n      pop\n      pop\n      pop\n      pop\n      mload(0x40)\n      returndatasize\n      not(0x1f)\n      0x1f\n      dup3\n      add\n      and\n      dup3\n      add\n      dup1\n      0x40\n      mstore\n      pop\n      dup2\n      add\n      swap1\n      tag_196\n      swap2\n      swap1\n      tag_197\n      jump\t// in\n    tag_196:\n      pop\n        /* \"Tmp.sol\":10375:11135  {... */\n      pop\n        /* \"Tmp.sol\":10333:11135  function initialize () external onlyOwner {... */\n      jump\t// out\n        /* \"Tmp.sol\":2552:2629  function owner() public view returns (address) {... */\n    tag_80:\n        /* \"Tmp.sol\":2590:2597  address */\n      0x00\n        /* \"Tmp.sol\":2616:2622  _owner */\n      dup1\n      0x00\n      swap1\n      sload\n      swap1\n      0x0100\n      exp\n      swap1\n      div\n      0xffffffffffffffffffffffffffffffffffffffff\n      and\n        /* \"Tmp.sol\":2609:2622  return _owner */\n      swap1\n      pop\n        /* \"Tmp.sol\":2552:2629  function owner() public view returns (address) {... */\n      swap1\n      jump\t// out\n        /* \"Tmp.sol\":4794:4850  uint256 public _maxWalletSize = 10000000 * 10**_decimals */\n    tag_85:\n      sload(0x09)\n      dup2\n      jump\t// out\n        /* \"Tmp.sol\":5797:5882  function symbol() public pure returns (string memory) {... */\n    tag_89:\n        /* \"Tmp.sol\":5836:5849  string memory */\n      0x60\n        /* \"Tmp.sol\":5868:5875  _symbol */\n      mload(0x40)\n      dup1\n      0x40\n      add\n      0x40\n      mstore\n      dup1\n      0x03\n      dup2\n      mstore\n      0x20\n      add\n      0x6841490000000000000000000000000000000000000000000000000000000000\n      dup2\n      mstore\n      pop\n        /* \"Tmp.sol\":5861:5875  return _symbol */\n      swap1\n      pop\n        /* \"Tmp.sol\":5797:5882  function symbol() public pure returns (string memory) {... */\n      swap1\n      jump\t// out\n        /* \"Tmp.sol\":6197:6361  function transfer(address recipient, uint256 amount) public override returns (bool) {... */\n    tag_94:\n        /* \"Tmp.sol\":6275:6279  bool */\n      0x00\n        /* \"Tmp.sol\":6291:6333  _transfer(_msgSender(), recipient, amount) */\n      tag_201\n        /* \"Tmp.sol\":6301:6313  _msgSender() */\n      tag_202\n        /* \"Tmp.sol\":6301:6311  _msgSender */\n      tag_116\n        /* \"Tmp.sol\":6301:6313  _msgSender() */\n      jump\t// in\n    tag_202:\n        /* \"Tmp.sol\":6315:6324  recipient */\n      dup5\n        /* \"Tmp.sol\":6326:6332  amount */\n      dup5\n        /* \"Tmp.sol\":6291:6300  _transfer */\n      tag_140\n        /* \"Tmp.sol\":6291:6333  _transfer(_msgSender(), recipient, amount) */\n      jump\t// in\n    tag_201:\n        /* \"Tmp.sol\":6350:6354  true */\n      0x01\n        /* \"Tmp.sol\":6343:6354  return true */\n      swap1\n      pop\n        /* \"Tmp.sol\":6197:6361  function transfer(address recipient, uint256 amount) public override returns (bool) {... */\n      swap3\n      swap2\n      pop\n      pop\n      jump\t// out\n        /* \"Tmp.sol\":4593:4660  uint256 public constant _taxSwapThreshold = 1000000 * 10**_decimals */\n    tag_98:\n        /* \"Tmp.sol\":4410:4411  9 */\n      0x09\n        /* \"Tmp.sol\":4647:4649  10 */\n      0x0a\n        /* \"Tmp.sol\":4647:4660  10**_decimals */\n      tag_203\n      swap2\n      swap1\n      tag_132\n      jump\t// in\n    tag_203:\n        /* \"Tmp.sol\":4637:4644  1000000 */\n      0x0f4240\n        /* \"Tmp.sol\":4637:4660  1000000 * 10**_decimals */\n      tag_204\n      swap2\n      swap1\n      tag_134\n      jump\t// in\n    tag_204:\n        /* \"Tmp.sol\":4593:4660  uint256 public constant _taxSwapThreshold = 1000000 * 10**_decimals */\n      dup2\n      jump\t// out\n        /* \"Tmp.sol\":11535:11820  function setsTax (uint256 _valueBuy, uint256 _valueSell) external onlyOwner {... */\n    tag_104:\n        /* \"Tmp.sol\":2684:2696  _msgSender() */\n      tag_206\n        /* \"Tmp.sol\":2684:2694  _msgSender */\n      tag_116\n        /* \"Tmp.sol\":2684:2696  _msgSender() */\n      jump\t// in\n    tag_206:\n        /* \"Tmp.sol\":2674:2696  _owner == _msgSender() */\n      0xffffffffffffffffffffffffffffffffffffffff\n      and\n        /* \"Tmp.sol\":2674:2680  _owner */\n      0x00\n      dup1\n      sload\n      swap1\n      0x0100\n      exp\n      swap1\n      div\n      0xffffffffffffffffffffffffffffffffffffffff\n      and\n        /* \"Tmp.sol\":2674:2696  _owner == _msgSender() */\n      0xffffffffffffffffffffffffffffffffffffffff\n      and\n      eq\n        /* \"Tmp.sol\":2666:2733  require(_owner == _msgSender(), \"Ownable: caller is not the owner\") */\n      tag_207\n      jumpi\n      mload(0x40)\n      0x08c379a000000000000000000000000000000000000000000000000000000000\n      dup2\n      mstore\n      0x04\n      add\n      tag_208\n      swap1\n      tag_119\n      jump\t// in\n    tag_208:\n      mload(0x40)\n      dup1\n      swap2\n      sub\n      swap1\n      revert\n    tag_207:\n        /* \"Tmp.sol\":11642:11644  30 */\n      0x1e\n        /* \"Tmp.sol\":11629:11638  _valueBuy */\n      dup3\n        /* \"Tmp.sol\":11629:11644  _valueBuy <= 30 */\n      gt\n      iszero\n        /* \"Tmp.sol\":11629:11664  _valueBuy <= 30 && _valueSell <= 30 */\n      dup1\n      iszero\n      tag_210\n      jumpi\n      pop\n        /* \"Tmp.sol\":11662:11664  30 */\n      0x1e\n        /* \"Tmp.sol\":11648:11658  _valueSell */\n      dup2\n        /* \"Tmp.sol\":11648:11664  _valueSell <= 30 */\n      gt\n      iszero\n        /* \"Tmp.sol\":11629:11664  _valueBuy <= 30 && _valueSell <= 30 */\n    tag_210:\n        /* \"Tmp.sol\":11629:11679  _valueBuy <= 30 && _valueSell <= 30 && tradingOpen */\n      dup1\n      iszero\n      tag_211\n      jumpi\n      pop\n        /* \"Tmp.sol\":11668:11679  tradingOpen */\n      0x0b\n      0x14\n      swap1\n      sload\n      swap1\n      0x0100\n      exp\n      swap1\n      div\n      0xff\n      and\n        /* \"Tmp.sol\":11629:11679  _valueBuy <= 30 && _valueSell <= 30 && tradingOpen */\n    tag_211:\n        /* \"Tmp.sol\":11621:11697  require(_valueBuy <= 30 && _valueSell <= 30 && tradingOpen, \"Exceeds value\") */\n      tag_212\n      jumpi\n      mload(0x40)\n      0x08c379a000000000000000000000000000000000000000000000000000000000\n      dup2\n      mstore\n      0x04\n      add\n      tag_213\n      swap1\n      tag_214\n      jump\t// in\n    tag_213:\n      mload(0x40)\n      dup1\n      swap2\n      sub\n      swap1\n      revert\n    tag_212:\n        /* \"Tmp.sol\":11722:11731  _valueBuy */\n      dup2\n        /* \"Tmp.sol\":11707:11719  _finalBuyTax */\n      0x05\n        /* \"Tmp.sol\":11707:11731  _finalBuyTax = _valueBuy */\n      dup2\n      swap1\n      sstore\n      pop\n        /* \"Tmp.sol\":11757:11767  _valueSell */\n      dup1\n        /* \"Tmp.sol\":11741:11754  _finalSellTax */\n      0x06\n        /* \"Tmp.sol\":11741:11767  _finalSellTax = _valueSell */\n      dup2\n      swap1\n      sstore\n      pop\n        /* \"Tmp.sol\":11782:11813  FinalTax(_valueBuy, _valueSell) */\n      0x78009e5656a5c60b3c047015fb856b2efbc6f42beed76119406d7d4e3fc161f4\n        /* \"Tmp.sol\":11791:11800  _valueBuy */\n      dup3\n        /* \"Tmp.sol\":11802:11812  _valueSell */\n      dup3\n        /* \"Tmp.sol\":11782:11813  FinalTax(_valueBuy, _valueSell) */\n      mload(0x40)\n      tag_215\n      swap3\n      swap2\n      swap1\n      tag_216\n      jump\t// in\n    tag_215:\n      mload(0x40)\n      dup1\n      swap2\n      sub\n      swap1\n      log1\n        /* \"Tmp.sol\":11535:11820  function setsTax (uint256 _valueBuy, uint256 _valueSell) external onlyOwner {... */\n      pop\n      pop\n      jump\t// out\n        /* \"Tmp.sol\":6367:6508  function allowance(address owner, address spender) public view override returns (uint256) {... */\n    tag_109:\n        /* \"Tmp.sol\":6448:6455  uint256 */\n      0x00\n        /* \"Tmp.sol\":6474:6485  _allowances */\n      0x02\n        /* \"Tmp.sol\":6474:6492  _allowances[owner] */\n      0x00\n        /* \"Tmp.sol\":6486:6491  owner */\n      dup5\n        /* \"Tmp.sol\":6474:6492  _allowances[owner] */\n      0xffffffffffffffffffffffffffffffffffffffff\n      and\n      0xffffffffffffffffffffffffffffffffffffffff\n      and\n      dup2\n      mstore\n      0x20\n      add\n      swap1\n      dup2\n      mstore\n      0x20\n      add\n      0x00\n      keccak256\n        /* \"Tmp.sol\":6474:6501  _allowances[owner][spender] */\n      0x00\n        /* \"Tmp.sol\":6493:6500  spender */\n      dup4\n        /* \"Tmp.sol\":6474:6501  _allowances[owner][spender] */\n      0xffffffffffffffffffffffffffffffffffffffff\n      and\n      0xffffffffffffffffffffffffffffffffffffffff\n      and\n      dup2\n      mstore\n      0x20\n      add\n      swap1\n      dup2\n      mstore\n      0x20\n      add\n      0x00\n      keccak256\n      sload\n        /* \"Tmp.sol\":6467:6501  return _allowances[owner][spender] */\n      swap1\n      pop\n        /* \"Tmp.sol\":6367:6508  function allowance(address owner, address spender) public view override returns (uint256) {... */\n      swap3\n      swap2\n      pop\n      pop\n      jump\t// out\n        /* \"Tmp.sol\":11348:11525  function toggleLimit () external onlyOwner {... */\n    tag_113:\n        /* \"Tmp.sol\":2684:2696  _msgSender() */\n      tag_219\n        /* \"Tmp.sol\":2684:2694  _msgSender */\n      tag_116\n        /* \"Tmp.sol\":2684:2696  _msgSender() */\n      jump\t// in\n    tag_219:\n        /* \"Tmp.sol\":2674:2696  _owner == _msgSender() */\n      0xffffffffffffffffffffffffffffffffffffffff\n      and\n        /* \"Tmp.sol\":2674:2680  _owner */\n      0x00\n      dup1\n      sload\n      swap1\n      0x0100\n      exp\n      swap1\n      div\n      0xffffffffffffffffffffffffffffffffffffffff\n      and\n        /* \"Tmp.sol\":2674:2696  _owner == _msgSender() */\n      0xffffffffffffffffffffffffffffffffffffffff\n      and\n      eq\n        /* \"Tmp.sol\":2666:2733  require(_owner == _msgSender(), \"Ownable: caller is not the owner\") */\n      tag_220\n      jumpi\n      mload(0x40)\n      0x08c379a000000000000000000000000000000000000000000000000000000000\n      dup2\n      mstore\n      0x04\n      add\n      tag_221\n      swap1\n      tag_119\n      jump\t// in\n    tag_221:\n      mload(0x40)\n      dup1\n      swap2\n      sub\n      swap1\n      revert\n    tag_220:\n        /* \"Tmp.sol\":11415:11420  false */\n      0x00\n        /* \"Tmp.sol\":11401:11412  limitEffect */\n      0x0b\n      0x15\n        /* \"Tmp.sol\":11401:11420  limitEffect = false */\n      0x0100\n      exp\n      dup2\n      sload\n      dup2\n      0xff\n      mul\n      not\n      and\n      swap1\n      dup4\n      iszero\n      iszero\n      mul\n      or\n      swap1\n      sstore\n      pop\n        /* \"Tmp.sol\":4410:4411  9 */\n      0x09\n        /* \"Tmp.sol\":4465:4467  10 */\n      0x0a\n        /* \"Tmp.sol\":4465:4478  10**_decimals */\n      tag_223\n      swap2\n      swap1\n      tag_132\n      jump\t// in\n    tag_223:\n        /* \"Tmp.sol\":4452:4462  1000000000 */\n      0x3b9aca00\n        /* \"Tmp.sol\":4452:4478  1000000000 * 10**_decimals */\n      tag_224\n      swap2\n      swap1\n      tag_134\n      jump\t// in\n    tag_224:\n        /* \"Tmp.sol\":11430:11442  _maxTxAmount */\n      0x08\n        /* \"Tmp.sol\":11430:11451  _maxTxAmount= _tTotal */\n      dup2\n      swap1\n      sstore\n      pop\n        /* \"Tmp.sol\":4410:4411  9 */\n      0x09\n        /* \"Tmp.sol\":4465:4467  10 */\n      0x0a\n        /* \"Tmp.sol\":4465:4478  10**_decimals */\n      tag_225\n      swap2\n      swap1\n      tag_132\n      jump\t// in\n    tag_225:\n        /* \"Tmp.sol\":4452:4462  1000000000 */\n      0x3b9aca00\n        /* \"Tmp.sol\":4452:4478  1000000000 * 10**_decimals */\n      tag_226\n      swap2\n      swap1\n      tag_134\n      jump\t// in\n    tag_226:\n        /* \"Tmp.sol\":11461:11475  _maxWalletSize */\n      0x09\n        /* \"Tmp.sol\":11461:11484  _maxWalletSize= _tTotal */\n      dup2\n      swap1\n      sstore\n      pop\n        /* \"Tmp.sol\":11499:11518  maxAmount (_tTotal) */\n      0x69ada53addde5123341ce3a822c5f66292103b2771e41e1f3c00c2de8a63a7f9\n        /* \"Tmp.sol\":4410:4411  9 */\n      0x09\n        /* \"Tmp.sol\":4465:4467  10 */\n      0x0a\n        /* \"Tmp.sol\":4465:4478  10**_decimals */\n      tag_227\n      swap2\n      swap1\n      tag_132\n      jump\t// in\n    tag_227:\n        /* \"Tmp.sol\":4452:4462  1000000000 */\n      0x3b9aca00\n        /* \"Tmp.sol\":4452:4478  1000000000 * 10**_decimals */\n      tag_228\n      swap2\n      swap1\n      tag_134\n      jump\t// in\n    tag_228:\n        /* \"Tmp.sol\":11499:11518  maxAmount (_tTotal) */\n      mload(0x40)\n      tag_229\n      swap2\n      swap1\n      tag_46\n      jump\t// in\n    tag_229:\n      mload(0x40)\n      dup1\n      swap2\n      sub\n      swap1\n      log1\n        /* \"Tmp.sol\":11348:11525  function toggleLimit () external onlyOwner {... */\n      jump\t// out\n        /* \"Tmp.sol\":372:468  function _msgSender() internal view virtual returns (address) {... */\n    tag_116:\n        /* \"Tmp.sol\":425:432  address */\n      0x00\n        /* \"Tmp.sol\":451:461  msg.sender */\n      caller\n        /* \"Tmp.sol\":444:461  return msg.sender */\n      swap1\n      pop\n        /* \"Tmp.sol\":372:468  function _msgSender() internal view virtual returns (address) {... */\n      swap1\n      jump\t// out\n        /* \"Tmp.sol\":6993:7265  function _approve(address owner, address spender, uint256 amount) private {... */\n    tag_130:\n        /* \"Tmp.sol\":7102:7103  0 */\n      0x00\n        /* \"Tmp.sol\":7085:7104  owner != address(0) */\n      0xffffffffffffffffffffffffffffffffffffffff\n      and\n        /* \"Tmp.sol\":7085:7090  owner */\n      dup4\n        /* \"Tmp.sol\":7085:7104  owner != address(0) */\n      0xffffffffffffffffffffffffffffffffffffffff\n      and\n      eq\n      iszero\n        /* \"Tmp.sol\":7085:7129  owner != address(0) && spender != address(0) */\n      dup1\n      iszero\n      tag_232\n      jumpi\n      pop\n        /* \"Tmp.sol\":7127:7128  0 */\n      0x00\n        /* \"Tmp.sol\":7108:7129  spender != address(0) */\n      0xffffffffffffffffffffffffffffffffffffffff\n      and\n        /* \"Tmp.sol\":7108:7115  spender */\n      dup3\n        /* \"Tmp.sol\":7108:7129  spender != address(0) */\n      0xffffffffffffffffffffffffffffffffffffffff\n      and\n      eq\n      iszero\n        /* \"Tmp.sol\":7085:7129  owner != address(0) && spender != address(0) */\n    tag_232:\n        /* \"Tmp.sol\":7077:7165  require(owner != address(0) && spender != address(0), \"ERC20: approve the zero address\") */\n      tag_233\n      jumpi\n      mload(0x40)\n      0x08c379a000000000000000000000000000000000000000000000000000000000\n      dup2\n      mstore\n      0x04\n      add\n      tag_234\n      swap1\n      tag_235\n      jump\t// in\n    tag_234:\n      mload(0x40)\n      dup1\n      swap2\n      sub\n      swap1\n      revert\n    tag_233:\n        /* \"Tmp.sol\":7205:7211  amount */\n      dup1\n        /* \"Tmp.sol\":7175:7186  _allowances */\n      0x02\n        /* \"Tmp.sol\":7175:7193  _allowances[owner] */\n      0x00\n        /* \"Tmp.sol\":7187:7192  owner */\n      dup6\n        /* \"Tmp.sol\":7175:7193  _allowances[owner] */\n      0xffffffffffffffffffffffffffffffffffffffff\n      and\n      0xffffffffffffffffffffffffffffffffffffffff\n      and\n      dup2\n      mstore\n      0x20\n      add\n      swap1\n      dup2\n      mstore\n      0x20\n      add\n      0x00\n      keccak256\n        /* \"Tmp.sol\":7175:7202  _allowances[owner][spender] */\n      0x00\n        /* \"Tmp.sol\":7194:7201  spender */\n      dup5\n        /* \"Tmp.sol\":7175:7202  _allowances[owner][spender] */\n      0xffffffffffffffffffffffffffffffffffffffff\n      and\n      0xffffffffffffffffffffffffffffffffffffffff\n      and\n      dup2\n      mstore\n      0x20\n      add\n      swap1\n      dup2\n      mstore\n      0x20\n      add\n      0x00\n      keccak256\n        /* \"Tmp.sol\":7175:7211  _allowances[owner][spender] = amount */\n      dup2\n      swap1\n      sstore\n      pop\n        /* \"Tmp.sol\":7242:7249  spender */\n      dup2\n        /* \"Tmp.sol\":7226:7258  Approval(owner, spender, amount) */\n      0xffffffffffffffffffffffffffffffffffffffff\n      and\n        /* \"Tmp.sol\":7235:7240  owner */\n      dup4\n        /* \"Tmp.sol\":7226:7258  Approval(owner, spender, amount) */\n      0xffffffffffffffffffffffffffffffffffffffff\n      and\n      0x8c5be1e5ebec7d5bd14f71427d1e84f3dd0314c0f7b2291e5b200ac8c7c3b925\n        /* \"Tmp.sol\":7251:7257  amount */\n      dup4\n        /* \"Tmp.sol\":7226:7258  Approval(owner, spender, amount) */\n      mload(0x40)\n      tag_236\n      swap2\n      swap1\n      tag_46\n      jump\t// in\n    tag_236:\n      mload(0x40)\n      dup1\n      swap2\n      sub\n      swap1\n      log3\n        /* \"Tmp.sol\":6993:7265  function _approve(address owner, address spender, uint256 amount) private {... */\n      pop\n      pop\n      pop\n      jump\t// out\n        /* \"Tmp.sol\":7271:9754  function _transfer(address from, address to, uint256 amount) private {... */\n    tag_140:\n        /* \"Tmp.sol\":7374:7375  0 */\n      0x00\n        /* \"Tmp.sol\":7358:7376  from != address(0) */\n      0xffffffffffffffffffffffffffffffffffffffff\n      and\n        /* \"Tmp.sol\":7358:7362  from */\n      dup4\n        /* \"Tmp.sol\":7358:7376  from != address(0) */\n      0xffffffffffffffffffffffffffffffffffffffff\n      and\n      eq\n      iszero\n        /* \"Tmp.sol\":7358:7396  from != address(0) && to != address(0) */\n      dup1\n      iszero\n      tag_238\n      jumpi\n      pop\n        /* \"Tmp.sol\":7394:7395  0 */\n      0x00\n        /* \"Tmp.sol\":7380:7396  to != address(0) */\n      0xffffffffffffffffffffffffffffffffffffffff\n      and\n        /* \"Tmp.sol\":7380:7382  to */\n      dup3\n        /* \"Tmp.sol\":7380:7396  to != address(0) */\n      0xffffffffffffffffffffffffffffffffffffffff\n      and\n      eq\n      iszero\n        /* \"Tmp.sol\":7358:7396  from != address(0) && to != address(0) */\n    tag_238:\n        /* \"Tmp.sol\":7350:7433  require(from != address(0) && to != address(0), \"ERC20: transfer the zero address\") */\n      tag_239\n      jumpi\n      mload(0x40)\n      0x08c379a000000000000000000000000000000000000000000000000000000000\n      dup2\n      mstore\n      0x04\n      add\n      tag_240\n      swap1\n      tag_241\n      jump\t// in\n    tag_240:\n      mload(0x40)\n      dup1\n      swap2\n      sub\n      swap1\n      revert\n    tag_239:\n        /* \"Tmp.sol\":7460:7461  0 */\n      0x00\n        /* \"Tmp.sol\":7451:7457  amount */\n      dup2\n        /* \"Tmp.sol\":7451:7461  amount > 0 */\n      gt\n        /* \"Tmp.sol\":7443:7507  require(amount > 0, \"Transfer amount must be greater than zero\") */\n      tag_242\n      jumpi\n      mload(0x40)\n      0x08c379a000000000000000000000000000000000000000000000000000000000\n      dup2\n      mstore\n      0x04\n      add\n      tag_243\n      swap1\n      tag_244\n      jump\t// in\n    tag_243:\n      mload(0x40)\n      dup1\n      swap2\n      sub\n      swap1\n      revert\n    tag_242:\n        /* \"Tmp.sol\":7517:7534  uint256 taxAmount */\n      0x00\n        /* \"Tmp.sol\":7559:7566  owner() */\n      tag_245\n        /* \"Tmp.sol\":7559:7564  owner */\n      tag_80\n        /* \"Tmp.sol\":7559:7566  owner() */\n      jump\t// in\n    tag_245:\n        /* \"Tmp.sol\":7551:7566  from != owner() */\n      0xffffffffffffffffffffffffffffffffffffffff\n      and\n        /* \"Tmp.sol\":7551:7555  from */\n      dup5\n        /* \"Tmp.sol\":7551:7566  from != owner() */\n      0xffffffffffffffffffffffffffffffffffffffff\n      and\n      eq\n      iszero\n        /* \"Tmp.sol\":7551:7583  from != owner() && to != owner() */\n      dup1\n      iszero\n      tag_246\n      jumpi\n      pop\n        /* \"Tmp.sol\":7576:7583  owner() */\n      tag_247\n        /* \"Tmp.sol\":7576:7581  owner */\n      tag_80\n        /* \"Tmp.sol\":7576:7583  owner() */\n      jump\t// in\n    tag_247:\n        /* \"Tmp.sol\":7570:7583  to != owner() */\n      0xffffffffffffffffffffffffffffffffffffffff\n      and\n        /* \"Tmp.sol\":7570:7572  to */\n      dup4\n        /* \"Tmp.sol\":7570:7583  to != owner() */\n      0xffffffffffffffffffffffffffffffffffffffff\n      and\n      eq\n      iszero\n        /* \"Tmp.sol\":7551:7583  from != owner() && to != owner() */\n    tag_246:\n        /* \"Tmp.sol\":7547:9407  if (from != owner() && to != owner()) {... */\n      iszero\n      tag_248\n      jumpi\n        /* \"Tmp.sol\":7605:7616  tradingOpen */\n      0x0b\n      0x14\n      swap1\n      sload\n      swap1\n      0x0100\n      exp\n      swap1\n      div\n      0xff\n      and\n        /* \"Tmp.sol\":7600:7792  if (!tradingOpen) {... */\n      tag_249\n      jumpi\n        /* \"Tmp.sol\":7664:7682  _isExcludedFromFee */\n      0x03\n        /* \"Tmp.sol\":7664:7688  _isExcludedFromFee[from] */\n      0x00\n        /* \"Tmp.sol\":7683:7687  from */\n      dup6\n        /* \"Tmp.sol\":7664:7688  _isExcludedFromFee[from] */\n      0xffffffffffffffffffffffffffffffffffffffff\n      and\n      0xffffffffffffffffffffffffffffffffffffffff\n      and\n      dup2\n      mstore\n      0x20\n      add\n      swap1\n      dup2\n      mstore\n      0x20\n      add\n      0x00\n      keccak256\n      0x00\n      swap1\n      sload\n      swap1\n      0x0100\n      exp\n      swap1\n      div\n      0xff\n      and\n        /* \"Tmp.sol\":7664:7714  _isExcludedFromFee[from] || _isExcludedFromFee[to] */\n      dup1\n      tag_250\n      jumpi\n      pop\n        /* \"Tmp.sol\":7692:7710  _isExcludedFromFee */\n      0x03\n        /* \"Tmp.sol\":7692:7714  _isExcludedFromFee[to] */\n      0x00\n        /* \"Tmp.sol\":7711:7713  to */\n      dup5\n        /* \"Tmp.sol\":7692:7714  _isExcludedFromFee[to] */\n      0xffffffffffffffffffffffffffffffffffffffff\n      and\n      0xffffffffffffffffffffffffffffffffffffffff\n      and\n      dup2\n      mstore\n      0x20\n      add\n      swap1\n      dup2\n      mstore\n      0x20\n      add\n      0x00\n      keccak256\n      0x00\n      swap1\n      sload\n      swap1\n      0x0100\n      exp\n      swap1\n      div\n      0xff\n      and\n        /* \"Tmp.sol\":7664:7714  _isExcludedFromFee[from] || _isExcludedFromFee[to] */\n    tag_250:\n        /* \"Tmp.sol\":7636:7777  require( ... */\n      tag_251\n      jumpi\n      mload(0x40)\n      0x08c379a000000000000000000000000000000000000000000000000000000000\n      dup2\n      mstore\n      0x04\n      add\n      tag_252\n      swap1\n      tag_253\n      jump\t// in\n    tag_252:\n      mload(0x40)\n      dup1\n      swap2\n      sub\n      swap1\n      revert\n    tag_251:\n        /* \"Tmp.sol\":7600:7792  if (!tradingOpen) {... */\n    tag_249:\n        /* \"Tmp.sol\":7819:7832  uniswapV2Pair */\n      0x0b\n      0x00\n      swap1\n      sload\n      swap1\n      0x0100\n      exp\n      swap1\n      div\n      0xffffffffffffffffffffffffffffffffffffffff\n      and\n        /* \"Tmp.sol\":7811:7832  from == uniswapV2Pair */\n      0xffffffffffffffffffffffffffffffffffffffff\n      and\n        /* \"Tmp.sol\":7811:7815  from */\n      dup5\n        /* \"Tmp.sol\":7811:7832  from == uniswapV2Pair */\n      0xffffffffffffffffffffffffffffffffffffffff\n      and\n      eq\n        /* \"Tmp.sol\":7811:7866  from == uniswapV2Pair && to != address(uniswapV2Router) */\n      dup1\n      iszero\n      tag_254\n      jumpi\n      pop\n        /* \"Tmp.sol\":7850:7865  uniswapV2Router */\n      0x0a\n      0x00\n      swap1\n      sload\n      swap1\n      0x0100\n      exp\n      swap1\n      div\n      0xffffffffffffffffffffffffffffffffffffffff\n      and\n        /* \"Tmp.sol\":7836:7866  to != address(uniswapV2Router) */\n      0xffffffffffffffffffffffffffffffffffffffff\n      and\n        /* \"Tmp.sol\":7836:7838  to */\n      dup4\n        /* \"Tmp.sol\":7836:7866  to != address(uniswapV2Router) */\n      0xffffffffffffffffffffffffffffffffffffffff\n      and\n      eq\n      iszero\n        /* \"Tmp.sol\":7811:7866  from == uniswapV2Pair && to != address(uniswapV2Router) */\n    tag_254:\n        /* \"Tmp.sol\":7811:7894  from == uniswapV2Pair && to != address(uniswapV2Router) && ! _isExcludedFromFee[to] */\n      dup1\n      iszero\n      tag_255\n      jumpi\n      pop\n        /* \"Tmp.sol\":7872:7890  _isExcludedFromFee */\n      0x03\n        /* \"Tmp.sol\":7872:7894  _isExcludedFromFee[to] */\n      0x00\n        /* \"Tmp.sol\":7891:7893  to */\n      dup5\n        /* \"Tmp.sol\":7872:7894  _isExcludedFromFee[to] */\n      0xffffffffffffffffffffffffffffffffffffffff\n      and\n      0xffffffffffffffffffffffffffffffffffffffff\n      and\n      dup2\n      mstore\n      0x20\n      add\n      swap1\n      dup2\n      mstore\n      0x20\n      add\n      0x00\n      keccak256\n      0x00\n      swap1\n      sload\n      swap1\n      0x0100\n      exp\n      swap1\n      div\n      0xff\n      and\n        /* \"Tmp.sol\":7870:7894  ! _isExcludedFromFee[to] */\n      iszero\n        /* \"Tmp.sol\":7811:7894  from == uniswapV2Pair && to != address(uniswapV2Router) && ! _isExcludedFromFee[to] */\n    tag_255:\n        /* \"Tmp.sol\":7807:8178  if (from == uniswapV2Pair && to != address(uniswapV2Router) && ! _isExcludedFromFee[to] ) {... */\n      iszero\n      tag_256\n      jumpi\n        /* \"Tmp.sol\":7919:7930  limitEffect */\n      0x0b\n      0x15\n      swap1\n      sload\n      swap1\n      0x0100\n      exp\n      swap1\n      div\n      0xff\n      and\n        /* \"Tmp.sol\":7915:8134  if (limitEffect) {... */\n      iszero\n      tag_257\n      jumpi\n        /* \"Tmp.sol\":7972:7984  _maxTxAmount */\n      sload(0x08)\n        /* \"Tmp.sol\":7962:7968  amount */\n      dup3\n        /* \"Tmp.sol\":7962:7984  amount <= _maxTxAmount */\n      gt\n      iszero\n        /* \"Tmp.sol\":7954:8014  require(amount <= _maxTxAmount, \"Exceeds the _maxTxAmount.\") */\n      tag_258\n      jumpi\n      mload(0x40)\n      0x08c379a000000000000000000000000000000000000000000000000000000000\n      dup2\n      mstore\n      0x04\n      add\n      tag_259\n      swap1\n      tag_260\n      jump\t// in\n    tag_259:\n      mload(0x40)\n      dup1\n      swap2\n      sub\n      swap1\n      revert\n    tag_258:\n        /* \"Tmp.sol\":8070:8084  _maxWalletSize */\n      sload(0x09)\n        /* \"Tmp.sol\":8060:8066  amount */\n      dup3\n        /* \"Tmp.sol\":8044:8057  balanceOf(to) */\n      tag_261\n        /* \"Tmp.sol\":8054:8056  to */\n      dup6\n        /* \"Tmp.sol\":8044:8053  balanceOf */\n      tag_66\n        /* \"Tmp.sol\":8044:8057  balanceOf(to) */\n      jump\t// in\n    tag_261:\n        /* \"Tmp.sol\":8044:8066  balanceOf(to) + amount */\n      tag_262\n      swap2\n      swap1\n      tag_263\n      jump\t// in\n    tag_262:\n        /* \"Tmp.sol\":8044:8084  balanceOf(to) + amount <= _maxWalletSize */\n      gt\n      iszero\n        /* \"Tmp.sol\":8036:8115  require(balanceOf(to) + amount <= _maxWalletSize, \"Exceeds the maxWalletSize.\") */\n      tag_264\n      jumpi\n      mload(0x40)\n      0x08c379a000000000000000000000000000000000000000000000000000000000\n      dup2\n      mstore\n      0x04\n      add\n      tag_265\n      swap1\n      tag_266\n      jump\t// in\n    tag_265:\n      mload(0x40)\n      dup1\n      swap2\n      sub\n      swap1\n      revert\n    tag_264:\n        /* \"Tmp.sol\":7915:8134  if (limitEffect) {... */\n    tag_257:\n        /* \"Tmp.sol\":8152:8161  _buyCount */\n      0x07\n      0x00\n        /* \"Tmp.sol\":8152:8163  _buyCount++ */\n      dup2\n      sload\n      dup1\n      swap3\n      swap2\n      swap1\n      tag_267\n      swap1\n      tag_268\n      jump\t// in\n    tag_267:\n      swap2\n      swap1\n      pop\n      sstore\n      pop\n        /* \"Tmp.sol\":7807:8178  if (from == uniswapV2Pair && to != address(uniswapV2Router) && ! _isExcludedFromFee[to] ) {... */\n    tag_256:\n        /* \"Tmp.sol\":8215:8228  uniswapV2Pair */\n      0x0b\n      0x00\n      swap1\n      sload\n      swap1\n      0x0100\n      exp\n      swap1\n      div\n      0xffffffffffffffffffffffffffffffffffffffff\n      and\n        /* \"Tmp.sol\":8209:8228  to == uniswapV2Pair */\n      0xffffffffffffffffffffffffffffffffffffffff\n      and\n        /* \"Tmp.sol\":8209:8211  to */\n      dup4\n        /* \"Tmp.sol\":8209:8228  to == uniswapV2Pair */\n      0xffffffffffffffffffffffffffffffffffffffff\n      and\n      eq\n        /* \"Tmp.sol\":8209:8252  to == uniswapV2Pair && from!= address(this) */\n      dup1\n      iszero\n      tag_269\n      jumpi\n      pop\n        /* \"Tmp.sol\":8247:8251  this */\n      address\n        /* \"Tmp.sol\":8232:8252  from!= address(this) */\n      0xffffffffffffffffffffffffffffffffffffffff\n      and\n        /* \"Tmp.sol\":8232:8236  from */\n      dup5\n        /* \"Tmp.sol\":8232:8252  from!= address(this) */\n      0xffffffffffffffffffffffffffffffffffffffff\n      and\n      eq\n      iszero\n        /* \"Tmp.sol\":8209:8252  to == uniswapV2Pair && from!= address(this) */\n    tag_269:\n        /* \"Tmp.sol\":8204:8667  if ( to == uniswapV2Pair && from!= address(this) ){... */\n      iszero\n      tag_270\n      jumpi\n        /* \"Tmp.sol\":8284:8420  amount.mul ... */\n      tag_271\n        /* \"Tmp.sol\":8399:8402  100 */\n      0x64\n        /* \"Tmp.sol\":8284:8394  amount.mul ... */\n      tag_272\n        /* \"Tmp.sol\":4206:4208  45 */\n      0x2d\n        /* \"Tmp.sol\":8314:8323  _buyCount */\n      sload(0x07)\n        /* \"Tmp.sol\":8314:8340  _buyCount>_reduceSellTaxAt */\n      gt\n        /* \"Tmp.sol\":8313:8393  (_buyCount>_reduceSellTaxAt)... */\n      tag_273\n      jumpi\n        /* \"Tmp.sol\":4107:4109  20 */\n      0x14\n        /* \"Tmp.sol\":8313:8393  (_buyCount>_reduceSellTaxAt)... */\n      jump(tag_274)\n    tag_273:\n        /* \"Tmp.sol\":8363:8376  _finalSellTax */\n      sload(0x06)\n        /* \"Tmp.sol\":8313:8393  (_buyCount>_reduceSellTaxAt)... */\n    tag_274:\n        /* \"Tmp.sol\":8284:8290  amount */\n      dup6\n        /* \"Tmp.sol\":8284:8294  amount.mul */\n      tag_166\n      swap1\n        /* \"Tmp.sol\":8284:8394  amount.mul ... */\n      swap2\n      swap1\n      0xffffffff\n      and\n      jump\t// in\n    tag_272:\n        /* \"Tmp.sol\":8284:8398  amount.mul ... */\n      tag_167\n      swap1\n        /* \"Tmp.sol\":8284:8420  amount.mul ... */\n      swap2\n      swap1\n      0xffffffff\n      and\n      jump\t// in\n    tag_271:\n        /* \"Tmp.sol\":8272:8420  taxAmount = amount.mul ... */\n      swap1\n      pop\n        /* \"Tmp.sol\":8204:8667  if ( to == uniswapV2Pair && from!= address(this) ){... */\n      jump(tag_275)\n    tag_270:\n        /* \"Tmp.sol\":8453:8466  uniswapV2Pair */\n      0x0b\n      0x00\n      swap1\n      sload\n      swap1\n      0x0100\n      exp\n      swap1\n      div\n      0xffffffffffffffffffffffffffffffffffffffff\n      and\n        /* \"Tmp.sol\":8445:8466  from == uniswapV2Pair */\n      0xffffffffffffffffffffffffffffffffffffffff\n      and\n        /* \"Tmp.sol\":8445:8449  from */\n      dup5\n        /* \"Tmp.sol\":8445:8466  from == uniswapV2Pair */\n      0xffffffffffffffffffffffffffffffffffffffff\n      and\n      eq\n        /* \"Tmp.sol\":8445:8488  from == uniswapV2Pair && to!= address(this) */\n      dup1\n      iszero\n      tag_276\n      jumpi\n      pop\n        /* \"Tmp.sol\":8483:8487  this */\n      address\n        /* \"Tmp.sol\":8470:8488  to!= address(this) */\n      0xffffffffffffffffffffffffffffffffffffffff\n      and\n        /* \"Tmp.sol\":8470:8472  to */\n      dup4\n        /* \"Tmp.sol\":8470:8488  to!= address(this) */\n      0xffffffffffffffffffffffffffffffffffffffff\n      and\n      eq\n      iszero\n        /* \"Tmp.sol\":8445:8488  from == uniswapV2Pair && to!= address(this) */\n    tag_276:\n        /* \"Tmp.sol\":8441:8667  if (from == uniswapV2Pair && to!= address(this) ){... */\n      iszero\n      tag_277\n      jumpi\n        /* \"Tmp.sol\":8520:8652  amount.mul... */\n      tag_278\n        /* \"Tmp.sol\":8631:8634  100 */\n      0x64\n        /* \"Tmp.sol\":8520:8626  amount.mul... */\n      tag_279\n        /* \"Tmp.sol\":4156:4158  45 */\n      0x2d\n        /* \"Tmp.sol\":8549:8558  _buyCount */\n      sload(0x07)\n        /* \"Tmp.sol\":8549:8574  _buyCount>_reduceBuyTaxAt */\n      gt\n        /* \"Tmp.sol\":8548:8625  (_buyCount>_reduceBuyTaxAt)... */\n      tag_280\n      jumpi\n        /* \"Tmp.sol\":4057:4059  20 */\n      0x14\n        /* \"Tmp.sol\":8548:8625  (_buyCount>_reduceBuyTaxAt)... */\n      jump(tag_281)\n    tag_280:\n        /* \"Tmp.sol\":8597:8609  _finalBuyTax */\n      sload(0x05)\n        /* \"Tmp.sol\":8548:8625  (_buyCount>_reduceBuyTaxAt)... */\n    tag_281:\n        /* \"Tmp.sol\":8520:8526  amount */\n      dup6\n        /* \"Tmp.sol\":8520:8530  amount.mul */\n      tag_166\n      swap1\n        /* \"Tmp.sol\":8520:8626  amount.mul... */\n      swap2\n      swap1\n      0xffffffff\n      and\n      jump\t// in\n    tag_279:\n        /* \"Tmp.sol\":8520:8630  amount.mul... */\n      tag_167\n      swap1\n        /* \"Tmp.sol\":8520:8652  amount.mul... */\n      swap2\n      swap1\n      0xffffffff\n      and\n      jump\t// in\n    tag_278:\n        /* \"Tmp.sol\":8508:8652  taxAmount = amount.mul... */\n      swap1\n      pop\n        /* \"Tmp.sol\":8441:8667  if (from == uniswapV2Pair && to!= address(this) ){... */\n    tag_277:\n        /* \"Tmp.sol\":8204:8667  if ( to == uniswapV2Pair && from!= address(this) ){... */\n    tag_275:\n        /* \"Tmp.sol\":8681:8709  uint256 contractTokenBalance */\n      0x00\n        /* \"Tmp.sol\":8712:8736  balanceOf(address(this)) */\n      tag_282\n        /* \"Tmp.sol\":8730:8734  this */\n      address\n        /* \"Tmp.sol\":8712:8721  balanceOf */\n      tag_66\n        /* \"Tmp.sol\":8712:8736  balanceOf(address(this)) */\n      jump\t// in\n    tag_282:\n        /* \"Tmp.sol\":8681:8736  uint256 contractTokenBalance = balanceOf(address(this)) */\n      swap1\n      pop\n        /* \"Tmp.sol\":8772:8778  inSwap */\n      0x0b\n      0x16\n      swap1\n      sload\n      swap1\n      0x0100\n      exp\n      swap1\n      div\n      0xff\n      and\n        /* \"Tmp.sol\":8771:8778  !inSwap */\n      iszero\n        /* \"Tmp.sol\":8771:8818  !inSwap && ... */\n      dup1\n      iszero\n      tag_283\n      jumpi\n      pop\n        /* \"Tmp.sol\":8805:8818  uniswapV2Pair */\n      0x0b\n      0x00\n      swap1\n      sload\n      swap1\n      0x0100\n      exp\n      swap1\n      div\n      0xffffffffffffffffffffffffffffffffffffffff\n      and\n        /* \"Tmp.sol\":8799:8818  to == uniswapV2Pair */\n      0xffffffffffffffffffffffffffffffffffffffff\n      and\n        /* \"Tmp.sol\":8799:8801  to */\n      dup5\n        /* \"Tmp.sol\":8799:8818  to == uniswapV2Pair */\n      0xffffffffffffffffffffffffffffffffffffffff\n      and\n      eq\n        /* \"Tmp.sol\":8771:8818  !inSwap && ... */\n    tag_283:\n        /* \"Tmp.sol\":8771:8850  !inSwap && ... */\n      dup1\n      iszero\n      tag_284\n      jumpi\n      pop\n        /* \"Tmp.sol\":8839:8850  swapEnabled */\n      0x0b\n      0x17\n      swap1\n      sload\n      swap1\n      0x0100\n      exp\n      swap1\n      div\n      0xff\n      and\n        /* \"Tmp.sol\":8771:8850  !inSwap && ... */\n    tag_284:\n        /* \"Tmp.sol\":8771:8909  !inSwap && ... */\n      dup1\n      iszero\n      tag_285\n      jumpi\n      pop\n        /* \"Tmp.sol\":4410:4411  9 */\n      0x09\n        /* \"Tmp.sol\":4647:4649  10 */\n      0x0a\n        /* \"Tmp.sol\":4647:4660  10**_decimals */\n      tag_286\n      swap2\n      swap1\n      tag_132\n      jump\t// in\n    tag_286:\n        /* \"Tmp.sol\":4637:4644  1000000 */\n      0x0f4240\n        /* \"Tmp.sol\":4637:4660  1000000 * 10**_decimals */\n      tag_287\n      swap2\n      swap1\n      tag_134\n      jump\t// in\n    tag_287:\n        /* \"Tmp.sol\":8871:8891  contractTokenBalance */\n      dup2\n        /* \"Tmp.sol\":8871:8909  contractTokenBalance>_taxSwapThreshold */\n      gt\n        /* \"Tmp.sol\":8771:8909  !inSwap && ... */\n    tag_285:\n        /* \"Tmp.sol\":8771:8958  !inSwap && ... */\n      dup1\n      iszero\n      tag_288\n      jumpi\n      pop\n        /* \"Tmp.sol\":4258:4260  25 */\n      0x19\n        /* \"Tmp.sol\":8930:8939  _buyCount */\n      sload(0x07)\n        /* \"Tmp.sol\":8930:8958  _buyCount>_preventSwapBefore */\n      gt\n        /* \"Tmp.sol\":8771:8958  !inSwap && ... */\n    tag_288:\n        /* \"Tmp.sol\":8750:9397  if (... */\n      iszero\n      tag_289\n      jumpi\n        /* \"Tmp.sol\":8990:9004  uint256 getMin */\n      0x00\n        /* \"Tmp.sol\":4410:4411  9 */\n      0x09\n        /* \"Tmp.sol\":4715:4717  10 */\n      0x0a\n        /* \"Tmp.sol\":4715:4728  10**_decimals */\n      tag_290\n      swap2\n      swap1\n      tag_132\n      jump\t// in\n    tag_290:\n        /* \"Tmp.sol\":4704:4712  10000000 */\n      0x989680\n        /* \"Tmp.sol\":4704:4728  10000000 * 10**_decimals */\n      tag_291\n      swap2\n      swap1\n      tag_134\n      jump\t// in\n    tag_291:\n        /* \"Tmp.sol\":9008:9028  contractTokenBalance */\n      dup3\n        /* \"Tmp.sol\":9008:9042  contractTokenBalance > _maxTaxSwap */\n      gt\n        /* \"Tmp.sol\":9007:9076  (contractTokenBalance > _maxTaxSwap)?_maxTaxSwap:contractTokenBalance */\n      tag_292\n      jumpi\n        /* \"Tmp.sol\":9056:9076  contractTokenBalance */\n      dup2\n        /* \"Tmp.sol\":9007:9076  (contractTokenBalance > _maxTaxSwap)?_maxTaxSwap:contractTokenBalance */\n      jump(tag_293)\n    tag_292:\n        /* \"Tmp.sol\":4410:4411  9 */\n      0x09\n        /* \"Tmp.sol\":4715:4717  10 */\n      0x0a\n        /* \"Tmp.sol\":4715:4728  10**_decimals */\n      tag_294\n      swap2\n      swap1\n      tag_132\n      jump\t// in\n    tag_294:\n        /* \"Tmp.sol\":4704:4712  10000000 */\n      0x989680\n        /* \"Tmp.sol\":4704:4728  10000000 * 10**_decimals */\n      tag_295\n      swap2\n      swap1\n      tag_134\n      jump\t// in\n    tag_295:\n        /* \"Tmp.sol\":9007:9076  (contractTokenBalance > _maxTaxSwap)?_maxTaxSwap:contractTokenBalance */\n    tag_293:\n        /* \"Tmp.sol\":8990:9076  uint256 getMin = (contractTokenBalance > _maxTaxSwap)?_maxTaxSwap:contractTokenBalance */\n      swap1\n      pop\n        /* \"Tmp.sol\":9094:9114  uint256 amountToSwap */\n      0x00\n        /* \"Tmp.sol\":9125:9131  getMin */\n      dup2\n        /* \"Tmp.sol\":9118:9124  amount */\n      dup6\n        /* \"Tmp.sol\":9118:9131  amount>getMin */\n      gt\n        /* \"Tmp.sol\":9117:9146  (amount>getMin)?getMin:amount */\n      tag_296\n      jumpi\n        /* \"Tmp.sol\":9140:9146  amount */\n      dup5\n        /* \"Tmp.sol\":9117:9146  (amount>getMin)?getMin:amount */\n      jump(tag_297)\n    tag_296:\n        /* \"Tmp.sol\":9133:9139  getMin */\n      dup2\n        /* \"Tmp.sol\":9117:9146  (amount>getMin)?getMin:amount */\n    tag_297:\n        /* \"Tmp.sol\":9094:9146  uint256 amountToSwap = (amount>getMin)?getMin:amount */\n      swap1\n      pop\n        /* \"Tmp.sol\":9164:9194  swapTokensForEth(amountToSwap) */\n      tag_298\n        /* \"Tmp.sol\":9181:9193  amountToSwap */\n      dup2\n        /* \"Tmp.sol\":9164:9180  swapTokensForEth */\n      tag_299\n        /* \"Tmp.sol\":9164:9194  swapTokensForEth(amountToSwap) */\n      jump\t// in\n    tag_298:\n        /* \"Tmp.sol\":9212:9238  uint256 contractETHBalance */\n      0x00\n        /* \"Tmp.sol\":9241:9262  address(this).balance */\n      selfbalance\n        /* \"Tmp.sol\":9212:9262  uint256 contractETHBalance = address(this).balance */\n      swap1\n      pop\n        /* \"Tmp.sol\":9304:9305  0 */\n      0x00\n        /* \"Tmp.sol\":9283:9301  contractETHBalance */\n      dup2\n        /* \"Tmp.sol\":9283:9305  contractETHBalance > 0 */\n      gt\n        /* \"Tmp.sol\":9280:9383  if(contractETHBalance > 0) {... */\n      iszero\n      tag_300\n      jumpi\n        /* \"Tmp.sol\":9329:9364  sendETHToFee(address(this).balance) */\n      tag_301\n        /* \"Tmp.sol\":9342:9363  address(this).balance */\n      selfbalance\n        /* \"Tmp.sol\":9329:9341  sendETHToFee */\n      tag_302\n        /* \"Tmp.sol\":9329:9364  sendETHToFee(address(this).balance) */\n      jump\t// in\n    tag_301:\n        /* \"Tmp.sol\":9280:9383  if(contractETHBalance > 0) {... */\n    tag_300:\n        /* \"Tmp.sol\":8972:9397  {... */\n      pop\n      pop\n      pop\n        /* \"Tmp.sol\":8750:9397  if (... */\n    tag_289:\n        /* \"Tmp.sol\":7585:9407  {... */\n      pop\n        /* \"Tmp.sol\":7547:9407  if (from != owner() && to != owner()) {... */\n    tag_248:\n        /* \"Tmp.sol\":9430:9431  0 */\n      0x00\n        /* \"Tmp.sol\":9420:9429  taxAmount */\n      dup2\n        /* \"Tmp.sol\":9420:9431  taxAmount>0 */\n      gt\n        /* \"Tmp.sol\":9417:9575  if(taxAmount>0){... */\n      iszero\n      tag_303\n      jumpi\n        /* \"Tmp.sol\":9469:9508  _balances[address(this)].add(taxAmount) */\n      tag_304\n        /* \"Tmp.sol\":9498:9507  taxAmount */\n      dup2\n        /* \"Tmp.sol\":9469:9478  _balances */\n      0x01\n        /* \"Tmp.sol\":9469:9493  _balances[address(this)] */\n      0x00\n        /* \"Tmp.sol\":9487:9491  this */\n      address\n        /* \"Tmp.sol\":9469:9493  _balances[address(this)] */\n      0xffffffffffffffffffffffffffffffffffffffff\n      and\n      0xffffffffffffffffffffffffffffffffffffffff\n      and\n      dup2\n      mstore\n      0x20\n      add\n      swap1\n      dup2\n      mstore\n      0x20\n      add\n      0x00\n      keccak256\n      sload\n        /* \"Tmp.sol\":9469:9497  _balances[address(this)].add */\n      tag_305\n      swap1\n        /* \"Tmp.sol\":9469:9508  _balances[address(this)].add(taxAmount) */\n      swap2\n      swap1\n      0xffffffff\n      and\n      jump\t// in\n    tag_304:\n        /* \"Tmp.sol\":9444:9453  _balances */\n      0x01\n        /* \"Tmp.sol\":9444:9468  _balances[address(this)] */\n      0x00\n        /* \"Tmp.sol\":9462:9466  this */\n      address\n        /* \"Tmp.sol\":9444:9468  _balances[address(this)] */\n      0xffffffffffffffffffffffffffffffffffffffff\n      and\n      0xffffffffffffffffffffffffffffffffffffffff\n      and\n      dup2\n      mstore\n      0x20\n      add\n      swap1\n      dup2\n      mstore\n      0x20\n      add\n      0x00\n      keccak256\n        /* \"Tmp.sol\":9444:9508  _balances[address(this)]=_balances[address(this)].add(taxAmount) */\n      dup2\n      swap1\n      sstore\n      pop\n        /* \"Tmp.sol\":9548:9552  this */\n      address\n        /* \"Tmp.sol\":9525:9564  Transfer(from, address(this),taxAmount) */\n      0xffffffffffffffffffffffffffffffffffffffff\n      and\n        /* \"Tmp.sol\":9534:9538  from */\n      dup5\n        /* \"Tmp.sol\":9525:9564  Transfer(from, address(this),taxAmount) */\n      0xffffffffffffffffffffffffffffffffffffffff\n      and\n      0xddf252ad1be2c89b69c2b068fc378daa952ba7f163c4a11628f55a4df523b3ef\n        /* \"Tmp.sol\":9554:9563  taxAmount */\n      dup4\n        /* \"Tmp.sol\":9525:9564  Transfer(from, address(this),taxAmount) */\n      mload(0x40)\n      tag_306\n      swap2\n      swap1\n      tag_46\n      jump\t// in\n    tag_306:\n      mload(0x40)\n      dup1\n      swap2\n      sub\n      swap1\n      log3\n        /* \"Tmp.sol\":9417:9575  if(taxAmount>0){... */\n    tag_303:\n        /* \"Tmp.sol\":9600:9627  _balances[from].sub(amount) */\n      tag_307\n        /* \"Tmp.sol\":9620:9626  amount */\n      dup3\n        /* \"Tmp.sol\":9600:9609  _balances */\n      0x01\n        /* \"Tmp.sol\":9600:9615  _balances[from] */\n      0x00\n        /* \"Tmp.sol\":9610:9614  from */\n      dup8\n        /* \"Tmp.sol\":9600:9615  _balances[from] */\n      0xffffffffffffffffffffffffffffffffffffffff\n      and\n      0xffffffffffffffffffffffffffffffffffffffff\n      and\n      dup2\n      mstore\n      0x20\n      add\n      swap1\n      dup2\n      mstore\n      0x20\n      add\n      0x00\n      keccak256\n      sload\n        /* \"Tmp.sol\":9600:9619  _balances[from].sub */\n      tag_169\n      swap1\n        /* \"Tmp.sol\":9600:9627  _balances[from].sub(amount) */\n      swap2\n      swap1\n      0xffffffff\n      and\n      jump\t// in\n    tag_307:\n        /* \"Tmp.sol\":9584:9593  _balances */\n      0x01\n        /* \"Tmp.sol\":9584:9599  _balances[from] */\n      0x00\n        /* \"Tmp.sol\":9594:9598  from */\n      dup7\n        /* \"Tmp.sol\":9584:9599  _balances[from] */\n      0xffffffffffffffffffffffffffffffffffffffff\n      and\n      0xffffffffffffffffffffffffffffffffffffffff\n      and\n      dup2\n      mstore\n      0x20\n      add\n      swap1\n      dup2\n      mstore\n      0x20\n      add\n      0x00\n      keccak256\n        /* \"Tmp.sol\":9584:9627  _balances[from]=_balances[from].sub(amount) */\n      dup2\n      swap1\n      sstore\n      pop\n        /* \"Tmp.sol\":9651:9691  _balances[to].add(amount.sub(taxAmount)) */\n      tag_308\n        /* \"Tmp.sol\":9669:9690  amount.sub(taxAmount) */\n      tag_309\n        /* \"Tmp.sol\":9680:9689  taxAmount */\n      dup3\n        /* \"Tmp.sol\":9669:9675  amount */\n      dup5\n        /* \"Tmp.sol\":9669:9679  amount.sub */\n      tag_169\n      swap1\n        /* \"Tmp.sol\":9669:9690  amount.sub(taxAmount) */\n      swap2\n      swap1\n      0xffffffff\n      and\n      jump\t// in\n    tag_309:\n        /* \"Tmp.sol\":9651:9660  _balances */\n      0x01\n        /* \"Tmp.sol\":9651:9664  _balances[to] */\n      0x00\n        /* \"Tmp.sol\":9661:9663  to */\n      dup7\n        /* \"Tmp.sol\":9651:9664  _balances[to] */\n      0xffffffffffffffffffffffffffffffffffffffff\n      and\n      0xffffffffffffffffffffffffffffffffffffffff\n      and\n      dup2\n      mstore\n      0x20\n      add\n      swap1\n      dup2\n      mstore\n      0x20\n      add\n      0x00\n      keccak256\n      sload\n        /* \"Tmp.sol\":9651:9668  _balances[to].add */\n      tag_305\n      swap1\n        /* \"Tmp.sol\":9651:9691  _balances[to].add(amount.sub(taxAmount)) */\n      swap2\n      swap1\n      0xffffffff\n      and\n      jump\t// in\n    tag_308:\n        /* \"Tmp.sol\":9637:9646  _balances */\n      0x01\n        /* \"Tmp.sol\":9637:9650  _balances[to] */\n      0x00\n        /* \"Tmp.sol\":9647:9649  to */\n      dup6\n        /* \"Tmp.sol\":9637:9650  _balances[to] */\n      0xffffffffffffffffffffffffffffffffffffffff\n      and\n      0xffffffffffffffffffffffffffffffffffffffff\n      and\n      dup2\n      mstore\n      0x20\n      add\n      swap1\n      dup2\n      mstore\n      0x20\n      add\n      0x00\n      keccak256\n        /* \"Tmp.sol\":9637:9691  _balances[to]=_balances[to].add(amount.sub(taxAmount)) */\n      dup2\n      swap1\n      sstore\n      pop\n        /* \"Tmp.sol\":9721:9723  to */\n      dup3\n        /* \"Tmp.sol\":9706:9747  Transfer(from, to, amount.sub(taxAmount)) */\n      0xffffffffffffffffffffffffffffffffffffffff\n      and\n        /* \"Tmp.sol\":9715:9719  from */\n      dup5\n        /* \"Tmp.sol\":9706:9747  Transfer(from, to, amount.sub(taxAmount)) */\n      0xffffffffffffffffffffffffffffffffffffffff\n      and\n      0xddf252ad1be2c89b69c2b068fc378daa952ba7f163c4a11628f55a4df523b3ef\n        /* \"Tmp.sol\":9725:9746  amount.sub(taxAmount) */\n      tag_310\n        /* \"Tmp.sol\":9736:9745  taxAmount */\n      dup5\n        /* \"Tmp.sol\":9725:9731  amount */\n      dup7\n        /* \"Tmp.sol\":9725:9735  amount.sub */\n      tag_169\n      swap1\n        /* \"Tmp.sol\":9725:9746  amount.sub(taxAmount) */\n      swap2\n      swap1\n      0xffffffff\n      and\n      jump\t// in\n    tag_310:\n        /* \"Tmp.sol\":9706:9747  Transfer(from, to, amount.sub(taxAmount)) */\n      mload(0x40)\n      tag_311\n      swap2\n      swap1\n      tag_46\n      jump\t// in\n    tag_311:\n      mload(0x40)\n      dup1\n      swap2\n      sub\n      swap1\n      log3\n        /* \"Tmp.sol\":7340:9754  {... */\n      pop\n        /* \"Tmp.sol\":7271:9754  function _transfer(address from, address to, uint256 amount) private {... */\n      pop\n      pop\n      pop\n      jump\t// out\n        /* \"Tmp.sol\":1482:1668  function sub(uint256 a, uint256 b, string memory errorMessage) internal pure returns (uint256) {... */\n    tag_145:\n        /* \"Tmp.sol\":1568:1575  uint256 */\n      0x00\n        /* \"Tmp.sol\":1600:1601  a */\n      dup4\n        /* \"Tmp.sol\":1595:1596  b */\n      dup4\n        /* \"Tmp.sol\":1595:1601  b <= a */\n      gt\n      iszero\n        /* \"Tmp.sol\":1603:1615  errorMessage */\n      dup3\n        /* \"Tmp.sol\":1587:1616  require(b <= a, errorMessage) */\n      swap1\n      tag_313\n      jumpi\n      mload(0x40)\n      0x08c379a000000000000000000000000000000000000000000000000000000000\n      dup2\n      mstore\n      0x04\n      add\n      tag_314\n      swap2\n      swap1\n      tag_34\n      jump\t// in\n    tag_314:\n      mload(0x40)\n      dup1\n      swap2\n      sub\n      swap1\n      revert\n    tag_313:\n      pop\n        /* \"Tmp.sol\":1626:1635  uint256 c */\n      0x00\n        /* \"Tmp.sol\":1642:1643  b */\n      dup4\n        /* \"Tmp.sol\":1638:1639  a */\n      dup6\n        /* \"Tmp.sol\":1638:1643  a - b */\n      tag_315\n      swap2\n      swap1\n      tag_316\n      jump\t// in\n    tag_315:\n        /* \"Tmp.sol\":1626:1643  uint256 c = a - b */\n      swap1\n      pop\n        /* \"Tmp.sol\":1660:1661  c */\n      dup1\n        /* \"Tmp.sol\":1653:1661  return c */\n      swap2\n      pop\n      pop\n        /* \"Tmp.sol\":1482:1668  function sub(uint256 a, uint256 b, string memory errorMessage) internal pure returns (uint256) {... */\n      swap4\n      swap3\n      pop\n      pop\n      pop\n      jump\t// out\n        /* \"Tmp.sol\":1674:1913  function mul(uint256 a, uint256 b) internal pure returns (uint256) {... */\n    tag_166:\n        /* \"Tmp.sol\":1732:1739  uint256 */\n      0x00\n        /* \"Tmp.sol\":1760:1761  0 */\n      dup1\n        /* \"Tmp.sol\":1755:1756  a */\n      dup4\n        /* \"Tmp.sol\":1755:1761  a == 0 */\n      sub\n        /* \"Tmp.sol\":1751:1796  if (a == 0) {... */\n      tag_318\n      jumpi\n        /* \"Tmp.sol\":1784:1785  0 */\n      0x00\n        /* \"Tmp.sol\":1777:1785  return 0 */\n      swap1\n      pop\n      jump(tag_317)\n        /* \"Tmp.sol\":1751:1796  if (a == 0) {... */\n    tag_318:\n        /* \"Tmp.sol\":1805:1814  uint256 c */\n      0x00\n        /* \"Tmp.sol\":1821:1822  b */\n      dup3\n        /* \"Tmp.sol\":1817:1818  a */\n      dup5\n        /* \"Tmp.sol\":1817:1822  a * b */\n      tag_319\n      swap2\n      swap1\n      tag_134\n      jump\t// in\n    tag_319:\n        /* \"Tmp.sol\":1805:1822  uint256 c = a * b */\n      swap1\n      pop\n        /* \"Tmp.sol\":1849:1850  b */\n      dup3\n        /* \"Tmp.sol\":1844:1845  a */\n      dup5\n        /* \"Tmp.sol\":1840:1841  c */\n      dup3\n        /* \"Tmp.sol\":1840:1845  c / a */\n      tag_320\n      swap2\n      swap1\n      tag_321\n      jump\t// in\n    tag_320:\n        /* \"Tmp.sol\":1840:1850  c / a == b */\n      eq\n        /* \"Tmp.sol\":1832:1888  require(c / a == b, \"SafeMath: multiplication overflow\") */\n      tag_322\n      jumpi\n      mload(0x40)\n      0x08c379a000000000000000000000000000000000000000000000000000000000\n      dup2\n      mstore\n      0x04\n      add\n      tag_323\n      swap1\n      tag_324\n      jump\t// in\n    tag_323:\n      mload(0x40)\n      dup1\n      swap2\n      sub\n      swap1\n      revert\n    tag_322:\n        /* \"Tmp.sol\":1905:1906  c */\n      dup1\n        /* \"Tmp.sol\":1898:1906  return c */\n      swap2\n      pop\n      pop\n        /* \"Tmp.sol\":1674:1913  function mul(uint256 a, uint256 b) internal pure returns (uint256) {... */\n    tag_317:\n      swap3\n      swap2\n      pop\n      pop\n      jump\t// out\n        /* \"Tmp.sol\":1919:2049  function div(uint256 a, uint256 b) internal pure returns (uint256) {... */\n    tag_167:\n        /* \"Tmp.sol\":1977:1984  uint256 */\n      0x00\n        /* \"Tmp.sol\":2003:2042  div(a, b, \"SafeMath: division by zero\") */\n      tag_326\n        /* \"Tmp.sol\":2007:2008  a */\n      dup4\n        /* \"Tmp.sol\":2010:2011  b */\n      dup4\n        /* \"Tmp.sol\":2003:2042  div(a, b, \"SafeMath: division by zero\") */\n      mload(0x40)\n      dup1\n      0x40\n      add\n      0x40\n      mstore\n      dup1\n      0x1a\n      dup2\n      mstore\n      0x20\n      add\n      0x536166654d6174683a206469766973696f6e206279207a65726f000000000000\n      dup2\n      mstore\n      pop\n        /* \"Tmp.sol\":2003:2006  div */\n      tag_327\n        /* \"Tmp.sol\":2003:2042  div(a, b, \"SafeMath: division by zero\") */\n      jump\t// in\n    tag_326:\n        /* \"Tmp.sol\":1996:2042  return div(a, b, \"SafeMath: division by zero\") */\n      swap1\n      pop\n        /* \"Tmp.sol\":1919:2049  function div(uint256 a, uint256 b) internal pure returns (uint256) {... */\n      swap3\n      swap2\n      pop\n      pop\n      jump\t// out\n        /* \"Tmp.sol\":1342:1476  function sub(uint256 a, uint256 b) internal pure returns (uint256) {... */\n    tag_169:\n        /* \"Tmp.sol\":1400:1407  uint256 */\n      0x00\n        /* \"Tmp.sol\":1426:1469  sub(a, b, \"SafeMath: subtraction overflow\") */\n      tag_329\n        /* \"Tmp.sol\":1430:1431  a */\n      dup4\n        /* \"Tmp.sol\":1433:1434  b */\n      dup4\n        /* \"Tmp.sol\":1426:1469  sub(a, b, \"SafeMath: subtraction overflow\") */\n      mload(0x40)\n      dup1\n      0x40\n      add\n      0x40\n      mstore\n      dup1\n      0x1e\n      dup2\n      mstore\n      0x20\n      add\n      0x536166654d6174683a207375627472616374696f6e206f766572666c6f770000\n      dup2\n      mstore\n      pop\n        /* \"Tmp.sol\":1426:1429  sub */\n      tag_145\n        /* \"Tmp.sol\":1426:1469  sub(a, b, \"SafeMath: subtraction overflow\") */\n      jump\t// in\n    tag_329:\n        /* \"Tmp.sol\":1419:1469  return sub(a, b, \"SafeMath: subtraction overflow\") */\n      swap1\n      pop\n        /* \"Tmp.sol\":1342:1476  function sub(uint256 a, uint256 b) internal pure returns (uint256) {... */\n      swap3\n      swap2\n      pop\n      pop\n      jump\t// out\n        /* \"Tmp.sol\":9856:10327  function swapTokensForEth(uint256 tokenAmount) private lockTheSwap {... */\n    tag_299:\n        /* \"Tmp.sol\":5272:5276  true */\n      0x01\n        /* \"Tmp.sol\":5263:5269  inSwap */\n      0x0b\n      0x16\n        /* \"Tmp.sol\":5263:5276  inSwap = true */\n      0x0100\n      exp\n      dup2\n      sload\n      dup2\n      0xff\n      mul\n      not\n      and\n      swap1\n      dup4\n      iszero\n      iszero\n      mul\n      or\n      swap1\n      sstore\n      pop\n        /* \"Tmp.sol\":9933:9954  address[] memory path */\n      0x00\n        /* \"Tmp.sol\":9971:9972  2 */\n      0x02\n        /* \"Tmp.sol\":9957:9973  new address[](2) */\n      0xffffffffffffffff\n      dup2\n      gt\n      iszero\n      tag_332\n      jumpi\n      tag_333\n      tag_334\n      jump\t// in\n    tag_333:\n    tag_332:\n      mload(0x40)\n      swap1\n      dup1\n      dup3\n      mstore\n      dup1\n      0x20\n      mul\n      0x20\n      add\n      dup3\n      add\n      0x40\n      mstore\n      dup1\n      iszero\n      tag_335\n      jumpi\n      dup2\n      0x20\n      add\n      0x20\n      dup3\n      mul\n      dup1\n      calldatasize\n      dup4\n      calldatacopy\n      dup1\n      dup3\n      add\n      swap2\n      pop\n      pop\n      swap1\n      pop\n    tag_335:\n      pop\n        /* \"Tmp.sol\":9933:9973  address[] memory path = new address[](2) */\n      swap1\n      pop\n        /* \"Tmp.sol\":10001:10005  this */\n      address\n        /* \"Tmp.sol\":9983:9987  path */\n      dup2\n        /* \"Tmp.sol\":9988:9989  0 */\n      0x00\n        /* \"Tmp.sol\":9983:9990  path[0] */\n      dup2\n      mload\n      dup2\n      lt\n      tag_336\n      jumpi\n      tag_337\n      tag_338\n      jump\t// in\n    tag_337:\n    tag_336:\n      0x20\n      mul\n      0x20\n      add\n      add\n        /* \"Tmp.sol\":9983:10006  path[0] = address(this) */\n      swap1\n      0xffffffffffffffffffffffffffffffffffffffff\n      and\n      swap1\n      dup2\n      0xffffffffffffffffffffffffffffffffffffffff\n      and\n      dup2\n      mstore\n      pop\n      pop\n        /* \"Tmp.sol\":10026:10041  uniswapV2Router */\n      0x0a\n      0x00\n      swap1\n      sload\n      swap1\n      0x0100\n      exp\n      swap1\n      div\n      0xffffffffffffffffffffffffffffffffffffffff\n      and\n        /* \"Tmp.sol\":10026:10046  uniswapV2Router.WETH */\n      0xffffffffffffffffffffffffffffffffffffffff\n      and\n      0xad5c4648\n        /* \"Tmp.sol\":10026:10048  uniswapV2Router.WETH() */\n      mload(0x40)\n      dup2\n      0xffffffff\n      and\n      0xe0\n      shl\n      dup2\n      mstore\n      0x04\n      add\n      0x20\n      mload(0x40)\n      dup1\n      dup4\n      sub\n      dup2\n      dup7\n      gas\n      staticcall\n      iszero\n      dup1\n      iszero\n      tag_340\n      jumpi\n      returndatasize\n      0x00\n      dup1\n      returndatacopy\n      revert(0x00, returndatasize)\n    tag_340:\n      pop\n      pop\n      pop\n      pop\n      mload(0x40)\n      returndatasize\n      not(0x1f)\n      0x1f\n      dup3\n      add\n      and\n      dup3\n      add\n      dup1\n      0x40\n      mstore\n      pop\n      dup2\n      add\n      swap1\n      tag_341\n      swap2\n      swap1\n      tag_176\n      jump\t// in\n    tag_341:\n        /* \"Tmp.sol\":10016:10020  path */\n      dup2\n        /* \"Tmp.sol\":10021:10022  1 */\n      0x01\n        /* \"Tmp.sol\":10016:10023  path[1] */\n      dup2\n      mload\n      dup2\n      lt\n      tag_342\n      jumpi\n      tag_343\n      tag_338\n      jump\t// in\n    tag_343:\n    tag_342:\n      0x20\n      mul\n      0x20\n      add\n      add\n        /* \"Tmp.sol\":10016:10048  path[1] = uniswapV2Router.WETH() */\n      swap1\n      0xffffffffffffffffffffffffffffffffffffffff\n      and\n      swap1\n      dup2\n      0xffffffffffffffffffffffffffffffffffffffff\n      and\n      dup2\n      mstore\n      pop\n      pop\n        /* \"Tmp.sol\":10058:10120  _approve(address(this), address(uniswapV2Router), tokenAmount) */\n      tag_344\n        /* \"Tmp.sol\":10075:10079  this */\n      address\n        /* \"Tmp.sol\":10090:10105  uniswapV2Router */\n      0x0a\n      0x00\n      swap1\n      sload\n      swap1\n      0x0100\n      exp\n      swap1\n      div\n      0xffffffffffffffffffffffffffffffffffffffff\n      and\n        /* \"Tmp.sol\":10108:10119  tokenAmount */\n      dup5\n        /* \"Tmp.sol\":10058:10066  _approve */\n      tag_130\n        /* \"Tmp.sol\":10058:10120  _approve(address(this), address(uniswapV2Router), tokenAmount) */\n      jump\t// in\n    tag_344:\n        /* \"Tmp.sol\":10130:10145  uniswapV2Router */\n      0x0a\n      0x00\n      swap1\n      sload\n      swap1\n      0x0100\n      exp\n      swap1\n      div\n      0xffffffffffffffffffffffffffffffffffffffff\n      and\n        /* \"Tmp.sol\":10130:10196  uniswapV2Router.swapExactTokensForETHSupportingFeeOnTransferTokens */\n      0xffffffffffffffffffffffffffffffffffffffff\n      and\n      0x791ac947\n        /* \"Tmp.sol\":10210:10221  tokenAmount */\n      dup4\n        /* \"Tmp.sol\":10235:10236  0 */\n      0x00\n        /* \"Tmp.sol\":10250:10254  path */\n      dup5\n        /* \"Tmp.sol\":10276:10280  this */\n      address\n        /* \"Tmp.sol\":10295:10310  block.timestamp */\n      timestamp\n        /* \"Tmp.sol\":10130:10320  uniswapV2Router.swapExactTokensForETHSupportingFeeOnTransferTokens(... */\n      mload(0x40)\n      dup7\n      0xffffffff\n      and\n      0xe0\n      shl\n      dup2\n      mstore\n      0x04\n      add\n      tag_345\n      swap6\n      swap5\n      swap4\n      swap3\n      swap2\n      swap1\n      tag_346\n      jump\t// in\n    tag_345:\n      0x00\n      mload(0x40)\n      dup1\n      dup4\n      sub\n      dup2\n      0x00\n      dup8\n      dup1\n      extcodesize\n      iszero\n      dup1\n      iszero\n      tag_347\n      jumpi\n      0x00\n      dup1\n      revert\n    tag_347:\n      pop\n      gas\n      call\n      iszero\n      dup1\n      iszero\n      tag_349\n      jumpi\n      returndatasize\n      0x00\n      dup1\n      returndatacopy\n      revert(0x00, returndatasize)\n    tag_349:\n      pop\n      pop\n      pop\n      pop\n        /* \"Tmp.sol\":9923:10327  {... */\n      pop\n        /* \"Tmp.sol\":5306:5311  false */\n      0x00\n        /* \"Tmp.sol\":5297:5303  inSwap */\n      0x0b\n      0x16\n        /* \"Tmp.sol\":5297:5311  inSwap = false */\n      0x0100\n      exp\n      dup2\n      sload\n      dup2\n      0xff\n      mul\n      not\n      and\n      swap1\n      dup4\n      iszero\n      iszero\n      mul\n      or\n      swap1\n      sstore\n      pop\n        /* \"Tmp.sol\":9856:10327  function swapTokensForEth(uint256 tokenAmount) private lockTheSwap {... */\n      pop\n      jump\t// out\n        /* \"Tmp.sol\":9760:9850  function sendETHToFee(uint256 amount) private {... */\n    tag_302:\n        /* \"Tmp.sol\":9816:9826  _taxWallet */\n      0x04\n      0x00\n      swap1\n      sload\n      swap1\n      0x0100\n      exp\n      swap1\n      div\n      0xffffffffffffffffffffffffffffffffffffffff\n      and\n        /* \"Tmp.sol\":9816:9835  _taxWallet.transfer */\n      0xffffffffffffffffffffffffffffffffffffffff\n      and\n        /* \"Tmp.sol\":9816:9843  _taxWallet.transfer(amount) */\n      0x08fc\n        /* \"Tmp.sol\":9836:9842  amount */\n      dup3\n        /* \"Tmp.sol\":9816:9843  _taxWallet.transfer(amount) */\n      swap1\n      dup2\n      iszero\n      mul\n      swap1\n      mload(0x40)\n      0x00\n      mload(0x40)\n      dup1\n      dup4\n      sub\n      dup2\n      dup6\n      dup9\n      dup9\n      call\n      swap4\n      pop\n      pop\n      pop\n      pop\n      iszero\n      dup1\n      iszero\n      tag_352\n      jumpi\n      returndatasize\n      0x00\n      dup1\n      returndatacopy\n      revert(0x00, returndatasize)\n    tag_352:\n      pop\n        /* \"Tmp.sol\":9760:9850  function sendETHToFee(uint256 amount) private {... */\n      pop\n      jump\t// out\n        /* \"Tmp.sol\":1161:1336  function add(uint256 a, uint256 b) internal pure returns (uint256) {... */\n    tag_305:\n        /* \"Tmp.sol\":1219:1226  uint256 */\n      0x00\n        /* \"Tmp.sol\":1238:1247  uint256 c */\n      dup1\n        /* \"Tmp.sol\":1254:1255  b */\n      dup3\n        /* \"Tmp.sol\":1250:1251  a */\n      dup5\n        /* \"Tmp.sol\":1250:1255  a + b */\n      tag_354\n      swap2\n      swap1\n      tag_263\n      jump\t// in\n    tag_354:\n        /* \"Tmp.sol\":1238:1255  uint256 c = a + b */\n      swap1\n      pop\n        /* \"Tmp.sol\":1278:1279  a */\n      dup4\n        /* \"Tmp.sol\":1273:1274  c */\n      dup2\n        /* \"Tmp.sol\":1273:1279  c >= a */\n      lt\n      iszero\n        /* \"Tmp.sol\":1265:1311  require(c >= a, \"SafeMath: addition overflow\") */\n      tag_355\n      jumpi\n      mload(0x40)\n      0x08c379a000000000000000000000000000000000000000000000000000000000\n      dup2\n      mstore\n      0x04\n      add\n      tag_356\n      swap1\n      tag_357\n      jump\t// in\n    tag_356:\n      mload(0x40)\n      dup1\n      swap2\n      sub\n      swap1\n      revert\n    tag_355:\n        /* \"Tmp.sol\":1328:1329  c */\n      dup1\n        /* \"Tmp.sol\":1321:1329  return c */\n      swap2\n      pop\n      pop\n        /* \"Tmp.sol\":1161:1336  function add(uint256 a, uint256 b) internal pure returns (uint256) {... */\n      swap3\n      swap2\n      pop\n      pop\n      jump\t// out\n        /* \"Tmp.sol\":2055:2240  function div(uint256 a, uint256 b, string memory errorMessage) internal pure returns (uint256) {... */\n    tag_327:\n        /* \"Tmp.sol\":2141:2148  uint256 */\n      0x00\n        /* \"Tmp.sol\":2172:2173  0 */\n      dup1\n        /* \"Tmp.sol\":2168:2169  b */\n      dup4\n        /* \"Tmp.sol\":2168:2173  b > 0 */\n      gt\n        /* \"Tmp.sol\":2175:2187  errorMessage */\n      dup3\n        /* \"Tmp.sol\":2160:2188  require(b > 0, errorMessage) */\n      swap1\n      tag_359\n      jumpi\n      mload(0x40)\n      0x08c379a000000000000000000000000000000000000000000000000000000000\n      dup2\n      mstore\n      0x04\n      add\n      tag_360\n      swap2\n      swap1\n      tag_34\n      jump\t// in\n    tag_360:\n      mload(0x40)\n      dup1\n      swap2\n      sub\n      swap1\n      revert\n    tag_359:\n      pop\n        /* \"Tmp.sol\":2198:2207  uint256 c */\n      0x00\n        /* \"Tmp.sol\":2214:2215  b */\n      dup4\n        /* \"Tmp.sol\":2210:2211  a */\n      dup6\n        /* \"Tmp.sol\":2210:2215  a / b */\n      tag_361\n      swap2\n      swap1\n      tag_321\n      jump\t// in\n    tag_361:\n        /* \"Tmp.sol\":2198:2215  uint256 c = a / b */\n      swap1\n      pop\n        /* \"Tmp.sol\":2232:2233  c */\n      dup1\n        /* \"Tmp.sol\":2225:2233  return c */\n      swap2\n      pop\n      pop\n        /* \"Tmp.sol\":2055:2240  function div(uint256 a, uint256 b, string memory errorMessage) internal pure returns (uint256) {... */\n      swap4\n      swap3\n      pop\n      pop\n      pop\n      jump\t// out\n        /* \"#utility.yul\":7:106   */\n    tag_362:\n        /* \"#utility.yul\":59:65   */\n      0x00\n        /* \"#utility.yul\":93:98   */\n      dup2\n        /* \"#utility.yul\":87:99   */\n      mload\n        /* \"#utility.yul\":77:99   */\n      swap1\n      pop\n        /* \"#utility.yul\":7:106   */\n      swap2\n      swap1\n      pop\n      jump\t// out\n        /* \"#utility.yul\":112:281   */\n    tag_363:\n        /* \"#utility.yul\":196:207   */\n      0x00\n        /* \"#utility.yul\":230:236   */\n      dup3\n        /* \"#utility.yul\":225:228   */\n      dup3\n        /* \"#utility.yul\":218:237   */\n      mstore\n        /* \"#utility.yul\":270:274   */\n      0x20\n        /* \"#utility.yul\":265:268   */\n      dup3\n        /* \"#utility.yul\":261:275   */\n      add\n        /* \"#utility.yul\":246:275   */\n      swap1\n      pop\n        /* \"#utility.yul\":112:281   */\n      swap3\n      swap2\n      pop\n      pop\n      jump\t// out\n        /* \"#utility.yul\":287:533   */\n    tag_364:\n        /* \"#utility.yul\":368:369   */\n      0x00\n        /* \"#utility.yul\":378:491   */\n    tag_431:\n        /* \"#utility.yul\":392:398   */\n      dup4\n        /* \"#utility.yul\":389:390   */\n      dup2\n        /* \"#utility.yul\":386:399   */\n      lt\n        /* \"#utility.yul\":378:491   */\n      iszero\n      tag_433\n      jumpi\n        /* \"#utility.yul\":477:478   */\n      dup1\n        /* \"#utility.yul\":472:475   */\n      dup3\n        /* \"#utility.yul\":468:479   */\n      add\n        /* \"#utility.yul\":462:480   */\n      mload\n        /* \"#utility.yul\":458:459   */\n      dup2\n        /* \"#utility.yul\":453:456   */\n      dup5\n        /* \"#utility.yul\":449:460   */\n      add\n        /* \"#utility.yul\":442:481   */\n      mstore\n        /* \"#utility.yul\":414:416   */\n      0x20\n        /* \"#utility.yul\":411:412   */\n      dup2\n        /* \"#utility.yul\":407:417   */\n      add\n        /* \"#utility.yul\":402:417   */\n      swap1\n      pop\n        /* \"#utility.yul\":378:491   */\n      jump(tag_431)\n    tag_433:\n        /* \"#utility.yul\":525:526   */\n      0x00\n        /* \"#utility.yul\":516:522   */\n      dup5\n        /* \"#utility.yul\":511:514   */\n      dup5\n        /* \"#utility.yul\":507:523   */\n      add\n        /* \"#utility.yul\":500:527   */\n      mstore\n        /* \"#utility.yul\":349:533   */\n      pop\n        /* \"#utility.yul\":287:533   */\n      pop\n      pop\n      pop\n      jump\t// out\n        /* \"#utility.yul\":539:641   */\n    tag_365:\n        /* \"#utility.yul\":580:586   */\n      0x00\n        /* \"#utility.yul\":631:633   */\n      0x1f\n        /* \"#utility.yul\":627:634   */\n      not\n        /* \"#utility.yul\":622:624   */\n      0x1f\n        /* \"#utility.yul\":615:620   */\n      dup4\n        /* \"#utility.yul\":611:625   */\n      add\n        /* \"#utility.yul\":607:635   */\n      and\n        /* \"#utility.yul\":597:635   */\n      swap1\n      pop\n        /* \"#utility.yul\":539:641   */\n      swap2\n      swap1\n      pop\n      jump\t// out\n        /* \"#utility.yul\":647:1024   */\n    tag_366:\n        /* \"#utility.yul\":735:738   */\n      0x00\n        /* \"#utility.yul\":763:802   */\n      tag_436\n        /* \"#utility.yul\":796:801   */\n      dup3\n        /* \"#utility.yul\":763:802   */\n      tag_362\n      jump\t// in\n    tag_436:\n        /* \"#utility.yul\":818:889   */\n      tag_437\n        /* \"#utility.yul\":882:888   */\n      dup2\n        /* \"#utility.yul\":877:880   */\n      dup6\n        /* \"#utility.yul\":818:889   */\n      tag_363\n      jump\t// in\n    tag_437:\n        /* \"#utility.yul\":811:889   */\n      swap4\n      pop\n        /* \"#utility.yul\":898:963   */\n      tag_438\n        /* \"#utility.yul\":956:962   */\n      dup2\n        /* \"#utility.yul\":951:954   */\n      dup6\n        /* \"#utility.yul\":944:948   */\n      0x20\n        /* \"#utility.yul\":937:942   */\n      dup7\n        /* \"#utility.yul\":933:949   */\n      add\n        /* \"#utility.yul\":898:963   */\n      tag_364\n      jump\t// in\n    tag_438:\n        /* \"#utility.yul\":988:1017   */\n      tag_439\n        /* \"#utility.yul\":1010:1016   */\n      dup2\n        /* \"#utility.yul\":988:1017   */\n      tag_365\n      jump\t// in\n    tag_439:\n        /* \"#utility.yul\":983:986   */\n      dup5\n        /* \"#utility.yul\":979:1018   */\n      add\n        /* \"#utility.yul\":972:1018   */\n      swap2\n      pop\n        /* \"#utility.yul\":739:1024   */\n      pop\n        /* \"#utility.yul\":647:1024   */\n      swap3\n      swap2\n      pop\n      pop\n      jump\t// out\n        /* \"#utility.yul\":1030:1343   */\n    tag_34:\n        /* \"#utility.yul\":1143:1147   */\n      0x00\n        /* \"#utility.yul\":1181:1183   */\n      0x20\n        /* \"#utility.yul\":1170:1179   */\n      dup3\n        /* \"#utility.yul\":1166:1184   */\n      add\n        /* \"#utility.yul\":1158:1184   */\n      swap1\n      pop\n        /* \"#utility.yul\":1230:1239   */\n      dup2\n        /* \"#utility.yul\":1224:1228   */\n      dup2\n        /* \"#utility.yul\":1220:1240   */\n      sub\n        /* \"#utility.yul\":1216:1217   */\n      0x00\n        /* \"#utility.yul\":1205:1214   */\n      dup4\n        /* \"#utility.yul\":1201:1218   */\n      add\n        /* \"#utility.yul\":1194:1241   */\n      mstore\n        /* \"#utility.yul\":1258:1336   */\n      tag_441\n        /* \"#utility.yul\":1331:1335   */\n      dup2\n        /* \"#utility.yul\":1322:1328   */\n      dup5\n        /* \"#utility.yul\":1258:1336   */\n      tag_366\n      jump\t// in\n    tag_441:\n        /* \"#utility.yul\":1250:1336   */\n      swap1\n      pop\n        /* \"#utility.yul\":1030:1343   */\n      swap3\n      swap2\n      pop\n      pop\n      jump\t// out\n        /* \"#utility.yul\":1430:1547   */\n    tag_368:\n        /* \"#utility.yul\":1539:1540   */\n      0x00\n        /* \"#utility.yul\":1536:1537   */\n      dup1\n        /* \"#utility.yul\":1529:1541   */\n      revert\n        /* \"#utility.yul\":1676:1802   */\n    tag_370:\n        /* \"#utility.yul\":1713:1720   */\n      0x00\n        /* \"#utility.yul\":1753:1795   */\n      0xffffffffffffffffffffffffffffffffffffffff\n        /* \"#utility.yul\":1746:1751   */\n      dup3\n        /* \"#utility.yul\":1742:1796   */\n      and\n        /* \"#utility.yul\":1731:1796   */\n      swap1\n      pop\n        /* \"#utility.yul\":1676:1802   */\n      swap2\n      swap1\n      pop\n      jump\t// out\n        /* \"#utility.yul\":1808:1904   */\n    tag_371:\n        /* \"#utility.yul\":1845:1852   */\n      0x00\n        /* \"#utility.yul\":1874:1898   */\n      tag_447\n        /* \"#utility.yul\":1892:1897   */\n      dup3\n        /* \"#utility.yul\":1874:1898   */\n      tag_370\n      jump\t// in\n    tag_447:\n        /* \"#utility.yul\":1863:1898   */\n      swap1\n      pop\n        /* \"#utility.yul\":1808:1904   */\n      swap2\n      swap1\n      pop\n      jump\t// out\n        /* \"#utility.yul\":1910:2032   */\n    tag_372:\n        /* \"#utility.yul\":1983:2007   */\n      tag_449\n        /* \"#utility.yul\":2001:2006   */\n      dup2\n        /* \"#utility.yul\":1983:2007   */\n      tag_371\n      jump\t// in\n    tag_449:\n        /* \"#utility.yul\":1976:1981   */\n      dup2\n        /* \"#utility.yul\":1973:2008   */\n      eq\n        /* \"#utility.yul\":1963:2026   */\n      tag_450\n      jumpi\n        /* \"#utility.yul\":2022:2023   */\n      0x00\n        /* \"#utility.yul\":2019:2020   */\n      dup1\n        /* \"#utility.yul\":2012:2024   */\n      revert\n        /* \"#utility.yul\":1963:2026   */\n    tag_450:\n        /* \"#utility.yul\":1910:2032   */\n      pop\n      jump\t// out\n        /* \"#utility.yul\":2038:2177   */\n    tag_373:\n        /* \"#utility.yul\":2084:2089   */\n      0x00\n        /* \"#utility.yul\":2122:2128   */\n      dup2\n        /* \"#utility.yul\":2109:2129   */\n      calldataload\n        /* \"#utility.yul\":2100:2129   */\n      swap1\n      pop\n        /* \"#utility.yul\":2138:2171   */\n      tag_452\n        /* \"#utility.yul\":2165:2170   */\n      dup2\n        /* \"#utility.yul\":2138:2171   */\n      tag_372\n      jump\t// in\n    tag_452:\n        /* \"#utility.yul\":2038:2177   */\n      swap3\n      swap2\n      pop\n      pop\n      jump\t// out\n        /* \"#utility.yul\":2183:2260   */\n    tag_374:\n        /* \"#utility.yul\":2220:2227   */\n      0x00\n        /* \"#utility.yul\":2249:2254   */\n      dup2\n        /* \"#utility.yul\":2238:2254   */\n      swap1\n      pop\n        /* \"#utility.yul\":2183:2260   */\n      swap2\n      swap1\n      pop\n      jump\t// out\n        /* \"#utility.yul\":2266:2388   */\n    tag_375:\n        /* \"#utility.yul\":2339:2363   */\n      tag_455\n        /* \"#utility.yul\":2357:2362   */\n      dup2\n        /* \"#utility.yul\":2339:2363   */\n      tag_374\n      jump\t// in\n    tag_455:\n        /* \"#utility.yul\":2332:2337   */\n      dup2\n        /* \"#utility.yul\":2329:2364   */\n      eq\n        /* \"#utility.yul\":2319:2382   */\n      tag_456\n      jumpi\n        /* \"#utility.yul\":2378:2379   */\n      0x00\n        /* \"#utility.yul\":2375:2376   */\n      dup1\n        /* \"#utility.yul\":2368:2380   */\n      revert\n        /* \"#utility.yul\":2319:2382   */\n    tag_456:\n        /* \"#utility.yul\":2266:2388   */\n      pop\n      jump\t// out\n        /* \"#utility.yul\":2394:2533   */\n    tag_376:\n        /* \"#utility.yul\":2440:2445   */\n      0x00\n        /* \"#utility.yul\":2478:2484   */\n      dup2\n        /* \"#utility.yul\":2465:2485   */\n      calldataload\n        /* \"#utility.yul\":2456:2485   */\n      swap1\n      pop\n        /* \"#utility.yul\":2494:2527   */\n      tag_458\n        /* \"#utility.yul\":2521:2526   */\n      dup2\n        /* \"#utility.yul\":2494:2527   */\n      tag_375\n      jump\t// in\n    tag_458:\n        /* \"#utility.yul\":2394:2533   */\n      swap3\n      swap2\n      pop\n      pop\n      jump\t// out\n        /* \"#utility.yul\":2539:3013   */\n    tag_38:\n        /* \"#utility.yul\":2607:2613   */\n      0x00\n        /* \"#utility.yul\":2615:2621   */\n      dup1\n        /* \"#utility.yul\":2664:2666   */\n      0x40\n        /* \"#utility.yul\":2652:2661   */\n      dup4\n        /* \"#utility.yul\":2643:2650   */\n      dup6\n        /* \"#utility.yul\":2639:2662   */\n      sub\n        /* \"#utility.yul\":2635:2667   */\n      slt\n        /* \"#utility.yul\":2632:2751   */\n      iszero\n      tag_460\n      jumpi\n        /* \"#utility.yul\":2670:2749   */\n      tag_461\n      tag_368\n      jump\t// in\n    tag_461:\n        /* \"#utility.yul\":2632:2751   */\n    tag_460:\n        /* \"#utility.yul\":2790:2791   */\n      0x00\n        /* \"#utility.yul\":2815:2868   */\n      tag_462\n        /* \"#utility.yul\":2860:2867   */\n      dup6\n        /* \"#utility.yul\":2851:2857   */\n      dup3\n        /* \"#utility.yul\":2840:2849   */\n      dup7\n        /* \"#utility.yul\":2836:2858   */\n      add\n        /* \"#utility.yul\":2815:2868   */\n      tag_373\n      jump\t// in\n    tag_462:\n        /* \"#utility.yul\":2805:2868   */\n      swap3\n      pop\n        /* \"#utility.yul\":2761:2878   */\n      pop\n        /* \"#utility.yul\":2917:2919   */\n      0x20\n        /* \"#utility.yul\":2943:2996   */\n      tag_463\n        /* \"#utility.yul\":2988:2995   */\n      dup6\n        /* \"#utility.yul\":2979:2985   */\n      dup3\n        /* \"#utility.yul\":2968:2977   */\n      dup7\n        /* \"#utility.yul\":2964:2986   */\n      add\n        /* \"#utility.yul\":2943:2996   */\n      tag_376\n      jump\t// in\n    tag_463:\n        /* \"#utility.yul\":2933:2996   */\n      swap2\n      pop\n        /* \"#utility.yul\":2888:3006   */\n      pop\n        /* \"#utility.yul\":2539:3013   */\n      swap3\n      pop\n      swap3\n      swap1\n      pop\n      jump\t// out\n        /* \"#utility.yul\":3019:3109   */\n    tag_377:\n        /* \"#utility.yul\":3053:3060   */\n      0x00\n        /* \"#utility.yul\":3096:3101   */\n      dup2\n        /* \"#utility.yul\":3089:3102   */\n      iszero\n        /* \"#utility.yul\":3082:3103   */\n      iszero\n        /* \"#utility.yul\":3071:3103   */\n      swap1\n      pop\n        /* \"#utility.yul\":3019:3109   */\n      swap2\n      swap1\n      pop\n      jump\t// out\n        /* \"#utility.yul\":3115:3224   */\n    tag_378:\n        /* \"#utility.yul\":3196:3217   */\n      tag_466\n        /* \"#utility.yul\":3211:3216   */\n      dup2\n        /* \"#utility.yul\":3196:3217   */\n      tag_377\n      jump\t// in\n    tag_466:\n        /* \"#utility.yul\":3191:3194   */\n      dup3\n        /* \"#utility.yul\":3184:3218   */\n      mstore\n        /* \"#utility.yul\":3115:3224   */\n      pop\n      pop\n      jump\t// out\n        /* \"#utility.yul\":3230:3440   */\n    tag_41:\n        /* \"#utility.yul\":3317:3321   */\n      0x00\n        /* \"#utility.yul\":3355:3357   */\n      0x20\n        /* \"#utility.yul\":3344:3353   */\n      dup3\n        /* \"#utility.yul\":3340:3358   */\n      add\n        /* \"#utility.yul\":3332:3358   */\n      swap1\n      pop\n        /* \"#utility.yul\":3368:3433   */\n      tag_468\n        /* \"#utility.yul\":3430:3431   */\n      0x00\n        /* \"#utility.yul\":3419:3428   */\n      dup4\n        /* \"#utility.yul\":3415:3432   */\n      add\n        /* \"#utility.yul\":3406:3412   */\n      dup5\n        /* \"#utility.yul\":3368:3433   */\n      tag_378\n      jump\t// in\n    tag_468:\n        /* \"#utility.yul\":3230:3440   */\n      swap3\n      swap2\n      pop\n      pop\n      jump\t// out\n        /* \"#utility.yul\":3446:3564   */\n    tag_379:\n        /* \"#utility.yul\":3533:3557   */\n      tag_470\n        /* \"#utility.yul\":3551:3556   */\n      dup2\n        /* \"#utility.yul\":3533:3557   */\n      tag_374\n      jump\t// in\n    tag_470:\n        /* \"#utility.yul\":3528:3531   */\n      dup3\n        /* \"#utility.yul\":3521:3558   */\n      mstore\n        /* \"#utility.yul\":3446:3564   */\n      pop\n      pop\n      jump\t// out\n        /* \"#utility.yul\":3570:3792   */\n    tag_46:\n        /* \"#utility.yul\":3663:3667   */\n      0x00\n        /* \"#utility.yul\":3701:3703   */\n      0x20\n        /* \"#utility.yul\":3690:3699   */\n      dup3\n        /* \"#utility.yul\":3686:3704   */\n      add\n        /* \"#utility.yul\":3678:3704   */\n      swap1\n      pop\n        /* \"#utility.yul\":3714:3785   */\n      tag_472\n        /* \"#utility.yul\":3782:3783   */\n      0x00\n        /* \"#utility.yul\":3771:3780   */\n      dup4\n        /* \"#utility.yul\":3767:3784   */\n      add\n        /* \"#utility.yul\":3758:3764   */\n      dup5\n        /* \"#utility.yul\":3714:3785   */\n      tag_379\n      jump\t// in\n    tag_472:\n        /* \"#utility.yul\":3570:3792   */\n      swap3\n      swap2\n      pop\n      pop\n      jump\t// out\n        /* \"#utility.yul\":3798:4417   */\n    tag_54:\n        /* \"#utility.yul\":3875:3881   */\n      0x00\n        /* \"#utility.yul\":3883:3889   */\n      dup1\n        /* \"#utility.yul\":3891:3897   */\n      0x00\n        /* \"#utility.yul\":3940:3942   */\n      0x60\n        /* \"#utility.yul\":3928:3937   */\n      dup5\n        /* \"#utility.yul\":3919:3926   */\n      dup7\n        /* \"#utility.yul\":3915:3938   */\n      sub\n        /* \"#utility.yul\":3911:3943   */\n      slt\n        /* \"#utility.yul\":3908:4027   */\n      iszero\n      tag_474\n      jumpi\n        /* \"#utility.yul\":3946:4025   */\n      tag_475\n      tag_368\n      jump\t// in\n    tag_475:\n        /* \"#utility.yul\":3908:4027   */\n    tag_474:\n        /* \"#utility.yul\":4066:4067   */\n      0x00\n        /* \"#utility.yul\":4091:4144   */\n      tag_476\n        /* \"#utility.yul\":4136:4143   */\n      dup7\n        /* \"#utility.yul\":4127:4133   */\n      dup3\n        /* \"#utility.yul\":4116:4125   */\n      dup8\n        /* \"#utility.yul\":4112:4134   */\n      add\n        /* \"#utility.yul\":4091:4144   */\n      tag_373\n      jump\t// in\n    tag_476:\n        /* \"#utility.yul\":4081:4144   */\n      swap4\n      pop\n        /* \"#utility.yul\":4037:4154   */\n      pop\n        /* \"#utility.yul\":4193:4195   */\n      0x20\n        /* \"#utility.yul\":4219:4272   */\n      tag_477\n        /* \"#utility.yul\":4264:4271   */\n      dup7\n        /* \"#utility.yul\":4255:4261   */\n      dup3\n        /* \"#utility.yul\":4244:4253   */\n      dup8\n        /* \"#utility.yul\":4240:4262   */\n      add\n        /* \"#utility.yul\":4219:4272   */\n      tag_373\n      jump\t// in\n    tag_477:\n        /* \"#utility.yul\":4209:4272   */\n      swap3\n      pop\n        /* \"#utility.yul\":4164:4282   */\n      pop\n        /* \"#utility.yul\":4321:4323   */\n      0x40\n        /* \"#utility.yul\":4347:4400   */\n      tag_478\n        /* \"#utility.yul\":4392:4399   */\n      dup7\n        /* \"#utility.yul\":4383:4389   */\n      dup3\n        /* \"#utility.yul\":4372:4381   */\n      dup8\n        /* \"#utility.yul\":4368:4390   */\n      add\n        /* \"#utility.yul\":4347:4400   */\n      tag_376\n      jump\t// in\n    tag_478:\n        /* \"#utility.yul\":4337:4400   */\n      swap2\n      pop\n        /* \"#utility.yul\":4292:4410   */\n      pop\n        /* \"#utility.yul\":3798:4417   */\n      swap3\n      pop\n      swap3\n      pop\n      swap3\n      jump\t// out\n        /* \"#utility.yul\":4423:4509   */\n    tag_380:\n        /* \"#utility.yul\":4458:4465   */\n      0x00\n        /* \"#utility.yul\":4498:4502   */\n      0xff\n        /* \"#utility.yul\":4491:4496   */\n      dup3\n        /* \"#utility.yul\":4487:4503   */\n      and\n        /* \"#utility.yul\":4476:4503   */\n      swap1\n      pop\n        /* \"#utility.yul\":4423:4509   */\n      swap2\n      swap1\n      pop\n      jump\t// out\n        /* \"#utility.yul\":4515:4627   */\n    tag_381:\n        /* \"#utility.yul\":4598:4620   */\n      tag_481\n        /* \"#utility.yul\":4614:4619   */\n      dup2\n        /* \"#utility.yul\":4598:4620   */\n      tag_380\n      jump\t// in\n    tag_481:\n        /* \"#utility.yul\":4593:4596   */\n      dup3\n        /* \"#utility.yul\":4586:4621   */\n      mstore\n        /* \"#utility.yul\":4515:4627   */\n      pop\n      pop\n      jump\t// out\n        /* \"#utility.yul\":4633:4847   */\n    tag_61:\n        /* \"#utility.yul\":4722:4726   */\n      0x00\n        /* \"#utility.yul\":4760:4762   */\n      0x20\n        /* \"#utility.yul\":4749:4758   */\n      dup3\n        /* \"#utility.yul\":4745:4763   */\n      add\n        /* \"#utility.yul\":4737:4763   */\n      swap1\n      pop\n        /* \"#utility.yul\":4773:4840   */\n      tag_483\n        /* \"#utility.yul\":4837:4838   */\n      0x00\n        /* \"#utility.yul\":4826:4835   */\n      dup4\n        /* \"#utility.yul\":4822:4839   */\n      add\n        /* \"#utility.yul\":4813:4819   */\n      dup5\n        /* \"#utility.yul\":4773:4840   */\n      tag_381\n      jump\t// in\n    tag_483:\n        /* \"#utility.yul\":4633:4847   */\n      swap3\n      swap2\n      pop\n      pop\n      jump\t// out\n        /* \"#utility.yul\":4853:5182   */\n    tag_65:\n        /* \"#utility.yul\":4912:4918   */\n      0x00\n        /* \"#utility.yul\":4961:4963   */\n      0x20\n        /* \"#utility.yul\":4949:4958   */\n      dup3\n        /* \"#utility.yul\":4940:4947   */\n      dup5\n        /* \"#utility.yul\":4936:4959   */\n      sub\n        /* \"#utility.yul\":4932:4964   */\n      slt\n        /* \"#utility.yul\":4929:5048   */\n      iszero\n      tag_485\n      jumpi\n        /* \"#utility.yul\":4967:5046   */\n      tag_486\n      tag_368\n      jump\t// in\n    tag_486:\n        /* \"#utility.yul\":4929:5048   */\n    tag_485:\n        /* \"#utility.yul\":5087:5088   */\n      0x00\n        /* \"#utility.yul\":5112:5165   */\n      tag_487\n        /* \"#utility.yul\":5157:5164   */\n      dup5\n        /* \"#utility.yul\":5148:5154   */\n      dup3\n        /* \"#utility.yul\":5137:5146   */\n      dup6\n        /* \"#utility.yul\":5133:5155   */\n      add\n        /* \"#utility.yul\":5112:5165   */\n      tag_373\n      jump\t// in\n    tag_487:\n        /* \"#utility.yul\":5102:5165   */\n      swap2\n      pop\n        /* \"#utility.yul\":5058:5175   */\n      pop\n        /* \"#utility.yul\":4853:5182   */\n      swap3\n      swap2\n      pop\n      pop\n      jump\t// out\n        /* \"#utility.yul\":5188:5306   */\n    tag_382:\n        /* \"#utility.yul\":5275:5299   */\n      tag_489\n        /* \"#utility.yul\":5293:5298   */\n      dup2\n        /* \"#utility.yul\":5275:5299   */\n      tag_371\n      jump\t// in\n    tag_489:\n        /* \"#utility.yul\":5270:5273   */\n      dup3\n        /* \"#utility.yul\":5263:5300   */\n      mstore\n        /* \"#utility.yul\":5188:5306   */\n      pop\n      pop\n      jump\t// out\n        /* \"#utility.yul\":5312:5534   */\n    tag_82:\n        /* \"#utility.yul\":5405:5409   */\n      0x00\n        /* \"#utility.yul\":5443:5445   */\n      0x20\n        /* \"#utility.yul\":5432:5441   */\n      dup3\n        /* \"#utility.yul\":5428:5446   */\n      add\n        /* \"#utility.yul\":5420:5446   */\n      swap1\n      pop\n        /* \"#utility.yul\":5456:5527   */\n      tag_491\n        /* \"#utility.yul\":5524:5525   */\n      0x00\n        /* \"#utility.yul\":5513:5522   */\n      dup4\n        /* \"#utility.yul\":5509:5526   */\n      add\n        /* \"#utility.yul\":5500:5506   */\n      dup5\n        /* \"#utility.yul\":5456:5527   */\n      tag_382\n      jump\t// in\n    tag_491:\n        /* \"#utility.yul\":5312:5534   */\n      swap3\n      swap2\n      pop\n      pop\n      jump\t// out\n        /* \"#utility.yul\":5540:6014   */\n    tag_103:\n        /* \"#utility.yul\":5608:5614   */\n      0x00\n        /* \"#utility.yul\":5616:5622   */\n      dup1\n        /* \"#utility.yul\":5665:5667   */\n      0x40\n        /* \"#utility.yul\":5653:5662   */\n      dup4\n        /* \"#utility.yul\":5644:5651   */\n      dup6\n        /* \"#utility.yul\":5640:5663   */\n      sub\n        /* \"#utility.yul\":5636:5668   */\n      slt\n        /* \"#utility.yul\":5633:5752   */\n      iszero\n      tag_493\n      jumpi\n        /* \"#utility.yul\":5671:5750   */\n      tag_494\n      tag_368\n      jump\t// in\n    tag_494:\n        /* \"#utility.yul\":5633:5752   */\n    tag_493:\n        /* \"#utility.yul\":5791:5792   */\n      0x00\n        /* \"#utility.yul\":5816:5869   */\n      tag_495\n        /* \"#utility.yul\":5861:5868   */\n      dup6\n        /* \"#utility.yul\":5852:5858   */\n      dup3\n        /* \"#utility.yul\":5841:5850   */\n      dup7\n        /* \"#utility.yul\":5837:5859   */\n      add\n        /* \"#utility.yul\":5816:5869   */\n      tag_376\n      jump\t// in\n    tag_495:\n        /* \"#utility.yul\":5806:5869   */\n      swap3\n      pop\n        /* \"#utility.yul\":5762:5879   */\n      pop\n        /* \"#utility.yul\":5918:5920   */\n      0x20\n        /* \"#utility.yul\":5944:5997   */\n      tag_496\n        /* \"#utility.yul\":5989:5996   */\n      dup6\n        /* \"#utility.yul\":5980:5986   */\n      dup3\n        /* \"#utility.yul\":5969:5978   */\n      dup7\n        /* \"#utility.yul\":5965:5987   */\n      add\n        /* \"#utility.yul\":5944:5997   */\n      tag_376\n      jump\t// in\n    tag_496:\n        /* \"#utility.yul\":5934:5997   */\n      swap2\n      pop\n        /* \"#utility.yul\":5889:6007   */\n      pop\n        /* \"#utility.yul\":5540:6014   */\n      swap3\n      pop\n      swap3\n      swap1\n      pop\n      jump\t// out\n        /* \"#utility.yul\":6020:6494   */\n    tag_108:\n        /* \"#utility.yul\":6088:6094   */\n      0x00\n        /* \"#utility.yul\":6096:6102   */\n      dup1\n        /* \"#utility.yul\":6145:6147   */\n      0x40\n        /* \"#utility.yul\":6133:6142   */\n      dup4\n        /* \"#utility.yul\":6124:6131   */\n      dup6\n        /* \"#utility.yul\":6120:6143   */\n      sub\n        /* \"#utility.yul\":6116:6148   */\n      slt\n        /* \"#utility.yul\":6113:6232   */\n      iszero\n      tag_498\n      jumpi\n        /* \"#utility.yul\":6151:6230   */\n      tag_499\n      tag_368\n      jump\t// in\n    tag_499:\n        /* \"#utility.yul\":6113:6232   */\n    tag_498:\n        /* \"#utility.yul\":6271:6272   */\n      0x00\n        /* \"#utility.yul\":6296:6349   */\n      tag_500\n        /* \"#utility.yul\":6341:6348   */\n      dup6\n        /* \"#utility.yul\":6332:6338   */\n      dup3\n        /* \"#utility.yul\":6321:6330   */\n      dup7\n        /* \"#utility.yul\":6317:6339   */\n      add\n        /* \"#utility.yul\":6296:6349   */\n      tag_373\n      jump\t// in\n    tag_500:\n        /* \"#utility.yul\":6286:6349   */\n      swap3\n      pop\n        /* \"#utility.yul\":6242:6359   */\n      pop\n        /* \"#utility.yul\":6398:6400   */\n      0x20\n        /* \"#utility.yul\":6424:6477   */\n      tag_501\n        /* \"#utility.yul\":6469:6476   */\n      dup6\n        /* \"#utility.yul\":6460:6466   */\n      dup3\n        /* \"#utility.yul\":6449:6458   */\n      dup7\n        /* \"#utility.yul\":6445:6467   */\n      add\n        /* \"#utility.yul\":6424:6477   */\n      tag_373\n      jump\t// in\n    tag_501:\n        /* \"#utility.yul\":6414:6477   */\n      swap2\n      pop\n        /* \"#utility.yul\":6369:6487   */\n      pop\n        /* \"#utility.yul\":6020:6494   */\n      swap3\n      pop\n      swap3\n      swap1\n      pop\n      jump\t// out\n        /* \"#utility.yul\":6500:6682   */\n    tag_383:\n        /* \"#utility.yul\":6640:6674   */\n      0x4f776e61626c653a2063616c6c6572206973206e6f7420746865206f776e6572\n        /* \"#utility.yul\":6636:6637   */\n      0x00\n        /* \"#utility.yul\":6628:6634   */\n      dup3\n        /* \"#utility.yul\":6624:6638   */\n      add\n        /* \"#utility.yul\":6617:6675   */\n      mstore\n        /* \"#utility.yul\":6500:6682   */\n      pop\n      jump\t// out\n        /* \"#utility.yul\":6688:7054   */\n    tag_384:\n        /* \"#utility.yul\":6830:6833   */\n      0x00\n        /* \"#utility.yul\":6851:6918   */\n      tag_504\n        /* \"#utility.yul\":6915:6917   */\n      0x20\n        /* \"#utility.yul\":6910:6913   */\n      dup4\n        /* \"#utility.yul\":6851:6918   */\n      tag_363\n      jump\t// in\n    tag_504:\n        /* \"#utility.yul\":6844:6918   */\n      swap2\n      pop\n        /* \"#utility.yul\":6927:7020   */\n      tag_505\n        /* \"#utility.yul\":7016:7019   */\n      dup3\n        /* \"#utility.yul\":6927:7020   */\n      tag_383\n      jump\t// in\n    tag_505:\n        /* \"#utility.yul\":7045:7047   */\n      0x20\n        /* \"#utility.yul\":7040:7043   */\n      dup3\n        /* \"#utility.yul\":7036:7048   */\n      add\n        /* \"#utility.yul\":7029:7048   */\n      swap1\n      pop\n        /* \"#utility.yul\":6688:7054   */\n      swap2\n      swap1\n      pop\n      jump\t// out\n        /* \"#utility.yul\":7060:7479   */\n    tag_119:\n        /* \"#utility.yul\":7226:7230   */\n      0x00\n        /* \"#utility.yul\":7264:7266   */\n      0x20\n        /* \"#utility.yul\":7253:7262   */\n      dup3\n        /* \"#utility.yul\":7249:7267   */\n      add\n        /* \"#utility.yul\":7241:7267   */\n      swap1\n      pop\n        /* \"#utility.yul\":7313:7322   */\n      dup2\n        /* \"#utility.yul\":7307:7311   */\n      dup2\n        /* \"#utility.yul\":7303:7323   */\n      sub\n        /* \"#utility.yul\":7299:7300   */\n      0x00\n        /* \"#utility.yul\":7288:7297   */\n      dup4\n        /* \"#utility.yul\":7284:7301   */\n      add\n        /* \"#utility.yul\":7277:7324   */\n      mstore\n        /* \"#utility.yul\":7341:7472   */\n      tag_507\n        /* \"#utility.yul\":7467:7471   */\n      dup2\n        /* \"#utility.yul\":7341:7472   */\n      tag_384\n      jump\t// in\n    tag_507:\n        /* \"#utility.yul\":7333:7472   */\n      swap1\n      pop\n        /* \"#utility.yul\":7060:7479   */\n      swap2\n      swap1\n      pop\n      jump\t// out\n        /* \"#utility.yul\":7485:7655   */\n    tag_385:\n        /* \"#utility.yul\":7625:7647   */\n      0x74726164696e6720616c7265616479206f70656e000000000000000000000000\n        /* \"#utility.yul\":7621:7622   */\n      0x00\n        /* \"#utility.yul\":7613:7619   */\n      dup3\n        /* \"#utility.yul\":7609:7623   */\n      add\n        /* \"#utility.yul\":7602:7648   */\n      mstore\n        /* \"#utility.yul\":7485:7655   */\n      pop\n      jump\t// out\n        /* \"#utility.yul\":7661:8027   */\n    tag_386:\n        /* \"#utility.yul\":7803:7806   */\n      0x00\n        /* \"#utility.yul\":7824:7891   */\n      tag_510\n        /* \"#utility.yul\":7888:7890   */\n      0x14\n        /* \"#utility.yul\":7883:7886   */\n      dup4\n        /* \"#utility.yul\":7824:7891   */\n      tag_363\n      jump\t// in\n    tag_510:\n        /* \"#utility.yul\":7817:7891   */\n      swap2\n      pop\n        /* \"#utility.yul\":7900:7993   */\n      tag_511\n        /* \"#utility.yul\":7989:7992   */\n      dup3\n        /* \"#utility.yul\":7900:7993   */\n      tag_385\n      jump\t// in\n    tag_511:\n        /* \"#utility.yul\":8018:8020   */\n      0x20\n        /* \"#utility.yul\":8013:8016   */\n      dup3\n        /* \"#utility.yul\":8009:8021   */\n      add\n        /* \"#utility.yul\":8002:8021   */\n      swap1\n      pop\n        /* \"#utility.yul\":7661:8027   */\n      swap2\n      swap1\n      pop\n      jump\t// out\n        /* \"#utility.yul\":8033:8452   */\n    tag_123:\n        /* \"#utility.yul\":8199:8203   */\n      0x00\n        /* \"#utility.yul\":8237:8239   */\n      0x20\n        /* \"#utility.yul\":8226:8235   */\n      dup3\n        /* \"#utility.yul\":8222:8240   */\n      add\n        /* \"#utility.yul\":8214:8240   */\n      swap1\n      pop\n        /* \"#utility.yul\":8286:8295   */\n      dup2\n        /* \"#utility.yul\":8280:8284   */\n      dup2\n        /* \"#utility.yul\":8276:8296   */\n      sub\n        /* \"#utility.yul\":8272:8273   */\n      0x00\n        /* \"#utility.yul\":8261:8270   */\n      dup4\n        /* \"#utility.yul\":8257:8274   */\n      add\n        /* \"#utility.yul\":8250:8297   */\n      mstore\n        /* \"#utility.yul\":8314:8445   */\n      tag_513\n        /* \"#utility.yul\":8440:8444   */\n      dup2\n        /* \"#utility.yul\":8314:8445   */\n      tag_386\n      jump\t// in\n    tag_513:\n        /* \"#utility.yul\":8306:8445   */\n      swap1\n      pop\n        /* \"#utility.yul\":8033:8452   */\n      swap2\n      swap1\n      pop\n      jump\t// out\n        /* \"#utility.yul\":8458:8766   */\n    tag_125:\n        /* \"#utility.yul\":8567:8571   */\n      0x00\n        /* \"#utility.yul\":8605:8607   */\n      0x40\n        /* \"#utility.yul\":8594:8603   */\n      dup3\n        /* \"#utility.yul\":8590:8608   */\n      add\n        /* \"#utility.yul\":8582:8608   */\n      swap1\n      pop\n        /* \"#utility.yul\":8618:8683   */\n      tag_515\n        /* \"#utility.yul\":8680:8681   */\n      0x00\n        /* \"#utility.yul\":8669:8678   */\n      dup4\n        /* \"#utility.yul\":8665:8682   */\n      add\n        /* \"#utility.yul\":8656:8662   */\n      dup6\n        /* \"#utility.yul\":8618:8683   */\n      tag_378\n      jump\t// in\n    tag_515:\n        /* \"#utility.yul\":8693:8759   */\n      tag_516\n        /* \"#utility.yul\":8755:8757   */\n      0x20\n        /* \"#utility.yul\":8744:8753   */\n      dup4\n        /* \"#utility.yul\":8740:8758   */\n      add\n        /* \"#utility.yul\":8731:8737   */\n      dup5\n        /* \"#utility.yul\":8693:8759   */\n      tag_378\n      jump\t// in\n    tag_516:\n        /* \"#utility.yul\":8458:8766   */\n      swap4\n      swap3\n      pop\n      pop\n      pop\n      jump\t// out\n        /* \"#utility.yul\":8772:8952   */\n    tag_387:\n        /* \"#utility.yul\":8820:8897   */\n      0x4e487b7100000000000000000000000000000000000000000000000000000000\n        /* \"#utility.yul\":8817:8818   */\n      0x00\n        /* \"#utility.yul\":8810:8898   */\n      mstore\n        /* \"#utility.yul\":8917:8921   */\n      0x11\n        /* \"#utility.yul\":8914:8915   */\n      0x04\n        /* \"#utility.yul\":8907:8922   */\n      mstore\n        /* \"#utility.yul\":8941:8945   */\n      0x24\n        /* \"#utility.yul\":8938:8939   */\n      0x00\n        /* \"#utility.yul\":8931:8946   */\n      revert\n        /* \"#utility.yul\":8958:9060   */\n    tag_388:\n        /* \"#utility.yul\":9000:9008   */\n      0x00\n        /* \"#utility.yul\":9047:9052   */\n      dup2\n        /* \"#utility.yul\":9044:9045   */\n      0x01\n        /* \"#utility.yul\":9040:9053   */\n      shr\n        /* \"#utility.yul\":9019:9053   */\n      swap1\n      pop\n        /* \"#utility.yul\":8958:9060   */\n      swap2\n      swap1\n      pop\n      jump\t// out\n        /* \"#utility.yul\":9066:9914   */\n    tag_389:\n        /* \"#utility.yul\":9127:9132   */\n      0x00\n        /* \"#utility.yul\":9134:9138   */\n      dup1\n        /* \"#utility.yul\":9158:9164   */\n      dup3\n        /* \"#utility.yul\":9149:9164   */\n      swap2\n      pop\n        /* \"#utility.yul\":9182:9187   */\n      dup4\n        /* \"#utility.yul\":9173:9187   */\n      swap1\n      pop\n        /* \"#utility.yul\":9196:9908   */\n    tag_520:\n        /* \"#utility.yul\":9217:9218   */\n      0x01\n        /* \"#utility.yul\":9207:9215   */\n      dup6\n        /* \"#utility.yul\":9204:9219   */\n      gt\n        /* \"#utility.yul\":9196:9908   */\n      iszero\n      tag_522\n      jumpi\n        /* \"#utility.yul\":9312:9316   */\n      dup1\n        /* \"#utility.yul\":9307:9310   */\n      dup7\n        /* \"#utility.yul\":9303:9317   */\n      div\n        /* \"#utility.yul\":9297:9301   */\n      dup2\n        /* \"#utility.yul\":9294:9318   */\n      gt\n        /* \"#utility.yul\":9291:9341   */\n      iszero\n      tag_523\n      jumpi\n        /* \"#utility.yul\":9321:9339   */\n      tag_524\n      tag_387\n      jump\t// in\n    tag_524:\n        /* \"#utility.yul\":9291:9341   */\n    tag_523:\n        /* \"#utility.yul\":9371:9372   */\n      0x01\n        /* \"#utility.yul\":9361:9369   */\n      dup6\n        /* \"#utility.yul\":9357:9373   */\n      and\n        /* \"#utility.yul\":9354:9805   */\n      iszero\n      tag_525\n      jumpi\n        /* \"#utility.yul\":9786:9790   */\n      dup1\n        /* \"#utility.yul\":9779:9784   */\n      dup3\n        /* \"#utility.yul\":9775:9791   */\n      mul\n        /* \"#utility.yul\":9766:9791   */\n      swap2\n      pop\n        /* \"#utility.yul\":9354:9805   */\n    tag_525:\n        /* \"#utility.yul\":9836:9840   */\n      dup1\n        /* \"#utility.yul\":9830:9834   */\n      dup2\n        /* \"#utility.yul\":9826:9841   */\n      mul\n        /* \"#utility.yul\":9818:9841   */\n      swap1\n      pop\n        /* \"#utility.yul\":9866:9898   */\n      tag_526\n        /* \"#utility.yul\":9889:9897   */\n      dup6\n        /* \"#utility.yul\":9866:9898   */\n      tag_388\n      jump\t// in\n    tag_526:\n        /* \"#utility.yul\":9854:9898   */\n      swap5\n      pop\n        /* \"#utility.yul\":9196:9908   */\n      jump(tag_520)\n    tag_522:\n        /* \"#utility.yul\":9066:9914   */\n      swap5\n      pop\n      swap5\n      swap3\n      pop\n      pop\n      pop\n      jump\t// out\n        /* \"#utility.yul\":9920:10993   */\n    tag_390:\n        /* \"#utility.yul\":9974:9979   */\n      0x00\n        /* \"#utility.yul\":10165:10173   */\n      dup3\n        /* \"#utility.yul\":10155:10195   */\n      tag_528\n      jumpi\n        /* \"#utility.yul\":10186:10187   */\n      0x01\n        /* \"#utility.yul\":10177:10187   */\n      swap1\n      pop\n        /* \"#utility.yul\":10188:10193   */\n      jump(tag_527)\n        /* \"#utility.yul\":10155:10195   */\n    tag_528:\n        /* \"#utility.yul\":10214:10218   */\n      dup2\n        /* \"#utility.yul\":10204:10240   */\n      tag_529\n      jumpi\n        /* \"#utility.yul\":10231:10232   */\n      0x00\n        /* \"#utility.yul\":10222:10232   */\n      swap1\n      pop\n        /* \"#utility.yul\":10233:10238   */\n      jump(tag_527)\n        /* \"#utility.yul\":10204:10240   */\n    tag_529:\n        /* \"#utility.yul\":10300:10304   */\n      dup2\n        /* \"#utility.yul\":10348:10349   */\n      0x01\n        /* \"#utility.yul\":10343:10370   */\n      dup2\n      eq\n      tag_531\n      jumpi\n        /* \"#utility.yul\":10384:10385   */\n      0x02\n        /* \"#utility.yul\":10379:10570   */\n      dup2\n      eq\n      tag_532\n      jumpi\n        /* \"#utility.yul\":10293:10570   */\n      jump(tag_530)\n        /* \"#utility.yul\":10343:10370   */\n    tag_531:\n        /* \"#utility.yul\":10361:10362   */\n      0x01\n        /* \"#utility.yul\":10352:10362   */\n      swap2\n      pop\n        /* \"#utility.yul\":10363:10368   */\n      pop\n      jump(tag_527)\n        /* \"#utility.yul\":10379:10570   */\n    tag_532:\n        /* \"#utility.yul\":10424:10427   */\n      0xff\n        /* \"#utility.yul\":10414:10422   */\n      dup5\n        /* \"#utility.yul\":10411:10428   */\n      gt\n        /* \"#utility.yul\":10408:10451   */\n      iszero\n      tag_533\n      jumpi\n        /* \"#utility.yul\":10431:10449   */\n      tag_534\n      tag_387\n      jump\t// in\n    tag_534:\n        /* \"#utility.yul\":10408:10451   */\n    tag_533:\n        /* \"#utility.yul\":10480:10488   */\n      dup4\n        /* \"#utility.yul\":10477:10478   */\n      0x02\n        /* \"#utility.yul\":10473:10489   */\n      exp\n        /* \"#utility.yul\":10464:10489   */\n      swap2\n      pop\n        /* \"#utility.yul\":10515:10518   */\n      dup5\n        /* \"#utility.yul\":10508:10513   */\n      dup3\n        /* \"#utility.yul\":10505:10519   */\n      gt\n        /* \"#utility.yul\":10502:10542   */\n      iszero\n      tag_535\n      jumpi\n        /* \"#utility.yul\":10522:10540   */\n      tag_536\n      tag_387\n      jump\t// in\n    tag_536:\n        /* \"#utility.yul\":10502:10542   */\n    tag_535:\n        /* \"#utility.yul\":10555:10560   */\n      pop\n      jump(tag_527)\n        /* \"#utility.yul\":10293:10570   */\n    tag_530:\n      pop\n        /* \"#utility.yul\":10679:10681   */\n      0x20\n        /* \"#utility.yul\":10669:10677   */\n      dup4\n        /* \"#utility.yul\":10666:10682   */\n      lt\n        /* \"#utility.yul\":10660:10663   */\n      0x0133\n        /* \"#utility.yul\":10654:10658   */\n      dup4\n        /* \"#utility.yul\":10651:10664   */\n      lt\n        /* \"#utility.yul\":10647:10683   */\n      and\n        /* \"#utility.yul\":10629:10631   */\n      0x4e\n        /* \"#utility.yul\":10619:10627   */\n      dup5\n        /* \"#utility.yul\":10616:10632   */\n      lt\n        /* \"#utility.yul\":10611:10613   */\n      0x0b\n        /* \"#utility.yul\":10605:10609   */\n      dup5\n        /* \"#utility.yul\":10602:10614   */\n      lt\n        /* \"#utility.yul\":10598:10633   */\n      and\n        /* \"#utility.yul\":10582:10693   */\n      or\n        /* \"#utility.yul\":10579:10825   */\n      iszero\n      tag_537\n      jumpi\n        /* \"#utility.yul\":10735:10743   */\n      dup3\n        /* \"#utility.yul\":10729:10733   */\n      dup3\n        /* \"#utility.yul\":10725:10744   */\n      exp\n        /* \"#utility.yul\":10716:10744   */\n      swap1\n      pop\n        /* \"#utility.yul\":10770:10773   */\n      dup4\n        /* \"#utility.yul\":10763:10768   */\n      dup2\n        /* \"#utility.yul\":10760:10774   */\n      gt\n        /* \"#utility.yul\":10757:10797   */\n      iszero\n      tag_538\n      jumpi\n        /* \"#utility.yul\":10777:10795   */\n      tag_539\n      tag_387\n      jump\t// in\n    tag_539:\n        /* \"#utility.yul\":10757:10797   */\n    tag_538:\n        /* \"#utility.yul\":10810:10815   */\n      jump(tag_527)\n        /* \"#utility.yul\":10579:10825   */\n    tag_537:\n        /* \"#utility.yul\":10850:10892   */\n      tag_540\n        /* \"#utility.yul\":10888:10891   */\n      dup5\n        /* \"#utility.yul\":10878:10886   */\n      dup5\n        /* \"#utility.yul\":10872:10876   */\n      dup5\n        /* \"#utility.yul\":10869:10870   */\n      0x01\n        /* \"#utility.yul\":10850:10892   */\n      tag_389\n      jump\t// in\n    tag_540:\n        /* \"#utility.yul\":10835:10892   */\n      swap3\n      pop\n      swap1\n      pop\n        /* \"#utility.yul\":10924:10928   */\n      dup2\n        /* \"#utility.yul\":10919:10922   */\n      dup5\n        /* \"#utility.yul\":10915:10929   */\n      div\n        /* \"#utility.yul\":10908:10913   */\n      dup2\n        /* \"#utility.yul\":10905:10930   */\n      gt\n        /* \"#utility.yul\":10902:10953   */\n      iszero\n      tag_541\n      jumpi\n        /* \"#utility.yul\":10933:10951   */\n      tag_542\n      tag_387\n      jump\t// in\n    tag_542:\n        /* \"#utility.yul\":10902:10953   */\n    tag_541:\n        /* \"#utility.yul\":10982:10986   */\n      dup2\n        /* \"#utility.yul\":10975:10980   */\n      dup2\n        /* \"#utility.yul\":10971:10987   */\n      mul\n        /* \"#utility.yul\":10962:10987   */\n      swap1\n      pop\n        /* \"#utility.yul\":9920:10993   */\n    tag_527:\n      swap4\n      swap3\n      pop\n      pop\n      pop\n      jump\t// out\n        /* \"#utility.yul\":10999:11280   */\n    tag_132:\n        /* \"#utility.yul\":11057:11062   */\n      0x00\n        /* \"#utility.yul\":11081:11104   */\n      tag_544\n        /* \"#utility.yul\":11099:11103   */\n      dup3\n        /* \"#utility.yul\":11081:11104   */\n      tag_374\n      jump\t// in\n    tag_544:\n        /* \"#utility.yul\":11073:11104   */\n      swap2\n      pop\n        /* \"#utility.yul\":11125:11150   */\n      tag_545\n        /* \"#utility.yul\":11141:11149   */\n      dup4\n        /* \"#utility.yul\":11125:11150   */\n      tag_380\n      jump\t// in\n    tag_545:\n        /* \"#utility.yul\":11113:11150   */\n      swap3\n      pop\n        /* \"#utility.yul\":11169:11273   */\n      tag_546\n        /* \"#utility.yul\":11206:11272   */\n      0xffffffffffffffffffffffffffffffffffffffffffffffffffffffffffffffff\n        /* \"#utility.yul\":11196:11204   */\n      dup5\n        /* \"#utility.yul\":11190:11194   */\n      dup5\n        /* \"#utility.yul\":11169:11273   */\n      tag_390\n      jump\t// in\n    tag_546:\n        /* \"#utility.yul\":11160:11273   */\n      swap1\n      pop\n        /* \"#utility.yul\":10999:11280   */\n      swap3\n      swap2\n      pop\n      pop\n      jump\t// out\n        /* \"#utility.yul\":11286:11696   */\n    tag_134:\n        /* \"#utility.yul\":11326:11333   */\n      0x00\n        /* \"#utility.yul\":11349:11369   */\n      tag_548\n        /* \"#utility.yul\":11367:11368   */\n      dup3\n        /* \"#utility.yul\":11349:11369   */\n      tag_374\n      jump\t// in\n    tag_548:\n        /* \"#utility.yul\":11344:11369   */\n      swap2\n      pop\n        /* \"#utility.yul\":11383:11403   */\n      tag_549\n        /* \"#utility.yul\":11401:11402   */\n      dup4\n        /* \"#utility.yul\":11383:11403   */\n      tag_374\n      jump\t// in\n    tag_549:\n        /* \"#utility.yul\":11378:11403   */\n      swap3\n      pop\n        /* \"#utility.yul\":11438:11439   */\n      dup3\n        /* \"#utility.yul\":11435:11436   */\n      dup3\n        /* \"#utility.yul\":11431:11440   */\n      mul\n        /* \"#utility.yul\":11460:11490   */\n      tag_550\n        /* \"#utility.yul\":11478:11489   */\n      dup2\n        /* \"#utility.yul\":11460:11490   */\n      tag_374\n      jump\t// in\n    tag_550:\n        /* \"#utility.yul\":11449:11490   */\n      swap2\n      pop\n        /* \"#utility.yul\":11639:11640   */\n      dup3\n        /* \"#utility.yul\":11630:11637   */\n      dup3\n        /* \"#utility.yul\":11626:11641   */\n      div\n        /* \"#utility.yul\":11623:11624   */\n      dup5\n        /* \"#utility.yul\":11620:11642   */\n      eq\n        /* \"#utility.yul\":11600:11601   */\n      dup4\n        /* \"#utility.yul\":11593:11602   */\n      iszero\n        /* \"#utility.yul\":11573:11656   */\n      or\n        /* \"#utility.yul\":11550:11689   */\n      tag_551\n      jumpi\n        /* \"#utility.yul\":11669:11687   */\n      tag_552\n      tag_387\n      jump\t// in\n    tag_552:\n        /* \"#utility.yul\":11550:11689   */\n    tag_551:\n        /* \"#utility.yul\":11334:11696   */\n      pop\n        /* \"#utility.yul\":11286:11696   */\n      swap3\n      swap2\n      pop\n      pop\n      jump\t// out\n        /* \"#utility.yul\":11702:11871   */\n    tag_391:\n        /* \"#utility.yul\":11842:11863   */\n      0x696e697420616c72656164792063616c6c656400000000000000000000000000\n        /* \"#utility.yul\":11838:11839   */\n      0x00\n        /* \"#utility.yul\":11830:11836   */\n      dup3\n        /* \"#utility.yul\":11826:11840   */\n      add\n        /* \"#utility.yul\":11819:11864   */\n      mstore\n        /* \"#utility.yul\":11702:11871   */\n      pop\n      jump\t// out\n        /* \"#utility.yul\":11877:12243   */\n    tag_392:\n        /* \"#utility.yul\":12019:12022   */\n      0x00\n        /* \"#utility.yul\":12040:12107   */\n      tag_555\n        /* \"#utility.yul\":12104:12106   */\n      0x13\n        /* \"#utility.yul\":12099:12102   */\n      dup4\n        /* \"#utility.yul\":12040:12107   */\n      tag_363\n      jump\t// in\n    tag_555:\n        /* \"#utility.yul\":12033:12107   */\n      swap2\n      pop\n        /* \"#utility.yul\":12116:12209   */\n      tag_556\n        /* \"#utility.yul\":12205:12208   */\n      dup3\n        /* \"#utility.yul\":12116:12209   */\n      tag_391\n      jump\t// in\n    tag_556:\n        /* \"#utility.yul\":12234:12236   */\n      0x20\n        /* \"#utility.yul\":12229:12232   */\n      dup3\n        /* \"#utility.yul\":12225:12237   */\n      add\n        /* \"#utility.yul\":12218:12237   */\n      swap1\n      pop\n        /* \"#utility.yul\":11877:12243   */\n      swap2\n      swap1\n      pop\n      jump\t// out\n        /* \"#utility.yul\":12249:12668   */\n    tag_160:\n        /* \"#utility.yul\":12415:12419   */\n      0x00\n        /* \"#utility.yul\":12453:12455   */\n      0x20\n        /* \"#utility.yul\":12442:12451   */\n      dup3\n        /* \"#utility.yul\":12438:12456   */\n      add\n        /* \"#utility.yul\":12430:12456   */\n      swap1\n      pop\n        /* \"#utility.yul\":12502:12511   */\n      dup2\n        /* \"#utility.yul\":12496:12500   */\n      dup2\n        /* \"#utility.yul\":12492:12512   */\n      sub\n        /* \"#utility.yul\":12488:12489   */\n      0x00\n        /* \"#utility.yul\":12477:12486   */\n      dup4\n        /* \"#utility.yul\":12473:12490   */\n      add\n        /* \"#utility.yul\":12466:12513   */\n      mstore\n        /* \"#utility.yul\":12530:12661   */\n      tag_558\n        /* \"#utility.yul\":12656:12660   */\n      dup2\n        /* \"#utility.yul\":12530:12661   */\n      tag_392\n      jump\t// in\n    tag_558:\n        /* \"#utility.yul\":12522:12661   */\n      swap1\n      pop\n        /* \"#utility.yul\":12249:12668   */\n      swap2\n      swap1\n      pop\n      jump\t// out\n        /* \"#utility.yul\":12674:12817   */\n    tag_393:\n        /* \"#utility.yul\":12731:12736   */\n      0x00\n        /* \"#utility.yul\":12762:12768   */\n      dup2\n        /* \"#utility.yul\":12756:12769   */\n      mload\n        /* \"#utility.yul\":12747:12769   */\n      swap1\n      pop\n        /* \"#utility.yul\":12778:12811   */\n      tag_560\n        /* \"#utility.yul\":12805:12810   */\n      dup2\n        /* \"#utility.yul\":12778:12811   */\n      tag_372\n      jump\t// in\n    tag_560:\n        /* \"#utility.yul\":12674:12817   */\n      swap3\n      swap2\n      pop\n      pop\n      jump\t// out\n        /* \"#utility.yul\":12823:13174   */\n    tag_176:\n        /* \"#utility.yul\":12893:12899   */\n      0x00\n        /* \"#utility.yul\":12942:12944   */\n      0x20\n        /* \"#utility.yul\":12930:12939   */\n      dup3\n        /* \"#utility.yul\":12921:12928   */\n      dup5\n        /* \"#utility.yul\":12917:12940   */\n      sub\n        /* \"#utility.yul\":12913:12945   */\n      slt\n        /* \"#utility.yul\":12910:13029   */\n      iszero\n      tag_562\n      jumpi\n        /* \"#utility.yul\":12948:13027   */\n      tag_563\n      tag_368\n      jump\t// in\n    tag_563:\n        /* \"#utility.yul\":12910:13029   */\n    tag_562:\n        /* \"#utility.yul\":13068:13069   */\n      0x00\n        /* \"#utility.yul\":13093:13157   */\n      tag_564\n        /* \"#utility.yul\":13149:13156   */\n      dup5\n        /* \"#utility.yul\":13140:13146   */\n      dup3\n        /* \"#utility.yul\":13129:13138   */\n      dup6\n        /* \"#utility.yul\":13125:13147   */\n      add\n        /* \"#utility.yul\":13093:13157   */\n      tag_393\n      jump\t// in\n    tag_564:\n        /* \"#utility.yul\":13083:13157   */\n      swap2\n      pop\n        /* \"#utility.yul\":13039:13167   */\n      pop\n        /* \"#utility.yul\":12823:13174   */\n      swap3\n      swap2\n      pop\n      pop\n      jump\t// out\n        /* \"#utility.yul\":13180:13512   */\n    tag_181:\n        /* \"#utility.yul\":13301:13305   */\n      0x00\n        /* \"#utility.yul\":13339:13341   */\n      0x40\n        /* \"#utility.yul\":13328:13337   */\n      dup3\n        /* \"#utility.yul\":13324:13342   */\n      add\n        /* \"#utility.yul\":13316:13342   */\n      swap1\n      pop\n        /* \"#utility.yul\":13352:13423   */\n      tag_566\n        /* \"#utility.yul\":13420:13421   */\n      0x00\n        /* \"#utility.yul\":13409:13418   */\n      dup4\n        /* \"#utility.yul\":13405:13422   */\n      add\n        /* \"#utility.yul\":13396:13402   */\n      dup6\n        /* \"#utility.yul\":13352:13423   */\n      tag_382\n      jump\t// in\n    tag_566:\n        /* \"#utility.yul\":13433:13505   */\n      tag_567\n        /* \"#utility.yul\":13501:13503   */\n      0x20\n        /* \"#utility.yul\":13490:13499   */\n      dup4\n        /* \"#utility.yul\":13486:13504   */\n      add\n        /* \"#utility.yul\":13477:13483   */\n      dup5\n        /* \"#utility.yul\":13433:13505   */\n      tag_382\n      jump\t// in\n    tag_567:\n        /* \"#utility.yul\":13180:13512   */\n      swap4\n      swap3\n      pop\n      pop\n      pop\n      jump\t// out\n        /* \"#utility.yul\":13518:13603   */\n    tag_394:\n        /* \"#utility.yul\":13563:13570   */\n      0x00\n        /* \"#utility.yul\":13592:13597   */\n      dup2\n        /* \"#utility.yul\":13581:13597   */\n      swap1\n      pop\n        /* \"#utility.yul\":13518:13603   */\n      swap2\n      swap1\n      pop\n      jump\t// out\n        /* \"#utility.yul\":13609:13669   */\n    tag_395:\n        /* \"#utility.yul\":13637:13640   */\n      0x00\n        /* \"#utility.yul\":13658:13663   */\n      dup2\n        /* \"#utility.yul\":13651:13663   */\n      swap1\n      pop\n        /* \"#utility.yul\":13609:13669   */\n      swap2\n      swap1\n      pop\n      jump\t// out\n        /* \"#utility.yul\":13675:13833   */\n    tag_396:\n        /* \"#utility.yul\":13733:13742   */\n      0x00\n        /* \"#utility.yul\":13766:13827   */\n      tag_571\n        /* \"#utility.yul\":13784:13826   */\n      tag_572\n        /* \"#utility.yul\":13793:13825   */\n      tag_573\n        /* \"#utility.yul\":13819:13824   */\n      dup5\n        /* \"#utility.yul\":13793:13825   */\n      tag_394\n      jump\t// in\n    tag_573:\n        /* \"#utility.yul\":13784:13826   */\n      tag_395\n      jump\t// in\n    tag_572:\n        /* \"#utility.yul\":13766:13827   */\n      tag_374\n      jump\t// in\n    tag_571:\n        /* \"#utility.yul\":13753:13827   */\n      swap1\n      pop\n        /* \"#utility.yul\":13675:13833   */\n      swap2\n      swap1\n      pop\n      jump\t// out\n        /* \"#utility.yul\":13839:13986   */\n    tag_397:\n        /* \"#utility.yul\":13934:13979   */\n      tag_575\n        /* \"#utility.yul\":13973:13978   */\n      dup2\n        /* \"#utility.yul\":13934:13979   */\n      tag_396\n      jump\t// in\n    tag_575:\n        /* \"#utility.yul\":13929:13932   */\n      dup3\n        /* \"#utility.yul\":13922:13980   */\n      mstore\n        /* \"#utility.yul\":13839:13986   */\n      pop\n      pop\n      jump\t// out\n        /* \"#utility.yul\":13992:14799   */\n    tag_187:\n        /* \"#utility.yul\":14241:14245   */\n      0x00\n        /* \"#utility.yul\":14279:14282   */\n      0xc0\n        /* \"#utility.yul\":14268:14277   */\n      dup3\n        /* \"#utility.yul\":14264:14283   */\n      add\n        /* \"#utility.yul\":14256:14283   */\n      swap1\n      pop\n        /* \"#utility.yul\":14293:14364   */\n      tag_577\n        /* \"#utility.yul\":14361:14362   */\n      0x00\n        /* \"#utility.yul\":14350:14359   */\n      dup4\n        /* \"#utility.yul\":14346:14363   */\n      add\n        /* \"#utility.yul\":14337:14343   */\n      dup10\n        /* \"#utility.yul\":14293:14364   */\n      tag_382\n      jump\t// in\n    tag_577:\n        /* \"#utility.yul\":14374:14446   */\n      tag_578\n        /* \"#utility.yul\":14442:14444   */\n      0x20\n        /* \"#utility.yul\":14431:14440   */\n      dup4\n        /* \"#utility.yul\":14427:14445   */\n      add\n        /* \"#utility.yul\":14418:14424   */\n      dup9\n        /* \"#utility.yul\":14374:14446   */\n      tag_379\n      jump\t// in\n    tag_578:\n        /* \"#utility.yul\":14456:14536   */\n      tag_579\n        /* \"#utility.yul\":14532:14534   */\n      0x40\n        /* \"#utility.yul\":14521:14530   */\n      dup4\n        /* \"#utility.yul\":14517:14535   */\n      add\n        /* \"#utility.yul\":14508:14514   */\n      dup8\n        /* \"#utility.yul\":14456:14536   */\n      tag_397\n      jump\t// in\n    tag_579:\n        /* \"#utility.yul\":14546:14626   */\n      tag_580\n        /* \"#utility.yul\":14622:14624   */\n      0x60\n        /* \"#utility.yul\":14611:14620   */\n      dup4\n        /* \"#utility.yul\":14607:14625   */\n      add\n        /* \"#utility.yul\":14598:14604   */\n      dup7\n        /* \"#utility.yul\":14546:14626   */\n      tag_397\n      jump\t// in\n    tag_580:\n        /* \"#utility.yul\":14636:14709   */\n      tag_581\n        /* \"#utility.yul\":14704:14707   */\n      0x80\n        /* \"#utility.yul\":14693:14702   */\n      dup4\n        /* \"#utility.yul\":14689:14708   */\n      add\n        /* \"#utility.yul\":14680:14686   */\n      dup6\n        /* \"#utility.yul\":14636:14709   */\n      tag_382\n      jump\t// in\n    tag_581:\n        /* \"#utility.yul\":14719:14792   */\n      tag_582\n        /* \"#utility.yul\":14787:14790   */\n      0xa0\n        /* \"#utility.yul\":14776:14785   */\n      dup4\n        /* \"#utility.yul\":14772:14791   */\n      add\n        /* \"#utility.yul\":14763:14769   */\n      dup5\n        /* \"#utility.yul\":14719:14792   */\n      tag_379\n      jump\t// in\n    tag_582:\n        /* \"#utility.yul\":13992:14799   */\n      swap8\n      swap7\n      pop\n      pop\n      pop\n      pop\n      pop\n      pop\n      pop\n      jump\t// out\n        /* \"#utility.yul\":14805:14948   */\n    tag_398:\n        /* \"#utility.yul\":14862:14867   */\n      0x00\n        /* \"#utility.yul\":14893:14899   */\n      dup2\n        /* \"#utility.yul\":14887:14900   */\n      mload\n        /* \"#utility.yul\":14878:14900   */\n      swap1\n      pop\n        /* \"#utility.yul\":14909:14942   */\n      tag_584\n        /* \"#utility.yul\":14936:14941   */\n      dup2\n        /* \"#utility.yul\":14909:14942   */\n      tag_375\n      jump\t// in\n    tag_584:\n        /* \"#utility.yul\":14805:14948   */\n      swap3\n      swap2\n      pop\n      pop\n      jump\t// out\n        /* \"#utility.yul\":14954:15617   */\n    tag_191:\n        /* \"#utility.yul\":15042:15048   */\n      0x00\n        /* \"#utility.yul\":15050:15056   */\n      dup1\n        /* \"#utility.yul\":15058:15064   */\n      0x00\n        /* \"#utility.yul\":15107:15109   */\n      0x60\n        /* \"#utility.yul\":15095:15104   */\n      dup5\n        /* \"#utility.yul\":15086:15093   */\n      dup7\n        /* \"#utility.yul\":15082:15105   */\n      sub\n        /* \"#utility.yul\":15078:15110   */\n      slt\n        /* \"#utility.yul\":15075:15194   */\n      iszero\n      tag_586\n      jumpi\n        /* \"#utility.yul\":15113:15192   */\n      tag_587\n      tag_368\n      jump\t// in\n    tag_587:\n        /* \"#utility.yul\":15075:15194   */\n    tag_586:\n        /* \"#utility.yul\":15233:15234   */\n      0x00\n        /* \"#utility.yul\":15258:15322   */\n      tag_588\n        /* \"#utility.yul\":15314:15321   */\n      dup7\n        /* \"#utility.yul\":15305:15311   */\n      dup3\n        /* \"#utility.yul\":15294:15303   */\n      dup8\n        /* \"#utility.yul\":15290:15312   */\n      add\n        /* \"#utility.yul\":15258:15322   */\n      tag_398\n      jump\t// in\n    tag_588:\n        /* \"#utility.yul\":15248:15322   */\n      swap4\n      pop\n        /* \"#utility.yul\":15204:15332   */\n      pop\n        /* \"#utility.yul\":15371:15373   */\n      0x20\n        /* \"#utility.yul\":15397:15461   */\n      tag_589\n        /* \"#utility.yul\":15453:15460   */\n      dup7\n        /* \"#utility.yul\":15444:15450   */\n      dup3\n        /* \"#utility.yul\":15433:15442   */\n      dup8\n        /* \"#utility.yul\":15429:15451   */\n      add\n        /* \"#utility.yul\":15397:15461   */\n      tag_398\n      jump\t// in\n    tag_589:\n        /* \"#utility.yul\":15387:15461   */\n      swap3\n      pop\n        /* \"#utility.yul\":15342:15471   */\n      pop\n        /* \"#utility.yul\":15510:15512   */\n      0x40\n        /* \"#utility.yul\":15536:15600   */\n      tag_590\n        /* \"#utility.yul\":15592:15599   */\n      dup7\n        /* \"#utility.yul\":15583:15589   */\n      dup3\n        /* \"#utility.yul\":15572:15581   */\n      dup8\n        /* \"#utility.yul\":15568:15590   */\n      add\n        /* \"#utility.yul\":15536:15600   */\n      tag_398\n      jump\t// in\n    tag_590:\n        /* \"#utility.yul\":15526:15600   */\n      swap2\n      pop\n        /* \"#utility.yul\":15481:15610   */\n      pop\n        /* \"#utility.yul\":14954:15617   */\n      swap3\n      pop\n      swap3\n      pop\n      swap3\n      jump\t// out\n        /* \"#utility.yul\":15623:15955   */\n    tag_193:\n        /* \"#utility.yul\":15744:15748   */\n      0x00\n        /* \"#utility.yul\":15782:15784   */\n      0x40\n        /* \"#utility.yul\":15771:15780   */\n      dup3\n        /* \"#utility.yul\":15767:15785   */\n      add\n        /* \"#utility.yul\":15759:15785   */\n      swap1\n      pop\n        /* \"#utility.yul\":15795:15866   */\n      tag_592\n        /* \"#utility.yul\":15863:15864   */\n      0x00\n        /* \"#utility.yul\":15852:15861   */\n      dup4\n        /* \"#utility.yul\":15848:15865   */\n      add\n        /* \"#utility.yul\":15839:15845   */\n      dup6\n        /* \"#utility.yul\":15795:15866   */\n      tag_382\n      jump\t// in\n    tag_592:\n        /* \"#utility.yul\":15876:15948   */\n      tag_593\n        /* \"#utility.yul\":15944:15946   */\n      0x20\n        /* \"#utility.yul\":15933:15942   */\n      dup4\n        /* \"#utility.yul\":15929:15947   */\n      add\n        /* \"#utility.yul\":15920:15926   */\n      dup5\n        /* \"#utility.yul\":15876:15948   */\n      tag_379\n      jump\t// in\n    tag_593:\n        /* \"#utility.yul\":15623:15955   */\n      swap4\n      swap3\n      pop\n      pop\n      pop\n      jump\t// out\n        /* \"#utility.yul\":15961:16077   */\n    tag_399:\n        /* \"#utility.yul\":16031:16052   */\n      tag_595\n        /* \"#utility.yul\":16046:16051   */\n      dup2\n        /* \"#utility.yul\":16031:16052   */\n      tag_377\n      jump\t// in\n    tag_595:\n        /* \"#utility.yul\":16024:16029   */\n      dup2\n        /* \"#utility.yul\":16021:16053   */\n      eq\n        /* \"#utility.yul\":16011:16071   */\n      tag_596\n      jumpi\n        /* \"#utility.yul\":16067:16068   */\n      0x00\n        /* \"#utility.yul\":16064:16065   */\n      dup1\n        /* \"#utility.yul\":16057:16069   */\n      revert\n        /* \"#utility.yul\":16011:16071   */\n    tag_596:\n        /* \"#utility.yul\":15961:16077   */\n      pop\n      jump\t// out\n        /* \"#utility.yul\":16083:16220   */\n    tag_400:\n        /* \"#utility.yul\":16137:16142   */\n      0x00\n        /* \"#utility.yul\":16168:16174   */\n      dup2\n        /* \"#utility.yul\":16162:16175   */\n      mload\n        /* \"#utility.yul\":16153:16175   */\n      swap1\n      pop\n        /* \"#utility.yul\":16184:16214   */\n      tag_598\n        /* \"#utility.yul\":16208:16213   */\n      dup2\n        /* \"#utility.yul\":16184:16214   */\n      tag_399\n      jump\t// in\n    tag_598:\n        /* \"#utility.yul\":16083:16220   */\n      swap3\n      swap2\n      pop\n      pop\n      jump\t// out\n        /* \"#utility.yul\":16226:16571   */\n    tag_197:\n        /* \"#utility.yul\":16293:16299   */\n      0x00\n        /* \"#utility.yul\":16342:16344   */\n      0x20\n        /* \"#utility.yul\":16330:16339   */\n      dup3\n        /* \"#utility.yul\":16321:16328   */\n      dup5\n        /* \"#utility.yul\":16317:16340   */\n      sub\n        /* \"#utility.yul\":16313:16345   */\n      slt\n        /* \"#utility.yul\":16310:16429   */\n      iszero\n      tag_600\n      jumpi\n        /* \"#utility.yul\":16348:16427   */\n      tag_601\n      tag_368\n      jump\t// in\n    tag_601:\n        /* \"#utility.yul\":16310:16429   */\n    tag_600:\n        /* \"#utility.yul\":16468:16469   */\n      0x00\n        /* \"#utility.yul\":16493:16554   */\n      tag_602\n        /* \"#utility.yul\":16546:16553   */\n      dup5\n        /* \"#utility.yul\":16537:16543   */\n      dup3\n        /* \"#utility.yul\":16526:16535   */\n      dup6\n        /* \"#utility.yul\":16522:16544   */\n      add\n        /* \"#utility.yul\":16493:16554   */\n      tag_400\n      jump\t// in\n    tag_602:\n        /* \"#utility.yul\":16483:16554   */\n      swap2\n      pop\n        /* \"#utility.yul\":16439:16564   */\n      pop\n        /* \"#utility.yul\":16226:16571   */\n      swap3\n      swap2\n      pop\n      pop\n      jump\t// out\n        /* \"#utility.yul\":16577:16740   */\n    tag_401:\n        /* \"#utility.yul\":16717:16732   */\n      0x457863656564732076616c756500000000000000000000000000000000000000\n        /* \"#utility.yul\":16713:16714   */\n      0x00\n        /* \"#utility.yul\":16705:16711   */\n      dup3\n        /* \"#utility.yul\":16701:16715   */\n      add\n        /* \"#utility.yul\":16694:16733   */\n      mstore\n        /* \"#utility.yul\":16577:16740   */\n      pop\n      jump\t// out\n        /* \"#utility.yul\":16746:17112   */\n    tag_402:\n        /* \"#utility.yul\":16888:16891   */\n      0x00\n        /* \"#utility.yul\":16909:16976   */\n      tag_605\n        /* \"#utility.yul\":16973:16975   */\n      0x0d\n        /* \"#utility.yul\":16968:16971   */\n      dup4\n        /* \"#utility.yul\":16909:16976   */\n      tag_363\n      jump\t// in\n    tag_605:\n        /* \"#utility.yul\":16902:16976   */\n      swap2\n      pop\n        /* \"#utility.yul\":16985:17078   */\n      tag_606\n        /* \"#utility.yul\":17074:17077   */\n      dup3\n        /* \"#utility.yul\":16985:17078   */\n      tag_401\n      jump\t// in\n    tag_606:\n        /* \"#utility.yul\":17103:17105   */\n      0x20\n        /* \"#utility.yul\":17098:17101   */\n      dup3\n        /* \"#utility.yul\":17094:17106   */\n      add\n        /* \"#utility.yul\":17087:17106   */\n      swap1\n      pop\n        /* \"#utility.yul\":16746:17112   */\n      swap2\n      swap1\n      pop\n      jump\t// out\n        /* \"#utility.yul\":17118:17537   */\n    tag_214:\n        /* \"#utility.yul\":17284:17288   */\n      0x00\n        /* \"#utility.yul\":17322:17324   */\n      0x20\n        /* \"#utility.yul\":17311:17320   */\n      dup3\n        /* \"#utility.yul\":17307:17325   */\n      add\n        /* \"#utility.yul\":17299:17325   */\n      swap1\n      pop\n        /* \"#utility.yul\":17371:17380   */\n      dup2\n        /* \"#utility.yul\":17365:17369   */\n      dup2\n        /* \"#utility.yul\":17361:17381   */\n      sub\n        /* \"#utility.yul\":17357:17358   */\n      0x00\n        /* \"#utility.yul\":17346:17355   */\n      dup4\n        /* \"#utility.yul\":17342:17359   */\n      add\n        /* \"#utility.yul\":17335:17382   */\n      mstore\n        /* \"#utility.yul\":17399:17530   */\n      tag_608\n        /* \"#utility.yul\":17525:17529   */\n      dup2\n        /* \"#utility.yul\":17399:17530   */\n      tag_402\n      jump\t// in\n    tag_608:\n        /* \"#utility.yul\":17391:17530   */\n      swap1\n      pop\n        /* \"#utility.yul\":17118:17537   */\n      swap2\n      swap1\n      pop\n      jump\t// out\n        /* \"#utility.yul\":17543:17875   */\n    tag_216:\n        /* \"#utility.yul\":17664:17668   */\n      0x00\n        /* \"#utility.yul\":17702:17704   */\n      0x40\n        /* \"#utility.yul\":17691:17700   */\n      dup3\n        /* \"#utility.yul\":17687:17705   */\n      add\n        /* \"#utility.yul\":17679:17705   */\n      swap1\n      pop\n        /* \"#utility.yul\":17715:17786   */\n      tag_610\n        /* \"#utility.yul\":17783:17784   */\n      0x00\n        /* \"#utility.yul\":17772:17781   */\n      dup4\n        /* \"#utility.yul\":17768:17785   */\n      add\n        /* \"#utility.yul\":17759:17765   */\n      dup6\n        /* \"#utility.yul\":17715:17786   */\n      tag_379\n      jump\t// in\n    tag_610:\n        /* \"#utility.yul\":17796:17868   */\n      tag_611\n        /* \"#utility.yul\":17864:17866   */\n      0x20\n        /* \"#utility.yul\":17853:17862   */\n      dup4\n        /* \"#utility.yul\":17849:17867   */\n      add\n        /* \"#utility.yul\":17840:17846   */\n      dup5\n        /* \"#utility.yul\":17796:17868   */\n      tag_379\n      jump\t// in\n    tag_611:\n        /* \"#utility.yul\":17543:17875   */\n      swap4\n      swap3\n      pop\n      pop\n      pop\n      jump\t// out\n        /* \"#utility.yul\":17881:18062   */\n    tag_403:\n        /* \"#utility.yul\":18021:18054   */\n      0x45524332303a20617070726f766520746865207a65726f206164647265737300\n        /* \"#utility.yul\":18017:18018   */\n      0x00\n        /* \"#utility.yul\":18009:18015   */\n      dup3\n        /* \"#utility.yul\":18005:18019   */\n      add\n        /* \"#utility.yul\":17998:18055   */\n      mstore\n        /* \"#utility.yul\":17881:18062   */\n      pop\n      jump\t// out\n        /* \"#utility.yul\":18068:18434   */\n    tag_404:\n        /* \"#utility.yul\":18210:18213   */\n      0x00\n        /* \"#utility.yul\":18231:18298   */\n      tag_614\n        /* \"#utility.yul\":18295:18297   */\n      0x1f\n        /* \"#utility.yul\":18290:18293   */\n      dup4\n        /* \"#utility.yul\":18231:18298   */\n      tag_363\n      jump\t// in\n    tag_614:\n        /* \"#utility.yul\":18224:18298   */\n      swap2\n      pop\n        /* \"#utility.yul\":18307:18400   */\n      tag_615\n        /* \"#utility.yul\":18396:18399   */\n      dup3\n        /* \"#utility.yul\":18307:18400   */\n      tag_403\n      jump\t// in\n    tag_615:\n        /* \"#utility.yul\":18425:18427   */\n      0x20\n        /* \"#utility.yul\":18420:18423   */\n      dup3\n        /* \"#utility.yul\":18416:18428   */\n      add\n        /* \"#utility.yul\":18409:18428   */\n      swap1\n      pop\n        /* \"#utility.yul\":18068:18434   */\n      swap2\n      swap1\n      pop\n      jump\t// out\n        /* \"#utility.yul\":18440:18859   */\n    tag_235:\n        /* \"#utility.yul\":18606:18610   */\n      0x00\n        /* \"#utility.yul\":18644:18646   */\n      0x20\n        /* \"#utility.yul\":18633:18642   */\n      dup3\n        /* \"#utility.yul\":18629:18647   */\n      add\n        /* \"#utility.yul\":18621:18647   */\n      swap1\n      pop\n        /* \"#utility.yul\":18693:18702   */\n      dup2\n        /* \"#utility.yul\":18687:18691   */\n      dup2\n        /* \"#utility.yul\":18683:18703   */\n      sub\n        /* \"#utility.yul\":18679:18680   */\n      0x00\n        /* \"#utility.yul\":18668:18677   */\n      dup4\n        /* \"#utility.yul\":18664:18681   */\n      add\n        /* \"#utility.yul\":18657:18704   */\n      mstore\n        /* \"#utility.yul\":18721:18852   */\n      tag_617\n        /* \"#utility.yul\":18847:18851   */\n      dup2\n        /* \"#utility.yul\":18721:18852   */\n      tag_404\n      jump\t// in\n    tag_617:\n        /* \"#utility.yul\":18713:18852   */\n      swap1\n      pop\n        /* \"#utility.yul\":18440:18859   */\n      swap2\n      swap1\n      pop\n      jump\t// out\n        /* \"#utility.yul\":18865:19047   */\n    tag_405:\n        /* \"#utility.yul\":19005:19039   */\n      0x45524332303a207472616e7366657220746865207a65726f2061646472657373\n        /* \"#utility.yul\":19001:19002   */\n      0x00\n        /* \"#utility.yul\":18993:18999   */\n      dup3\n        /* \"#utility.yul\":18989:19003   */\n      add\n        /* \"#utility.yul\":18982:19040   */\n      mstore\n        /* \"#utility.yul\":18865:19047   */\n      pop\n      jump\t// out\n        /* \"#utility.yul\":19053:19419   */\n    tag_406:\n        /* \"#utility.yul\":19195:19198   */\n      0x00\n        /* \"#utility.yul\":19216:19283   */\n      tag_620\n        /* \"#utility.yul\":19280:19282   */\n      0x20\n        /* \"#utility.yul\":19275:19278   */\n      dup4\n        /* \"#utility.yul\":19216:19283   */\n      tag_363\n      jump\t// in\n    tag_620:\n        /* \"#utility.yul\":19209:19283   */\n      swap2\n      pop\n        /* \"#utility.yul\":19292:19385   */\n      tag_621\n        /* \"#utility.yul\":19381:19384   */\n      dup3\n        /* \"#utility.yul\":19292:19385   */\n      tag_405\n      jump\t// in\n    tag_621:\n        /* \"#utility.yul\":19410:19412   */\n      0x20\n        /* \"#utility.yul\":19405:19408   */\n      dup3\n        /* \"#utility.yul\":19401:19413   */\n      add\n        /* \"#utility.yul\":19394:19413   */\n      swap1\n      pop\n        /* \"#utility.yul\":19053:19419   */\n      swap2\n      swap1\n      pop\n      jump\t// out\n        /* \"#utility.yul\":19425:19844   */\n    tag_241:\n        /* \"#utility.yul\":19591:19595   */\n      0x00\n        /* \"#utility.yul\":19629:19631   */\n      0x20\n        /* \"#utility.yul\":19618:19627   */\n      dup3\n        /* \"#utility.yul\":19614:19632   */\n      add\n        /* \"#utility.yul\":19606:19632   */\n      swap1\n      pop\n        /* \"#utility.yul\":19678:19687   */\n      dup2\n        /* \"#utility.yul\":19672:19676   */\n      dup2\n        /* \"#utility.yul\":19668:19688   */\n      sub\n        /* \"#utility.yul\":19664:19665   */\n      0x00\n        /* \"#utility.yul\":19653:19662   */\n      dup4\n        /* \"#utility.yul\":19649:19666   */\n      add\n        /* \"#utility.yul\":19642:19689   */\n      mstore\n        /* \"#utility.yul\":19706:19837   */\n      tag_623\n        /* \"#utility.yul\":19832:19836   */\n      dup2\n        /* \"#utility.yul\":19706:19837   */\n      tag_406\n      jump\t// in\n    tag_623:\n        /* \"#utility.yul\":19698:19837   */\n      swap1\n      pop\n        /* \"#utility.yul\":19425:19844   */\n      swap2\n      swap1\n      pop\n      jump\t// out\n        /* \"#utility.yul\":19850:20078   */\n    tag_407:\n        /* \"#utility.yul\":19990:20024   */\n      0x5472616e7366657220616d6f756e74206d757374206265206772656174657220\n        /* \"#utility.yul\":19986:19987   */\n      0x00\n        /* \"#utility.yul\":19978:19984   */\n      dup3\n        /* \"#utility.yul\":19974:19988   */\n      add\n        /* \"#utility.yul\":19967:20025   */\n      mstore\n        /* \"#utility.yul\":20059:20070   */\n      0x7468616e207a65726f0000000000000000000000000000000000000000000000\n        /* \"#utility.yul\":20054:20056   */\n      0x20\n        /* \"#utility.yul\":20046:20052   */\n      dup3\n        /* \"#utility.yul\":20042:20057   */\n      add\n        /* \"#utility.yul\":20035:20071   */\n      mstore\n        /* \"#utility.yul\":19850:20078   */\n      pop\n      jump\t// out\n        /* \"#utility.yul\":20084:20450   */\n    tag_408:\n        /* \"#utility.yul\":20226:20229   */\n      0x00\n        /* \"#utility.yul\":20247:20314   */\n      tag_626\n        /* \"#utility.yul\":20311:20313   */\n      0x29\n        /* \"#utility.yul\":20306:20309   */\n      dup4\n        /* \"#utility.yul\":20247:20314   */\n      tag_363\n      jump\t// in\n    tag_626:\n        /* \"#utility.yul\":20240:20314   */\n      swap2\n      pop\n        /* \"#utility.yul\":20323:20416   */\n      tag_627\n        /* \"#utility.yul\":20412:20415   */\n      dup3\n        /* \"#utility.yul\":20323:20416   */\n      tag_407\n      jump\t// in\n    tag_627:\n        /* \"#utility.yul\":20441:20443   */\n      0x40\n        /* \"#utility.yul\":20436:20439   */\n      dup3\n        /* \"#utility.yul\":20432:20444   */\n      add\n        /* \"#utility.yul\":20425:20444   */\n      swap1\n      pop\n        /* \"#utility.yul\":20084:20450   */\n      swap2\n      swap1\n      pop\n      jump\t// out\n        /* \"#utility.yul\":20456:20875   */\n    tag_244:\n        /* \"#utility.yul\":20622:20626   */\n      0x00\n        /* \"#utility.yul\":20660:20662   */\n      0x20\n        /* \"#utility.yul\":20649:20658   */\n      dup3\n        /* \"#utility.yul\":20645:20663   */\n      add\n        /* \"#utility.yul\":20637:20663   */\n      swap1\n      pop\n        /* \"#utility.yul\":20709:20718   */\n      dup2\n        /* \"#utility.yul\":20703:20707   */\n      dup2\n        /* \"#utility.yul\":20699:20719   */\n      sub\n        /* \"#utility.yul\":20695:20696   */\n      0x00\n        /* \"#utility.yul\":20684:20693   */\n      dup4\n        /* \"#utility.yul\":20680:20697   */\n      add\n        /* \"#utility.yul\":20673:20720   */\n      mstore\n        /* \"#utility.yul\":20737:20868   */\n      tag_629\n        /* \"#utility.yul\":20863:20867   */\n      dup2\n        /* \"#utility.yul\":20737:20868   */\n      tag_408\n      jump\t// in\n    tag_629:\n        /* \"#utility.yul\":20729:20868   */\n      swap1\n      pop\n        /* \"#utility.yul\":20456:20875   */\n      swap2\n      swap1\n      pop\n      jump\t// out\n        /* \"#utility.yul\":20881:21054   */\n    tag_409:\n        /* \"#utility.yul\":21021:21046   */\n      0x74726164696e67206973206e6f7420796574206f70656e000000000000000000\n        /* \"#utility.yul\":21017:21018   */\n      0x00\n        /* \"#utility.yul\":21009:21015   */\n      dup3\n        /* \"#utility.yul\":21005:21019   */\n      add\n        /* \"#utility.yul\":20998:21047   */\n      mstore\n        /* \"#utility.yul\":20881:21054   */\n      pop\n      jump\t// out\n        /* \"#utility.yul\":21060:21426   */\n    tag_410:\n        /* \"#utility.yul\":21202:21205   */\n      0x00\n        /* \"#utility.yul\":21223:21290   */\n      tag_632\n        /* \"#utility.yul\":21287:21289   */\n      0x17\n        /* \"#utility.yul\":21282:21285   */\n      dup4\n        /* \"#utility.yul\":21223:21290   */\n      tag_363\n      jump\t// in\n    tag_632:\n        /* \"#utility.yul\":21216:21290   */\n      swap2\n      pop\n        /* \"#utility.yul\":21299:21392   */\n      tag_633\n        /* \"#utility.yul\":21388:21391   */\n      dup3\n        /* \"#utility.yul\":21299:21392   */\n      tag_409\n      jump\t// in\n    tag_633:\n        /* \"#utility.yul\":21417:21419   */\n      0x20\n        /* \"#utility.yul\":21412:21415   */\n      dup3\n        /* \"#utility.yul\":21408:21420   */\n      add\n        /* \"#utility.yul\":21401:21420   */\n      swap1\n      pop\n        /* \"#utility.yul\":21060:21426   */\n      swap2\n      swap1\n      pop\n      jump\t// out\n        /* \"#utility.yul\":21432:21851   */\n    tag_253:\n        /* \"#utility.yul\":21598:21602   */\n      0x00\n        /* \"#utility.yul\":21636:21638   */\n      0x20\n        /* \"#utility.yul\":21625:21634   */\n      dup3\n        /* \"#utility.yul\":21621:21639   */\n      add\n        /* \"#utility.yul\":21613:21639   */\n      swap1\n      pop\n        /* \"#utility.yul\":21685:21694   */\n      dup2\n        /* \"#utility.yul\":21679:21683   */\n      dup2\n        /* \"#utility.yul\":21675:21695   */\n      sub\n        /* \"#utility.yul\":21671:21672   */\n      0x00\n        /* \"#utility.yul\":21660:21669   */\n      dup4\n        /* \"#utility.yul\":21656:21673   */\n      add\n        /* \"#utility.yul\":21649:21696   */\n      mstore\n        /* \"#utility.yul\":21713:21844   */\n      tag_635\n        /* \"#utility.yul\":21839:21843   */\n      dup2\n        /* \"#utility.yul\":21713:21844   */\n      tag_410\n      jump\t// in\n    tag_635:\n        /* \"#utility.yul\":21705:21844   */\n      swap1\n      pop\n        /* \"#utility.yul\":21432:21851   */\n      swap2\n      swap1\n      pop\n      jump\t// out\n        /* \"#utility.yul\":21857:22032   */\n    tag_411:\n        /* \"#utility.yul\":21997:22024   */\n      0x4578636565647320746865205f6d61785478416d6f756e742e00000000000000\n        /* \"#utility.yul\":21993:21994   */\n      0x00\n        /* \"#utility.yul\":21985:21991   */\n      dup3\n        /* \"#utility.yul\":21981:21995   */\n      add\n        /* \"#utility.yul\":21974:22025   */\n      mstore\n        /* \"#utility.yul\":21857:22032   */\n      pop\n      jump\t// out\n        /* \"#utility.yul\":22038:22404   */\n    tag_412:\n        /* \"#utility.yul\":22180:22183   */\n      0x00\n        /* \"#utility.yul\":22201:22268   */\n      tag_638\n        /* \"#utility.yul\":22265:22267   */\n      0x19\n        /* \"#utility.yul\":22260:22263   */\n      dup4\n        /* \"#utility.yul\":22201:22268   */\n      tag_363\n      jump\t// in\n    tag_638:\n        /* \"#utility.yul\":22194:22268   */\n      swap2\n      pop\n        /* \"#utility.yul\":22277:22370   */\n      tag_639\n        /* \"#utility.yul\":22366:22369   */\n      dup3\n        /* \"#utility.yul\":22277:22370   */\n      tag_411\n      jump\t// in\n    tag_639:\n        /* \"#utility.yul\":22395:22397   */\n      0x20\n        /* \"#utility.yul\":22390:22393   */\n      dup3\n        /* \"#utility.yul\":22386:22398   */\n      add\n        /* \"#utility.yul\":22379:22398   */\n      swap1\n      pop\n        /* \"#utility.yul\":22038:22404   */\n      swap2\n      swap1\n      pop\n      jump\t// out\n        /* \"#utility.yul\":22410:22829   */\n    tag_260:\n        /* \"#utility.yul\":22576:22580   */\n      0x00\n        /* \"#utility.yul\":22614:22616   */\n      0x20\n        /* \"#utility.yul\":22603:22612   */\n      dup3\n        /* \"#utility.yul\":22599:22617   */\n      add\n        /* \"#utility.yul\":22591:22617   */\n      swap1\n      pop\n        /* \"#utility.yul\":22663:22672   */\n      dup2\n        /* \"#utility.yul\":22657:22661   */\n      dup2\n        /* \"#utility.yul\":22653:22673   */\n      sub\n        /* \"#utility.yul\":22649:22650   */\n      0x00\n        /* \"#utility.yul\":22638:22647   */\n      dup4\n        /* \"#utility.yul\":22634:22651   */\n      add\n        /* \"#utility.yul\":22627:22674   */\n      mstore\n        /* \"#utility.yul\":22691:22822   */\n      tag_641\n        /* \"#utility.yul\":22817:22821   */\n      dup2\n        /* \"#utility.yul\":22691:22822   */\n      tag_412\n      jump\t// in\n    tag_641:\n        /* \"#utility.yul\":22683:22822   */\n      swap1\n      pop\n        /* \"#utility.yul\":22410:22829   */\n      swap2\n      swap1\n      pop\n      jump\t// out\n        /* \"#utility.yul\":22835:23026   */\n    tag_263:\n        /* \"#utility.yul\":22875:22878   */\n      0x00\n        /* \"#utility.yul\":22894:22914   */\n      tag_643\n        /* \"#utility.yul\":22912:22913   */\n      dup3\n        /* \"#utility.yul\":22894:22914   */\n      tag_374\n      jump\t// in\n    tag_643:\n        /* \"#utility.yul\":22889:22914   */\n      swap2\n      pop\n        /* \"#utility.yul\":22928:22948   */\n      tag_644\n        /* \"#utility.yul\":22946:22947   */\n      dup4\n        /* \"#utility.yul\":22928:22948   */\n      tag_374\n      jump\t// in\n    tag_644:\n        /* \"#utility.yul\":22923:22948   */\n      swap3\n      pop\n        /* \"#utility.yul\":22971:22972   */\n      dup3\n        /* \"#utility.yul\":22968:22969   */\n      dup3\n        /* \"#utility.yul\":22964:22973   */\n      add\n        /* \"#utility.yul\":22957:22973   */\n      swap1\n      pop\n        /* \"#utility.yul\":22992:22995   */\n      dup1\n        /* \"#utility.yul\":22989:22990   */\n      dup3\n        /* \"#utility.yul\":22986:22996   */\n      gt\n        /* \"#utility.yul\":22983:23019   */\n      iszero\n      tag_645\n      jumpi\n        /* \"#utility.yul\":22999:23017   */\n      tag_646\n      tag_387\n      jump\t// in\n    tag_646:\n        /* \"#utility.yul\":22983:23019   */\n    tag_645:\n        /* \"#utility.yul\":22835:23026   */\n      swap3\n      swap2\n      pop\n      pop\n      jump\t// out\n        /* \"#utility.yul\":23032:23208   */\n    tag_413:\n        /* \"#utility.yul\":23172:23200   */\n      0x4578636565647320746865206d617857616c6c657453697a652e000000000000\n        /* \"#utility.yul\":23168:23169   */\n      0x00\n        /* \"#utility.yul\":23160:23166   */\n      dup3\n        /* \"#utility.yul\":23156:23170   */\n      add\n        /* \"#utility.yul\":23149:23201   */\n      mstore\n        /* \"#utility.yul\":23032:23208   */\n      pop\n      jump\t// out\n        /* \"#utility.yul\":23214:23580   */\n    tag_414:\n        /* \"#utility.yul\":23356:23359   */\n      0x00\n        /* \"#utility.yul\":23377:23444   */\n      tag_649\n        /* \"#utility.yul\":23441:23443   */\n      0x1a\n        /* \"#utility.yul\":23436:23439   */\n      dup4\n        /* \"#utility.yul\":23377:23444   */\n      tag_363\n      jump\t// in\n    tag_649:\n        /* \"#utility.yul\":23370:23444   */\n      swap2\n      pop\n        /* \"#utility.yul\":23453:23546   */\n      tag_650\n        /* \"#utility.yul\":23542:23545   */\n      dup3\n        /* \"#utility.yul\":23453:23546   */\n      tag_413\n      jump\t// in\n    tag_650:\n        /* \"#utility.yul\":23571:23573   */\n      0x20\n        /* \"#utility.yul\":23566:23569   */\n      dup3\n        /* \"#utility.yul\":23562:23574   */\n      add\n        /* \"#utility.yul\":23555:23574   */\n      swap1\n      pop\n        /* \"#utility.yul\":23214:23580   */\n      swap2\n      swap1\n      pop\n      jump\t// out\n        /* \"#utility.yul\":23586:24005   */\n    tag_266:\n        /* \"#utility.yul\":23752:23756   */\n      0x00\n        /* \"#utility.yul\":23790:23792   */\n      0x20\n        /* \"#utility.yul\":23779:23788   */\n      dup3\n        /* \"#utility.yul\":23775:23793   */\n      add\n        /* \"#utility.yul\":23767:23793   */\n      swap1\n      pop\n        /* \"#utility.yul\":23839:23848   */\n      dup2\n        /* \"#utility.yul\":23833:23837   */\n      dup2\n        /* \"#utility.yul\":23829:23849   */\n      sub\n        /* \"#utility.yul\":23825:23826   */\n      0x00\n        /* \"#utility.yul\":23814:23823   */\n      dup4\n        /* \"#utility.yul\":23810:23827   */\n      add\n        /* \"#utility.yul\":23803:23850   */\n      mstore\n        /* \"#utility.yul\":23867:23998   */\n      tag_652\n        /* \"#utility.yul\":23993:23997   */\n      dup2\n        /* \"#utility.yul\":23867:23998   */\n      tag_414\n      jump\t// in\n    tag_652:\n        /* \"#utility.yul\":23859:23998   */\n      swap1\n      pop\n        /* \"#utility.yul\":23586:24005   */\n      swap2\n      swap1\n      pop\n      jump\t// out\n        /* \"#utility.yul\":24011:24244   */\n    tag_268:\n        /* \"#utility.yul\":24050:24053   */\n      0x00\n        /* \"#utility.yul\":24073:24097   */\n      tag_654\n        /* \"#utility.yul\":24091:24096   */\n      dup3\n        /* \"#utility.yul\":24073:24097   */\n      tag_374\n      jump\t// in\n    tag_654:\n        /* \"#utility.yul\":24064:24097   */\n      swap2\n      pop\n        /* \"#utility.yul\":24119:24185   */\n      0xffffffffffffffffffffffffffffffffffffffffffffffffffffffffffffffff\n        /* \"#utility.yul\":24112:24117   */\n      dup3\n        /* \"#utility.yul\":24109:24186   */\n      sub\n        /* \"#utility.yul\":24106:24209   */\n      tag_655\n      jumpi\n        /* \"#utility.yul\":24189:24207   */\n      tag_656\n      tag_387\n      jump\t// in\n    tag_656:\n        /* \"#utility.yul\":24106:24209   */\n    tag_655:\n        /* \"#utility.yul\":24236:24237   */\n      0x01\n        /* \"#utility.yul\":24229:24234   */\n      dup3\n        /* \"#utility.yul\":24225:24238   */\n      add\n        /* \"#utility.yul\":24218:24238   */\n      swap1\n      pop\n        /* \"#utility.yul\":24011:24244   */\n      swap2\n      swap1\n      pop\n      jump\t// out\n        /* \"#utility.yul\":24250:24444   */\n    tag_316:\n        /* \"#utility.yul\":24290:24294   */\n      0x00\n        /* \"#utility.yul\":24310:24330   */\n      tag_658\n        /* \"#utility.yul\":24328:24329   */\n      dup3\n        /* \"#utility.yul\":24310:24330   */\n      tag_374\n      jump\t// in\n    tag_658:\n        /* \"#utility.yul\":24305:24330   */\n      swap2\n      pop\n        /* \"#utility.yul\":24344:24364   */\n      tag_659\n        /* \"#utility.yul\":24362:24363   */\n      dup4\n        /* \"#utility.yul\":24344:24364   */\n      tag_374\n      jump\t// in\n    tag_659:\n        /* \"#utility.yul\":24339:24364   */\n      swap3\n      pop\n        /* \"#utility.yul\":24388:24389   */\n      dup3\n        /* \"#utility.yul\":24385:24386   */\n      dup3\n        /* \"#utility.yul\":24381:24390   */\n      sub\n        /* \"#utility.yul\":24373:24390   */\n      swap1\n      pop\n        /* \"#utility.yul\":24412:24413   */\n      dup2\n        /* \"#utility.yul\":24406:24410   */\n      dup2\n        /* \"#utility.yul\":24403:24414   */\n      gt\n        /* \"#utility.yul\":24400:24437   */\n      iszero\n      tag_660\n      jumpi\n        /* \"#utility.yul\":24417:24435   */\n      tag_661\n      tag_387\n      jump\t// in\n    tag_661:\n        /* \"#utility.yul\":24400:24437   */\n    tag_660:\n        /* \"#utility.yul\":24250:24444   */\n      swap3\n      swap2\n      pop\n      pop\n      jump\t// out\n        /* \"#utility.yul\":24450:24630   */\n    tag_415:\n        /* \"#utility.yul\":24498:24575   */\n      0x4e487b7100000000000000000000000000000000000000000000000000000000\n        /* \"#utility.yul\":24495:24496   */\n      0x00\n        /* \"#utility.yul\":24488:24576   */\n      mstore\n        /* \"#utility.yul\":24595:24599   */\n      0x12\n        /* \"#utility.yul\":24592:24593   */\n      0x04\n        /* \"#utility.yul\":24585:24600   */\n      mstore\n        /* \"#utility.yul\":24619:24623   */\n      0x24\n        /* \"#utility.yul\":24616:24617   */\n      0x00\n        /* \"#utility.yul\":24609:24624   */\n      revert\n        /* \"#utility.yul\":24636:24821   */\n    tag_321:\n        /* \"#utility.yul\":24676:24677   */\n      0x00\n        /* \"#utility.yul\":24693:24713   */\n      tag_664\n        /* \"#utility.yul\":24711:24712   */\n      dup3\n        /* \"#utility.yul\":24693:24713   */\n      tag_374\n      jump\t// in\n    tag_664:\n        /* \"#utility.yul\":24688:24713   */\n      swap2\n      pop\n        /* \"#utility.yul\":24727:24747   */\n      tag_665\n        /* \"#utility.yul\":24745:24746   */\n      dup4\n        /* \"#utility.yul\":24727:24747   */\n      tag_374\n      jump\t// in\n    tag_665:\n        /* \"#utility.yul\":24722:24747   */\n      swap3\n      pop\n        /* \"#utility.yul\":24766:24767   */\n      dup3\n        /* \"#utility.yul\":24756:24791   */\n      tag_666\n      jumpi\n        /* \"#utility.yul\":24771:24789   */\n      tag_667\n      tag_415\n      jump\t// in\n    tag_667:\n        /* \"#utility.yul\":24756:24791   */\n    tag_666:\n        /* \"#utility.yul\":24813:24814   */\n      dup3\n        /* \"#utility.yul\":24810:24811   */\n      dup3\n        /* \"#utility.yul\":24806:24815   */\n      div\n        /* \"#utility.yul\":24801:24815   */\n      swap1\n      pop\n        /* \"#utility.yul\":24636:24821   */\n      swap3\n      swap2\n      pop\n      pop\n      jump\t// out\n        /* \"#utility.yul\":24827:25047   */\n    tag_416:\n        /* \"#utility.yul\":24967:25001   */\n      0x536166654d6174683a206d756c7469706c69636174696f6e206f766572666c6f\n        /* \"#utility.yul\":24963:24964   */\n      0x00\n        /* \"#utility.yul\":24955:24961   */\n      dup3\n        /* \"#utility.yul\":24951:24965   */\n      add\n        /* \"#utility.yul\":24944:25002   */\n      mstore\n        /* \"#utility.yul\":25036:25039   */\n      0x7700000000000000000000000000000000000000000000000000000000000000\n        /* \"#utility.yul\":25031:25033   */\n      0x20\n        /* \"#utility.yul\":25023:25029   */\n      dup3\n        /* \"#utility.yul\":25019:25034   */\n      add\n        /* \"#utility.yul\":25012:25040   */\n      mstore\n        /* \"#utility.yul\":24827:25047   */\n      pop\n      jump\t// out\n        /* \"#utility.yul\":25053:25419   */\n    tag_417:\n        /* \"#utility.yul\":25195:25198   */\n      0x00\n        /* \"#utility.yul\":25216:25283   */\n      tag_670\n        /* \"#utility.yul\":25280:25282   */\n      0x21\n        /* \"#utility.yul\":25275:25278   */\n      dup4\n        /* \"#utility.yul\":25216:25283   */\n      tag_363\n      jump\t// in\n    tag_670:\n        /* \"#utility.yul\":25209:25283   */\n      swap2\n      pop\n        /* \"#utility.yul\":25292:25385   */\n      tag_671\n        /* \"#utility.yul\":25381:25384   */\n      dup3\n        /* \"#utility.yul\":25292:25385   */\n      tag_416\n      jump\t// in\n    tag_671:\n        /* \"#utility.yul\":25410:25412   */\n      0x40\n        /* \"#utility.yul\":25405:25408   */\n      dup3\n        /* \"#utility.yul\":25401:25413   */\n      add\n        /* \"#utility.yul\":25394:25413   */\n      swap1\n      pop\n        /* \"#utility.yul\":25053:25419   */\n      swap2\n      swap1\n      pop\n      jump\t// out\n        /* \"#utility.yul\":25425:25844   */\n    tag_324:\n        /* \"#utility.yul\":25591:25595   */\n      0x00\n        /* \"#utility.yul\":25629:25631   */\n      0x20\n        /* \"#utility.yul\":25618:25627   */\n      dup3\n        /* \"#utility.yul\":25614:25632   */\n      add\n        /* \"#utility.yul\":25606:25632   */\n      swap1\n      pop\n        /* \"#utility.yul\":25678:25687   */\n      dup2\n        /* \"#utility.yul\":25672:25676   */\n      dup2\n        /* \"#utility.yul\":25668:25688   */\n      sub\n        /* \"#utility.yul\":25664:25665   */\n      0x00\n        /* \"#utility.yul\":25653:25662   */\n      dup4\n        /* \"#utility.yul\":25649:25666   */\n      add\n        /* \"#utility.yul\":25642:25689   */\n      mstore\n        /* \"#utility.yul\":25706:25837   */\n      tag_673\n        /* \"#utility.yul\":25832:25836   */\n      dup2\n        /* \"#utility.yul\":25706:25837   */\n      tag_417\n      jump\t// in\n    tag_673:\n        /* \"#utility.yul\":25698:25837   */\n      swap1\n      pop\n        /* \"#utility.yul\":25425:25844   */\n      swap2\n      swap1\n      pop\n      jump\t// out\n        /* \"#utility.yul\":25850:26030   */\n    tag_334:\n        /* \"#utility.yul\":25898:25975   */\n      0x4e487b7100000000000000000000000000000000000000000000000000000000\n        /* \"#utility.yul\":25895:25896   */\n      0x00\n        /* \"#utility.yul\":25888:25976   */\n      mstore\n        /* \"#utility.yul\":25995:25999   */\n      0x41\n        /* \"#utility.yul\":25992:25993   */\n      0x04\n        /* \"#utility.yul\":25985:26000   */\n      mstore\n        /* \"#utility.yul\":26019:26023   */\n      0x24\n        /* \"#utility.yul\":26016:26017   */\n      0x00\n        /* \"#utility.yul\":26009:26024   */\n      revert\n        /* \"#utility.yul\":26036:26216   */\n    tag_338:\n        /* \"#utility.yul\":26084:26161   */\n      0x4e487b7100000000000000000000000000000000000000000000000000000000\n        /* \"#utility.yul\":26081:26082   */\n      0x00\n        /* \"#utility.yul\":26074:26162   */\n      mstore\n        /* \"#utility.yul\":26181:26185   */\n      0x32\n        /* \"#utility.yul\":26178:26179   */\n      0x04\n        /* \"#utility.yul\":26171:26186   */\n      mstore\n        /* \"#utility.yul\":26205:26209   */\n      0x24\n        /* \"#utility.yul\":26202:26203   */\n      0x00\n        /* \"#utility.yul\":26195:26210   */\n      revert\n        /* \"#utility.yul\":26222:26336   */\n    tag_418:\n        /* \"#utility.yul\":26289:26295   */\n      0x00\n        /* \"#utility.yul\":26323:26328   */\n      dup2\n        /* \"#utility.yul\":26317:26329   */\n      mload\n        /* \"#utility.yul\":26307:26329   */\n      swap1\n      pop\n        /* \"#utility.yul\":26222:26336   */\n      swap2\n      swap1\n      pop\n      jump\t// out\n        /* \"#utility.yul\":26342:26526   */\n    tag_419:\n        /* \"#utility.yul\":26441:26452   */\n      0x00\n        /* \"#utility.yul\":26475:26481   */\n      dup3\n        /* \"#utility.yul\":26470:26473   */\n      dup3\n        /* \"#utility.yul\":26463:26482   */\n      mstore\n        /* \"#utility.yul\":26515:26519   */\n      0x20\n        /* \"#utility.yul\":26510:26513   */\n      dup3\n        /* \"#utility.yul\":26506:26520   */\n      add\n        /* \"#utility.yul\":26491:26520   */\n      swap1\n      pop\n        /* \"#utility.yul\":26342:26526   */\n      swap3\n      swap2\n      pop\n      pop\n      jump\t// out\n        /* \"#utility.yul\":26532:26664   */\n    tag_420:\n        /* \"#utility.yul\":26599:26603   */\n      0x00\n        /* \"#utility.yul\":26622:26625   */\n      dup2\n        /* \"#utility.yul\":26614:26625   */\n      swap1\n      pop\n        /* \"#utility.yul\":26652:26656   */\n      0x20\n        /* \"#utility.yul\":26647:26650   */\n      dup3\n        /* \"#utility.yul\":26643:26657   */\n      add\n        /* \"#utility.yul\":26635:26657   */\n      swap1\n      pop\n        /* \"#utility.yul\":26532:26664   */\n      swap2\n      swap1\n      pop\n      jump\t// out\n        /* \"#utility.yul\":26670:26778   */\n    tag_421:\n        /* \"#utility.yul\":26747:26771   */\n      tag_680\n        /* \"#utility.yul\":26765:26770   */\n      dup2\n        /* \"#utility.yul\":26747:26771   */\n      tag_371\n      jump\t// in\n    tag_680:\n        /* \"#utility.yul\":26742:26745   */\n      dup3\n        /* \"#utility.yul\":26735:26772   */\n      mstore\n        /* \"#utility.yul\":26670:26778   */\n      pop\n      pop\n      jump\t// out\n        /* \"#utility.yul\":26784:26963   */\n    tag_422:\n        /* \"#utility.yul\":26853:26863   */\n      0x00\n        /* \"#utility.yul\":26874:26920   */\n      tag_682\n        /* \"#utility.yul\":26916:26919   */\n      dup4\n        /* \"#utility.yul\":26908:26914   */\n      dup4\n        /* \"#utility.yul\":26874:26920   */\n      tag_421\n      jump\t// in\n    tag_682:\n        /* \"#utility.yul\":26952:26956   */\n      0x20\n        /* \"#utility.yul\":26947:26950   */\n      dup4\n        /* \"#utility.yul\":26943:26957   */\n      add\n        /* \"#utility.yul\":26929:26957   */\n      swap1\n      pop\n        /* \"#utility.yul\":26784:26963   */\n      swap3\n      swap2\n      pop\n      pop\n      jump\t// out\n        /* \"#utility.yul\":26969:27082   */\n    tag_423:\n        /* \"#utility.yul\":27039:27043   */\n      0x00\n        /* \"#utility.yul\":27071:27075   */\n      0x20\n        /* \"#utility.yul\":27066:27069   */\n      dup3\n        /* \"#utility.yul\":27062:27076   */\n      add\n        /* \"#utility.yul\":27054:27076   */\n      swap1\n      pop\n        /* \"#utility.yul\":26969:27082   */\n      swap2\n      swap1\n      pop\n      jump\t// out\n        /* \"#utility.yul\":27118:27850   */\n    tag_424:\n        /* \"#utility.yul\":27237:27240   */\n      0x00\n        /* \"#utility.yul\":27266:27320   */\n      tag_685\n        /* \"#utility.yul\":27314:27319   */\n      dup3\n        /* \"#utility.yul\":27266:27320   */\n      tag_418\n      jump\t// in\n    tag_685:\n        /* \"#utility.yul\":27336:27422   */\n      tag_686\n        /* \"#utility.yul\":27415:27421   */\n      dup2\n        /* \"#utility.yul\":27410:27413   */\n      dup6\n        /* \"#utility.yul\":27336:27422   */\n      tag_419\n      jump\t// in\n    tag_686:\n        /* \"#utility.yul\":27329:27422   */\n      swap4\n      pop\n        /* \"#utility.yul\":27446:27502   */\n      tag_687\n        /* \"#utility.yul\":27496:27501   */\n      dup4\n        /* \"#utility.yul\":27446:27502   */\n      tag_420\n      jump\t// in\n    tag_687:\n        /* \"#utility.yul\":27525:27532   */\n      dup1\n        /* \"#utility.yul\":27556:27557   */\n      0x00\n        /* \"#utility.yul\":27541:27825   */\n    tag_688:\n        /* \"#utility.yul\":27566:27572   */\n      dup4\n        /* \"#utility.yul\":27563:27564   */\n      dup2\n        /* \"#utility.yul\":27560:27573   */\n      lt\n        /* \"#utility.yul\":27541:27825   */\n      iszero\n      tag_690\n      jumpi\n        /* \"#utility.yul\":27642:27648   */\n      dup2\n        /* \"#utility.yul\":27636:27649   */\n      mload\n        /* \"#utility.yul\":27669:27732   */\n      tag_691\n        /* \"#utility.yul\":27728:27731   */\n      dup9\n        /* \"#utility.yul\":27713:27726   */\n      dup3\n        /* \"#utility.yul\":27669:27732   */\n      tag_422\n      jump\t// in\n    tag_691:\n        /* \"#utility.yul\":27662:27732   */\n      swap8\n      pop\n        /* \"#utility.yul\":27755:27815   */\n      tag_692\n        /* \"#utility.yul\":27808:27814   */\n      dup4\n        /* \"#utility.yul\":27755:27815   */\n      tag_423\n      jump\t// in\n    tag_692:\n        /* \"#utility.yul\":27745:27815   */\n      swap3\n      pop\n        /* \"#utility.yul\":27601:27825   */\n      pop\n        /* \"#utility.yul\":27588:27589   */\n      0x01\n        /* \"#utility.yul\":27585:27586   */\n      dup2\n        /* \"#utility.yul\":27581:27590   */\n      add\n        /* \"#utility.yul\":27576:27590   */\n      swap1\n      pop\n        /* \"#utility.yul\":27541:27825   */\n      jump(tag_688)\n    tag_690:\n        /* \"#utility.yul\":27545:27559   */\n      pop\n        /* \"#utility.yul\":27841:27844   */\n      dup6\n        /* \"#utility.yul\":27834:27844   */\n      swap4\n      pop\n        /* \"#utility.yul\":27242:27850   */\n      pop\n      pop\n      pop\n        /* \"#utility.yul\":27118:27850   */\n      swap3\n      swap2\n      pop\n      pop\n      jump\t// out\n        /* \"#utility.yul\":27856:28687   */\n    tag_346:\n        /* \"#utility.yul\":28119:28123   */\n      0x00\n        /* \"#utility.yul\":28157:28160   */\n      0xa0\n        /* \"#utility.yul\":28146:28155   */\n      dup3\n        /* \"#utility.yul\":28142:28161   */\n      add\n        /* \"#utility.yul\":28134:28161   */\n      swap1\n      pop\n        /* \"#utility.yul\":28171:28242   */\n      tag_694\n        /* \"#utility.yul\":28239:28240   */\n      0x00\n        /* \"#utility.yul\":28228:28237   */\n      dup4\n        /* \"#utility.yul\":28224:28241   */\n      add\n        /* \"#utility.yul\":28215:28221   */\n      dup9\n        /* \"#utility.yul\":28171:28242   */\n      tag_379\n      jump\t// in\n    tag_694:\n        /* \"#utility.yul\":28252:28332   */\n      tag_695\n        /* \"#utility.yul\":28328:28330   */\n      0x20\n        /* \"#utility.yul\":28317:28326   */\n      dup4\n        /* \"#utility.yul\":28313:28331   */\n      add\n        /* \"#utility.yul\":28304:28310   */\n      dup8\n        /* \"#utility.yul\":28252:28332   */\n      tag_397\n      jump\t// in\n    tag_695:\n        /* \"#utility.yul\":28379:28388   */\n      dup2\n        /* \"#utility.yul\":28373:28377   */\n      dup2\n        /* \"#utility.yul\":28369:28389   */\n      sub\n        /* \"#utility.yul\":28364:28366   */\n      0x40\n        /* \"#utility.yul\":28353:28362   */\n      dup4\n        /* \"#utility.yul\":28349:28367   */\n      add\n        /* \"#utility.yul\":28342:28390   */\n      mstore\n        /* \"#utility.yul\":28407:28515   */\n      tag_696\n        /* \"#utility.yul\":28510:28514   */\n      dup2\n        /* \"#utility.yul\":28501:28507   */\n      dup7\n        /* \"#utility.yul\":28407:28515   */\n      tag_424\n      jump\t// in\n    tag_696:\n        /* \"#utility.yul\":28399:28515   */\n      swap1\n      pop\n        /* \"#utility.yul\":28525:28597   */\n      tag_697\n        /* \"#utility.yul\":28593:28595   */\n      0x60\n        /* \"#utility.yul\":28582:28591   */\n      dup4\n        /* \"#utility.yul\":28578:28596   */\n      add\n        /* \"#utility.yul\":28569:28575   */\n      dup6\n        /* \"#utility.yul\":28525:28597   */\n      tag_382\n      jump\t// in\n    tag_697:\n        /* \"#utility.yul\":28607:28680   */\n      tag_698\n        /* \"#utility.yul\":28675:28678   */\n      0x80\n        /* \"#utility.yul\":28664:28673   */\n      dup4\n        /* \"#utility.yul\":28660:28679   */\n      add\n        /* \"#utility.yul\":28651:28657   */\n      dup5\n        /* \"#utility.yul\":28607:28680   */\n      tag_379\n      jump\t// in\n    tag_698:\n        /* \"#utility.yul\":27856:28687   */\n      swap7\n      swap6\n      pop\n      pop\n      pop\n      pop\n      pop\n      pop\n      jump\t// out\n        /* \"#utility.yul\":28693:28870   */\n    tag_425:\n        /* \"#utility.yul\":28833:28862   */\n      0x536166654d6174683a206164646974696f6e206f766572666c6f770000000000\n        /* \"#utility.yul\":28829:28830   */\n      0x00\n        /* \"#utility.yul\":28821:28827   */\n      dup3\n        /* \"#utility.yul\":28817:28831   */\n      add\n        /* \"#utility.yul\":28810:28863   */\n      mstore\n        /* \"#utility.yul\":28693:28870   */\n      pop\n      jump\t// out\n        /* \"#utility.yul\":28876:29242   */\n    tag_426:\n        /* \"#utility.yul\":29018:29021   */\n      0x00\n        /* \"#utility.yul\":29039:29106   */\n      tag_701\n        /* \"#utility.yul\":29103:29105   */\n      0x1b\n        /* \"#utility.yul\":29098:29101   */\n      dup4\n        /* \"#utility.yul\":29039:29106   */\n      tag_363\n      jump\t// in\n    tag_701:\n        /* \"#utility.yul\":29032:29106   */\n      swap2\n      pop\n        /* \"#utility.yul\":29115:29208   */\n      tag_702\n        /* \"#utility.yul\":29204:29207   */\n      dup3\n        /* \"#utility.yul\":29115:29208   */\n      tag_425\n      jump\t// in\n    tag_702:\n        /* \"#utility.yul\":29233:29235   */\n      0x20\n        /* \"#utility.yul\":29228:29231   */\n      dup3\n        /* \"#utility.yul\":29224:29236   */\n      add\n        /* \"#utility.yul\":29217:29236   */\n      swap1\n      pop\n        /* \"#utility.yul\":28876:29242   */\n      swap2\n      swap1\n      pop\n      jump\t// out\n        /* \"#utility.yul\":29248:29667   */\n    tag_357:\n        /* \"#utility.yul\":29414:29418   */\n      0x00\n        /* \"#utility.yul\":29452:29454   */\n      0x20\n        /* \"#utility.yul\":29441:29450   */\n      dup3\n        /* \"#utility.yul\":29437:29455   */\n      add\n        /* \"#utility.yul\":29429:29455   */\n      swap1\n      pop\n        /* \"#utility.yul\":29501:29510   */\n      dup2\n        /* \"#utility.yul\":29495:29499   */\n      dup2\n        /* \"#utility.yul\":29491:29511   */\n      sub\n        /* \"#utility.yul\":29487:29488   */\n      0x00\n        /* \"#utility.yul\":29476:29485   */\n      dup4\n        /* \"#utility.yul\":29472:29489   */\n      add\n        /* \"#utility.yul\":29465:29512   */\n      mstore\n        /* \"#utility.yul\":29529:29660   */\n      tag_704\n        /* \"#utility.yul\":29655:29659   */\n      dup2\n        /* \"#utility.yul\":29529:29660   */\n      tag_426\n      jump\t// in\n    tag_704:\n        /* \"#utility.yul\":29521:29660   */\n      swap1\n      pop\n        /* \"#utility.yul\":29248:29667   */\n      swap2\n      swap1\n      pop\n      jump\t// out\n    stop\n    data_974d1b4421da69cc60b481194f0dad36a5bb4e23da810da7a7fb30cdba178330 45524332303a207472616e7366657220616d6f756e74206578636565647320616c6c6f77616e6365\n\n    auxdata: 0xa26469706673582212205e7b8068f42f59e7cae8afe1a2d76d2d6010bfe4a38dd66553b5b252a40d92d664736f6c63430008140033\n}\n",
				"bytecode": {
					"linkReferences": {},
					"object": "6080604052601960055560196006555f6007556009600a6200002291906200061a565b629896806200003291906200066a565b6008556009600a6200004591906200061a565b629896806200005591906200066a565b6009556001600b60156101000a81548160ff0219169083151502179055505f600b60166101000a81548160ff0219169083151502179055505f600b60176101000a81548160ff021916908315150217905550348015620000b3575f80fd5b50604051620038cd380380620038cd8339818101604052810190620000d9919062000719565b5f620000ea6200045a60201b60201c565b9050805f806101000a81548173ffffffffffffffffffffffffffffffffffffffff021916908373ffffffffffffffffffffffffffffffffffffffff1602179055508073ffffffffffffffffffffffffffffffffffffffff165f73ffffffffffffffffffffffffffffffffffffffff167f8be0079c531659141344cd1fd0a4f28419497f9722a3daafe3b4186f6b6457e060405160405180910390a3508060045f6101000a81548173ffffffffffffffffffffffffffffffffffffffff021916908373ffffffffffffffffffffffffffffffffffffffff1602179055506009600a620001d691906200061a565b633b9aca00620001e791906200066a565b60015f620001fa6200045a60201b60201c565b73ffffffffffffffffffffffffffffffffffffffff1673ffffffffffffffffffffffffffffffffffffffff1681526020019081526020015f2081905550600160035f6200024c6200046160201b60201c565b73ffffffffffffffffffffffffffffffffffffffff1673ffffffffffffffffffffffffffffffffffffffff1681526020019081526020015f205f6101000a81548160ff021916908315150217905550600160035f60045f9054906101000a900473ffffffffffffffffffffffffffffffffffffffff1673ffffffffffffffffffffffffffffffffffffffff1673ffffffffffffffffffffffffffffffffffffffff1681526020019081526020015f205f6101000a81548160ff021916908315150217905550600160035f61dead73ffffffffffffffffffffffffffffffffffffffff1673ffffffffffffffffffffffffffffffffffffffff1681526020019081526020015f205f6101000a81548160ff021916908315150217905550600160035f3073ffffffffffffffffffffffffffffffffffffffff1673ffffffffffffffffffffffffffffffffffffffff1681526020019081526020015f205f6101000a81548160ff021916908315150217905550620003cd6200045a60201b60201c565b73ffffffffffffffffffffffffffffffffffffffff165f73ffffffffffffffffffffffffffffffffffffffff167fddf252ad1be2c89b69c2b068fc378daa952ba7f163c4a11628f55a4df523b3ef6009600a6200042b91906200061a565b633b9aca006200043c91906200066a565b6040516200044b91906200075a565b60405180910390a35062000775565b5f33905090565b5f805f9054906101000a900473ffffffffffffffffffffffffffffffffffffffff16905090565b7f4e487b71000000000000000000000000000000000000000000000000000000005f52601160045260245ffd5b5f8160011c9050919050565b5f808291508390505b60018511156200051257808604811115620004ea57620004e962000488565b5b6001851615620004fa5780820291505b80810290506200050a85620004b5565b9450620004ca565b94509492505050565b5f826200052c5760019050620005fe565b816200053b575f9050620005fe565b81600181146200055457600281146200055f5762000595565b6001915050620005fe565b60ff84111562000574576200057362000488565b5b8360020a9150848211156200058e576200058d62000488565b5b50620005fe565b5060208310610133831016604e8410600b8410161715620005cf5782820a905083811115620005c957620005c862000488565b5b620005fe565b620005de8484846001620004c1565b92509050818404811115620005f857620005f762000488565b5b81810290505b9392505050565b5f819050919050565b5f60ff82169050919050565b5f620006268262000605565b915062000633836200060e565b9250620006627fffffffffffffffffffffffffffffffffffffffffffffffffffffffffffffffff84846200051b565b905092915050565b5f620006768262000605565b9150620006838362000605565b9250828202620006938162000605565b91508282048414831517620006ad57620006ac62000488565b5b5092915050565b5f80fd5b5f73ffffffffffffffffffffffffffffffffffffffff82169050919050565b5f620006e382620006b8565b9050919050565b620006f581620006d7565b811462000700575f80fd5b50565b5f815190506200071381620006ea565b92915050565b5f60208284031215620007315762000730620006b4565b5b5f620007408482850162000703565b91505092915050565b620007548162000605565b82525050565b5f6020820190506200076f5f83018462000749565b92915050565b61314a80620007835f395ff3fe608060405260043610610117575f3560e01c80637d1db4a51161009f578063a9059cbb11610063578063a9059cbb14610368578063bf474bed146103a4578063d007cd4a146103ce578063dd62ed3e146103f6578063f10f864e146104325761011e565b80637d1db4a5146102aa5780638129fc1c146102d45780638da5cb5b146102ea5780638f9a55c01461031457806395d89b411461033e5761011e565b806318160ddd116100e657806318160ddd146101c857806323b872dd146101f2578063313ce5671461022e57806370a0823114610258578063715018a6146102945761011e565b806301339c211461012257806306fdde0314610138578063095ea7b3146101625780630faee56f1461019e5761011e565b3661011e57005b5f80fd5b34801561012d575f80fd5b50610136610448565b005b348015610143575f80fd5b5061014c6105bb565b6040516101599190612294565b60405180910390f35b34801561016d575f80fd5b5061018860048036038101906101839190612345565b6105f8565b604051610195919061239d565b60405180910390f35b3480156101a9575f80fd5b506101b2610615565b6040516101bf91906123c5565b60405180910390f35b3480156101d3575f80fd5b506101dc610634565b6040516101e991906123c5565b60405180910390f35b3480156101fd575f80fd5b50610218600480360381019061021391906123de565b610657565b604051610225919061239d565b60405180910390f35b348015610239575f80fd5b5061024261072b565b60405161024f9190612449565b60405180910390f35b348015610263575f80fd5b5061027e60048036038101906102799190612462565b610733565b60405161028b91906123c5565b60405180910390f35b34801561029f575f80fd5b506102a8610779565b005b3480156102b5575f80fd5b506102be6108c7565b6040516102cb91906123c5565b60405180910390f35b3480156102df575f80fd5b506102e86108cd565b005b3480156102f5575f80fd5b506102fe610e12565b60405161030b919061249c565b60405180910390f35b34801561031f575f80fd5b50610328610e39565b60405161033591906123c5565b60405180910390f35b348015610349575f80fd5b50610352610e3f565b60405161035f9190612294565b60405180910390f35b348015610373575f80fd5b5061038e60048036038101906103899190612345565b610e7c565b60405161039b919061239d565b60405180910390f35b3480156103af575f80fd5b506103b8610e99565b6040516103c591906123c5565b60405180910390f35b3480156103d9575f80fd5b506103f460048036038101906103ef91906124b5565b610eb8565b005b348015610401575f80fd5b5061041c600480360381019061041791906124f3565b611000565b60405161042991906123c5565b60405180910390f35b34801561043d575f80fd5b50610446611082565b005b6104506111cb565b73ffffffffffffffffffffffffffffffffffffffff165f8054906101000a900473ffffffffffffffffffffffffffffffffffffffff1673ffffffffffffffffffffffffffffffffffffffff16146104dc576040517f08c379a00000000000000000000000000000000000000000000000000000000081526004016104d39061257b565b60405180910390fd5b600b60149054906101000a900460ff161561052c576040517f08c379a0000000000000000000000000000000000000000000000000000000008152600401610523906125e3565b60405180910390fd5b6001600b60176101000a81548160ff0219169083151502179055506001600b60146101000a81548160ff0219169083151502179055507f029ed388f3dd39b342f312d7b12cba9e3065871bf0fb668cc5457f217b15dd7c600b60149054906101000a900460ff16600b60179054906101000a900460ff166040516105b1929190612601565b60405180910390a1565b60606040518060400160405280600881526020017f486f74656c204149000000000000000000000000000000000000000000000000815250905090565b5f61060b6106046111cb565b84846111d2565b6001905092915050565b6009600a6106239190612784565b6298968061063191906127ce565b81565b5f6009600a6106439190612784565b633b9aca0061065291906127ce565b905090565b5f610663848484611360565b6107208461066f6111cb565b61071b856040518060600160405280602881526020016130ed6028913960025f8b73ffffffffffffffffffffffffffffffffffffffff1673ffffffffffffffffffffffffffffffffffffffff1681526020019081526020015f205f6106d26111cb565b73ffffffffffffffffffffffffffffffffffffffff1673ffffffffffffffffffffffffffffffffffffffff1681526020019081526020015f2054611d0e9092919063ffffffff16565b6111d2565b600190509392505050565b5f6009905090565b5f60015f8373ffffffffffffffffffffffffffffffffffffffff1673ffffffffffffffffffffffffffffffffffffffff1681526020019081526020015f20549050919050565b6107816111cb565b73ffffffffffffffffffffffffffffffffffffffff165f8054906101000a900473ffffffffffffffffffffffffffffffffffffffff1673ffffffffffffffffffffffffffffffffffffffff161461080d576040517f08c379a00000000000000000000000000000000000000000000000000000000081526004016108049061257b565b60405180910390fd5b5f73ffffffffffffffffffffffffffffffffffffffff165f8054906101000a900473ffffffffffffffffffffffffffffffffffffffff1673ffffffffffffffffffffffffffffffffffffffff167f8be0079c531659141344cd1fd0a4f28419497f9722a3daafe3b4186f6b6457e060405160405180910390a35f805f6101000a81548173ffffffffffffffffffffffffffffffffffffffff021916908373ffffffffffffffffffffffffffffffffffffffff160217905550565b60085481565b6108d56111cb565b73ffffffffffffffffffffffffffffffffffffffff165f8054906101000a900473ffffffffffffffffffffffffffffffffffffffff1673ffffffffffffffffffffffffffffffffffffffff1614610961576040517f08c379a00000000000000000000000000000000000000000000000000000000081526004016109589061257b565b60405180910390fd5b600b60149054906101000a900460ff16156109b1576040517f08c379a00000000000000000000000000000000000000000000000000000000081526004016109a890612859565b60405180910390fd5b5f610a0f6109f860646109ea60146009600a6109cd9190612784565b633b9aca006109dc91906127ce565b611d7090919063ffffffff16565b611de790919063ffffffff16565b610a0130610733565b611e3090919063ffffffff16565b9050737a250d5630b4cf539739df2c5dacb4c659f2488d600a5f6101000a81548173ffffffffffffffffffffffffffffffffffffffff021916908373ffffffffffffffffffffffffffffffffffffffff160217905550610aad30600a5f9054906101000a900473ffffffffffffffffffffffffffffffffffffffff166009600a610a999190612784565b633b9aca00610aa891906127ce565b6111d2565b600a5f9054906101000a900473ffffffffffffffffffffffffffffffffffffffff1673ffffffffffffffffffffffffffffffffffffffff1663c45a01556040518163ffffffff1660e01b8152600401602060405180830381865afa158015610b17573d5f803e3d5ffd5b505050506040513d601f19601f82011682018060405250810190610b3b919061288b565b73ffffffffffffffffffffffffffffffffffffffff1663c9c6539630600a5f9054906101000a900473ffffffffffffffffffffffffffffffffffffffff1673ffffffffffffffffffffffffffffffffffffffff1663ad5c46486040518163ffffffff1660e01b8152600401602060405180830381865afa158015610bc1573d5f803e3d5ffd5b505050506040513d601f19601f82011682018060405250810190610be5919061288b565b6040518363ffffffff1660e01b8152600401610c029291906128b6565b6020604051808303815f875af1158015610c1e573d5f803e3d5ffd5b505050506040513d601f19601f82011682018060405250810190610c42919061288b565b600b5f6101000a81548173ffffffffffffffffffffffffffffffffffffffff021916908373ffffffffffffffffffffffffffffffffffffffff160217905550600a5f9054906101000a900473ffffffffffffffffffffffffffffffffffffffff1673ffffffffffffffffffffffffffffffffffffffff1663f305d7194730845f80610ccb6111cb565b426040518863ffffffff1660e01b8152600401610ced9695949392919061291f565b60606040518083038185885af1158015610d09573d5f803e3d5ffd5b50505050506040513d601f19601f82011682018060405250810190610d2e9190612992565b505050600b5f9054906101000a900473ffffffffffffffffffffffffffffffffffffffff1673ffffffffffffffffffffffffffffffffffffffff1663095ea7b3600a5f9054906101000a900473ffffffffffffffffffffffffffffffffffffffff167fffffffffffffffffffffffffffffffffffffffffffffffffffffffffffffffff6040518363ffffffff1660e01b8152600401610dce9291906129e2565b6020604051808303815f875af1158015610dea573d5f803e3d5ffd5b505050506040513d601f19601f82011682018060405250810190610e0e9190612a33565b5050565b5f805f9054906101000a900473ffffffffffffffffffffffffffffffffffffffff16905090565b60095481565b60606040518060400160405280600381526020017f6841490000000000000000000000000000000000000000000000000000000000815250905090565b5f610e8f610e886111cb565b8484611360565b6001905092915050565b6009600a610ea79190612784565b620f4240610eb591906127ce565b81565b610ec06111cb565b73ffffffffffffffffffffffffffffffffffffffff165f8054906101000a900473ffffffffffffffffffffffffffffffffffffffff1673ffffffffffffffffffffffffffffffffffffffff1614610f4c576040517f08c379a0000000000000000000000000000000000000000000000000000000008152600401610f439061257b565b60405180910390fd5b601e8211158015610f5e5750601e8111155b8015610f765750600b60149054906101000a900460ff165b610fb5576040517f08c379a0000000000000000000000000000000000000000000000000000000008152600401610fac90612aa8565b60405180910390fd5b81600581905550806006819055507f78009e5656a5c60b3c047015fb856b2efbc6f42beed76119406d7d4e3fc161f48282604051610ff4929190612ac6565b60405180910390a15050565b5f60025f8473ffffffffffffffffffffffffffffffffffffffff1673ffffffffffffffffffffffffffffffffffffffff1681526020019081526020015f205f8373ffffffffffffffffffffffffffffffffffffffff1673ffffffffffffffffffffffffffffffffffffffff1681526020019081526020015f2054905092915050565b61108a6111cb565b73ffffffffffffffffffffffffffffffffffffffff165f8054906101000a900473ffffffffffffffffffffffffffffffffffffffff1673ffffffffffffffffffffffffffffffffffffffff1614611116576040517f08c379a000000000000000000000000000000000000000000000000000000000815260040161110d9061257b565b60405180910390fd5b5f600b60156101000a81548160ff0219169083151502179055506009600a61113e9190612784565b633b9aca0061114d91906127ce565b6008819055506009600a6111619190612784565b633b9aca0061117091906127ce565b6009819055507f69ada53addde5123341ce3a822c5f66292103b2771e41e1f3c00c2de8a63a7f96009600a6111a59190612784565b633b9aca006111b491906127ce565b6040516111c191906123c5565b60405180910390a1565b5f33905090565b5f73ffffffffffffffffffffffffffffffffffffffff168373ffffffffffffffffffffffffffffffffffffffff161415801561123a57505f73ffffffffffffffffffffffffffffffffffffffff168273ffffffffffffffffffffffffffffffffffffffff1614155b611279576040517f08c379a000000000000000000000000000000000000000000000000000000000815260040161127090612b37565b60405180910390fd5b8060025f8573ffffffffffffffffffffffffffffffffffffffff1673ffffffffffffffffffffffffffffffffffffffff1681526020019081526020015f205f8473ffffffffffffffffffffffffffffffffffffffff1673ffffffffffffffffffffffffffffffffffffffff1681526020019081526020015f20819055508173ffffffffffffffffffffffffffffffffffffffff168373ffffffffffffffffffffffffffffffffffffffff167f8c5be1e5ebec7d5bd14f71427d1e84f3dd0314c0f7b2291e5b200ac8c7c3b9258360405161135391906123c5565b60405180910390a3505050565b5f73ffffffffffffffffffffffffffffffffffffffff168373ffffffffffffffffffffffffffffffffffffffff16141580156113c857505f73ffffffffffffffffffffffffffffffffffffffff168273ffffffffffffffffffffffffffffffffffffffff1614155b611407576040517f08c379a00000000000000000000000000000000000000000000000000000000081526004016113fe90612b9f565b60405180910390fd5b5f8111611449576040517f08c379a000000000000000000000000000000000000000000000000000000000815260040161144090612c2d565b60405180910390fd5b5f611452610e12565b73ffffffffffffffffffffffffffffffffffffffff168473ffffffffffffffffffffffffffffffffffffffff16141580156114c05750611490610e12565b73ffffffffffffffffffffffffffffffffffffffff168373ffffffffffffffffffffffffffffffffffffffff1614155b15611a5e57600b60149054906101000a900460ff166115b45760035f8573ffffffffffffffffffffffffffffffffffffffff1673ffffffffffffffffffffffffffffffffffffffff1681526020019081526020015f205f9054906101000a900460ff1680611574575060035f8473ffffffffffffffffffffffffffffffffffffffff1673ffffffffffffffffffffffffffffffffffffffff1681526020019081526020015f205f9054906101000a900460ff165b6115b3576040517f08c379a00000000000000000000000000000000000000000000000000000000081526004016115aa90612c95565b60405180910390fd5b5b600b5f9054906101000a900473ffffffffffffffffffffffffffffffffffffffff1673ffffffffffffffffffffffffffffffffffffffff168473ffffffffffffffffffffffffffffffffffffffff1614801561165d5750600a5f9054906101000a900473ffffffffffffffffffffffffffffffffffffffff1673ffffffffffffffffffffffffffffffffffffffff168373ffffffffffffffffffffffffffffffffffffffff1614155b80156116b0575060035f8473ffffffffffffffffffffffffffffffffffffffff1673ffffffffffffffffffffffffffffffffffffffff1681526020019081526020015f205f9054906101000a900460ff16155b1561178057600b60159054906101000a900460ff16156117685760085482111561170f576040517f08c379a000000000000000000000000000000000000000000000000000000000815260040161170690612cfd565b60405180910390fd5b6009548261171c85610733565b6117269190612d1b565b1115611767576040517f08c379a000000000000000000000000000000000000000000000000000000000815260040161175e90612d98565b60405180910390fd5b5b60075f81548092919061177a90612db6565b91905055505b600b5f9054906101000a900473ffffffffffffffffffffffffffffffffffffffff1673ffffffffffffffffffffffffffffffffffffffff168373ffffffffffffffffffffffffffffffffffffffff1614801561180857503073ffffffffffffffffffffffffffffffffffffffff168473ffffffffffffffffffffffffffffffffffffffff1614155b1561184e576118476064611839602d6007541161182657601461182a565b6006545b85611d7090919063ffffffff16565b611de790919063ffffffff16565b9050611919565b600b5f9054906101000a900473ffffffffffffffffffffffffffffffffffffffff1673ffffffffffffffffffffffffffffffffffffffff168473ffffffffffffffffffffffffffffffffffffffff161480156118d657503073ffffffffffffffffffffffffffffffffffffffff168373ffffffffffffffffffffffffffffffffffffffff1614155b15611918576119156064611907602d600754116118f45760146118f8565b6005545b85611d7090919063ffffffff16565b611de790919063ffffffff16565b90505b5b5f61192330610733565b9050600b60169054906101000a900460ff1615801561198e5750600b5f9054906101000a900473ffffffffffffffffffffffffffffffffffffffff1673ffffffffffffffffffffffffffffffffffffffff168473ffffffffffffffffffffffffffffffffffffffff16145b80156119a65750600b60179054906101000a900460ff165b80156119cc57506009600a6119bb9190612784565b620f42406119c991906127ce565b81115b80156119da57506019600754115b15611a5c575f6009600a6119ee9190612784565b629896806119fc91906127ce565b8211611a085781611a25565b6009600a611a169190612784565b62989680611a2491906127ce565b5b90505f818511611a355784611a37565b815b9050611a4281611e79565b5f4790505f811115611a5857611a57476120e4565b5b5050505b505b5f811115611b5d57611ab68160015f3073ffffffffffffffffffffffffffffffffffffffff1673ffffffffffffffffffffffffffffffffffffffff1681526020019081526020015f205461214c90919063ffffffff16565b60015f3073ffffffffffffffffffffffffffffffffffffffff1673ffffffffffffffffffffffffffffffffffffffff1681526020019081526020015f20819055503073ffffffffffffffffffffffffffffffffffffffff168473ffffffffffffffffffffffffffffffffffffffff167fddf252ad1be2c89b69c2b068fc378daa952ba7f163c4a11628f55a4df523b3ef83604051611b5491906123c5565b60405180910390a35b611bad8260015f8773ffffffffffffffffffffffffffffffffffffffff1673ffffffffffffffffffffffffffffffffffffffff1681526020019081526020015f2054611e3090919063ffffffff16565b60015f8673ffffffffffffffffffffffffffffffffffffffff1673ffffffffffffffffffffffffffffffffffffffff1681526020019081526020015f2081905550611c50611c048284611e3090919063ffffffff16565b60015f8673ffffffffffffffffffffffffffffffffffffffff1673ffffffffffffffffffffffffffffffffffffffff1681526020019081526020015f205461214c90919063ffffffff16565b60015f8573ffffffffffffffffffffffffffffffffffffffff1673ffffffffffffffffffffffffffffffffffffffff1681526020019081526020015f20819055508273ffffffffffffffffffffffffffffffffffffffff168473ffffffffffffffffffffffffffffffffffffffff167fddf252ad1be2c89b69c2b068fc378daa952ba7f163c4a11628f55a4df523b3ef611cf38486611e3090919063ffffffff16565b604051611d0091906123c5565b60405180910390a350505050565b5f838311158290611d55576040517f08c379a0000000000000000000000000000000000000000000000000000000008152600401611d4c9190612294565b60405180910390fd5b505f8385611d639190612dfd565b9050809150509392505050565b5f808303611d80575f9050611de1565b5f8284611d8d91906127ce565b9050828482611d9c9190612e5d565b14611ddc576040517f08c379a0000000000000000000000000000000000000000000000000000000008152600401611dd390612efd565b60405180910390fd5b809150505b92915050565b5f611e2883836040518060400160405280601a81526020017f536166654d6174683a206469766973696f6e206279207a65726f0000000000008152506121a9565b905092915050565b5f611e7183836040518060400160405280601e81526020017f536166654d6174683a207375627472616374696f6e206f766572666c6f770000815250611d0e565b905092915050565b6001600b60166101000a81548160ff0219169083151502179055505f600267ffffffffffffffff811115611eb057611eaf612f1b565b5b604051908082528060200260200182016040528015611ede5781602001602082028036833780820191505090505b50905030815f81518110611ef557611ef4612f48565b5b602002602001019073ffffffffffffffffffffffffffffffffffffffff16908173ffffffffffffffffffffffffffffffffffffffff1681525050600a5f9054906101000a900473ffffffffffffffffffffffffffffffffffffffff1673ffffffffffffffffffffffffffffffffffffffff1663ad5c46486040518163ffffffff1660e01b8152600401602060405180830381865afa158015611f99573d5f803e3d5ffd5b505050506040513d601f19601f82011682018060405250810190611fbd919061288b565b81600181518110611fd157611fd0612f48565b5b602002602001019073ffffffffffffffffffffffffffffffffffffffff16908173ffffffffffffffffffffffffffffffffffffffff168152505061203730600a5f9054906101000a900473ffffffffffffffffffffffffffffffffffffffff16846111d2565b600a5f9054906101000a900473ffffffffffffffffffffffffffffffffffffffff1673ffffffffffffffffffffffffffffffffffffffff1663791ac947835f8430426040518663ffffffff1660e01b815260040161209995949392919061302c565b5f604051808303815f87803b1580156120b0575f80fd5b505af11580156120c2573d5f803e3d5ffd5b50505050505f600b60166101000a81548160ff02191690831515021790555050565b60045f9054906101000a900473ffffffffffffffffffffffffffffffffffffffff1673ffffffffffffffffffffffffffffffffffffffff166108fc8290811502906040515f60405180830381858888f19350505050158015612148573d5f803e3d5ffd5b5050565b5f80828461215a9190612d1b565b90508381101561219f576040517f08c379a0000000000000000000000000000000000000000000000000000000008152600401612196906130ce565b60405180910390fd5b8091505092915050565b5f80831182906121ef576040517f08c379a00000000000000000000000000000000000000000000000000000000081526004016121e69190612294565b60405180910390fd5b505f83856121fd9190612e5d565b9050809150509392505050565b5f81519050919050565b5f82825260208201905092915050565b5f5b83811015612241578082015181840152602081019050612226565b5f8484015250505050565b5f601f19601f8301169050919050565b5f6122668261220a565b6122708185612214565b9350612280818560208601612224565b6122898161224c565b840191505092915050565b5f6020820190508181035f8301526122ac818461225c565b905092915050565b5f80fd5b5f73ffffffffffffffffffffffffffffffffffffffff82169050919050565b5f6122e1826122b8565b9050919050565b6122f1816122d7565b81146122fb575f80fd5b50565b5f8135905061230c816122e8565b92915050565b5f819050919050565b61232481612312565b811461232e575f80fd5b50565b5f8135905061233f8161231b565b92915050565b5f806040838503121561235b5761235a6122b4565b5b5f612368858286016122fe565b925050602061237985828601612331565b9150509250929050565b5f8115159050919050565b61239781612383565b82525050565b5f6020820190506123b05f83018461238e565b92915050565b6123bf81612312565b82525050565b5f6020820190506123d85f8301846123b6565b92915050565b5f805f606084860312156123f5576123f46122b4565b5b5f612402868287016122fe565b9350506020612413868287016122fe565b925050604061242486828701612331565b9150509250925092565b5f60ff82169050919050565b6124438161242e565b82525050565b5f60208201905061245c5f83018461243a565b92915050565b5f60208284031215612477576124766122b4565b5b5f612484848285016122fe565b91505092915050565b612496816122d7565b82525050565b5f6020820190506124af5f83018461248d565b92915050565b5f80604083850312156124cb576124ca6122b4565b5b5f6124d885828601612331565b92505060206124e985828601612331565b9150509250929050565b5f8060408385031215612509576125086122b4565b5b5f612516858286016122fe565b9250506020612527858286016122fe565b9150509250929050565b7f4f776e61626c653a2063616c6c6572206973206e6f7420746865206f776e65725f82015250565b5f612565602083612214565b915061257082612531565b602082019050919050565b5f6020820190508181035f83015261259281612559565b9050919050565b7f74726164696e6720616c7265616479206f70656e0000000000000000000000005f82015250565b5f6125cd601483612214565b91506125d882612599565b602082019050919050565b5f6020820190508181035f8301526125fa816125c1565b9050919050565b5f6040820190506126145f83018561238e565b612621602083018461238e565b9392505050565b7f4e487b71000000000000000000000000000000000000000000000000000000005f52601160045260245ffd5b5f8160011c9050919050565b5f808291508390505b60018511156126aa5780860481111561268657612685612628565b5b60018516156126955780820291505b80810290506126a385612655565b945061266a565b94509492505050565b5f826126c2576001905061277d565b816126cf575f905061277d565b81600181146126e557600281146126ef5761271e565b600191505061277d565b60ff84111561270157612700612628565b5b8360020a91508482111561271857612717612628565b5b5061277d565b5060208310610133831016604e8410600b84101617156127535782820a90508381111561274e5761274d612628565b5b61277d565b6127608484846001612661565b9250905081840481111561277757612776612628565b5b81810290505b9392505050565b5f61278e82612312565b91506127998361242e565b92506127c67fffffffffffffffffffffffffffffffffffffffffffffffffffffffffffffffff84846126b3565b905092915050565b5f6127d882612312565b91506127e383612312565b92508282026127f181612312565b9150828204841483151761280857612807612628565b5b5092915050565b7f696e697420616c72656164792063616c6c6564000000000000000000000000005f82015250565b5f612843601383612214565b915061284e8261280f565b602082019050919050565b5f6020820190508181035f83015261287081612837565b9050919050565b5f81519050612885816122e8565b92915050565b5f602082840312156128a05761289f6122b4565b5b5f6128ad84828501612877565b91505092915050565b5f6040820190506128c95f83018561248d565b6128d6602083018461248d565b9392505050565b5f819050919050565b5f819050919050565b5f6129096129046128ff846128dd565b6128e6565b612312565b9050919050565b612919816128ef565b82525050565b5f60c0820190506129325f83018961248d565b61293f60208301886123b6565b61294c6040830187612910565b6129596060830186612910565b612966608083018561248d565b61297360a08301846123b6565b979650505050505050565b5f8151905061298c8161231b565b92915050565b5f805f606084860312156129a9576129a86122b4565b5b5f6129b68682870161297e565b93505060206129c78682870161297e565b92505060406129d88682870161297e565b9150509250925092565b5f6040820190506129f55f83018561248d565b612a0260208301846123b6565b9392505050565b612a1281612383565b8114612a1c575f80fd5b50565b5f81519050612a2d81612a09565b92915050565b5f60208284031215612a4857612a476122b4565b5b5f612a5584828501612a1f565b91505092915050565b7f457863656564732076616c7565000000000000000000000000000000000000005f82015250565b5f612a92600d83612214565b9150612a9d82612a5e565b602082019050919050565b5f6020820190508181035f830152612abf81612a86565b9050919050565b5f604082019050612ad95f8301856123b6565b612ae660208301846123b6565b9392505050565b7f45524332303a20617070726f766520746865207a65726f2061646472657373005f82015250565b5f612b21601f83612214565b9150612b2c82612aed565b602082019050919050565b5f6020820190508181035f830152612b4e81612b15565b9050919050565b7f45524332303a207472616e7366657220746865207a65726f20616464726573735f82015250565b5f612b89602083612214565b9150612b9482612b55565b602082019050919050565b5f6020820190508181035f830152612bb681612b7d565b9050919050565b7f5472616e7366657220616d6f756e74206d7573742062652067726561746572205f8201527f7468616e207a65726f0000000000000000000000000000000000000000000000602082015250565b5f612c17602983612214565b9150612c2282612bbd565b604082019050919050565b5f6020820190508181035f830152612c4481612c0b565b9050919050565b7f74726164696e67206973206e6f7420796574206f70656e0000000000000000005f82015250565b5f612c7f601783612214565b9150612c8a82612c4b565b602082019050919050565b5f6020820190508181035f830152612cac81612c73565b9050919050565b7f4578636565647320746865205f6d61785478416d6f756e742e000000000000005f82015250565b5f612ce7601983612214565b9150612cf282612cb3565b602082019050919050565b5f6020820190508181035f830152612d1481612cdb565b9050919050565b5f612d2582612312565b9150612d3083612312565b9250828201905080821115612d4857612d47612628565b5b92915050565b7f4578636565647320746865206d617857616c6c657453697a652e0000000000005f82015250565b5f612d82601a83612214565b9150612d8d82612d4e565b602082019050919050565b5f6020820190508181035f830152612daf81612d76565b9050919050565b5f612dc082612312565b91507fffffffffffffffffffffffffffffffffffffffffffffffffffffffffffffffff8203612df257612df1612628565b5b600182019050919050565b5f612e0782612312565b9150612e1283612312565b9250828203905081811115612e2a57612e29612628565b5b92915050565b7f4e487b71000000000000000000000000000000000000000000000000000000005f52601260045260245ffd5b5f612e6782612312565b9150612e7283612312565b925082612e8257612e81612e30565b5b828204905092915050565b7f536166654d6174683a206d756c7469706c69636174696f6e206f766572666c6f5f8201527f7700000000000000000000000000000000000000000000000000000000000000602082015250565b5f612ee7602183612214565b9150612ef282612e8d565b604082019050919050565b5f6020820190508181035f830152612f1481612edb565b9050919050565b7f4e487b71000000000000000000000000000000000000000000000000000000005f52604160045260245ffd5b7f4e487b71000000000000000000000000000000000000000000000000000000005f52603260045260245ffd5b5f81519050919050565b5f82825260208201905092915050565b5f819050602082019050919050565b612fa7816122d7565b82525050565b5f612fb88383612f9e565b60208301905092915050565b5f602082019050919050565b5f612fda82612f75565b612fe48185612f7f565b9350612fef83612f8f565b805f5b8381101561301f5781516130068882612fad565b975061301183612fc4565b925050600181019050612ff2565b5085935050505092915050565b5f60a08201905061303f5f8301886123b6565b61304c6020830187612910565b818103604083015261305e8186612fd0565b905061306d606083018561248d565b61307a60808301846123b6565b9695505050505050565b7f536166654d6174683a206164646974696f6e206f766572666c6f7700000000005f82015250565b5f6130b8601b83612214565b91506130c382613084565b602082019050919050565b5f6020820190508181035f8301526130e5816130ac565b905091905056fe45524332303a207472616e7366657220616d6f756e74206578636565647320616c6c6f77616e6365a26469706673582212205e7b8068f42f59e7cae8afe1a2d76d2d6010bfe4a38dd66553b5b252a40d92d664736f6c63430008140033",
					"opcodes": "PUSH1 0x80 PUSH1 0x40 MSTORE PUSH1 0x19 PUSH1 0x5 SSTORE PUSH1 0x19 PUSH1 0x6 SSTORE PUSH0 PUSH1 0x7 SSTORE PUSH1 0x9 PUSH1 0xA PUSH3 0x22 SWAP2 SWAP1 PUSH3 0x61A JUMP JUMPDEST PUSH3 0x989680 PUSH3 0x32 SWAP2 SWAP1 PUSH3 0x66A JUMP JUMPDEST PUSH1 0x8 SSTORE PUSH1 0x9 PUSH1 0xA PUSH3 0x45 SWAP2 SWAP1 PUSH3 0x61A JUMP JUMPDEST PUSH3 0x989680 PUSH3 0x55 SWAP2 SWAP1 PUSH3 0x66A JUMP JUMPDEST PUSH1 0x9 SSTORE PUSH1 0x1 PUSH1 0xB PUSH1 0x15 PUSH2 0x100 EXP DUP2 SLOAD DUP2 PUSH1 0xFF MUL NOT AND SWAP1 DUP4 ISZERO ISZERO MUL OR SWAP1 SSTORE POP PUSH0 PUSH1 0xB PUSH1 0x16 PUSH2 0x100 EXP DUP2 SLOAD DUP2 PUSH1 0xFF MUL NOT AND SWAP1 DUP4 ISZERO ISZERO MUL OR SWAP1 SSTORE POP PUSH0 PUSH1 0xB PUSH1 0x17 PUSH2 0x100 EXP DUP2 SLOAD DUP2 PUSH1 0xFF MUL NOT AND SWAP1 DUP4 ISZERO ISZERO MUL OR SWAP1 SSTORE POP CALLVALUE DUP1 ISZERO PUSH3 0xB3 JUMPI PUSH0 DUP1 REVERT JUMPDEST POP PUSH1 0x40 MLOAD PUSH3 0x38CD CODESIZE SUB DUP1 PUSH3 0x38CD DUP4 CODECOPY DUP2 DUP2 ADD PUSH1 0x40 MSTORE DUP2 ADD SWAP1 PUSH3 0xD9 SWAP2 SWAP1 PUSH3 0x719 JUMP JUMPDEST PUSH0 PUSH3 0xEA PUSH3 0x45A PUSH1 0x20 SHL PUSH1 0x20 SHR JUMP JUMPDEST SWAP1 POP DUP1 PUSH0 DUP1 PUSH2 0x100 EXP DUP2 SLOAD DUP2 PUSH20 0xFFFFFFFFFFFFFFFFFFFFFFFFFFFFFFFFFFFFFFFF MUL NOT AND SWAP1 DUP4 PUSH20 0xFFFFFFFFFFFFFFFFFFFFFFFFFFFFFFFFFFFFFFFF AND MUL OR SWAP1 SSTORE POP DUP1 PUSH20 0xFFFFFFFFFFFFFFFFFFFFFFFFFFFFFFFFFFFFFFFF AND PUSH0 PUSH20 0xFFFFFFFFFFFFFFFFFFFFFFFFFFFFFFFFFFFFFFFF AND PUSH32 0x8BE0079C531659141344CD1FD0A4F28419497F9722A3DAAFE3B4186F6B6457E0 PUSH1 0x40 MLOAD PUSH1 0x40 MLOAD DUP1 SWAP2 SUB SWAP1 LOG3 POP DUP1 PUSH1 0x4 PUSH0 PUSH2 0x100 EXP DUP2 SLOAD DUP2 PUSH20 0xFFFFFFFFFFFFFFFFFFFFFFFFFFFFFFFFFFFFFFFF MUL NOT AND SWAP1 DUP4 PUSH20 0xFFFFFFFFFFFFFFFFFFFFFFFFFFFFFFFFFFFFFFFF AND MUL OR SWAP1 SSTORE POP PUSH1 0x9 PUSH1 0xA PUSH3 0x1D6 SWAP2 SWAP1 PUSH3 0x61A JUMP JUMPDEST PUSH4 0x3B9ACA00 PUSH3 0x1E7 SWAP2 SWAP1 PUSH3 0x66A JUMP JUMPDEST PUSH1 0x1 PUSH0 PUSH3 0x1FA PUSH3 0x45A PUSH1 0x20 SHL PUSH1 0x20 SHR JUMP JUMPDEST PUSH20 0xFFFFFFFFFFFFFFFFFFFFFFFFFFFFFFFFFFFFFFFF AND PUSH20 0xFFFFFFFFFFFFFFFFFFFFFFFFFFFFFFFFFFFFFFFF AND DUP2 MSTORE PUSH1 0x20 ADD SWAP1 DUP2 MSTORE PUSH1 0x20 ADD PUSH0 KECCAK256 DUP2 SWAP1 SSTORE POP PUSH1 0x1 PUSH1 0x3 PUSH0 PUSH3 0x24C PUSH3 0x461 PUSH1 0x20 SHL PUSH1 0x20 SHR JUMP JUMPDEST PUSH20 0xFFFFFFFFFFFFFFFFFFFFFFFFFFFFFFFFFFFFFFFF AND PUSH20 0xFFFFFFFFFFFFFFFFFFFFFFFFFFFFFFFFFFFFFFFF AND DUP2 MSTORE PUSH1 0x20 ADD SWAP1 DUP2 MSTORE PUSH1 0x20 ADD PUSH0 KECCAK256 PUSH0 PUSH2 0x100 EXP DUP2 SLOAD DUP2 PUSH1 0xFF MUL NOT AND SWAP1 DUP4 ISZERO ISZERO MUL OR SWAP1 SSTORE POP PUSH1 0x1 PUSH1 0x3 PUSH0 PUSH1 0x4 PUSH0 SWAP1 SLOAD SWAP1 PUSH2 0x100 EXP SWAP1 DIV PUSH20 0xFFFFFFFFFFFFFFFFFFFFFFFFFFFFFFFFFFFFFFFF AND PUSH20 0xFFFFFFFFFFFFFFFFFFFFFFFFFFFFFFFFFFFFFFFF AND PUSH20 0xFFFFFFFFFFFFFFFFFFFFFFFFFFFFFFFFFFFFFFFF AND DUP2 MSTORE PUSH1 0x20 ADD SWAP1 DUP2 MSTORE PUSH1 0x20 ADD PUSH0 KECCAK256 PUSH0 PUSH2 0x100 EXP DUP2 SLOAD DUP2 PUSH1 0xFF MUL NOT AND SWAP1 DUP4 ISZERO ISZERO MUL OR SWAP1 SSTORE POP PUSH1 0x1 PUSH1 0x3 PUSH0 PUSH2 0xDEAD PUSH20 0xFFFFFFFFFFFFFFFFFFFFFFFFFFFFFFFFFFFFFFFF AND PUSH20 0xFFFFFFFFFFFFFFFFFFFFFFFFFFFFFFFFFFFFFFFF AND DUP2 MSTORE PUSH1 0x20 ADD SWAP1 DUP2 MSTORE PUSH1 0x20 ADD PUSH0 KECCAK256 PUSH0 PUSH2 0x100 EXP DUP2 SLOAD DUP2 PUSH1 0xFF MUL NOT AND SWAP1 DUP4 ISZERO ISZERO MUL OR SWAP1 SSTORE POP PUSH1 0x1 PUSH1 0x3 PUSH0 ADDRESS PUSH20 0xFFFFFFFFFFFFFFFFFFFFFFFFFFFFFFFFFFFFFFFF AND PUSH20 0xFFFFFFFFFFFFFFFFFFFFFFFFFFFFFFFFFFFFFFFF AND DUP2 MSTORE PUSH1 0x20 ADD SWAP1 DUP2 MSTORE PUSH1 0x20 ADD PUSH0 KECCAK256 PUSH0 PUSH2 0x100 EXP DUP2 SLOAD DUP2 PUSH1 0xFF MUL NOT AND SWAP1 DUP4 ISZERO ISZERO MUL OR SWAP1 SSTORE POP PUSH3 0x3CD PUSH3 0x45A PUSH1 0x20 SHL PUSH1 0x20 SHR JUMP JUMPDEST PUSH20 0xFFFFFFFFFFFFFFFFFFFFFFFFFFFFFFFFFFFFFFFF AND PUSH0 PUSH20 0xFFFFFFFFFFFFFFFFFFFFFFFFFFFFFFFFFFFFFFFF AND PUSH32 0xDDF252AD1BE2C89B69C2B068FC378DAA952BA7F163C4A11628F55A4DF523B3EF PUSH1 0x9 PUSH1 0xA PUSH3 0x42B SWAP2 SWAP1 PUSH3 0x61A JUMP JUMPDEST PUSH4 0x3B9ACA00 PUSH3 0x43C SWAP2 SWAP1 PUSH3 0x66A JUMP JUMPDEST PUSH1 0x40 MLOAD PUSH3 0x44B SWAP2 SWAP1 PUSH3 0x75A JUMP JUMPDEST PUSH1 0x40 MLOAD DUP1 SWAP2 SUB SWAP1 LOG3 POP PUSH3 0x775 JUMP JUMPDEST PUSH0 CALLER SWAP1 POP SWAP1 JUMP JUMPDEST PUSH0 DUP1 PUSH0 SWAP1 SLOAD SWAP1 PUSH2 0x100 EXP SWAP1 DIV PUSH20 0xFFFFFFFFFFFFFFFFFFFFFFFFFFFFFFFFFFFFFFFF AND SWAP1 POP SWAP1 JUMP JUMPDEST PUSH32 0x4E487B7100000000000000000000000000000000000000000000000000000000 PUSH0 MSTORE PUSH1 0x11 PUSH1 0x4 MSTORE PUSH1 0x24 PUSH0 REVERT JUMPDEST PUSH0 DUP2 PUSH1 0x1 SHR SWAP1 POP SWAP2 SWAP1 POP JUMP JUMPDEST PUSH0 DUP1 DUP3 SWAP2 POP DUP4 SWAP1 POP JUMPDEST PUSH1 0x1 DUP6 GT ISZERO PUSH3 0x512 JUMPI DUP1 DUP7 DIV DUP2 GT ISZERO PUSH3 0x4EA JUMPI PUSH3 0x4E9 PUSH3 0x488 JUMP JUMPDEST JUMPDEST PUSH1 0x1 DUP6 AND ISZERO PUSH3 0x4FA JUMPI DUP1 DUP3 MUL SWAP2 POP JUMPDEST DUP1 DUP2 MUL SWAP1 POP PUSH3 0x50A DUP6 PUSH3 0x4B5 JUMP JUMPDEST SWAP5 POP PUSH3 0x4CA JUMP JUMPDEST SWAP5 POP SWAP5 SWAP3 POP POP POP JUMP JUMPDEST PUSH0 DUP3 PUSH3 0x52C JUMPI PUSH1 0x1 SWAP1 POP PUSH3 0x5FE JUMP JUMPDEST DUP2 PUSH3 0x53B JUMPI PUSH0 SWAP1 POP PUSH3 0x5FE JUMP JUMPDEST DUP2 PUSH1 0x1 DUP2 EQ PUSH3 0x554 JUMPI PUSH1 0x2 DUP2 EQ PUSH3 0x55F JUMPI PUSH3 0x595 JUMP JUMPDEST PUSH1 0x1 SWAP2 POP POP PUSH3 0x5FE JUMP JUMPDEST PUSH1 0xFF DUP5 GT ISZERO PUSH3 0x574 JUMPI PUSH3 0x573 PUSH3 0x488 JUMP JUMPDEST JUMPDEST DUP4 PUSH1 0x2 EXP SWAP2 POP DUP5 DUP3 GT ISZERO PUSH3 0x58E JUMPI PUSH3 0x58D PUSH3 0x488 JUMP JUMPDEST JUMPDEST POP PUSH3 0x5FE JUMP JUMPDEST POP PUSH1 0x20 DUP4 LT PUSH2 0x133 DUP4 LT AND PUSH1 0x4E DUP5 LT PUSH1 0xB DUP5 LT AND OR ISZERO PUSH3 0x5CF JUMPI DUP3 DUP3 EXP SWAP1 POP DUP4 DUP2 GT ISZERO PUSH3 0x5C9 JUMPI PUSH3 0x5C8 PUSH3 0x488 JUMP JUMPDEST JUMPDEST PUSH3 0x5FE JUMP JUMPDEST PUSH3 0x5DE DUP5 DUP5 DUP5 PUSH1 0x1 PUSH3 0x4C1 JUMP JUMPDEST SWAP3 POP SWAP1 POP DUP2 DUP5 DIV DUP2 GT ISZERO PUSH3 0x5F8 JUMPI PUSH3 0x5F7 PUSH3 0x488 JUMP JUMPDEST JUMPDEST DUP2 DUP2 MUL SWAP1 POP JUMPDEST SWAP4 SWAP3 POP POP POP JUMP JUMPDEST PUSH0 DUP2 SWAP1 POP SWAP2 SWAP1 POP JUMP JUMPDEST PUSH0 PUSH1 0xFF DUP3 AND SWAP1 POP SWAP2 SWAP1 POP JUMP JUMPDEST PUSH0 PUSH3 0x626 DUP3 PUSH3 0x605 JUMP JUMPDEST SWAP2 POP PUSH3 0x633 DUP4 PUSH3 0x60E JUMP JUMPDEST SWAP3 POP PUSH3 0x662 PUSH32 0xFFFFFFFFFFFFFFFFFFFFFFFFFFFFFFFFFFFFFFFFFFFFFFFFFFFFFFFFFFFFFFFF DUP5 DUP5 PUSH3 0x51B JUMP JUMPDEST SWAP1 POP SWAP3 SWAP2 POP POP JUMP JUMPDEST PUSH0 PUSH3 0x676 DUP3 PUSH3 0x605 JUMP JUMPDEST SWAP2 POP PUSH3 0x683 DUP4 PUSH3 0x605 JUMP JUMPDEST SWAP3 POP DUP3 DUP3 MUL PUSH3 0x693 DUP2 PUSH3 0x605 JUMP JUMPDEST SWAP2 POP DUP3 DUP3 DIV DUP5 EQ DUP4 ISZERO OR PUSH3 0x6AD JUMPI PUSH3 0x6AC PUSH3 0x488 JUMP JUMPDEST JUMPDEST POP SWAP3 SWAP2 POP POP JUMP JUMPDEST PUSH0 DUP1 REVERT JUMPDEST PUSH0 PUSH20 0xFFFFFFFFFFFFFFFFFFFFFFFFFFFFFFFFFFFFFFFF DUP3 AND SWAP1 POP SWAP2 SWAP1 POP JUMP JUMPDEST PUSH0 PUSH3 0x6E3 DUP3 PUSH3 0x6B8 JUMP JUMPDEST SWAP1 POP SWAP2 SWAP1 POP JUMP JUMPDEST PUSH3 0x6F5 DUP2 PUSH3 0x6D7 JUMP JUMPDEST DUP2 EQ PUSH3 0x700 JUMPI PUSH0 DUP1 REVERT JUMPDEST POP JUMP JUMPDEST PUSH0 DUP2 MLOAD SWAP1 POP PUSH3 0x713 DUP2 PUSH3 0x6EA JUMP JUMPDEST SWAP3 SWAP2 POP POP JUMP JUMPDEST PUSH0 PUSH1 0x20 DUP3 DUP5 SUB SLT ISZERO PUSH3 0x731 JUMPI PUSH3 0x730 PUSH3 0x6B4 JUMP JUMPDEST JUMPDEST PUSH0 PUSH3 0x740 DUP5 DUP3 DUP6 ADD PUSH3 0x703 JUMP JUMPDEST SWAP2 POP POP SWAP3 SWAP2 POP POP JUMP JUMPDEST PUSH3 0x754 DUP2 PUSH3 0x605 JUMP JUMPDEST DUP3 MSTORE POP POP JUMP JUMPDEST PUSH0 PUSH1 0x20 DUP3 ADD SWAP1 POP PUSH3 0x76F PUSH0 DUP4 ADD DUP5 PUSH3 0x749 JUMP JUMPDEST SWAP3 SWAP2 POP POP JUMP JUMPDEST PUSH2 0x314A DUP1 PUSH3 0x783 PUSH0 CODECOPY PUSH0 RETURN INVALID PUSH1 0x80 PUSH1 0x40 MSTORE PUSH1 0x4 CALLDATASIZE LT PUSH2 0x117 JUMPI PUSH0 CALLDATALOAD PUSH1 0xE0 SHR DUP1 PUSH4 0x7D1DB4A5 GT PUSH2 0x9F JUMPI DUP1 PUSH4 0xA9059CBB GT PUSH2 0x63 JUMPI DUP1 PUSH4 0xA9059CBB EQ PUSH2 0x368 JUMPI DUP1 PUSH4 0xBF474BED EQ PUSH2 0x3A4 JUMPI DUP1 PUSH4 0xD007CD4A EQ PUSH2 0x3CE JUMPI DUP1 PUSH4 0xDD62ED3E EQ PUSH2 0x3F6 JUMPI DUP1 PUSH4 0xF10F864E EQ PUSH2 0x432 JUMPI PUSH2 0x11E JUMP JUMPDEST DUP1 PUSH4 0x7D1DB4A5 EQ PUSH2 0x2AA JUMPI DUP1 PUSH4 0x8129FC1C EQ PUSH2 0x2D4 JUMPI DUP1 PUSH4 0x8DA5CB5B EQ PUSH2 0x2EA JUMPI DUP1 PUSH4 0x8F9A55C0 EQ PUSH2 0x314 JUMPI DUP1 PUSH4 0x95D89B41 EQ PUSH2 0x33E JUMPI PUSH2 0x11E JUMP JUMPDEST DUP1 PUSH4 0x18160DDD GT PUSH2 0xE6 JUMPI DUP1 PUSH4 0x18160DDD EQ PUSH2 0x1C8 JUMPI DUP1 PUSH4 0x23B872DD EQ PUSH2 0x1F2 JUMPI DUP1 PUSH4 0x313CE567 EQ PUSH2 0x22E JUMPI DUP1 PUSH4 0x70A08231 EQ PUSH2 0x258 JUMPI DUP1 PUSH4 0x715018A6 EQ PUSH2 0x294 JUMPI PUSH2 0x11E JUMP JUMPDEST DUP1 PUSH4 0x1339C21 EQ PUSH2 0x122 JUMPI DUP1 PUSH4 0x6FDDE03 EQ PUSH2 0x138 JUMPI DUP1 PUSH4 0x95EA7B3 EQ PUSH2 0x162 JUMPI DUP1 PUSH4 0xFAEE56F EQ PUSH2 0x19E JUMPI PUSH2 0x11E JUMP JUMPDEST CALLDATASIZE PUSH2 0x11E JUMPI STOP JUMPDEST PUSH0 DUP1 REVERT JUMPDEST CALLVALUE DUP1 ISZERO PUSH2 0x12D JUMPI PUSH0 DUP1 REVERT JUMPDEST POP PUSH2 0x136 PUSH2 0x448 JUMP JUMPDEST STOP JUMPDEST CALLVALUE DUP1 ISZERO PUSH2 0x143 JUMPI PUSH0 DUP1 REVERT JUMPDEST POP PUSH2 0x14C PUSH2 0x5BB JUMP JUMPDEST PUSH1 0x40 MLOAD PUSH2 0x159 SWAP2 SWAP1 PUSH2 0x2294 JUMP JUMPDEST PUSH1 0x40 MLOAD DUP1 SWAP2 SUB SWAP1 RETURN JUMPDEST CALLVALUE DUP1 ISZERO PUSH2 0x16D JUMPI PUSH0 DUP1 REVERT JUMPDEST POP PUSH2 0x188 PUSH1 0x4 DUP1 CALLDATASIZE SUB DUP2 ADD SWAP1 PUSH2 0x183 SWAP2 SWAP1 PUSH2 0x2345 JUMP JUMPDEST PUSH2 0x5F8 JUMP JUMPDEST PUSH1 0x40 MLOAD PUSH2 0x195 SWAP2 SWAP1 PUSH2 0x239D JUMP JUMPDEST PUSH1 0x40 MLOAD DUP1 SWAP2 SUB SWAP1 RETURN JUMPDEST CALLVALUE DUP1 ISZERO PUSH2 0x1A9 JUMPI PUSH0 DUP1 REVERT JUMPDEST POP PUSH2 0x1B2 PUSH2 0x615 JUMP JUMPDEST PUSH1 0x40 MLOAD PUSH2 0x1BF SWAP2 SWAP1 PUSH2 0x23C5 JUMP JUMPDEST PUSH1 0x40 MLOAD DUP1 SWAP2 SUB SWAP1 RETURN JUMPDEST CALLVALUE DUP1 ISZERO PUSH2 0x1D3 JUMPI PUSH0 DUP1 REVERT JUMPDEST POP PUSH2 0x1DC PUSH2 0x634 JUMP JUMPDEST PUSH1 0x40 MLOAD PUSH2 0x1E9 SWAP2 SWAP1 PUSH2 0x23C5 JUMP JUMPDEST PUSH1 0x40 MLOAD DUP1 SWAP2 SUB SWAP1 RETURN JUMPDEST CALLVALUE DUP1 ISZERO PUSH2 0x1FD JUMPI PUSH0 DUP1 REVERT JUMPDEST POP PUSH2 0x218 PUSH1 0x4 DUP1 CALLDATASIZE SUB DUP2 ADD SWAP1 PUSH2 0x213 SWAP2 SWAP1 PUSH2 0x23DE JUMP JUMPDEST PUSH2 0x657 JUMP JUMPDEST PUSH1 0x40 MLOAD PUSH2 0x225 SWAP2 SWAP1 PUSH2 0x239D JUMP JUMPDEST PUSH1 0x40 MLOAD DUP1 SWAP2 SUB SWAP1 RETURN JUMPDEST CALLVALUE DUP1 ISZERO PUSH2 0x239 JUMPI PUSH0 DUP1 REVERT JUMPDEST POP PUSH2 0x242 PUSH2 0x72B JUMP JUMPDEST PUSH1 0x40 MLOAD PUSH2 0x24F SWAP2 SWAP1 PUSH2 0x2449 JUMP JUMPDEST PUSH1 0x40 MLOAD DUP1 SWAP2 SUB SWAP1 RETURN JUMPDEST CALLVALUE DUP1 ISZERO PUSH2 0x263 JUMPI PUSH0 DUP1 REVERT JUMPDEST POP PUSH2 0x27E PUSH1 0x4 DUP1 CALLDATASIZE SUB DUP2 ADD SWAP1 PUSH2 0x279 SWAP2 SWAP1 PUSH2 0x2462 JUMP JUMPDEST PUSH2 0x733 JUMP JUMPDEST PUSH1 0x40 MLOAD PUSH2 0x28B SWAP2 SWAP1 PUSH2 0x23C5 JUMP JUMPDEST PUSH1 0x40 MLOAD DUP1 SWAP2 SUB SWAP1 RETURN JUMPDEST CALLVALUE DUP1 ISZERO PUSH2 0x29F JUMPI PUSH0 DUP1 REVERT JUMPDEST POP PUSH2 0x2A8 PUSH2 0x779 JUMP JUMPDEST STOP JUMPDEST CALLVALUE DUP1 ISZERO PUSH2 0x2B5 JUMPI PUSH0 DUP1 REVERT JUMPDEST POP PUSH2 0x2BE PUSH2 0x8C7 JUMP JUMPDEST PUSH1 0x40 MLOAD PUSH2 0x2CB SWAP2 SWAP1 PUSH2 0x23C5 JUMP JUMPDEST PUSH1 0x40 MLOAD DUP1 SWAP2 SUB SWAP1 RETURN JUMPDEST CALLVALUE DUP1 ISZERO PUSH2 0x2DF JUMPI PUSH0 DUP1 REVERT JUMPDEST POP PUSH2 0x2E8 PUSH2 0x8CD JUMP JUMPDEST STOP JUMPDEST CALLVALUE DUP1 ISZERO PUSH2 0x2F5 JUMPI PUSH0 DUP1 REVERT JUMPDEST POP PUSH2 0x2FE PUSH2 0xE12 JUMP JUMPDEST PUSH1 0x40 MLOAD PUSH2 0x30B SWAP2 SWAP1 PUSH2 0x249C JUMP JUMPDEST PUSH1 0x40 MLOAD DUP1 SWAP2 SUB SWAP1 RETURN JUMPDEST CALLVALUE DUP1 ISZERO PUSH2 0x31F JUMPI PUSH0 DUP1 REVERT JUMPDEST POP PUSH2 0x328 PUSH2 0xE39 JUMP JUMPDEST PUSH1 0x40 MLOAD PUSH2 0x335 SWAP2 SWAP1 PUSH2 0x23C5 JUMP JUMPDEST PUSH1 0x40 MLOAD DUP1 SWAP2 SUB SWAP1 RETURN JUMPDEST CALLVALUE DUP1 ISZERO PUSH2 0x349 JUMPI PUSH0 DUP1 REVERT JUMPDEST POP PUSH2 0x352 PUSH2 0xE3F JUMP JUMPDEST PUSH1 0x40 MLOAD PUSH2 0x35F SWAP2 SWAP1 PUSH2 0x2294 JUMP JUMPDEST PUSH1 0x40 MLOAD DUP1 SWAP2 SUB SWAP1 RETURN JUMPDEST CALLVALUE DUP1 ISZERO PUSH2 0x373 JUMPI PUSH0 DUP1 REVERT JUMPDEST POP PUSH2 0x38E PUSH1 0x4 DUP1 CALLDATASIZE SUB DUP2 ADD SWAP1 PUSH2 0x389 SWAP2 SWAP1 PUSH2 0x2345 JUMP JUMPDEST PUSH2 0xE7C JUMP JUMPDEST PUSH1 0x40 MLOAD PUSH2 0x39B SWAP2 SWAP1 PUSH2 0x239D JUMP JUMPDEST PUSH1 0x40 MLOAD DUP1 SWAP2 SUB SWAP1 RETURN JUMPDEST CALLVALUE DUP1 ISZERO PUSH2 0x3AF JUMPI PUSH0 DUP1 REVERT JUMPDEST POP PUSH2 0x3B8 PUSH2 0xE99 JUMP JUMPDEST PUSH1 0x40 MLOAD PUSH2 0x3C5 SWAP2 SWAP1 PUSH2 0x23C5 JUMP JUMPDEST PUSH1 0x40 MLOAD DUP1 SWAP2 SUB SWAP1 RETURN JUMPDEST CALLVALUE DUP1 ISZERO PUSH2 0x3D9 JUMPI PUSH0 DUP1 REVERT JUMPDEST POP PUSH2 0x3F4 PUSH1 0x4 DUP1 CALLDATASIZE SUB DUP2 ADD SWAP1 PUSH2 0x3EF SWAP2 SWAP1 PUSH2 0x24B5 JUMP JUMPDEST PUSH2 0xEB8 JUMP JUMPDEST STOP JUMPDEST CALLVALUE DUP1 ISZERO PUSH2 0x401 JUMPI PUSH0 DUP1 REVERT JUMPDEST POP PUSH2 0x41C PUSH1 0x4 DUP1 CALLDATASIZE SUB DUP2 ADD SWAP1 PUSH2 0x417 SWAP2 SWAP1 PUSH2 0x24F3 JUMP JUMPDEST PUSH2 0x1000 JUMP JUMPDEST PUSH1 0x40 MLOAD PUSH2 0x429 SWAP2 SWAP1 PUSH2 0x23C5 JUMP JUMPDEST PUSH1 0x40 MLOAD DUP1 SWAP2 SUB SWAP1 RETURN JUMPDEST CALLVALUE DUP1 ISZERO PUSH2 0x43D JUMPI PUSH0 DUP1 REVERT JUMPDEST POP PUSH2 0x446 PUSH2 0x1082 JUMP JUMPDEST STOP JUMPDEST PUSH2 0x450 PUSH2 0x11CB JUMP JUMPDEST PUSH20 0xFFFFFFFFFFFFFFFFFFFFFFFFFFFFFFFFFFFFFFFF AND PUSH0 DUP1 SLOAD SWAP1 PUSH2 0x100 EXP SWAP1 DIV PUSH20 0xFFFFFFFFFFFFFFFFFFFFFFFFFFFFFFFFFFFFFFFF AND PUSH20 0xFFFFFFFFFFFFFFFFFFFFFFFFFFFFFFFFFFFFFFFF AND EQ PUSH2 0x4DC JUMPI PUSH1 0x40 MLOAD PUSH32 0x8C379A000000000000000000000000000000000000000000000000000000000 DUP2 MSTORE PUSH1 0x4 ADD PUSH2 0x4D3 SWAP1 PUSH2 0x257B JUMP JUMPDEST PUSH1 0x40 MLOAD DUP1 SWAP2 SUB SWAP1 REVERT JUMPDEST PUSH1 0xB PUSH1 0x14 SWAP1 SLOAD SWAP1 PUSH2 0x100 EXP SWAP1 DIV PUSH1 0xFF AND ISZERO PUSH2 0x52C JUMPI PUSH1 0x40 MLOAD PUSH32 0x8C379A000000000000000000000000000000000000000000000000000000000 DUP2 MSTORE PUSH1 0x4 ADD PUSH2 0x523 SWAP1 PUSH2 0x25E3 JUMP JUMPDEST PUSH1 0x40 MLOAD DUP1 SWAP2 SUB SWAP1 REVERT JUMPDEST PUSH1 0x1 PUSH1 0xB PUSH1 0x17 PUSH2 0x100 EXP DUP2 SLOAD DUP2 PUSH1 0xFF MUL NOT AND SWAP1 DUP4 ISZERO ISZERO MUL OR SWAP1 SSTORE POP PUSH1 0x1 PUSH1 0xB PUSH1 0x14 PUSH2 0x100 EXP DUP2 SLOAD DUP2 PUSH1 0xFF MUL NOT AND SWAP1 DUP4 ISZERO ISZERO MUL OR SWAP1 SSTORE POP PUSH32 0x29ED388F3DD39B342F312D7B12CBA9E3065871BF0FB668CC5457F217B15DD7C PUSH1 0xB PUSH1 0x14 SWAP1 SLOAD SWAP1 PUSH2 0x100 EXP SWAP1 DIV PUSH1 0xFF AND PUSH1 0xB PUSH1 0x17 SWAP1 SLOAD SWAP1 PUSH2 0x100 EXP SWAP1 DIV PUSH1 0xFF AND PUSH1 0x40 MLOAD PUSH2 0x5B1 SWAP3 SWAP2 SWAP1 PUSH2 0x2601 JUMP JUMPDEST PUSH1 0x40 MLOAD DUP1 SWAP2 SUB SWAP1 LOG1 JUMP JUMPDEST PUSH1 0x60 PUSH1 0x40 MLOAD DUP1 PUSH1 0x40 ADD PUSH1 0x40 MSTORE DUP1 PUSH1 0x8 DUP2 MSTORE PUSH1 0x20 ADD PUSH32 0x486F74656C204149000000000000000000000000000000000000000000000000 DUP2 MSTORE POP SWAP1 POP SWAP1 JUMP JUMPDEST PUSH0 PUSH2 0x60B PUSH2 0x604 PUSH2 0x11CB JUMP JUMPDEST DUP5 DUP5 PUSH2 0x11D2 JUMP JUMPDEST PUSH1 0x1 SWAP1 POP SWAP3 SWAP2 POP POP JUMP JUMPDEST PUSH1 0x9 PUSH1 0xA PUSH2 0x623 SWAP2 SWAP1 PUSH2 0x2784 JUMP JUMPDEST PUSH3 0x989680 PUSH2 0x631 SWAP2 SWAP1 PUSH2 0x27CE JUMP JUMPDEST DUP2 JUMP JUMPDEST PUSH0 PUSH1 0x9 PUSH1 0xA PUSH2 0x643 SWAP2 SWAP1 PUSH2 0x2784 JUMP JUMPDEST PUSH4 0x3B9ACA00 PUSH2 0x652 SWAP2 SWAP1 PUSH2 0x27CE JUMP JUMPDEST SWAP1 POP SWAP1 JUMP JUMPDEST PUSH0 PUSH2 0x663 DUP5 DUP5 DUP5 PUSH2 0x1360 JUMP JUMPDEST PUSH2 0x720 DUP5 PUSH2 0x66F PUSH2 0x11CB JUMP JUMPDEST PUSH2 0x71B DUP6 PUSH1 0x40 MLOAD DUP1 PUSH1 0x60 ADD PUSH1 0x40 MSTORE DUP1 PUSH1 0x28 DUP2 MSTORE PUSH1 0x20 ADD PUSH2 0x30ED PUSH1 0x28 SWAP2 CODECOPY PUSH1 0x2 PUSH0 DUP12 PUSH20 0xFFFFFFFFFFFFFFFFFFFFFFFFFFFFFFFFFFFFFFFF AND PUSH20 0xFFFFFFFFFFFFFFFFFFFFFFFFFFFFFFFFFFFFFFFF AND DUP2 MSTORE PUSH1 0x20 ADD SWAP1 DUP2 MSTORE PUSH1 0x20 ADD PUSH0 KECCAK256 PUSH0 PUSH2 0x6D2 PUSH2 0x11CB JUMP JUMPDEST PUSH20 0xFFFFFFFFFFFFFFFFFFFFFFFFFFFFFFFFFFFFFFFF AND PUSH20 0xFFFFFFFFFFFFFFFFFFFFFFFFFFFFFFFFFFFFFFFF AND DUP2 MSTORE PUSH1 0x20 ADD SWAP1 DUP2 MSTORE PUSH1 0x20 ADD PUSH0 KECCAK256 SLOAD PUSH2 0x1D0E SWAP1 SWAP3 SWAP2 SWAP1 PUSH4 0xFFFFFFFF AND JUMP JUMPDEST PUSH2 0x11D2 JUMP JUMPDEST PUSH1 0x1 SWAP1 POP SWAP4 SWAP3 POP POP POP JUMP JUMPDEST PUSH0 PUSH1 0x9 SWAP1 POP SWAP1 JUMP JUMPDEST PUSH0 PUSH1 0x1 PUSH0 DUP4 PUSH20 0xFFFFFFFFFFFFFFFFFFFFFFFFFFFFFFFFFFFFFFFF AND PUSH20 0xFFFFFFFFFFFFFFFFFFFFFFFFFFFFFFFFFFFFFFFF AND DUP2 MSTORE PUSH1 0x20 ADD SWAP1 DUP2 MSTORE PUSH1 0x20 ADD PUSH0 KECCAK256 SLOAD SWAP1 POP SWAP2 SWAP1 POP JUMP JUMPDEST PUSH2 0x781 PUSH2 0x11CB JUMP JUMPDEST PUSH20 0xFFFFFFFFFFFFFFFFFFFFFFFFFFFFFFFFFFFFFFFF AND PUSH0 DUP1 SLOAD SWAP1 PUSH2 0x100 EXP SWAP1 DIV PUSH20 0xFFFFFFFFFFFFFFFFFFFFFFFFFFFFFFFFFFFFFFFF AND PUSH20 0xFFFFFFFFFFFFFFFFFFFFFFFFFFFFFFFFFFFFFFFF AND EQ PUSH2 0x80D JUMPI PUSH1 0x40 MLOAD PUSH32 0x8C379A000000000000000000000000000000000000000000000000000000000 DUP2 MSTORE PUSH1 0x4 ADD PUSH2 0x804 SWAP1 PUSH2 0x257B JUMP JUMPDEST PUSH1 0x40 MLOAD DUP1 SWAP2 SUB SWAP1 REVERT JUMPDEST PUSH0 PUSH20 0xFFFFFFFFFFFFFFFFFFFFFFFFFFFFFFFFFFFFFFFF AND PUSH0 DUP1 SLOAD SWAP1 PUSH2 0x100 EXP SWAP1 DIV PUSH20 0xFFFFFFFFFFFFFFFFFFFFFFFFFFFFFFFFFFFFFFFF AND PUSH20 0xFFFFFFFFFFFFFFFFFFFFFFFFFFFFFFFFFFFFFFFF AND PUSH32 0x8BE0079C531659141344CD1FD0A4F28419497F9722A3DAAFE3B4186F6B6457E0 PUSH1 0x40 MLOAD PUSH1 0x40 MLOAD DUP1 SWAP2 SUB SWAP1 LOG3 PUSH0 DUP1 PUSH0 PUSH2 0x100 EXP DUP2 SLOAD DUP2 PUSH20 0xFFFFFFFFFFFFFFFFFFFFFFFFFFFFFFFFFFFFFFFF MUL NOT AND SWAP1 DUP4 PUSH20 0xFFFFFFFFFFFFFFFFFFFFFFFFFFFFFFFFFFFFFFFF AND MUL OR SWAP1 SSTORE POP JUMP JUMPDEST PUSH1 0x8 SLOAD DUP2 JUMP JUMPDEST PUSH2 0x8D5 PUSH2 0x11CB JUMP JUMPDEST PUSH20 0xFFFFFFFFFFFFFFFFFFFFFFFFFFFFFFFFFFFFFFFF AND PUSH0 DUP1 SLOAD SWAP1 PUSH2 0x100 EXP SWAP1 DIV PUSH20 0xFFFFFFFFFFFFFFFFFFFFFFFFFFFFFFFFFFFFFFFF AND PUSH20 0xFFFFFFFFFFFFFFFFFFFFFFFFFFFFFFFFFFFFFFFF AND EQ PUSH2 0x961 JUMPI PUSH1 0x40 MLOAD PUSH32 0x8C379A000000000000000000000000000000000000000000000000000000000 DUP2 MSTORE PUSH1 0x4 ADD PUSH2 0x958 SWAP1 PUSH2 0x257B JUMP JUMPDEST PUSH1 0x40 MLOAD DUP1 SWAP2 SUB SWAP1 REVERT JUMPDEST PUSH1 0xB PUSH1 0x14 SWAP1 SLOAD SWAP1 PUSH2 0x100 EXP SWAP1 DIV PUSH1 0xFF AND ISZERO PUSH2 0x9B1 JUMPI PUSH1 0x40 MLOAD PUSH32 0x8C379A000000000000000000000000000000000000000000000000000000000 DUP2 MSTORE PUSH1 0x4 ADD PUSH2 0x9A8 SWAP1 PUSH2 0x2859 JUMP JUMPDEST PUSH1 0x40 MLOAD DUP1 SWAP2 SUB SWAP1 REVERT JUMPDEST PUSH0 PUSH2 0xA0F PUSH2 0x9F8 PUSH1 0x64 PUSH2 0x9EA PUSH1 0x14 PUSH1 0x9 PUSH1 0xA PUSH2 0x9CD SWAP2 SWAP1 PUSH2 0x2784 JUMP JUMPDEST PUSH4 0x3B9ACA00 PUSH2 0x9DC SWAP2 SWAP1 PUSH2 0x27CE JUMP JUMPDEST PUSH2 0x1D70 SWAP1 SWAP2 SWAP1 PUSH4 0xFFFFFFFF AND JUMP JUMPDEST PUSH2 0x1DE7 SWAP1 SWAP2 SWAP1 PUSH4 0xFFFFFFFF AND JUMP JUMPDEST PUSH2 0xA01 ADDRESS PUSH2 0x733 JUMP JUMPDEST PUSH2 0x1E30 SWAP1 SWAP2 SWAP1 PUSH4 0xFFFFFFFF AND JUMP JUMPDEST SWAP1 POP PUSH20 0x7A250D5630B4CF539739DF2C5DACB4C659F2488D PUSH1 0xA PUSH0 PUSH2 0x100 EXP DUP2 SLOAD DUP2 PUSH20 0xFFFFFFFFFFFFFFFFFFFFFFFFFFFFFFFFFFFFFFFF MUL NOT AND SWAP1 DUP4 PUSH20 0xFFFFFFFFFFFFFFFFFFFFFFFFFFFFFFFFFFFFFFFF AND MUL OR SWAP1 SSTORE POP PUSH2 0xAAD ADDRESS PUSH1 0xA PUSH0 SWAP1 SLOAD SWAP1 PUSH2 0x100 EXP SWAP1 DIV PUSH20 0xFFFFFFFFFFFFFFFFFFFFFFFFFFFFFFFFFFFFFFFF AND PUSH1 0x9 PUSH1 0xA PUSH2 0xA99 SWAP2 SWAP1 PUSH2 0x2784 JUMP JUMPDEST PUSH4 0x3B9ACA00 PUSH2 0xAA8 SWAP2 SWAP1 PUSH2 0x27CE JUMP JUMPDEST PUSH2 0x11D2 JUMP JUMPDEST PUSH1 0xA PUSH0 SWAP1 SLOAD SWAP1 PUSH2 0x100 EXP SWAP1 DIV PUSH20 0xFFFFFFFFFFFFFFFFFFFFFFFFFFFFFFFFFFFFFFFF AND PUSH20 0xFFFFFFFFFFFFFFFFFFFFFFFFFFFFFFFFFFFFFFFF AND PUSH4 0xC45A0155 PUSH1 0x40 MLOAD DUP2 PUSH4 0xFFFFFFFF AND PUSH1 0xE0 SHL DUP2 MSTORE PUSH1 0x4 ADD PUSH1 0x20 PUSH1 0x40 MLOAD DUP1 DUP4 SUB DUP2 DUP7 GAS STATICCALL ISZERO DUP1 ISZERO PUSH2 0xB17 JUMPI RETURNDATASIZE PUSH0 DUP1 RETURNDATACOPY RETURNDATASIZE PUSH0 REVERT JUMPDEST POP POP POP POP PUSH1 0x40 MLOAD RETURNDATASIZE PUSH1 0x1F NOT PUSH1 0x1F DUP3 ADD AND DUP3 ADD DUP1 PUSH1 0x40 MSTORE POP DUP2 ADD SWAP1 PUSH2 0xB3B SWAP2 SWAP1 PUSH2 0x288B JUMP JUMPDEST PUSH20 0xFFFFFFFFFFFFFFFFFFFFFFFFFFFFFFFFFFFFFFFF AND PUSH4 0xC9C65396 ADDRESS PUSH1 0xA PUSH0 SWAP1 SLOAD SWAP1 PUSH2 0x100 EXP SWAP1 DIV PUSH20 0xFFFFFFFFFFFFFFFFFFFFFFFFFFFFFFFFFFFFFFFF AND PUSH20 0xFFFFFFFFFFFFFFFFFFFFFFFFFFFFFFFFFFFFFFFF AND PUSH4 0xAD5C4648 PUSH1 0x40 MLOAD DUP2 PUSH4 0xFFFFFFFF AND PUSH1 0xE0 SHL DUP2 MSTORE PUSH1 0x4 ADD PUSH1 0x20 PUSH1 0x40 MLOAD DUP1 DUP4 SUB DUP2 DUP7 GAS STATICCALL ISZERO DUP1 ISZERO PUSH2 0xBC1 JUMPI RETURNDATASIZE PUSH0 DUP1 RETURNDATACOPY RETURNDATASIZE PUSH0 REVERT JUMPDEST POP POP POP POP PUSH1 0x40 MLOAD RETURNDATASIZE PUSH1 0x1F NOT PUSH1 0x1F DUP3 ADD AND DUP3 ADD DUP1 PUSH1 0x40 MSTORE POP DUP2 ADD SWAP1 PUSH2 0xBE5 SWAP2 SWAP1 PUSH2 0x288B JUMP JUMPDEST PUSH1 0x40 MLOAD DUP4 PUSH4 0xFFFFFFFF AND PUSH1 0xE0 SHL DUP2 MSTORE PUSH1 0x4 ADD PUSH2 0xC02 SWAP3 SWAP2 SWAP1 PUSH2 0x28B6 JUMP JUMPDEST PUSH1 0x20 PUSH1 0x40 MLOAD DUP1 DUP4 SUB DUP2 PUSH0 DUP8 GAS CALL ISZERO DUP1 ISZERO PUSH2 0xC1E JUMPI RETURNDATASIZE PUSH0 DUP1 RETURNDATACOPY RETURNDATASIZE PUSH0 REVERT JUMPDEST POP POP POP POP PUSH1 0x40 MLOAD RETURNDATASIZE PUSH1 0x1F NOT PUSH1 0x1F DUP3 ADD AND DUP3 ADD DUP1 PUSH1 0x40 MSTORE POP DUP2 ADD SWAP1 PUSH2 0xC42 SWAP2 SWAP1 PUSH2 0x288B JUMP JUMPDEST PUSH1 0xB PUSH0 PUSH2 0x100 EXP DUP2 SLOAD DUP2 PUSH20 0xFFFFFFFFFFFFFFFFFFFFFFFFFFFFFFFFFFFFFFFF MUL NOT AND SWAP1 DUP4 PUSH20 0xFFFFFFFFFFFFFFFFFFFFFFFFFFFFFFFFFFFFFFFF AND MUL OR SWAP1 SSTORE POP PUSH1 0xA PUSH0 SWAP1 SLOAD SWAP1 PUSH2 0x100 EXP SWAP1 DIV PUSH20 0xFFFFFFFFFFFFFFFFFFFFFFFFFFFFFFFFFFFFFFFF AND PUSH20 0xFFFFFFFFFFFFFFFFFFFFFFFFFFFFFFFFFFFFFFFF AND PUSH4 0xF305D719 SELFBALANCE ADDRESS DUP5 PUSH0 DUP1 PUSH2 0xCCB PUSH2 0x11CB JUMP JUMPDEST TIMESTAMP PUSH1 0x40 MLOAD DUP9 PUSH4 0xFFFFFFFF AND PUSH1 0xE0 SHL DUP2 MSTORE PUSH1 0x4 ADD PUSH2 0xCED SWAP7 SWAP6 SWAP5 SWAP4 SWAP3 SWAP2 SWAP1 PUSH2 0x291F JUMP JUMPDEST PUSH1 0x60 PUSH1 0x40 MLOAD DUP1 DUP4 SUB DUP2 DUP6 DUP9 GAS CALL ISZERO DUP1 ISZERO PUSH2 0xD09 JUMPI RETURNDATASIZE PUSH0 DUP1 RETURNDATACOPY RETURNDATASIZE PUSH0 REVERT JUMPDEST POP POP POP POP POP PUSH1 0x40 MLOAD RETURNDATASIZE PUSH1 0x1F NOT PUSH1 0x1F DUP3 ADD AND DUP3 ADD DUP1 PUSH1 0x40 MSTORE POP DUP2 ADD SWAP1 PUSH2 0xD2E SWAP2 SWAP1 PUSH2 0x2992 JUMP JUMPDEST POP POP POP PUSH1 0xB PUSH0 SWAP1 SLOAD SWAP1 PUSH2 0x100 EXP SWAP1 DIV PUSH20 0xFFFFFFFFFFFFFFFFFFFFFFFFFFFFFFFFFFFFFFFF AND PUSH20 0xFFFFFFFFFFFFFFFFFFFFFFFFFFFFFFFFFFFFFFFF AND PUSH4 0x95EA7B3 PUSH1 0xA PUSH0 SWAP1 SLOAD SWAP1 PUSH2 0x100 EXP SWAP1 DIV PUSH20 0xFFFFFFFFFFFFFFFFFFFFFFFFFFFFFFFFFFFFFFFF AND PUSH32 0xFFFFFFFFFFFFFFFFFFFFFFFFFFFFFFFFFFFFFFFFFFFFFFFFFFFFFFFFFFFFFFFF PUSH1 0x40 MLOAD DUP4 PUSH4 0xFFFFFFFF AND PUSH1 0xE0 SHL DUP2 MSTORE PUSH1 0x4 ADD PUSH2 0xDCE SWAP3 SWAP2 SWAP1 PUSH2 0x29E2 JUMP JUMPDEST PUSH1 0x20 PUSH1 0x40 MLOAD DUP1 DUP4 SUB DUP2 PUSH0 DUP8 GAS CALL ISZERO DUP1 ISZERO PUSH2 0xDEA JUMPI RETURNDATASIZE PUSH0 DUP1 RETURNDATACOPY RETURNDATASIZE PUSH0 REVERT JUMPDEST POP POP POP POP PUSH1 0x40 MLOAD RETURNDATASIZE PUSH1 0x1F NOT PUSH1 0x1F DUP3 ADD AND DUP3 ADD DUP1 PUSH1 0x40 MSTORE POP DUP2 ADD SWAP1 PUSH2 0xE0E SWAP2 SWAP1 PUSH2 0x2A33 JUMP JUMPDEST POP POP JUMP JUMPDEST PUSH0 DUP1 PUSH0 SWAP1 SLOAD SWAP1 PUSH2 0x100 EXP SWAP1 DIV PUSH20 0xFFFFFFFFFFFFFFFFFFFFFFFFFFFFFFFFFFFFFFFF AND SWAP1 POP SWAP1 JUMP JUMPDEST PUSH1 0x9 SLOAD DUP2 JUMP JUMPDEST PUSH1 0x60 PUSH1 0x40 MLOAD DUP1 PUSH1 0x40 ADD PUSH1 0x40 MSTORE DUP1 PUSH1 0x3 DUP2 MSTORE PUSH1 0x20 ADD PUSH32 0x6841490000000000000000000000000000000000000000000000000000000000 DUP2 MSTORE POP SWAP1 POP SWAP1 JUMP JUMPDEST PUSH0 PUSH2 0xE8F PUSH2 0xE88 PUSH2 0x11CB JUMP JUMPDEST DUP5 DUP5 PUSH2 0x1360 JUMP JUMPDEST PUSH1 0x1 SWAP1 POP SWAP3 SWAP2 POP POP JUMP JUMPDEST PUSH1 0x9 PUSH1 0xA PUSH2 0xEA7 SWAP2 SWAP1 PUSH2 0x2784 JUMP JUMPDEST PUSH3 0xF4240 PUSH2 0xEB5 SWAP2 SWAP1 PUSH2 0x27CE JUMP JUMPDEST DUP2 JUMP JUMPDEST PUSH2 0xEC0 PUSH2 0x11CB JUMP JUMPDEST PUSH20 0xFFFFFFFFFFFFFFFFFFFFFFFFFFFFFFFFFFFFFFFF AND PUSH0 DUP1 SLOAD SWAP1 PUSH2 0x100 EXP SWAP1 DIV PUSH20 0xFFFFFFFFFFFFFFFFFFFFFFFFFFFFFFFFFFFFFFFF AND PUSH20 0xFFFFFFFFFFFFFFFFFFFFFFFFFFFFFFFFFFFFFFFF AND EQ PUSH2 0xF4C JUMPI PUSH1 0x40 MLOAD PUSH32 0x8C379A000000000000000000000000000000000000000000000000000000000 DUP2 MSTORE PUSH1 0x4 ADD PUSH2 0xF43 SWAP1 PUSH2 0x257B JUMP JUMPDEST PUSH1 0x40 MLOAD DUP1 SWAP2 SUB SWAP1 REVERT JUMPDEST PUSH1 0x1E DUP3 GT ISZERO DUP1 ISZERO PUSH2 0xF5E JUMPI POP PUSH1 0x1E DUP2 GT ISZERO JUMPDEST DUP1 ISZERO PUSH2 0xF76 JUMPI POP PUSH1 0xB PUSH1 0x14 SWAP1 SLOAD SWAP1 PUSH2 0x100 EXP SWAP1 DIV PUSH1 0xFF AND JUMPDEST PUSH2 0xFB5 JUMPI PUSH1 0x40 MLOAD PUSH32 0x8C379A000000000000000000000000000000000000000000000000000000000 DUP2 MSTORE PUSH1 0x4 ADD PUSH2 0xFAC SWAP1 PUSH2 0x2AA8 JUMP JUMPDEST PUSH1 0x40 MLOAD DUP1 SWAP2 SUB SWAP1 REVERT JUMPDEST DUP2 PUSH1 0x5 DUP2 SWAP1 SSTORE POP DUP1 PUSH1 0x6 DUP2 SWAP1 SSTORE POP PUSH32 0x78009E5656A5C60B3C047015FB856B2EFBC6F42BEED76119406D7D4E3FC161F4 DUP3 DUP3 PUSH1 0x40 MLOAD PUSH2 0xFF4 SWAP3 SWAP2 SWAP1 PUSH2 0x2AC6 JUMP JUMPDEST PUSH1 0x40 MLOAD DUP1 SWAP2 SUB SWAP1 LOG1 POP POP JUMP JUMPDEST PUSH0 PUSH1 0x2 PUSH0 DUP5 PUSH20 0xFFFFFFFFFFFFFFFFFFFFFFFFFFFFFFFFFFFFFFFF AND PUSH20 0xFFFFFFFFFFFFFFFFFFFFFFFFFFFFFFFFFFFFFFFF AND DUP2 MSTORE PUSH1 0x20 ADD SWAP1 DUP2 MSTORE PUSH1 0x20 ADD PUSH0 KECCAK256 PUSH0 DUP4 PUSH20 0xFFFFFFFFFFFFFFFFFFFFFFFFFFFFFFFFFFFFFFFF AND PUSH20 0xFFFFFFFFFFFFFFFFFFFFFFFFFFFFFFFFFFFFFFFF AND DUP2 MSTORE PUSH1 0x20 ADD SWAP1 DUP2 MSTORE PUSH1 0x20 ADD PUSH0 KECCAK256 SLOAD SWAP1 POP SWAP3 SWAP2 POP POP JUMP JUMPDEST PUSH2 0x108A PUSH2 0x11CB JUMP JUMPDEST PUSH20 0xFFFFFFFFFFFFFFFFFFFFFFFFFFFFFFFFFFFFFFFF AND PUSH0 DUP1 SLOAD SWAP1 PUSH2 0x100 EXP SWAP1 DIV PUSH20 0xFFFFFFFFFFFFFFFFFFFFFFFFFFFFFFFFFFFFFFFF AND PUSH20 0xFFFFFFFFFFFFFFFFFFFFFFFFFFFFFFFFFFFFFFFF AND EQ PUSH2 0x1116 JUMPI PUSH1 0x40 MLOAD PUSH32 0x8C379A000000000000000000000000000000000000000000000000000000000 DUP2 MSTORE PUSH1 0x4 ADD PUSH2 0x110D SWAP1 PUSH2 0x257B JUMP JUMPDEST PUSH1 0x40 MLOAD DUP1 SWAP2 SUB SWAP1 REVERT JUMPDEST PUSH0 PUSH1 0xB PUSH1 0x15 PUSH2 0x100 EXP DUP2 SLOAD DUP2 PUSH1 0xFF MUL NOT AND SWAP1 DUP4 ISZERO ISZERO MUL OR SWAP1 SSTORE POP PUSH1 0x9 PUSH1 0xA PUSH2 0x113E SWAP2 SWAP1 PUSH2 0x2784 JUMP JUMPDEST PUSH4 0x3B9ACA00 PUSH2 0x114D SWAP2 SWAP1 PUSH2 0x27CE JUMP JUMPDEST PUSH1 0x8 DUP2 SWAP1 SSTORE POP PUSH1 0x9 PUSH1 0xA PUSH2 0x1161 SWAP2 SWAP1 PUSH2 0x2784 JUMP JUMPDEST PUSH4 0x3B9ACA00 PUSH2 0x1170 SWAP2 SWAP1 PUSH2 0x27CE JUMP JUMPDEST PUSH1 0x9 DUP2 SWAP1 SSTORE POP PUSH32 0x69ADA53ADDDE5123341CE3A822C5F66292103B2771E41E1F3C00C2DE8A63A7F9 PUSH1 0x9 PUSH1 0xA PUSH2 0x11A5 SWAP2 SWAP1 PUSH2 0x2784 JUMP JUMPDEST PUSH4 0x3B9ACA00 PUSH2 0x11B4 SWAP2 SWAP1 PUSH2 0x27CE JUMP JUMPDEST PUSH1 0x40 MLOAD PUSH2 0x11C1 SWAP2 SWAP1 PUSH2 0x23C5 JUMP JUMPDEST PUSH1 0x40 MLOAD DUP1 SWAP2 SUB SWAP1 LOG1 JUMP JUMPDEST PUSH0 CALLER SWAP1 POP SWAP1 JUMP JUMPDEST PUSH0 PUSH20 0xFFFFFFFFFFFFFFFFFFFFFFFFFFFFFFFFFFFFFFFF AND DUP4 PUSH20 0xFFFFFFFFFFFFFFFFFFFFFFFFFFFFFFFFFFFFFFFF AND EQ ISZERO DUP1 ISZERO PUSH2 0x123A JUMPI POP PUSH0 PUSH20 0xFFFFFFFFFFFFFFFFFFFFFFFFFFFFFFFFFFFFFFFF AND DUP3 PUSH20 0xFFFFFFFFFFFFFFFFFFFFFFFFFFFFFFFFFFFFFFFF AND EQ ISZERO JUMPDEST PUSH2 0x1279 JUMPI PUSH1 0x40 MLOAD PUSH32 0x8C379A000000000000000000000000000000000000000000000000000000000 DUP2 MSTORE PUSH1 0x4 ADD PUSH2 0x1270 SWAP1 PUSH2 0x2B37 JUMP JUMPDEST PUSH1 0x40 MLOAD DUP1 SWAP2 SUB SWAP1 REVERT JUMPDEST DUP1 PUSH1 0x2 PUSH0 DUP6 PUSH20 0xFFFFFFFFFFFFFFFFFFFFFFFFFFFFFFFFFFFFFFFF AND PUSH20 0xFFFFFFFFFFFFFFFFFFFFFFFFFFFFFFFFFFFFFFFF AND DUP2 MSTORE PUSH1 0x20 ADD SWAP1 DUP2 MSTORE PUSH1 0x20 ADD PUSH0 KECCAK256 PUSH0 DUP5 PUSH20 0xFFFFFFFFFFFFFFFFFFFFFFFFFFFFFFFFFFFFFFFF AND PUSH20 0xFFFFFFFFFFFFFFFFFFFFFFFFFFFFFFFFFFFFFFFF AND DUP2 MSTORE PUSH1 0x20 ADD SWAP1 DUP2 MSTORE PUSH1 0x20 ADD PUSH0 KECCAK256 DUP2 SWAP1 SSTORE POP DUP2 PUSH20 0xFFFFFFFFFFFFFFFFFFFFFFFFFFFFFFFFFFFFFFFF AND DUP4 PUSH20 0xFFFFFFFFFFFFFFFFFFFFFFFFFFFFFFFFFFFFFFFF AND PUSH32 0x8C5BE1E5EBEC7D5BD14F71427D1E84F3DD0314C0F7B2291E5B200AC8C7C3B925 DUP4 PUSH1 0x40 MLOAD PUSH2 0x1353 SWAP2 SWAP1 PUSH2 0x23C5 JUMP JUMPDEST PUSH1 0x40 MLOAD DUP1 SWAP2 SUB SWAP1 LOG3 POP POP POP JUMP JUMPDEST PUSH0 PUSH20 0xFFFFFFFFFFFFFFFFFFFFFFFFFFFFFFFFFFFFFFFF AND DUP4 PUSH20 0xFFFFFFFFFFFFFFFFFFFFFFFFFFFFFFFFFFFFFFFF AND EQ ISZERO DUP1 ISZERO PUSH2 0x13C8 JUMPI POP PUSH0 PUSH20 0xFFFFFFFFFFFFFFFFFFFFFFFFFFFFFFFFFFFFFFFF AND DUP3 PUSH20 0xFFFFFFFFFFFFFFFFFFFFFFFFFFFFFFFFFFFFFFFF AND EQ ISZERO JUMPDEST PUSH2 0x1407 JUMPI PUSH1 0x40 MLOAD PUSH32 0x8C379A000000000000000000000000000000000000000000000000000000000 DUP2 MSTORE PUSH1 0x4 ADD PUSH2 0x13FE SWAP1 PUSH2 0x2B9F JUMP JUMPDEST PUSH1 0x40 MLOAD DUP1 SWAP2 SUB SWAP1 REVERT JUMPDEST PUSH0 DUP2 GT PUSH2 0x1449 JUMPI PUSH1 0x40 MLOAD PUSH32 0x8C379A000000000000000000000000000000000000000000000000000000000 DUP2 MSTORE PUSH1 0x4 ADD PUSH2 0x1440 SWAP1 PUSH2 0x2C2D JUMP JUMPDEST PUSH1 0x40 MLOAD DUP1 SWAP2 SUB SWAP1 REVERT JUMPDEST PUSH0 PUSH2 0x1452 PUSH2 0xE12 JUMP JUMPDEST PUSH20 0xFFFFFFFFFFFFFFFFFFFFFFFFFFFFFFFFFFFFFFFF AND DUP5 PUSH20 0xFFFFFFFFFFFFFFFFFFFFFFFFFFFFFFFFFFFFFFFF AND EQ ISZERO DUP1 ISZERO PUSH2 0x14C0 JUMPI POP PUSH2 0x1490 PUSH2 0xE12 JUMP JUMPDEST PUSH20 0xFFFFFFFFFFFFFFFFFFFFFFFFFFFFFFFFFFFFFFFF AND DUP4 PUSH20 0xFFFFFFFFFFFFFFFFFFFFFFFFFFFFFFFFFFFFFFFF AND EQ ISZERO JUMPDEST ISZERO PUSH2 0x1A5E JUMPI PUSH1 0xB PUSH1 0x14 SWAP1 SLOAD SWAP1 PUSH2 0x100 EXP SWAP1 DIV PUSH1 0xFF AND PUSH2 0x15B4 JUMPI PUSH1 0x3 PUSH0 DUP6 PUSH20 0xFFFFFFFFFFFFFFFFFFFFFFFFFFFFFFFFFFFFFFFF AND PUSH20 0xFFFFFFFFFFFFFFFFFFFFFFFFFFFFFFFFFFFFFFFF AND DUP2 MSTORE PUSH1 0x20 ADD SWAP1 DUP2 MSTORE PUSH1 0x20 ADD PUSH0 KECCAK256 PUSH0 SWAP1 SLOAD SWAP1 PUSH2 0x100 EXP SWAP1 DIV PUSH1 0xFF AND DUP1 PUSH2 0x1574 JUMPI POP PUSH1 0x3 PUSH0 DUP5 PUSH20 0xFFFFFFFFFFFFFFFFFFFFFFFFFFFFFFFFFFFFFFFF AND PUSH20 0xFFFFFFFFFFFFFFFFFFFFFFFFFFFFFFFFFFFFFFFF AND DUP2 MSTORE PUSH1 0x20 ADD SWAP1 DUP2 MSTORE PUSH1 0x20 ADD PUSH0 KECCAK256 PUSH0 SWAP1 SLOAD SWAP1 PUSH2 0x100 EXP SWAP1 DIV PUSH1 0xFF AND JUMPDEST PUSH2 0x15B3 JUMPI PUSH1 0x40 MLOAD PUSH32 0x8C379A000000000000000000000000000000000000000000000000000000000 DUP2 MSTORE PUSH1 0x4 ADD PUSH2 0x15AA SWAP1 PUSH2 0x2C95 JUMP JUMPDEST PUSH1 0x40 MLOAD DUP1 SWAP2 SUB SWAP1 REVERT JUMPDEST JUMPDEST PUSH1 0xB PUSH0 SWAP1 SLOAD SWAP1 PUSH2 0x100 EXP SWAP1 DIV PUSH20 0xFFFFFFFFFFFFFFFFFFFFFFFFFFFFFFFFFFFFFFFF AND PUSH20 0xFFFFFFFFFFFFFFFFFFFFFFFFFFFFFFFFFFFFFFFF AND DUP5 PUSH20 0xFFFFFFFFFFFFFFFFFFFFFFFFFFFFFFFFFFFFFFFF AND EQ DUP1 ISZERO PUSH2 0x165D JUMPI POP PUSH1 0xA PUSH0 SWAP1 SLOAD SWAP1 PUSH2 0x100 EXP SWAP1 DIV PUSH20 0xFFFFFFFFFFFFFFFFFFFFFFFFFFFFFFFFFFFFFFFF AND PUSH20 0xFFFFFFFFFFFFFFFFFFFFFFFFFFFFFFFFFFFFFFFF AND DUP4 PUSH20 0xFFFFFFFFFFFFFFFFFFFFFFFFFFFFFFFFFFFFFFFF AND EQ ISZERO JUMPDEST DUP1 ISZERO PUSH2 0x16B0 JUMPI POP PUSH1 0x3 PUSH0 DUP5 PUSH20 0xFFFFFFFFFFFFFFFFFFFFFFFFFFFFFFFFFFFFFFFF AND PUSH20 0xFFFFFFFFFFFFFFFFFFFFFFFFFFFFFFFFFFFFFFFF AND DUP2 MSTORE PUSH1 0x20 ADD SWAP1 DUP2 MSTORE PUSH1 0x20 ADD PUSH0 KECCAK256 PUSH0 SWAP1 SLOAD SWAP1 PUSH2 0x100 EXP SWAP1 DIV PUSH1 0xFF AND ISZERO JUMPDEST ISZERO PUSH2 0x1780 JUMPI PUSH1 0xB PUSH1 0x15 SWAP1 SLOAD SWAP1 PUSH2 0x100 EXP SWAP1 DIV PUSH1 0xFF AND ISZERO PUSH2 0x1768 JUMPI PUSH1 0x8 SLOAD DUP3 GT ISZERO PUSH2 0x170F JUMPI PUSH1 0x40 MLOAD PUSH32 0x8C379A000000000000000000000000000000000000000000000000000000000 DUP2 MSTORE PUSH1 0x4 ADD PUSH2 0x1706 SWAP1 PUSH2 0x2CFD JUMP JUMPDEST PUSH1 0x40 MLOAD DUP1 SWAP2 SUB SWAP1 REVERT JUMPDEST PUSH1 0x9 SLOAD DUP3 PUSH2 0x171C DUP6 PUSH2 0x733 JUMP JUMPDEST PUSH2 0x1726 SWAP2 SWAP1 PUSH2 0x2D1B JUMP JUMPDEST GT ISZERO PUSH2 0x1767 JUMPI PUSH1 0x40 MLOAD PUSH32 0x8C379A000000000000000000000000000000000000000000000000000000000 DUP2 MSTORE PUSH1 0x4 ADD PUSH2 0x175E SWAP1 PUSH2 0x2D98 JUMP JUMPDEST PUSH1 0x40 MLOAD DUP1 SWAP2 SUB SWAP1 REVERT JUMPDEST JUMPDEST PUSH1 0x7 PUSH0 DUP2 SLOAD DUP1 SWAP3 SWAP2 SWAP1 PUSH2 0x177A SWAP1 PUSH2 0x2DB6 JUMP JUMPDEST SWAP2 SWAP1 POP SSTORE POP JUMPDEST PUSH1 0xB PUSH0 SWAP1 SLOAD SWAP1 PUSH2 0x100 EXP SWAP1 DIV PUSH20 0xFFFFFFFFFFFFFFFFFFFFFFFFFFFFFFFFFFFFFFFF AND PUSH20 0xFFFFFFFFFFFFFFFFFFFFFFFFFFFFFFFFFFFFFFFF AND DUP4 PUSH20 0xFFFFFFFFFFFFFFFFFFFFFFFFFFFFFFFFFFFFFFFF AND EQ DUP1 ISZERO PUSH2 0x1808 JUMPI POP ADDRESS PUSH20 0xFFFFFFFFFFFFFFFFFFFFFFFFFFFFFFFFFFFFFFFF AND DUP5 PUSH20 0xFFFFFFFFFFFFFFFFFFFFFFFFFFFFFFFFFFFFFFFF AND EQ ISZERO JUMPDEST ISZERO PUSH2 0x184E JUMPI PUSH2 0x1847 PUSH1 0x64 PUSH2 0x1839 PUSH1 0x2D PUSH1 0x7 SLOAD GT PUSH2 0x1826 JUMPI PUSH1 0x14 PUSH2 0x182A JUMP JUMPDEST PUSH1 0x6 SLOAD JUMPDEST DUP6 PUSH2 0x1D70 SWAP1 SWAP2 SWAP1 PUSH4 0xFFFFFFFF AND JUMP JUMPDEST PUSH2 0x1DE7 SWAP1 SWAP2 SWAP1 PUSH4 0xFFFFFFFF AND JUMP JUMPDEST SWAP1 POP PUSH2 0x1919 JUMP JUMPDEST PUSH1 0xB PUSH0 SWAP1 SLOAD SWAP1 PUSH2 0x100 EXP SWAP1 DIV PUSH20 0xFFFFFFFFFFFFFFFFFFFFFFFFFFFFFFFFFFFFFFFF AND PUSH20 0xFFFFFFFFFFFFFFFFFFFFFFFFFFFFFFFFFFFFFFFF AND DUP5 PUSH20 0xFFFFFFFFFFFFFFFFFFFFFFFFFFFFFFFFFFFFFFFF AND EQ DUP1 ISZERO PUSH2 0x18D6 JUMPI POP ADDRESS PUSH20 0xFFFFFFFFFFFFFFFFFFFFFFFFFFFFFFFFFFFFFFFF AND DUP4 PUSH20 0xFFFFFFFFFFFFFFFFFFFFFFFFFFFFFFFFFFFFFFFF AND EQ ISZERO JUMPDEST ISZERO PUSH2 0x1918 JUMPI PUSH2 0x1915 PUSH1 0x64 PUSH2 0x1907 PUSH1 0x2D PUSH1 0x7 SLOAD GT PUSH2 0x18F4 JUMPI PUSH1 0x14 PUSH2 0x18F8 JUMP JUMPDEST PUSH1 0x5 SLOAD JUMPDEST DUP6 PUSH2 0x1D70 SWAP1 SWAP2 SWAP1 PUSH4 0xFFFFFFFF AND JUMP JUMPDEST PUSH2 0x1DE7 SWAP1 SWAP2 SWAP1 PUSH4 0xFFFFFFFF AND JUMP JUMPDEST SWAP1 POP JUMPDEST JUMPDEST PUSH0 PUSH2 0x1923 ADDRESS PUSH2 0x733 JUMP JUMPDEST SWAP1 POP PUSH1 0xB PUSH1 0x16 SWAP1 SLOAD SWAP1 PUSH2 0x100 EXP SWAP1 DIV PUSH1 0xFF AND ISZERO DUP1 ISZERO PUSH2 0x198E JUMPI POP PUSH1 0xB PUSH0 SWAP1 SLOAD SWAP1 PUSH2 0x100 EXP SWAP1 DIV PUSH20 0xFFFFFFFFFFFFFFFFFFFFFFFFFFFFFFFFFFFFFFFF AND PUSH20 0xFFFFFFFFFFFFFFFFFFFFFFFFFFFFFFFFFFFFFFFF AND DUP5 PUSH20 0xFFFFFFFFFFFFFFFFFFFFFFFFFFFFFFFFFFFFFFFF AND EQ JUMPDEST DUP1 ISZERO PUSH2 0x19A6 JUMPI POP PUSH1 0xB PUSH1 0x17 SWAP1 SLOAD SWAP1 PUSH2 0x100 EXP SWAP1 DIV PUSH1 0xFF AND JUMPDEST DUP1 ISZERO PUSH2 0x19CC JUMPI POP PUSH1 0x9 PUSH1 0xA PUSH2 0x19BB SWAP2 SWAP1 PUSH2 0x2784 JUMP JUMPDEST PUSH3 0xF4240 PUSH2 0x19C9 SWAP2 SWAP1 PUSH2 0x27CE JUMP JUMPDEST DUP2 GT JUMPDEST DUP1 ISZERO PUSH2 0x19DA JUMPI POP PUSH1 0x19 PUSH1 0x7 SLOAD GT JUMPDEST ISZERO PUSH2 0x1A5C JUMPI PUSH0 PUSH1 0x9 PUSH1 0xA PUSH2 0x19EE SWAP2 SWAP1 PUSH2 0x2784 JUMP JUMPDEST PUSH3 0x989680 PUSH2 0x19FC SWAP2 SWAP1 PUSH2 0x27CE JUMP JUMPDEST DUP3 GT PUSH2 0x1A08 JUMPI DUP2 PUSH2 0x1A25 JUMP JUMPDEST PUSH1 0x9 PUSH1 0xA PUSH2 0x1A16 SWAP2 SWAP1 PUSH2 0x2784 JUMP JUMPDEST PUSH3 0x989680 PUSH2 0x1A24 SWAP2 SWAP1 PUSH2 0x27CE JUMP JUMPDEST JUMPDEST SWAP1 POP PUSH0 DUP2 DUP6 GT PUSH2 0x1A35 JUMPI DUP5 PUSH2 0x1A37 JUMP JUMPDEST DUP2 JUMPDEST SWAP1 POP PUSH2 0x1A42 DUP2 PUSH2 0x1E79 JUMP JUMPDEST PUSH0 SELFBALANCE SWAP1 POP PUSH0 DUP2 GT ISZERO PUSH2 0x1A58 JUMPI PUSH2 0x1A57 SELFBALANCE PUSH2 0x20E4 JUMP JUMPDEST JUMPDEST POP POP POP JUMPDEST POP JUMPDEST PUSH0 DUP2 GT ISZERO PUSH2 0x1B5D JUMPI PUSH2 0x1AB6 DUP2 PUSH1 0x1 PUSH0 ADDRESS PUSH20 0xFFFFFFFFFFFFFFFFFFFFFFFFFFFFFFFFFFFFFFFF AND PUSH20 0xFFFFFFFFFFFFFFFFFFFFFFFFFFFFFFFFFFFFFFFF AND DUP2 MSTORE PUSH1 0x20 ADD SWAP1 DUP2 MSTORE PUSH1 0x20 ADD PUSH0 KECCAK256 SLOAD PUSH2 0x214C SWAP1 SWAP2 SWAP1 PUSH4 0xFFFFFFFF AND JUMP JUMPDEST PUSH1 0x1 PUSH0 ADDRESS PUSH20 0xFFFFFFFFFFFFFFFFFFFFFFFFFFFFFFFFFFFFFFFF AND PUSH20 0xFFFFFFFFFFFFFFFFFFFFFFFFFFFFFFFFFFFFFFFF AND DUP2 MSTORE PUSH1 0x20 ADD SWAP1 DUP2 MSTORE PUSH1 0x20 ADD PUSH0 KECCAK256 DUP2 SWAP1 SSTORE POP ADDRESS PUSH20 0xFFFFFFFFFFFFFFFFFFFFFFFFFFFFFFFFFFFFFFFF AND DUP5 PUSH20 0xFFFFFFFFFFFFFFFFFFFFFFFFFFFFFFFFFFFFFFFF AND PUSH32 0xDDF252AD1BE2C89B69C2B068FC378DAA952BA7F163C4A11628F55A4DF523B3EF DUP4 PUSH1 0x40 MLOAD PUSH2 0x1B54 SWAP2 SWAP1 PUSH2 0x23C5 JUMP JUMPDEST PUSH1 0x40 MLOAD DUP1 SWAP2 SUB SWAP1 LOG3 JUMPDEST PUSH2 0x1BAD DUP3 PUSH1 0x1 PUSH0 DUP8 PUSH20 0xFFFFFFFFFFFFFFFFFFFFFFFFFFFFFFFFFFFFFFFF AND PUSH20 0xFFFFFFFFFFFFFFFFFFFFFFFFFFFFFFFFFFFFFFFF AND DUP2 MSTORE PUSH1 0x20 ADD SWAP1 DUP2 MSTORE PUSH1 0x20 ADD PUSH0 KECCAK256 SLOAD PUSH2 0x1E30 SWAP1 SWAP2 SWAP1 PUSH4 0xFFFFFFFF AND JUMP JUMPDEST PUSH1 0x1 PUSH0 DUP7 PUSH20 0xFFFFFFFFFFFFFFFFFFFFFFFFFFFFFFFFFFFFFFFF AND PUSH20 0xFFFFFFFFFFFFFFFFFFFFFFFFFFFFFFFFFFFFFFFF AND DUP2 MSTORE PUSH1 0x20 ADD SWAP1 DUP2 MSTORE PUSH1 0x20 ADD PUSH0 KECCAK256 DUP2 SWAP1 SSTORE POP PUSH2 0x1C50 PUSH2 0x1C04 DUP3 DUP5 PUSH2 0x1E30 SWAP1 SWAP2 SWAP1 PUSH4 0xFFFFFFFF AND JUMP JUMPDEST PUSH1 0x1 PUSH0 DUP7 PUSH20 0xFFFFFFFFFFFFFFFFFFFFFFFFFFFFFFFFFFFFFFFF AND PUSH20 0xFFFFFFFFFFFFFFFFFFFFFFFFFFFFFFFFFFFFFFFF AND DUP2 MSTORE PUSH1 0x20 ADD SWAP1 DUP2 MSTORE PUSH1 0x20 ADD PUSH0 KECCAK256 SLOAD PUSH2 0x214C SWAP1 SWAP2 SWAP1 PUSH4 0xFFFFFFFF AND JUMP JUMPDEST PUSH1 0x1 PUSH0 DUP6 PUSH20 0xFFFFFFFFFFFFFFFFFFFFFFFFFFFFFFFFFFFFFFFF AND PUSH20 0xFFFFFFFFFFFFFFFFFFFFFFFFFFFFFFFFFFFFFFFF AND DUP2 MSTORE PUSH1 0x20 ADD SWAP1 DUP2 MSTORE PUSH1 0x20 ADD PUSH0 KECCAK256 DUP2 SWAP1 SSTORE POP DUP3 PUSH20 0xFFFFFFFFFFFFFFFFFFFFFFFFFFFFFFFFFFFFFFFF AND DUP5 PUSH20 0xFFFFFFFFFFFFFFFFFFFFFFFFFFFFFFFFFFFFFFFF AND PUSH32 0xDDF252AD1BE2C89B69C2B068FC378DAA952BA7F163C4A11628F55A4DF523B3EF PUSH2 0x1CF3 DUP5 DUP7 PUSH2 0x1E30 SWAP1 SWAP2 SWAP1 PUSH4 0xFFFFFFFF AND JUMP JUMPDEST PUSH1 0x40 MLOAD PUSH2 0x1D00 SWAP2 SWAP1 PUSH2 0x23C5 JUMP JUMPDEST PUSH1 0x40 MLOAD DUP1 SWAP2 SUB SWAP1 LOG3 POP POP POP POP JUMP JUMPDEST PUSH0 DUP4 DUP4 GT ISZERO DUP3 SWAP1 PUSH2 0x1D55 JUMPI PUSH1 0x40 MLOAD PUSH32 0x8C379A000000000000000000000000000000000000000000000000000000000 DUP2 MSTORE PUSH1 0x4 ADD PUSH2 0x1D4C SWAP2 SWAP1 PUSH2 0x2294 JUMP JUMPDEST PUSH1 0x40 MLOAD DUP1 SWAP2 SUB SWAP1 REVERT JUMPDEST POP PUSH0 DUP4 DUP6 PUSH2 0x1D63 SWAP2 SWAP1 PUSH2 0x2DFD JUMP JUMPDEST SWAP1 POP DUP1 SWAP2 POP POP SWAP4 SWAP3 POP POP POP JUMP JUMPDEST PUSH0 DUP1 DUP4 SUB PUSH2 0x1D80 JUMPI PUSH0 SWAP1 POP PUSH2 0x1DE1 JUMP JUMPDEST PUSH0 DUP3 DUP5 PUSH2 0x1D8D SWAP2 SWAP1 PUSH2 0x27CE JUMP JUMPDEST SWAP1 POP DUP3 DUP5 DUP3 PUSH2 0x1D9C SWAP2 SWAP1 PUSH2 0x2E5D JUMP JUMPDEST EQ PUSH2 0x1DDC JUMPI PUSH1 0x40 MLOAD PUSH32 0x8C379A000000000000000000000000000000000000000000000000000000000 DUP2 MSTORE PUSH1 0x4 ADD PUSH2 0x1DD3 SWAP1 PUSH2 0x2EFD JUMP JUMPDEST PUSH1 0x40 MLOAD DUP1 SWAP2 SUB SWAP1 REVERT JUMPDEST DUP1 SWAP2 POP POP JUMPDEST SWAP3 SWAP2 POP POP JUMP JUMPDEST PUSH0 PUSH2 0x1E28 DUP4 DUP4 PUSH1 0x40 MLOAD DUP1 PUSH1 0x40 ADD PUSH1 0x40 MSTORE DUP1 PUSH1 0x1A DUP2 MSTORE PUSH1 0x20 ADD PUSH32 0x536166654D6174683A206469766973696F6E206279207A65726F000000000000 DUP2 MSTORE POP PUSH2 0x21A9 JUMP JUMPDEST SWAP1 POP SWAP3 SWAP2 POP POP JUMP JUMPDEST PUSH0 PUSH2 0x1E71 DUP4 DUP4 PUSH1 0x40 MLOAD DUP1 PUSH1 0x40 ADD PUSH1 0x40 MSTORE DUP1 PUSH1 0x1E DUP2 MSTORE PUSH1 0x20 ADD PUSH32 0x536166654D6174683A207375627472616374696F6E206F766572666C6F770000 DUP2 MSTORE POP PUSH2 0x1D0E JUMP JUMPDEST SWAP1 POP SWAP3 SWAP2 POP POP JUMP JUMPDEST PUSH1 0x1 PUSH1 0xB PUSH1 0x16 PUSH2 0x100 EXP DUP2 SLOAD DUP2 PUSH1 0xFF MUL NOT AND SWAP1 DUP4 ISZERO ISZERO MUL OR SWAP1 SSTORE POP PUSH0 PUSH1 0x2 PUSH8 0xFFFFFFFFFFFFFFFF DUP2 GT ISZERO PUSH2 0x1EB0 JUMPI PUSH2 0x1EAF PUSH2 0x2F1B JUMP JUMPDEST JUMPDEST PUSH1 0x40 MLOAD SWAP1 DUP1 DUP3 MSTORE DUP1 PUSH1 0x20 MUL PUSH1 0x20 ADD DUP3 ADD PUSH1 0x40 MSTORE DUP1 ISZERO PUSH2 0x1EDE JUMPI DUP2 PUSH1 0x20 ADD PUSH1 0x20 DUP3 MUL DUP1 CALLDATASIZE DUP4 CALLDATACOPY DUP1 DUP3 ADD SWAP2 POP POP SWAP1 POP JUMPDEST POP SWAP1 POP ADDRESS DUP2 PUSH0 DUP2 MLOAD DUP2 LT PUSH2 0x1EF5 JUMPI PUSH2 0x1EF4 PUSH2 0x2F48 JUMP JUMPDEST JUMPDEST PUSH1 0x20 MUL PUSH1 0x20 ADD ADD SWAP1 PUSH20 0xFFFFFFFFFFFFFFFFFFFFFFFFFFFFFFFFFFFFFFFF AND SWAP1 DUP2 PUSH20 0xFFFFFFFFFFFFFFFFFFFFFFFFFFFFFFFFFFFFFFFF AND DUP2 MSTORE POP POP PUSH1 0xA PUSH0 SWAP1 SLOAD SWAP1 PUSH2 0x100 EXP SWAP1 DIV PUSH20 0xFFFFFFFFFFFFFFFFFFFFFFFFFFFFFFFFFFFFFFFF AND PUSH20 0xFFFFFFFFFFFFFFFFFFFFFFFFFFFFFFFFFFFFFFFF AND PUSH4 0xAD5C4648 PUSH1 0x40 MLOAD DUP2 PUSH4 0xFFFFFFFF AND PUSH1 0xE0 SHL DUP2 MSTORE PUSH1 0x4 ADD PUSH1 0x20 PUSH1 0x40 MLOAD DUP1 DUP4 SUB DUP2 DUP7 GAS STATICCALL ISZERO DUP1 ISZERO PUSH2 0x1F99 JUMPI RETURNDATASIZE PUSH0 DUP1 RETURNDATACOPY RETURNDATASIZE PUSH0 REVERT JUMPDEST POP POP POP POP PUSH1 0x40 MLOAD RETURNDATASIZE PUSH1 0x1F NOT PUSH1 0x1F DUP3 ADD AND DUP3 ADD DUP1 PUSH1 0x40 MSTORE POP DUP2 ADD SWAP1 PUSH2 0x1FBD SWAP2 SWAP1 PUSH2 0x288B JUMP JUMPDEST DUP2 PUSH1 0x1 DUP2 MLOAD DUP2 LT PUSH2 0x1FD1 JUMPI PUSH2 0x1FD0 PUSH2 0x2F48 JUMP JUMPDEST JUMPDEST PUSH1 0x20 MUL PUSH1 0x20 ADD ADD SWAP1 PUSH20 0xFFFFFFFFFFFFFFFFFFFFFFFFFFFFFFFFFFFFFFFF AND SWAP1 DUP2 PUSH20 0xFFFFFFFFFFFFFFFFFFFFFFFFFFFFFFFFFFFFFFFF AND DUP2 MSTORE POP POP PUSH2 0x2037 ADDRESS PUSH1 0xA PUSH0 SWAP1 SLOAD SWAP1 PUSH2 0x100 EXP SWAP1 DIV PUSH20 0xFFFFFFFFFFFFFFFFFFFFFFFFFFFFFFFFFFFFFFFF AND DUP5 PUSH2 0x11D2 JUMP JUMPDEST PUSH1 0xA PUSH0 SWAP1 SLOAD SWAP1 PUSH2 0x100 EXP SWAP1 DIV PUSH20 0xFFFFFFFFFFFFFFFFFFFFFFFFFFFFFFFFFFFFFFFF AND PUSH20 0xFFFFFFFFFFFFFFFFFFFFFFFFFFFFFFFFFFFFFFFF AND PUSH4 0x791AC947 DUP4 PUSH0 DUP5 ADDRESS TIMESTAMP PUSH1 0x40 MLOAD DUP7 PUSH4 0xFFFFFFFF AND PUSH1 0xE0 SHL DUP2 MSTORE PUSH1 0x4 ADD PUSH2 0x2099 SWAP6 SWAP5 SWAP4 SWAP3 SWAP2 SWAP1 PUSH2 0x302C JUMP JUMPDEST PUSH0 PUSH1 0x40 MLOAD DUP1 DUP4 SUB DUP2 PUSH0 DUP8 DUP1 EXTCODESIZE ISZERO DUP1 ISZERO PUSH2 0x20B0 JUMPI PUSH0 DUP1 REVERT JUMPDEST POP GAS CALL ISZERO DUP1 ISZERO PUSH2 0x20C2 JUMPI RETURNDATASIZE PUSH0 DUP1 RETURNDATACOPY RETURNDATASIZE PUSH0 REVERT JUMPDEST POP POP POP POP POP PUSH0 PUSH1 0xB PUSH1 0x16 PUSH2 0x100 EXP DUP2 SLOAD DUP2 PUSH1 0xFF MUL NOT AND SWAP1 DUP4 ISZERO ISZERO MUL OR SWAP1 SSTORE POP POP JUMP JUMPDEST PUSH1 0x4 PUSH0 SWAP1 SLOAD SWAP1 PUSH2 0x100 EXP SWAP1 DIV PUSH20 0xFFFFFFFFFFFFFFFFFFFFFFFFFFFFFFFFFFFFFFFF AND PUSH20 0xFFFFFFFFFFFFFFFFFFFFFFFFFFFFFFFFFFFFFFFF AND PUSH2 0x8FC DUP3 SWAP1 DUP2 ISZERO MUL SWAP1 PUSH1 0x40 MLOAD PUSH0 PUSH1 0x40 MLOAD DUP1 DUP4 SUB DUP2 DUP6 DUP9 DUP9 CALL SWAP4 POP POP POP POP ISZERO DUP1 ISZERO PUSH2 0x2148 JUMPI RETURNDATASIZE PUSH0 DUP1 RETURNDATACOPY RETURNDATASIZE PUSH0 REVERT JUMPDEST POP POP JUMP JUMPDEST PUSH0 DUP1 DUP3 DUP5 PUSH2 0x215A SWAP2 SWAP1 PUSH2 0x2D1B JUMP JUMPDEST SWAP1 POP DUP4 DUP2 LT ISZERO PUSH2 0x219F JUMPI PUSH1 0x40 MLOAD PUSH32 0x8C379A000000000000000000000000000000000000000000000000000000000 DUP2 MSTORE PUSH1 0x4 ADD PUSH2 0x2196 SWAP1 PUSH2 0x30CE JUMP JUMPDEST PUSH1 0x40 MLOAD DUP1 SWAP2 SUB SWAP1 REVERT JUMPDEST DUP1 SWAP2 POP POP SWAP3 SWAP2 POP POP JUMP JUMPDEST PUSH0 DUP1 DUP4 GT DUP3 SWAP1 PUSH2 0x21EF JUMPI PUSH1 0x40 MLOAD PUSH32 0x8C379A000000000000000000000000000000000000000000000000000000000 DUP2 MSTORE PUSH1 0x4 ADD PUSH2 0x21E6 SWAP2 SWAP1 PUSH2 0x2294 JUMP JUMPDEST PUSH1 0x40 MLOAD DUP1 SWAP2 SUB SWAP1 REVERT JUMPDEST POP PUSH0 DUP4 DUP6 PUSH2 0x21FD SWAP2 SWAP1 PUSH2 0x2E5D JUMP JUMPDEST SWAP1 POP DUP1 SWAP2 POP POP SWAP4 SWAP3 POP POP POP JUMP JUMPDEST PUSH0 DUP2 MLOAD SWAP1 POP SWAP2 SWAP1 POP JUMP JUMPDEST PUSH0 DUP3 DUP3 MSTORE PUSH1 0x20 DUP3 ADD SWAP1 POP SWAP3 SWAP2 POP POP JUMP JUMPDEST PUSH0 JUMPDEST DUP4 DUP2 LT ISZERO PUSH2 0x2241 JUMPI DUP1 DUP3 ADD MLOAD DUP2 DUP5 ADD MSTORE PUSH1 0x20 DUP2 ADD SWAP1 POP PUSH2 0x2226 JUMP JUMPDEST PUSH0 DUP5 DUP5 ADD MSTORE POP POP POP POP JUMP JUMPDEST PUSH0 PUSH1 0x1F NOT PUSH1 0x1F DUP4 ADD AND SWAP1 POP SWAP2 SWAP1 POP JUMP JUMPDEST PUSH0 PUSH2 0x2266 DUP3 PUSH2 0x220A JUMP JUMPDEST PUSH2 0x2270 DUP2 DUP6 PUSH2 0x2214 JUMP JUMPDEST SWAP4 POP PUSH2 0x2280 DUP2 DUP6 PUSH1 0x20 DUP7 ADD PUSH2 0x2224 JUMP JUMPDEST PUSH2 0x2289 DUP2 PUSH2 0x224C JUMP JUMPDEST DUP5 ADD SWAP2 POP POP SWAP3 SWAP2 POP POP JUMP JUMPDEST PUSH0 PUSH1 0x20 DUP3 ADD SWAP1 POP DUP2 DUP2 SUB PUSH0 DUP4 ADD MSTORE PUSH2 0x22AC DUP2 DUP5 PUSH2 0x225C JUMP JUMPDEST SWAP1 POP SWAP3 SWAP2 POP POP JUMP JUMPDEST PUSH0 DUP1 REVERT JUMPDEST PUSH0 PUSH20 0xFFFFFFFFFFFFFFFFFFFFFFFFFFFFFFFFFFFFFFFF DUP3 AND SWAP1 POP SWAP2 SWAP1 POP JUMP JUMPDEST PUSH0 PUSH2 0x22E1 DUP3 PUSH2 0x22B8 JUMP JUMPDEST SWAP1 POP SWAP2 SWAP1 POP JUMP JUMPDEST PUSH2 0x22F1 DUP2 PUSH2 0x22D7 JUMP JUMPDEST DUP2 EQ PUSH2 0x22FB JUMPI PUSH0 DUP1 REVERT JUMPDEST POP JUMP JUMPDEST PUSH0 DUP2 CALLDATALOAD SWAP1 POP PUSH2 0x230C DUP2 PUSH2 0x22E8 JUMP JUMPDEST SWAP3 SWAP2 POP POP JUMP JUMPDEST PUSH0 DUP2 SWAP1 POP SWAP2 SWAP1 POP JUMP JUMPDEST PUSH2 0x2324 DUP2 PUSH2 0x2312 JUMP JUMPDEST DUP2 EQ PUSH2 0x232E JUMPI PUSH0 DUP1 REVERT JUMPDEST POP JUMP JUMPDEST PUSH0 DUP2 CALLDATALOAD SWAP1 POP PUSH2 0x233F DUP2 PUSH2 0x231B JUMP JUMPDEST SWAP3 SWAP2 POP POP JUMP JUMPDEST PUSH0 DUP1 PUSH1 0x40 DUP4 DUP6 SUB SLT ISZERO PUSH2 0x235B JUMPI PUSH2 0x235A PUSH2 0x22B4 JUMP JUMPDEST JUMPDEST PUSH0 PUSH2 0x2368 DUP6 DUP3 DUP7 ADD PUSH2 0x22FE JUMP JUMPDEST SWAP3 POP POP PUSH1 0x20 PUSH2 0x2379 DUP6 DUP3 DUP7 ADD PUSH2 0x2331 JUMP JUMPDEST SWAP2 POP POP SWAP3 POP SWAP3 SWAP1 POP JUMP JUMPDEST PUSH0 DUP2 ISZERO ISZERO SWAP1 POP SWAP2 SWAP1 POP JUMP JUMPDEST PUSH2 0x2397 DUP2 PUSH2 0x2383 JUMP JUMPDEST DUP3 MSTORE POP POP JUMP JUMPDEST PUSH0 PUSH1 0x20 DUP3 ADD SWAP1 POP PUSH2 0x23B0 PUSH0 DUP4 ADD DUP5 PUSH2 0x238E JUMP JUMPDEST SWAP3 SWAP2 POP POP JUMP JUMPDEST PUSH2 0x23BF DUP2 PUSH2 0x2312 JUMP JUMPDEST DUP3 MSTORE POP POP JUMP JUMPDEST PUSH0 PUSH1 0x20 DUP3 ADD SWAP1 POP PUSH2 0x23D8 PUSH0 DUP4 ADD DUP5 PUSH2 0x23B6 JUMP JUMPDEST SWAP3 SWAP2 POP POP JUMP JUMPDEST PUSH0 DUP1 PUSH0 PUSH1 0x60 DUP5 DUP7 SUB SLT ISZERO PUSH2 0x23F5 JUMPI PUSH2 0x23F4 PUSH2 0x22B4 JUMP JUMPDEST JUMPDEST PUSH0 PUSH2 0x2402 DUP7 DUP3 DUP8 ADD PUSH2 0x22FE JUMP JUMPDEST SWAP4 POP POP PUSH1 0x20 PUSH2 0x2413 DUP7 DUP3 DUP8 ADD PUSH2 0x22FE JUMP JUMPDEST SWAP3 POP POP PUSH1 0x40 PUSH2 0x2424 DUP7 DUP3 DUP8 ADD PUSH2 0x2331 JUMP JUMPDEST SWAP2 POP POP SWAP3 POP SWAP3 POP SWAP3 JUMP JUMPDEST PUSH0 PUSH1 0xFF DUP3 AND SWAP1 POP SWAP2 SWAP1 POP JUMP JUMPDEST PUSH2 0x2443 DUP2 PUSH2 0x242E JUMP JUMPDEST DUP3 MSTORE POP POP JUMP JUMPDEST PUSH0 PUSH1 0x20 DUP3 ADD SWAP1 POP PUSH2 0x245C PUSH0 DUP4 ADD DUP5 PUSH2 0x243A JUMP JUMPDEST SWAP3 SWAP2 POP POP JUMP JUMPDEST PUSH0 PUSH1 0x20 DUP3 DUP5 SUB SLT ISZERO PUSH2 0x2477 JUMPI PUSH2 0x2476 PUSH2 0x22B4 JUMP JUMPDEST JUMPDEST PUSH0 PUSH2 0x2484 DUP5 DUP3 DUP6 ADD PUSH2 0x22FE JUMP JUMPDEST SWAP2 POP POP SWAP3 SWAP2 POP POP JUMP JUMPDEST PUSH2 0x2496 DUP2 PUSH2 0x22D7 JUMP JUMPDEST DUP3 MSTORE POP POP JUMP JUMPDEST PUSH0 PUSH1 0x20 DUP3 ADD SWAP1 POP PUSH2 0x24AF PUSH0 DUP4 ADD DUP5 PUSH2 0x248D JUMP JUMPDEST SWAP3 SWAP2 POP POP JUMP JUMPDEST PUSH0 DUP1 PUSH1 0x40 DUP4 DUP6 SUB SLT ISZERO PUSH2 0x24CB JUMPI PUSH2 0x24CA PUSH2 0x22B4 JUMP JUMPDEST JUMPDEST PUSH0 PUSH2 0x24D8 DUP6 DUP3 DUP7 ADD PUSH2 0x2331 JUMP JUMPDEST SWAP3 POP POP PUSH1 0x20 PUSH2 0x24E9 DUP6 DUP3 DUP7 ADD PUSH2 0x2331 JUMP JUMPDEST SWAP2 POP POP SWAP3 POP SWAP3 SWAP1 POP JUMP JUMPDEST PUSH0 DUP1 PUSH1 0x40 DUP4 DUP6 SUB SLT ISZERO PUSH2 0x2509 JUMPI PUSH2 0x2508 PUSH2 0x22B4 JUMP JUMPDEST JUMPDEST PUSH0 PUSH2 0x2516 DUP6 DUP3 DUP7 ADD PUSH2 0x22FE JUMP JUMPDEST SWAP3 POP POP PUSH1 0x20 PUSH2 0x2527 DUP6 DUP3 DUP7 ADD PUSH2 0x22FE JUMP JUMPDEST SWAP2 POP POP SWAP3 POP SWAP3 SWAP1 POP JUMP JUMPDEST PUSH32 0x4F776E61626C653A2063616C6C6572206973206E6F7420746865206F776E6572 PUSH0 DUP3 ADD MSTORE POP JUMP JUMPDEST PUSH0 PUSH2 0x2565 PUSH1 0x20 DUP4 PUSH2 0x2214 JUMP JUMPDEST SWAP2 POP PUSH2 0x2570 DUP3 PUSH2 0x2531 JUMP JUMPDEST PUSH1 0x20 DUP3 ADD SWAP1 POP SWAP2 SWAP1 POP JUMP JUMPDEST PUSH0 PUSH1 0x20 DUP3 ADD SWAP1 POP DUP2 DUP2 SUB PUSH0 DUP4 ADD MSTORE PUSH2 0x2592 DUP2 PUSH2 0x2559 JUMP JUMPDEST SWAP1 POP SWAP2 SWAP1 POP JUMP JUMPDEST PUSH32 0x74726164696E6720616C7265616479206F70656E000000000000000000000000 PUSH0 DUP3 ADD MSTORE POP JUMP JUMPDEST PUSH0 PUSH2 0x25CD PUSH1 0x14 DUP4 PUSH2 0x2214 JUMP JUMPDEST SWAP2 POP PUSH2 0x25D8 DUP3 PUSH2 0x2599 JUMP JUMPDEST PUSH1 0x20 DUP3 ADD SWAP1 POP SWAP2 SWAP1 POP JUMP JUMPDEST PUSH0 PUSH1 0x20 DUP3 ADD SWAP1 POP DUP2 DUP2 SUB PUSH0 DUP4 ADD MSTORE PUSH2 0x25FA DUP2 PUSH2 0x25C1 JUMP JUMPDEST SWAP1 POP SWAP2 SWAP1 POP JUMP JUMPDEST PUSH0 PUSH1 0x40 DUP3 ADD SWAP1 POP PUSH2 0x2614 PUSH0 DUP4 ADD DUP6 PUSH2 0x238E JUMP JUMPDEST PUSH2 0x2621 PUSH1 0x20 DUP4 ADD DUP5 PUSH2 0x238E JUMP JUMPDEST SWAP4 SWAP3 POP POP POP JUMP JUMPDEST PUSH32 0x4E487B7100000000000000000000000000000000000000000000000000000000 PUSH0 MSTORE PUSH1 0x11 PUSH1 0x4 MSTORE PUSH1 0x24 PUSH0 REVERT JUMPDEST PUSH0 DUP2 PUSH1 0x1 SHR SWAP1 POP SWAP2 SWAP1 POP JUMP JUMPDEST PUSH0 DUP1 DUP3 SWAP2 POP DUP4 SWAP1 POP JUMPDEST PUSH1 0x1 DUP6 GT ISZERO PUSH2 0x26AA JUMPI DUP1 DUP7 DIV DUP2 GT ISZERO PUSH2 0x2686 JUMPI PUSH2 0x2685 PUSH2 0x2628 JUMP JUMPDEST JUMPDEST PUSH1 0x1 DUP6 AND ISZERO PUSH2 0x2695 JUMPI DUP1 DUP3 MUL SWAP2 POP JUMPDEST DUP1 DUP2 MUL SWAP1 POP PUSH2 0x26A3 DUP6 PUSH2 0x2655 JUMP JUMPDEST SWAP5 POP PUSH2 0x266A JUMP JUMPDEST SWAP5 POP SWAP5 SWAP3 POP POP POP JUMP JUMPDEST PUSH0 DUP3 PUSH2 0x26C2 JUMPI PUSH1 0x1 SWAP1 POP PUSH2 0x277D JUMP JUMPDEST DUP2 PUSH2 0x26CF JUMPI PUSH0 SWAP1 POP PUSH2 0x277D JUMP JUMPDEST DUP2 PUSH1 0x1 DUP2 EQ PUSH2 0x26E5 JUMPI PUSH1 0x2 DUP2 EQ PUSH2 0x26EF JUMPI PUSH2 0x271E JUMP JUMPDEST PUSH1 0x1 SWAP2 POP POP PUSH2 0x277D JUMP JUMPDEST PUSH1 0xFF DUP5 GT ISZERO PUSH2 0x2701 JUMPI PUSH2 0x2700 PUSH2 0x2628 JUMP JUMPDEST JUMPDEST DUP4 PUSH1 0x2 EXP SWAP2 POP DUP5 DUP3 GT ISZERO PUSH2 0x2718 JUMPI PUSH2 0x2717 PUSH2 0x2628 JUMP JUMPDEST JUMPDEST POP PUSH2 0x277D JUMP JUMPDEST POP PUSH1 0x20 DUP4 LT PUSH2 0x133 DUP4 LT AND PUSH1 0x4E DUP5 LT PUSH1 0xB DUP5 LT AND OR ISZERO PUSH2 0x2753 JUMPI DUP3 DUP3 EXP SWAP1 POP DUP4 DUP2 GT ISZERO PUSH2 0x274E JUMPI PUSH2 0x274D PUSH2 0x2628 JUMP JUMPDEST JUMPDEST PUSH2 0x277D JUMP JUMPDEST PUSH2 0x2760 DUP5 DUP5 DUP5 PUSH1 0x1 PUSH2 0x2661 JUMP JUMPDEST SWAP3 POP SWAP1 POP DUP2 DUP5 DIV DUP2 GT ISZERO PUSH2 0x2777 JUMPI PUSH2 0x2776 PUSH2 0x2628 JUMP JUMPDEST JUMPDEST DUP2 DUP2 MUL SWAP1 POP JUMPDEST SWAP4 SWAP3 POP POP POP JUMP JUMPDEST PUSH0 PUSH2 0x278E DUP3 PUSH2 0x2312 JUMP JUMPDEST SWAP2 POP PUSH2 0x2799 DUP4 PUSH2 0x242E JUMP JUMPDEST SWAP3 POP PUSH2 0x27C6 PUSH32 0xFFFFFFFFFFFFFFFFFFFFFFFFFFFFFFFFFFFFFFFFFFFFFFFFFFFFFFFFFFFFFFFF DUP5 DUP5 PUSH2 0x26B3 JUMP JUMPDEST SWAP1 POP SWAP3 SWAP2 POP POP JUMP JUMPDEST PUSH0 PUSH2 0x27D8 DUP3 PUSH2 0x2312 JUMP JUMPDEST SWAP2 POP PUSH2 0x27E3 DUP4 PUSH2 0x2312 JUMP JUMPDEST SWAP3 POP DUP3 DUP3 MUL PUSH2 0x27F1 DUP2 PUSH2 0x2312 JUMP JUMPDEST SWAP2 POP DUP3 DUP3 DIV DUP5 EQ DUP4 ISZERO OR PUSH2 0x2808 JUMPI PUSH2 0x2807 PUSH2 0x2628 JUMP JUMPDEST JUMPDEST POP SWAP3 SWAP2 POP POP JUMP JUMPDEST PUSH32 0x696E697420616C72656164792063616C6C656400000000000000000000000000 PUSH0 DUP3 ADD MSTORE POP JUMP JUMPDEST PUSH0 PUSH2 0x2843 PUSH1 0x13 DUP4 PUSH2 0x2214 JUMP JUMPDEST SWAP2 POP PUSH2 0x284E DUP3 PUSH2 0x280F JUMP JUMPDEST PUSH1 0x20 DUP3 ADD SWAP1 POP SWAP2 SWAP1 POP JUMP JUMPDEST PUSH0 PUSH1 0x20 DUP3 ADD SWAP1 POP DUP2 DUP2 SUB PUSH0 DUP4 ADD MSTORE PUSH2 0x2870 DUP2 PUSH2 0x2837 JUMP JUMPDEST SWAP1 POP SWAP2 SWAP1 POP JUMP JUMPDEST PUSH0 DUP2 MLOAD SWAP1 POP PUSH2 0x2885 DUP2 PUSH2 0x22E8 JUMP JUMPDEST SWAP3 SWAP2 POP POP JUMP JUMPDEST PUSH0 PUSH1 0x20 DUP3 DUP5 SUB SLT ISZERO PUSH2 0x28A0 JUMPI PUSH2 0x289F PUSH2 0x22B4 JUMP JUMPDEST JUMPDEST PUSH0 PUSH2 0x28AD DUP5 DUP3 DUP6 ADD PUSH2 0x2877 JUMP JUMPDEST SWAP2 POP POP SWAP3 SWAP2 POP POP JUMP JUMPDEST PUSH0 PUSH1 0x40 DUP3 ADD SWAP1 POP PUSH2 0x28C9 PUSH0 DUP4 ADD DUP6 PUSH2 0x248D JUMP JUMPDEST PUSH2 0x28D6 PUSH1 0x20 DUP4 ADD DUP5 PUSH2 0x248D JUMP JUMPDEST SWAP4 SWAP3 POP POP POP JUMP JUMPDEST PUSH0 DUP2 SWAP1 POP SWAP2 SWAP1 POP JUMP JUMPDEST PUSH0 DUP2 SWAP1 POP SWAP2 SWAP1 POP JUMP JUMPDEST PUSH0 PUSH2 0x2909 PUSH2 0x2904 PUSH2 0x28FF DUP5 PUSH2 0x28DD JUMP JUMPDEST PUSH2 0x28E6 JUMP JUMPDEST PUSH2 0x2312 JUMP JUMPDEST SWAP1 POP SWAP2 SWAP1 POP JUMP JUMPDEST PUSH2 0x2919 DUP2 PUSH2 0x28EF JUMP JUMPDEST DUP3 MSTORE POP POP JUMP JUMPDEST PUSH0 PUSH1 0xC0 DUP3 ADD SWAP1 POP PUSH2 0x2932 PUSH0 DUP4 ADD DUP10 PUSH2 0x248D JUMP JUMPDEST PUSH2 0x293F PUSH1 0x20 DUP4 ADD DUP9 PUSH2 0x23B6 JUMP JUMPDEST PUSH2 0x294C PUSH1 0x40 DUP4 ADD DUP8 PUSH2 0x2910 JUMP JUMPDEST PUSH2 0x2959 PUSH1 0x60 DUP4 ADD DUP7 PUSH2 0x2910 JUMP JUMPDEST PUSH2 0x2966 PUSH1 0x80 DUP4 ADD DUP6 PUSH2 0x248D JUMP JUMPDEST PUSH2 0x2973 PUSH1 0xA0 DUP4 ADD DUP5 PUSH2 0x23B6 JUMP JUMPDEST SWAP8 SWAP7 POP POP POP POP POP POP POP JUMP JUMPDEST PUSH0 DUP2 MLOAD SWAP1 POP PUSH2 0x298C DUP2 PUSH2 0x231B JUMP JUMPDEST SWAP3 SWAP2 POP POP JUMP JUMPDEST PUSH0 DUP1 PUSH0 PUSH1 0x60 DUP5 DUP7 SUB SLT ISZERO PUSH2 0x29A9 JUMPI PUSH2 0x29A8 PUSH2 0x22B4 JUMP JUMPDEST JUMPDEST PUSH0 PUSH2 0x29B6 DUP7 DUP3 DUP8 ADD PUSH2 0x297E JUMP JUMPDEST SWAP4 POP POP PUSH1 0x20 PUSH2 0x29C7 DUP7 DUP3 DUP8 ADD PUSH2 0x297E JUMP JUMPDEST SWAP3 POP POP PUSH1 0x40 PUSH2 0x29D8 DUP7 DUP3 DUP8 ADD PUSH2 0x297E JUMP JUMPDEST SWAP2 POP POP SWAP3 POP SWAP3 POP SWAP3 JUMP JUMPDEST PUSH0 PUSH1 0x40 DUP3 ADD SWAP1 POP PUSH2 0x29F5 PUSH0 DUP4 ADD DUP6 PUSH2 0x248D JUMP JUMPDEST PUSH2 0x2A02 PUSH1 0x20 DUP4 ADD DUP5 PUSH2 0x23B6 JUMP JUMPDEST SWAP4 SWAP3 POP POP POP JUMP JUMPDEST PUSH2 0x2A12 DUP2 PUSH2 0x2383 JUMP JUMPDEST DUP2 EQ PUSH2 0x2A1C JUMPI PUSH0 DUP1 REVERT JUMPDEST POP JUMP JUMPDEST PUSH0 DUP2 MLOAD SWAP1 POP PUSH2 0x2A2D DUP2 PUSH2 0x2A09 JUMP JUMPDEST SWAP3 SWAP2 POP POP JUMP JUMPDEST PUSH0 PUSH1 0x20 DUP3 DUP5 SUB SLT ISZERO PUSH2 0x2A48 JUMPI PUSH2 0x2A47 PUSH2 0x22B4 JUMP JUMPDEST JUMPDEST PUSH0 PUSH2 0x2A55 DUP5 DUP3 DUP6 ADD PUSH2 0x2A1F JUMP JUMPDEST SWAP2 POP POP SWAP3 SWAP2 POP POP JUMP JUMPDEST PUSH32 0x457863656564732076616C756500000000000000000000000000000000000000 PUSH0 DUP3 ADD MSTORE POP JUMP JUMPDEST PUSH0 PUSH2 0x2A92 PUSH1 0xD DUP4 PUSH2 0x2214 JUMP JUMPDEST SWAP2 POP PUSH2 0x2A9D DUP3 PUSH2 0x2A5E JUMP JUMPDEST PUSH1 0x20 DUP3 ADD SWAP1 POP SWAP2 SWAP1 POP JUMP JUMPDEST PUSH0 PUSH1 0x20 DUP3 ADD SWAP1 POP DUP2 DUP2 SUB PUSH0 DUP4 ADD MSTORE PUSH2 0x2ABF DUP2 PUSH2 0x2A86 JUMP JUMPDEST SWAP1 POP SWAP2 SWAP1 POP JUMP JUMPDEST PUSH0 PUSH1 0x40 DUP3 ADD SWAP1 POP PUSH2 0x2AD9 PUSH0 DUP4 ADD DUP6 PUSH2 0x23B6 JUMP JUMPDEST PUSH2 0x2AE6 PUSH1 0x20 DUP4 ADD DUP5 PUSH2 0x23B6 JUMP JUMPDEST SWAP4 SWAP3 POP POP POP JUMP JUMPDEST PUSH32 0x45524332303A20617070726F766520746865207A65726F206164647265737300 PUSH0 DUP3 ADD MSTORE POP JUMP JUMPDEST PUSH0 PUSH2 0x2B21 PUSH1 0x1F DUP4 PUSH2 0x2214 JUMP JUMPDEST SWAP2 POP PUSH2 0x2B2C DUP3 PUSH2 0x2AED JUMP JUMPDEST PUSH1 0x20 DUP3 ADD SWAP1 POP SWAP2 SWAP1 POP JUMP JUMPDEST PUSH0 PUSH1 0x20 DUP3 ADD SWAP1 POP DUP2 DUP2 SUB PUSH0 DUP4 ADD MSTORE PUSH2 0x2B4E DUP2 PUSH2 0x2B15 JUMP JUMPDEST SWAP1 POP SWAP2 SWAP1 POP JUMP JUMPDEST PUSH32 0x45524332303A207472616E7366657220746865207A65726F2061646472657373 PUSH0 DUP3 ADD MSTORE POP JUMP JUMPDEST PUSH0 PUSH2 0x2B89 PUSH1 0x20 DUP4 PUSH2 0x2214 JUMP JUMPDEST SWAP2 POP PUSH2 0x2B94 DUP3 PUSH2 0x2B55 JUMP JUMPDEST PUSH1 0x20 DUP3 ADD SWAP1 POP SWAP2 SWAP1 POP JUMP JUMPDEST PUSH0 PUSH1 0x20 DUP3 ADD SWAP1 POP DUP2 DUP2 SUB PUSH0 DUP4 ADD MSTORE PUSH2 0x2BB6 DUP2 PUSH2 0x2B7D JUMP JUMPDEST SWAP1 POP SWAP2 SWAP1 POP JUMP JUMPDEST PUSH32 0x5472616E7366657220616D6F756E74206D757374206265206772656174657220 PUSH0 DUP3 ADD MSTORE PUSH32 0x7468616E207A65726F0000000000000000000000000000000000000000000000 PUSH1 0x20 DUP3 ADD MSTORE POP JUMP JUMPDEST PUSH0 PUSH2 0x2C17 PUSH1 0x29 DUP4 PUSH2 0x2214 JUMP JUMPDEST SWAP2 POP PUSH2 0x2C22 DUP3 PUSH2 0x2BBD JUMP JUMPDEST PUSH1 0x40 DUP3 ADD SWAP1 POP SWAP2 SWAP1 POP JUMP JUMPDEST PUSH0 PUSH1 0x20 DUP3 ADD SWAP1 POP DUP2 DUP2 SUB PUSH0 DUP4 ADD MSTORE PUSH2 0x2C44 DUP2 PUSH2 0x2C0B JUMP JUMPDEST SWAP1 POP SWAP2 SWAP1 POP JUMP JUMPDEST PUSH32 0x74726164696E67206973206E6F7420796574206F70656E000000000000000000 PUSH0 DUP3 ADD MSTORE POP JUMP JUMPDEST PUSH0 PUSH2 0x2C7F PUSH1 0x17 DUP4 PUSH2 0x2214 JUMP JUMPDEST SWAP2 POP PUSH2 0x2C8A DUP3 PUSH2 0x2C4B JUMP JUMPDEST PUSH1 0x20 DUP3 ADD SWAP1 POP SWAP2 SWAP1 POP JUMP JUMPDEST PUSH0 PUSH1 0x20 DUP3 ADD SWAP1 POP DUP2 DUP2 SUB PUSH0 DUP4 ADD MSTORE PUSH2 0x2CAC DUP2 PUSH2 0x2C73 JUMP JUMPDEST SWAP1 POP SWAP2 SWAP1 POP JUMP JUMPDEST PUSH32 0x4578636565647320746865205F6D61785478416D6F756E742E00000000000000 PUSH0 DUP3 ADD MSTORE POP JUMP JUMPDEST PUSH0 PUSH2 0x2CE7 PUSH1 0x19 DUP4 PUSH2 0x2214 JUMP JUMPDEST SWAP2 POP PUSH2 0x2CF2 DUP3 PUSH2 0x2CB3 JUMP JUMPDEST PUSH1 0x20 DUP3 ADD SWAP1 POP SWAP2 SWAP1 POP JUMP JUMPDEST PUSH0 PUSH1 0x20 DUP3 ADD SWAP1 POP DUP2 DUP2 SUB PUSH0 DUP4 ADD MSTORE PUSH2 0x2D14 DUP2 PUSH2 0x2CDB JUMP JUMPDEST SWAP1 POP SWAP2 SWAP1 POP JUMP JUMPDEST PUSH0 PUSH2 0x2D25 DUP3 PUSH2 0x2312 JUMP JUMPDEST SWAP2 POP PUSH2 0x2D30 DUP4 PUSH2 0x2312 JUMP JUMPDEST SWAP3 POP DUP3 DUP3 ADD SWAP1 POP DUP1 DUP3 GT ISZERO PUSH2 0x2D48 JUMPI PUSH2 0x2D47 PUSH2 0x2628 JUMP JUMPDEST JUMPDEST SWAP3 SWAP2 POP POP JUMP JUMPDEST PUSH32 0x4578636565647320746865206D617857616C6C657453697A652E000000000000 PUSH0 DUP3 ADD MSTORE POP JUMP JUMPDEST PUSH0 PUSH2 0x2D82 PUSH1 0x1A DUP4 PUSH2 0x2214 JUMP JUMPDEST SWAP2 POP PUSH2 0x2D8D DUP3 PUSH2 0x2D4E JUMP JUMPDEST PUSH1 0x20 DUP3 ADD SWAP1 POP SWAP2 SWAP1 POP JUMP JUMPDEST PUSH0 PUSH1 0x20 DUP3 ADD SWAP1 POP DUP2 DUP2 SUB PUSH0 DUP4 ADD MSTORE PUSH2 0x2DAF DUP2 PUSH2 0x2D76 JUMP JUMPDEST SWAP1 POP SWAP2 SWAP1 POP JUMP JUMPDEST PUSH0 PUSH2 0x2DC0 DUP3 PUSH2 0x2312 JUMP JUMPDEST SWAP2 POP PUSH32 0xFFFFFFFFFFFFFFFFFFFFFFFFFFFFFFFFFFFFFFFFFFFFFFFFFFFFFFFFFFFFFFFF DUP3 SUB PUSH2 0x2DF2 JUMPI PUSH2 0x2DF1 PUSH2 0x2628 JUMP JUMPDEST JUMPDEST PUSH1 0x1 DUP3 ADD SWAP1 POP SWAP2 SWAP1 POP JUMP JUMPDEST PUSH0 PUSH2 0x2E07 DUP3 PUSH2 0x2312 JUMP JUMPDEST SWAP2 POP PUSH2 0x2E12 DUP4 PUSH2 0x2312 JUMP JUMPDEST SWAP3 POP DUP3 DUP3 SUB SWAP1 POP DUP2 DUP2 GT ISZERO PUSH2 0x2E2A JUMPI PUSH2 0x2E29 PUSH2 0x2628 JUMP JUMPDEST JUMPDEST SWAP3 SWAP2 POP POP JUMP JUMPDEST PUSH32 0x4E487B7100000000000000000000000000000000000000000000000000000000 PUSH0 MSTORE PUSH1 0x12 PUSH1 0x4 MSTORE PUSH1 0x24 PUSH0 REVERT JUMPDEST PUSH0 PUSH2 0x2E67 DUP3 PUSH2 0x2312 JUMP JUMPDEST SWAP2 POP PUSH2 0x2E72 DUP4 PUSH2 0x2312 JUMP JUMPDEST SWAP3 POP DUP3 PUSH2 0x2E82 JUMPI PUSH2 0x2E81 PUSH2 0x2E30 JUMP JUMPDEST JUMPDEST DUP3 DUP3 DIV SWAP1 POP SWAP3 SWAP2 POP POP JUMP JUMPDEST PUSH32 0x536166654D6174683A206D756C7469706C69636174696F6E206F766572666C6F PUSH0 DUP3 ADD MSTORE PUSH32 0x7700000000000000000000000000000000000000000000000000000000000000 PUSH1 0x20 DUP3 ADD MSTORE POP JUMP JUMPDEST PUSH0 PUSH2 0x2EE7 PUSH1 0x21 DUP4 PUSH2 0x2214 JUMP JUMPDEST SWAP2 POP PUSH2 0x2EF2 DUP3 PUSH2 0x2E8D JUMP JUMPDEST PUSH1 0x40 DUP3 ADD SWAP1 POP SWAP2 SWAP1 POP JUMP JUMPDEST PUSH0 PUSH1 0x20 DUP3 ADD SWAP1 POP DUP2 DUP2 SUB PUSH0 DUP4 ADD MSTORE PUSH2 0x2F14 DUP2 PUSH2 0x2EDB JUMP JUMPDEST SWAP1 POP SWAP2 SWAP1 POP JUMP JUMPDEST PUSH32 0x4E487B7100000000000000000000000000000000000000000000000000000000 PUSH0 MSTORE PUSH1 0x41 PUSH1 0x4 MSTORE PUSH1 0x24 PUSH0 REVERT JUMPDEST PUSH32 0x4E487B7100000000000000000000000000000000000000000000000000000000 PUSH0 MSTORE PUSH1 0x32 PUSH1 0x4 MSTORE PUSH1 0x24 PUSH0 REVERT JUMPDEST PUSH0 DUP2 MLOAD SWAP1 POP SWAP2 SWAP1 POP JUMP JUMPDEST PUSH0 DUP3 DUP3 MSTORE PUSH1 0x20 DUP3 ADD SWAP1 POP SWAP3 SWAP2 POP POP JUMP JUMPDEST PUSH0 DUP2 SWAP1 POP PUSH1 0x20 DUP3 ADD SWAP1 POP SWAP2 SWAP1 POP JUMP JUMPDEST PUSH2 0x2FA7 DUP2 PUSH2 0x22D7 JUMP JUMPDEST DUP3 MSTORE POP POP JUMP JUMPDEST PUSH0 PUSH2 0x2FB8 DUP4 DUP4 PUSH2 0x2F9E JUMP JUMPDEST PUSH1 0x20 DUP4 ADD SWAP1 POP SWAP3 SWAP2 POP POP JUMP JUMPDEST PUSH0 PUSH1 0x20 DUP3 ADD SWAP1 POP SWAP2 SWAP1 POP JUMP JUMPDEST PUSH0 PUSH2 0x2FDA DUP3 PUSH2 0x2F75 JUMP JUMPDEST PUSH2 0x2FE4 DUP2 DUP6 PUSH2 0x2F7F JUMP JUMPDEST SWAP4 POP PUSH2 0x2FEF DUP4 PUSH2 0x2F8F JUMP JUMPDEST DUP1 PUSH0 JUMPDEST DUP4 DUP2 LT ISZERO PUSH2 0x301F JUMPI DUP2 MLOAD PUSH2 0x3006 DUP9 DUP3 PUSH2 0x2FAD JUMP JUMPDEST SWAP8 POP PUSH2 0x3011 DUP4 PUSH2 0x2FC4 JUMP JUMPDEST SWAP3 POP POP PUSH1 0x1 DUP2 ADD SWAP1 POP PUSH2 0x2FF2 JUMP JUMPDEST POP DUP6 SWAP4 POP POP POP POP SWAP3 SWAP2 POP POP JUMP JUMPDEST PUSH0 PUSH1 0xA0 DUP3 ADD SWAP1 POP PUSH2 0x303F PUSH0 DUP4 ADD DUP9 PUSH2 0x23B6 JUMP JUMPDEST PUSH2 0x304C PUSH1 0x20 DUP4 ADD DUP8 PUSH2 0x2910 JUMP JUMPDEST DUP2 DUP2 SUB PUSH1 0x40 DUP4 ADD MSTORE PUSH2 0x305E DUP2 DUP7 PUSH2 0x2FD0 JUMP JUMPDEST SWAP1 POP PUSH2 0x306D PUSH1 0x60 DUP4 ADD DUP6 PUSH2 0x248D JUMP JUMPDEST PUSH2 0x307A PUSH1 0x80 DUP4 ADD DUP5 PUSH2 0x23B6 JUMP JUMPDEST SWAP7 SWAP6 POP POP POP POP POP POP JUMP JUMPDEST PUSH32 0x536166654D6174683A206164646974696F6E206F766572666C6F770000000000 PUSH0 DUP3 ADD MSTORE POP JUMP JUMPDEST PUSH0 PUSH2 0x30B8 PUSH1 0x1B DUP4 PUSH2 0x2214 JUMP JUMPDEST SWAP2 POP PUSH2 0x30C3 DUP3 PUSH2 0x3084 JUMP JUMPDEST PUSH1 0x20 DUP3 ADD SWAP1 POP SWAP2 SWAP1 POP JUMP JUMPDEST PUSH0 PUSH1 0x20 DUP3 ADD SWAP1 POP DUP2 DUP2 SUB PUSH0 DUP4 ADD MSTORE PUSH2 0x30E5 DUP2 PUSH2 0x30AC JUMP JUMPDEST SWAP1 POP SWAP2 SWAP1 POP JUMP INVALID GASLIMIT MSTORE NUMBER ORIGIN ADDRESS GASPRICE KECCAK256 PUSH21 0x72616E7366657220616D6F756E7420657863656564 PUSH20 0x20616C6C6F77616E6365A2646970667358221220 0x5E PUSH28 0x8068F42F59E7CAE8AFE1A2D76D2D6010BFE4A38DD66553B5B252A40D SWAP3 0xD6 PUSH5 0x736F6C6343 STOP ADDMOD EQ STOP CALLER "
				},
				"gasEstimates": {
					"creation": {
						"codeDepositCost": "2523600",
						"executionCost": "infinite",
						"totalCost": "infinite"
					},
					"external": {
						"_maxTaxSwap()": "infinite",
						"_maxTxAmount()": "2448",
						"_maxWalletSize()": "2514",
						"_taxSwapThreshold()": "infinite",
						"allowance(address,address)": "infinite",
						"approve(address,uint256)": "infinite",
						"balanceOf(address)": "2918",
						"decimals()": "405",
						"initialize()": "infinite",
						"launch()": "infinite",
						"name()": "infinite",
						"owner()": "2582",
						"renounceOwnership()": "30395",
						"setsTax(uint256,uint256)": "infinite",
						"symbol()": "infinite",
						"toggleLimit()": "infinite",
						"totalSupply()": "infinite",
						"transfer(address,uint256)": "infinite",
						"transferFrom(address,address,uint256)": "infinite"
					},
					"internal": {
						"_approve(address,address,uint256)": "infinite",
						"_transfer(address,address,uint256)": "infinite",
						"sendETHToFee(uint256)": "infinite",
						"swapTokensForEth(uint256)": "infinite"
					}
				},
				"methodIdentifiers": {
					"_maxTaxSwap()": "0faee56f",
					"_maxTxAmount()": "7d1db4a5",
					"_maxWalletSize()": "8f9a55c0",
					"_taxSwapThreshold()": "bf474bed",
					"allowance(address,address)": "dd62ed3e",
					"approve(address,uint256)": "095ea7b3",
					"balanceOf(address)": "70a08231",
					"decimals()": "313ce567",
					"initialize()": "8129fc1c",
					"launch()": "01339c21",
					"name()": "06fdde03",
					"owner()": "8da5cb5b",
					"renounceOwnership()": "715018a6",
					"setsTax(uint256,uint256)": "d007cd4a",
					"symbol()": "95d89b41",
					"toggleLimit()": "f10f864e",
					"totalSupply()": "18160ddd",
					"transfer(address,uint256)": "a9059cbb",
					"transferFrom(address,address,uint256)": "23b872dd"
				}
			},
			"storageLayout": {
				"storage": [
					{
						"astId": 228,
						"contract": "Tmp.sol:HotelAI",
						"label": "_owner",
						"offset": 0,
						"slot": "0",
						"type": "t_address"
					},
					{
						"astId": 366,
						"contract": "Tmp.sol:HotelAI",
						"label": "_balances",
						"offset": 0,
						"slot": "1",
						"type": "t_mapping(t_address,t_uint256)"
					},
					{
						"astId": 372,
						"contract": "Tmp.sol:HotelAI",
						"label": "_allowances",
						"offset": 0,
						"slot": "2",
						"type": "t_mapping(t_address,t_mapping(t_address,t_uint256))"
					},
					{
						"astId": 376,
						"contract": "Tmp.sol:HotelAI",
						"label": "_isExcludedFromFee",
						"offset": 0,
						"slot": "3",
						"type": "t_mapping(t_address,t_bool)"
					},
					{
						"astId": 378,
						"contract": "Tmp.sol:HotelAI",
						"label": "_taxWallet",
						"offset": 0,
						"slot": "4",
						"type": "t_address_payable"
					},
					{
						"astId": 402,
						"contract": "Tmp.sol:HotelAI",
						"label": "_finalBuyTax",
						"offset": 0,
						"slot": "5",
						"type": "t_uint256"
					},
					{
						"astId": 405,
						"contract": "Tmp.sol:HotelAI",
						"label": "_finalSellTax",
						"offset": 0,
						"slot": "6",
						"type": "t_uint256"
					},
					{
						"astId": 408,
						"contract": "Tmp.sol:HotelAI",
						"label": "_buyCount",
						"offset": 0,
						"slot": "7",
						"type": "t_uint256"
					},
					{
						"astId": 445,
						"contract": "Tmp.sol:HotelAI",
						"label": "_maxTxAmount",
						"offset": 0,
						"slot": "8",
						"type": "t_uint256"
					},
					{
						"astId": 452,
						"contract": "Tmp.sol:HotelAI",
						"label": "_maxWalletSize",
						"offset": 0,
						"slot": "9",
						"type": "t_uint256"
					},
					{
						"astId": 455,
						"contract": "Tmp.sol:HotelAI",
						"label": "uniswapV2Router",
						"offset": 0,
						"slot": "10",
						"type": "t_contract(IUniswapV2Router02)353"
					},
					{
						"astId": 457,
						"contract": "Tmp.sol:HotelAI",
						"label": "uniswapV2Pair",
						"offset": 0,
						"slot": "11",
						"type": "t_address"
					},
					{
						"astId": 459,
						"contract": "Tmp.sol:HotelAI",
						"label": "tradingOpen",
						"offset": 20,
						"slot": "11",
						"type": "t_bool"
					},
					{
						"astId": 462,
						"contract": "Tmp.sol:HotelAI",
						"label": "limitEffect",
						"offset": 21,
						"slot": "11",
						"type": "t_bool"
					},
					{
						"astId": 465,
						"contract": "Tmp.sol:HotelAI",
						"label": "inSwap",
						"offset": 22,
						"slot": "11",
						"type": "t_bool"
					},
					{
						"astId": 468,
						"contract": "Tmp.sol:HotelAI",
						"label": "swapEnabled",
						"offset": 23,
						"slot": "11",
						"type": "t_bool"
					}
				],
				"types": {
					"t_address": {
						"encoding": "inplace",
						"label": "address",
						"numberOfBytes": "20"
					},
					"t_address_payable": {
						"encoding": "inplace",
						"label": "address payable",
						"numberOfBytes": "20"
					},
					"t_bool": {
						"encoding": "inplace",
						"label": "bool",
						"numberOfBytes": "1"
					},
					"t_contract(IUniswapV2Router02)353": {
						"encoding": "inplace",
						"label": "contract IUniswapV2Router02",
						"numberOfBytes": "20"
					},
					"t_mapping(t_address,t_bool)": {
						"encoding": "mapping",
						"key": "t_address",
						"label": "mapping(address => bool)",
						"numberOfBytes": "32",
						"value": "t_bool"
					},
					"t_mapping(t_address,t_mapping(t_address,t_uint256))": {
						"encoding": "mapping",
						"key": "t_address",
						"label": "mapping(address => mapping(address => uint256))",
						"numberOfBytes": "32",
						"value": "t_mapping(t_address,t_uint256)"
					},
					"t_mapping(t_address,t_uint256)": {
						"encoding": "mapping",
						"key": "t_address",
						"label": "mapping(address => uint256)",
						"numberOfBytes": "32",
						"value": "t_uint256"
					},
					"t_uint256": {
						"encoding": "inplace",
						"label": "uint256",
						"numberOfBytes": "32"
					}
				}
			},
			"userdoc": {
				"kind": "user",
				"methods": {},
				"version": 1
			}
		}
	}
}