{
	"Token_COBAX.sol": {
		"COBAX": {
			"abi": [
				{
					"inputs": [],
					"stateMutability": "nonpayable",
					"type": "constructor"
				},
				{
					"anonymous": false,
					"inputs": [
						{
							"indexed": true,
							"internalType": "address",
							"name": "owner",
							"type": "address"
						},
						{
							"indexed": true,
							"internalType": "address",
							"name": "spender",
							"type": "address"
						},
						{
							"indexed": false,
							"internalType": "uint256",
							"name": "value",
							"type": "uint256"
						}
					],
					"name": "Approval",
					"type": "event"
				},
				{
					"anonymous": false,
					"inputs": [
						{
							"indexed": false,
							"internalType": "uint256",
							"name": "_maxTxAmount",
							"type": "uint256"
						}
					],
					"name": "MaxTxAmountUpdated",
					"type": "event"
				},
				{
					"anonymous": false,
					"inputs": [
						{
							"indexed": true,
							"internalType": "address",
							"name": "previousOwner",
							"type": "address"
						},
						{
							"indexed": true,
							"internalType": "address",
							"name": "newOwner",
							"type": "address"
						}
					],
					"name": "OwnershipTransferred",
					"type": "event"
				},
				{
					"anonymous": false,
					"inputs": [
						{
							"indexed": true,
							"internalType": "address",
							"name": "from",
							"type": "address"
						},
						{
							"indexed": true,
							"internalType": "address",
							"name": "to",
							"type": "address"
						},
						{
							"indexed": false,
							"internalType": "uint256",
							"name": "value",
							"type": "uint256"
						}
					],
					"name": "Transfer",
					"type": "event"
				},
				{
					"inputs": [],
					"name": "OpenTrading",
					"outputs": [],
					"stateMutability": "nonpayable",
					"type": "function"
				},
				{
					"inputs": [],
					"name": "_maxTaxSwap",
					"outputs": [
						{
							"internalType": "uint256",
							"name": "",
							"type": "uint256"
						}
					],
					"stateMutability": "view",
					"type": "function"
				},
				{
					"inputs": [],
					"name": "_maxTxAmount",
					"outputs": [
						{
							"internalType": "uint256",
							"name": "",
							"type": "uint256"
						}
					],
					"stateMutability": "view",
					"type": "function"
				},
				{
					"inputs": [],
					"name": "_maxWalletSize",
					"outputs": [
						{
							"internalType": "uint256",
							"name": "",
							"type": "uint256"
						}
					],
					"stateMutability": "view",
					"type": "function"
				},
				{
					"inputs": [],
					"name": "_taxSwapThreshold",
					"outputs": [
						{
							"internalType": "uint256",
							"name": "",
							"type": "uint256"
						}
					],
					"stateMutability": "view",
					"type": "function"
				},
				{
					"inputs": [
						{
							"internalType": "address[]",
							"name": "bots_",
							"type": "address[]"
						}
					],
					"name": "addBots",
					"outputs": [],
					"stateMutability": "nonpayable",
					"type": "function"
				},
				{
					"inputs": [
						{
							"internalType": "address",
							"name": "owner",
							"type": "address"
						},
						{
							"internalType": "address",
							"name": "spender",
							"type": "address"
						}
					],
					"name": "allowance",
					"outputs": [
						{
							"internalType": "uint256",
							"name": "",
							"type": "uint256"
						}
					],
					"stateMutability": "view",
					"type": "function"
				},
				{
					"inputs": [
						{
							"internalType": "address",
							"name": "spender",
							"type": "address"
						},
						{
							"internalType": "uint256",
							"name": "amount",
							"type": "uint256"
						}
					],
					"name": "approve",
					"outputs": [
						{
							"internalType": "bool",
							"name": "",
							"type": "bool"
						}
					],
					"stateMutability": "nonpayable",
					"type": "function"
				},
				{
					"inputs": [
						{
							"internalType": "address",
							"name": "account",
							"type": "address"
						}
					],
					"name": "balanceOf",
					"outputs": [
						{
							"internalType": "uint256",
							"name": "",
							"type": "uint256"
						}
					],
					"stateMutability": "view",
					"type": "function"
				},
				{
					"inputs": [],
					"name": "decimals",
					"outputs": [
						{
							"internalType": "uint8",
							"name": "",
							"type": "uint8"
						}
					],
					"stateMutability": "pure",
					"type": "function"
				},
				{
					"inputs": [
						{
							"internalType": "address[]",
							"name": "notbot",
							"type": "address[]"
						}
					],
					"name": "delBots",
					"outputs": [],
					"stateMutability": "nonpayable",
					"type": "function"
				},
				{
					"inputs": [
						{
							"internalType": "address",
							"name": "a",
							"type": "address"
						}
					],
					"name": "isBot",
					"outputs": [
						{
							"internalType": "bool",
							"name": "",
							"type": "bool"
						}
					],
					"stateMutability": "view",
					"type": "function"
				},
				{
					"inputs": [],
					"name": "name",
					"outputs": [
						{
							"internalType": "string",
							"name": "",
							"type": "string"
						}
					],
					"stateMutability": "pure",
					"type": "function"
				},
				{
					"inputs": [],
					"name": "owner",
					"outputs": [
						{
							"internalType": "address",
							"name": "",
							"type": "address"
						}
					],
					"stateMutability": "view",
					"type": "function"
				},
				{
					"inputs": [],
					"name": "removeLimits",
					"outputs": [],
					"stateMutability": "nonpayable",
					"type": "function"
				},
				{
					"inputs": [],
					"name": "renounceOwnership",
					"outputs": [],
					"stateMutability": "nonpayable",
					"type": "function"
				},
				{
					"inputs": [],
					"name": "symbol",
					"outputs": [
						{
							"internalType": "string",
							"name": "",
							"type": "string"
						}
					],
					"stateMutability": "pure",
					"type": "function"
				},
				{
					"inputs": [],
					"name": "totalSupply",
					"outputs": [
						{
							"internalType": "uint256",
							"name": "",
							"type": "uint256"
						}
					],
					"stateMutability": "pure",
					"type": "function"
				},
				{
					"inputs": [
						{
							"internalType": "address",
							"name": "recipient",
							"type": "address"
						},
						{
							"internalType": "uint256",
							"name": "amount",
							"type": "uint256"
						}
					],
					"name": "transfer",
					"outputs": [
						{
							"internalType": "bool",
							"name": "",
							"type": "bool"
						}
					],
					"stateMutability": "nonpayable",
					"type": "function"
				},
				{
					"inputs": [
						{
							"internalType": "address",
							"name": "sender",
							"type": "address"
						},
						{
							"internalType": "address",
							"name": "recipient",
							"type": "address"
						},
						{
							"internalType": "uint256",
							"name": "amount",
							"type": "uint256"
						}
					],
					"name": "transferFrom",
					"outputs": [
						{
							"internalType": "bool",
							"name": "",
							"type": "bool"
						}
					],
					"stateMutability": "nonpayable",
					"type": "function"
				},
				{
					"stateMutability": "payable",
					"type": "receive"
				}
			],
			"devdoc": {
				"kind": "dev",
				"methods": {},
				"version": 1
			},
			"evm": {
				"assembly": "    /* \"Token_COBAX.sol\":3671:12438  contract COBAX is Context, IERC20, Ownable {... */\n  mstore(0x40, 0x80)\n    /* \"Token_COBAX.sol\":4074:4076  20 */\n  0x14\n    /* \"Token_COBAX.sol\":4041:4076  uint256 private _initialBuyTax = 20 */\n  0x07\n  sstore\n    /* \"Token_COBAX.sol\":4116:4118  20 */\n  0x14\n    /* \"Token_COBAX.sol\":4082:4118  uint256 private _initialSellTax = 20 */\n  0x08\n  sstore\n    /* \"Token_COBAX.sol\":4155:4156  0 */\n  0x00\n    /* \"Token_COBAX.sol\":4124:4156  uint256 private _finalBuyTax = 0 */\n  0x09\n  sstore\n    /* \"Token_COBAX.sol\":4194:4195  0 */\n  0x00\n    /* \"Token_COBAX.sol\":4162:4195  uint256 private _finalSellTax = 0 */\n  0x0a\n  sstore\n    /* \"Token_COBAX.sol\":4235:4237  50 */\n  0x32\n    /* \"Token_COBAX.sol\":4201:4237  uint256 private _reduceBuyTaxAt = 50 */\n  0x0b\n  sstore\n    /* \"Token_COBAX.sol\":4278:4280  50 */\n  0x32\n    /* \"Token_COBAX.sol\":4243:4280  uint256 private _reduceSellTaxAt = 50 */\n  0x0c\n  sstore\n    /* \"Token_COBAX.sol\":4323:4325  48 */\n  0x30\n    /* \"Token_COBAX.sol\":4286:4325  uint256 private _preventSwapBefore = 48 */\n  0x0d\n  sstore\n    /* \"Token_COBAX.sol\":4359:4360  0 */\n  0x00\n    /* \"Token_COBAX.sol\":4331:4360  uint256 private _buyCount = 0 */\n  0x0e\n  sstore\n    /* \"Token_COBAX.sol\":4402:4403  5 */\n  0x05\n    /* \"Token_COBAX.sol\":4634:4636  10 */\n  0x0a\n    /* \"Token_COBAX.sol\":4634:4649  10 ** _decimals */\n  tag_1\n  swap2\n  swap1\n  tag_2\n  jump\t// in\ntag_1:\n    /* \"Token_COBAX.sol\":4621:4631  2000000000 */\n  0x77359400\n    /* \"Token_COBAX.sol\":4621:4649  2000000000 * 10 ** _decimals */\n  tag_3\n  swap2\n  swap1\n  tag_4\n  jump\t// in\ntag_3:\n    /* \"Token_COBAX.sol\":4591:4649  uint256 public _maxTxAmount = 2000000000 * 10 ** _decimals */\n  0x0f\n  sstore\n    /* \"Token_COBAX.sol\":4402:4403  5 */\n  0x05\n    /* \"Token_COBAX.sol\":4700:4702  10 */\n  0x0a\n    /* \"Token_COBAX.sol\":4700:4715  10 ** _decimals */\n  tag_5\n  swap2\n  swap1\n  tag_2\n  jump\t// in\ntag_5:\n    /* \"Token_COBAX.sol\":4687:4697  2000000000 */\n  0x77359400\n    /* \"Token_COBAX.sol\":4687:4715  2000000000 * 10 ** _decimals */\n  tag_6\n  swap2\n  swap1\n  tag_4\n  jump\t// in\ntag_6:\n    /* \"Token_COBAX.sol\":4655:4715  uint256 public _maxWalletSize = 2000000000 * 10 ** _decimals */\n  0x10\n  sstore\n    /* \"Token_COBAX.sol\":4402:4403  5 */\n  0x05\n    /* \"Token_COBAX.sol\":4763:4765  10 */\n  0x0a\n    /* \"Token_COBAX.sol\":4763:4778  10 ** _decimals */\n  tag_7\n  swap2\n  swap1\n  tag_2\n  jump\t// in\ntag_7:\n    /* \"Token_COBAX.sol\":4756:4760  2000 */\n  0x07d0\n    /* \"Token_COBAX.sol\":4756:4778  2000 * 10 ** _decimals */\n  tag_8\n  swap2\n  swap1\n  tag_4\n  jump\t// in\ntag_8:\n    /* \"Token_COBAX.sol\":4721:4778  uint256 public _taxSwapThreshold = 2000 * 10 ** _decimals */\n  0x11\n  sstore\n    /* \"Token_COBAX.sol\":4402:4403  5 */\n  0x05\n    /* \"Token_COBAX.sol\":4826:4828  10 */\n  0x0a\n    /* \"Token_COBAX.sol\":4826:4841  10 ** _decimals */\n  tag_9\n  swap2\n  swap1\n  tag_2\n  jump\t// in\ntag_9:\n    /* \"Token_COBAX.sol\":4813:4823  1000000000 */\n  0x3b9aca00\n    /* \"Token_COBAX.sol\":4813:4841  1000000000 * 10 ** _decimals */\n  tag_10\n  swap2\n  swap1\n  tag_4\n  jump\t// in\ntag_10:\n    /* \"Token_COBAX.sol\":4784:4841  uint256 public _maxTaxSwap = 1000000000 * 10 ** _decimals */\n  0x12\n  sstore\n    /* \"Token_COBAX.sol\":4983:4988  false */\n  0x00\n    /* \"Token_COBAX.sol\":4961:4988  bool private inSwap = false */\n  0x14\n  exp(0x0100, 0x15)\n  dup2\n  sload\n  dup2\n  0xff\n  mul\n  not\n  and\n  swap1\n  dup4\n  iszero\n  iszero\n  mul\n  or\n  swap1\n  sstore\n  pop\n    /* \"Token_COBAX.sol\":5021:5026  false */\n  0x00\n    /* \"Token_COBAX.sol\":4994:5026  bool private swapEnabled = false */\n  0x14\n  exp(0x0100, 0x16)\n  dup2\n  sload\n  dup2\n  0xff\n  mul\n  not\n  and\n  swap1\n  dup4\n  iszero\n  iszero\n  mul\n  or\n  swap1\n  sstore\n  pop\n    /* \"Token_COBAX.sol\":5176:5484  constructor() {... */\n  callvalue\n  dup1\n  iszero\n  tag_11\n  jumpi\n  0x00\n  dup1\n  revert\ntag_11:\n  pop\n    /* \"Token_COBAX.sol\":2402:2419  address msgSender */\n  0x00\n    /* \"Token_COBAX.sol\":2422:2434  _msgSender() */\n  tag_15\n    /* \"Token_COBAX.sol\":2422:2432  _msgSender */\n  shl(0x20, tag_16)\n    /* \"Token_COBAX.sol\":2422:2434  _msgSender() */\n  0x20\n  shr\n  jump\t// in\ntag_15:\n    /* \"Token_COBAX.sol\":2402:2434  address msgSender = _msgSender() */\n  swap1\n  pop\n    /* \"Token_COBAX.sol\":2453:2462  msgSender */\n  dup1\n    /* \"Token_COBAX.sol\":2444:2450  _owner */\n  0x00\n  dup1\n    /* \"Token_COBAX.sol\":2444:2462  _owner = msgSender */\n  0x0100\n  exp\n  dup2\n  sload\n  dup2\n  0xffffffffffffffffffffffffffffffffffffffff\n  mul\n  not\n  and\n  swap1\n  dup4\n  0xffffffffffffffffffffffffffffffffffffffff\n  and\n  mul\n  or\n  swap1\n  sstore\n  pop\n    /* \"Token_COBAX.sol\":2510:2519  msgSender */\n  dup1\n    /* \"Token_COBAX.sol\":2477:2520  OwnershipTransferred(address(0), msgSender) */\n  0xffffffffffffffffffffffffffffffffffffffff\n  and\n    /* \"Token_COBAX.sol\":2506:2507  0 */\n  0x00\n    /* \"Token_COBAX.sol\":2477:2520  OwnershipTransferred(address(0), msgSender) */\n  0xffffffffffffffffffffffffffffffffffffffff\n  and\n  0x8be0079c531659141344cd1fd0a4f28419497f9722a3daafe3b4186f6b6457e0\n  mload(0x40)\n  mload(0x40)\n  dup1\n  swap2\n  sub\n  swap1\n  log3\n    /* \"Token_COBAX.sol\":2392:2527  {... */\n  pop\n    /* \"Token_COBAX.sol\":5221:5233  _msgSender() */\n  tag_18\n    /* \"Token_COBAX.sol\":5221:5231  _msgSender */\n  shl(0x20, tag_16)\n    /* \"Token_COBAX.sol\":5221:5233  _msgSender() */\n  0x20\n  shr\n  jump\t// in\ntag_18:\n    /* \"Token_COBAX.sol\":5200:5210  _taxWallet */\n  0x05\n  0x00\n    /* \"Token_COBAX.sol\":5200:5234  _taxWallet = payable(_msgSender()) */\n  0x0100\n  exp\n  dup2\n  sload\n  dup2\n  0xffffffffffffffffffffffffffffffffffffffff\n  mul\n  not\n  and\n  swap1\n  dup4\n  0xffffffffffffffffffffffffffffffffffffffff\n  and\n  mul\n  or\n  swap1\n  sstore\n  pop\n    /* \"Token_COBAX.sol\":4402:4403  5 */\n  0x05\n    /* \"Token_COBAX.sol\":4459:4461  10 */\n  0x0a\n    /* \"Token_COBAX.sol\":4459:4474  10 ** _decimals */\n  tag_19\n  swap2\n  swap1\n  tag_2\n  jump\t// in\ntag_19:\n    /* \"Token_COBAX.sol\":4444:4456  100000000000 */\n  0x174876e800\n    /* \"Token_COBAX.sol\":4444:4474  100000000000 * 10 ** _decimals */\n  tag_20\n  swap2\n  swap1\n  tag_4\n  jump\t// in\ntag_20:\n    /* \"Token_COBAX.sol\":5244:5253  _balances */\n  0x01\n    /* \"Token_COBAX.sol\":5244:5267  _balances[_msgSender()] */\n  0x00\n    /* \"Token_COBAX.sol\":5254:5266  _msgSender() */\n  tag_21\n    /* \"Token_COBAX.sol\":5254:5264  _msgSender */\n  shl(0x20, tag_16)\n    /* \"Token_COBAX.sol\":5254:5266  _msgSender() */\n  0x20\n  shr\n  jump\t// in\ntag_21:\n    /* \"Token_COBAX.sol\":5244:5267  _balances[_msgSender()] */\n  0xffffffffffffffffffffffffffffffffffffffff\n  and\n  0xffffffffffffffffffffffffffffffffffffffff\n  and\n  dup2\n  mstore\n  0x20\n  add\n  swap1\n  dup2\n  mstore\n  0x20\n  add\n  0x00\n  keccak256\n    /* \"Token_COBAX.sol\":5244:5277  _balances[_msgSender()] = _tTotal */\n  dup2\n  swap1\n  sstore\n  pop\n    /* \"Token_COBAX.sol\":5317:5321  true */\n  0x01\n    /* \"Token_COBAX.sol\":5287:5305  _isExcludedFromFee */\n  0x03\n    /* \"Token_COBAX.sol\":5287:5314  _isExcludedFromFee[owner()] */\n  0x00\n    /* \"Token_COBAX.sol\":5306:5313  owner() */\n  tag_22\n    /* \"Token_COBAX.sol\":5306:5311  owner */\n  shl(0x20, tag_23)\n    /* \"Token_COBAX.sol\":5306:5313  owner() */\n  0x20\n  shr\n  jump\t// in\ntag_22:\n    /* \"Token_COBAX.sol\":5287:5314  _isExcludedFromFee[owner()] */\n  0xffffffffffffffffffffffffffffffffffffffff\n  and\n  0xffffffffffffffffffffffffffffffffffffffff\n  and\n  dup2\n  mstore\n  0x20\n  add\n  swap1\n  dup2\n  mstore\n  0x20\n  add\n  0x00\n  keccak256\n  0x00\n    /* \"Token_COBAX.sol\":5287:5321  _isExcludedFromFee[owner()] = true */\n  0x0100\n  exp\n  dup2\n  sload\n  dup2\n  0xff\n  mul\n  not\n  and\n  swap1\n  dup4\n  iszero\n  iszero\n  mul\n  or\n  swap1\n  sstore\n  pop\n    /* \"Token_COBAX.sol\":5367:5371  true */\n  0x01\n    /* \"Token_COBAX.sol\":5331:5349  _isExcludedFromFee */\n  0x03\n    /* \"Token_COBAX.sol\":5331:5364  _isExcludedFromFee[address(this)] */\n  0x00\n    /* \"Token_COBAX.sol\":5358:5362  this */\n  address\n    /* \"Token_COBAX.sol\":5331:5364  _isExcludedFromFee[address(this)] */\n  0xffffffffffffffffffffffffffffffffffffffff\n  and\n  0xffffffffffffffffffffffffffffffffffffffff\n  and\n  dup2\n  mstore\n  0x20\n  add\n  swap1\n  dup2\n  mstore\n  0x20\n  add\n  0x00\n  keccak256\n  0x00\n    /* \"Token_COBAX.sol\":5331:5371  _isExcludedFromFee[address(this)] = true */\n  0x0100\n  exp\n  dup2\n  sload\n  dup2\n  0xff\n  mul\n  not\n  and\n  swap1\n  dup4\n  iszero\n  iszero\n  mul\n  or\n  swap1\n  sstore\n  pop\n    /* \"Token_COBAX.sol\":5414:5418  true */\n  0x01\n    /* \"Token_COBAX.sol\":5381:5399  _isExcludedFromFee */\n  0x03\n    /* \"Token_COBAX.sol\":5381:5411  _isExcludedFromFee[_taxWallet] */\n  0x00\n    /* \"Token_COBAX.sol\":5400:5410  _taxWallet */\n  0x05\n  0x00\n  swap1\n  sload\n  swap1\n  0x0100\n  exp\n  swap1\n  div\n  0xffffffffffffffffffffffffffffffffffffffff\n  and\n    /* \"Token_COBAX.sol\":5381:5411  _isExcludedFromFee[_taxWallet] */\n  0xffffffffffffffffffffffffffffffffffffffff\n  and\n  0xffffffffffffffffffffffffffffffffffffffff\n  and\n  dup2\n  mstore\n  0x20\n  add\n  swap1\n  dup2\n  mstore\n  0x20\n  add\n  0x00\n  keccak256\n  0x00\n    /* \"Token_COBAX.sol\":5381:5418  _isExcludedFromFee[_taxWallet] = true */\n  0x0100\n  exp\n  dup2\n  sload\n  dup2\n  0xff\n  mul\n  not\n  and\n  swap1\n  dup4\n  iszero\n  iszero\n  mul\n  or\n  swap1\n  sstore\n  pop\n    /* \"Token_COBAX.sol\":5455:5467  _msgSender() */\n  tag_24\n    /* \"Token_COBAX.sol\":5455:5465  _msgSender */\n  shl(0x20, tag_16)\n    /* \"Token_COBAX.sol\":5455:5467  _msgSender() */\n  0x20\n  shr\n  jump\t// in\ntag_24:\n    /* \"Token_COBAX.sol\":5434:5477  Transfer(address(0), _msgSender(), _tTotal) */\n  0xffffffffffffffffffffffffffffffffffffffff\n  and\n    /* \"Token_COBAX.sol\":5451:5452  0 */\n  0x00\n    /* \"Token_COBAX.sol\":5434:5477  Transfer(address(0), _msgSender(), _tTotal) */\n  0xffffffffffffffffffffffffffffffffffffffff\n  and\n  0xddf252ad1be2c89b69c2b068fc378daa952ba7f163c4a11628f55a4df523b3ef\n    /* \"Token_COBAX.sol\":4402:4403  5 */\n  0x05\n    /* \"Token_COBAX.sol\":4459:4461  10 */\n  0x0a\n    /* \"Token_COBAX.sol\":4459:4474  10 ** _decimals */\n  tag_25\n  swap2\n  swap1\n  tag_2\n  jump\t// in\ntag_25:\n    /* \"Token_COBAX.sol\":4444:4456  100000000000 */\n  0x174876e800\n    /* \"Token_COBAX.sol\":4444:4474  100000000000 * 10 ** _decimals */\n  tag_26\n  swap2\n  swap1\n  tag_4\n  jump\t// in\ntag_26:\n    /* \"Token_COBAX.sol\":5434:5477  Transfer(address(0), _msgSender(), _tTotal) */\n  mload(0x40)\n  tag_27\n  swap2\n  swap1\n  tag_28\n  jump\t// in\ntag_27:\n  mload(0x40)\n  dup1\n  swap2\n  sub\n  swap1\n  log3\n    /* \"Token_COBAX.sol\":3671:12438  contract COBAX is Context, IERC20, Ownable {... */\n  jump(tag_29)\n    /* \"Token_COBAX.sol\":168:264  function _msgSender() internal view virtual returns (address) {... */\ntag_16:\n    /* \"Token_COBAX.sol\":221:228  address */\n  0x00\n    /* \"Token_COBAX.sol\":247:257  msg.sender */\n  caller\n    /* \"Token_COBAX.sol\":240:257  return msg.sender */\n  swap1\n  pop\n    /* \"Token_COBAX.sol\":168:264  function _msgSender() internal view virtual returns (address) {... */\n  swap1\n  jump\t// out\n    /* \"Token_COBAX.sol\":2533:2610  function owner() public view returns (address) {... */\ntag_23:\n    /* \"Token_COBAX.sol\":2571:2578  address */\n  0x00\n    /* \"Token_COBAX.sol\":2597:2603  _owner */\n  dup1\n  0x00\n  swap1\n  sload\n  swap1\n  0x0100\n  exp\n  swap1\n  div\n  0xffffffffffffffffffffffffffffffffffffffff\n  and\n    /* \"Token_COBAX.sol\":2590:2603  return _owner */\n  swap1\n  pop\n    /* \"Token_COBAX.sol\":2533:2610  function owner() public view returns (address) {... */\n  swap1\n  jump\t// out\n    /* \"#utility.yul\":7:187   */\ntag_32:\n    /* \"#utility.yul\":55:132   */\n  0x4e487b7100000000000000000000000000000000000000000000000000000000\n    /* \"#utility.yul\":52:53   */\n  0x00\n    /* \"#utility.yul\":45:133   */\n  mstore\n    /* \"#utility.yul\":152:156   */\n  0x11\n    /* \"#utility.yul\":149:150   */\n  0x04\n    /* \"#utility.yul\":142:157   */\n  mstore\n    /* \"#utility.yul\":176:180   */\n  0x24\n    /* \"#utility.yul\":173:174   */\n  0x00\n    /* \"#utility.yul\":166:181   */\n  revert\n    /* \"#utility.yul\":193:295   */\ntag_33:\n    /* \"#utility.yul\":235:243   */\n  0x00\n    /* \"#utility.yul\":282:287   */\n  dup2\n    /* \"#utility.yul\":279:280   */\n  0x01\n    /* \"#utility.yul\":275:288   */\n  shr\n    /* \"#utility.yul\":254:288   */\n  swap1\n  pop\n    /* \"#utility.yul\":193:295   */\n  swap2\n  swap1\n  pop\n  jump\t// out\n    /* \"#utility.yul\":301:1149   */\ntag_34:\n    /* \"#utility.yul\":362:367   */\n  0x00\n    /* \"#utility.yul\":369:373   */\n  dup1\n    /* \"#utility.yul\":393:399   */\n  dup3\n    /* \"#utility.yul\":384:399   */\n  swap2\n  pop\n    /* \"#utility.yul\":417:422   */\n  dup4\n    /* \"#utility.yul\":408:422   */\n  swap1\n  pop\n    /* \"#utility.yul\":431:1143   */\ntag_43:\n    /* \"#utility.yul\":452:453   */\n  0x01\n    /* \"#utility.yul\":442:450   */\n  dup6\n    /* \"#utility.yul\":439:454   */\n  gt\n    /* \"#utility.yul\":431:1143   */\n  iszero\n  tag_45\n  jumpi\n    /* \"#utility.yul\":547:551   */\n  dup1\n    /* \"#utility.yul\":542:545   */\n  dup7\n    /* \"#utility.yul\":538:552   */\n  div\n    /* \"#utility.yul\":532:536   */\n  dup2\n    /* \"#utility.yul\":529:553   */\n  gt\n    /* \"#utility.yul\":526:576   */\n  iszero\n  tag_46\n  jumpi\n    /* \"#utility.yul\":556:574   */\n  tag_47\n  tag_32\n  jump\t// in\ntag_47:\n    /* \"#utility.yul\":526:576   */\ntag_46:\n    /* \"#utility.yul\":606:607   */\n  0x01\n    /* \"#utility.yul\":596:604   */\n  dup6\n    /* \"#utility.yul\":592:608   */\n  and\n    /* \"#utility.yul\":589:1040   */\n  iszero\n  tag_48\n  jumpi\n    /* \"#utility.yul\":1021:1025   */\n  dup1\n    /* \"#utility.yul\":1014:1019   */\n  dup3\n    /* \"#utility.yul\":1010:1026   */\n  mul\n    /* \"#utility.yul\":1001:1026   */\n  swap2\n  pop\n    /* \"#utility.yul\":589:1040   */\ntag_48:\n    /* \"#utility.yul\":1071:1075   */\n  dup1\n    /* \"#utility.yul\":1065:1069   */\n  dup2\n    /* \"#utility.yul\":1061:1076   */\n  mul\n    /* \"#utility.yul\":1053:1076   */\n  swap1\n  pop\n    /* \"#utility.yul\":1101:1133   */\n  tag_49\n    /* \"#utility.yul\":1124:1132   */\n  dup6\n    /* \"#utility.yul\":1101:1133   */\n  tag_33\n  jump\t// in\ntag_49:\n    /* \"#utility.yul\":1089:1133   */\n  swap5\n  pop\n    /* \"#utility.yul\":431:1143   */\n  jump(tag_43)\ntag_45:\n    /* \"#utility.yul\":301:1149   */\n  swap5\n  pop\n  swap5\n  swap3\n  pop\n  pop\n  pop\n  jump\t// out\n    /* \"#utility.yul\":1155:2228   */\ntag_35:\n    /* \"#utility.yul\":1209:1214   */\n  0x00\n    /* \"#utility.yul\":1400:1408   */\n  dup3\n    /* \"#utility.yul\":1390:1430   */\n  tag_51\n  jumpi\n    /* \"#utility.yul\":1421:1422   */\n  0x01\n    /* \"#utility.yul\":1412:1422   */\n  swap1\n  pop\n    /* \"#utility.yul\":1423:1428   */\n  jump(tag_50)\n    /* \"#utility.yul\":1390:1430   */\ntag_51:\n    /* \"#utility.yul\":1449:1453   */\n  dup2\n    /* \"#utility.yul\":1439:1475   */\n  tag_52\n  jumpi\n    /* \"#utility.yul\":1466:1467   */\n  0x00\n    /* \"#utility.yul\":1457:1467   */\n  swap1\n  pop\n    /* \"#utility.yul\":1468:1473   */\n  jump(tag_50)\n    /* \"#utility.yul\":1439:1475   */\ntag_52:\n    /* \"#utility.yul\":1535:1539   */\n  dup2\n    /* \"#utility.yul\":1583:1584   */\n  0x01\n    /* \"#utility.yul\":1578:1605   */\n  dup2\n  eq\n  tag_54\n  jumpi\n    /* \"#utility.yul\":1619:1620   */\n  0x02\n    /* \"#utility.yul\":1614:1805   */\n  dup2\n  eq\n  tag_55\n  jumpi\n    /* \"#utility.yul\":1528:1805   */\n  jump(tag_53)\n    /* \"#utility.yul\":1578:1605   */\ntag_54:\n    /* \"#utility.yul\":1596:1597   */\n  0x01\n    /* \"#utility.yul\":1587:1597   */\n  swap2\n  pop\n    /* \"#utility.yul\":1598:1603   */\n  pop\n  jump(tag_50)\n    /* \"#utility.yul\":1614:1805   */\ntag_55:\n    /* \"#utility.yul\":1659:1662   */\n  0xff\n    /* \"#utility.yul\":1649:1657   */\n  dup5\n    /* \"#utility.yul\":1646:1663   */\n  gt\n    /* \"#utility.yul\":1643:1686   */\n  iszero\n  tag_56\n  jumpi\n    /* \"#utility.yul\":1666:1684   */\n  tag_57\n  tag_32\n  jump\t// in\ntag_57:\n    /* \"#utility.yul\":1643:1686   */\ntag_56:\n    /* \"#utility.yul\":1715:1723   */\n  dup4\n    /* \"#utility.yul\":1712:1713   */\n  0x02\n    /* \"#utility.yul\":1708:1724   */\n  exp\n    /* \"#utility.yul\":1699:1724   */\n  swap2\n  pop\n    /* \"#utility.yul\":1750:1753   */\n  dup5\n    /* \"#utility.yul\":1743:1748   */\n  dup3\n    /* \"#utility.yul\":1740:1754   */\n  gt\n    /* \"#utility.yul\":1737:1777   */\n  iszero\n  tag_58\n  jumpi\n    /* \"#utility.yul\":1757:1775   */\n  tag_59\n  tag_32\n  jump\t// in\ntag_59:\n    /* \"#utility.yul\":1737:1777   */\ntag_58:\n    /* \"#utility.yul\":1790:1795   */\n  pop\n  jump(tag_50)\n    /* \"#utility.yul\":1528:1805   */\ntag_53:\n  pop\n    /* \"#utility.yul\":1914:1916   */\n  0x20\n    /* \"#utility.yul\":1904:1912   */\n  dup4\n    /* \"#utility.yul\":1901:1917   */\n  lt\n    /* \"#utility.yul\":1895:1898   */\n  0x0133\n    /* \"#utility.yul\":1889:1893   */\n  dup4\n    /* \"#utility.yul\":1886:1899   */\n  lt\n    /* \"#utility.yul\":1882:1918   */\n  and\n    /* \"#utility.yul\":1864:1866   */\n  0x4e\n    /* \"#utility.yul\":1854:1862   */\n  dup5\n    /* \"#utility.yul\":1851:1867   */\n  lt\n    /* \"#utility.yul\":1846:1848   */\n  0x0b\n    /* \"#utility.yul\":1840:1844   */\n  dup5\n    /* \"#utility.yul\":1837:1849   */\n  lt\n    /* \"#utility.yul\":1833:1868   */\n  and\n    /* \"#utility.yul\":1817:1928   */\n  or\n    /* \"#utility.yul\":1814:2060   */\n  iszero\n  tag_60\n  jumpi\n    /* \"#utility.yul\":1970:1978   */\n  dup3\n    /* \"#utility.yul\":1964:1968   */\n  dup3\n    /* \"#utility.yul\":1960:1979   */\n  exp\n    /* \"#utility.yul\":1951:1979   */\n  swap1\n  pop\n    /* \"#utility.yul\":2005:2008   */\n  dup4\n    /* \"#utility.yul\":1998:2003   */\n  dup2\n    /* \"#utility.yul\":1995:2009   */\n  gt\n    /* \"#utility.yul\":1992:2032   */\n  iszero\n  tag_61\n  jumpi\n    /* \"#utility.yul\":2012:2030   */\n  tag_62\n  tag_32\n  jump\t// in\ntag_62:\n    /* \"#utility.yul\":1992:2032   */\ntag_61:\n    /* \"#utility.yul\":2045:2050   */\n  jump(tag_50)\n    /* \"#utility.yul\":1814:2060   */\ntag_60:\n    /* \"#utility.yul\":2085:2127   */\n  tag_63\n    /* \"#utility.yul\":2123:2126   */\n  dup5\n    /* \"#utility.yul\":2113:2121   */\n  dup5\n    /* \"#utility.yul\":2107:2111   */\n  dup5\n    /* \"#utility.yul\":2104:2105   */\n  0x01\n    /* \"#utility.yul\":2085:2127   */\n  tag_34\n  jump\t// in\ntag_63:\n    /* \"#utility.yul\":2070:2127   */\n  swap3\n  pop\n  swap1\n  pop\n    /* \"#utility.yul\":2159:2163   */\n  dup2\n    /* \"#utility.yul\":2154:2157   */\n  dup5\n    /* \"#utility.yul\":2150:2164   */\n  div\n    /* \"#utility.yul\":2143:2148   */\n  dup2\n    /* \"#utility.yul\":2140:2165   */\n  gt\n    /* \"#utility.yul\":2137:2188   */\n  iszero\n  tag_64\n  jumpi\n    /* \"#utility.yul\":2168:2186   */\n  tag_65\n  tag_32\n  jump\t// in\ntag_65:\n    /* \"#utility.yul\":2137:2188   */\ntag_64:\n    /* \"#utility.yul\":2217:2221   */\n  dup2\n    /* \"#utility.yul\":2210:2215   */\n  dup2\n    /* \"#utility.yul\":2206:2222   */\n  mul\n    /* \"#utility.yul\":2197:2222   */\n  swap1\n  pop\n    /* \"#utility.yul\":1155:2228   */\ntag_50:\n  swap4\n  swap3\n  pop\n  pop\n  pop\n  jump\t// out\n    /* \"#utility.yul\":2234:2311   */\ntag_36:\n    /* \"#utility.yul\":2271:2278   */\n  0x00\n    /* \"#utility.yul\":2300:2305   */\n  dup2\n    /* \"#utility.yul\":2289:2305   */\n  swap1\n  pop\n    /* \"#utility.yul\":2234:2311   */\n  swap2\n  swap1\n  pop\n  jump\t// out\n    /* \"#utility.yul\":2317:2403   */\ntag_37:\n    /* \"#utility.yul\":2352:2359   */\n  0x00\n    /* \"#utility.yul\":2392:2396   */\n  0xff\n    /* \"#utility.yul\":2385:2390   */\n  dup3\n    /* \"#utility.yul\":2381:2397   */\n  and\n    /* \"#utility.yul\":2370:2397   */\n  swap1\n  pop\n    /* \"#utility.yul\":2317:2403   */\n  swap2\n  swap1\n  pop\n  jump\t// out\n    /* \"#utility.yul\":2409:2690   */\ntag_2:\n    /* \"#utility.yul\":2467:2472   */\n  0x00\n    /* \"#utility.yul\":2491:2514   */\n  tag_69\n    /* \"#utility.yul\":2509:2513   */\n  dup3\n    /* \"#utility.yul\":2491:2514   */\n  tag_36\n  jump\t// in\ntag_69:\n    /* \"#utility.yul\":2483:2514   */\n  swap2\n  pop\n    /* \"#utility.yul\":2535:2560   */\n  tag_70\n    /* \"#utility.yul\":2551:2559   */\n  dup4\n    /* \"#utility.yul\":2535:2560   */\n  tag_37\n  jump\t// in\ntag_70:\n    /* \"#utility.yul\":2523:2560   */\n  swap3\n  pop\n    /* \"#utility.yul\":2579:2683   */\n  tag_71\n    /* \"#utility.yul\":2616:2682   */\n  0xffffffffffffffffffffffffffffffffffffffffffffffffffffffffffffffff\n    /* \"#utility.yul\":2606:2614   */\n  dup5\n    /* \"#utility.yul\":2600:2604   */\n  dup5\n    /* \"#utility.yul\":2579:2683   */\n  tag_35\n  jump\t// in\ntag_71:\n    /* \"#utility.yul\":2570:2683   */\n  swap1\n  pop\n    /* \"#utility.yul\":2409:2690   */\n  swap3\n  swap2\n  pop\n  pop\n  jump\t// out\n    /* \"#utility.yul\":2696:3106   */\ntag_4:\n    /* \"#utility.yul\":2736:2743   */\n  0x00\n    /* \"#utility.yul\":2759:2779   */\n  tag_73\n    /* \"#utility.yul\":2777:2778   */\n  dup3\n    /* \"#utility.yul\":2759:2779   */\n  tag_36\n  jump\t// in\ntag_73:\n    /* \"#utility.yul\":2754:2779   */\n  swap2\n  pop\n    /* \"#utility.yul\":2793:2813   */\n  tag_74\n    /* \"#utility.yul\":2811:2812   */\n  dup4\n    /* \"#utility.yul\":2793:2813   */\n  tag_36\n  jump\t// in\ntag_74:\n    /* \"#utility.yul\":2788:2813   */\n  swap3\n  pop\n    /* \"#utility.yul\":2848:2849   */\n  dup3\n    /* \"#utility.yul\":2845:2846   */\n  dup3\n    /* \"#utility.yul\":2841:2850   */\n  mul\n    /* \"#utility.yul\":2870:2900   */\n  tag_75\n    /* \"#utility.yul\":2888:2899   */\n  dup2\n    /* \"#utility.yul\":2870:2900   */\n  tag_36\n  jump\t// in\ntag_75:\n    /* \"#utility.yul\":2859:2900   */\n  swap2\n  pop\n    /* \"#utility.yul\":3049:3050   */\n  dup3\n    /* \"#utility.yul\":3040:3047   */\n  dup3\n    /* \"#utility.yul\":3036:3051   */\n  div\n    /* \"#utility.yul\":3033:3034   */\n  dup5\n    /* \"#utility.yul\":3030:3052   */\n  eq\n    /* \"#utility.yul\":3010:3011   */\n  dup4\n    /* \"#utility.yul\":3003:3012   */\n  iszero\n    /* \"#utility.yul\":2983:3066   */\n  or\n    /* \"#utility.yul\":2960:3099   */\n  tag_76\n  jumpi\n    /* \"#utility.yul\":3079:3097   */\n  tag_77\n  tag_32\n  jump\t// in\ntag_77:\n    /* \"#utility.yul\":2960:3099   */\ntag_76:\n    /* \"#utility.yul\":2744:3106   */\n  pop\n    /* \"#utility.yul\":2696:3106   */\n  swap3\n  swap2\n  pop\n  pop\n  jump\t// out\n    /* \"#utility.yul\":3112:3230   */\ntag_38:\n    /* \"#utility.yul\":3199:3223   */\n  tag_79\n    /* \"#utility.yul\":3217:3222   */\n  dup2\n    /* \"#utility.yul\":3199:3223   */\n  tag_36\n  jump\t// in\ntag_79:\n    /* \"#utility.yul\":3194:3197   */\n  dup3\n    /* \"#utility.yul\":3187:3224   */\n  mstore\n    /* \"#utility.yul\":3112:3230   */\n  pop\n  pop\n  jump\t// out\n    /* \"#utility.yul\":3236:3458   */\ntag_28:\n    /* \"#utility.yul\":3329:3333   */\n  0x00\n    /* \"#utility.yul\":3367:3369   */\n  0x20\n    /* \"#utility.yul\":3356:3365   */\n  dup3\n    /* \"#utility.yul\":3352:3370   */\n  add\n    /* \"#utility.yul\":3344:3370   */\n  swap1\n  pop\n    /* \"#utility.yul\":3380:3451   */\n  tag_81\n    /* \"#utility.yul\":3448:3449   */\n  0x00\n    /* \"#utility.yul\":3437:3446   */\n  dup4\n    /* \"#utility.yul\":3433:3450   */\n  add\n    /* \"#utility.yul\":3424:3430   */\n  dup5\n    /* \"#utility.yul\":3380:3451   */\n  tag_38\n  jump\t// in\ntag_81:\n    /* \"#utility.yul\":3236:3458   */\n  swap3\n  swap2\n  pop\n  pop\n  jump\t// out\n    /* \"Token_COBAX.sol\":3671:12438  contract COBAX is Context, IERC20, Ownable {... */\ntag_29:\n  dataSize(sub_0)\n  dup1\n  dataOffset(sub_0)\n  0x00\n  codecopy\n  0x00\n  return\nstop\n\nsub_0: assembly {\n        /* \"Token_COBAX.sol\":3671:12438  contract COBAX is Context, IERC20, Ownable {... */\n      mstore(0x40, 0x80)\n      jumpi(tag_1, lt(calldatasize, 0x04))\n      shr(0xe0, calldataload(0x00))\n      dup1\n      0x715018a6\n      gt\n      tag_23\n      jumpi\n      dup1\n      0x95d89b41\n      gt\n      tag_24\n      jumpi\n      dup1\n      0x95d89b41\n      eq\n      tag_18\n      jumpi\n      dup1\n      0xa9059cbb\n      eq\n      tag_19\n      jumpi\n      dup1\n      0xbf474bed\n      eq\n      tag_20\n      jumpi\n      dup1\n      0xd34628cc\n      eq\n      tag_21\n      jumpi\n      dup1\n      0xdd62ed3e\n      eq\n      tag_22\n      jumpi\n      jump(tag_2)\n    tag_24:\n      dup1\n      0x715018a6\n      eq\n      tag_13\n      jumpi\n      dup1\n      0x751039fc\n      eq\n      tag_14\n      jumpi\n      dup1\n      0x7d1db4a5\n      eq\n      tag_15\n      jumpi\n      dup1\n      0x8da5cb5b\n      eq\n      tag_16\n      jumpi\n      dup1\n      0x8f9a55c0\n      eq\n      tag_17\n      jumpi\n      jump(tag_2)\n    tag_23:\n      dup1\n      0x313ce567\n      gt\n      tag_25\n      jumpi\n      dup1\n      0x313ce567\n      eq\n      tag_8\n      jumpi\n      dup1\n      0x31c2d847\n      eq\n      tag_9\n      jumpi\n      dup1\n      0x3bbac579\n      eq\n      tag_10\n      jumpi\n      dup1\n      0x51cd7cc3\n      eq\n      tag_11\n      jumpi\n      dup1\n      0x70a08231\n      eq\n      tag_12\n      jumpi\n      jump(tag_2)\n    tag_25:\n      dup1\n      0x06fdde03\n      eq\n      tag_3\n      jumpi\n      dup1\n      0x095ea7b3\n      eq\n      tag_4\n      jumpi\n      dup1\n      0x0faee56f\n      eq\n      tag_5\n      jumpi\n      dup1\n      0x18160ddd\n      eq\n      tag_6\n      jumpi\n      dup1\n      0x23b872dd\n      eq\n      tag_7\n      jumpi\n      jump(tag_2)\n    tag_1:\n      jumpi(tag_2, calldatasize)\n      stop\n    tag_2:\n      0x00\n      dup1\n      revert\n        /* \"Token_COBAX.sol\":5490:5571  function name() public pure returns (string memory) {... */\n    tag_3:\n      callvalue\n      dup1\n      iszero\n      tag_28\n      jumpi\n      0x00\n      dup1\n      revert\n    tag_28:\n      pop\n      tag_29\n      tag_30\n      jump\t// in\n    tag_29:\n      mload(0x40)\n      tag_31\n      swap2\n      swap1\n      tag_32\n      jump\t// in\n    tag_31:\n      mload(0x40)\n      dup1\n      swap2\n      sub\n      swap1\n      return\n        /* \"Token_COBAX.sol\":6338:6518  function approve(... */\n    tag_4:\n      callvalue\n      dup1\n      iszero\n      tag_33\n      jumpi\n      0x00\n      dup1\n      revert\n    tag_33:\n      pop\n      tag_34\n      0x04\n      dup1\n      calldatasize\n      sub\n      dup2\n      add\n      swap1\n      tag_35\n      swap2\n      swap1\n      tag_36\n      jump\t// in\n    tag_35:\n      tag_37\n      jump\t// in\n    tag_34:\n      mload(0x40)\n      tag_38\n      swap2\n      swap1\n      tag_39\n      jump\t// in\n    tag_38:\n      mload(0x40)\n      dup1\n      swap2\n      sub\n      swap1\n      return\n        /* \"Token_COBAX.sol\":4784:4841  uint256 public _maxTaxSwap = 1000000000 * 10 ** _decimals */\n    tag_5:\n      callvalue\n      dup1\n      iszero\n      tag_40\n      jumpi\n      0x00\n      dup1\n      revert\n    tag_40:\n      pop\n      tag_41\n      tag_42\n      jump\t// in\n    tag_41:\n      mload(0x40)\n      tag_43\n      swap2\n      swap1\n      tag_44\n      jump\t// in\n    tag_43:\n      mload(0x40)\n      dup1\n      swap2\n      sub\n      swap1\n      return\n        /* \"Token_COBAX.sol\":5755:5848  function totalSupply() public pure override returns (uint256) {... */\n    tag_6:\n      callvalue\n      dup1\n      iszero\n      tag_45\n      jumpi\n      0x00\n      dup1\n      revert\n    tag_45:\n      pop\n      tag_46\n      tag_47\n      jump\t// in\n    tag_46:\n      mload(0x40)\n      tag_48\n      swap2\n      swap1\n      tag_44\n      jump\t// in\n    tag_48:\n      mload(0x40)\n      dup1\n      swap2\n      sub\n      swap1\n      return\n        /* \"Token_COBAX.sol\":6524:6955  function transferFrom(... */\n    tag_7:\n      callvalue\n      dup1\n      iszero\n      tag_49\n      jumpi\n      0x00\n      dup1\n      revert\n    tag_49:\n      pop\n      tag_50\n      0x04\n      dup1\n      calldatasize\n      sub\n      dup2\n      add\n      swap1\n      tag_51\n      swap2\n      swap1\n      tag_52\n      jump\t// in\n    tag_51:\n      tag_53\n      jump\t// in\n    tag_50:\n      mload(0x40)\n      tag_54\n      swap2\n      swap1\n      tag_39\n      jump\t// in\n    tag_54:\n      mload(0x40)\n      dup1\n      swap2\n      sub\n      swap1\n      return\n        /* \"Token_COBAX.sol\":5668:5749  function decimals() public pure returns (uint8) {... */\n    tag_8:\n      callvalue\n      dup1\n      iszero\n      tag_55\n      jumpi\n      0x00\n      dup1\n      revert\n    tag_55:\n      pop\n      tag_56\n      tag_57\n      jump\t// in\n    tag_56:\n      mload(0x40)\n      tag_58\n      swap2\n      swap1\n      tag_59\n      jump\t// in\n    tag_58:\n      mload(0x40)\n      dup1\n      swap2\n      sub\n      swap1\n      return\n        /* \"Token_COBAX.sol\":11302:11466  function delBots(address[] memory notbot) public onlyOwner {... */\n    tag_9:\n      callvalue\n      dup1\n      iszero\n      tag_60\n      jumpi\n      0x00\n      dup1\n      revert\n    tag_60:\n      pop\n      tag_61\n      0x04\n      dup1\n      calldatasize\n      sub\n      dup2\n      add\n      swap1\n      tag_62\n      swap2\n      swap1\n      tag_63\n      jump\t// in\n    tag_62:\n      tag_64\n      jump\t// in\n    tag_61:\n      stop\n        /* \"Token_COBAX.sol\":11472:11556  function isBot(address a) public view returns (bool) {... */\n    tag_10:\n      callvalue\n      dup1\n      iszero\n      tag_65\n      jumpi\n      0x00\n      dup1\n      revert\n    tag_65:\n      pop\n      tag_66\n      0x04\n      dup1\n      calldatasize\n      sub\n      dup2\n      add\n      swap1\n      tag_67\n      swap2\n      swap1\n      tag_68\n      jump\t// in\n    tag_67:\n      tag_69\n      jump\t// in\n    tag_66:\n      mload(0x40)\n      tag_70\n      swap2\n      swap1\n      tag_39\n      jump\t// in\n    tag_70:\n      mload(0x40)\n      dup1\n      swap2\n      sub\n      swap1\n      return\n        /* \"Token_COBAX.sol\":11562:12401  function OpenTrading() external onlyOwner {... */\n    tag_11:\n      callvalue\n      dup1\n      iszero\n      tag_71\n      jumpi\n      0x00\n      dup1\n      revert\n    tag_71:\n      pop\n      tag_72\n      tag_73\n      jump\t// in\n    tag_72:\n      stop\n        /* \"Token_COBAX.sol\":5854:5971  function balanceOf(address account) public view override returns (uint256) {... */\n    tag_12:\n      callvalue\n      dup1\n      iszero\n      tag_74\n      jumpi\n      0x00\n      dup1\n      revert\n    tag_74:\n      pop\n      tag_75\n      0x04\n      dup1\n      calldatasize\n      sub\n      dup2\n      add\n      swap1\n      tag_76\n      swap2\n      swap1\n      tag_68\n      jump\t// in\n    tag_76:\n      tag_77\n      jump\t// in\n    tag_75:\n      mload(0x40)\n      tag_78\n      swap2\n      swap1\n      tag_44\n      jump\t// in\n    tag_78:\n      mload(0x40)\n      dup1\n      swap2\n      sub\n      swap1\n      return\n        /* \"Token_COBAX.sol\":2738:2883  function renounceOwnership() public virtual onlyOwner {... */\n    tag_13:\n      callvalue\n      dup1\n      iszero\n      tag_79\n      jumpi\n      0x00\n      dup1\n      revert\n    tag_79:\n      pop\n      tag_80\n      tag_81\n      jump\t// in\n    tag_80:\n      stop\n        /* \"Token_COBAX.sol\":10876:11034  function removeLimits() external onlyOwner {... */\n    tag_14:\n      callvalue\n      dup1\n      iszero\n      tag_82\n      jumpi\n      0x00\n      dup1\n      revert\n    tag_82:\n      pop\n      tag_83\n      tag_84\n      jump\t// in\n    tag_83:\n      stop\n        /* \"Token_COBAX.sol\":4591:4649  uint256 public _maxTxAmount = 2000000000 * 10 ** _decimals */\n    tag_15:\n      callvalue\n      dup1\n      iszero\n      tag_85\n      jumpi\n      0x00\n      dup1\n      revert\n    tag_85:\n      pop\n      tag_86\n      tag_87\n      jump\t// in\n    tag_86:\n      mload(0x40)\n      tag_88\n      swap2\n      swap1\n      tag_44\n      jump\t// in\n    tag_88:\n      mload(0x40)\n      dup1\n      swap2\n      sub\n      swap1\n      return\n        /* \"Token_COBAX.sol\":2533:2610  function owner() public view returns (address) {... */\n    tag_16:\n      callvalue\n      dup1\n      iszero\n      tag_89\n      jumpi\n      0x00\n      dup1\n      revert\n    tag_89:\n      pop\n      tag_90\n      tag_91\n      jump\t// in\n    tag_90:\n      mload(0x40)\n      tag_92\n      swap2\n      swap1\n      tag_93\n      jump\t// in\n    tag_92:\n      mload(0x40)\n      dup1\n      swap2\n      sub\n      swap1\n      return\n        /* \"Token_COBAX.sol\":4655:4715  uint256 public _maxWalletSize = 2000000000 * 10 ** _decimals */\n    tag_17:\n      callvalue\n      dup1\n      iszero\n      tag_94\n      jumpi\n      0x00\n      dup1\n      revert\n    tag_94:\n      pop\n      tag_95\n      tag_96\n      jump\t// in\n    tag_95:\n      mload(0x40)\n      tag_97\n      swap2\n      swap1\n      tag_44\n      jump\t// in\n    tag_97:\n      mload(0x40)\n      dup1\n      swap2\n      sub\n      swap1\n      return\n        /* \"Token_COBAX.sol\":5577:5662  function symbol() public pure returns (string memory) {... */\n    tag_18:\n      callvalue\n      dup1\n      iszero\n      tag_98\n      jumpi\n      0x00\n      dup1\n      revert\n    tag_98:\n      pop\n      tag_99\n      tag_100\n      jump\t// in\n    tag_99:\n      mload(0x40)\n      tag_101\n      swap2\n      swap1\n      tag_32\n      jump\t// in\n    tag_101:\n      mload(0x40)\n      dup1\n      swap2\n      sub\n      swap1\n      return\n        /* \"Token_COBAX.sol\":5977:6163  function transfer(... */\n    tag_19:\n      callvalue\n      dup1\n      iszero\n      tag_102\n      jumpi\n      0x00\n      dup1\n      revert\n    tag_102:\n      pop\n      tag_103\n      0x04\n      dup1\n      calldatasize\n      sub\n      dup2\n      add\n      swap1\n      tag_104\n      swap2\n      swap1\n      tag_36\n      jump\t// in\n    tag_104:\n      tag_105\n      jump\t// in\n    tag_103:\n      mload(0x40)\n      tag_106\n      swap2\n      swap1\n      tag_39\n      jump\t// in\n    tag_106:\n      mload(0x40)\n      dup1\n      swap2\n      sub\n      swap1\n      return\n        /* \"Token_COBAX.sol\":4721:4778  uint256 public _taxSwapThreshold = 2000 * 10 ** _decimals */\n    tag_20:\n      callvalue\n      dup1\n      iszero\n      tag_107\n      jumpi\n      0x00\n      dup1\n      revert\n    tag_107:\n      pop\n      tag_108\n      tag_109\n      jump\t// in\n    tag_108:\n      mload(0x40)\n      tag_110\n      swap2\n      swap1\n      tag_44\n      jump\t// in\n    tag_110:\n      mload(0x40)\n      dup1\n      swap2\n      sub\n      swap1\n      return\n        /* \"Token_COBAX.sol\":11136:11296  function addBots(address[] memory bots_) public onlyOwner {... */\n    tag_21:\n      callvalue\n      dup1\n      iszero\n      tag_111\n      jumpi\n      0x00\n      dup1\n      revert\n    tag_111:\n      pop\n      tag_112\n      0x04\n      dup1\n      calldatasize\n      sub\n      dup2\n      add\n      swap1\n      tag_113\n      swap2\n      swap1\n      tag_63\n      jump\t// in\n    tag_113:\n      tag_114\n      jump\t// in\n    tag_112:\n      stop\n        /* \"Token_COBAX.sol\":6169:6332  function allowance(... */\n    tag_22:\n      callvalue\n      dup1\n      iszero\n      tag_115\n      jumpi\n      0x00\n      dup1\n      revert\n    tag_115:\n      pop\n      tag_116\n      0x04\n      dup1\n      calldatasize\n      sub\n      dup2\n      add\n      swap1\n      tag_117\n      swap2\n      swap1\n      tag_118\n      jump\t// in\n    tag_117:\n      tag_119\n      jump\t// in\n    tag_116:\n      mload(0x40)\n      tag_120\n      swap2\n      swap1\n      tag_44\n      jump\t// in\n    tag_120:\n      mload(0x40)\n      dup1\n      swap2\n      sub\n      swap1\n      return\n        /* \"Token_COBAX.sol\":5490:5571  function name() public pure returns (string memory) {... */\n    tag_30:\n        /* \"Token_COBAX.sol\":5527:5540  string memory */\n      0x60\n        /* \"Token_COBAX.sol\":5559:5564  _name */\n      mload(0x40)\n      dup1\n      0x40\n      add\n      0x40\n      mstore\n      dup1\n      0x0a\n      dup2\n      mstore\n      0x20\n      add\n      0x436f626120546f6b656e00000000000000000000000000000000000000000000\n      dup2\n      mstore\n      pop\n        /* \"Token_COBAX.sol\":5552:5564  return _name */\n      swap1\n      pop\n        /* \"Token_COBAX.sol\":5490:5571  function name() public pure returns (string memory) {... */\n      swap1\n      jump\t// out\n        /* \"Token_COBAX.sol\":6338:6518  function approve(... */\n    tag_37:\n        /* \"Token_COBAX.sol\":6435:6439  bool */\n      0x00\n        /* \"Token_COBAX.sol\":6451:6490  _approve(_msgSender(), spender, amount) */\n      tag_123\n        /* \"Token_COBAX.sol\":6460:6472  _msgSender() */\n      tag_124\n        /* \"Token_COBAX.sol\":6460:6470  _msgSender */\n      tag_125\n        /* \"Token_COBAX.sol\":6460:6472  _msgSender() */\n      jump\t// in\n    tag_124:\n        /* \"Token_COBAX.sol\":6474:6481  spender */\n      dup5\n        /* \"Token_COBAX.sol\":6483:6489  amount */\n      dup5\n        /* \"Token_COBAX.sol\":6451:6459  _approve */\n      tag_126\n        /* \"Token_COBAX.sol\":6451:6490  _approve(_msgSender(), spender, amount) */\n      jump\t// in\n    tag_123:\n        /* \"Token_COBAX.sol\":6507:6511  true */\n      0x01\n        /* \"Token_COBAX.sol\":6500:6511  return true */\n      swap1\n      pop\n        /* \"Token_COBAX.sol\":6338:6518  function approve(... */\n      swap3\n      swap2\n      pop\n      pop\n      jump\t// out\n        /* \"Token_COBAX.sol\":4784:4841  uint256 public _maxTaxSwap = 1000000000 * 10 ** _decimals */\n    tag_42:\n      sload(0x12)\n      dup2\n      jump\t// out\n        /* \"Token_COBAX.sol\":5755:5848  function totalSupply() public pure override returns (uint256) {... */\n    tag_47:\n        /* \"Token_COBAX.sol\":5808:5815  uint256 */\n      0x00\n        /* \"Token_COBAX.sol\":4402:4403  5 */\n      0x05\n        /* \"Token_COBAX.sol\":4459:4461  10 */\n      0x0a\n        /* \"Token_COBAX.sol\":4459:4474  10 ** _decimals */\n      tag_128\n      swap2\n      swap1\n      tag_129\n      jump\t// in\n    tag_128:\n        /* \"Token_COBAX.sol\":4444:4456  100000000000 */\n      0x174876e800\n        /* \"Token_COBAX.sol\":4444:4474  100000000000 * 10 ** _decimals */\n      tag_130\n      swap2\n      swap1\n      tag_131\n      jump\t// in\n    tag_130:\n        /* \"Token_COBAX.sol\":5827:5841  return _tTotal */\n      swap1\n      pop\n        /* \"Token_COBAX.sol\":5755:5848  function totalSupply() public pure override returns (uint256) {... */\n      swap1\n      jump\t// out\n        /* \"Token_COBAX.sol\":6524:6955  function transferFrom(... */\n    tag_53:\n        /* \"Token_COBAX.sol\":6652:6656  bool */\n      0x00\n        /* \"Token_COBAX.sol\":6668:6704  _transfer(sender, recipient, amount) */\n      tag_133\n        /* \"Token_COBAX.sol\":6678:6684  sender */\n      dup5\n        /* \"Token_COBAX.sol\":6686:6695  recipient */\n      dup5\n        /* \"Token_COBAX.sol\":6697:6703  amount */\n      dup5\n        /* \"Token_COBAX.sol\":6668:6677  _transfer */\n      tag_134\n        /* \"Token_COBAX.sol\":6668:6704  _transfer(sender, recipient, amount) */\n      jump\t// in\n    tag_133:\n        /* \"Token_COBAX.sol\":6714:6927  _approve(... */\n      tag_135\n        /* \"Token_COBAX.sol\":6736:6742  sender */\n      dup5\n        /* \"Token_COBAX.sol\":6756:6768  _msgSender() */\n      tag_136\n        /* \"Token_COBAX.sol\":6756:6766  _msgSender */\n      tag_125\n        /* \"Token_COBAX.sol\":6756:6768  _msgSender() */\n      jump\t// in\n    tag_136:\n        /* \"Token_COBAX.sol\":6782:6917  _allowances[sender][_msgSender()].sub(... */\n      tag_137\n        /* \"Token_COBAX.sol\":6837:6843  amount */\n      dup6\n        /* \"Token_COBAX.sol\":6782:6917  _allowances[sender][_msgSender()].sub(... */\n      mload(0x40)\n      dup1\n      0x60\n      add\n      0x40\n      mstore\n      dup1\n      0x28\n      dup2\n      mstore\n      0x20\n      add\n      data_974d1b4421da69cc60b481194f0dad36a5bb4e23da810da7a7fb30cdba178330\n      0x28\n      swap2\n      codecopy\n        /* \"Token_COBAX.sol\":6782:6793  _allowances */\n      0x02\n        /* \"Token_COBAX.sol\":6782:6801  _allowances[sender] */\n      0x00\n        /* \"Token_COBAX.sol\":6794:6800  sender */\n      dup12\n        /* \"Token_COBAX.sol\":6782:6801  _allowances[sender] */\n      0xffffffffffffffffffffffffffffffffffffffff\n      and\n      0xffffffffffffffffffffffffffffffffffffffff\n      and\n      dup2\n      mstore\n      0x20\n      add\n      swap1\n      dup2\n      mstore\n      0x20\n      add\n      0x00\n      keccak256\n        /* \"Token_COBAX.sol\":6782:6815  _allowances[sender][_msgSender()] */\n      0x00\n        /* \"Token_COBAX.sol\":6802:6814  _msgSender() */\n      tag_138\n        /* \"Token_COBAX.sol\":6802:6812  _msgSender */\n      tag_125\n        /* \"Token_COBAX.sol\":6802:6814  _msgSender() */\n      jump\t// in\n    tag_138:\n        /* \"Token_COBAX.sol\":6782:6815  _allowances[sender][_msgSender()] */\n      0xffffffffffffffffffffffffffffffffffffffff\n      and\n      0xffffffffffffffffffffffffffffffffffffffff\n      and\n      dup2\n      mstore\n      0x20\n      add\n      swap1\n      dup2\n      mstore\n      0x20\n      add\n      0x00\n      keccak256\n      sload\n        /* \"Token_COBAX.sol\":6782:6819  _allowances[sender][_msgSender()].sub */\n      tag_139\n      swap1\n        /* \"Token_COBAX.sol\":6782:6917  _allowances[sender][_msgSender()].sub(... */\n      swap3\n      swap2\n      swap1\n      0xffffffff\n      and\n      jump\t// in\n    tag_137:\n        /* \"Token_COBAX.sol\":6714:6722  _approve */\n      tag_126\n        /* \"Token_COBAX.sol\":6714:6927  _approve(... */\n      jump\t// in\n    tag_135:\n        /* \"Token_COBAX.sol\":6944:6948  true */\n      0x01\n        /* \"Token_COBAX.sol\":6937:6948  return true */\n      swap1\n      pop\n        /* \"Token_COBAX.sol\":6524:6955  function transferFrom(... */\n      swap4\n      swap3\n      pop\n      pop\n      pop\n      jump\t// out\n        /* \"Token_COBAX.sol\":5668:5749  function decimals() public pure returns (uint8) {... */\n    tag_57:\n        /* \"Token_COBAX.sol\":5709:5714  uint8 */\n      0x00\n        /* \"Token_COBAX.sol\":4402:4403  5 */\n      0x05\n        /* \"Token_COBAX.sol\":5726:5742  return _decimals */\n      swap1\n      pop\n        /* \"Token_COBAX.sol\":5668:5749  function decimals() public pure returns (uint8) {... */\n      swap1\n      jump\t// out\n        /* \"Token_COBAX.sol\":11302:11466  function delBots(address[] memory notbot) public onlyOwner {... */\n    tag_64:\n        /* \"Token_COBAX.sol\":2665:2677  _msgSender() */\n      tag_142\n        /* \"Token_COBAX.sol\":2665:2675  _msgSender */\n      tag_125\n        /* \"Token_COBAX.sol\":2665:2677  _msgSender() */\n      jump\t// in\n    tag_142:\n        /* \"Token_COBAX.sol\":2655:2677  _owner == _msgSender() */\n      0xffffffffffffffffffffffffffffffffffffffff\n      and\n        /* \"Token_COBAX.sol\":2655:2661  _owner */\n      0x00\n      dup1\n      sload\n      swap1\n      0x0100\n      exp\n      swap1\n      div\n      0xffffffffffffffffffffffffffffffffffffffff\n      and\n        /* \"Token_COBAX.sol\":2655:2677  _owner == _msgSender() */\n      0xffffffffffffffffffffffffffffffffffffffff\n      and\n      eq\n        /* \"Token_COBAX.sol\":2647:2714  require(_owner == _msgSender(), \"Ownable: caller is not the owner\") */\n      tag_143\n      jumpi\n      mload(0x40)\n      0x08c379a000000000000000000000000000000000000000000000000000000000\n      dup2\n      mstore\n      0x04\n      add\n      tag_144\n      swap1\n      tag_145\n      jump\t// in\n    tag_144:\n      mload(0x40)\n      dup1\n      swap2\n      sub\n      swap1\n      revert\n    tag_143:\n        /* \"Token_COBAX.sol\":11376:11382  uint i */\n      0x00\n        /* \"Token_COBAX.sol\":11371:11460  for (uint i = 0; i < notbot.length; i++) {... */\n    tag_147:\n        /* \"Token_COBAX.sol\":11392:11398  notbot */\n      dup2\n        /* \"Token_COBAX.sol\":11392:11405  notbot.length */\n      mload\n        /* \"Token_COBAX.sol\":11388:11389  i */\n      dup2\n        /* \"Token_COBAX.sol\":11388:11405  i < notbot.length */\n      lt\n        /* \"Token_COBAX.sol\":11371:11460  for (uint i = 0; i < notbot.length; i++) {... */\n      iszero\n      tag_148\n      jumpi\n        /* \"Token_COBAX.sol\":11444:11449  false */\n      0x00\n        /* \"Token_COBAX.sol\":11426:11430  bots */\n      0x04\n        /* \"Token_COBAX.sol\":11426:11441  bots[notbot[i]] */\n      0x00\n        /* \"Token_COBAX.sol\":11431:11437  notbot */\n      dup5\n        /* \"Token_COBAX.sol\":11438:11439  i */\n      dup5\n        /* \"Token_COBAX.sol\":11431:11440  notbot[i] */\n      dup2\n      mload\n      dup2\n      lt\n      tag_150\n      jumpi\n      tag_151\n      tag_152\n      jump\t// in\n    tag_151:\n    tag_150:\n      0x20\n      mul\n      0x20\n      add\n      add\n      mload\n        /* \"Token_COBAX.sol\":11426:11441  bots[notbot[i]] */\n      0xffffffffffffffffffffffffffffffffffffffff\n      and\n      0xffffffffffffffffffffffffffffffffffffffff\n      and\n      dup2\n      mstore\n      0x20\n      add\n      swap1\n      dup2\n      mstore\n      0x20\n      add\n      0x00\n      keccak256\n      0x00\n        /* \"Token_COBAX.sol\":11426:11449  bots[notbot[i]] = false */\n      0x0100\n      exp\n      dup2\n      sload\n      dup2\n      0xff\n      mul\n      not\n      and\n      swap1\n      dup4\n      iszero\n      iszero\n      mul\n      or\n      swap1\n      sstore\n      pop\n        /* \"Token_COBAX.sol\":11407:11410  i++ */\n      dup1\n      dup1\n      tag_153\n      swap1\n      tag_154\n      jump\t// in\n    tag_153:\n      swap2\n      pop\n      pop\n        /* \"Token_COBAX.sol\":11371:11460  for (uint i = 0; i < notbot.length; i++) {... */\n      jump(tag_147)\n    tag_148:\n      pop\n        /* \"Token_COBAX.sol\":11302:11466  function delBots(address[] memory notbot) public onlyOwner {... */\n      pop\n      jump\t// out\n        /* \"Token_COBAX.sol\":11472:11556  function isBot(address a) public view returns (bool) {... */\n    tag_69:\n        /* \"Token_COBAX.sol\":11519:11523  bool */\n      0x00\n        /* \"Token_COBAX.sol\":11542:11546  bots */\n      0x04\n        /* \"Token_COBAX.sol\":11542:11549  bots[a] */\n      0x00\n        /* \"Token_COBAX.sol\":11547:11548  a */\n      dup4\n        /* \"Token_COBAX.sol\":11542:11549  bots[a] */\n      0xffffffffffffffffffffffffffffffffffffffff\n      and\n      0xffffffffffffffffffffffffffffffffffffffff\n      and\n      dup2\n      mstore\n      0x20\n      add\n      swap1\n      dup2\n      mstore\n      0x20\n      add\n      0x00\n      keccak256\n      0x00\n      swap1\n      sload\n      swap1\n      0x0100\n      exp\n      swap1\n      div\n      0xff\n      and\n        /* \"Token_COBAX.sol\":11535:11549  return bots[a] */\n      swap1\n      pop\n        /* \"Token_COBAX.sol\":11472:11556  function isBot(address a) public view returns (bool) {... */\n      swap2\n      swap1\n      pop\n      jump\t// out\n        /* \"Token_COBAX.sol\":11562:12401  function OpenTrading() external onlyOwner {... */\n    tag_73:\n        /* \"Token_COBAX.sol\":2665:2677  _msgSender() */\n      tag_157\n        /* \"Token_COBAX.sol\":2665:2675  _msgSender */\n      tag_125\n        /* \"Token_COBAX.sol\":2665:2677  _msgSender() */\n      jump\t// in\n    tag_157:\n        /* \"Token_COBAX.sol\":2655:2677  _owner == _msgSender() */\n      0xffffffffffffffffffffffffffffffffffffffff\n      and\n        /* \"Token_COBAX.sol\":2655:2661  _owner */\n      0x00\n      dup1\n      sload\n      swap1\n      0x0100\n      exp\n      swap1\n      div\n      0xffffffffffffffffffffffffffffffffffffffff\n      and\n        /* \"Token_COBAX.sol\":2655:2677  _owner == _msgSender() */\n      0xffffffffffffffffffffffffffffffffffffffff\n      and\n      eq\n        /* \"Token_COBAX.sol\":2647:2714  require(_owner == _msgSender(), \"Ownable: caller is not the owner\") */\n      tag_158\n      jumpi\n      mload(0x40)\n      0x08c379a000000000000000000000000000000000000000000000000000000000\n      dup2\n      mstore\n      0x04\n      add\n      tag_159\n      swap1\n      tag_145\n      jump\t// in\n    tag_159:\n      mload(0x40)\n      dup1\n      swap2\n      sub\n      swap1\n      revert\n    tag_158:\n        /* \"Token_COBAX.sol\":11623:11634  tradingOpen */\n      0x14\n      dup1\n      sload\n      swap1\n      0x0100\n      exp\n      swap1\n      div\n      0xff\n      and\n        /* \"Token_COBAX.sol\":11622:11634  !tradingOpen */\n      iszero\n        /* \"Token_COBAX.sol\":11614:11662  require(!tradingOpen, \"trading is already open\") */\n      tag_161\n      jumpi\n      mload(0x40)\n      0x08c379a000000000000000000000000000000000000000000000000000000000\n      dup2\n      mstore\n      0x04\n      add\n      tag_162\n      swap1\n      tag_163\n      jump\t// in\n    tag_162:\n      mload(0x40)\n      dup1\n      swap2\n      sub\n      swap1\n      revert\n    tag_161:\n        /* \"Token_COBAX.sol\":11722:11764  0x7a250d5630B4cF539739dF2C5dAcb4c659F2488D */\n      0x7a250d5630b4cf539739df2c5dacb4c659f2488d\n        /* \"Token_COBAX.sol\":11672:11687  uniswapV2Router */\n      0x13\n      0x00\n        /* \"Token_COBAX.sol\":11672:11774  uniswapV2Router = IUniswapV2Router02(... */\n      0x0100\n      exp\n      dup2\n      sload\n      dup2\n      0xffffffffffffffffffffffffffffffffffffffff\n      mul\n      not\n      and\n      swap1\n      dup4\n      0xffffffffffffffffffffffffffffffffffffffff\n      and\n      mul\n      or\n      swap1\n      sstore\n      pop\n        /* \"Token_COBAX.sol\":11784:11842  _approve(address(this), address(uniswapV2Router), _tTotal) */\n      tag_164\n        /* \"Token_COBAX.sol\":11801:11805  this */\n      address\n        /* \"Token_COBAX.sol\":11816:11831  uniswapV2Router */\n      0x13\n      0x00\n      swap1\n      sload\n      swap1\n      0x0100\n      exp\n      swap1\n      div\n      0xffffffffffffffffffffffffffffffffffffffff\n      and\n        /* \"Token_COBAX.sol\":4402:4403  5 */\n      0x05\n        /* \"Token_COBAX.sol\":4459:4461  10 */\n      0x0a\n        /* \"Token_COBAX.sol\":4459:4474  10 ** _decimals */\n      tag_165\n      swap2\n      swap1\n      tag_129\n      jump\t// in\n    tag_165:\n        /* \"Token_COBAX.sol\":4444:4456  100000000000 */\n      0x174876e800\n        /* \"Token_COBAX.sol\":4444:4474  100000000000 * 10 ** _decimals */\n      tag_166\n      swap2\n      swap1\n      tag_131\n      jump\t// in\n    tag_166:\n        /* \"Token_COBAX.sol\":11784:11792  _approve */\n      tag_126\n        /* \"Token_COBAX.sol\":11784:11842  _approve(address(this), address(uniswapV2Router), _tTotal) */\n      jump\t// in\n    tag_164:\n        /* \"Token_COBAX.sol\":11886:11901  uniswapV2Router */\n      0x13\n      0x00\n      swap1\n      sload\n      swap1\n      0x0100\n      exp\n      swap1\n      div\n      0xffffffffffffffffffffffffffffffffffffffff\n      and\n        /* \"Token_COBAX.sol\":11886:11909  uniswapV2Router.factory */\n      0xffffffffffffffffffffffffffffffffffffffff\n      and\n      0xc45a0155\n        /* \"Token_COBAX.sol\":11886:11911  uniswapV2Router.factory() */\n      mload(0x40)\n      dup2\n      0xffffffff\n      and\n      0xe0\n      shl\n      dup2\n      mstore\n      0x04\n      add\n      0x20\n      mload(0x40)\n      dup1\n      dup4\n      sub\n      dup2\n      dup7\n      gas\n      staticcall\n      iszero\n      dup1\n      iszero\n      tag_168\n      jumpi\n      returndatasize\n      0x00\n      dup1\n      returndatacopy\n      revert(0x00, returndatasize)\n    tag_168:\n      pop\n      pop\n      pop\n      pop\n      mload(0x40)\n      returndatasize\n      not(0x1f)\n      0x1f\n      dup3\n      add\n      and\n      dup3\n      add\n      dup1\n      0x40\n      mstore\n      pop\n      dup2\n      add\n      swap1\n      tag_169\n      swap2\n      swap1\n      tag_170\n      jump\t// in\n    tag_169:\n        /* \"Token_COBAX.sol\":11868:11923  IUniswapV2Factory(uniswapV2Router.factory()).createPair */\n      0xffffffffffffffffffffffffffffffffffffffff\n      and\n      0xc9c65396\n        /* \"Token_COBAX.sol\":11945:11949  this */\n      address\n        /* \"Token_COBAX.sol\":11964:11979  uniswapV2Router */\n      0x13\n      0x00\n      swap1\n      sload\n      swap1\n      0x0100\n      exp\n      swap1\n      div\n      0xffffffffffffffffffffffffffffffffffffffff\n      and\n        /* \"Token_COBAX.sol\":11964:11984  uniswapV2Router.WETH */\n      0xffffffffffffffffffffffffffffffffffffffff\n      and\n      0xad5c4648\n        /* \"Token_COBAX.sol\":11964:11986  uniswapV2Router.WETH() */\n      mload(0x40)\n      dup2\n      0xffffffff\n      and\n      0xe0\n      shl\n      dup2\n      mstore\n      0x04\n      add\n      0x20\n      mload(0x40)\n      dup1\n      dup4\n      sub\n      dup2\n      dup7\n      gas\n      staticcall\n      iszero\n      dup1\n      iszero\n      tag_172\n      jumpi\n      returndatasize\n      0x00\n      dup1\n      returndatacopy\n      revert(0x00, returndatasize)\n    tag_172:\n      pop\n      pop\n      pop\n      pop\n      mload(0x40)\n      returndatasize\n      not(0x1f)\n      0x1f\n      dup3\n      add\n      and\n      dup3\n      add\n      dup1\n      0x40\n      mstore\n      pop\n      dup2\n      add\n      swap1\n      tag_173\n      swap2\n      swap1\n      tag_170\n      jump\t// in\n    tag_173:\n        /* \"Token_COBAX.sol\":11868:11996  IUniswapV2Factory(uniswapV2Router.factory()).createPair(... */\n      mload(0x40)\n      dup4\n      0xffffffff\n      and\n      0xe0\n      shl\n      dup2\n      mstore\n      0x04\n      add\n      tag_174\n      swap3\n      swap2\n      swap1\n      tag_175\n      jump\t// in\n    tag_174:\n      0x20\n      mload(0x40)\n      dup1\n      dup4\n      sub\n      dup2\n      0x00\n      dup8\n      gas\n      call\n      iszero\n      dup1\n      iszero\n      tag_177\n      jumpi\n      returndatasize\n      0x00\n      dup1\n      returndatacopy\n      revert(0x00, returndatasize)\n    tag_177:\n      pop\n      pop\n      pop\n      pop\n      mload(0x40)\n      returndatasize\n      not(0x1f)\n      0x1f\n      dup3\n      add\n      and\n      dup3\n      add\n      dup1\n      0x40\n      mstore\n      pop\n      dup2\n      add\n      swap1\n      tag_178\n      swap2\n      swap1\n      tag_170\n      jump\t// in\n    tag_178:\n        /* \"Token_COBAX.sol\":11852:11865  uniswapV2Pair */\n      0x14\n      0x00\n        /* \"Token_COBAX.sol\":11852:11996  uniswapV2Pair = IUniswapV2Factory(uniswapV2Router.factory()).createPair(... */\n      0x0100\n      exp\n      dup2\n      sload\n      dup2\n      0xffffffffffffffffffffffffffffffffffffffff\n      mul\n      not\n      and\n      swap1\n      dup4\n      0xffffffffffffffffffffffffffffffffffffffff\n      and\n      mul\n      or\n      swap1\n      sstore\n      pop\n        /* \"Token_COBAX.sol\":12006:12021  uniswapV2Router */\n      0x13\n      0x00\n      swap1\n      sload\n      swap1\n      0x0100\n      exp\n      swap1\n      div\n      0xffffffffffffffffffffffffffffffffffffffff\n      and\n        /* \"Token_COBAX.sol\":12006:12037  uniswapV2Router.addLiquidityETH */\n      0xffffffffffffffffffffffffffffffffffffffff\n      and\n      0xf305d719\n        /* \"Token_COBAX.sol\":12045:12066  address(this).balance */\n      selfbalance\n        /* \"Token_COBAX.sol\":12089:12093  this */\n      address\n        /* \"Token_COBAX.sol\":12108:12132  balanceOf(address(this)) */\n      tag_179\n        /* \"Token_COBAX.sol\":12126:12130  this */\n      address\n        /* \"Token_COBAX.sol\":12108:12117  balanceOf */\n      tag_77\n        /* \"Token_COBAX.sol\":12108:12132  balanceOf(address(this)) */\n      jump\t// in\n    tag_179:\n        /* \"Token_COBAX.sol\":12146:12147  0 */\n      0x00\n        /* \"Token_COBAX.sol\":12161:12162  0 */\n      dup1\n        /* \"Token_COBAX.sol\":12176:12183  owner() */\n      tag_180\n        /* \"Token_COBAX.sol\":12176:12181  owner */\n      tag_91\n        /* \"Token_COBAX.sol\":12176:12183  owner() */\n      jump\t// in\n    tag_180:\n        /* \"Token_COBAX.sol\":12197:12212  block.timestamp */\n      timestamp\n        /* \"Token_COBAX.sol\":12006:12222  uniswapV2Router.addLiquidityETH{value: address(this).balance}(... */\n      mload(0x40)\n      dup9\n      0xffffffff\n      and\n      0xe0\n      shl\n      dup2\n      mstore\n      0x04\n      add\n      tag_181\n      swap7\n      swap6\n      swap5\n      swap4\n      swap3\n      swap2\n      swap1\n      tag_182\n      jump\t// in\n    tag_181:\n      0x60\n      mload(0x40)\n      dup1\n      dup4\n      sub\n      dup2\n      dup6\n      dup9\n      gas\n      call\n      iszero\n      dup1\n      iszero\n      tag_184\n      jumpi\n      returndatasize\n      0x00\n      dup1\n      returndatacopy\n      revert(0x00, returndatasize)\n    tag_184:\n      pop\n      pop\n      pop\n      pop\n      pop\n      mload(0x40)\n      returndatasize\n      not(0x1f)\n      0x1f\n      dup3\n      add\n      and\n      dup3\n      add\n      dup1\n      0x40\n      mstore\n      pop\n      dup2\n      add\n      swap1\n      tag_185\n      swap2\n      swap1\n      tag_186\n      jump\t// in\n    tag_185:\n      pop\n      pop\n      pop\n        /* \"Token_COBAX.sol\":12239:12252  uniswapV2Pair */\n      0x14\n      0x00\n      swap1\n      sload\n      swap1\n      0x0100\n      exp\n      swap1\n      div\n      0xffffffffffffffffffffffffffffffffffffffff\n      and\n        /* \"Token_COBAX.sol\":12232:12261  IERC20(uniswapV2Pair).approve */\n      0xffffffffffffffffffffffffffffffffffffffff\n      and\n      0x095ea7b3\n        /* \"Token_COBAX.sol\":12270:12285  uniswapV2Router */\n      0x13\n      0x00\n      swap1\n      sload\n      swap1\n      0x0100\n      exp\n      swap1\n      div\n      0xffffffffffffffffffffffffffffffffffffffff\n      and\n        /* \"Token_COBAX.sol\":12288:12302  type(uint).max */\n      0xffffffffffffffffffffffffffffffffffffffffffffffffffffffffffffffff\n        /* \"Token_COBAX.sol\":12232:12303  IERC20(uniswapV2Pair).approve(address(uniswapV2Router), type(uint).max) */\n      mload(0x40)\n      dup4\n      0xffffffff\n      and\n      0xe0\n      shl\n      dup2\n      mstore\n      0x04\n      add\n      tag_187\n      swap3\n      swap2\n      swap1\n      tag_188\n      jump\t// in\n    tag_187:\n      0x20\n      mload(0x40)\n      dup1\n      dup4\n      sub\n      dup2\n      0x00\n      dup8\n      gas\n      call\n      iszero\n      dup1\n      iszero\n      tag_190\n      jumpi\n      returndatasize\n      0x00\n      dup1\n      returndatacopy\n      revert(0x00, returndatasize)\n    tag_190:\n      pop\n      pop\n      pop\n      pop\n      mload(0x40)\n      returndatasize\n      not(0x1f)\n      0x1f\n      dup3\n      add\n      and\n      dup3\n      add\n      dup1\n      0x40\n      mstore\n      pop\n      dup2\n      add\n      swap1\n      tag_191\n      swap2\n      swap1\n      tag_192\n      jump\t// in\n    tag_191:\n      pop\n        /* \"Token_COBAX.sol\":12327:12331  true */\n      0x01\n        /* \"Token_COBAX.sol\":12313:12324  swapEnabled */\n      0x14\n      0x16\n        /* \"Token_COBAX.sol\":12313:12331  swapEnabled = true */\n      0x0100\n      exp\n      dup2\n      sload\n      dup2\n      0xff\n      mul\n      not\n      and\n      swap1\n      dup4\n      iszero\n      iszero\n      mul\n      or\n      swap1\n      sstore\n      pop\n        /* \"Token_COBAX.sol\":12355:12359  true */\n      0x01\n        /* \"Token_COBAX.sol\":12341:12352  tradingOpen */\n      0x14\n      dup1\n        /* \"Token_COBAX.sol\":12341:12359  tradingOpen = true */\n      0x0100\n      exp\n      dup2\n      sload\n      dup2\n      0xff\n      mul\n      not\n      and\n      swap1\n      dup4\n      iszero\n      iszero\n      mul\n      or\n      swap1\n      sstore\n      pop\n        /* \"Token_COBAX.sol\":12382:12394  block.number */\n      number\n        /* \"Token_COBAX.sol\":12369:12379  firstBlock */\n      0x06\n        /* \"Token_COBAX.sol\":12369:12394  firstBlock = block.number */\n      dup2\n      swap1\n      sstore\n      pop\n        /* \"Token_COBAX.sol\":11562:12401  function OpenTrading() external onlyOwner {... */\n      jump\t// out\n        /* \"Token_COBAX.sol\":5854:5971  function balanceOf(address account) public view override returns (uint256) {... */\n    tag_77:\n        /* \"Token_COBAX.sol\":5920:5927  uint256 */\n      0x00\n        /* \"Token_COBAX.sol\":5946:5955  _balances */\n      0x01\n        /* \"Token_COBAX.sol\":5946:5964  _balances[account] */\n      0x00\n        /* \"Token_COBAX.sol\":5956:5963  account */\n      dup4\n        /* \"Token_COBAX.sol\":5946:5964  _balances[account] */\n      0xffffffffffffffffffffffffffffffffffffffff\n      and\n      0xffffffffffffffffffffffffffffffffffffffff\n      and\n      dup2\n      mstore\n      0x20\n      add\n      swap1\n      dup2\n      mstore\n      0x20\n      add\n      0x00\n      keccak256\n      sload\n        /* \"Token_COBAX.sol\":5939:5964  return _balances[account] */\n      swap1\n      pop\n        /* \"Token_COBAX.sol\":5854:5971  function balanceOf(address account) public view override returns (uint256) {... */\n      swap2\n      swap1\n      pop\n      jump\t// out\n        /* \"Token_COBAX.sol\":2738:2883  function renounceOwnership() public virtual onlyOwner {... */\n    tag_81:\n        /* \"Token_COBAX.sol\":2665:2677  _msgSender() */\n      tag_195\n        /* \"Token_COBAX.sol\":2665:2675  _msgSender */\n      tag_125\n        /* \"Token_COBAX.sol\":2665:2677  _msgSender() */\n      jump\t// in\n    tag_195:\n        /* \"Token_COBAX.sol\":2655:2677  _owner == _msgSender() */\n      0xffffffffffffffffffffffffffffffffffffffff\n      and\n        /* \"Token_COBAX.sol\":2655:2661  _owner */\n      0x00\n      dup1\n      sload\n      swap1\n      0x0100\n      exp\n      swap1\n      div\n      0xffffffffffffffffffffffffffffffffffffffff\n      and\n        /* \"Token_COBAX.sol\":2655:2677  _owner == _msgSender() */\n      0xffffffffffffffffffffffffffffffffffffffff\n      and\n      eq\n        /* \"Token_COBAX.sol\":2647:2714  require(_owner == _msgSender(), \"Ownable: caller is not the owner\") */\n      tag_196\n      jumpi\n      mload(0x40)\n      0x08c379a000000000000000000000000000000000000000000000000000000000\n      dup2\n      mstore\n      0x04\n      add\n      tag_197\n      swap1\n      tag_145\n      jump\t// in\n    tag_197:\n      mload(0x40)\n      dup1\n      swap2\n      sub\n      swap1\n      revert\n    tag_196:\n        /* \"Token_COBAX.sol\":2844:2845  0 */\n      0x00\n        /* \"Token_COBAX.sol\":2807:2847  OwnershipTransferred(_owner, address(0)) */\n      0xffffffffffffffffffffffffffffffffffffffff\n      and\n        /* \"Token_COBAX.sol\":2828:2834  _owner */\n      0x00\n      dup1\n      sload\n      swap1\n      0x0100\n      exp\n      swap1\n      div\n      0xffffffffffffffffffffffffffffffffffffffff\n      and\n        /* \"Token_COBAX.sol\":2807:2847  OwnershipTransferred(_owner, address(0)) */\n      0xffffffffffffffffffffffffffffffffffffffff\n      and\n      0x8be0079c531659141344cd1fd0a4f28419497f9722a3daafe3b4186f6b6457e0\n      mload(0x40)\n      mload(0x40)\n      dup1\n      swap2\n      sub\n      swap1\n      log3\n        /* \"Token_COBAX.sol\":2874:2875  0 */\n      0x00\n        /* \"Token_COBAX.sol\":2857:2863  _owner */\n      dup1\n      0x00\n        /* \"Token_COBAX.sol\":2857:2876  _owner = address(0) */\n      0x0100\n      exp\n      dup2\n      sload\n      dup2\n      0xffffffffffffffffffffffffffffffffffffffff\n      mul\n      not\n      and\n      swap1\n      dup4\n      0xffffffffffffffffffffffffffffffffffffffff\n      and\n      mul\n      or\n      swap1\n      sstore\n      pop\n        /* \"Token_COBAX.sol\":2738:2883  function renounceOwnership() public virtual onlyOwner {... */\n      jump\t// out\n        /* \"Token_COBAX.sol\":10876:11034  function removeLimits() external onlyOwner {... */\n    tag_84:\n        /* \"Token_COBAX.sol\":2665:2677  _msgSender() */\n      tag_200\n        /* \"Token_COBAX.sol\":2665:2675  _msgSender */\n      tag_125\n        /* \"Token_COBAX.sol\":2665:2677  _msgSender() */\n      jump\t// in\n    tag_200:\n        /* \"Token_COBAX.sol\":2655:2677  _owner == _msgSender() */\n      0xffffffffffffffffffffffffffffffffffffffff\n      and\n        /* \"Token_COBAX.sol\":2655:2661  _owner */\n      0x00\n      dup1\n      sload\n      swap1\n      0x0100\n      exp\n      swap1\n      div\n      0xffffffffffffffffffffffffffffffffffffffff\n      and\n        /* \"Token_COBAX.sol\":2655:2677  _owner == _msgSender() */\n      0xffffffffffffffffffffffffffffffffffffffff\n      and\n      eq\n        /* \"Token_COBAX.sol\":2647:2714  require(_owner == _msgSender(), \"Ownable: caller is not the owner\") */\n      tag_201\n      jumpi\n      mload(0x40)\n      0x08c379a000000000000000000000000000000000000000000000000000000000\n      dup2\n      mstore\n      0x04\n      add\n      tag_202\n      swap1\n      tag_145\n      jump\t// in\n    tag_202:\n      mload(0x40)\n      dup1\n      swap2\n      sub\n      swap1\n      revert\n    tag_201:\n        /* \"Token_COBAX.sol\":4402:4403  5 */\n      0x05\n        /* \"Token_COBAX.sol\":4459:4461  10 */\n      0x0a\n        /* \"Token_COBAX.sol\":4459:4474  10 ** _decimals */\n      tag_204\n      swap2\n      swap1\n      tag_129\n      jump\t// in\n    tag_204:\n        /* \"Token_COBAX.sol\":4444:4456  100000000000 */\n      0x174876e800\n        /* \"Token_COBAX.sol\":4444:4474  100000000000 * 10 ** _decimals */\n      tag_205\n      swap2\n      swap1\n      tag_131\n      jump\t// in\n    tag_205:\n        /* \"Token_COBAX.sol\":10929:10941  _maxTxAmount */\n      0x0f\n        /* \"Token_COBAX.sol\":10929:10951  _maxTxAmount = _tTotal */\n      dup2\n      swap1\n      sstore\n      pop\n        /* \"Token_COBAX.sol\":4402:4403  5 */\n      0x05\n        /* \"Token_COBAX.sol\":4459:4461  10 */\n      0x0a\n        /* \"Token_COBAX.sol\":4459:4474  10 ** _decimals */\n      tag_206\n      swap2\n      swap1\n      tag_129\n      jump\t// in\n    tag_206:\n        /* \"Token_COBAX.sol\":4444:4456  100000000000 */\n      0x174876e800\n        /* \"Token_COBAX.sol\":4444:4474  100000000000 * 10 ** _decimals */\n      tag_207\n      swap2\n      swap1\n      tag_131\n      jump\t// in\n    tag_207:\n        /* \"Token_COBAX.sol\":10961:10975  _maxWalletSize */\n      0x10\n        /* \"Token_COBAX.sol\":10961:10985  _maxWalletSize = _tTotal */\n      dup2\n      swap1\n      sstore\n      pop\n        /* \"Token_COBAX.sol\":11000:11027  MaxTxAmountUpdated(_tTotal) */\n      0x947f344d56e1e8c70dc492fb94c4ddddd490c016aab685f5e7e47b2e85cb44cf\n        /* \"Token_COBAX.sol\":4402:4403  5 */\n      0x05\n        /* \"Token_COBAX.sol\":4459:4461  10 */\n      0x0a\n        /* \"Token_COBAX.sol\":4459:4474  10 ** _decimals */\n      tag_208\n      swap2\n      swap1\n      tag_129\n      jump\t// in\n    tag_208:\n        /* \"Token_COBAX.sol\":4444:4456  100000000000 */\n      0x174876e800\n        /* \"Token_COBAX.sol\":4444:4474  100000000000 * 10 ** _decimals */\n      tag_209\n      swap2\n      swap1\n      tag_131\n      jump\t// in\n    tag_209:\n        /* \"Token_COBAX.sol\":11000:11027  MaxTxAmountUpdated(_tTotal) */\n      mload(0x40)\n      tag_210\n      swap2\n      swap1\n      tag_44\n      jump\t// in\n    tag_210:\n      mload(0x40)\n      dup1\n      swap2\n      sub\n      swap1\n      log1\n        /* \"Token_COBAX.sol\":10876:11034  function removeLimits() external onlyOwner {... */\n      jump\t// out\n        /* \"Token_COBAX.sol\":4591:4649  uint256 public _maxTxAmount = 2000000000 * 10 ** _decimals */\n    tag_87:\n      sload(0x0f)\n      dup2\n      jump\t// out\n        /* \"Token_COBAX.sol\":2533:2610  function owner() public view returns (address) {... */\n    tag_91:\n        /* \"Token_COBAX.sol\":2571:2578  address */\n      0x00\n        /* \"Token_COBAX.sol\":2597:2603  _owner */\n      dup1\n      0x00\n      swap1\n      sload\n      swap1\n      0x0100\n      exp\n      swap1\n      div\n      0xffffffffffffffffffffffffffffffffffffffff\n      and\n        /* \"Token_COBAX.sol\":2590:2603  return _owner */\n      swap1\n      pop\n        /* \"Token_COBAX.sol\":2533:2610  function owner() public view returns (address) {... */\n      swap1\n      jump\t// out\n        /* \"Token_COBAX.sol\":4655:4715  uint256 public _maxWalletSize = 2000000000 * 10 ** _decimals */\n    tag_96:\n      sload(0x10)\n      dup2\n      jump\t// out\n        /* \"Token_COBAX.sol\":5577:5662  function symbol() public pure returns (string memory) {... */\n    tag_100:\n        /* \"Token_COBAX.sol\":5616:5629  string memory */\n      0x60\n        /* \"Token_COBAX.sol\":5648:5655  _symbol */\n      mload(0x40)\n      dup1\n      0x40\n      add\n      0x40\n      mstore\n      dup1\n      0x05\n      dup2\n      mstore\n      0x20\n      add\n      0x434f424158000000000000000000000000000000000000000000000000000000\n      dup2\n      mstore\n      pop\n        /* \"Token_COBAX.sol\":5641:5655  return _symbol */\n      swap1\n      pop\n        /* \"Token_COBAX.sol\":5577:5662  function symbol() public pure returns (string memory) {... */\n      swap1\n      jump\t// out\n        /* \"Token_COBAX.sol\":5977:6163  function transfer(... */\n    tag_105:\n        /* \"Token_COBAX.sol\":6077:6081  bool */\n      0x00\n        /* \"Token_COBAX.sol\":6093:6135  _transfer(_msgSender(), recipient, amount) */\n      tag_214\n        /* \"Token_COBAX.sol\":6103:6115  _msgSender() */\n      tag_215\n        /* \"Token_COBAX.sol\":6103:6113  _msgSender */\n      tag_125\n        /* \"Token_COBAX.sol\":6103:6115  _msgSender() */\n      jump\t// in\n    tag_215:\n        /* \"Token_COBAX.sol\":6117:6126  recipient */\n      dup5\n        /* \"Token_COBAX.sol\":6128:6134  amount */\n      dup5\n        /* \"Token_COBAX.sol\":6093:6102  _transfer */\n      tag_134\n        /* \"Token_COBAX.sol\":6093:6135  _transfer(_msgSender(), recipient, amount) */\n      jump\t// in\n    tag_214:\n        /* \"Token_COBAX.sol\":6152:6156  true */\n      0x01\n        /* \"Token_COBAX.sol\":6145:6156  return true */\n      swap1\n      pop\n        /* \"Token_COBAX.sol\":5977:6163  function transfer(... */\n      swap3\n      swap2\n      pop\n      pop\n      jump\t// out\n        /* \"Token_COBAX.sol\":4721:4778  uint256 public _taxSwapThreshold = 2000 * 10 ** _decimals */\n    tag_109:\n      sload(0x11)\n      dup2\n      jump\t// out\n        /* \"Token_COBAX.sol\":11136:11296  function addBots(address[] memory bots_) public onlyOwner {... */\n    tag_114:\n        /* \"Token_COBAX.sol\":2665:2677  _msgSender() */\n      tag_217\n        /* \"Token_COBAX.sol\":2665:2675  _msgSender */\n      tag_125\n        /* \"Token_COBAX.sol\":2665:2677  _msgSender() */\n      jump\t// in\n    tag_217:\n        /* \"Token_COBAX.sol\":2655:2677  _owner == _msgSender() */\n      0xffffffffffffffffffffffffffffffffffffffff\n      and\n        /* \"Token_COBAX.sol\":2655:2661  _owner */\n      0x00\n      dup1\n      sload\n      swap1\n      0x0100\n      exp\n      swap1\n      div\n      0xffffffffffffffffffffffffffffffffffffffff\n      and\n        /* \"Token_COBAX.sol\":2655:2677  _owner == _msgSender() */\n      0xffffffffffffffffffffffffffffffffffffffff\n      and\n      eq\n        /* \"Token_COBAX.sol\":2647:2714  require(_owner == _msgSender(), \"Ownable: caller is not the owner\") */\n      tag_218\n      jumpi\n      mload(0x40)\n      0x08c379a000000000000000000000000000000000000000000000000000000000\n      dup2\n      mstore\n      0x04\n      add\n      tag_219\n      swap1\n      tag_145\n      jump\t// in\n    tag_219:\n      mload(0x40)\n      dup1\n      swap2\n      sub\n      swap1\n      revert\n    tag_218:\n        /* \"Token_COBAX.sol\":11209:11215  uint i */\n      0x00\n        /* \"Token_COBAX.sol\":11204:11290  for (uint i = 0; i < bots_.length; i++) {... */\n    tag_221:\n        /* \"Token_COBAX.sol\":11225:11230  bots_ */\n      dup2\n        /* \"Token_COBAX.sol\":11225:11237  bots_.length */\n      mload\n        /* \"Token_COBAX.sol\":11221:11222  i */\n      dup2\n        /* \"Token_COBAX.sol\":11221:11237  i < bots_.length */\n      lt\n        /* \"Token_COBAX.sol\":11204:11290  for (uint i = 0; i < bots_.length; i++) {... */\n      iszero\n      tag_222\n      jumpi\n        /* \"Token_COBAX.sol\":11275:11279  true */\n      0x01\n        /* \"Token_COBAX.sol\":11258:11262  bots */\n      0x04\n        /* \"Token_COBAX.sol\":11258:11272  bots[bots_[i]] */\n      0x00\n        /* \"Token_COBAX.sol\":11263:11268  bots_ */\n      dup5\n        /* \"Token_COBAX.sol\":11269:11270  i */\n      dup5\n        /* \"Token_COBAX.sol\":11263:11271  bots_[i] */\n      dup2\n      mload\n      dup2\n      lt\n      tag_224\n      jumpi\n      tag_225\n      tag_152\n      jump\t// in\n    tag_225:\n    tag_224:\n      0x20\n      mul\n      0x20\n      add\n      add\n      mload\n        /* \"Token_COBAX.sol\":11258:11272  bots[bots_[i]] */\n      0xffffffffffffffffffffffffffffffffffffffff\n      and\n      0xffffffffffffffffffffffffffffffffffffffff\n      and\n      dup2\n      mstore\n      0x20\n      add\n      swap1\n      dup2\n      mstore\n      0x20\n      add\n      0x00\n      keccak256\n      0x00\n        /* \"Token_COBAX.sol\":11258:11279  bots[bots_[i]] = true */\n      0x0100\n      exp\n      dup2\n      sload\n      dup2\n      0xff\n      mul\n      not\n      and\n      swap1\n      dup4\n      iszero\n      iszero\n      mul\n      or\n      swap1\n      sstore\n      pop\n        /* \"Token_COBAX.sol\":11239:11242  i++ */\n      dup1\n      dup1\n      tag_226\n      swap1\n      tag_154\n      jump\t// in\n    tag_226:\n      swap2\n      pop\n      pop\n        /* \"Token_COBAX.sol\":11204:11290  for (uint i = 0; i < bots_.length; i++) {... */\n      jump(tag_221)\n    tag_222:\n      pop\n        /* \"Token_COBAX.sol\":11136:11296  function addBots(address[] memory bots_) public onlyOwner {... */\n      pop\n      jump\t// out\n        /* \"Token_COBAX.sol\":6169:6332  function allowance(... */\n    tag_119:\n        /* \"Token_COBAX.sol\":6272:6279  uint256 */\n      0x00\n        /* \"Token_COBAX.sol\":6298:6309  _allowances */\n      0x02\n        /* \"Token_COBAX.sol\":6298:6316  _allowances[owner] */\n      0x00\n        /* \"Token_COBAX.sol\":6310:6315  owner */\n      dup5\n        /* \"Token_COBAX.sol\":6298:6316  _allowances[owner] */\n      0xffffffffffffffffffffffffffffffffffffffff\n      and\n      0xffffffffffffffffffffffffffffffffffffffff\n      and\n      dup2\n      mstore\n      0x20\n      add\n      swap1\n      dup2\n      mstore\n      0x20\n      add\n      0x00\n      keccak256\n        /* \"Token_COBAX.sol\":6298:6325  _allowances[owner][spender] */\n      0x00\n        /* \"Token_COBAX.sol\":6317:6324  spender */\n      dup4\n        /* \"Token_COBAX.sol\":6298:6325  _allowances[owner][spender] */\n      0xffffffffffffffffffffffffffffffffffffffff\n      and\n      0xffffffffffffffffffffffffffffffffffffffff\n      and\n      dup2\n      mstore\n      0x20\n      add\n      swap1\n      dup2\n      mstore\n      0x20\n      add\n      0x00\n      keccak256\n      sload\n        /* \"Token_COBAX.sol\":6291:6325  return _allowances[owner][spender] */\n      swap1\n      pop\n        /* \"Token_COBAX.sol\":6169:6332  function allowance(... */\n      swap3\n      swap2\n      pop\n      pop\n      jump\t// out\n        /* \"Token_COBAX.sol\":168:264  function _msgSender() internal view virtual returns (address) {... */\n    tag_125:\n        /* \"Token_COBAX.sol\":221:228  address */\n      0x00\n        /* \"Token_COBAX.sol\":247:257  msg.sender */\n      caller\n        /* \"Token_COBAX.sol\":240:257  return msg.sender */\n      swap1\n      pop\n        /* \"Token_COBAX.sol\":168:264  function _msgSender() internal view virtual returns (address) {... */\n      swap1\n      jump\t// out\n        /* \"Token_COBAX.sol\":6961:7291  function _approve(address owner, address spender, uint256 amount) private {... */\n    tag_126:\n        /* \"Token_COBAX.sol\":7070:7071  0 */\n      0x00\n        /* \"Token_COBAX.sol\":7053:7072  owner != address(0) */\n      0xffffffffffffffffffffffffffffffffffffffff\n      and\n        /* \"Token_COBAX.sol\":7053:7058  owner */\n      dup4\n        /* \"Token_COBAX.sol\":7053:7072  owner != address(0) */\n      0xffffffffffffffffffffffffffffffffffffffff\n      and\n      sub\n        /* \"Token_COBAX.sol\":7045:7113  require(owner != address(0), \"ERC20: approve from the zero address\") */\n      tag_230\n      jumpi\n      mload(0x40)\n      0x08c379a000000000000000000000000000000000000000000000000000000000\n      dup2\n      mstore\n      0x04\n      add\n      tag_231\n      swap1\n      tag_232\n      jump\t// in\n    tag_231:\n      mload(0x40)\n      dup1\n      swap2\n      sub\n      swap1\n      revert\n    tag_230:\n        /* \"Token_COBAX.sol\":7150:7151  0 */\n      0x00\n        /* \"Token_COBAX.sol\":7131:7152  spender != address(0) */\n      0xffffffffffffffffffffffffffffffffffffffff\n      and\n        /* \"Token_COBAX.sol\":7131:7138  spender */\n      dup3\n        /* \"Token_COBAX.sol\":7131:7152  spender != address(0) */\n      0xffffffffffffffffffffffffffffffffffffffff\n      and\n      sub\n        /* \"Token_COBAX.sol\":7123:7191  require(spender != address(0), \"ERC20: approve to the zero address\") */\n      tag_233\n      jumpi\n      mload(0x40)\n      0x08c379a000000000000000000000000000000000000000000000000000000000\n      dup2\n      mstore\n      0x04\n      add\n      tag_234\n      swap1\n      tag_235\n      jump\t// in\n    tag_234:\n      mload(0x40)\n      dup1\n      swap2\n      sub\n      swap1\n      revert\n    tag_233:\n        /* \"Token_COBAX.sol\":7231:7237  amount */\n      dup1\n        /* \"Token_COBAX.sol\":7201:7212  _allowances */\n      0x02\n        /* \"Token_COBAX.sol\":7201:7219  _allowances[owner] */\n      0x00\n        /* \"Token_COBAX.sol\":7213:7218  owner */\n      dup6\n        /* \"Token_COBAX.sol\":7201:7219  _allowances[owner] */\n      0xffffffffffffffffffffffffffffffffffffffff\n      and\n      0xffffffffffffffffffffffffffffffffffffffff\n      and\n      dup2\n      mstore\n      0x20\n      add\n      swap1\n      dup2\n      mstore\n      0x20\n      add\n      0x00\n      keccak256\n        /* \"Token_COBAX.sol\":7201:7228  _allowances[owner][spender] */\n      0x00\n        /* \"Token_COBAX.sol\":7220:7227  spender */\n      dup5\n        /* \"Token_COBAX.sol\":7201:7228  _allowances[owner][spender] */\n      0xffffffffffffffffffffffffffffffffffffffff\n      and\n      0xffffffffffffffffffffffffffffffffffffffff\n      and\n      dup2\n      mstore\n      0x20\n      add\n      swap1\n      dup2\n      mstore\n      0x20\n      add\n      0x00\n      keccak256\n        /* \"Token_COBAX.sol\":7201:7237  _allowances[owner][spender] = amount */\n      dup2\n      swap1\n      sstore\n      pop\n        /* \"Token_COBAX.sol\":7268:7275  spender */\n      dup2\n        /* \"Token_COBAX.sol\":7252:7284  Approval(owner, spender, amount) */\n      0xffffffffffffffffffffffffffffffffffffffff\n      and\n        /* \"Token_COBAX.sol\":7261:7266  owner */\n      dup4\n        /* \"Token_COBAX.sol\":7252:7284  Approval(owner, spender, amount) */\n      0xffffffffffffffffffffffffffffffffffffffff\n      and\n      0x8c5be1e5ebec7d5bd14f71427d1e84f3dd0314c0f7b2291e5b200ac8c7c3b925\n        /* \"Token_COBAX.sol\":7277:7283  amount */\n      dup4\n        /* \"Token_COBAX.sol\":7252:7284  Approval(owner, spender, amount) */\n      mload(0x40)\n      tag_236\n      swap2\n      swap1\n      tag_44\n      jump\t// in\n    tag_236:\n      mload(0x40)\n      dup1\n      swap2\n      sub\n      swap1\n      log3\n        /* \"Token_COBAX.sol\":6961:7291  function _approve(address owner, address spender, uint256 amount) private {... */\n      pop\n      pop\n      pop\n      jump\t// out\n        /* \"Token_COBAX.sol\":7297:10087  function _transfer(address from, address to, uint256 amount) private {... */\n    tag_134:\n        /* \"Token_COBAX.sol\":7400:7401  0 */\n      0x00\n        /* \"Token_COBAX.sol\":7384:7402  from != address(0) */\n      0xffffffffffffffffffffffffffffffffffffffff\n      and\n        /* \"Token_COBAX.sol\":7384:7388  from */\n      dup4\n        /* \"Token_COBAX.sol\":7384:7402  from != address(0) */\n      0xffffffffffffffffffffffffffffffffffffffff\n      and\n      sub\n        /* \"Token_COBAX.sol\":7376:7444  require(from != address(0), \"ERC20: transfer from the zero address\") */\n      tag_238\n      jumpi\n      mload(0x40)\n      0x08c379a000000000000000000000000000000000000000000000000000000000\n      dup2\n      mstore\n      0x04\n      add\n      tag_239\n      swap1\n      tag_240\n      jump\t// in\n    tag_239:\n      mload(0x40)\n      dup1\n      swap2\n      sub\n      swap1\n      revert\n    tag_238:\n        /* \"Token_COBAX.sol\":7476:7477  0 */\n      0x00\n        /* \"Token_COBAX.sol\":7462:7478  to != address(0) */\n      0xffffffffffffffffffffffffffffffffffffffff\n      and\n        /* \"Token_COBAX.sol\":7462:7464  to */\n      dup3\n        /* \"Token_COBAX.sol\":7462:7478  to != address(0) */\n      0xffffffffffffffffffffffffffffffffffffffff\n      and\n      sub\n        /* \"Token_COBAX.sol\":7454:7518  require(to != address(0), \"ERC20: transfer to the zero address\") */\n      tag_241\n      jumpi\n      mload(0x40)\n      0x08c379a000000000000000000000000000000000000000000000000000000000\n      dup2\n      mstore\n      0x04\n      add\n      tag_242\n      swap1\n      tag_243\n      jump\t// in\n    tag_242:\n      mload(0x40)\n      dup1\n      swap2\n      sub\n      swap1\n      revert\n    tag_241:\n        /* \"Token_COBAX.sol\":7545:7546  0 */\n      0x00\n        /* \"Token_COBAX.sol\":7536:7542  amount */\n      dup2\n        /* \"Token_COBAX.sol\":7536:7546  amount > 0 */\n      gt\n        /* \"Token_COBAX.sol\":7528:7592  require(amount > 0, \"Transfer amount must be greater than zero\") */\n      tag_244\n      jumpi\n      mload(0x40)\n      0x08c379a000000000000000000000000000000000000000000000000000000000\n      dup2\n      mstore\n      0x04\n      add\n      tag_245\n      swap1\n      tag_246\n      jump\t// in\n    tag_245:\n      mload(0x40)\n      dup1\n      swap2\n      sub\n      swap1\n      revert\n    tag_244:\n        /* \"Token_COBAX.sol\":7602:7619  uint256 taxAmount */\n      0x00\n        /* \"Token_COBAX.sol\":7645:7652  owner() */\n      tag_247\n        /* \"Token_COBAX.sol\":7645:7650  owner */\n      tag_91\n        /* \"Token_COBAX.sol\":7645:7652  owner() */\n      jump\t// in\n    tag_247:\n        /* \"Token_COBAX.sol\":7637:7652  from != owner() */\n      0xffffffffffffffffffffffffffffffffffffffff\n      and\n        /* \"Token_COBAX.sol\":7637:7641  from */\n      dup5\n        /* \"Token_COBAX.sol\":7637:7652  from != owner() */\n      0xffffffffffffffffffffffffffffffffffffffff\n      and\n      eq\n      iszero\n        /* \"Token_COBAX.sol\":7637:7669  from != owner() && to != owner() */\n      dup1\n      iszero\n      tag_248\n      jumpi\n      pop\n        /* \"Token_COBAX.sol\":7662:7669  owner() */\n      tag_249\n        /* \"Token_COBAX.sol\":7662:7667  owner */\n      tag_91\n        /* \"Token_COBAX.sol\":7662:7669  owner() */\n      jump\t// in\n    tag_249:\n        /* \"Token_COBAX.sol\":7656:7669  to != owner() */\n      0xffffffffffffffffffffffffffffffffffffffff\n      and\n        /* \"Token_COBAX.sol\":7656:7658  to */\n      dup4\n        /* \"Token_COBAX.sol\":7656:7669  to != owner() */\n      0xffffffffffffffffffffffffffffffffffffffff\n      and\n      eq\n      iszero\n        /* \"Token_COBAX.sol\":7637:7669  from != owner() && to != owner() */\n    tag_248:\n        /* \"Token_COBAX.sol\":7633:9725  if (from != owner() && to != owner()) {... */\n      iszero\n      tag_250\n      jumpi\n        /* \"Token_COBAX.sol\":7694:7698  bots */\n      0x04\n        /* \"Token_COBAX.sol\":7694:7704  bots[from] */\n      0x00\n        /* \"Token_COBAX.sol\":7699:7703  from */\n      dup6\n        /* \"Token_COBAX.sol\":7694:7704  bots[from] */\n      0xffffffffffffffffffffffffffffffffffffffff\n      and\n      0xffffffffffffffffffffffffffffffffffffffff\n      and\n      dup2\n      mstore\n      0x20\n      add\n      swap1\n      dup2\n      mstore\n      0x20\n      add\n      0x00\n      keccak256\n      0x00\n      swap1\n      sload\n      swap1\n      0x0100\n      exp\n      swap1\n      div\n      0xff\n      and\n        /* \"Token_COBAX.sol\":7693:7704  !bots[from] */\n      iszero\n        /* \"Token_COBAX.sol\":7693:7717  !bots[from] && !bots[to] */\n      dup1\n      iszero\n      tag_251\n      jumpi\n      pop\n        /* \"Token_COBAX.sol\":7709:7713  bots */\n      0x04\n        /* \"Token_COBAX.sol\":7709:7717  bots[to] */\n      0x00\n        /* \"Token_COBAX.sol\":7714:7716  to */\n      dup5\n        /* \"Token_COBAX.sol\":7709:7717  bots[to] */\n      0xffffffffffffffffffffffffffffffffffffffff\n      and\n      0xffffffffffffffffffffffffffffffffffffffff\n      and\n      dup2\n      mstore\n      0x20\n      add\n      swap1\n      dup2\n      mstore\n      0x20\n      add\n      0x00\n      keccak256\n      0x00\n      swap1\n      sload\n      swap1\n      0x0100\n      exp\n      swap1\n      div\n      0xff\n      and\n        /* \"Token_COBAX.sol\":7708:7717  !bots[to] */\n      iszero\n        /* \"Token_COBAX.sol\":7693:7717  !bots[from] && !bots[to] */\n    tag_251:\n        /* \"Token_COBAX.sol\":7685:7718  require(!bots[from] && !bots[to]) */\n      tag_252\n      jumpi\n      0x00\n      dup1\n      revert\n    tag_252:\n        /* \"Token_COBAX.sol\":7744:7946  amount... */\n      tag_253\n        /* \"Token_COBAX.sol\":7942:7945  100 */\n      0x64\n        /* \"Token_COBAX.sol\":7744:7920  amount... */\n      tag_254\n        /* \"Token_COBAX.sol\":7806:7821  _reduceBuyTaxAt */\n      sload(0x0b)\n        /* \"Token_COBAX.sol\":7794:7803  _buyCount */\n      sload(0x0e)\n        /* \"Token_COBAX.sol\":7794:7821  _buyCount > _reduceBuyTaxAt */\n      gt\n        /* \"Token_COBAX.sol\":7793:7902  (_buyCount > _reduceBuyTaxAt)... */\n      tag_255\n      jumpi\n        /* \"Token_COBAX.sol\":7888:7902  _initialBuyTax */\n      sload(0x07)\n        /* \"Token_COBAX.sol\":7793:7902  (_buyCount > _reduceBuyTaxAt)... */\n      jump(tag_256)\n    tag_255:\n        /* \"Token_COBAX.sol\":7849:7861  _finalBuyTax */\n      sload(0x09)\n        /* \"Token_COBAX.sol\":7793:7902  (_buyCount > _reduceBuyTaxAt)... */\n    tag_256:\n        /* \"Token_COBAX.sol\":7744:7750  amount */\n      dup6\n        /* \"Token_COBAX.sol\":7744:7771  amount... */\n      tag_257\n      swap1\n        /* \"Token_COBAX.sol\":7744:7920  amount... */\n      swap2\n      swap1\n      0xffffffff\n      and\n      jump\t// in\n    tag_254:\n        /* \"Token_COBAX.sol\":7744:7941  amount... */\n      tag_258\n      swap1\n        /* \"Token_COBAX.sol\":7744:7946  amount... */\n      swap2\n      swap1\n      0xffffffff\n      and\n      jump\t// in\n    tag_253:\n        /* \"Token_COBAX.sol\":7732:7946  taxAmount = amount... */\n      swap1\n      pop\n        /* \"Token_COBAX.sol\":7990:8003  uniswapV2Pair */\n      0x14\n      0x00\n      swap1\n      sload\n      swap1\n      0x0100\n      exp\n      swap1\n      div\n      0xffffffffffffffffffffffffffffffffffffffff\n      and\n        /* \"Token_COBAX.sol\":7982:8003  from == uniswapV2Pair */\n      0xffffffffffffffffffffffffffffffffffffffff\n      and\n        /* \"Token_COBAX.sol\":7982:7986  from */\n      dup5\n        /* \"Token_COBAX.sol\":7982:8003  from == uniswapV2Pair */\n      0xffffffffffffffffffffffffffffffffffffffff\n      and\n      eq\n        /* \"Token_COBAX.sol\":7982:8053  from == uniswapV2Pair &&... */\n      dup1\n      iszero\n      tag_259\n      jumpi\n      pop\n        /* \"Token_COBAX.sol\":8037:8052  uniswapV2Router */\n      0x13\n      0x00\n      swap1\n      sload\n      swap1\n      0x0100\n      exp\n      swap1\n      div\n      0xffffffffffffffffffffffffffffffffffffffff\n      and\n        /* \"Token_COBAX.sol\":8023:8053  to != address(uniswapV2Router) */\n      0xffffffffffffffffffffffffffffffffffffffff\n      and\n        /* \"Token_COBAX.sol\":8023:8025  to */\n      dup4\n        /* \"Token_COBAX.sol\":8023:8053  to != address(uniswapV2Router) */\n      0xffffffffffffffffffffffffffffffffffffffff\n      and\n      eq\n      iszero\n        /* \"Token_COBAX.sol\":7982:8053  from == uniswapV2Pair &&... */\n    tag_259:\n        /* \"Token_COBAX.sol\":7982:8096  from == uniswapV2Pair &&... */\n      dup1\n      iszero\n      tag_260\n      jumpi\n      pop\n        /* \"Token_COBAX.sol\":8074:8092  _isExcludedFromFee */\n      0x03\n        /* \"Token_COBAX.sol\":8074:8096  _isExcludedFromFee[to] */\n      0x00\n        /* \"Token_COBAX.sol\":8093:8095  to */\n      dup5\n        /* \"Token_COBAX.sol\":8074:8096  _isExcludedFromFee[to] */\n      0xffffffffffffffffffffffffffffffffffffffff\n      and\n      0xffffffffffffffffffffffffffffffffffffffff\n      and\n      dup2\n      mstore\n      0x20\n      add\n      swap1\n      dup2\n      mstore\n      0x20\n      add\n      0x00\n      keccak256\n      0x00\n      swap1\n      sload\n      swap1\n      0x0100\n      exp\n      swap1\n      div\n      0xff\n      and\n        /* \"Token_COBAX.sol\":8073:8096  !_isExcludedFromFee[to] */\n      iszero\n        /* \"Token_COBAX.sol\":7982:8096  from == uniswapV2Pair &&... */\n    tag_260:\n        /* \"Token_COBAX.sol\":7961:8506  if (... */\n      iszero\n      tag_261\n      jumpi\n        /* \"Token_COBAX.sol\":8147:8159  _maxTxAmount */\n      sload(0x0f)\n        /* \"Token_COBAX.sol\":8137:8143  amount */\n      dup3\n        /* \"Token_COBAX.sol\":8137:8159  amount <= _maxTxAmount */\n      gt\n      iszero\n        /* \"Token_COBAX.sol\":8129:8189  require(amount <= _maxTxAmount, \"Exceeds the _maxTxAmount.\") */\n      tag_262\n      jumpi\n      mload(0x40)\n      0x08c379a000000000000000000000000000000000000000000000000000000000\n      dup2\n      mstore\n      0x04\n      add\n      tag_263\n      swap1\n      tag_264\n      jump\t// in\n    tag_263:\n      mload(0x40)\n      dup1\n      swap2\n      sub\n      swap1\n      revert\n    tag_262:\n        /* \"Token_COBAX.sol\":8262:8276  _maxWalletSize */\n      sload(0x10)\n        /* \"Token_COBAX.sol\":8252:8258  amount */\n      dup3\n        /* \"Token_COBAX.sol\":8236:8249  balanceOf(to) */\n      tag_265\n        /* \"Token_COBAX.sol\":8246:8248  to */\n      dup6\n        /* \"Token_COBAX.sol\":8236:8245  balanceOf */\n      tag_77\n        /* \"Token_COBAX.sol\":8236:8249  balanceOf(to) */\n      jump\t// in\n    tag_265:\n        /* \"Token_COBAX.sol\":8236:8258  balanceOf(to) + amount */\n      tag_266\n      swap2\n      swap1\n      tag_267\n      jump\t// in\n    tag_266:\n        /* \"Token_COBAX.sol\":8236:8276  balanceOf(to) + amount <= _maxWalletSize */\n      gt\n      iszero\n        /* \"Token_COBAX.sol\":8207:8344  require(... */\n      tag_268\n      jumpi\n      mload(0x40)\n      0x08c379a000000000000000000000000000000000000000000000000000000000\n      dup2\n      mstore\n      0x04\n      add\n      tag_269\n      swap1\n      tag_270\n      jump\t// in\n    tag_269:\n      mload(0x40)\n      dup1\n      swap2\n      sub\n      swap1\n      revert\n    tag_268:\n        /* \"Token_COBAX.sol\":8384:8396  block.number */\n      number\n        /* \"Token_COBAX.sol\":8380:8381  3 */\n      0x03\n        /* \"Token_COBAX.sol\":8367:8377  firstBlock */\n      sload(0x06)\n        /* \"Token_COBAX.sol\":8367:8381  firstBlock + 3 */\n      tag_271\n      swap2\n      swap1\n      tag_267\n      jump\t// in\n    tag_271:\n        /* \"Token_COBAX.sol\":8367:8396  firstBlock + 3 > block.number */\n      gt\n        /* \"Token_COBAX.sol\":8363:8463  if (firstBlock + 3 > block.number) {... */\n      iszero\n      tag_272\n      jumpi\n        /* \"Token_COBAX.sol\":8429:8443  isContract(to) */\n      tag_273\n        /* \"Token_COBAX.sol\":8440:8442  to */\n      dup4\n        /* \"Token_COBAX.sol\":8429:8439  isContract */\n      tag_274\n        /* \"Token_COBAX.sol\":8429:8443  isContract(to) */\n      jump\t// in\n    tag_273:\n        /* \"Token_COBAX.sol\":8428:8443  !isContract(to) */\n      iszero\n        /* \"Token_COBAX.sol\":8420:8444  require(!isContract(to)) */\n      tag_275\n      jumpi\n      0x00\n      dup1\n      revert\n    tag_275:\n        /* \"Token_COBAX.sol\":8363:8463  if (firstBlock + 3 > block.number) {... */\n    tag_272:\n        /* \"Token_COBAX.sol\":8480:8489  _buyCount */\n      0x0e\n      0x00\n        /* \"Token_COBAX.sol\":8480:8491  _buyCount++ */\n      dup2\n      sload\n      dup1\n      swap3\n      swap2\n      swap1\n      tag_276\n      swap1\n      tag_154\n      jump\t// in\n    tag_276:\n      swap2\n      swap1\n      pop\n      sstore\n      pop\n        /* \"Token_COBAX.sol\":7961:8506  if (... */\n    tag_261:\n        /* \"Token_COBAX.sol\":8530:8543  uniswapV2Pair */\n      0x14\n      0x00\n      swap1\n      sload\n      swap1\n      0x0100\n      exp\n      swap1\n      div\n      0xffffffffffffffffffffffffffffffffffffffff\n      and\n        /* \"Token_COBAX.sol\":8524:8543  to != uniswapV2Pair */\n      0xffffffffffffffffffffffffffffffffffffffff\n      and\n        /* \"Token_COBAX.sol\":8524:8526  to */\n      dup4\n        /* \"Token_COBAX.sol\":8524:8543  to != uniswapV2Pair */\n      0xffffffffffffffffffffffffffffffffffffffff\n      and\n      eq\n      iszero\n        /* \"Token_COBAX.sol\":8524:8570  to != uniswapV2Pair && !_isExcludedFromFee[to] */\n      dup1\n      iszero\n      tag_277\n      jumpi\n      pop\n        /* \"Token_COBAX.sol\":8548:8566  _isExcludedFromFee */\n      0x03\n        /* \"Token_COBAX.sol\":8548:8570  _isExcludedFromFee[to] */\n      0x00\n        /* \"Token_COBAX.sol\":8567:8569  to */\n      dup5\n        /* \"Token_COBAX.sol\":8548:8570  _isExcludedFromFee[to] */\n      0xffffffffffffffffffffffffffffffffffffffff\n      and\n      0xffffffffffffffffffffffffffffffffffffffff\n      and\n      dup2\n      mstore\n      0x20\n      add\n      swap1\n      dup2\n      mstore\n      0x20\n      add\n      0x00\n      keccak256\n      0x00\n      swap1\n      sload\n      swap1\n      0x0100\n      exp\n      swap1\n      div\n      0xff\n      and\n        /* \"Token_COBAX.sol\":8547:8570  !_isExcludedFromFee[to] */\n      iszero\n        /* \"Token_COBAX.sol\":8524:8570  to != uniswapV2Pair && !_isExcludedFromFee[to] */\n    tag_277:\n        /* \"Token_COBAX.sol\":8520:8742  if (to != uniswapV2Pair && !_isExcludedFromFee[to]) {... */\n      iszero\n      tag_278\n      jumpi\n        /* \"Token_COBAX.sol\":8645:8659  _maxWalletSize */\n      sload(0x10)\n        /* \"Token_COBAX.sol\":8635:8641  amount */\n      dup3\n        /* \"Token_COBAX.sol\":8619:8632  balanceOf(to) */\n      tag_279\n        /* \"Token_COBAX.sol\":8629:8631  to */\n      dup6\n        /* \"Token_COBAX.sol\":8619:8628  balanceOf */\n      tag_77\n        /* \"Token_COBAX.sol\":8619:8632  balanceOf(to) */\n      jump\t// in\n    tag_279:\n        /* \"Token_COBAX.sol\":8619:8641  balanceOf(to) + amount */\n      tag_280\n      swap2\n      swap1\n      tag_267\n      jump\t// in\n    tag_280:\n        /* \"Token_COBAX.sol\":8619:8659  balanceOf(to) + amount <= _maxWalletSize */\n      gt\n      iszero\n        /* \"Token_COBAX.sol\":8590:8727  require(... */\n      tag_281\n      jumpi\n      mload(0x40)\n      0x08c379a000000000000000000000000000000000000000000000000000000000\n      dup2\n      mstore\n      0x04\n      add\n      tag_282\n      swap1\n      tag_270\n      jump\t// in\n    tag_282:\n      mload(0x40)\n      dup1\n      swap2\n      sub\n      swap1\n      revert\n    tag_281:\n        /* \"Token_COBAX.sol\":8520:8742  if (to != uniswapV2Pair && !_isExcludedFromFee[to]) {... */\n    tag_278:\n        /* \"Token_COBAX.sol\":8766:8779  uniswapV2Pair */\n      0x14\n      0x00\n      swap1\n      sload\n      swap1\n      0x0100\n      exp\n      swap1\n      div\n      0xffffffffffffffffffffffffffffffffffffffff\n      and\n        /* \"Token_COBAX.sol\":8760:8779  to == uniswapV2Pair */\n      0xffffffffffffffffffffffffffffffffffffffff\n      and\n        /* \"Token_COBAX.sol\":8760:8762  to */\n      dup4\n        /* \"Token_COBAX.sol\":8760:8779  to == uniswapV2Pair */\n      0xffffffffffffffffffffffffffffffffffffffff\n      and\n      eq\n        /* \"Token_COBAX.sol\":8760:8804  to == uniswapV2Pair && from != address(this) */\n      dup1\n      iszero\n      tag_283\n      jumpi\n      pop\n        /* \"Token_COBAX.sol\":8799:8803  this */\n      address\n        /* \"Token_COBAX.sol\":8783:8804  from != address(this) */\n      0xffffffffffffffffffffffffffffffffffffffff\n      and\n        /* \"Token_COBAX.sol\":8783:8787  from */\n      dup5\n        /* \"Token_COBAX.sol\":8783:8804  from != address(this) */\n      0xffffffffffffffffffffffffffffffffffffffff\n      and\n      eq\n      iszero\n        /* \"Token_COBAX.sol\":8760:8804  to == uniswapV2Pair && from != address(this) */\n    tag_283:\n        /* \"Token_COBAX.sol\":8756:9080  if (to == uniswapV2Pair && from != address(this)) {... */\n      iszero\n      tag_284\n      jumpi\n        /* \"Token_COBAX.sol\":8836:9065  amount... */\n      tag_285\n        /* \"Token_COBAX.sol\":9061:9064  100 */\n      0x64\n        /* \"Token_COBAX.sol\":8836:9035  amount... */\n      tag_286\n        /* \"Token_COBAX.sol\":8906:8922  _reduceSellTaxAt */\n      sload(0x0c)\n        /* \"Token_COBAX.sol\":8894:8903  _buyCount */\n      sload(0x0e)\n        /* \"Token_COBAX.sol\":8894:8922  _buyCount > _reduceSellTaxAt */\n      gt\n        /* \"Token_COBAX.sol\":8893:9013  (_buyCount > _reduceSellTaxAt)... */\n      tag_287\n      jumpi\n        /* \"Token_COBAX.sol\":8998:9013  _initialSellTax */\n      sload(0x08)\n        /* \"Token_COBAX.sol\":8893:9013  (_buyCount > _reduceSellTaxAt)... */\n      jump(tag_288)\n    tag_287:\n        /* \"Token_COBAX.sol\":8954:8967  _finalSellTax */\n      sload(0x0a)\n        /* \"Token_COBAX.sol\":8893:9013  (_buyCount > _reduceSellTaxAt)... */\n    tag_288:\n        /* \"Token_COBAX.sol\":8836:8842  amount */\n      dup6\n        /* \"Token_COBAX.sol\":8836:8867  amount... */\n      tag_257\n      swap1\n        /* \"Token_COBAX.sol\":8836:9035  amount... */\n      swap2\n      swap1\n      0xffffffff\n      and\n      jump\t// in\n    tag_286:\n        /* \"Token_COBAX.sol\":8836:9060  amount... */\n      tag_258\n      swap1\n        /* \"Token_COBAX.sol\":8836:9065  amount... */\n      swap2\n      swap1\n      0xffffffff\n      and\n      jump\t// in\n    tag_285:\n        /* \"Token_COBAX.sol\":8824:9065  taxAmount = amount... */\n      swap1\n      pop\n        /* \"Token_COBAX.sol\":8756:9080  if (to == uniswapV2Pair && from != address(this)) {... */\n    tag_284:\n        /* \"Token_COBAX.sol\":9094:9122  uint256 contractTokenBalance */\n      0x00\n        /* \"Token_COBAX.sol\":9125:9149  balanceOf(address(this)) */\n      tag_289\n        /* \"Token_COBAX.sol\":9143:9147  this */\n      address\n        /* \"Token_COBAX.sol\":9125:9134  balanceOf */\n      tag_77\n        /* \"Token_COBAX.sol\":9125:9149  balanceOf(address(this)) */\n      jump\t// in\n    tag_289:\n        /* \"Token_COBAX.sol\":9094:9149  uint256 contractTokenBalance = balanceOf(address(this)) */\n      swap1\n      pop\n        /* \"Token_COBAX.sol\":9185:9191  inSwap */\n      0x14\n      0x15\n      swap1\n      sload\n      swap1\n      0x0100\n      exp\n      swap1\n      div\n      0xff\n      and\n        /* \"Token_COBAX.sol\":9184:9191  !inSwap */\n      iszero\n        /* \"Token_COBAX.sol\":9184:9230  !inSwap &&... */\n      dup1\n      iszero\n      tag_290\n      jumpi\n      pop\n        /* \"Token_COBAX.sol\":9217:9230  uniswapV2Pair */\n      0x14\n      0x00\n      swap1\n      sload\n      swap1\n      0x0100\n      exp\n      swap1\n      div\n      0xffffffffffffffffffffffffffffffffffffffff\n      and\n        /* \"Token_COBAX.sol\":9211:9230  to == uniswapV2Pair */\n      0xffffffffffffffffffffffffffffffffffffffff\n      and\n        /* \"Token_COBAX.sol\":9211:9213  to */\n      dup5\n        /* \"Token_COBAX.sol\":9211:9230  to == uniswapV2Pair */\n      0xffffffffffffffffffffffffffffffffffffffff\n      and\n      eq\n        /* \"Token_COBAX.sol\":9184:9230  !inSwap &&... */\n    tag_290:\n        /* \"Token_COBAX.sol\":9184:9261  !inSwap &&... */\n      dup1\n      iszero\n      tag_291\n      jumpi\n      pop\n        /* \"Token_COBAX.sol\":9250:9261  swapEnabled */\n      0x14\n      0x16\n      swap1\n      sload\n      swap1\n      0x0100\n      exp\n      swap1\n      div\n      0xff\n      and\n        /* \"Token_COBAX.sol\":9184:9261  !inSwap &&... */\n    tag_291:\n        /* \"Token_COBAX.sol\":9184:9321  !inSwap &&... */\n      dup1\n      iszero\n      tag_292\n      jumpi\n      pop\n        /* \"Token_COBAX.sol\":9304:9321  _taxSwapThreshold */\n      sload(0x11)\n        /* \"Token_COBAX.sol\":9281:9301  contractTokenBalance */\n      dup2\n        /* \"Token_COBAX.sol\":9281:9321  contractTokenBalance > _taxSwapThreshold */\n      gt\n        /* \"Token_COBAX.sol\":9184:9321  !inSwap &&... */\n    tag_292:\n        /* \"Token_COBAX.sol\":9184:9371  !inSwap &&... */\n      dup1\n      iszero\n      tag_293\n      jumpi\n      pop\n        /* \"Token_COBAX.sol\":9353:9371  _preventSwapBefore */\n      sload(0x0d)\n        /* \"Token_COBAX.sol\":9341:9350  _buyCount */\n      sload(0x0e)\n        /* \"Token_COBAX.sol\":9341:9371  _buyCount > _preventSwapBefore */\n      gt\n        /* \"Token_COBAX.sol\":9184:9371  !inSwap &&... */\n    tag_293:\n        /* \"Token_COBAX.sol\":9163:9715  if (... */\n      iszero\n      tag_294\n      jumpi\n        /* \"Token_COBAX.sol\":9404:9511  swapTokensForEth(... */\n      tag_295\n        /* \"Token_COBAX.sol\":9442:9493  min(amount, min(contractTokenBalance, _maxTaxSwap)) */\n      tag_296\n        /* \"Token_COBAX.sol\":9446:9452  amount */\n      dup5\n        /* \"Token_COBAX.sol\":9454:9492  min(contractTokenBalance, _maxTaxSwap) */\n      tag_297\n        /* \"Token_COBAX.sol\":9458:9478  contractTokenBalance */\n      dup5\n        /* \"Token_COBAX.sol\":9480:9491  _maxTaxSwap */\n      sload(0x12)\n        /* \"Token_COBAX.sol\":9454:9457  min */\n      tag_298\n        /* \"Token_COBAX.sol\":9454:9492  min(contractTokenBalance, _maxTaxSwap) */\n      jump\t// in\n    tag_297:\n        /* \"Token_COBAX.sol\":9442:9445  min */\n      tag_298\n        /* \"Token_COBAX.sol\":9442:9493  min(amount, min(contractTokenBalance, _maxTaxSwap)) */\n      jump\t// in\n    tag_296:\n        /* \"Token_COBAX.sol\":9404:9420  swapTokensForEth */\n      tag_299\n        /* \"Token_COBAX.sol\":9404:9511  swapTokensForEth(... */\n      jump\t// in\n    tag_295:\n        /* \"Token_COBAX.sol\":9529:9555  uint256 contractETHBalance */\n      0x00\n        /* \"Token_COBAX.sol\":9558:9579  address(this).balance */\n      selfbalance\n        /* \"Token_COBAX.sol\":9529:9579  uint256 contractETHBalance = address(this).balance */\n      swap1\n      pop\n        /* \"Token_COBAX.sol\":9622:9623  0 */\n      0x00\n        /* \"Token_COBAX.sol\":9601:9619  contractETHBalance */\n      dup2\n        /* \"Token_COBAX.sol\":9601:9623  contractETHBalance > 0 */\n      gt\n        /* \"Token_COBAX.sol\":9597:9701  if (contractETHBalance > 0) {... */\n      iszero\n      tag_300\n      jumpi\n        /* \"Token_COBAX.sol\":9647:9682  sendETHToFee(address(this).balance) */\n      tag_301\n        /* \"Token_COBAX.sol\":9660:9681  address(this).balance */\n      selfbalance\n        /* \"Token_COBAX.sol\":9647:9659  sendETHToFee */\n      tag_302\n        /* \"Token_COBAX.sol\":9647:9682  sendETHToFee(address(this).balance) */\n      jump\t// in\n    tag_301:\n        /* \"Token_COBAX.sol\":9597:9701  if (contractETHBalance > 0) {... */\n    tag_300:\n        /* \"Token_COBAX.sol\":9386:9715  {... */\n      pop\n        /* \"Token_COBAX.sol\":9163:9715  if (... */\n    tag_294:\n        /* \"Token_COBAX.sol\":7671:9725  {... */\n      pop\n        /* \"Token_COBAX.sol\":7633:9725  if (from != owner() && to != owner()) {... */\n    tag_250:\n        /* \"Token_COBAX.sol\":9751:9752  0 */\n      0x00\n        /* \"Token_COBAX.sol\":9739:9748  taxAmount */\n      dup2\n        /* \"Token_COBAX.sol\":9739:9752  taxAmount > 0 */\n      gt\n        /* \"Token_COBAX.sol\":9735:9904  if (taxAmount > 0) {... */\n      iszero\n      tag_303\n      jumpi\n        /* \"Token_COBAX.sol\":9795:9834  _balances[address(this)].add(taxAmount) */\n      tag_304\n        /* \"Token_COBAX.sol\":9824:9833  taxAmount */\n      dup2\n        /* \"Token_COBAX.sol\":9795:9804  _balances */\n      0x01\n        /* \"Token_COBAX.sol\":9795:9819  _balances[address(this)] */\n      0x00\n        /* \"Token_COBAX.sol\":9813:9817  this */\n      address\n        /* \"Token_COBAX.sol\":9795:9819  _balances[address(this)] */\n      0xffffffffffffffffffffffffffffffffffffffff\n      and\n      0xffffffffffffffffffffffffffffffffffffffff\n      and\n      dup2\n      mstore\n      0x20\n      add\n      swap1\n      dup2\n      mstore\n      0x20\n      add\n      0x00\n      keccak256\n      sload\n        /* \"Token_COBAX.sol\":9795:9823  _balances[address(this)].add */\n      tag_305\n      swap1\n        /* \"Token_COBAX.sol\":9795:9834  _balances[address(this)].add(taxAmount) */\n      swap2\n      swap1\n      0xffffffff\n      and\n      jump\t// in\n    tag_304:\n        /* \"Token_COBAX.sol\":9768:9777  _balances */\n      0x01\n        /* \"Token_COBAX.sol\":9768:9792  _balances[address(this)] */\n      0x00\n        /* \"Token_COBAX.sol\":9786:9790  this */\n      address\n        /* \"Token_COBAX.sol\":9768:9792  _balances[address(this)] */\n      0xffffffffffffffffffffffffffffffffffffffff\n      and\n      0xffffffffffffffffffffffffffffffffffffffff\n      and\n      dup2\n      mstore\n      0x20\n      add\n      swap1\n      dup2\n      mstore\n      0x20\n      add\n      0x00\n      keccak256\n        /* \"Token_COBAX.sol\":9768:9834  _balances[address(this)] = _balances[address(this)].add(taxAmount) */\n      dup2\n      swap1\n      sstore\n      pop\n        /* \"Token_COBAX.sol\":9876:9880  this */\n      address\n        /* \"Token_COBAX.sol\":9853:9893  Transfer(from, address(this), taxAmount) */\n      0xffffffffffffffffffffffffffffffffffffffff\n      and\n        /* \"Token_COBAX.sol\":9862:9866  from */\n      dup5\n        /* \"Token_COBAX.sol\":9853:9893  Transfer(from, address(this), taxAmount) */\n      0xffffffffffffffffffffffffffffffffffffffff\n      and\n      0xddf252ad1be2c89b69c2b068fc378daa952ba7f163c4a11628f55a4df523b3ef\n        /* \"Token_COBAX.sol\":9883:9892  taxAmount */\n      dup4\n        /* \"Token_COBAX.sol\":9853:9893  Transfer(from, address(this), taxAmount) */\n      mload(0x40)\n      tag_306\n      swap2\n      swap1\n      tag_44\n      jump\t// in\n    tag_306:\n      mload(0x40)\n      dup1\n      swap2\n      sub\n      swap1\n      log3\n        /* \"Token_COBAX.sol\":9735:9904  if (taxAmount > 0) {... */\n    tag_303:\n        /* \"Token_COBAX.sol\":9931:9958  _balances[from].sub(amount) */\n      tag_307\n        /* \"Token_COBAX.sol\":9951:9957  amount */\n      dup3\n        /* \"Token_COBAX.sol\":9931:9940  _balances */\n      0x01\n        /* \"Token_COBAX.sol\":9931:9946  _balances[from] */\n      0x00\n        /* \"Token_COBAX.sol\":9941:9945  from */\n      dup8\n        /* \"Token_COBAX.sol\":9931:9946  _balances[from] */\n      0xffffffffffffffffffffffffffffffffffffffff\n      and\n      0xffffffffffffffffffffffffffffffffffffffff\n      and\n      dup2\n      mstore\n      0x20\n      add\n      swap1\n      dup2\n      mstore\n      0x20\n      add\n      0x00\n      keccak256\n      sload\n        /* \"Token_COBAX.sol\":9931:9950  _balances[from].sub */\n      tag_308\n      swap1\n        /* \"Token_COBAX.sol\":9931:9958  _balances[from].sub(amount) */\n      swap2\n      swap1\n      0xffffffff\n      and\n      jump\t// in\n    tag_307:\n        /* \"Token_COBAX.sol\":9913:9922  _balances */\n      0x01\n        /* \"Token_COBAX.sol\":9913:9928  _balances[from] */\n      0x00\n        /* \"Token_COBAX.sol\":9923:9927  from */\n      dup7\n        /* \"Token_COBAX.sol\":9913:9928  _balances[from] */\n      0xffffffffffffffffffffffffffffffffffffffff\n      and\n      0xffffffffffffffffffffffffffffffffffffffff\n      and\n      dup2\n      mstore\n      0x20\n      add\n      swap1\n      dup2\n      mstore\n      0x20\n      add\n      0x00\n      keccak256\n        /* \"Token_COBAX.sol\":9913:9958  _balances[from] = _balances[from].sub(amount) */\n      dup2\n      swap1\n      sstore\n      pop\n        /* \"Token_COBAX.sol\":9984:10024  _balances[to].add(amount.sub(taxAmount)) */\n      tag_309\n        /* \"Token_COBAX.sol\":10002:10023  amount.sub(taxAmount) */\n      tag_310\n        /* \"Token_COBAX.sol\":10013:10022  taxAmount */\n      dup3\n        /* \"Token_COBAX.sol\":10002:10008  amount */\n      dup5\n        /* \"Token_COBAX.sol\":10002:10012  amount.sub */\n      tag_308\n      swap1\n        /* \"Token_COBAX.sol\":10002:10023  amount.sub(taxAmount) */\n      swap2\n      swap1\n      0xffffffff\n      and\n      jump\t// in\n    tag_310:\n        /* \"Token_COBAX.sol\":9984:9993  _balances */\n      0x01\n        /* \"Token_COBAX.sol\":9984:9997  _balances[to] */\n      0x00\n        /* \"Token_COBAX.sol\":9994:9996  to */\n      dup7\n        /* \"Token_COBAX.sol\":9984:9997  _balances[to] */\n      0xffffffffffffffffffffffffffffffffffffffff\n      and\n      0xffffffffffffffffffffffffffffffffffffffff\n      and\n      dup2\n      mstore\n      0x20\n      add\n      swap1\n      dup2\n      mstore\n      0x20\n      add\n      0x00\n      keccak256\n      sload\n        /* \"Token_COBAX.sol\":9984:10001  _balances[to].add */\n      tag_305\n      swap1\n        /* \"Token_COBAX.sol\":9984:10024  _balances[to].add(amount.sub(taxAmount)) */\n      swap2\n      swap1\n      0xffffffff\n      and\n      jump\t// in\n    tag_309:\n        /* \"Token_COBAX.sol\":9968:9977  _balances */\n      0x01\n        /* \"Token_COBAX.sol\":9968:9981  _balances[to] */\n      0x00\n        /* \"Token_COBAX.sol\":9978:9980  to */\n      dup6\n        /* \"Token_COBAX.sol\":9968:9981  _balances[to] */\n      0xffffffffffffffffffffffffffffffffffffffff\n      and\n      0xffffffffffffffffffffffffffffffffffffffff\n      and\n      dup2\n      mstore\n      0x20\n      add\n      swap1\n      dup2\n      mstore\n      0x20\n      add\n      0x00\n      keccak256\n        /* \"Token_COBAX.sol\":9968:10024  _balances[to] = _balances[to].add(amount.sub(taxAmount)) */\n      dup2\n      swap1\n      sstore\n      pop\n        /* \"Token_COBAX.sol\":10054:10056  to */\n      dup3\n        /* \"Token_COBAX.sol\":10039:10080  Transfer(from, to, amount.sub(taxAmount)) */\n      0xffffffffffffffffffffffffffffffffffffffff\n      and\n        /* \"Token_COBAX.sol\":10048:10052  from */\n      dup5\n        /* \"Token_COBAX.sol\":10039:10080  Transfer(from, to, amount.sub(taxAmount)) */\n      0xffffffffffffffffffffffffffffffffffffffff\n      and\n      0xddf252ad1be2c89b69c2b068fc378daa952ba7f163c4a11628f55a4df523b3ef\n        /* \"Token_COBAX.sol\":10058:10079  amount.sub(taxAmount) */\n      tag_311\n        /* \"Token_COBAX.sol\":10069:10078  taxAmount */\n      dup5\n        /* \"Token_COBAX.sol\":10058:10064  amount */\n      dup7\n        /* \"Token_COBAX.sol\":10058:10068  amount.sub */\n      tag_308\n      swap1\n        /* \"Token_COBAX.sol\":10058:10079  amount.sub(taxAmount) */\n      swap2\n      swap1\n      0xffffffff\n      and\n      jump\t// in\n    tag_311:\n        /* \"Token_COBAX.sol\":10039:10080  Transfer(from, to, amount.sub(taxAmount)) */\n      mload(0x40)\n      tag_312\n      swap2\n      swap1\n      tag_44\n      jump\t// in\n    tag_312:\n      mload(0x40)\n      dup1\n      swap2\n      sub\n      swap1\n      log3\n        /* \"Token_COBAX.sol\":7366:10087  {... */\n      pop\n        /* \"Token_COBAX.sol\":7297:10087  function _transfer(address from, address to, uint256 amount) private {... */\n      pop\n      pop\n      pop\n      jump\t// out\n        /* \"Token_COBAX.sol\":1382:1598  function sub(... */\n    tag_139:\n        /* \"Token_COBAX.sol\":1498:1505  uint256 */\n      0x00\n        /* \"Token_COBAX.sol\":1530:1531  a */\n      dup4\n        /* \"Token_COBAX.sol\":1525:1526  b */\n      dup4\n        /* \"Token_COBAX.sol\":1525:1531  b <= a */\n      gt\n      iszero\n        /* \"Token_COBAX.sol\":1533:1545  errorMessage */\n      dup3\n        /* \"Token_COBAX.sol\":1517:1546  require(b <= a, errorMessage) */\n      swap1\n      tag_314\n      jumpi\n      mload(0x40)\n      0x08c379a000000000000000000000000000000000000000000000000000000000\n      dup2\n      mstore\n      0x04\n      add\n      tag_315\n      swap2\n      swap1\n      tag_32\n      jump\t// in\n    tag_315:\n      mload(0x40)\n      dup1\n      swap2\n      sub\n      swap1\n      revert\n    tag_314:\n      pop\n        /* \"Token_COBAX.sol\":1556:1565  uint256 c */\n      0x00\n        /* \"Token_COBAX.sol\":1572:1573  b */\n      dup4\n        /* \"Token_COBAX.sol\":1568:1569  a */\n      dup6\n        /* \"Token_COBAX.sol\":1568:1573  a - b */\n      tag_316\n      swap2\n      swap1\n      tag_317\n      jump\t// in\n    tag_316:\n        /* \"Token_COBAX.sol\":1556:1573  uint256 c = a - b */\n      swap1\n      pop\n        /* \"Token_COBAX.sol\":1590:1591  c */\n      dup1\n        /* \"Token_COBAX.sol\":1583:1591  return c */\n      swap2\n      pop\n      pop\n        /* \"Token_COBAX.sol\":1382:1598  function sub(... */\n      swap4\n      swap3\n      pop\n      pop\n      pop\n      jump\t// out\n        /* \"Token_COBAX.sol\":1604:1843  function mul(uint256 a, uint256 b) internal pure returns (uint256) {... */\n    tag_257:\n        /* \"Token_COBAX.sol\":1662:1669  uint256 */\n      0x00\n        /* \"Token_COBAX.sol\":1690:1691  0 */\n      dup1\n        /* \"Token_COBAX.sol\":1685:1686  a */\n      dup4\n        /* \"Token_COBAX.sol\":1685:1691  a == 0 */\n      sub\n        /* \"Token_COBAX.sol\":1681:1726  if (a == 0) {... */\n      tag_319\n      jumpi\n        /* \"Token_COBAX.sol\":1714:1715  0 */\n      0x00\n        /* \"Token_COBAX.sol\":1707:1715  return 0 */\n      swap1\n      pop\n      jump(tag_318)\n        /* \"Token_COBAX.sol\":1681:1726  if (a == 0) {... */\n    tag_319:\n        /* \"Token_COBAX.sol\":1735:1744  uint256 c */\n      0x00\n        /* \"Token_COBAX.sol\":1751:1752  b */\n      dup3\n        /* \"Token_COBAX.sol\":1747:1748  a */\n      dup5\n        /* \"Token_COBAX.sol\":1747:1752  a * b */\n      tag_320\n      swap2\n      swap1\n      tag_131\n      jump\t// in\n    tag_320:\n        /* \"Token_COBAX.sol\":1735:1752  uint256 c = a * b */\n      swap1\n      pop\n        /* \"Token_COBAX.sol\":1779:1780  b */\n      dup3\n        /* \"Token_COBAX.sol\":1774:1775  a */\n      dup5\n        /* \"Token_COBAX.sol\":1770:1771  c */\n      dup3\n        /* \"Token_COBAX.sol\":1770:1775  c / a */\n      tag_321\n      swap2\n      swap1\n      tag_322\n      jump\t// in\n    tag_321:\n        /* \"Token_COBAX.sol\":1770:1780  c / a == b */\n      eq\n        /* \"Token_COBAX.sol\":1762:1818  require(c / a == b, \"SafeMath: multiplication overflow\") */\n      tag_323\n      jumpi\n      mload(0x40)\n      0x08c379a000000000000000000000000000000000000000000000000000000000\n      dup2\n      mstore\n      0x04\n      add\n      tag_324\n      swap1\n      tag_325\n      jump\t// in\n    tag_324:\n      mload(0x40)\n      dup1\n      swap2\n      sub\n      swap1\n      revert\n    tag_323:\n        /* \"Token_COBAX.sol\":1835:1836  c */\n      dup1\n        /* \"Token_COBAX.sol\":1828:1836  return c */\n      swap2\n      pop\n      pop\n        /* \"Token_COBAX.sol\":1604:1843  function mul(uint256 a, uint256 b) internal pure returns (uint256) {... */\n    tag_318:\n      swap3\n      swap2\n      pop\n      pop\n      jump\t// out\n        /* \"Token_COBAX.sol\":1849:1979  function div(uint256 a, uint256 b) internal pure returns (uint256) {... */\n    tag_258:\n        /* \"Token_COBAX.sol\":1907:1914  uint256 */\n      0x00\n        /* \"Token_COBAX.sol\":1933:1972  div(a, b, \"SafeMath: division by zero\") */\n      tag_327\n        /* \"Token_COBAX.sol\":1937:1938  a */\n      dup4\n        /* \"Token_COBAX.sol\":1940:1941  b */\n      dup4\n        /* \"Token_COBAX.sol\":1933:1972  div(a, b, \"SafeMath: division by zero\") */\n      mload(0x40)\n      dup1\n      0x40\n      add\n      0x40\n      mstore\n      dup1\n      0x1a\n      dup2\n      mstore\n      0x20\n      add\n      0x536166654d6174683a206469766973696f6e206279207a65726f000000000000\n      dup2\n      mstore\n      pop\n        /* \"Token_COBAX.sol\":1933:1936  div */\n      tag_328\n        /* \"Token_COBAX.sol\":1933:1972  div(a, b, \"SafeMath: division by zero\") */\n      jump\t// in\n    tag_327:\n        /* \"Token_COBAX.sol\":1926:1972  return div(a, b, \"SafeMath: division by zero\") */\n      swap1\n      pop\n        /* \"Token_COBAX.sol\":1849:1979  function div(uint256 a, uint256 b) internal pure returns (uint256) {... */\n      swap3\n      swap2\n      pop\n      pop\n      jump\t// out\n        /* \"Token_COBAX.sol\":10204:10393  function isContract(address account) private view returns (bool) {... */\n    tag_274:\n        /* \"Token_COBAX.sol\":10263:10267  bool */\n      0x00\n        /* \"Token_COBAX.sol\":10279:10291  uint256 size */\n      dup1\n        /* \"Token_COBAX.sol\":10344:10351  account */\n      dup3\n        /* \"Token_COBAX.sol\":10332:10352  extcodesize(account) */\n      extcodesize\n        /* \"Token_COBAX.sol\":10324:10352  size := extcodesize(account) */\n      swap1\n      pop\n        /* \"Token_COBAX.sol\":10385:10386  0 */\n      0x00\n        /* \"Token_COBAX.sol\":10378:10382  size */\n      dup2\n        /* \"Token_COBAX.sol\":10378:10386  size > 0 */\n      gt\n        /* \"Token_COBAX.sol\":10371:10386  return size > 0 */\n      swap2\n      pop\n      pop\n        /* \"Token_COBAX.sol\":10204:10393  function isContract(address account) private view returns (bool) {... */\n      swap2\n      swap1\n      pop\n      jump\t// out\n        /* \"Token_COBAX.sol\":10093:10198  function min(uint256 a, uint256 b) private pure returns (uint256) {... */\n    tag_298:\n        /* \"Token_COBAX.sol\":10150:10157  uint256 */\n      0x00\n        /* \"Token_COBAX.sol\":10181:10182  b */\n      dup2\n        /* \"Token_COBAX.sol\":10177:10178  a */\n      dup4\n        /* \"Token_COBAX.sol\":10177:10182  a > b */\n      gt\n        /* \"Token_COBAX.sol\":10176:10191  (a > b) ? b : a */\n      tag_331\n      jumpi\n        /* \"Token_COBAX.sol\":10190:10191  a */\n      dup3\n        /* \"Token_COBAX.sol\":10176:10191  (a > b) ? b : a */\n      jump(tag_332)\n    tag_331:\n        /* \"Token_COBAX.sol\":10186:10187  b */\n      dup2\n        /* \"Token_COBAX.sol\":10176:10191  (a > b) ? b : a */\n    tag_332:\n        /* \"Token_COBAX.sol\":10169:10191  return (a > b) ? b : a */\n      swap1\n      pop\n        /* \"Token_COBAX.sol\":10093:10198  function min(uint256 a, uint256 b) private pure returns (uint256) {... */\n      swap3\n      swap2\n      pop\n      pop\n      jump\t// out\n        /* \"Token_COBAX.sol\":10399:10870  function swapTokensForEth(uint256 tokenAmount) private lockTheSwap {... */\n    tag_299:\n        /* \"Token_COBAX.sol\":5124:5128  true */\n      0x01\n        /* \"Token_COBAX.sol\":5115:5121  inSwap */\n      0x14\n      0x15\n        /* \"Token_COBAX.sol\":5115:5128  inSwap = true */\n      0x0100\n      exp\n      dup2\n      sload\n      dup2\n      0xff\n      mul\n      not\n      and\n      swap1\n      dup4\n      iszero\n      iszero\n      mul\n      or\n      swap1\n      sstore\n      pop\n        /* \"Token_COBAX.sol\":10476:10497  address[] memory path */\n      0x00\n        /* \"Token_COBAX.sol\":10514:10515  2 */\n      0x02\n        /* \"Token_COBAX.sol\":10500:10516  new address[](2) */\n      0xffffffffffffffff\n      dup2\n      gt\n      iszero\n      tag_335\n      jumpi\n      tag_336\n      tag_337\n      jump\t// in\n    tag_336:\n    tag_335:\n      mload(0x40)\n      swap1\n      dup1\n      dup3\n      mstore\n      dup1\n      0x20\n      mul\n      0x20\n      add\n      dup3\n      add\n      0x40\n      mstore\n      dup1\n      iszero\n      tag_338\n      jumpi\n      dup2\n      0x20\n      add\n      0x20\n      dup3\n      mul\n      dup1\n      calldatasize\n      dup4\n      calldatacopy\n      dup1\n      dup3\n      add\n      swap2\n      pop\n      pop\n      swap1\n      pop\n    tag_338:\n      pop\n        /* \"Token_COBAX.sol\":10476:10516  address[] memory path = new address[](2) */\n      swap1\n      pop\n        /* \"Token_COBAX.sol\":10544:10548  this */\n      address\n        /* \"Token_COBAX.sol\":10526:10530  path */\n      dup2\n        /* \"Token_COBAX.sol\":10531:10532  0 */\n      0x00\n        /* \"Token_COBAX.sol\":10526:10533  path[0] */\n      dup2\n      mload\n      dup2\n      lt\n      tag_339\n      jumpi\n      tag_340\n      tag_152\n      jump\t// in\n    tag_340:\n    tag_339:\n      0x20\n      mul\n      0x20\n      add\n      add\n        /* \"Token_COBAX.sol\":10526:10549  path[0] = address(this) */\n      swap1\n      0xffffffffffffffffffffffffffffffffffffffff\n      and\n      swap1\n      dup2\n      0xffffffffffffffffffffffffffffffffffffffff\n      and\n      dup2\n      mstore\n      pop\n      pop\n        /* \"Token_COBAX.sol\":10569:10584  uniswapV2Router */\n      0x13\n      0x00\n      swap1\n      sload\n      swap1\n      0x0100\n      exp\n      swap1\n      div\n      0xffffffffffffffffffffffffffffffffffffffff\n      and\n        /* \"Token_COBAX.sol\":10569:10589  uniswapV2Router.WETH */\n      0xffffffffffffffffffffffffffffffffffffffff\n      and\n      0xad5c4648\n        /* \"Token_COBAX.sol\":10569:10591  uniswapV2Router.WETH() */\n      mload(0x40)\n      dup2\n      0xffffffff\n      and\n      0xe0\n      shl\n      dup2\n      mstore\n      0x04\n      add\n      0x20\n      mload(0x40)\n      dup1\n      dup4\n      sub\n      dup2\n      dup7\n      gas\n      staticcall\n      iszero\n      dup1\n      iszero\n      tag_342\n      jumpi\n      returndatasize\n      0x00\n      dup1\n      returndatacopy\n      revert(0x00, returndatasize)\n    tag_342:\n      pop\n      pop\n      pop\n      pop\n      mload(0x40)\n      returndatasize\n      not(0x1f)\n      0x1f\n      dup3\n      add\n      and\n      dup3\n      add\n      dup1\n      0x40\n      mstore\n      pop\n      dup2\n      add\n      swap1\n      tag_343\n      swap2\n      swap1\n      tag_170\n      jump\t// in\n    tag_343:\n        /* \"Token_COBAX.sol\":10559:10563  path */\n      dup2\n        /* \"Token_COBAX.sol\":10564:10565  1 */\n      0x01\n        /* \"Token_COBAX.sol\":10559:10566  path[1] */\n      dup2\n      mload\n      dup2\n      lt\n      tag_344\n      jumpi\n      tag_345\n      tag_152\n      jump\t// in\n    tag_345:\n    tag_344:\n      0x20\n      mul\n      0x20\n      add\n      add\n        /* \"Token_COBAX.sol\":10559:10591  path[1] = uniswapV2Router.WETH() */\n      swap1\n      0xffffffffffffffffffffffffffffffffffffffff\n      and\n      swap1\n      dup2\n      0xffffffffffffffffffffffffffffffffffffffff\n      and\n      dup2\n      mstore\n      pop\n      pop\n        /* \"Token_COBAX.sol\":10601:10663  _approve(address(this), address(uniswapV2Router), tokenAmount) */\n      tag_346\n        /* \"Token_COBAX.sol\":10618:10622  this */\n      address\n        /* \"Token_COBAX.sol\":10633:10648  uniswapV2Router */\n      0x13\n      0x00\n      swap1\n      sload\n      swap1\n      0x0100\n      exp\n      swap1\n      div\n      0xffffffffffffffffffffffffffffffffffffffff\n      and\n        /* \"Token_COBAX.sol\":10651:10662  tokenAmount */\n      dup5\n        /* \"Token_COBAX.sol\":10601:10609  _approve */\n      tag_126\n        /* \"Token_COBAX.sol\":10601:10663  _approve(address(this), address(uniswapV2Router), tokenAmount) */\n      jump\t// in\n    tag_346:\n        /* \"Token_COBAX.sol\":10673:10688  uniswapV2Router */\n      0x13\n      0x00\n      swap1\n      sload\n      swap1\n      0x0100\n      exp\n      swap1\n      div\n      0xffffffffffffffffffffffffffffffffffffffff\n      and\n        /* \"Token_COBAX.sol\":10673:10739  uniswapV2Router.swapExactTokensForETHSupportingFeeOnTransferTokens */\n      0xffffffffffffffffffffffffffffffffffffffff\n      and\n      0x791ac947\n        /* \"Token_COBAX.sol\":10753:10764  tokenAmount */\n      dup4\n        /* \"Token_COBAX.sol\":10778:10779  0 */\n      0x00\n        /* \"Token_COBAX.sol\":10793:10797  path */\n      dup5\n        /* \"Token_COBAX.sol\":10819:10823  this */\n      address\n        /* \"Token_COBAX.sol\":10838:10853  block.timestamp */\n      timestamp\n        /* \"Token_COBAX.sol\":10673:10863  uniswapV2Router.swapExactTokensForETHSupportingFeeOnTransferTokens(... */\n      mload(0x40)\n      dup7\n      0xffffffff\n      and\n      0xe0\n      shl\n      dup2\n      mstore\n      0x04\n      add\n      tag_347\n      swap6\n      swap5\n      swap4\n      swap3\n      swap2\n      swap1\n      tag_348\n      jump\t// in\n    tag_347:\n      0x00\n      mload(0x40)\n      dup1\n      dup4\n      sub\n      dup2\n      0x00\n      dup8\n      dup1\n      extcodesize\n      iszero\n      dup1\n      iszero\n      tag_349\n      jumpi\n      0x00\n      dup1\n      revert\n    tag_349:\n      pop\n      gas\n      call\n      iszero\n      dup1\n      iszero\n      tag_351\n      jumpi\n      returndatasize\n      0x00\n      dup1\n      returndatacopy\n      revert(0x00, returndatasize)\n    tag_351:\n      pop\n      pop\n      pop\n      pop\n        /* \"Token_COBAX.sol\":10466:10870  {... */\n      pop\n        /* \"Token_COBAX.sol\":5158:5163  false */\n      0x00\n        /* \"Token_COBAX.sol\":5149:5155  inSwap */\n      0x14\n      0x15\n        /* \"Token_COBAX.sol\":5149:5163  inSwap = false */\n      0x0100\n      exp\n      dup2\n      sload\n      dup2\n      0xff\n      mul\n      not\n      and\n      swap1\n      dup4\n      iszero\n      iszero\n      mul\n      or\n      swap1\n      sstore\n      pop\n        /* \"Token_COBAX.sol\":10399:10870  function swapTokensForEth(uint256 tokenAmount) private lockTheSwap {... */\n      pop\n      jump\t// out\n        /* \"Token_COBAX.sol\":11040:11130  function sendETHToFee(uint256 amount) private {... */\n    tag_302:\n        /* \"Token_COBAX.sol\":11096:11106  _taxWallet */\n      0x05\n      0x00\n      swap1\n      sload\n      swap1\n      0x0100\n      exp\n      swap1\n      div\n      0xffffffffffffffffffffffffffffffffffffffff\n      and\n        /* \"Token_COBAX.sol\":11096:11115  _taxWallet.transfer */\n      0xffffffffffffffffffffffffffffffffffffffff\n      and\n        /* \"Token_COBAX.sol\":11096:11123  _taxWallet.transfer(amount) */\n      0x08fc\n        /* \"Token_COBAX.sol\":11116:11122  amount */\n      dup3\n        /* \"Token_COBAX.sol\":11096:11123  _taxWallet.transfer(amount) */\n      swap1\n      dup2\n      iszero\n      mul\n      swap1\n      mload(0x40)\n      0x00\n      mload(0x40)\n      dup1\n      dup4\n      sub\n      dup2\n      dup6\n      dup9\n      dup9\n      call\n      swap4\n      pop\n      pop\n      pop\n      pop\n      iszero\n      dup1\n      iszero\n      tag_354\n      jumpi\n      returndatasize\n      0x00\n      dup1\n      returndatacopy\n      revert(0x00, returndatasize)\n    tag_354:\n      pop\n        /* \"Token_COBAX.sol\":11040:11130  function sendETHToFee(uint256 amount) private {... */\n      pop\n      jump\t// out\n        /* \"Token_COBAX.sol\":1061:1236  function add(uint256 a, uint256 b) internal pure returns (uint256) {... */\n    tag_305:\n        /* \"Token_COBAX.sol\":1119:1126  uint256 */\n      0x00\n        /* \"Token_COBAX.sol\":1138:1147  uint256 c */\n      dup1\n        /* \"Token_COBAX.sol\":1154:1155  b */\n      dup3\n        /* \"Token_COBAX.sol\":1150:1151  a */\n      dup5\n        /* \"Token_COBAX.sol\":1150:1155  a + b */\n      tag_356\n      swap2\n      swap1\n      tag_267\n      jump\t// in\n    tag_356:\n        /* \"Token_COBAX.sol\":1138:1155  uint256 c = a + b */\n      swap1\n      pop\n        /* \"Token_COBAX.sol\":1178:1179  a */\n      dup4\n        /* \"Token_COBAX.sol\":1173:1174  c */\n      dup2\n        /* \"Token_COBAX.sol\":1173:1179  c >= a */\n      lt\n      iszero\n        /* \"Token_COBAX.sol\":1165:1211  require(c >= a, \"SafeMath: addition overflow\") */\n      tag_357\n      jumpi\n      mload(0x40)\n      0x08c379a000000000000000000000000000000000000000000000000000000000\n      dup2\n      mstore\n      0x04\n      add\n      tag_358\n      swap1\n      tag_359\n      jump\t// in\n    tag_358:\n      mload(0x40)\n      dup1\n      swap2\n      sub\n      swap1\n      revert\n    tag_357:\n        /* \"Token_COBAX.sol\":1228:1229  c */\n      dup1\n        /* \"Token_COBAX.sol\":1221:1229  return c */\n      swap2\n      pop\n      pop\n        /* \"Token_COBAX.sol\":1061:1236  function add(uint256 a, uint256 b) internal pure returns (uint256) {... */\n      swap3\n      swap2\n      pop\n      pop\n      jump\t// out\n        /* \"Token_COBAX.sol\":1242:1376  function sub(uint256 a, uint256 b) internal pure returns (uint256) {... */\n    tag_308:\n        /* \"Token_COBAX.sol\":1300:1307  uint256 */\n      0x00\n        /* \"Token_COBAX.sol\":1326:1369  sub(a, b, \"SafeMath: subtraction overflow\") */\n      tag_361\n        /* \"Token_COBAX.sol\":1330:1331  a */\n      dup4\n        /* \"Token_COBAX.sol\":1333:1334  b */\n      dup4\n        /* \"Token_COBAX.sol\":1326:1369  sub(a, b, \"SafeMath: subtraction overflow\") */\n      mload(0x40)\n      dup1\n      0x40\n      add\n      0x40\n      mstore\n      dup1\n      0x1e\n      dup2\n      mstore\n      0x20\n      add\n      0x536166654d6174683a207375627472616374696f6e206f766572666c6f770000\n      dup2\n      mstore\n      pop\n        /* \"Token_COBAX.sol\":1326:1329  sub */\n      tag_139\n        /* \"Token_COBAX.sol\":1326:1369  sub(a, b, \"SafeMath: subtraction overflow\") */\n      jump\t// in\n    tag_361:\n        /* \"Token_COBAX.sol\":1319:1369  return sub(a, b, \"SafeMath: subtraction overflow\") */\n      swap1\n      pop\n        /* \"Token_COBAX.sol\":1242:1376  function sub(uint256 a, uint256 b) internal pure returns (uint256) {... */\n      swap3\n      swap2\n      pop\n      pop\n      jump\t// out\n        /* \"Token_COBAX.sol\":1985:2200  function div(... */\n    tag_328:\n        /* \"Token_COBAX.sol\":2101:2108  uint256 */\n      0x00\n        /* \"Token_COBAX.sol\":2132:2133  0 */\n      dup1\n        /* \"Token_COBAX.sol\":2128:2129  b */\n      dup4\n        /* \"Token_COBAX.sol\":2128:2133  b > 0 */\n      gt\n        /* \"Token_COBAX.sol\":2135:2147  errorMessage */\n      dup3\n        /* \"Token_COBAX.sol\":2120:2148  require(b > 0, errorMessage) */\n      swap1\n      tag_363\n      jumpi\n      mload(0x40)\n      0x08c379a000000000000000000000000000000000000000000000000000000000\n      dup2\n      mstore\n      0x04\n      add\n      tag_364\n      swap2\n      swap1\n      tag_32\n      jump\t// in\n    tag_364:\n      mload(0x40)\n      dup1\n      swap2\n      sub\n      swap1\n      revert\n    tag_363:\n      pop\n        /* \"Token_COBAX.sol\":2158:2167  uint256 c */\n      0x00\n        /* \"Token_COBAX.sol\":2174:2175  b */\n      dup4\n        /* \"Token_COBAX.sol\":2170:2171  a */\n      dup6\n        /* \"Token_COBAX.sol\":2170:2175  a / b */\n      tag_365\n      swap2\n      swap1\n      tag_322\n      jump\t// in\n    tag_365:\n        /* \"Token_COBAX.sol\":2158:2175  uint256 c = a / b */\n      swap1\n      pop\n        /* \"Token_COBAX.sol\":2192:2193  c */\n      dup1\n        /* \"Token_COBAX.sol\":2185:2193  return c */\n      swap2\n      pop\n      pop\n        /* \"Token_COBAX.sol\":1985:2200  function div(... */\n      swap4\n      swap3\n      pop\n      pop\n      pop\n      jump\t// out\n        /* \"#utility.yul\":7:106   */\n    tag_366:\n        /* \"#utility.yul\":59:65   */\n      0x00\n        /* \"#utility.yul\":93:98   */\n      dup2\n        /* \"#utility.yul\":87:99   */\n      mload\n        /* \"#utility.yul\":77:99   */\n      swap1\n      pop\n        /* \"#utility.yul\":7:106   */\n      swap2\n      swap1\n      pop\n      jump\t// out\n        /* \"#utility.yul\":112:281   */\n    tag_367:\n        /* \"#utility.yul\":196:207   */\n      0x00\n        /* \"#utility.yul\":230:236   */\n      dup3\n        /* \"#utility.yul\":225:228   */\n      dup3\n        /* \"#utility.yul\":218:237   */\n      mstore\n        /* \"#utility.yul\":270:274   */\n      0x20\n        /* \"#utility.yul\":265:268   */\n      dup3\n        /* \"#utility.yul\":261:275   */\n      add\n        /* \"#utility.yul\":246:275   */\n      swap1\n      pop\n        /* \"#utility.yul\":112:281   */\n      swap3\n      swap2\n      pop\n      pop\n      jump\t// out\n        /* \"#utility.yul\":287:533   */\n    tag_368:\n        /* \"#utility.yul\":368:369   */\n      0x00\n        /* \"#utility.yul\":378:491   */\n    tag_440:\n        /* \"#utility.yul\":392:398   */\n      dup4\n        /* \"#utility.yul\":389:390   */\n      dup2\n        /* \"#utility.yul\":386:399   */\n      lt\n        /* \"#utility.yul\":378:491   */\n      iszero\n      tag_442\n      jumpi\n        /* \"#utility.yul\":477:478   */\n      dup1\n        /* \"#utility.yul\":472:475   */\n      dup3\n        /* \"#utility.yul\":468:479   */\n      add\n        /* \"#utility.yul\":462:480   */\n      mload\n        /* \"#utility.yul\":458:459   */\n      dup2\n        /* \"#utility.yul\":453:456   */\n      dup5\n        /* \"#utility.yul\":449:460   */\n      add\n        /* \"#utility.yul\":442:481   */\n      mstore\n        /* \"#utility.yul\":414:416   */\n      0x20\n        /* \"#utility.yul\":411:412   */\n      dup2\n        /* \"#utility.yul\":407:417   */\n      add\n        /* \"#utility.yul\":402:417   */\n      swap1\n      pop\n        /* \"#utility.yul\":378:491   */\n      jump(tag_440)\n    tag_442:\n        /* \"#utility.yul\":525:526   */\n      0x00\n        /* \"#utility.yul\":516:522   */\n      dup5\n        /* \"#utility.yul\":511:514   */\n      dup5\n        /* \"#utility.yul\":507:523   */\n      add\n        /* \"#utility.yul\":500:527   */\n      mstore\n        /* \"#utility.yul\":349:533   */\n      pop\n        /* \"#utility.yul\":287:533   */\n      pop\n      pop\n      pop\n      jump\t// out\n        /* \"#utility.yul\":539:641   */\n    tag_369:\n        /* \"#utility.yul\":580:586   */\n      0x00\n        /* \"#utility.yul\":631:633   */\n      0x1f\n        /* \"#utility.yul\":627:634   */\n      not\n        /* \"#utility.yul\":622:624   */\n      0x1f\n        /* \"#utility.yul\":615:620   */\n      dup4\n        /* \"#utility.yul\":611:625   */\n      add\n        /* \"#utility.yul\":607:635   */\n      and\n        /* \"#utility.yul\":597:635   */\n      swap1\n      pop\n        /* \"#utility.yul\":539:641   */\n      swap2\n      swap1\n      pop\n      jump\t// out\n        /* \"#utility.yul\":647:1024   */\n    tag_370:\n        /* \"#utility.yul\":735:738   */\n      0x00\n        /* \"#utility.yul\":763:802   */\n      tag_445\n        /* \"#utility.yul\":796:801   */\n      dup3\n        /* \"#utility.yul\":763:802   */\n      tag_366\n      jump\t// in\n    tag_445:\n        /* \"#utility.yul\":818:889   */\n      tag_446\n        /* \"#utility.yul\":882:888   */\n      dup2\n        /* \"#utility.yul\":877:880   */\n      dup6\n        /* \"#utility.yul\":818:889   */\n      tag_367\n      jump\t// in\n    tag_446:\n        /* \"#utility.yul\":811:889   */\n      swap4\n      pop\n        /* \"#utility.yul\":898:963   */\n      tag_447\n        /* \"#utility.yul\":956:962   */\n      dup2\n        /* \"#utility.yul\":951:954   */\n      dup6\n        /* \"#utility.yul\":944:948   */\n      0x20\n        /* \"#utility.yul\":937:942   */\n      dup7\n        /* \"#utility.yul\":933:949   */\n      add\n        /* \"#utility.yul\":898:963   */\n      tag_368\n      jump\t// in\n    tag_447:\n        /* \"#utility.yul\":988:1017   */\n      tag_448\n        /* \"#utility.yul\":1010:1016   */\n      dup2\n        /* \"#utility.yul\":988:1017   */\n      tag_369\n      jump\t// in\n    tag_448:\n        /* \"#utility.yul\":983:986   */\n      dup5\n        /* \"#utility.yul\":979:1018   */\n      add\n        /* \"#utility.yul\":972:1018   */\n      swap2\n      pop\n        /* \"#utility.yul\":739:1024   */\n      pop\n        /* \"#utility.yul\":647:1024   */\n      swap3\n      swap2\n      pop\n      pop\n      jump\t// out\n        /* \"#utility.yul\":1030:1343   */\n    tag_32:\n        /* \"#utility.yul\":1143:1147   */\n      0x00\n        /* \"#utility.yul\":1181:1183   */\n      0x20\n        /* \"#utility.yul\":1170:1179   */\n      dup3\n        /* \"#utility.yul\":1166:1184   */\n      add\n        /* \"#utility.yul\":1158:1184   */\n      swap1\n      pop\n        /* \"#utility.yul\":1230:1239   */\n      dup2\n        /* \"#utility.yul\":1224:1228   */\n      dup2\n        /* \"#utility.yul\":1220:1240   */\n      sub\n        /* \"#utility.yul\":1216:1217   */\n      0x00\n        /* \"#utility.yul\":1205:1214   */\n      dup4\n        /* \"#utility.yul\":1201:1218   */\n      add\n        /* \"#utility.yul\":1194:1241   */\n      mstore\n        /* \"#utility.yul\":1258:1336   */\n      tag_450\n        /* \"#utility.yul\":1331:1335   */\n      dup2\n        /* \"#utility.yul\":1322:1328   */\n      dup5\n        /* \"#utility.yul\":1258:1336   */\n      tag_370\n      jump\t// in\n    tag_450:\n        /* \"#utility.yul\":1250:1336   */\n      swap1\n      pop\n        /* \"#utility.yul\":1030:1343   */\n      swap3\n      swap2\n      pop\n      pop\n      jump\t// out\n        /* \"#utility.yul\":1349:1424   */\n    tag_371:\n        /* \"#utility.yul\":1382:1388   */\n      0x00\n        /* \"#utility.yul\":1415:1417   */\n      0x40\n        /* \"#utility.yul\":1409:1418   */\n      mload\n        /* \"#utility.yul\":1399:1418   */\n      swap1\n      pop\n        /* \"#utility.yul\":1349:1424   */\n      swap1\n      jump\t// out\n        /* \"#utility.yul\":1430:1547   */\n    tag_372:\n        /* \"#utility.yul\":1539:1540   */\n      0x00\n        /* \"#utility.yul\":1536:1537   */\n      dup1\n        /* \"#utility.yul\":1529:1541   */\n      revert\n        /* \"#utility.yul\":1553:1670   */\n    tag_373:\n        /* \"#utility.yul\":1662:1663   */\n      0x00\n        /* \"#utility.yul\":1659:1660   */\n      dup1\n        /* \"#utility.yul\":1652:1664   */\n      revert\n        /* \"#utility.yul\":1676:1802   */\n    tag_374:\n        /* \"#utility.yul\":1713:1720   */\n      0x00\n        /* \"#utility.yul\":1753:1795   */\n      0xffffffffffffffffffffffffffffffffffffffff\n        /* \"#utility.yul\":1746:1751   */\n      dup3\n        /* \"#utility.yul\":1742:1796   */\n      and\n        /* \"#utility.yul\":1731:1796   */\n      swap1\n      pop\n        /* \"#utility.yul\":1676:1802   */\n      swap2\n      swap1\n      pop\n      jump\t// out\n        /* \"#utility.yul\":1808:1904   */\n    tag_375:\n        /* \"#utility.yul\":1845:1852   */\n      0x00\n        /* \"#utility.yul\":1874:1898   */\n      tag_456\n        /* \"#utility.yul\":1892:1897   */\n      dup3\n        /* \"#utility.yul\":1874:1898   */\n      tag_374\n      jump\t// in\n    tag_456:\n        /* \"#utility.yul\":1863:1898   */\n      swap1\n      pop\n        /* \"#utility.yul\":1808:1904   */\n      swap2\n      swap1\n      pop\n      jump\t// out\n        /* \"#utility.yul\":1910:2032   */\n    tag_376:\n        /* \"#utility.yul\":1983:2007   */\n      tag_458\n        /* \"#utility.yul\":2001:2006   */\n      dup2\n        /* \"#utility.yul\":1983:2007   */\n      tag_375\n      jump\t// in\n    tag_458:\n        /* \"#utility.yul\":1976:1981   */\n      dup2\n        /* \"#utility.yul\":1973:2008   */\n      eq\n        /* \"#utility.yul\":1963:2026   */\n      tag_459\n      jumpi\n        /* \"#utility.yul\":2022:2023   */\n      0x00\n        /* \"#utility.yul\":2019:2020   */\n      dup1\n        /* \"#utility.yul\":2012:2024   */\n      revert\n        /* \"#utility.yul\":1963:2026   */\n    tag_459:\n        /* \"#utility.yul\":1910:2032   */\n      pop\n      jump\t// out\n        /* \"#utility.yul\":2038:2177   */\n    tag_377:\n        /* \"#utility.yul\":2084:2089   */\n      0x00\n        /* \"#utility.yul\":2122:2128   */\n      dup2\n        /* \"#utility.yul\":2109:2129   */\n      calldataload\n        /* \"#utility.yul\":2100:2129   */\n      swap1\n      pop\n        /* \"#utility.yul\":2138:2171   */\n      tag_461\n        /* \"#utility.yul\":2165:2170   */\n      dup2\n        /* \"#utility.yul\":2138:2171   */\n      tag_376\n      jump\t// in\n    tag_461:\n        /* \"#utility.yul\":2038:2177   */\n      swap3\n      swap2\n      pop\n      pop\n      jump\t// out\n        /* \"#utility.yul\":2183:2260   */\n    tag_378:\n        /* \"#utility.yul\":2220:2227   */\n      0x00\n        /* \"#utility.yul\":2249:2254   */\n      dup2\n        /* \"#utility.yul\":2238:2254   */\n      swap1\n      pop\n        /* \"#utility.yul\":2183:2260   */\n      swap2\n      swap1\n      pop\n      jump\t// out\n        /* \"#utility.yul\":2266:2388   */\n    tag_379:\n        /* \"#utility.yul\":2339:2363   */\n      tag_464\n        /* \"#utility.yul\":2357:2362   */\n      dup2\n        /* \"#utility.yul\":2339:2363   */\n      tag_378\n      jump\t// in\n    tag_464:\n        /* \"#utility.yul\":2332:2337   */\n      dup2\n        /* \"#utility.yul\":2329:2364   */\n      eq\n        /* \"#utility.yul\":2319:2382   */\n      tag_465\n      jumpi\n        /* \"#utility.yul\":2378:2379   */\n      0x00\n        /* \"#utility.yul\":2375:2376   */\n      dup1\n        /* \"#utility.yul\":2368:2380   */\n      revert\n        /* \"#utility.yul\":2319:2382   */\n    tag_465:\n        /* \"#utility.yul\":2266:2388   */\n      pop\n      jump\t// out\n        /* \"#utility.yul\":2394:2533   */\n    tag_380:\n        /* \"#utility.yul\":2440:2445   */\n      0x00\n        /* \"#utility.yul\":2478:2484   */\n      dup2\n        /* \"#utility.yul\":2465:2485   */\n      calldataload\n        /* \"#utility.yul\":2456:2485   */\n      swap1\n      pop\n        /* \"#utility.yul\":2494:2527   */\n      tag_467\n        /* \"#utility.yul\":2521:2526   */\n      dup2\n        /* \"#utility.yul\":2494:2527   */\n      tag_379\n      jump\t// in\n    tag_467:\n        /* \"#utility.yul\":2394:2533   */\n      swap3\n      swap2\n      pop\n      pop\n      jump\t// out\n        /* \"#utility.yul\":2539:3013   */\n    tag_36:\n        /* \"#utility.yul\":2607:2613   */\n      0x00\n        /* \"#utility.yul\":2615:2621   */\n      dup1\n        /* \"#utility.yul\":2664:2666   */\n      0x40\n        /* \"#utility.yul\":2652:2661   */\n      dup4\n        /* \"#utility.yul\":2643:2650   */\n      dup6\n        /* \"#utility.yul\":2639:2662   */\n      sub\n        /* \"#utility.yul\":2635:2667   */\n      slt\n        /* \"#utility.yul\":2632:2751   */\n      iszero\n      tag_469\n      jumpi\n        /* \"#utility.yul\":2670:2749   */\n      tag_470\n      tag_372\n      jump\t// in\n    tag_470:\n        /* \"#utility.yul\":2632:2751   */\n    tag_469:\n        /* \"#utility.yul\":2790:2791   */\n      0x00\n        /* \"#utility.yul\":2815:2868   */\n      tag_471\n        /* \"#utility.yul\":2860:2867   */\n      dup6\n        /* \"#utility.yul\":2851:2857   */\n      dup3\n        /* \"#utility.yul\":2840:2849   */\n      dup7\n        /* \"#utility.yul\":2836:2858   */\n      add\n        /* \"#utility.yul\":2815:2868   */\n      tag_377\n      jump\t// in\n    tag_471:\n        /* \"#utility.yul\":2805:2868   */\n      swap3\n      pop\n        /* \"#utility.yul\":2761:2878   */\n      pop\n        /* \"#utility.yul\":2917:2919   */\n      0x20\n        /* \"#utility.yul\":2943:2996   */\n      tag_472\n        /* \"#utility.yul\":2988:2995   */\n      dup6\n        /* \"#utility.yul\":2979:2985   */\n      dup3\n        /* \"#utility.yul\":2968:2977   */\n      dup7\n        /* \"#utility.yul\":2964:2986   */\n      add\n        /* \"#utility.yul\":2943:2996   */\n      tag_380\n      jump\t// in\n    tag_472:\n        /* \"#utility.yul\":2933:2996   */\n      swap2\n      pop\n        /* \"#utility.yul\":2888:3006   */\n      pop\n        /* \"#utility.yul\":2539:3013   */\n      swap3\n      pop\n      swap3\n      swap1\n      pop\n      jump\t// out\n        /* \"#utility.yul\":3019:3109   */\n    tag_381:\n        /* \"#utility.yul\":3053:3060   */\n      0x00\n        /* \"#utility.yul\":3096:3101   */\n      dup2\n        /* \"#utility.yul\":3089:3102   */\n      iszero\n        /* \"#utility.yul\":3082:3103   */\n      iszero\n        /* \"#utility.yul\":3071:3103   */\n      swap1\n      pop\n        /* \"#utility.yul\":3019:3109   */\n      swap2\n      swap1\n      pop\n      jump\t// out\n        /* \"#utility.yul\":3115:3224   */\n    tag_382:\n        /* \"#utility.yul\":3196:3217   */\n      tag_475\n        /* \"#utility.yul\":3211:3216   */\n      dup2\n        /* \"#utility.yul\":3196:3217   */\n      tag_381\n      jump\t// in\n    tag_475:\n        /* \"#utility.yul\":3191:3194   */\n      dup3\n        /* \"#utility.yul\":3184:3218   */\n      mstore\n        /* \"#utility.yul\":3115:3224   */\n      pop\n      pop\n      jump\t// out\n        /* \"#utility.yul\":3230:3440   */\n    tag_39:\n        /* \"#utility.yul\":3317:3321   */\n      0x00\n        /* \"#utility.yul\":3355:3357   */\n      0x20\n        /* \"#utility.yul\":3344:3353   */\n      dup3\n        /* \"#utility.yul\":3340:3358   */\n      add\n        /* \"#utility.yul\":3332:3358   */\n      swap1\n      pop\n        /* \"#utility.yul\":3368:3433   */\n      tag_477\n        /* \"#utility.yul\":3430:3431   */\n      0x00\n        /* \"#utility.yul\":3419:3428   */\n      dup4\n        /* \"#utility.yul\":3415:3432   */\n      add\n        /* \"#utility.yul\":3406:3412   */\n      dup5\n        /* \"#utility.yul\":3368:3433   */\n      tag_382\n      jump\t// in\n    tag_477:\n        /* \"#utility.yul\":3230:3440   */\n      swap3\n      swap2\n      pop\n      pop\n      jump\t// out\n        /* \"#utility.yul\":3446:3564   */\n    tag_383:\n        /* \"#utility.yul\":3533:3557   */\n      tag_479\n        /* \"#utility.yul\":3551:3556   */\n      dup2\n        /* \"#utility.yul\":3533:3557   */\n      tag_378\n      jump\t// in\n    tag_479:\n        /* \"#utility.yul\":3528:3531   */\n      dup3\n        /* \"#utility.yul\":3521:3558   */\n      mstore\n        /* \"#utility.yul\":3446:3564   */\n      pop\n      pop\n      jump\t// out\n        /* \"#utility.yul\":3570:3792   */\n    tag_44:\n        /* \"#utility.yul\":3663:3667   */\n      0x00\n        /* \"#utility.yul\":3701:3703   */\n      0x20\n        /* \"#utility.yul\":3690:3699   */\n      dup3\n        /* \"#utility.yul\":3686:3704   */\n      add\n        /* \"#utility.yul\":3678:3704   */\n      swap1\n      pop\n        /* \"#utility.yul\":3714:3785   */\n      tag_481\n        /* \"#utility.yul\":3782:3783   */\n      0x00\n        /* \"#utility.yul\":3771:3780   */\n      dup4\n        /* \"#utility.yul\":3767:3784   */\n      add\n        /* \"#utility.yul\":3758:3764   */\n      dup5\n        /* \"#utility.yul\":3714:3785   */\n      tag_383\n      jump\t// in\n    tag_481:\n        /* \"#utility.yul\":3570:3792   */\n      swap3\n      swap2\n      pop\n      pop\n      jump\t// out\n        /* \"#utility.yul\":3798:4417   */\n    tag_52:\n        /* \"#utility.yul\":3875:3881   */\n      0x00\n        /* \"#utility.yul\":3883:3889   */\n      dup1\n        /* \"#utility.yul\":3891:3897   */\n      0x00\n        /* \"#utility.yul\":3940:3942   */\n      0x60\n        /* \"#utility.yul\":3928:3937   */\n      dup5\n        /* \"#utility.yul\":3919:3926   */\n      dup7\n        /* \"#utility.yul\":3915:3938   */\n      sub\n        /* \"#utility.yul\":3911:3943   */\n      slt\n        /* \"#utility.yul\":3908:4027   */\n      iszero\n      tag_483\n      jumpi\n        /* \"#utility.yul\":3946:4025   */\n      tag_484\n      tag_372\n      jump\t// in\n    tag_484:\n        /* \"#utility.yul\":3908:4027   */\n    tag_483:\n        /* \"#utility.yul\":4066:4067   */\n      0x00\n        /* \"#utility.yul\":4091:4144   */\n      tag_485\n        /* \"#utility.yul\":4136:4143   */\n      dup7\n        /* \"#utility.yul\":4127:4133   */\n      dup3\n        /* \"#utility.yul\":4116:4125   */\n      dup8\n        /* \"#utility.yul\":4112:4134   */\n      add\n        /* \"#utility.yul\":4091:4144   */\n      tag_377\n      jump\t// in\n    tag_485:\n        /* \"#utility.yul\":4081:4144   */\n      swap4\n      pop\n        /* \"#utility.yul\":4037:4154   */\n      pop\n        /* \"#utility.yul\":4193:4195   */\n      0x20\n        /* \"#utility.yul\":4219:4272   */\n      tag_486\n        /* \"#utility.yul\":4264:4271   */\n      dup7\n        /* \"#utility.yul\":4255:4261   */\n      dup3\n        /* \"#utility.yul\":4244:4253   */\n      dup8\n        /* \"#utility.yul\":4240:4262   */\n      add\n        /* \"#utility.yul\":4219:4272   */\n      tag_377\n      jump\t// in\n    tag_486:\n        /* \"#utility.yul\":4209:4272   */\n      swap3\n      pop\n        /* \"#utility.yul\":4164:4282   */\n      pop\n        /* \"#utility.yul\":4321:4323   */\n      0x40\n        /* \"#utility.yul\":4347:4400   */\n      tag_487\n        /* \"#utility.yul\":4392:4399   */\n      dup7\n        /* \"#utility.yul\":4383:4389   */\n      dup3\n        /* \"#utility.yul\":4372:4381   */\n      dup8\n        /* \"#utility.yul\":4368:4390   */\n      add\n        /* \"#utility.yul\":4347:4400   */\n      tag_380\n      jump\t// in\n    tag_487:\n        /* \"#utility.yul\":4337:4400   */\n      swap2\n      pop\n        /* \"#utility.yul\":4292:4410   */\n      pop\n        /* \"#utility.yul\":3798:4417   */\n      swap3\n      pop\n      swap3\n      pop\n      swap3\n      jump\t// out\n        /* \"#utility.yul\":4423:4509   */\n    tag_384:\n        /* \"#utility.yul\":4458:4465   */\n      0x00\n        /* \"#utility.yul\":4498:4502   */\n      0xff\n        /* \"#utility.yul\":4491:4496   */\n      dup3\n        /* \"#utility.yul\":4487:4503   */\n      and\n        /* \"#utility.yul\":4476:4503   */\n      swap1\n      pop\n        /* \"#utility.yul\":4423:4509   */\n      swap2\n      swap1\n      pop\n      jump\t// out\n        /* \"#utility.yul\":4515:4627   */\n    tag_385:\n        /* \"#utility.yul\":4598:4620   */\n      tag_490\n        /* \"#utility.yul\":4614:4619   */\n      dup2\n        /* \"#utility.yul\":4598:4620   */\n      tag_384\n      jump\t// in\n    tag_490:\n        /* \"#utility.yul\":4593:4596   */\n      dup3\n        /* \"#utility.yul\":4586:4621   */\n      mstore\n        /* \"#utility.yul\":4515:4627   */\n      pop\n      pop\n      jump\t// out\n        /* \"#utility.yul\":4633:4847   */\n    tag_59:\n        /* \"#utility.yul\":4722:4726   */\n      0x00\n        /* \"#utility.yul\":4760:4762   */\n      0x20\n        /* \"#utility.yul\":4749:4758   */\n      dup3\n        /* \"#utility.yul\":4745:4763   */\n      add\n        /* \"#utility.yul\":4737:4763   */\n      swap1\n      pop\n        /* \"#utility.yul\":4773:4840   */\n      tag_492\n        /* \"#utility.yul\":4837:4838   */\n      0x00\n        /* \"#utility.yul\":4826:4835   */\n      dup4\n        /* \"#utility.yul\":4822:4839   */\n      add\n        /* \"#utility.yul\":4813:4819   */\n      dup5\n        /* \"#utility.yul\":4773:4840   */\n      tag_385\n      jump\t// in\n    tag_492:\n        /* \"#utility.yul\":4633:4847   */\n      swap3\n      swap2\n      pop\n      pop\n      jump\t// out\n        /* \"#utility.yul\":4853:4970   */\n    tag_386:\n        /* \"#utility.yul\":4962:4963   */\n      0x00\n        /* \"#utility.yul\":4959:4960   */\n      dup1\n        /* \"#utility.yul\":4952:4964   */\n      revert\n        /* \"#utility.yul\":4976:5156   */\n    tag_337:\n        /* \"#utility.yul\":5024:5101   */\n      0x4e487b7100000000000000000000000000000000000000000000000000000000\n        /* \"#utility.yul\":5021:5022   */\n      0x00\n        /* \"#utility.yul\":5014:5102   */\n      mstore\n        /* \"#utility.yul\":5121:5125   */\n      0x41\n        /* \"#utility.yul\":5118:5119   */\n      0x04\n        /* \"#utility.yul\":5111:5126   */\n      mstore\n        /* \"#utility.yul\":5145:5149   */\n      0x24\n        /* \"#utility.yul\":5142:5143   */\n      0x00\n        /* \"#utility.yul\":5135:5150   */\n      revert\n        /* \"#utility.yul\":5162:5443   */\n    tag_387:\n        /* \"#utility.yul\":5245:5272   */\n      tag_496\n        /* \"#utility.yul\":5267:5271   */\n      dup3\n        /* \"#utility.yul\":5245:5272   */\n      tag_369\n      jump\t// in\n    tag_496:\n        /* \"#utility.yul\":5237:5243   */\n      dup2\n        /* \"#utility.yul\":5233:5273   */\n      add\n        /* \"#utility.yul\":5375:5381   */\n      dup2\n        /* \"#utility.yul\":5363:5373   */\n      dup2\n        /* \"#utility.yul\":5360:5382   */\n      lt\n        /* \"#utility.yul\":5339:5357   */\n      0xffffffffffffffff\n        /* \"#utility.yul\":5327:5337   */\n      dup3\n        /* \"#utility.yul\":5324:5358   */\n      gt\n        /* \"#utility.yul\":5321:5383   */\n      or\n        /* \"#utility.yul\":5318:5406   */\n      iszero\n      tag_497\n      jumpi\n        /* \"#utility.yul\":5386:5404   */\n      tag_498\n      tag_337\n      jump\t// in\n    tag_498:\n        /* \"#utility.yul\":5318:5406   */\n    tag_497:\n        /* \"#utility.yul\":5426:5436   */\n      dup1\n        /* \"#utility.yul\":5422:5424   */\n      0x40\n        /* \"#utility.yul\":5415:5437   */\n      mstore\n        /* \"#utility.yul\":5205:5443   */\n      pop\n        /* \"#utility.yul\":5162:5443   */\n      pop\n      pop\n      jump\t// out\n        /* \"#utility.yul\":5449:5578   */\n    tag_388:\n        /* \"#utility.yul\":5483:5489   */\n      0x00\n        /* \"#utility.yul\":5510:5530   */\n      tag_500\n      tag_371\n      jump\t// in\n    tag_500:\n        /* \"#utility.yul\":5500:5530   */\n      swap1\n      pop\n        /* \"#utility.yul\":5539:5572   */\n      tag_501\n        /* \"#utility.yul\":5567:5571   */\n      dup3\n        /* \"#utility.yul\":5559:5565   */\n      dup3\n        /* \"#utility.yul\":5539:5572   */\n      tag_387\n      jump\t// in\n    tag_501:\n        /* \"#utility.yul\":5449:5578   */\n      swap2\n      swap1\n      pop\n      jump\t// out\n        /* \"#utility.yul\":5584:5895   */\n    tag_389:\n        /* \"#utility.yul\":5661:5665   */\n      0x00\n        /* \"#utility.yul\":5751:5769   */\n      0xffffffffffffffff\n        /* \"#utility.yul\":5743:5749   */\n      dup3\n        /* \"#utility.yul\":5740:5770   */\n      gt\n        /* \"#utility.yul\":5737:5793   */\n      iszero\n      tag_503\n      jumpi\n        /* \"#utility.yul\":5773:5791   */\n      tag_504\n      tag_337\n      jump\t// in\n    tag_504:\n        /* \"#utility.yul\":5737:5793   */\n    tag_503:\n        /* \"#utility.yul\":5823:5827   */\n      0x20\n        /* \"#utility.yul\":5815:5821   */\n      dup3\n        /* \"#utility.yul\":5811:5828   */\n      mul\n        /* \"#utility.yul\":5803:5828   */\n      swap1\n      pop\n        /* \"#utility.yul\":5883:5887   */\n      0x20\n        /* \"#utility.yul\":5877:5881   */\n      dup2\n        /* \"#utility.yul\":5873:5888   */\n      add\n        /* \"#utility.yul\":5865:5888   */\n      swap1\n      pop\n        /* \"#utility.yul\":5584:5895   */\n      swap2\n      swap1\n      pop\n      jump\t// out\n        /* \"#utility.yul\":5901:6018   */\n    tag_390:\n        /* \"#utility.yul\":6010:6011   */\n      0x00\n        /* \"#utility.yul\":6007:6008   */\n      dup1\n        /* \"#utility.yul\":6000:6012   */\n      revert\n        /* \"#utility.yul\":6041:6751   */\n    tag_391:\n        /* \"#utility.yul\":6137:6142   */\n      0x00\n        /* \"#utility.yul\":6162:6243   */\n      tag_507\n        /* \"#utility.yul\":6178:6242   */\n      tag_508\n        /* \"#utility.yul\":6235:6241   */\n      dup5\n        /* \"#utility.yul\":6178:6242   */\n      tag_389\n      jump\t// in\n    tag_508:\n        /* \"#utility.yul\":6162:6243   */\n      tag_388\n      jump\t// in\n    tag_507:\n        /* \"#utility.yul\":6153:6243   */\n      swap1\n      pop\n        /* \"#utility.yul\":6263:6268   */\n      dup1\n        /* \"#utility.yul\":6292:6298   */\n      dup4\n        /* \"#utility.yul\":6285:6290   */\n      dup3\n        /* \"#utility.yul\":6278:6299   */\n      mstore\n        /* \"#utility.yul\":6326:6330   */\n      0x20\n        /* \"#utility.yul\":6319:6324   */\n      dup3\n        /* \"#utility.yul\":6315:6331   */\n      add\n        /* \"#utility.yul\":6308:6331   */\n      swap1\n      pop\n        /* \"#utility.yul\":6379:6383   */\n      0x20\n        /* \"#utility.yul\":6371:6377   */\n      dup5\n        /* \"#utility.yul\":6367:6384   */\n      mul\n        /* \"#utility.yul\":6359:6365   */\n      dup4\n        /* \"#utility.yul\":6355:6385   */\n      add\n        /* \"#utility.yul\":6408:6411   */\n      dup6\n        /* \"#utility.yul\":6400:6406   */\n      dup2\n        /* \"#utility.yul\":6397:6412   */\n      gt\n        /* \"#utility.yul\":6394:6516   */\n      iszero\n      tag_509\n      jumpi\n        /* \"#utility.yul\":6427:6506   */\n      tag_510\n      tag_390\n      jump\t// in\n    tag_510:\n        /* \"#utility.yul\":6394:6516   */\n    tag_509:\n        /* \"#utility.yul\":6542:6548   */\n      dup4\n        /* \"#utility.yul\":6525:6745   */\n    tag_511:\n        /* \"#utility.yul\":6559:6565   */\n      dup2\n        /* \"#utility.yul\":6554:6557   */\n      dup2\n        /* \"#utility.yul\":6551:6566   */\n      lt\n        /* \"#utility.yul\":6525:6745   */\n      iszero\n      tag_513\n      jumpi\n        /* \"#utility.yul\":6634:6637   */\n      dup1\n        /* \"#utility.yul\":6663:6700   */\n      tag_514\n        /* \"#utility.yul\":6696:6699   */\n      dup9\n        /* \"#utility.yul\":6684:6694   */\n      dup3\n        /* \"#utility.yul\":6663:6700   */\n      tag_377\n      jump\t// in\n    tag_514:\n        /* \"#utility.yul\":6658:6661   */\n      dup5\n        /* \"#utility.yul\":6651:6701   */\n      mstore\n        /* \"#utility.yul\":6730:6734   */\n      0x20\n        /* \"#utility.yul\":6725:6728   */\n      dup5\n        /* \"#utility.yul\":6721:6735   */\n      add\n        /* \"#utility.yul\":6714:6735   */\n      swap4\n      pop\n        /* \"#utility.yul\":6601:6745   */\n      pop\n        /* \"#utility.yul\":6585:6589   */\n      0x20\n        /* \"#utility.yul\":6580:6583   */\n      dup2\n        /* \"#utility.yul\":6576:6590   */\n      add\n        /* \"#utility.yul\":6569:6590   */\n      swap1\n      pop\n        /* \"#utility.yul\":6525:6745   */\n      jump(tag_511)\n    tag_513:\n        /* \"#utility.yul\":6529:6550   */\n      pop\n        /* \"#utility.yul\":6143:6751   */\n      pop\n      pop\n        /* \"#utility.yul\":6041:6751   */\n      swap4\n      swap3\n      pop\n      pop\n      pop\n      jump\t// out\n        /* \"#utility.yul\":6774:7144   */\n    tag_392:\n        /* \"#utility.yul\":6845:6850   */\n      0x00\n        /* \"#utility.yul\":6894:6897   */\n      dup3\n        /* \"#utility.yul\":6887:6891   */\n      0x1f\n        /* \"#utility.yul\":6879:6885   */\n      dup4\n        /* \"#utility.yul\":6875:6892   */\n      add\n        /* \"#utility.yul\":6871:6898   */\n      slt\n        /* \"#utility.yul\":6861:6983   */\n      tag_516\n      jumpi\n        /* \"#utility.yul\":6902:6981   */\n      tag_517\n      tag_386\n      jump\t// in\n    tag_517:\n        /* \"#utility.yul\":6861:6983   */\n    tag_516:\n        /* \"#utility.yul\":7019:7025   */\n      dup2\n        /* \"#utility.yul\":7006:7026   */\n      calldataload\n        /* \"#utility.yul\":7044:7138   */\n      tag_518\n        /* \"#utility.yul\":7134:7137   */\n      dup5\n        /* \"#utility.yul\":7126:7132   */\n      dup3\n        /* \"#utility.yul\":7119:7123   */\n      0x20\n        /* \"#utility.yul\":7111:7117   */\n      dup7\n        /* \"#utility.yul\":7107:7124   */\n      add\n        /* \"#utility.yul\":7044:7138   */\n      tag_391\n      jump\t// in\n    tag_518:\n        /* \"#utility.yul\":7035:7138   */\n      swap2\n      pop\n        /* \"#utility.yul\":6851:7144   */\n      pop\n        /* \"#utility.yul\":6774:7144   */\n      swap3\n      swap2\n      pop\n      pop\n      jump\t// out\n        /* \"#utility.yul\":7150:7689   */\n    tag_63:\n        /* \"#utility.yul\":7234:7240   */\n      0x00\n        /* \"#utility.yul\":7283:7285   */\n      0x20\n        /* \"#utility.yul\":7271:7280   */\n      dup3\n        /* \"#utility.yul\":7262:7269   */\n      dup5\n        /* \"#utility.yul\":7258:7281   */\n      sub\n        /* \"#utility.yul\":7254:7286   */\n      slt\n        /* \"#utility.yul\":7251:7370   */\n      iszero\n      tag_520\n      jumpi\n        /* \"#utility.yul\":7289:7368   */\n      tag_521\n      tag_372\n      jump\t// in\n    tag_521:\n        /* \"#utility.yul\":7251:7370   */\n    tag_520:\n        /* \"#utility.yul\":7437:7438   */\n      0x00\n        /* \"#utility.yul\":7426:7435   */\n      dup3\n        /* \"#utility.yul\":7422:7439   */\n      add\n        /* \"#utility.yul\":7409:7440   */\n      calldataload\n        /* \"#utility.yul\":7467:7485   */\n      0xffffffffffffffff\n        /* \"#utility.yul\":7459:7465   */\n      dup2\n        /* \"#utility.yul\":7456:7486   */\n      gt\n        /* \"#utility.yul\":7453:7570   */\n      iszero\n      tag_522\n      jumpi\n        /* \"#utility.yul\":7489:7568   */\n      tag_523\n      tag_373\n      jump\t// in\n    tag_523:\n        /* \"#utility.yul\":7453:7570   */\n    tag_522:\n        /* \"#utility.yul\":7594:7672   */\n      tag_524\n        /* \"#utility.yul\":7664:7671   */\n      dup5\n        /* \"#utility.yul\":7655:7661   */\n      dup3\n        /* \"#utility.yul\":7644:7653   */\n      dup6\n        /* \"#utility.yul\":7640:7662   */\n      add\n        /* \"#utility.yul\":7594:7672   */\n      tag_392\n      jump\t// in\n    tag_524:\n        /* \"#utility.yul\":7584:7672   */\n      swap2\n      pop\n        /* \"#utility.yul\":7380:7682   */\n      pop\n        /* \"#utility.yul\":7150:7689   */\n      swap3\n      swap2\n      pop\n      pop\n      jump\t// out\n        /* \"#utility.yul\":7695:8024   */\n    tag_68:\n        /* \"#utility.yul\":7754:7760   */\n      0x00\n        /* \"#utility.yul\":7803:7805   */\n      0x20\n        /* \"#utility.yul\":7791:7800   */\n      dup3\n        /* \"#utility.yul\":7782:7789   */\n      dup5\n        /* \"#utility.yul\":7778:7801   */\n      sub\n        /* \"#utility.yul\":7774:7806   */\n      slt\n        /* \"#utility.yul\":7771:7890   */\n      iszero\n      tag_526\n      jumpi\n        /* \"#utility.yul\":7809:7888   */\n      tag_527\n      tag_372\n      jump\t// in\n    tag_527:\n        /* \"#utility.yul\":7771:7890   */\n    tag_526:\n        /* \"#utility.yul\":7929:7930   */\n      0x00\n        /* \"#utility.yul\":7954:8007   */\n      tag_528\n        /* \"#utility.yul\":7999:8006   */\n      dup5\n        /* \"#utility.yul\":7990:7996   */\n      dup3\n        /* \"#utility.yul\":7979:7988   */\n      dup6\n        /* \"#utility.yul\":7975:7997   */\n      add\n        /* \"#utility.yul\":7954:8007   */\n      tag_377\n      jump\t// in\n    tag_528:\n        /* \"#utility.yul\":7944:8007   */\n      swap2\n      pop\n        /* \"#utility.yul\":7900:8017   */\n      pop\n        /* \"#utility.yul\":7695:8024   */\n      swap3\n      swap2\n      pop\n      pop\n      jump\t// out\n        /* \"#utility.yul\":8030:8148   */\n    tag_393:\n        /* \"#utility.yul\":8117:8141   */\n      tag_530\n        /* \"#utility.yul\":8135:8140   */\n      dup2\n        /* \"#utility.yul\":8117:8141   */\n      tag_375\n      jump\t// in\n    tag_530:\n        /* \"#utility.yul\":8112:8115   */\n      dup3\n        /* \"#utility.yul\":8105:8142   */\n      mstore\n        /* \"#utility.yul\":8030:8148   */\n      pop\n      pop\n      jump\t// out\n        /* \"#utility.yul\":8154:8376   */\n    tag_93:\n        /* \"#utility.yul\":8247:8251   */\n      0x00\n        /* \"#utility.yul\":8285:8287   */\n      0x20\n        /* \"#utility.yul\":8274:8283   */\n      dup3\n        /* \"#utility.yul\":8270:8288   */\n      add\n        /* \"#utility.yul\":8262:8288   */\n      swap1\n      pop\n        /* \"#utility.yul\":8298:8369   */\n      tag_532\n        /* \"#utility.yul\":8366:8367   */\n      0x00\n        /* \"#utility.yul\":8355:8364   */\n      dup4\n        /* \"#utility.yul\":8351:8368   */\n      add\n        /* \"#utility.yul\":8342:8348   */\n      dup5\n        /* \"#utility.yul\":8298:8369   */\n      tag_393\n      jump\t// in\n    tag_532:\n        /* \"#utility.yul\":8154:8376   */\n      swap3\n      swap2\n      pop\n      pop\n      jump\t// out\n        /* \"#utility.yul\":8382:8856   */\n    tag_118:\n        /* \"#utility.yul\":8450:8456   */\n      0x00\n        /* \"#utility.yul\":8458:8464   */\n      dup1\n        /* \"#utility.yul\":8507:8509   */\n      0x40\n        /* \"#utility.yul\":8495:8504   */\n      dup4\n        /* \"#utility.yul\":8486:8493   */\n      dup6\n        /* \"#utility.yul\":8482:8505   */\n      sub\n        /* \"#utility.yul\":8478:8510   */\n      slt\n        /* \"#utility.yul\":8475:8594   */\n      iszero\n      tag_534\n      jumpi\n        /* \"#utility.yul\":8513:8592   */\n      tag_535\n      tag_372\n      jump\t// in\n    tag_535:\n        /* \"#utility.yul\":8475:8594   */\n    tag_534:\n        /* \"#utility.yul\":8633:8634   */\n      0x00\n        /* \"#utility.yul\":8658:8711   */\n      tag_536\n        /* \"#utility.yul\":8703:8710   */\n      dup6\n        /* \"#utility.yul\":8694:8700   */\n      dup3\n        /* \"#utility.yul\":8683:8692   */\n      dup7\n        /* \"#utility.yul\":8679:8701   */\n      add\n        /* \"#utility.yul\":8658:8711   */\n      tag_377\n      jump\t// in\n    tag_536:\n        /* \"#utility.yul\":8648:8711   */\n      swap3\n      pop\n        /* \"#utility.yul\":8604:8721   */\n      pop\n        /* \"#utility.yul\":8760:8762   */\n      0x20\n        /* \"#utility.yul\":8786:8839   */\n      tag_537\n        /* \"#utility.yul\":8831:8838   */\n      dup6\n        /* \"#utility.yul\":8822:8828   */\n      dup3\n        /* \"#utility.yul\":8811:8820   */\n      dup7\n        /* \"#utility.yul\":8807:8829   */\n      add\n        /* \"#utility.yul\":8786:8839   */\n      tag_377\n      jump\t// in\n    tag_537:\n        /* \"#utility.yul\":8776:8839   */\n      swap2\n      pop\n        /* \"#utility.yul\":8731:8849   */\n      pop\n        /* \"#utility.yul\":8382:8856   */\n      swap3\n      pop\n      swap3\n      swap1\n      pop\n      jump\t// out\n        /* \"#utility.yul\":8862:9042   */\n    tag_394:\n        /* \"#utility.yul\":8910:8987   */\n      0x4e487b7100000000000000000000000000000000000000000000000000000000\n        /* \"#utility.yul\":8907:8908   */\n      0x00\n        /* \"#utility.yul\":8900:8988   */\n      mstore\n        /* \"#utility.yul\":9007:9011   */\n      0x11\n        /* \"#utility.yul\":9004:9005   */\n      0x04\n        /* \"#utility.yul\":8997:9012   */\n      mstore\n        /* \"#utility.yul\":9031:9035   */\n      0x24\n        /* \"#utility.yul\":9028:9029   */\n      0x00\n        /* \"#utility.yul\":9021:9036   */\n      revert\n        /* \"#utility.yul\":9048:9150   */\n    tag_395:\n        /* \"#utility.yul\":9090:9098   */\n      0x00\n        /* \"#utility.yul\":9137:9142   */\n      dup2\n        /* \"#utility.yul\":9134:9135   */\n      0x01\n        /* \"#utility.yul\":9130:9143   */\n      shr\n        /* \"#utility.yul\":9109:9143   */\n      swap1\n      pop\n        /* \"#utility.yul\":9048:9150   */\n      swap2\n      swap1\n      pop\n      jump\t// out\n        /* \"#utility.yul\":9156:10004   */\n    tag_396:\n        /* \"#utility.yul\":9217:9222   */\n      0x00\n        /* \"#utility.yul\":9224:9228   */\n      dup1\n        /* \"#utility.yul\":9248:9254   */\n      dup3\n        /* \"#utility.yul\":9239:9254   */\n      swap2\n      pop\n        /* \"#utility.yul\":9272:9277   */\n      dup4\n        /* \"#utility.yul\":9263:9277   */\n      swap1\n      pop\n        /* \"#utility.yul\":9286:9998   */\n    tag_541:\n        /* \"#utility.yul\":9307:9308   */\n      0x01\n        /* \"#utility.yul\":9297:9305   */\n      dup6\n        /* \"#utility.yul\":9294:9309   */\n      gt\n        /* \"#utility.yul\":9286:9998   */\n      iszero\n      tag_543\n      jumpi\n        /* \"#utility.yul\":9402:9406   */\n      dup1\n        /* \"#utility.yul\":9397:9400   */\n      dup7\n        /* \"#utility.yul\":9393:9407   */\n      div\n        /* \"#utility.yul\":9387:9391   */\n      dup2\n        /* \"#utility.yul\":9384:9408   */\n      gt\n        /* \"#utility.yul\":9381:9431   */\n      iszero\n      tag_544\n      jumpi\n        /* \"#utility.yul\":9411:9429   */\n      tag_545\n      tag_394\n      jump\t// in\n    tag_545:\n        /* \"#utility.yul\":9381:9431   */\n    tag_544:\n        /* \"#utility.yul\":9461:9462   */\n      0x01\n        /* \"#utility.yul\":9451:9459   */\n      dup6\n        /* \"#utility.yul\":9447:9463   */\n      and\n        /* \"#utility.yul\":9444:9895   */\n      iszero\n      tag_546\n      jumpi\n        /* \"#utility.yul\":9876:9880   */\n      dup1\n        /* \"#utility.yul\":9869:9874   */\n      dup3\n        /* \"#utility.yul\":9865:9881   */\n      mul\n        /* \"#utility.yul\":9856:9881   */\n      swap2\n      pop\n        /* \"#utility.yul\":9444:9895   */\n    tag_546:\n        /* \"#utility.yul\":9926:9930   */\n      dup1\n        /* \"#utility.yul\":9920:9924   */\n      dup2\n        /* \"#utility.yul\":9916:9931   */\n      mul\n        /* \"#utility.yul\":9908:9931   */\n      swap1\n      pop\n        /* \"#utility.yul\":9956:9988   */\n      tag_547\n        /* \"#utility.yul\":9979:9987   */\n      dup6\n        /* \"#utility.yul\":9956:9988   */\n      tag_395\n      jump\t// in\n    tag_547:\n        /* \"#utility.yul\":9944:9988   */\n      swap5\n      pop\n        /* \"#utility.yul\":9286:9998   */\n      jump(tag_541)\n    tag_543:\n        /* \"#utility.yul\":9156:10004   */\n      swap5\n      pop\n      swap5\n      swap3\n      pop\n      pop\n      pop\n      jump\t// out\n        /* \"#utility.yul\":10010:11083   */\n    tag_397:\n        /* \"#utility.yul\":10064:10069   */\n      0x00\n        /* \"#utility.yul\":10255:10263   */\n      dup3\n        /* \"#utility.yul\":10245:10285   */\n      tag_549\n      jumpi\n        /* \"#utility.yul\":10276:10277   */\n      0x01\n        /* \"#utility.yul\":10267:10277   */\n      swap1\n      pop\n        /* \"#utility.yul\":10278:10283   */\n      jump(tag_548)\n        /* \"#utility.yul\":10245:10285   */\n    tag_549:\n        /* \"#utility.yul\":10304:10308   */\n      dup2\n        /* \"#utility.yul\":10294:10330   */\n      tag_550\n      jumpi\n        /* \"#utility.yul\":10321:10322   */\n      0x00\n        /* \"#utility.yul\":10312:10322   */\n      swap1\n      pop\n        /* \"#utility.yul\":10323:10328   */\n      jump(tag_548)\n        /* \"#utility.yul\":10294:10330   */\n    tag_550:\n        /* \"#utility.yul\":10390:10394   */\n      dup2\n        /* \"#utility.yul\":10438:10439   */\n      0x01\n        /* \"#utility.yul\":10433:10460   */\n      dup2\n      eq\n      tag_552\n      jumpi\n        /* \"#utility.yul\":10474:10475   */\n      0x02\n        /* \"#utility.yul\":10469:10660   */\n      dup2\n      eq\n      tag_553\n      jumpi\n        /* \"#utility.yul\":10383:10660   */\n      jump(tag_551)\n        /* \"#utility.yul\":10433:10460   */\n    tag_552:\n        /* \"#utility.yul\":10451:10452   */\n      0x01\n        /* \"#utility.yul\":10442:10452   */\n      swap2\n      pop\n        /* \"#utility.yul\":10453:10458   */\n      pop\n      jump(tag_548)\n        /* \"#utility.yul\":10469:10660   */\n    tag_553:\n        /* \"#utility.yul\":10514:10517   */\n      0xff\n        /* \"#utility.yul\":10504:10512   */\n      dup5\n        /* \"#utility.yul\":10501:10518   */\n      gt\n        /* \"#utility.yul\":10498:10541   */\n      iszero\n      tag_554\n      jumpi\n        /* \"#utility.yul\":10521:10539   */\n      tag_555\n      tag_394\n      jump\t// in\n    tag_555:\n        /* \"#utility.yul\":10498:10541   */\n    tag_554:\n        /* \"#utility.yul\":10570:10578   */\n      dup4\n        /* \"#utility.yul\":10567:10568   */\n      0x02\n        /* \"#utility.yul\":10563:10579   */\n      exp\n        /* \"#utility.yul\":10554:10579   */\n      swap2\n      pop\n        /* \"#utility.yul\":10605:10608   */\n      dup5\n        /* \"#utility.yul\":10598:10603   */\n      dup3\n        /* \"#utility.yul\":10595:10609   */\n      gt\n        /* \"#utility.yul\":10592:10632   */\n      iszero\n      tag_556\n      jumpi\n        /* \"#utility.yul\":10612:10630   */\n      tag_557\n      tag_394\n      jump\t// in\n    tag_557:\n        /* \"#utility.yul\":10592:10632   */\n    tag_556:\n        /* \"#utility.yul\":10645:10650   */\n      pop\n      jump(tag_548)\n        /* \"#utility.yul\":10383:10660   */\n    tag_551:\n      pop\n        /* \"#utility.yul\":10769:10771   */\n      0x20\n        /* \"#utility.yul\":10759:10767   */\n      dup4\n        /* \"#utility.yul\":10756:10772   */\n      lt\n        /* \"#utility.yul\":10750:10753   */\n      0x0133\n        /* \"#utility.yul\":10744:10748   */\n      dup4\n        /* \"#utility.yul\":10741:10754   */\n      lt\n        /* \"#utility.yul\":10737:10773   */\n      and\n        /* \"#utility.yul\":10719:10721   */\n      0x4e\n        /* \"#utility.yul\":10709:10717   */\n      dup5\n        /* \"#utility.yul\":10706:10722   */\n      lt\n        /* \"#utility.yul\":10701:10703   */\n      0x0b\n        /* \"#utility.yul\":10695:10699   */\n      dup5\n        /* \"#utility.yul\":10692:10704   */\n      lt\n        /* \"#utility.yul\":10688:10723   */\n      and\n        /* \"#utility.yul\":10672:10783   */\n      or\n        /* \"#utility.yul\":10669:10915   */\n      iszero\n      tag_558\n      jumpi\n        /* \"#utility.yul\":10825:10833   */\n      dup3\n        /* \"#utility.yul\":10819:10823   */\n      dup3\n        /* \"#utility.yul\":10815:10834   */\n      exp\n        /* \"#utility.yul\":10806:10834   */\n      swap1\n      pop\n        /* \"#utility.yul\":10860:10863   */\n      dup4\n        /* \"#utility.yul\":10853:10858   */\n      dup2\n        /* \"#utility.yul\":10850:10864   */\n      gt\n        /* \"#utility.yul\":10847:10887   */\n      iszero\n      tag_559\n      jumpi\n        /* \"#utility.yul\":10867:10885   */\n      tag_560\n      tag_394\n      jump\t// in\n    tag_560:\n        /* \"#utility.yul\":10847:10887   */\n    tag_559:\n        /* \"#utility.yul\":10900:10905   */\n      jump(tag_548)\n        /* \"#utility.yul\":10669:10915   */\n    tag_558:\n        /* \"#utility.yul\":10940:10982   */\n      tag_561\n        /* \"#utility.yul\":10978:10981   */\n      dup5\n        /* \"#utility.yul\":10968:10976   */\n      dup5\n        /* \"#utility.yul\":10962:10966   */\n      dup5\n        /* \"#utility.yul\":10959:10960   */\n      0x01\n        /* \"#utility.yul\":10940:10982   */\n      tag_396\n      jump\t// in\n    tag_561:\n        /* \"#utility.yul\":10925:10982   */\n      swap3\n      pop\n      swap1\n      pop\n        /* \"#utility.yul\":11014:11018   */\n      dup2\n        /* \"#utility.yul\":11009:11012   */\n      dup5\n        /* \"#utility.yul\":11005:11019   */\n      div\n        /* \"#utility.yul\":10998:11003   */\n      dup2\n        /* \"#utility.yul\":10995:11020   */\n      gt\n        /* \"#utility.yul\":10992:11043   */\n      iszero\n      tag_562\n      jumpi\n        /* \"#utility.yul\":11023:11041   */\n      tag_563\n      tag_394\n      jump\t// in\n    tag_563:\n        /* \"#utility.yul\":10992:11043   */\n    tag_562:\n        /* \"#utility.yul\":11072:11076   */\n      dup2\n        /* \"#utility.yul\":11065:11070   */\n      dup2\n        /* \"#utility.yul\":11061:11077   */\n      mul\n        /* \"#utility.yul\":11052:11077   */\n      swap1\n      pop\n        /* \"#utility.yul\":10010:11083   */\n    tag_548:\n      swap4\n      swap3\n      pop\n      pop\n      pop\n      jump\t// out\n        /* \"#utility.yul\":11089:11370   */\n    tag_129:\n        /* \"#utility.yul\":11147:11152   */\n      0x00\n        /* \"#utility.yul\":11171:11194   */\n      tag_565\n        /* \"#utility.yul\":11189:11193   */\n      dup3\n        /* \"#utility.yul\":11171:11194   */\n      tag_378\n      jump\t// in\n    tag_565:\n        /* \"#utility.yul\":11163:11194   */\n      swap2\n      pop\n        /* \"#utility.yul\":11215:11240   */\n      tag_566\n        /* \"#utility.yul\":11231:11239   */\n      dup4\n        /* \"#utility.yul\":11215:11240   */\n      tag_384\n      jump\t// in\n    tag_566:\n        /* \"#utility.yul\":11203:11240   */\n      swap3\n      pop\n        /* \"#utility.yul\":11259:11363   */\n      tag_567\n        /* \"#utility.yul\":11296:11362   */\n      0xffffffffffffffffffffffffffffffffffffffffffffffffffffffffffffffff\n        /* \"#utility.yul\":11286:11294   */\n      dup5\n        /* \"#utility.yul\":11280:11284   */\n      dup5\n        /* \"#utility.yul\":11259:11363   */\n      tag_397\n      jump\t// in\n    tag_567:\n        /* \"#utility.yul\":11250:11363   */\n      swap1\n      pop\n        /* \"#utility.yul\":11089:11370   */\n      swap3\n      swap2\n      pop\n      pop\n      jump\t// out\n        /* \"#utility.yul\":11376:11786   */\n    tag_131:\n        /* \"#utility.yul\":11416:11423   */\n      0x00\n        /* \"#utility.yul\":11439:11459   */\n      tag_569\n        /* \"#utility.yul\":11457:11458   */\n      dup3\n        /* \"#utility.yul\":11439:11459   */\n      tag_378\n      jump\t// in\n    tag_569:\n        /* \"#utility.yul\":11434:11459   */\n      swap2\n      pop\n        /* \"#utility.yul\":11473:11493   */\n      tag_570\n        /* \"#utility.yul\":11491:11492   */\n      dup4\n        /* \"#utility.yul\":11473:11493   */\n      tag_378\n      jump\t// in\n    tag_570:\n        /* \"#utility.yul\":11468:11493   */\n      swap3\n      pop\n        /* \"#utility.yul\":11528:11529   */\n      dup3\n        /* \"#utility.yul\":11525:11526   */\n      dup3\n        /* \"#utility.yul\":11521:11530   */\n      mul\n        /* \"#utility.yul\":11550:11580   */\n      tag_571\n        /* \"#utility.yul\":11568:11579   */\n      dup2\n        /* \"#utility.yul\":11550:11580   */\n      tag_378\n      jump\t// in\n    tag_571:\n        /* \"#utility.yul\":11539:11580   */\n      swap2\n      pop\n        /* \"#utility.yul\":11729:11730   */\n      dup3\n        /* \"#utility.yul\":11720:11727   */\n      dup3\n        /* \"#utility.yul\":11716:11731   */\n      div\n        /* \"#utility.yul\":11713:11714   */\n      dup5\n        /* \"#utility.yul\":11710:11732   */\n      eq\n        /* \"#utility.yul\":11690:11691   */\n      dup4\n        /* \"#utility.yul\":11683:11692   */\n      iszero\n        /* \"#utility.yul\":11663:11746   */\n      or\n        /* \"#utility.yul\":11640:11779   */\n      tag_572\n      jumpi\n        /* \"#utility.yul\":11759:11777   */\n      tag_573\n      tag_394\n      jump\t// in\n    tag_573:\n        /* \"#utility.yul\":11640:11779   */\n    tag_572:\n        /* \"#utility.yul\":11424:11786   */\n      pop\n        /* \"#utility.yul\":11376:11786   */\n      swap3\n      swap2\n      pop\n      pop\n      jump\t// out\n        /* \"#utility.yul\":11792:11974   */\n    tag_398:\n        /* \"#utility.yul\":11932:11966   */\n      0x4f776e61626c653a2063616c6c6572206973206e6f7420746865206f776e6572\n        /* \"#utility.yul\":11928:11929   */\n      0x00\n        /* \"#utility.yul\":11920:11926   */\n      dup3\n        /* \"#utility.yul\":11916:11930   */\n      add\n        /* \"#utility.yul\":11909:11967   */\n      mstore\n        /* \"#utility.yul\":11792:11974   */\n      pop\n      jump\t// out\n        /* \"#utility.yul\":11980:12346   */\n    tag_399:\n        /* \"#utility.yul\":12122:12125   */\n      0x00\n        /* \"#utility.yul\":12143:12210   */\n      tag_576\n        /* \"#utility.yul\":12207:12209   */\n      0x20\n        /* \"#utility.yul\":12202:12205   */\n      dup4\n        /* \"#utility.yul\":12143:12210   */\n      tag_367\n      jump\t// in\n    tag_576:\n        /* \"#utility.yul\":12136:12210   */\n      swap2\n      pop\n        /* \"#utility.yul\":12219:12312   */\n      tag_577\n        /* \"#utility.yul\":12308:12311   */\n      dup3\n        /* \"#utility.yul\":12219:12312   */\n      tag_398\n      jump\t// in\n    tag_577:\n        /* \"#utility.yul\":12337:12339   */\n      0x20\n        /* \"#utility.yul\":12332:12335   */\n      dup3\n        /* \"#utility.yul\":12328:12340   */\n      add\n        /* \"#utility.yul\":12321:12340   */\n      swap1\n      pop\n        /* \"#utility.yul\":11980:12346   */\n      swap2\n      swap1\n      pop\n      jump\t// out\n        /* \"#utility.yul\":12352:12771   */\n    tag_145:\n        /* \"#utility.yul\":12518:12522   */\n      0x00\n        /* \"#utility.yul\":12556:12558   */\n      0x20\n        /* \"#utility.yul\":12545:12554   */\n      dup3\n        /* \"#utility.yul\":12541:12559   */\n      add\n        /* \"#utility.yul\":12533:12559   */\n      swap1\n      pop\n        /* \"#utility.yul\":12605:12614   */\n      dup2\n        /* \"#utility.yul\":12599:12603   */\n      dup2\n        /* \"#utility.yul\":12595:12615   */\n      sub\n        /* \"#utility.yul\":12591:12592   */\n      0x00\n        /* \"#utility.yul\":12580:12589   */\n      dup4\n        /* \"#utility.yul\":12576:12593   */\n      add\n        /* \"#utility.yul\":12569:12616   */\n      mstore\n        /* \"#utility.yul\":12633:12764   */\n      tag_579\n        /* \"#utility.yul\":12759:12763   */\n      dup2\n        /* \"#utility.yul\":12633:12764   */\n      tag_399\n      jump\t// in\n    tag_579:\n        /* \"#utility.yul\":12625:12764   */\n      swap1\n      pop\n        /* \"#utility.yul\":12352:12771   */\n      swap2\n      swap1\n      pop\n      jump\t// out\n        /* \"#utility.yul\":12777:12957   */\n    tag_152:\n        /* \"#utility.yul\":12825:12902   */\n      0x4e487b7100000000000000000000000000000000000000000000000000000000\n        /* \"#utility.yul\":12822:12823   */\n      0x00\n        /* \"#utility.yul\":12815:12903   */\n      mstore\n        /* \"#utility.yul\":12922:12926   */\n      0x32\n        /* \"#utility.yul\":12919:12920   */\n      0x04\n        /* \"#utility.yul\":12912:12927   */\n      mstore\n        /* \"#utility.yul\":12946:12950   */\n      0x24\n        /* \"#utility.yul\":12943:12944   */\n      0x00\n        /* \"#utility.yul\":12936:12951   */\n      revert\n        /* \"#utility.yul\":12963:13196   */\n    tag_154:\n        /* \"#utility.yul\":13002:13005   */\n      0x00\n        /* \"#utility.yul\":13025:13049   */\n      tag_582\n        /* \"#utility.yul\":13043:13048   */\n      dup3\n        /* \"#utility.yul\":13025:13049   */\n      tag_378\n      jump\t// in\n    tag_582:\n        /* \"#utility.yul\":13016:13049   */\n      swap2\n      pop\n        /* \"#utility.yul\":13071:13137   */\n      0xffffffffffffffffffffffffffffffffffffffffffffffffffffffffffffffff\n        /* \"#utility.yul\":13064:13069   */\n      dup3\n        /* \"#utility.yul\":13061:13138   */\n      sub\n        /* \"#utility.yul\":13058:13161   */\n      tag_583\n      jumpi\n        /* \"#utility.yul\":13141:13159   */\n      tag_584\n      tag_394\n      jump\t// in\n    tag_584:\n        /* \"#utility.yul\":13058:13161   */\n    tag_583:\n        /* \"#utility.yul\":13188:13189   */\n      0x01\n        /* \"#utility.yul\":13181:13186   */\n      dup3\n        /* \"#utility.yul\":13177:13190   */\n      add\n        /* \"#utility.yul\":13170:13190   */\n      swap1\n      pop\n        /* \"#utility.yul\":12963:13196   */\n      swap2\n      swap1\n      pop\n      jump\t// out\n        /* \"#utility.yul\":13202:13375   */\n    tag_400:\n        /* \"#utility.yul\":13342:13367   */\n      0x74726164696e6720697320616c7265616479206f70656e000000000000000000\n        /* \"#utility.yul\":13338:13339   */\n      0x00\n        /* \"#utility.yul\":13330:13336   */\n      dup3\n        /* \"#utility.yul\":13326:13340   */\n      add\n        /* \"#utility.yul\":13319:13368   */\n      mstore\n        /* \"#utility.yul\":13202:13375   */\n      pop\n      jump\t// out\n        /* \"#utility.yul\":13381:13747   */\n    tag_401:\n        /* \"#utility.yul\":13523:13526   */\n      0x00\n        /* \"#utility.yul\":13544:13611   */\n      tag_587\n        /* \"#utility.yul\":13608:13610   */\n      0x17\n        /* \"#utility.yul\":13603:13606   */\n      dup4\n        /* \"#utility.yul\":13544:13611   */\n      tag_367\n      jump\t// in\n    tag_587:\n        /* \"#utility.yul\":13537:13611   */\n      swap2\n      pop\n        /* \"#utility.yul\":13620:13713   */\n      tag_588\n        /* \"#utility.yul\":13709:13712   */\n      dup3\n        /* \"#utility.yul\":13620:13713   */\n      tag_400\n      jump\t// in\n    tag_588:\n        /* \"#utility.yul\":13738:13740   */\n      0x20\n        /* \"#utility.yul\":13733:13736   */\n      dup3\n        /* \"#utility.yul\":13729:13741   */\n      add\n        /* \"#utility.yul\":13722:13741   */\n      swap1\n      pop\n        /* \"#utility.yul\":13381:13747   */\n      swap2\n      swap1\n      pop\n      jump\t// out\n        /* \"#utility.yul\":13753:14172   */\n    tag_163:\n        /* \"#utility.yul\":13919:13923   */\n      0x00\n        /* \"#utility.yul\":13957:13959   */\n      0x20\n        /* \"#utility.yul\":13946:13955   */\n      dup3\n        /* \"#utility.yul\":13942:13960   */\n      add\n        /* \"#utility.yul\":13934:13960   */\n      swap1\n      pop\n        /* \"#utility.yul\":14006:14015   */\n      dup2\n        /* \"#utility.yul\":14000:14004   */\n      dup2\n        /* \"#utility.yul\":13996:14016   */\n      sub\n        /* \"#utility.yul\":13992:13993   */\n      0x00\n        /* \"#utility.yul\":13981:13990   */\n      dup4\n        /* \"#utility.yul\":13977:13994   */\n      add\n        /* \"#utility.yul\":13970:14017   */\n      mstore\n        /* \"#utility.yul\":14034:14165   */\n      tag_590\n        /* \"#utility.yul\":14160:14164   */\n      dup2\n        /* \"#utility.yul\":14034:14165   */\n      tag_401\n      jump\t// in\n    tag_590:\n        /* \"#utility.yul\":14026:14165   */\n      swap1\n      pop\n        /* \"#utility.yul\":13753:14172   */\n      swap2\n      swap1\n      pop\n      jump\t// out\n        /* \"#utility.yul\":14178:14321   */\n    tag_402:\n        /* \"#utility.yul\":14235:14240   */\n      0x00\n        /* \"#utility.yul\":14266:14272   */\n      dup2\n        /* \"#utility.yul\":14260:14273   */\n      mload\n        /* \"#utility.yul\":14251:14273   */\n      swap1\n      pop\n        /* \"#utility.yul\":14282:14315   */\n      tag_592\n        /* \"#utility.yul\":14309:14314   */\n      dup2\n        /* \"#utility.yul\":14282:14315   */\n      tag_376\n      jump\t// in\n    tag_592:\n        /* \"#utility.yul\":14178:14321   */\n      swap3\n      swap2\n      pop\n      pop\n      jump\t// out\n        /* \"#utility.yul\":14327:14678   */\n    tag_170:\n        /* \"#utility.yul\":14397:14403   */\n      0x00\n        /* \"#utility.yul\":14446:14448   */\n      0x20\n        /* \"#utility.yul\":14434:14443   */\n      dup3\n        /* \"#utility.yul\":14425:14432   */\n      dup5\n        /* \"#utility.yul\":14421:14444   */\n      sub\n        /* \"#utility.yul\":14417:14449   */\n      slt\n        /* \"#utility.yul\":14414:14533   */\n      iszero\n      tag_594\n      jumpi\n        /* \"#utility.yul\":14452:14531   */\n      tag_595\n      tag_372\n      jump\t// in\n    tag_595:\n        /* \"#utility.yul\":14414:14533   */\n    tag_594:\n        /* \"#utility.yul\":14572:14573   */\n      0x00\n        /* \"#utility.yul\":14597:14661   */\n      tag_596\n        /* \"#utility.yul\":14653:14660   */\n      dup5\n        /* \"#utility.yul\":14644:14650   */\n      dup3\n        /* \"#utility.yul\":14633:14642   */\n      dup6\n        /* \"#utility.yul\":14629:14651   */\n      add\n        /* \"#utility.yul\":14597:14661   */\n      tag_402\n      jump\t// in\n    tag_596:\n        /* \"#utility.yul\":14587:14661   */\n      swap2\n      pop\n        /* \"#utility.yul\":14543:14671   */\n      pop\n        /* \"#utility.yul\":14327:14678   */\n      swap3\n      swap2\n      pop\n      pop\n      jump\t// out\n        /* \"#utility.yul\":14684:15016   */\n    tag_175:\n        /* \"#utility.yul\":14805:14809   */\n      0x00\n        /* \"#utility.yul\":14843:14845   */\n      0x40\n        /* \"#utility.yul\":14832:14841   */\n      dup3\n        /* \"#utility.yul\":14828:14846   */\n      add\n        /* \"#utility.yul\":14820:14846   */\n      swap1\n      pop\n        /* \"#utility.yul\":14856:14927   */\n      tag_598\n        /* \"#utility.yul\":14924:14925   */\n      0x00\n        /* \"#utility.yul\":14913:14922   */\n      dup4\n        /* \"#utility.yul\":14909:14926   */\n      add\n        /* \"#utility.yul\":14900:14906   */\n      dup6\n        /* \"#utility.yul\":14856:14927   */\n      tag_393\n      jump\t// in\n    tag_598:\n        /* \"#utility.yul\":14937:15009   */\n      tag_599\n        /* \"#utility.yul\":15005:15007   */\n      0x20\n        /* \"#utility.yul\":14994:15003   */\n      dup4\n        /* \"#utility.yul\":14990:15008   */\n      add\n        /* \"#utility.yul\":14981:14987   */\n      dup5\n        /* \"#utility.yul\":14937:15009   */\n      tag_393\n      jump\t// in\n    tag_599:\n        /* \"#utility.yul\":14684:15016   */\n      swap4\n      swap3\n      pop\n      pop\n      pop\n      jump\t// out\n        /* \"#utility.yul\":15022:15107   */\n    tag_403:\n        /* \"#utility.yul\":15067:15074   */\n      0x00\n        /* \"#utility.yul\":15096:15101   */\n      dup2\n        /* \"#utility.yul\":15085:15101   */\n      swap1\n      pop\n        /* \"#utility.yul\":15022:15107   */\n      swap2\n      swap1\n      pop\n      jump\t// out\n        /* \"#utility.yul\":15113:15173   */\n    tag_404:\n        /* \"#utility.yul\":15141:15144   */\n      0x00\n        /* \"#utility.yul\":15162:15167   */\n      dup2\n        /* \"#utility.yul\":15155:15167   */\n      swap1\n      pop\n        /* \"#utility.yul\":15113:15173   */\n      swap2\n      swap1\n      pop\n      jump\t// out\n        /* \"#utility.yul\":15179:15337   */\n    tag_405:\n        /* \"#utility.yul\":15237:15246   */\n      0x00\n        /* \"#utility.yul\":15270:15331   */\n      tag_603\n        /* \"#utility.yul\":15288:15330   */\n      tag_604\n        /* \"#utility.yul\":15297:15329   */\n      tag_605\n        /* \"#utility.yul\":15323:15328   */\n      dup5\n        /* \"#utility.yul\":15297:15329   */\n      tag_403\n      jump\t// in\n    tag_605:\n        /* \"#utility.yul\":15288:15330   */\n      tag_404\n      jump\t// in\n    tag_604:\n        /* \"#utility.yul\":15270:15331   */\n      tag_378\n      jump\t// in\n    tag_603:\n        /* \"#utility.yul\":15257:15331   */\n      swap1\n      pop\n        /* \"#utility.yul\":15179:15337   */\n      swap2\n      swap1\n      pop\n      jump\t// out\n        /* \"#utility.yul\":15343:15490   */\n    tag_406:\n        /* \"#utility.yul\":15438:15483   */\n      tag_607\n        /* \"#utility.yul\":15477:15482   */\n      dup2\n        /* \"#utility.yul\":15438:15483   */\n      tag_405\n      jump\t// in\n    tag_607:\n        /* \"#utility.yul\":15433:15436   */\n      dup3\n        /* \"#utility.yul\":15426:15484   */\n      mstore\n        /* \"#utility.yul\":15343:15490   */\n      pop\n      pop\n      jump\t// out\n        /* \"#utility.yul\":15496:16303   */\n    tag_182:\n        /* \"#utility.yul\":15745:15749   */\n      0x00\n        /* \"#utility.yul\":15783:15786   */\n      0xc0\n        /* \"#utility.yul\":15772:15781   */\n      dup3\n        /* \"#utility.yul\":15768:15787   */\n      add\n        /* \"#utility.yul\":15760:15787   */\n      swap1\n      pop\n        /* \"#utility.yul\":15797:15868   */\n      tag_609\n        /* \"#utility.yul\":15865:15866   */\n      0x00\n        /* \"#utility.yul\":15854:15863   */\n      dup4\n        /* \"#utility.yul\":15850:15867   */\n      add\n        /* \"#utility.yul\":15841:15847   */\n      dup10\n        /* \"#utility.yul\":15797:15868   */\n      tag_393\n      jump\t// in\n    tag_609:\n        /* \"#utility.yul\":15878:15950   */\n      tag_610\n        /* \"#utility.yul\":15946:15948   */\n      0x20\n        /* \"#utility.yul\":15935:15944   */\n      dup4\n        /* \"#utility.yul\":15931:15949   */\n      add\n        /* \"#utility.yul\":15922:15928   */\n      dup9\n        /* \"#utility.yul\":15878:15950   */\n      tag_383\n      jump\t// in\n    tag_610:\n        /* \"#utility.yul\":15960:16040   */\n      tag_611\n        /* \"#utility.yul\":16036:16038   */\n      0x40\n        /* \"#utility.yul\":16025:16034   */\n      dup4\n        /* \"#utility.yul\":16021:16039   */\n      add\n        /* \"#utility.yul\":16012:16018   */\n      dup8\n        /* \"#utility.yul\":15960:16040   */\n      tag_406\n      jump\t// in\n    tag_611:\n        /* \"#utility.yul\":16050:16130   */\n      tag_612\n        /* \"#utility.yul\":16126:16128   */\n      0x60\n        /* \"#utility.yul\":16115:16124   */\n      dup4\n        /* \"#utility.yul\":16111:16129   */\n      add\n        /* \"#utility.yul\":16102:16108   */\n      dup7\n        /* \"#utility.yul\":16050:16130   */\n      tag_406\n      jump\t// in\n    tag_612:\n        /* \"#utility.yul\":16140:16213   */\n      tag_613\n        /* \"#utility.yul\":16208:16211   */\n      0x80\n        /* \"#utility.yul\":16197:16206   */\n      dup4\n        /* \"#utility.yul\":16193:16212   */\n      add\n        /* \"#utility.yul\":16184:16190   */\n      dup6\n        /* \"#utility.yul\":16140:16213   */\n      tag_393\n      jump\t// in\n    tag_613:\n        /* \"#utility.yul\":16223:16296   */\n      tag_614\n        /* \"#utility.yul\":16291:16294   */\n      0xa0\n        /* \"#utility.yul\":16280:16289   */\n      dup4\n        /* \"#utility.yul\":16276:16295   */\n      add\n        /* \"#utility.yul\":16267:16273   */\n      dup5\n        /* \"#utility.yul\":16223:16296   */\n      tag_383\n      jump\t// in\n    tag_614:\n        /* \"#utility.yul\":15496:16303   */\n      swap8\n      swap7\n      pop\n      pop\n      pop\n      pop\n      pop\n      pop\n      pop\n      jump\t// out\n        /* \"#utility.yul\":16309:16452   */\n    tag_407:\n        /* \"#utility.yul\":16366:16371   */\n      0x00\n        /* \"#utility.yul\":16397:16403   */\n      dup2\n        /* \"#utility.yul\":16391:16404   */\n      mload\n        /* \"#utility.yul\":16382:16404   */\n      swap1\n      pop\n        /* \"#utility.yul\":16413:16446   */\n      tag_616\n        /* \"#utility.yul\":16440:16445   */\n      dup2\n        /* \"#utility.yul\":16413:16446   */\n      tag_379\n      jump\t// in\n    tag_616:\n        /* \"#utility.yul\":16309:16452   */\n      swap3\n      swap2\n      pop\n      pop\n      jump\t// out\n        /* \"#utility.yul\":16458:17121   */\n    tag_186:\n        /* \"#utility.yul\":16546:16552   */\n      0x00\n        /* \"#utility.yul\":16554:16560   */\n      dup1\n        /* \"#utility.yul\":16562:16568   */\n      0x00\n        /* \"#utility.yul\":16611:16613   */\n      0x60\n        /* \"#utility.yul\":16599:16608   */\n      dup5\n        /* \"#utility.yul\":16590:16597   */\n      dup7\n        /* \"#utility.yul\":16586:16609   */\n      sub\n        /* \"#utility.yul\":16582:16614   */\n      slt\n        /* \"#utility.yul\":16579:16698   */\n      iszero\n      tag_618\n      jumpi\n        /* \"#utility.yul\":16617:16696   */\n      tag_619\n      tag_372\n      jump\t// in\n    tag_619:\n        /* \"#utility.yul\":16579:16698   */\n    tag_618:\n        /* \"#utility.yul\":16737:16738   */\n      0x00\n        /* \"#utility.yul\":16762:16826   */\n      tag_620\n        /* \"#utility.yul\":16818:16825   */\n      dup7\n        /* \"#utility.yul\":16809:16815   */\n      dup3\n        /* \"#utility.yul\":16798:16807   */\n      dup8\n        /* \"#utility.yul\":16794:16816   */\n      add\n        /* \"#utility.yul\":16762:16826   */\n      tag_407\n      jump\t// in\n    tag_620:\n        /* \"#utility.yul\":16752:16826   */\n      swap4\n      pop\n        /* \"#utility.yul\":16708:16836   */\n      pop\n        /* \"#utility.yul\":16875:16877   */\n      0x20\n        /* \"#utility.yul\":16901:16965   */\n      tag_621\n        /* \"#utility.yul\":16957:16964   */\n      dup7\n        /* \"#utility.yul\":16948:16954   */\n      dup3\n        /* \"#utility.yul\":16937:16946   */\n      dup8\n        /* \"#utility.yul\":16933:16955   */\n      add\n        /* \"#utility.yul\":16901:16965   */\n      tag_407\n      jump\t// in\n    tag_621:\n        /* \"#utility.yul\":16891:16965   */\n      swap3\n      pop\n        /* \"#utility.yul\":16846:16975   */\n      pop\n        /* \"#utility.yul\":17014:17016   */\n      0x40\n        /* \"#utility.yul\":17040:17104   */\n      tag_622\n        /* \"#utility.yul\":17096:17103   */\n      dup7\n        /* \"#utility.yul\":17087:17093   */\n      dup3\n        /* \"#utility.yul\":17076:17085   */\n      dup8\n        /* \"#utility.yul\":17072:17094   */\n      add\n        /* \"#utility.yul\":17040:17104   */\n      tag_407\n      jump\t// in\n    tag_622:\n        /* \"#utility.yul\":17030:17104   */\n      swap2\n      pop\n        /* \"#utility.yul\":16985:17114   */\n      pop\n        /* \"#utility.yul\":16458:17121   */\n      swap3\n      pop\n      swap3\n      pop\n      swap3\n      jump\t// out\n        /* \"#utility.yul\":17127:17459   */\n    tag_188:\n        /* \"#utility.yul\":17248:17252   */\n      0x00\n        /* \"#utility.yul\":17286:17288   */\n      0x40\n        /* \"#utility.yul\":17275:17284   */\n      dup3\n        /* \"#utility.yul\":17271:17289   */\n      add\n        /* \"#utility.yul\":17263:17289   */\n      swap1\n      pop\n        /* \"#utility.yul\":17299:17370   */\n      tag_624\n        /* \"#utility.yul\":17367:17368   */\n      0x00\n        /* \"#utility.yul\":17356:17365   */\n      dup4\n        /* \"#utility.yul\":17352:17369   */\n      add\n        /* \"#utility.yul\":17343:17349   */\n      dup6\n        /* \"#utility.yul\":17299:17370   */\n      tag_393\n      jump\t// in\n    tag_624:\n        /* \"#utility.yul\":17380:17452   */\n      tag_625\n        /* \"#utility.yul\":17448:17450   */\n      0x20\n        /* \"#utility.yul\":17437:17446   */\n      dup4\n        /* \"#utility.yul\":17433:17451   */\n      add\n        /* \"#utility.yul\":17424:17430   */\n      dup5\n        /* \"#utility.yul\":17380:17452   */\n      tag_383\n      jump\t// in\n    tag_625:\n        /* \"#utility.yul\":17127:17459   */\n      swap4\n      swap3\n      pop\n      pop\n      pop\n      jump\t// out\n        /* \"#utility.yul\":17465:17581   */\n    tag_408:\n        /* \"#utility.yul\":17535:17556   */\n      tag_627\n        /* \"#utility.yul\":17550:17555   */\n      dup2\n        /* \"#utility.yul\":17535:17556   */\n      tag_381\n      jump\t// in\n    tag_627:\n        /* \"#utility.yul\":17528:17533   */\n      dup2\n        /* \"#utility.yul\":17525:17557   */\n      eq\n        /* \"#utility.yul\":17515:17575   */\n      tag_628\n      jumpi\n        /* \"#utility.yul\":17571:17572   */\n      0x00\n        /* \"#utility.yul\":17568:17569   */\n      dup1\n        /* \"#utility.yul\":17561:17573   */\n      revert\n        /* \"#utility.yul\":17515:17575   */\n    tag_628:\n        /* \"#utility.yul\":17465:17581   */\n      pop\n      jump\t// out\n        /* \"#utility.yul\":17587:17724   */\n    tag_409:\n        /* \"#utility.yul\":17641:17646   */\n      0x00\n        /* \"#utility.yul\":17672:17678   */\n      dup2\n        /* \"#utility.yul\":17666:17679   */\n      mload\n        /* \"#utility.yul\":17657:17679   */\n      swap1\n      pop\n        /* \"#utility.yul\":17688:17718   */\n      tag_630\n        /* \"#utility.yul\":17712:17717   */\n      dup2\n        /* \"#utility.yul\":17688:17718   */\n      tag_408\n      jump\t// in\n    tag_630:\n        /* \"#utility.yul\":17587:17724   */\n      swap3\n      swap2\n      pop\n      pop\n      jump\t// out\n        /* \"#utility.yul\":17730:18075   */\n    tag_192:\n        /* \"#utility.yul\":17797:17803   */\n      0x00\n        /* \"#utility.yul\":17846:17848   */\n      0x20\n        /* \"#utility.yul\":17834:17843   */\n      dup3\n        /* \"#utility.yul\":17825:17832   */\n      dup5\n        /* \"#utility.yul\":17821:17844   */\n      sub\n        /* \"#utility.yul\":17817:17849   */\n      slt\n        /* \"#utility.yul\":17814:17933   */\n      iszero\n      tag_632\n      jumpi\n        /* \"#utility.yul\":17852:17931   */\n      tag_633\n      tag_372\n      jump\t// in\n    tag_633:\n        /* \"#utility.yul\":17814:17933   */\n    tag_632:\n        /* \"#utility.yul\":17972:17973   */\n      0x00\n        /* \"#utility.yul\":17997:18058   */\n      tag_634\n        /* \"#utility.yul\":18050:18057   */\n      dup5\n        /* \"#utility.yul\":18041:18047   */\n      dup3\n        /* \"#utility.yul\":18030:18039   */\n      dup6\n        /* \"#utility.yul\":18026:18048   */\n      add\n        /* \"#utility.yul\":17997:18058   */\n      tag_409\n      jump\t// in\n    tag_634:\n        /* \"#utility.yul\":17987:18058   */\n      swap2\n      pop\n        /* \"#utility.yul\":17943:18068   */\n      pop\n        /* \"#utility.yul\":17730:18075   */\n      swap3\n      swap2\n      pop\n      pop\n      jump\t// out\n        /* \"#utility.yul\":18081:18304   */\n    tag_410:\n        /* \"#utility.yul\":18221:18255   */\n      0x45524332303a20617070726f76652066726f6d20746865207a65726f20616464\n        /* \"#utility.yul\":18217:18218   */\n      0x00\n        /* \"#utility.yul\":18209:18215   */\n      dup3\n        /* \"#utility.yul\":18205:18219   */\n      add\n        /* \"#utility.yul\":18198:18256   */\n      mstore\n        /* \"#utility.yul\":18290:18296   */\n      0x7265737300000000000000000000000000000000000000000000000000000000\n        /* \"#utility.yul\":18285:18287   */\n      0x20\n        /* \"#utility.yul\":18277:18283   */\n      dup3\n        /* \"#utility.yul\":18273:18288   */\n      add\n        /* \"#utility.yul\":18266:18297   */\n      mstore\n        /* \"#utility.yul\":18081:18304   */\n      pop\n      jump\t// out\n        /* \"#utility.yul\":18310:18676   */\n    tag_411:\n        /* \"#utility.yul\":18452:18455   */\n      0x00\n        /* \"#utility.yul\":18473:18540   */\n      tag_637\n        /* \"#utility.yul\":18537:18539   */\n      0x24\n        /* \"#utility.yul\":18532:18535   */\n      dup4\n        /* \"#utility.yul\":18473:18540   */\n      tag_367\n      jump\t// in\n    tag_637:\n        /* \"#utility.yul\":18466:18540   */\n      swap2\n      pop\n        /* \"#utility.yul\":18549:18642   */\n      tag_638\n        /* \"#utility.yul\":18638:18641   */\n      dup3\n        /* \"#utility.yul\":18549:18642   */\n      tag_410\n      jump\t// in\n    tag_638:\n        /* \"#utility.yul\":18667:18669   */\n      0x40\n        /* \"#utility.yul\":18662:18665   */\n      dup3\n        /* \"#utility.yul\":18658:18670   */\n      add\n        /* \"#utility.yul\":18651:18670   */\n      swap1\n      pop\n        /* \"#utility.yul\":18310:18676   */\n      swap2\n      swap1\n      pop\n      jump\t// out\n        /* \"#utility.yul\":18682:19101   */\n    tag_232:\n        /* \"#utility.yul\":18848:18852   */\n      0x00\n        /* \"#utility.yul\":18886:18888   */\n      0x20\n        /* \"#utility.yul\":18875:18884   */\n      dup3\n        /* \"#utility.yul\":18871:18889   */\n      add\n        /* \"#utility.yul\":18863:18889   */\n      swap1\n      pop\n        /* \"#utility.yul\":18935:18944   */\n      dup2\n        /* \"#utility.yul\":18929:18933   */\n      dup2\n        /* \"#utility.yul\":18925:18945   */\n      sub\n        /* \"#utility.yul\":18921:18922   */\n      0x00\n        /* \"#utility.yul\":18910:18919   */\n      dup4\n        /* \"#utility.yul\":18906:18923   */\n      add\n        /* \"#utility.yul\":18899:18946   */\n      mstore\n        /* \"#utility.yul\":18963:19094   */\n      tag_640\n        /* \"#utility.yul\":19089:19093   */\n      dup2\n        /* \"#utility.yul\":18963:19094   */\n      tag_411\n      jump\t// in\n    tag_640:\n        /* \"#utility.yul\":18955:19094   */\n      swap1\n      pop\n        /* \"#utility.yul\":18682:19101   */\n      swap2\n      swap1\n      pop\n      jump\t// out\n        /* \"#utility.yul\":19107:19328   */\n    tag_412:\n        /* \"#utility.yul\":19247:19281   */\n      0x45524332303a20617070726f766520746f20746865207a65726f206164647265\n        /* \"#utility.yul\":19243:19244   */\n      0x00\n        /* \"#utility.yul\":19235:19241   */\n      dup3\n        /* \"#utility.yul\":19231:19245   */\n      add\n        /* \"#utility.yul\":19224:19282   */\n      mstore\n        /* \"#utility.yul\":19316:19320   */\n      0x7373000000000000000000000000000000000000000000000000000000000000\n        /* \"#utility.yul\":19311:19313   */\n      0x20\n        /* \"#utility.yul\":19303:19309   */\n      dup3\n        /* \"#utility.yul\":19299:19314   */\n      add\n        /* \"#utility.yul\":19292:19321   */\n      mstore\n        /* \"#utility.yul\":19107:19328   */\n      pop\n      jump\t// out\n        /* \"#utility.yul\":19334:19700   */\n    tag_413:\n        /* \"#utility.yul\":19476:19479   */\n      0x00\n        /* \"#utility.yul\":19497:19564   */\n      tag_643\n        /* \"#utility.yul\":19561:19563   */\n      0x22\n        /* \"#utility.yul\":19556:19559   */\n      dup4\n        /* \"#utility.yul\":19497:19564   */\n      tag_367\n      jump\t// in\n    tag_643:\n        /* \"#utility.yul\":19490:19564   */\n      swap2\n      pop\n        /* \"#utility.yul\":19573:19666   */\n      tag_644\n        /* \"#utility.yul\":19662:19665   */\n      dup3\n        /* \"#utility.yul\":19573:19666   */\n      tag_412\n      jump\t// in\n    tag_644:\n        /* \"#utility.yul\":19691:19693   */\n      0x40\n        /* \"#utility.yul\":19686:19689   */\n      dup3\n        /* \"#utility.yul\":19682:19694   */\n      add\n        /* \"#utility.yul\":19675:19694   */\n      swap1\n      pop\n        /* \"#utility.yul\":19334:19700   */\n      swap2\n      swap1\n      pop\n      jump\t// out\n        /* \"#utility.yul\":19706:20125   */\n    tag_235:\n        /* \"#utility.yul\":19872:19876   */\n      0x00\n        /* \"#utility.yul\":19910:19912   */\n      0x20\n        /* \"#utility.yul\":19899:19908   */\n      dup3\n        /* \"#utility.yul\":19895:19913   */\n      add\n        /* \"#utility.yul\":19887:19913   */\n      swap1\n      pop\n        /* \"#utility.yul\":19959:19968   */\n      dup2\n        /* \"#utility.yul\":19953:19957   */\n      dup2\n        /* \"#utility.yul\":19949:19969   */\n      sub\n        /* \"#utility.yul\":19945:19946   */\n      0x00\n        /* \"#utility.yul\":19934:19943   */\n      dup4\n        /* \"#utility.yul\":19930:19947   */\n      add\n        /* \"#utility.yul\":19923:19970   */\n      mstore\n        /* \"#utility.yul\":19987:20118   */\n      tag_646\n        /* \"#utility.yul\":20113:20117   */\n      dup2\n        /* \"#utility.yul\":19987:20118   */\n      tag_413\n      jump\t// in\n    tag_646:\n        /* \"#utility.yul\":19979:20118   */\n      swap1\n      pop\n        /* \"#utility.yul\":19706:20125   */\n      swap2\n      swap1\n      pop\n      jump\t// out\n        /* \"#utility.yul\":20131:20355   */\n    tag_414:\n        /* \"#utility.yul\":20271:20305   */\n      0x45524332303a207472616e736665722066726f6d20746865207a65726f206164\n        /* \"#utility.yul\":20267:20268   */\n      0x00\n        /* \"#utility.yul\":20259:20265   */\n      dup3\n        /* \"#utility.yul\":20255:20269   */\n      add\n        /* \"#utility.yul\":20248:20306   */\n      mstore\n        /* \"#utility.yul\":20340:20347   */\n      0x6472657373000000000000000000000000000000000000000000000000000000\n        /* \"#utility.yul\":20335:20337   */\n      0x20\n        /* \"#utility.yul\":20327:20333   */\n      dup3\n        /* \"#utility.yul\":20323:20338   */\n      add\n        /* \"#utility.yul\":20316:20348   */\n      mstore\n        /* \"#utility.yul\":20131:20355   */\n      pop\n      jump\t// out\n        /* \"#utility.yul\":20361:20727   */\n    tag_415:\n        /* \"#utility.yul\":20503:20506   */\n      0x00\n        /* \"#utility.yul\":20524:20591   */\n      tag_649\n        /* \"#utility.yul\":20588:20590   */\n      0x25\n        /* \"#utility.yul\":20583:20586   */\n      dup4\n        /* \"#utility.yul\":20524:20591   */\n      tag_367\n      jump\t// in\n    tag_649:\n        /* \"#utility.yul\":20517:20591   */\n      swap2\n      pop\n        /* \"#utility.yul\":20600:20693   */\n      tag_650\n        /* \"#utility.yul\":20689:20692   */\n      dup3\n        /* \"#utility.yul\":20600:20693   */\n      tag_414\n      jump\t// in\n    tag_650:\n        /* \"#utility.yul\":20718:20720   */\n      0x40\n        /* \"#utility.yul\":20713:20716   */\n      dup3\n        /* \"#utility.yul\":20709:20721   */\n      add\n        /* \"#utility.yul\":20702:20721   */\n      swap1\n      pop\n        /* \"#utility.yul\":20361:20727   */\n      swap2\n      swap1\n      pop\n      jump\t// out\n        /* \"#utility.yul\":20733:21152   */\n    tag_240:\n        /* \"#utility.yul\":20899:20903   */\n      0x00\n        /* \"#utility.yul\":20937:20939   */\n      0x20\n        /* \"#utility.yul\":20926:20935   */\n      dup3\n        /* \"#utility.yul\":20922:20940   */\n      add\n        /* \"#utility.yul\":20914:20940   */\n      swap1\n      pop\n        /* \"#utility.yul\":20986:20995   */\n      dup2\n        /* \"#utility.yul\":20980:20984   */\n      dup2\n        /* \"#utility.yul\":20976:20996   */\n      sub\n        /* \"#utility.yul\":20972:20973   */\n      0x00\n        /* \"#utility.yul\":20961:20970   */\n      dup4\n        /* \"#utility.yul\":20957:20974   */\n      add\n        /* \"#utility.yul\":20950:20997   */\n      mstore\n        /* \"#utility.yul\":21014:21145   */\n      tag_652\n        /* \"#utility.yul\":21140:21144   */\n      dup2\n        /* \"#utility.yul\":21014:21145   */\n      tag_415\n      jump\t// in\n    tag_652:\n        /* \"#utility.yul\":21006:21145   */\n      swap1\n      pop\n        /* \"#utility.yul\":20733:21152   */\n      swap2\n      swap1\n      pop\n      jump\t// out\n        /* \"#utility.yul\":21158:21380   */\n    tag_416:\n        /* \"#utility.yul\":21298:21332   */\n      0x45524332303a207472616e7366657220746f20746865207a65726f2061646472\n        /* \"#utility.yul\":21294:21295   */\n      0x00\n        /* \"#utility.yul\":21286:21292   */\n      dup3\n        /* \"#utility.yul\":21282:21296   */\n      add\n        /* \"#utility.yul\":21275:21333   */\n      mstore\n        /* \"#utility.yul\":21367:21372   */\n      0x6573730000000000000000000000000000000000000000000000000000000000\n        /* \"#utility.yul\":21362:21364   */\n      0x20\n        /* \"#utility.yul\":21354:21360   */\n      dup3\n        /* \"#utility.yul\":21350:21365   */\n      add\n        /* \"#utility.yul\":21343:21373   */\n      mstore\n        /* \"#utility.yul\":21158:21380   */\n      pop\n      jump\t// out\n        /* \"#utility.yul\":21386:21752   */\n    tag_417:\n        /* \"#utility.yul\":21528:21531   */\n      0x00\n        /* \"#utility.yul\":21549:21616   */\n      tag_655\n        /* \"#utility.yul\":21613:21615   */\n      0x23\n        /* \"#utility.yul\":21608:21611   */\n      dup4\n        /* \"#utility.yul\":21549:21616   */\n      tag_367\n      jump\t// in\n    tag_655:\n        /* \"#utility.yul\":21542:21616   */\n      swap2\n      pop\n        /* \"#utility.yul\":21625:21718   */\n      tag_656\n        /* \"#utility.yul\":21714:21717   */\n      dup3\n        /* \"#utility.yul\":21625:21718   */\n      tag_416\n      jump\t// in\n    tag_656:\n        /* \"#utility.yul\":21743:21745   */\n      0x40\n        /* \"#utility.yul\":21738:21741   */\n      dup3\n        /* \"#utility.yul\":21734:21746   */\n      add\n        /* \"#utility.yul\":21727:21746   */\n      swap1\n      pop\n        /* \"#utility.yul\":21386:21752   */\n      swap2\n      swap1\n      pop\n      jump\t// out\n        /* \"#utility.yul\":21758:22177   */\n    tag_243:\n        /* \"#utility.yul\":21924:21928   */\n      0x00\n        /* \"#utility.yul\":21962:21964   */\n      0x20\n        /* \"#utility.yul\":21951:21960   */\n      dup3\n        /* \"#utility.yul\":21947:21965   */\n      add\n        /* \"#utility.yul\":21939:21965   */\n      swap1\n      pop\n        /* \"#utility.yul\":22011:22020   */\n      dup2\n        /* \"#utility.yul\":22005:22009   */\n      dup2\n        /* \"#utility.yul\":22001:22021   */\n      sub\n        /* \"#utility.yul\":21997:21998   */\n      0x00\n        /* \"#utility.yul\":21986:21995   */\n      dup4\n        /* \"#utility.yul\":21982:21999   */\n      add\n        /* \"#utility.yul\":21975:22022   */\n      mstore\n        /* \"#utility.yul\":22039:22170   */\n      tag_658\n        /* \"#utility.yul\":22165:22169   */\n      dup2\n        /* \"#utility.yul\":22039:22170   */\n      tag_417\n      jump\t// in\n    tag_658:\n        /* \"#utility.yul\":22031:22170   */\n      swap1\n      pop\n        /* \"#utility.yul\":21758:22177   */\n      swap2\n      swap1\n      pop\n      jump\t// out\n        /* \"#utility.yul\":22183:22411   */\n    tag_418:\n        /* \"#utility.yul\":22323:22357   */\n      0x5472616e7366657220616d6f756e74206d757374206265206772656174657220\n        /* \"#utility.yul\":22319:22320   */\n      0x00\n        /* \"#utility.yul\":22311:22317   */\n      dup3\n        /* \"#utility.yul\":22307:22321   */\n      add\n        /* \"#utility.yul\":22300:22358   */\n      mstore\n        /* \"#utility.yul\":22392:22403   */\n      0x7468616e207a65726f0000000000000000000000000000000000000000000000\n        /* \"#utility.yul\":22387:22389   */\n      0x20\n        /* \"#utility.yul\":22379:22385   */\n      dup3\n        /* \"#utility.yul\":22375:22390   */\n      add\n        /* \"#utility.yul\":22368:22404   */\n      mstore\n        /* \"#utility.yul\":22183:22411   */\n      pop\n      jump\t// out\n        /* \"#utility.yul\":22417:22783   */\n    tag_419:\n        /* \"#utility.yul\":22559:22562   */\n      0x00\n        /* \"#utility.yul\":22580:22647   */\n      tag_661\n        /* \"#utility.yul\":22644:22646   */\n      0x29\n        /* \"#utility.yul\":22639:22642   */\n      dup4\n        /* \"#utility.yul\":22580:22647   */\n      tag_367\n      jump\t// in\n    tag_661:\n        /* \"#utility.yul\":22573:22647   */\n      swap2\n      pop\n        /* \"#utility.yul\":22656:22749   */\n      tag_662\n        /* \"#utility.yul\":22745:22748   */\n      dup3\n        /* \"#utility.yul\":22656:22749   */\n      tag_418\n      jump\t// in\n    tag_662:\n        /* \"#utility.yul\":22774:22776   */\n      0x40\n        /* \"#utility.yul\":22769:22772   */\n      dup3\n        /* \"#utility.yul\":22765:22777   */\n      add\n        /* \"#utility.yul\":22758:22777   */\n      swap1\n      pop\n        /* \"#utility.yul\":22417:22783   */\n      swap2\n      swap1\n      pop\n      jump\t// out\n        /* \"#utility.yul\":22789:23208   */\n    tag_246:\n        /* \"#utility.yul\":22955:22959   */\n      0x00\n        /* \"#utility.yul\":22993:22995   */\n      0x20\n        /* \"#utility.yul\":22982:22991   */\n      dup3\n        /* \"#utility.yul\":22978:22996   */\n      add\n        /* \"#utility.yul\":22970:22996   */\n      swap1\n      pop\n        /* \"#utility.yul\":23042:23051   */\n      dup2\n        /* \"#utility.yul\":23036:23040   */\n      dup2\n        /* \"#utility.yul\":23032:23052   */\n      sub\n        /* \"#utility.yul\":23028:23029   */\n      0x00\n        /* \"#utility.yul\":23017:23026   */\n      dup4\n        /* \"#utility.yul\":23013:23030   */\n      add\n        /* \"#utility.yul\":23006:23053   */\n      mstore\n        /* \"#utility.yul\":23070:23201   */\n      tag_664\n        /* \"#utility.yul\":23196:23200   */\n      dup2\n        /* \"#utility.yul\":23070:23201   */\n      tag_419\n      jump\t// in\n    tag_664:\n        /* \"#utility.yul\":23062:23201   */\n      swap1\n      pop\n        /* \"#utility.yul\":22789:23208   */\n      swap2\n      swap1\n      pop\n      jump\t// out\n        /* \"#utility.yul\":23214:23389   */\n    tag_420:\n        /* \"#utility.yul\":23354:23381   */\n      0x4578636565647320746865205f6d61785478416d6f756e742e00000000000000\n        /* \"#utility.yul\":23350:23351   */\n      0x00\n        /* \"#utility.yul\":23342:23348   */\n      dup3\n        /* \"#utility.yul\":23338:23352   */\n      add\n        /* \"#utility.yul\":23331:23382   */\n      mstore\n        /* \"#utility.yul\":23214:23389   */\n      pop\n      jump\t// out\n        /* \"#utility.yul\":23395:23761   */\n    tag_421:\n        /* \"#utility.yul\":23537:23540   */\n      0x00\n        /* \"#utility.yul\":23558:23625   */\n      tag_667\n        /* \"#utility.yul\":23622:23624   */\n      0x19\n        /* \"#utility.yul\":23617:23620   */\n      dup4\n        /* \"#utility.yul\":23558:23625   */\n      tag_367\n      jump\t// in\n    tag_667:\n        /* \"#utility.yul\":23551:23625   */\n      swap2\n      pop\n        /* \"#utility.yul\":23634:23727   */\n      tag_668\n        /* \"#utility.yul\":23723:23726   */\n      dup3\n        /* \"#utility.yul\":23634:23727   */\n      tag_420\n      jump\t// in\n    tag_668:\n        /* \"#utility.yul\":23752:23754   */\n      0x20\n        /* \"#utility.yul\":23747:23750   */\n      dup3\n        /* \"#utility.yul\":23743:23755   */\n      add\n        /* \"#utility.yul\":23736:23755   */\n      swap1\n      pop\n        /* \"#utility.yul\":23395:23761   */\n      swap2\n      swap1\n      pop\n      jump\t// out\n        /* \"#utility.yul\":23767:24186   */\n    tag_264:\n        /* \"#utility.yul\":23933:23937   */\n      0x00\n        /* \"#utility.yul\":23971:23973   */\n      0x20\n        /* \"#utility.yul\":23960:23969   */\n      dup3\n        /* \"#utility.yul\":23956:23974   */\n      add\n        /* \"#utility.yul\":23948:23974   */\n      swap1\n      pop\n        /* \"#utility.yul\":24020:24029   */\n      dup2\n        /* \"#utility.yul\":24014:24018   */\n      dup2\n        /* \"#utility.yul\":24010:24030   */\n      sub\n        /* \"#utility.yul\":24006:24007   */\n      0x00\n        /* \"#utility.yul\":23995:24004   */\n      dup4\n        /* \"#utility.yul\":23991:24008   */\n      add\n        /* \"#utility.yul\":23984:24031   */\n      mstore\n        /* \"#utility.yul\":24048:24179   */\n      tag_670\n        /* \"#utility.yul\":24174:24178   */\n      dup2\n        /* \"#utility.yul\":24048:24179   */\n      tag_421\n      jump\t// in\n    tag_670:\n        /* \"#utility.yul\":24040:24179   */\n      swap1\n      pop\n        /* \"#utility.yul\":23767:24186   */\n      swap2\n      swap1\n      pop\n      jump\t// out\n        /* \"#utility.yul\":24192:24383   */\n    tag_267:\n        /* \"#utility.yul\":24232:24235   */\n      0x00\n        /* \"#utility.yul\":24251:24271   */\n      tag_672\n        /* \"#utility.yul\":24269:24270   */\n      dup3\n        /* \"#utility.yul\":24251:24271   */\n      tag_378\n      jump\t// in\n    tag_672:\n        /* \"#utility.yul\":24246:24271   */\n      swap2\n      pop\n        /* \"#utility.yul\":24285:24305   */\n      tag_673\n        /* \"#utility.yul\":24303:24304   */\n      dup4\n        /* \"#utility.yul\":24285:24305   */\n      tag_378\n      jump\t// in\n    tag_673:\n        /* \"#utility.yul\":24280:24305   */\n      swap3\n      pop\n        /* \"#utility.yul\":24328:24329   */\n      dup3\n        /* \"#utility.yul\":24325:24326   */\n      dup3\n        /* \"#utility.yul\":24321:24330   */\n      add\n        /* \"#utility.yul\":24314:24330   */\n      swap1\n      pop\n        /* \"#utility.yul\":24349:24352   */\n      dup1\n        /* \"#utility.yul\":24346:24347   */\n      dup3\n        /* \"#utility.yul\":24343:24353   */\n      gt\n        /* \"#utility.yul\":24340:24376   */\n      iszero\n      tag_674\n      jumpi\n        /* \"#utility.yul\":24356:24374   */\n      tag_675\n      tag_394\n      jump\t// in\n    tag_675:\n        /* \"#utility.yul\":24340:24376   */\n    tag_674:\n        /* \"#utility.yul\":24192:24383   */\n      swap3\n      swap2\n      pop\n      pop\n      jump\t// out\n        /* \"#utility.yul\":24389:24565   */\n    tag_422:\n        /* \"#utility.yul\":24529:24557   */\n      0x4578636565647320746865206d617857616c6c657453697a652e000000000000\n        /* \"#utility.yul\":24525:24526   */\n      0x00\n        /* \"#utility.yul\":24517:24523   */\n      dup3\n        /* \"#utility.yul\":24513:24527   */\n      add\n        /* \"#utility.yul\":24506:24558   */\n      mstore\n        /* \"#utility.yul\":24389:24565   */\n      pop\n      jump\t// out\n        /* \"#utility.yul\":24571:24937   */\n    tag_423:\n        /* \"#utility.yul\":24713:24716   */\n      0x00\n        /* \"#utility.yul\":24734:24801   */\n      tag_678\n        /* \"#utility.yul\":24798:24800   */\n      0x1a\n        /* \"#utility.yul\":24793:24796   */\n      dup4\n        /* \"#utility.yul\":24734:24801   */\n      tag_367\n      jump\t// in\n    tag_678:\n        /* \"#utility.yul\":24727:24801   */\n      swap2\n      pop\n        /* \"#utility.yul\":24810:24903   */\n      tag_679\n        /* \"#utility.yul\":24899:24902   */\n      dup3\n        /* \"#utility.yul\":24810:24903   */\n      tag_422\n      jump\t// in\n    tag_679:\n        /* \"#utility.yul\":24928:24930   */\n      0x20\n        /* \"#utility.yul\":24923:24926   */\n      dup3\n        /* \"#utility.yul\":24919:24931   */\n      add\n        /* \"#utility.yul\":24912:24931   */\n      swap1\n      pop\n        /* \"#utility.yul\":24571:24937   */\n      swap2\n      swap1\n      pop\n      jump\t// out\n        /* \"#utility.yul\":24943:25362   */\n    tag_270:\n        /* \"#utility.yul\":25109:25113   */\n      0x00\n        /* \"#utility.yul\":25147:25149   */\n      0x20\n        /* \"#utility.yul\":25136:25145   */\n      dup3\n        /* \"#utility.yul\":25132:25150   */\n      add\n        /* \"#utility.yul\":25124:25150   */\n      swap1\n      pop\n        /* \"#utility.yul\":25196:25205   */\n      dup2\n        /* \"#utility.yul\":25190:25194   */\n      dup2\n        /* \"#utility.yul\":25186:25206   */\n      sub\n        /* \"#utility.yul\":25182:25183   */\n      0x00\n        /* \"#utility.yul\":25171:25180   */\n      dup4\n        /* \"#utility.yul\":25167:25184   */\n      add\n        /* \"#utility.yul\":25160:25207   */\n      mstore\n        /* \"#utility.yul\":25224:25355   */\n      tag_681\n        /* \"#utility.yul\":25350:25354   */\n      dup2\n        /* \"#utility.yul\":25224:25355   */\n      tag_423\n      jump\t// in\n    tag_681:\n        /* \"#utility.yul\":25216:25355   */\n      swap1\n      pop\n        /* \"#utility.yul\":24943:25362   */\n      swap2\n      swap1\n      pop\n      jump\t// out\n        /* \"#utility.yul\":25368:25562   */\n    tag_317:\n        /* \"#utility.yul\":25408:25412   */\n      0x00\n        /* \"#utility.yul\":25428:25448   */\n      tag_683\n        /* \"#utility.yul\":25446:25447   */\n      dup3\n        /* \"#utility.yul\":25428:25448   */\n      tag_378\n      jump\t// in\n    tag_683:\n        /* \"#utility.yul\":25423:25448   */\n      swap2\n      pop\n        /* \"#utility.yul\":25462:25482   */\n      tag_684\n        /* \"#utility.yul\":25480:25481   */\n      dup4\n        /* \"#utility.yul\":25462:25482   */\n      tag_378\n      jump\t// in\n    tag_684:\n        /* \"#utility.yul\":25457:25482   */\n      swap3\n      pop\n        /* \"#utility.yul\":25506:25507   */\n      dup3\n        /* \"#utility.yul\":25503:25504   */\n      dup3\n        /* \"#utility.yul\":25499:25508   */\n      sub\n        /* \"#utility.yul\":25491:25508   */\n      swap1\n      pop\n        /* \"#utility.yul\":25530:25531   */\n      dup2\n        /* \"#utility.yul\":25524:25528   */\n      dup2\n        /* \"#utility.yul\":25521:25532   */\n      gt\n        /* \"#utility.yul\":25518:25555   */\n      iszero\n      tag_685\n      jumpi\n        /* \"#utility.yul\":25535:25553   */\n      tag_686\n      tag_394\n      jump\t// in\n    tag_686:\n        /* \"#utility.yul\":25518:25555   */\n    tag_685:\n        /* \"#utility.yul\":25368:25562   */\n      swap3\n      swap2\n      pop\n      pop\n      jump\t// out\n        /* \"#utility.yul\":25568:25748   */\n    tag_424:\n        /* \"#utility.yul\":25616:25693   */\n      0x4e487b7100000000000000000000000000000000000000000000000000000000\n        /* \"#utility.yul\":25613:25614   */\n      0x00\n        /* \"#utility.yul\":25606:25694   */\n      mstore\n        /* \"#utility.yul\":25713:25717   */\n      0x12\n        /* \"#utility.yul\":25710:25711   */\n      0x04\n        /* \"#utility.yul\":25703:25718   */\n      mstore\n        /* \"#utility.yul\":25737:25741   */\n      0x24\n        /* \"#utility.yul\":25734:25735   */\n      0x00\n        /* \"#utility.yul\":25727:25742   */\n      revert\n        /* \"#utility.yul\":25754:25939   */\n    tag_322:\n        /* \"#utility.yul\":25794:25795   */\n      0x00\n        /* \"#utility.yul\":25811:25831   */\n      tag_689\n        /* \"#utility.yul\":25829:25830   */\n      dup3\n        /* \"#utility.yul\":25811:25831   */\n      tag_378\n      jump\t// in\n    tag_689:\n        /* \"#utility.yul\":25806:25831   */\n      swap2\n      pop\n        /* \"#utility.yul\":25845:25865   */\n      tag_690\n        /* \"#utility.yul\":25863:25864   */\n      dup4\n        /* \"#utility.yul\":25845:25865   */\n      tag_378\n      jump\t// in\n    tag_690:\n        /* \"#utility.yul\":25840:25865   */\n      swap3\n      pop\n        /* \"#utility.yul\":25884:25885   */\n      dup3\n        /* \"#utility.yul\":25874:25909   */\n      tag_691\n      jumpi\n        /* \"#utility.yul\":25889:25907   */\n      tag_692\n      tag_424\n      jump\t// in\n    tag_692:\n        /* \"#utility.yul\":25874:25909   */\n    tag_691:\n        /* \"#utility.yul\":25931:25932   */\n      dup3\n        /* \"#utility.yul\":25928:25929   */\n      dup3\n        /* \"#utility.yul\":25924:25933   */\n      div\n        /* \"#utility.yul\":25919:25933   */\n      swap1\n      pop\n        /* \"#utility.yul\":25754:25939   */\n      swap3\n      swap2\n      pop\n      pop\n      jump\t// out\n        /* \"#utility.yul\":25945:26165   */\n    tag_425:\n        /* \"#utility.yul\":26085:26119   */\n      0x536166654d6174683a206d756c7469706c69636174696f6e206f766572666c6f\n        /* \"#utility.yul\":26081:26082   */\n      0x00\n        /* \"#utility.yul\":26073:26079   */\n      dup3\n        /* \"#utility.yul\":26069:26083   */\n      add\n        /* \"#utility.yul\":26062:26120   */\n      mstore\n        /* \"#utility.yul\":26154:26157   */\n      0x7700000000000000000000000000000000000000000000000000000000000000\n        /* \"#utility.yul\":26149:26151   */\n      0x20\n        /* \"#utility.yul\":26141:26147   */\n      dup3\n        /* \"#utility.yul\":26137:26152   */\n      add\n        /* \"#utility.yul\":26130:26158   */\n      mstore\n        /* \"#utility.yul\":25945:26165   */\n      pop\n      jump\t// out\n        /* \"#utility.yul\":26171:26537   */\n    tag_426:\n        /* \"#utility.yul\":26313:26316   */\n      0x00\n        /* \"#utility.yul\":26334:26401   */\n      tag_695\n        /* \"#utility.yul\":26398:26400   */\n      0x21\n        /* \"#utility.yul\":26393:26396   */\n      dup4\n        /* \"#utility.yul\":26334:26401   */\n      tag_367\n      jump\t// in\n    tag_695:\n        /* \"#utility.yul\":26327:26401   */\n      swap2\n      pop\n        /* \"#utility.yul\":26410:26503   */\n      tag_696\n        /* \"#utility.yul\":26499:26502   */\n      dup3\n        /* \"#utility.yul\":26410:26503   */\n      tag_425\n      jump\t// in\n    tag_696:\n        /* \"#utility.yul\":26528:26530   */\n      0x40\n        /* \"#utility.yul\":26523:26526   */\n      dup3\n        /* \"#utility.yul\":26519:26531   */\n      add\n        /* \"#utility.yul\":26512:26531   */\n      swap1\n      pop\n        /* \"#utility.yul\":26171:26537   */\n      swap2\n      swap1\n      pop\n      jump\t// out\n        /* \"#utility.yul\":26543:26962   */\n    tag_325:\n        /* \"#utility.yul\":26709:26713   */\n      0x00\n        /* \"#utility.yul\":26747:26749   */\n      0x20\n        /* \"#utility.yul\":26736:26745   */\n      dup3\n        /* \"#utility.yul\":26732:26750   */\n      add\n        /* \"#utility.yul\":26724:26750   */\n      swap1\n      pop\n        /* \"#utility.yul\":26796:26805   */\n      dup2\n        /* \"#utility.yul\":26790:26794   */\n      dup2\n        /* \"#utility.yul\":26786:26806   */\n      sub\n        /* \"#utility.yul\":26782:26783   */\n      0x00\n        /* \"#utility.yul\":26771:26780   */\n      dup4\n        /* \"#utility.yul\":26767:26784   */\n      add\n        /* \"#utility.yul\":26760:26807   */\n      mstore\n        /* \"#utility.yul\":26824:26955   */\n      tag_698\n        /* \"#utility.yul\":26950:26954   */\n      dup2\n        /* \"#utility.yul\":26824:26955   */\n      tag_426\n      jump\t// in\n    tag_698:\n        /* \"#utility.yul\":26816:26955   */\n      swap1\n      pop\n        /* \"#utility.yul\":26543:26962   */\n      swap2\n      swap1\n      pop\n      jump\t// out\n        /* \"#utility.yul\":26968:27082   */\n    tag_427:\n        /* \"#utility.yul\":27035:27041   */\n      0x00\n        /* \"#utility.yul\":27069:27074   */\n      dup2\n        /* \"#utility.yul\":27063:27075   */\n      mload\n        /* \"#utility.yul\":27053:27075   */\n      swap1\n      pop\n        /* \"#utility.yul\":26968:27082   */\n      swap2\n      swap1\n      pop\n      jump\t// out\n        /* \"#utility.yul\":27088:27272   */\n    tag_428:\n        /* \"#utility.yul\":27187:27198   */\n      0x00\n        /* \"#utility.yul\":27221:27227   */\n      dup3\n        /* \"#utility.yul\":27216:27219   */\n      dup3\n        /* \"#utility.yul\":27209:27228   */\n      mstore\n        /* \"#utility.yul\":27261:27265   */\n      0x20\n        /* \"#utility.yul\":27256:27259   */\n      dup3\n        /* \"#utility.yul\":27252:27266   */\n      add\n        /* \"#utility.yul\":27237:27266   */\n      swap1\n      pop\n        /* \"#utility.yul\":27088:27272   */\n      swap3\n      swap2\n      pop\n      pop\n      jump\t// out\n        /* \"#utility.yul\":27278:27410   */\n    tag_429:\n        /* \"#utility.yul\":27345:27349   */\n      0x00\n        /* \"#utility.yul\":27368:27371   */\n      dup2\n        /* \"#utility.yul\":27360:27371   */\n      swap1\n      pop\n        /* \"#utility.yul\":27398:27402   */\n      0x20\n        /* \"#utility.yul\":27393:27396   */\n      dup3\n        /* \"#utility.yul\":27389:27403   */\n      add\n        /* \"#utility.yul\":27381:27403   */\n      swap1\n      pop\n        /* \"#utility.yul\":27278:27410   */\n      swap2\n      swap1\n      pop\n      jump\t// out\n        /* \"#utility.yul\":27416:27524   */\n    tag_430:\n        /* \"#utility.yul\":27493:27517   */\n      tag_703\n        /* \"#utility.yul\":27511:27516   */\n      dup2\n        /* \"#utility.yul\":27493:27517   */\n      tag_375\n      jump\t// in\n    tag_703:\n        /* \"#utility.yul\":27488:27491   */\n      dup3\n        /* \"#utility.yul\":27481:27518   */\n      mstore\n        /* \"#utility.yul\":27416:27524   */\n      pop\n      pop\n      jump\t// out\n        /* \"#utility.yul\":27530:27709   */\n    tag_431:\n        /* \"#utility.yul\":27599:27609   */\n      0x00\n        /* \"#utility.yul\":27620:27666   */\n      tag_705\n        /* \"#utility.yul\":27662:27665   */\n      dup4\n        /* \"#utility.yul\":27654:27660   */\n      dup4\n        /* \"#utility.yul\":27620:27666   */\n      tag_430\n      jump\t// in\n    tag_705:\n        /* \"#utility.yul\":27698:27702   */\n      0x20\n        /* \"#utility.yul\":27693:27696   */\n      dup4\n        /* \"#utility.yul\":27689:27703   */\n      add\n        /* \"#utility.yul\":27675:27703   */\n      swap1\n      pop\n        /* \"#utility.yul\":27530:27709   */\n      swap3\n      swap2\n      pop\n      pop\n      jump\t// out\n        /* \"#utility.yul\":27715:27828   */\n    tag_432:\n        /* \"#utility.yul\":27785:27789   */\n      0x00\n        /* \"#utility.yul\":27817:27821   */\n      0x20\n        /* \"#utility.yul\":27812:27815   */\n      dup3\n        /* \"#utility.yul\":27808:27822   */\n      add\n        /* \"#utility.yul\":27800:27822   */\n      swap1\n      pop\n        /* \"#utility.yul\":27715:27828   */\n      swap2\n      swap1\n      pop\n      jump\t// out\n        /* \"#utility.yul\":27864:28596   */\n    tag_433:\n        /* \"#utility.yul\":27983:27986   */\n      0x00\n        /* \"#utility.yul\":28012:28066   */\n      tag_708\n        /* \"#utility.yul\":28060:28065   */\n      dup3\n        /* \"#utility.yul\":28012:28066   */\n      tag_427\n      jump\t// in\n    tag_708:\n        /* \"#utility.yul\":28082:28168   */\n      tag_709\n        /* \"#utility.yul\":28161:28167   */\n      dup2\n        /* \"#utility.yul\":28156:28159   */\n      dup6\n        /* \"#utility.yul\":28082:28168   */\n      tag_428\n      jump\t// in\n    tag_709:\n        /* \"#utility.yul\":28075:28168   */\n      swap4\n      pop\n        /* \"#utility.yul\":28192:28248   */\n      tag_710\n        /* \"#utility.yul\":28242:28247   */\n      dup4\n        /* \"#utility.yul\":28192:28248   */\n      tag_429\n      jump\t// in\n    tag_710:\n        /* \"#utility.yul\":28271:28278   */\n      dup1\n        /* \"#utility.yul\":28302:28303   */\n      0x00\n        /* \"#utility.yul\":28287:28571   */\n    tag_711:\n        /* \"#utility.yul\":28312:28318   */\n      dup4\n        /* \"#utility.yul\":28309:28310   */\n      dup2\n        /* \"#utility.yul\":28306:28319   */\n      lt\n        /* \"#utility.yul\":28287:28571   */\n      iszero\n      tag_713\n      jumpi\n        /* \"#utility.yul\":28388:28394   */\n      dup2\n        /* \"#utility.yul\":28382:28395   */\n      mload\n        /* \"#utility.yul\":28415:28478   */\n      tag_714\n        /* \"#utility.yul\":28474:28477   */\n      dup9\n        /* \"#utility.yul\":28459:28472   */\n      dup3\n        /* \"#utility.yul\":28415:28478   */\n      tag_431\n      jump\t// in\n    tag_714:\n        /* \"#utility.yul\":28408:28478   */\n      swap8\n      pop\n        /* \"#utility.yul\":28501:28561   */\n      tag_715\n        /* \"#utility.yul\":28554:28560   */\n      dup4\n        /* \"#utility.yul\":28501:28561   */\n      tag_432\n      jump\t// in\n    tag_715:\n        /* \"#utility.yul\":28491:28561   */\n      swap3\n      pop\n        /* \"#utility.yul\":28347:28571   */\n      pop\n        /* \"#utility.yul\":28334:28335   */\n      0x01\n        /* \"#utility.yul\":28331:28332   */\n      dup2\n        /* \"#utility.yul\":28327:28336   */\n      add\n        /* \"#utility.yul\":28322:28336   */\n      swap1\n      pop\n        /* \"#utility.yul\":28287:28571   */\n      jump(tag_711)\n    tag_713:\n        /* \"#utility.yul\":28291:28305   */\n      pop\n        /* \"#utility.yul\":28587:28590   */\n      dup6\n        /* \"#utility.yul\":28580:28590   */\n      swap4\n      pop\n        /* \"#utility.yul\":27988:28596   */\n      pop\n      pop\n      pop\n        /* \"#utility.yul\":27864:28596   */\n      swap3\n      swap2\n      pop\n      pop\n      jump\t// out\n        /* \"#utility.yul\":28602:29433   */\n    tag_348:\n        /* \"#utility.yul\":28865:28869   */\n      0x00\n        /* \"#utility.yul\":28903:28906   */\n      0xa0\n        /* \"#utility.yul\":28892:28901   */\n      dup3\n        /* \"#utility.yul\":28888:28907   */\n      add\n        /* \"#utility.yul\":28880:28907   */\n      swap1\n      pop\n        /* \"#utility.yul\":28917:28988   */\n      tag_717\n        /* \"#utility.yul\":28985:28986   */\n      0x00\n        /* \"#utility.yul\":28974:28983   */\n      dup4\n        /* \"#utility.yul\":28970:28987   */\n      add\n        /* \"#utility.yul\":28961:28967   */\n      dup9\n        /* \"#utility.yul\":28917:28988   */\n      tag_383\n      jump\t// in\n    tag_717:\n        /* \"#utility.yul\":28998:29078   */\n      tag_718\n        /* \"#utility.yul\":29074:29076   */\n      0x20\n        /* \"#utility.yul\":29063:29072   */\n      dup4\n        /* \"#utility.yul\":29059:29077   */\n      add\n        /* \"#utility.yul\":29050:29056   */\n      dup8\n        /* \"#utility.yul\":28998:29078   */\n      tag_406\n      jump\t// in\n    tag_718:\n        /* \"#utility.yul\":29125:29134   */\n      dup2\n        /* \"#utility.yul\":29119:29123   */\n      dup2\n        /* \"#utility.yul\":29115:29135   */\n      sub\n        /* \"#utility.yul\":29110:29112   */\n      0x40\n        /* \"#utility.yul\":29099:29108   */\n      dup4\n        /* \"#utility.yul\":29095:29113   */\n      add\n        /* \"#utility.yul\":29088:29136   */\n      mstore\n        /* \"#utility.yul\":29153:29261   */\n      tag_719\n        /* \"#utility.yul\":29256:29260   */\n      dup2\n        /* \"#utility.yul\":29247:29253   */\n      dup7\n        /* \"#utility.yul\":29153:29261   */\n      tag_433\n      jump\t// in\n    tag_719:\n        /* \"#utility.yul\":29145:29261   */\n      swap1\n      pop\n        /* \"#utility.yul\":29271:29343   */\n      tag_720\n        /* \"#utility.yul\":29339:29341   */\n      0x60\n        /* \"#utility.yul\":29328:29337   */\n      dup4\n        /* \"#utility.yul\":29324:29342   */\n      add\n        /* \"#utility.yul\":29315:29321   */\n      dup6\n        /* \"#utility.yul\":29271:29343   */\n      tag_393\n      jump\t// in\n    tag_720:\n        /* \"#utility.yul\":29353:29426   */\n      tag_721\n        /* \"#utility.yul\":29421:29424   */\n      0x80\n        /* \"#utility.yul\":29410:29419   */\n      dup4\n        /* \"#utility.yul\":29406:29425   */\n      add\n        /* \"#utility.yul\":29397:29403   */\n      dup5\n        /* \"#utility.yul\":29353:29426   */\n      tag_383\n      jump\t// in\n    tag_721:\n        /* \"#utility.yul\":28602:29433   */\n      swap7\n      swap6\n      pop\n      pop\n      pop\n      pop\n      pop\n      pop\n      jump\t// out\n        /* \"#utility.yul\":29439:29616   */\n    tag_434:\n        /* \"#utility.yul\":29579:29608   */\n      0x536166654d6174683a206164646974696f6e206f766572666c6f770000000000\n        /* \"#utility.yul\":29575:29576   */\n      0x00\n        /* \"#utility.yul\":29567:29573   */\n      dup3\n        /* \"#utility.yul\":29563:29577   */\n      add\n        /* \"#utility.yul\":29556:29609   */\n      mstore\n        /* \"#utility.yul\":29439:29616   */\n      pop\n      jump\t// out\n        /* \"#utility.yul\":29622:29988   */\n    tag_435:\n        /* \"#utility.yul\":29764:29767   */\n      0x00\n        /* \"#utility.yul\":29785:29852   */\n      tag_724\n        /* \"#utility.yul\":29849:29851   */\n      0x1b\n        /* \"#utility.yul\":29844:29847   */\n      dup4\n        /* \"#utility.yul\":29785:29852   */\n      tag_367\n      jump\t// in\n    tag_724:\n        /* \"#utility.yul\":29778:29852   */\n      swap2\n      pop\n        /* \"#utility.yul\":29861:29954   */\n      tag_725\n        /* \"#utility.yul\":29950:29953   */\n      dup3\n        /* \"#utility.yul\":29861:29954   */\n      tag_434\n      jump\t// in\n    tag_725:\n        /* \"#utility.yul\":29979:29981   */\n      0x20\n        /* \"#utility.yul\":29974:29977   */\n      dup3\n        /* \"#utility.yul\":29970:29982   */\n      add\n        /* \"#utility.yul\":29963:29982   */\n      swap1\n      pop\n        /* \"#utility.yul\":29622:29988   */\n      swap2\n      swap1\n      pop\n      jump\t// out\n        /* \"#utility.yul\":29994:30413   */\n    tag_359:\n        /* \"#utility.yul\":30160:30164   */\n      0x00\n        /* \"#utility.yul\":30198:30200   */\n      0x20\n        /* \"#utility.yul\":30187:30196   */\n      dup3\n        /* \"#utility.yul\":30183:30201   */\n      add\n        /* \"#utility.yul\":30175:30201   */\n      swap1\n      pop\n        /* \"#utility.yul\":30247:30256   */\n      dup2\n        /* \"#utility.yul\":30241:30245   */\n      dup2\n        /* \"#utility.yul\":30237:30257   */\n      sub\n        /* \"#utility.yul\":30233:30234   */\n      0x00\n        /* \"#utility.yul\":30222:30231   */\n      dup4\n        /* \"#utility.yul\":30218:30235   */\n      add\n        /* \"#utility.yul\":30211:30258   */\n      mstore\n        /* \"#utility.yul\":30275:30406   */\n      tag_727\n        /* \"#utility.yul\":30401:30405   */\n      dup2\n        /* \"#utility.yul\":30275:30406   */\n      tag_435\n      jump\t// in\n    tag_727:\n        /* \"#utility.yul\":30267:30406   */\n      swap1\n      pop\n        /* \"#utility.yul\":29994:30413   */\n      swap2\n      swap1\n      pop\n      jump\t// out\n    stop\n    data_974d1b4421da69cc60b481194f0dad36a5bb4e23da810da7a7fb30cdba178330 45524332303a207472616e7366657220616d6f756e74206578636565647320616c6c6f77616e6365\n\n    auxdata: 0xa26469706673582212203cf96dace3ba41ff5ba42b9d87ba806e2f2c22facc4524bdbb6a92f4380f74d364736f6c63430008140033\n}\n",
				"bytecode": {
					"linkReferences": {},
					"object": "6080604052601460075560146008555f6009555f600a556032600b556032600c556030600d555f600e556005600a620000399190620005f2565b63773594006200004a919062000642565b600f556005600a6200005d9190620005f2565b63773594006200006e919062000642565b6010556005600a620000819190620005f2565b6107d062000090919062000642565b6011556005600a620000a39190620005f2565b633b9aca00620000b4919062000642565b6012555f601460156101000a81548160ff0219169083151502179055505f601460166101000a81548160ff021916908315150217905550348015620000f7575f80fd5b505f620001096200043260201b60201c565b9050805f806101000a81548173ffffffffffffffffffffffffffffffffffffffff021916908373ffffffffffffffffffffffffffffffffffffffff1602179055508073ffffffffffffffffffffffffffffffffffffffff165f73ffffffffffffffffffffffffffffffffffffffff167f8be0079c531659141344cd1fd0a4f28419497f9722a3daafe3b4186f6b6457e060405160405180910390a350620001b56200043260201b60201c565b60055f6101000a81548173ffffffffffffffffffffffffffffffffffffffff021916908373ffffffffffffffffffffffffffffffffffffffff1602179055506005600a620002049190620005f2565b64174876e80062000216919062000642565b60015f620002296200043260201b60201c565b73ffffffffffffffffffffffffffffffffffffffff1673ffffffffffffffffffffffffffffffffffffffff1681526020019081526020015f2081905550600160035f6200027b6200043960201b60201c565b73ffffffffffffffffffffffffffffffffffffffff1673ffffffffffffffffffffffffffffffffffffffff1681526020019081526020015f205f6101000a81548160ff021916908315150217905550600160035f3073ffffffffffffffffffffffffffffffffffffffff1673ffffffffffffffffffffffffffffffffffffffff1681526020019081526020015f205f6101000a81548160ff021916908315150217905550600160035f60055f9054906101000a900473ffffffffffffffffffffffffffffffffffffffff1673ffffffffffffffffffffffffffffffffffffffff1673ffffffffffffffffffffffffffffffffffffffff1681526020019081526020015f205f6101000a81548160ff021916908315150217905550620003a56200043260201b60201c565b73ffffffffffffffffffffffffffffffffffffffff165f73ffffffffffffffffffffffffffffffffffffffff167fddf252ad1be2c89b69c2b068fc378daa952ba7f163c4a11628f55a4df523b3ef6005600a620004039190620005f2565b64174876e80062000415919062000642565b6040516200042491906200069d565b60405180910390a3620006b8565b5f33905090565b5f805f9054906101000a900473ffffffffffffffffffffffffffffffffffffffff16905090565b7f4e487b71000000000000000000000000000000000000000000000000000000005f52601160045260245ffd5b5f8160011c9050919050565b5f808291508390505b6001851115620004ea57808604811115620004c257620004c162000460565b5b6001851615620004d25780820291505b8081029050620004e2856200048d565b9450620004a2565b94509492505050565b5f82620005045760019050620005d6565b8162000513575f9050620005d6565b81600181146200052c576002811462000537576200056d565b6001915050620005d6565b60ff8411156200054c576200054b62000460565b5b8360020a91508482111562000566576200056562000460565b5b50620005d6565b5060208310610133831016604e8410600b8410161715620005a75782820a905083811115620005a157620005a062000460565b5b620005d6565b620005b6848484600162000499565b92509050818404811115620005d057620005cf62000460565b5b81810290505b9392505050565b5f819050919050565b5f60ff82169050919050565b5f620005fe82620005dd565b91506200060b83620005e6565b92506200063a7fffffffffffffffffffffffffffffffffffffffffffffffffffffffffffffffff8484620004f3565b905092915050565b5f6200064e82620005dd565b91506200065b83620005dd565b92508282026200066b81620005dd565b9150828204841483151762000685576200068462000460565b5b5092915050565b6200069781620005dd565b82525050565b5f602082019050620006b25f8301846200068c565b92915050565b61329880620006c65f395ff3fe608060405260043610610122575f3560e01c8063715018a61161009f57806395d89b411161006357806395d89b41146103ad578063a9059cbb146103d7578063bf474bed14610413578063d34628cc1461043d578063dd62ed3e1461046557610129565b8063715018a614610303578063751039fc146103195780637d1db4a51461032f5780638da5cb5b146103595780638f9a55c01461038357610129565b8063313ce567116100e6578063313ce5671461022357806331c2d8471461024d5780633bbac5791461027557806351cd7cc3146102b157806370a08231146102c757610129565b806306fdde031461012d578063095ea7b3146101575780630faee56f1461019357806318160ddd146101bd57806323b872dd146101e757610129565b3661012957005b5f80fd5b348015610138575f80fd5b506101416104a1565b60405161014e91906122d7565b60405180910390f35b348015610162575f80fd5b5061017d60048036038101906101789190612395565b6104de565b60405161018a91906123ed565b60405180910390f35b34801561019e575f80fd5b506101a76104fb565b6040516101b49190612415565b60405180910390f35b3480156101c8575f80fd5b506101d1610501565b6040516101de9190612415565b60405180910390f35b3480156101f2575f80fd5b5061020d6004803603810190610208919061242e565b610525565b60405161021a91906123ed565b60405180910390f35b34801561022e575f80fd5b506102376105f9565b6040516102449190612499565b60405180910390f35b348015610258575f80fd5b50610273600480360381019061026e91906125f2565b610601565b005b348015610280575f80fd5b5061029b60048036038101906102969190612639565b610725565b6040516102a891906123ed565b60405180910390f35b3480156102bc575f80fd5b506102c5610777565b005b3480156102d2575f80fd5b506102ed60048036038101906102e89190612639565b610c9e565b6040516102fa9190612415565b60405180910390f35b34801561030e575f80fd5b50610317610ce4565b005b348015610324575f80fd5b5061032d610e32565b005b34801561033a575f80fd5b50610343610f64565b6040516103509190612415565b60405180910390f35b348015610364575f80fd5b5061036d610f6a565b60405161037a9190612673565b60405180910390f35b34801561038e575f80fd5b50610397610f91565b6040516103a49190612415565b60405180910390f35b3480156103b8575f80fd5b506103c1610f97565b6040516103ce91906122d7565b60405180910390f35b3480156103e2575f80fd5b506103fd60048036038101906103f89190612395565b610fd4565b60405161040a91906123ed565b60405180910390f35b34801561041e575f80fd5b50610427610ff1565b6040516104349190612415565b60405180910390f35b348015610448575f80fd5b50610463600480360381019061045e91906125f2565b610ff7565b005b348015610470575f80fd5b5061048b6004803603810190610486919061268c565b61111c565b6040516104989190612415565b60405180910390f35b60606040518060400160405280600a81526020017f436f626120546f6b656e00000000000000000000000000000000000000000000815250905090565b5f6104f16104ea61119e565b84846111a5565b6001905092915050565b60125481565b5f6005600a6105109190612826565b64174876e8006105209190612870565b905090565b5f610531848484611368565b6105ee8461053d61119e565b6105e98560405180606001604052806028815260200161323b6028913960025f8b73ffffffffffffffffffffffffffffffffffffffff1673ffffffffffffffffffffffffffffffffffffffff1681526020019081526020015f205f6105a061119e565b73ffffffffffffffffffffffffffffffffffffffff1673ffffffffffffffffffffffffffffffffffffffff1681526020019081526020015f2054611d289092919063ffffffff16565b6111a5565b600190509392505050565b5f6005905090565b61060961119e565b73ffffffffffffffffffffffffffffffffffffffff165f8054906101000a900473ffffffffffffffffffffffffffffffffffffffff1673ffffffffffffffffffffffffffffffffffffffff1614610695576040517f08c379a000000000000000000000000000000000000000000000000000000000815260040161068c906128fb565b60405180910390fd5b5f5b8151811015610721575f60045f8484815181106106b7576106b6612919565b5b602002602001015173ffffffffffffffffffffffffffffffffffffffff1673ffffffffffffffffffffffffffffffffffffffff1681526020019081526020015f205f6101000a81548160ff021916908315150217905550808061071990612946565b915050610697565b5050565b5f60045f8373ffffffffffffffffffffffffffffffffffffffff1673ffffffffffffffffffffffffffffffffffffffff1681526020019081526020015f205f9054906101000a900460ff169050919050565b61077f61119e565b73ffffffffffffffffffffffffffffffffffffffff165f8054906101000a900473ffffffffffffffffffffffffffffffffffffffff1673ffffffffffffffffffffffffffffffffffffffff161461080b576040517f08c379a0000000000000000000000000000000000000000000000000000000008152600401610802906128fb565b60405180910390fd5b60148054906101000a900460ff1615610859576040517f08c379a0000000000000000000000000000000000000000000000000000000008152600401610850906129d7565b60405180910390fd5b737a250d5630b4cf539739df2c5dacb4c659f2488d60135f6101000a81548173ffffffffffffffffffffffffffffffffffffffff021916908373ffffffffffffffffffffffffffffffffffffffff1602179055506108f63060135f9054906101000a900473ffffffffffffffffffffffffffffffffffffffff166005600a6108e19190612826565b64174876e8006108f19190612870565b6111a5565b60135f9054906101000a900473ffffffffffffffffffffffffffffffffffffffff1673ffffffffffffffffffffffffffffffffffffffff1663c45a01556040518163ffffffff1660e01b8152600401602060405180830381865afa158015610960573d5f803e3d5ffd5b505050506040513d601f19601f820116820180604052508101906109849190612a09565b73ffffffffffffffffffffffffffffffffffffffff1663c9c653963060135f9054906101000a900473ffffffffffffffffffffffffffffffffffffffff1673ffffffffffffffffffffffffffffffffffffffff1663ad5c46486040518163ffffffff1660e01b8152600401602060405180830381865afa158015610a0a573d5f803e3d5ffd5b505050506040513d601f19601f82011682018060405250810190610a2e9190612a09565b6040518363ffffffff1660e01b8152600401610a4b929190612a34565b6020604051808303815f875af1158015610a67573d5f803e3d5ffd5b505050506040513d601f19601f82011682018060405250810190610a8b9190612a09565b60145f6101000a81548173ffffffffffffffffffffffffffffffffffffffff021916908373ffffffffffffffffffffffffffffffffffffffff16021790555060135f9054906101000a900473ffffffffffffffffffffffffffffffffffffffff1673ffffffffffffffffffffffffffffffffffffffff1663f305d7194730610b1230610c9e565b5f80610b1c610f6a565b426040518863ffffffff1660e01b8152600401610b3e96959493929190612a9d565b60606040518083038185885af1158015610b5a573d5f803e3d5ffd5b50505050506040513d601f19601f82011682018060405250810190610b7f9190612b10565b50505060145f9054906101000a900473ffffffffffffffffffffffffffffffffffffffff1673ffffffffffffffffffffffffffffffffffffffff1663095ea7b360135f9054906101000a900473ffffffffffffffffffffffffffffffffffffffff167fffffffffffffffffffffffffffffffffffffffffffffffffffffffffffffffff6040518363ffffffff1660e01b8152600401610c1f929190612b60565b6020604051808303815f875af1158015610c3b573d5f803e3d5ffd5b505050506040513d601f19601f82011682018060405250810190610c5f9190612bb1565b506001601460166101000a81548160ff02191690831515021790555060016014806101000a81548160ff02191690831515021790555043600681905550565b5f60015f8373ffffffffffffffffffffffffffffffffffffffff1673ffffffffffffffffffffffffffffffffffffffff1681526020019081526020015f20549050919050565b610cec61119e565b73ffffffffffffffffffffffffffffffffffffffff165f8054906101000a900473ffffffffffffffffffffffffffffffffffffffff1673ffffffffffffffffffffffffffffffffffffffff1614610d78576040517f08c379a0000000000000000000000000000000000000000000000000000000008152600401610d6f906128fb565b60405180910390fd5b5f73ffffffffffffffffffffffffffffffffffffffff165f8054906101000a900473ffffffffffffffffffffffffffffffffffffffff1673ffffffffffffffffffffffffffffffffffffffff167f8be0079c531659141344cd1fd0a4f28419497f9722a3daafe3b4186f6b6457e060405160405180910390a35f805f6101000a81548173ffffffffffffffffffffffffffffffffffffffff021916908373ffffffffffffffffffffffffffffffffffffffff160217905550565b610e3a61119e565b73ffffffffffffffffffffffffffffffffffffffff165f8054906101000a900473ffffffffffffffffffffffffffffffffffffffff1673ffffffffffffffffffffffffffffffffffffffff1614610ec6576040517f08c379a0000000000000000000000000000000000000000000000000000000008152600401610ebd906128fb565b60405180910390fd5b6005600a610ed49190612826565b64174876e800610ee49190612870565b600f819055506005600a610ef89190612826565b64174876e800610f089190612870565b6010819055507f947f344d56e1e8c70dc492fb94c4ddddd490c016aab685f5e7e47b2e85cb44cf6005600a610f3d9190612826565b64174876e800610f4d9190612870565b604051610f5a9190612415565b60405180910390a1565b600f5481565b5f805f9054906101000a900473ffffffffffffffffffffffffffffffffffffffff16905090565b60105481565b60606040518060400160405280600581526020017f434f424158000000000000000000000000000000000000000000000000000000815250905090565b5f610fe7610fe061119e565b8484611368565b6001905092915050565b60115481565b610fff61119e565b73ffffffffffffffffffffffffffffffffffffffff165f8054906101000a900473ffffffffffffffffffffffffffffffffffffffff1673ffffffffffffffffffffffffffffffffffffffff161461108b576040517f08c379a0000000000000000000000000000000000000000000000000000000008152600401611082906128fb565b60405180910390fd5b5f5b815181101561111857600160045f8484815181106110ae576110ad612919565b5b602002602001015173ffffffffffffffffffffffffffffffffffffffff1673ffffffffffffffffffffffffffffffffffffffff1681526020019081526020015f205f6101000a81548160ff021916908315150217905550808061111090612946565b91505061108d565b5050565b5f60025f8473ffffffffffffffffffffffffffffffffffffffff1673ffffffffffffffffffffffffffffffffffffffff1681526020019081526020015f205f8373ffffffffffffffffffffffffffffffffffffffff1673ffffffffffffffffffffffffffffffffffffffff1681526020019081526020015f2054905092915050565b5f33905090565b5f73ffffffffffffffffffffffffffffffffffffffff168373ffffffffffffffffffffffffffffffffffffffff1603611213576040517f08c379a000000000000000000000000000000000000000000000000000000000815260040161120a90612c4c565b60405180910390fd5b5f73ffffffffffffffffffffffffffffffffffffffff168273ffffffffffffffffffffffffffffffffffffffff1603611281576040517f08c379a000000000000000000000000000000000000000000000000000000000815260040161127890612cda565b60405180910390fd5b8060025f8573ffffffffffffffffffffffffffffffffffffffff1673ffffffffffffffffffffffffffffffffffffffff1681526020019081526020015f205f8473ffffffffffffffffffffffffffffffffffffffff1673ffffffffffffffffffffffffffffffffffffffff1681526020019081526020015f20819055508173ffffffffffffffffffffffffffffffffffffffff168373ffffffffffffffffffffffffffffffffffffffff167f8c5be1e5ebec7d5bd14f71427d1e84f3dd0314c0f7b2291e5b200ac8c7c3b9258360405161135b9190612415565b60405180910390a3505050565b5f73ffffffffffffffffffffffffffffffffffffffff168373ffffffffffffffffffffffffffffffffffffffff16036113d6576040517f08c379a00000000000000000000000000000000000000000000000000000000081526004016113cd90612d68565b60405180910390fd5b5f73ffffffffffffffffffffffffffffffffffffffff168273ffffffffffffffffffffffffffffffffffffffff1603611444576040517f08c379a000000000000000000000000000000000000000000000000000000000815260040161143b90612df6565b60405180910390fd5b5f8111611486576040517f08c379a000000000000000000000000000000000000000000000000000000000815260040161147d90612e84565b60405180910390fd5b5f61148f610f6a565b73ffffffffffffffffffffffffffffffffffffffff168473ffffffffffffffffffffffffffffffffffffffff16141580156114fd57506114cd610f6a565b73ffffffffffffffffffffffffffffffffffffffff168373ffffffffffffffffffffffffffffffffffffffff1614155b15611a785760045f8573ffffffffffffffffffffffffffffffffffffffff1673ffffffffffffffffffffffffffffffffffffffff1681526020019081526020015f205f9054906101000a900460ff161580156115a0575060045f8473ffffffffffffffffffffffffffffffffffffffff1673ffffffffffffffffffffffffffffffffffffffff1681526020019081526020015f205f9054906101000a900460ff16155b6115a8575f80fd5b6115e460646115d6600b54600e54116115c3576007546115c7565b6009545b85611d8a90919063ffffffff16565b611e0190919063ffffffff16565b905060145f9054906101000a900473ffffffffffffffffffffffffffffffffffffffff1673ffffffffffffffffffffffffffffffffffffffff168473ffffffffffffffffffffffffffffffffffffffff1614801561168f575060135f9054906101000a900473ffffffffffffffffffffffffffffffffffffffff1673ffffffffffffffffffffffffffffffffffffffff168373ffffffffffffffffffffffffffffffffffffffff1614155b80156116e2575060035f8473ffffffffffffffffffffffffffffffffffffffff1673ffffffffffffffffffffffffffffffffffffffff1681526020019081526020015f205f9054906101000a900460ff16155b156117c557600f5482111561172c576040517f08c379a000000000000000000000000000000000000000000000000000000000815260040161172390612eec565b60405180910390fd5b6010548261173985610c9e565b6117439190612f0a565b1115611784576040517f08c379a000000000000000000000000000000000000000000000000000000000815260040161177b90612f87565b60405180910390fd5b4360036006546117949190612f0a565b11156117ad576117a383611e4a565b156117ac575f80fd5b5b600e5f8154809291906117bf90612946565b91905055505b60145f9054906101000a900473ffffffffffffffffffffffffffffffffffffffff1673ffffffffffffffffffffffffffffffffffffffff168373ffffffffffffffffffffffffffffffffffffffff1614158015611869575060035f8473ffffffffffffffffffffffffffffffffffffffff1673ffffffffffffffffffffffffffffffffffffffff1681526020019081526020015f205f9054906101000a900460ff16155b156118c7576010548261187b85610c9e565b6118859190612f0a565b11156118c6576040517f08c379a00000000000000000000000000000000000000000000000000000000081526004016118bd90612f87565b60405180910390fd5b5b60145f9054906101000a900473ffffffffffffffffffffffffffffffffffffffff1673ffffffffffffffffffffffffffffffffffffffff168373ffffffffffffffffffffffffffffffffffffffff1614801561194f57503073ffffffffffffffffffffffffffffffffffffffff168473ffffffffffffffffffffffffffffffffffffffff1614155b15611993576119906064611982600c54600e541161196f57600854611973565b600a545b85611d8a90919063ffffffff16565b611e0190919063ffffffff16565b90505b5f61199d30610c9e565b9050601460159054906101000a900460ff16158015611a08575060145f9054906101000a900473ffffffffffffffffffffffffffffffffffffffff1673ffffffffffffffffffffffffffffffffffffffff168473ffffffffffffffffffffffffffffffffffffffff16145b8015611a205750601460169054906101000a900460ff165b8015611a2d575060115481115b8015611a3c5750600d54600e54115b15611a7657611a5e611a5984611a5484601254611e5b565b611e5b565b611e73565b5f4790505f811115611a7457611a73476120de565b5b505b505b5f811115611b7757611ad08160015f3073ffffffffffffffffffffffffffffffffffffffff1673ffffffffffffffffffffffffffffffffffffffff1681526020019081526020015f205461214690919063ffffffff16565b60015f3073ffffffffffffffffffffffffffffffffffffffff1673ffffffffffffffffffffffffffffffffffffffff1681526020019081526020015f20819055503073ffffffffffffffffffffffffffffffffffffffff168473ffffffffffffffffffffffffffffffffffffffff167fddf252ad1be2c89b69c2b068fc378daa952ba7f163c4a11628f55a4df523b3ef83604051611b6e9190612415565b60405180910390a35b611bc78260015f8773ffffffffffffffffffffffffffffffffffffffff1673ffffffffffffffffffffffffffffffffffffffff1681526020019081526020015f20546121a390919063ffffffff16565b60015f8673ffffffffffffffffffffffffffffffffffffffff1673ffffffffffffffffffffffffffffffffffffffff1681526020019081526020015f2081905550611c6a611c1e82846121a390919063ffffffff16565b60015f8673ffffffffffffffffffffffffffffffffffffffff1673ffffffffffffffffffffffffffffffffffffffff1681526020019081526020015f205461214690919063ffffffff16565b60015f8573ffffffffffffffffffffffffffffffffffffffff1673ffffffffffffffffffffffffffffffffffffffff1681526020019081526020015f20819055508273ffffffffffffffffffffffffffffffffffffffff168473ffffffffffffffffffffffffffffffffffffffff167fddf252ad1be2c89b69c2b068fc378daa952ba7f163c4a11628f55a4df523b3ef611d0d84866121a390919063ffffffff16565b604051611d1a9190612415565b60405180910390a350505050565b5f838311158290611d6f576040517f08c379a0000000000000000000000000000000000000000000000000000000008152600401611d6691906122d7565b60405180910390fd5b505f8385611d7d9190612fa5565b9050809150509392505050565b5f808303611d9a575f9050611dfb565b5f8284611da79190612870565b9050828482611db69190613005565b14611df6576040517f08c379a0000000000000000000000000000000000000000000000000000000008152600401611ded906130a5565b60405180910390fd5b809150505b92915050565b5f611e4283836040518060400160405280601a81526020017f536166654d6174683a206469766973696f6e206279207a65726f0000000000008152506121ec565b905092915050565b5f80823b90505f8111915050919050565b5f818311611e695782611e6b565b815b905092915050565b6001601460156101000a81548160ff0219169083151502179055505f600267ffffffffffffffff811115611eaa57611ea96124b6565b5b604051908082528060200260200182016040528015611ed85781602001602082028036833780820191505090505b50905030815f81518110611eef57611eee612919565b5b602002602001019073ffffffffffffffffffffffffffffffffffffffff16908173ffffffffffffffffffffffffffffffffffffffff168152505060135f9054906101000a900473ffffffffffffffffffffffffffffffffffffffff1673ffffffffffffffffffffffffffffffffffffffff1663ad5c46486040518163ffffffff1660e01b8152600401602060405180830381865afa158015611f93573d5f803e3d5ffd5b505050506040513d601f19601f82011682018060405250810190611fb79190612a09565b81600181518110611fcb57611fca612919565b5b602002602001019073ffffffffffffffffffffffffffffffffffffffff16908173ffffffffffffffffffffffffffffffffffffffff16815250506120313060135f9054906101000a900473ffffffffffffffffffffffffffffffffffffffff16846111a5565b60135f9054906101000a900473ffffffffffffffffffffffffffffffffffffffff1673ffffffffffffffffffffffffffffffffffffffff1663791ac947835f8430426040518663ffffffff1660e01b815260040161209395949392919061317a565b5f604051808303815f87803b1580156120aa575f80fd5b505af11580156120bc573d5f803e3d5ffd5b50505050505f601460156101000a81548160ff02191690831515021790555050565b60055f9054906101000a900473ffffffffffffffffffffffffffffffffffffffff1673ffffffffffffffffffffffffffffffffffffffff166108fc8290811502906040515f60405180830381858888f19350505050158015612142573d5f803e3d5ffd5b5050565b5f8082846121549190612f0a565b905083811015612199576040517f08c379a00000000000000000000000000000000000000000000000000000000081526004016121909061321c565b60405180910390fd5b8091505092915050565b5f6121e483836040518060400160405280601e81526020017f536166654d6174683a207375627472616374696f6e206f766572666c6f770000815250611d28565b905092915050565b5f8083118290612232576040517f08c379a000000000000000000000000000000000000000000000000000000000815260040161222991906122d7565b60405180910390fd5b505f83856122409190613005565b9050809150509392505050565b5f81519050919050565b5f82825260208201905092915050565b5f5b83811015612284578082015181840152602081019050612269565b5f8484015250505050565b5f601f19601f8301169050919050565b5f6122a98261224d565b6122b38185612257565b93506122c3818560208601612267565b6122cc8161228f565b840191505092915050565b5f6020820190508181035f8301526122ef818461229f565b905092915050565b5f604051905090565b5f80fd5b5f80fd5b5f73ffffffffffffffffffffffffffffffffffffffff82169050919050565b5f61233182612308565b9050919050565b61234181612327565b811461234b575f80fd5b50565b5f8135905061235c81612338565b92915050565b5f819050919050565b61237481612362565b811461237e575f80fd5b50565b5f8135905061238f8161236b565b92915050565b5f80604083850312156123ab576123aa612300565b5b5f6123b88582860161234e565b92505060206123c985828601612381565b9150509250929050565b5f8115159050919050565b6123e7816123d3565b82525050565b5f6020820190506124005f8301846123de565b92915050565b61240f81612362565b82525050565b5f6020820190506124285f830184612406565b92915050565b5f805f6060848603121561244557612444612300565b5b5f6124528682870161234e565b93505060206124638682870161234e565b925050604061247486828701612381565b9150509250925092565b5f60ff82169050919050565b6124938161247e565b82525050565b5f6020820190506124ac5f83018461248a565b92915050565b5f80fd5b7f4e487b71000000000000000000000000000000000000000000000000000000005f52604160045260245ffd5b6124ec8261228f565b810181811067ffffffffffffffff8211171561250b5761250a6124b6565b5b80604052505050565b5f61251d6122f7565b905061252982826124e3565b919050565b5f67ffffffffffffffff821115612548576125476124b6565b5b602082029050602081019050919050565b5f80fd5b5f61256f61256a8461252e565b612514565b9050808382526020820190506020840283018581111561259257612591612559565b5b835b818110156125bb57806125a7888261234e565b845260208401935050602081019050612594565b5050509392505050565b5f82601f8301126125d9576125d86124b2565b5b81356125e984826020860161255d565b91505092915050565b5f6020828403121561260757612606612300565b5b5f82013567ffffffffffffffff81111561262457612623612304565b5b612630848285016125c5565b91505092915050565b5f6020828403121561264e5761264d612300565b5b5f61265b8482850161234e565b91505092915050565b61266d81612327565b82525050565b5f6020820190506126865f830184612664565b92915050565b5f80604083850312156126a2576126a1612300565b5b5f6126af8582860161234e565b92505060206126c08582860161234e565b9150509250929050565b7f4e487b71000000000000000000000000000000000000000000000000000000005f52601160045260245ffd5b5f8160011c9050919050565b5f808291508390505b600185111561274c57808604811115612728576127276126ca565b5b60018516156127375780820291505b8081029050612745856126f7565b945061270c565b94509492505050565b5f82612764576001905061281f565b81612771575f905061281f565b81600181146127875760028114612791576127c0565b600191505061281f565b60ff8411156127a3576127a26126ca565b5b8360020a9150848211156127ba576127b96126ca565b5b5061281f565b5060208310610133831016604e8410600b84101617156127f55782820a9050838111156127f0576127ef6126ca565b5b61281f565b6128028484846001612703565b92509050818404811115612819576128186126ca565b5b81810290505b9392505050565b5f61283082612362565b915061283b8361247e565b92506128687fffffffffffffffffffffffffffffffffffffffffffffffffffffffffffffffff8484612755565b905092915050565b5f61287a82612362565b915061288583612362565b925082820261289381612362565b915082820484148315176128aa576128a96126ca565b5b5092915050565b7f4f776e61626c653a2063616c6c6572206973206e6f7420746865206f776e65725f82015250565b5f6128e5602083612257565b91506128f0826128b1565b602082019050919050565b5f6020820190508181035f830152612912816128d9565b9050919050565b7f4e487b71000000000000000000000000000000000000000000000000000000005f52603260045260245ffd5b5f61295082612362565b91507fffffffffffffffffffffffffffffffffffffffffffffffffffffffffffffffff8203612982576129816126ca565b5b600182019050919050565b7f74726164696e6720697320616c7265616479206f70656e0000000000000000005f82015250565b5f6129c1601783612257565b91506129cc8261298d565b602082019050919050565b5f6020820190508181035f8301526129ee816129b5565b9050919050565b5f81519050612a0381612338565b92915050565b5f60208284031215612a1e57612a1d612300565b5b5f612a2b848285016129f5565b91505092915050565b5f604082019050612a475f830185612664565b612a546020830184612664565b9392505050565b5f819050919050565b5f819050919050565b5f612a87612a82612a7d84612a5b565b612a64565b612362565b9050919050565b612a9781612a6d565b82525050565b5f60c082019050612ab05f830189612664565b612abd6020830188612406565b612aca6040830187612a8e565b612ad76060830186612a8e565b612ae46080830185612664565b612af160a0830184612406565b979650505050505050565b5f81519050612b0a8161236b565b92915050565b5f805f60608486031215612b2757612b26612300565b5b5f612b3486828701612afc565b9350506020612b4586828701612afc565b9250506040612b5686828701612afc565b9150509250925092565b5f604082019050612b735f830185612664565b612b806020830184612406565b9392505050565b612b90816123d3565b8114612b9a575f80fd5b50565b5f81519050612bab81612b87565b92915050565b5f60208284031215612bc657612bc5612300565b5b5f612bd384828501612b9d565b91505092915050565b7f45524332303a20617070726f76652066726f6d20746865207a65726f206164645f8201527f7265737300000000000000000000000000000000000000000000000000000000602082015250565b5f612c36602483612257565b9150612c4182612bdc565b604082019050919050565b5f6020820190508181035f830152612c6381612c2a565b9050919050565b7f45524332303a20617070726f766520746f20746865207a65726f2061646472655f8201527f7373000000000000000000000000000000000000000000000000000000000000602082015250565b5f612cc4602283612257565b9150612ccf82612c6a565b604082019050919050565b5f6020820190508181035f830152612cf181612cb8565b9050919050565b7f45524332303a207472616e736665722066726f6d20746865207a65726f2061645f8201527f6472657373000000000000000000000000000000000000000000000000000000602082015250565b5f612d52602583612257565b9150612d5d82612cf8565b604082019050919050565b5f6020820190508181035f830152612d7f81612d46565b9050919050565b7f45524332303a207472616e7366657220746f20746865207a65726f20616464725f8201527f6573730000000000000000000000000000000000000000000000000000000000602082015250565b5f612de0602383612257565b9150612deb82612d86565b604082019050919050565b5f6020820190508181035f830152612e0d81612dd4565b9050919050565b7f5472616e7366657220616d6f756e74206d7573742062652067726561746572205f8201527f7468616e207a65726f0000000000000000000000000000000000000000000000602082015250565b5f612e6e602983612257565b9150612e7982612e14565b604082019050919050565b5f6020820190508181035f830152612e9b81612e62565b9050919050565b7f4578636565647320746865205f6d61785478416d6f756e742e000000000000005f82015250565b5f612ed6601983612257565b9150612ee182612ea2565b602082019050919050565b5f6020820190508181035f830152612f0381612eca565b9050919050565b5f612f1482612362565b9150612f1f83612362565b9250828201905080821115612f3757612f366126ca565b5b92915050565b7f4578636565647320746865206d617857616c6c657453697a652e0000000000005f82015250565b5f612f71601a83612257565b9150612f7c82612f3d565b602082019050919050565b5f6020820190508181035f830152612f9e81612f65565b9050919050565b5f612faf82612362565b9150612fba83612362565b9250828203905081811115612fd257612fd16126ca565b5b92915050565b7f4e487b71000000000000000000000000000000000000000000000000000000005f52601260045260245ffd5b5f61300f82612362565b915061301a83612362565b92508261302a57613029612fd8565b5b828204905092915050565b7f536166654d6174683a206d756c7469706c69636174696f6e206f766572666c6f5f8201527f7700000000000000000000000000000000000000000000000000000000000000602082015250565b5f61308f602183612257565b915061309a82613035565b604082019050919050565b5f6020820190508181035f8301526130bc81613083565b9050919050565b5f81519050919050565b5f82825260208201905092915050565b5f819050602082019050919050565b6130f581612327565b82525050565b5f61310683836130ec565b60208301905092915050565b5f602082019050919050565b5f613128826130c3565b61313281856130cd565b935061313d836130dd565b805f5b8381101561316d57815161315488826130fb565b975061315f83613112565b925050600181019050613140565b5085935050505092915050565b5f60a08201905061318d5f830188612406565b61319a6020830187612a8e565b81810360408301526131ac818661311e565b90506131bb6060830185612664565b6131c86080830184612406565b9695505050505050565b7f536166654d6174683a206164646974696f6e206f766572666c6f7700000000005f82015250565b5f613206601b83612257565b9150613211826131d2565b602082019050919050565b5f6020820190508181035f830152613233816131fa565b905091905056fe45524332303a207472616e7366657220616d6f756e74206578636565647320616c6c6f77616e6365a26469706673582212203cf96dace3ba41ff5ba42b9d87ba806e2f2c22facc4524bdbb6a92f4380f74d364736f6c63430008140033",
					"opcodes": "PUSH1 0x80 PUSH1 0x40 MSTORE PUSH1 0x14 PUSH1 0x7 SSTORE PUSH1 0x14 PUSH1 0x8 SSTORE PUSH0 PUSH1 0x9 SSTORE PUSH0 PUSH1 0xA SSTORE PUSH1 0x32 PUSH1 0xB SSTORE PUSH1 0x32 PUSH1 0xC SSTORE PUSH1 0x30 PUSH1 0xD SSTORE PUSH0 PUSH1 0xE SSTORE PUSH1 0x5 PUSH1 0xA PUSH3 0x39 SWAP2 SWAP1 PUSH3 0x5F2 JUMP JUMPDEST PUSH4 0x77359400 PUSH3 0x4A SWAP2 SWAP1 PUSH3 0x642 JUMP JUMPDEST PUSH1 0xF SSTORE PUSH1 0x5 PUSH1 0xA PUSH3 0x5D SWAP2 SWAP1 PUSH3 0x5F2 JUMP JUMPDEST PUSH4 0x77359400 PUSH3 0x6E SWAP2 SWAP1 PUSH3 0x642 JUMP JUMPDEST PUSH1 0x10 SSTORE PUSH1 0x5 PUSH1 0xA PUSH3 0x81 SWAP2 SWAP1 PUSH3 0x5F2 JUMP JUMPDEST PUSH2 0x7D0 PUSH3 0x90 SWAP2 SWAP1 PUSH3 0x642 JUMP JUMPDEST PUSH1 0x11 SSTORE PUSH1 0x5 PUSH1 0xA PUSH3 0xA3 SWAP2 SWAP1 PUSH3 0x5F2 JUMP JUMPDEST PUSH4 0x3B9ACA00 PUSH3 0xB4 SWAP2 SWAP1 PUSH3 0x642 JUMP JUMPDEST PUSH1 0x12 SSTORE PUSH0 PUSH1 0x14 PUSH1 0x15 PUSH2 0x100 EXP DUP2 SLOAD DUP2 PUSH1 0xFF MUL NOT AND SWAP1 DUP4 ISZERO ISZERO MUL OR SWAP1 SSTORE POP PUSH0 PUSH1 0x14 PUSH1 0x16 PUSH2 0x100 EXP DUP2 SLOAD DUP2 PUSH1 0xFF MUL NOT AND SWAP1 DUP4 ISZERO ISZERO MUL OR SWAP1 SSTORE POP CALLVALUE DUP1 ISZERO PUSH3 0xF7 JUMPI PUSH0 DUP1 REVERT JUMPDEST POP PUSH0 PUSH3 0x109 PUSH3 0x432 PUSH1 0x20 SHL PUSH1 0x20 SHR JUMP JUMPDEST SWAP1 POP DUP1 PUSH0 DUP1 PUSH2 0x100 EXP DUP2 SLOAD DUP2 PUSH20 0xFFFFFFFFFFFFFFFFFFFFFFFFFFFFFFFFFFFFFFFF MUL NOT AND SWAP1 DUP4 PUSH20 0xFFFFFFFFFFFFFFFFFFFFFFFFFFFFFFFFFFFFFFFF AND MUL OR SWAP1 SSTORE POP DUP1 PUSH20 0xFFFFFFFFFFFFFFFFFFFFFFFFFFFFFFFFFFFFFFFF AND PUSH0 PUSH20 0xFFFFFFFFFFFFFFFFFFFFFFFFFFFFFFFFFFFFFFFF AND PUSH32 0x8BE0079C531659141344CD1FD0A4F28419497F9722A3DAAFE3B4186F6B6457E0 PUSH1 0x40 MLOAD PUSH1 0x40 MLOAD DUP1 SWAP2 SUB SWAP1 LOG3 POP PUSH3 0x1B5 PUSH3 0x432 PUSH1 0x20 SHL PUSH1 0x20 SHR JUMP JUMPDEST PUSH1 0x5 PUSH0 PUSH2 0x100 EXP DUP2 SLOAD DUP2 PUSH20 0xFFFFFFFFFFFFFFFFFFFFFFFFFFFFFFFFFFFFFFFF MUL NOT AND SWAP1 DUP4 PUSH20 0xFFFFFFFFFFFFFFFFFFFFFFFFFFFFFFFFFFFFFFFF AND MUL OR SWAP1 SSTORE POP PUSH1 0x5 PUSH1 0xA PUSH3 0x204 SWAP2 SWAP1 PUSH3 0x5F2 JUMP JUMPDEST PUSH5 0x174876E800 PUSH3 0x216 SWAP2 SWAP1 PUSH3 0x642 JUMP JUMPDEST PUSH1 0x1 PUSH0 PUSH3 0x229 PUSH3 0x432 PUSH1 0x20 SHL PUSH1 0x20 SHR JUMP JUMPDEST PUSH20 0xFFFFFFFFFFFFFFFFFFFFFFFFFFFFFFFFFFFFFFFF AND PUSH20 0xFFFFFFFFFFFFFFFFFFFFFFFFFFFFFFFFFFFFFFFF AND DUP2 MSTORE PUSH1 0x20 ADD SWAP1 DUP2 MSTORE PUSH1 0x20 ADD PUSH0 KECCAK256 DUP2 SWAP1 SSTORE POP PUSH1 0x1 PUSH1 0x3 PUSH0 PUSH3 0x27B PUSH3 0x439 PUSH1 0x20 SHL PUSH1 0x20 SHR JUMP JUMPDEST PUSH20 0xFFFFFFFFFFFFFFFFFFFFFFFFFFFFFFFFFFFFFFFF AND PUSH20 0xFFFFFFFFFFFFFFFFFFFFFFFFFFFFFFFFFFFFFFFF AND DUP2 MSTORE PUSH1 0x20 ADD SWAP1 DUP2 MSTORE PUSH1 0x20 ADD PUSH0 KECCAK256 PUSH0 PUSH2 0x100 EXP DUP2 SLOAD DUP2 PUSH1 0xFF MUL NOT AND SWAP1 DUP4 ISZERO ISZERO MUL OR SWAP1 SSTORE POP PUSH1 0x1 PUSH1 0x3 PUSH0 ADDRESS PUSH20 0xFFFFFFFFFFFFFFFFFFFFFFFFFFFFFFFFFFFFFFFF AND PUSH20 0xFFFFFFFFFFFFFFFFFFFFFFFFFFFFFFFFFFFFFFFF AND DUP2 MSTORE PUSH1 0x20 ADD SWAP1 DUP2 MSTORE PUSH1 0x20 ADD PUSH0 KECCAK256 PUSH0 PUSH2 0x100 EXP DUP2 SLOAD DUP2 PUSH1 0xFF MUL NOT AND SWAP1 DUP4 ISZERO ISZERO MUL OR SWAP1 SSTORE POP PUSH1 0x1 PUSH1 0x3 PUSH0 PUSH1 0x5 PUSH0 SWAP1 SLOAD SWAP1 PUSH2 0x100 EXP SWAP1 DIV PUSH20 0xFFFFFFFFFFFFFFFFFFFFFFFFFFFFFFFFFFFFFFFF AND PUSH20 0xFFFFFFFFFFFFFFFFFFFFFFFFFFFFFFFFFFFFFFFF AND PUSH20 0xFFFFFFFFFFFFFFFFFFFFFFFFFFFFFFFFFFFFFFFF AND DUP2 MSTORE PUSH1 0x20 ADD SWAP1 DUP2 MSTORE PUSH1 0x20 ADD PUSH0 KECCAK256 PUSH0 PUSH2 0x100 EXP DUP2 SLOAD DUP2 PUSH1 0xFF MUL NOT AND SWAP1 DUP4 ISZERO ISZERO MUL OR SWAP1 SSTORE POP PUSH3 0x3A5 PUSH3 0x432 PUSH1 0x20 SHL PUSH1 0x20 SHR JUMP JUMPDEST PUSH20 0xFFFFFFFFFFFFFFFFFFFFFFFFFFFFFFFFFFFFFFFF AND PUSH0 PUSH20 0xFFFFFFFFFFFFFFFFFFFFFFFFFFFFFFFFFFFFFFFF AND PUSH32 0xDDF252AD1BE2C89B69C2B068FC378DAA952BA7F163C4A11628F55A4DF523B3EF PUSH1 0x5 PUSH1 0xA PUSH3 0x403 SWAP2 SWAP1 PUSH3 0x5F2 JUMP JUMPDEST PUSH5 0x174876E800 PUSH3 0x415 SWAP2 SWAP1 PUSH3 0x642 JUMP JUMPDEST PUSH1 0x40 MLOAD PUSH3 0x424 SWAP2 SWAP1 PUSH3 0x69D JUMP JUMPDEST PUSH1 0x40 MLOAD DUP1 SWAP2 SUB SWAP1 LOG3 PUSH3 0x6B8 JUMP JUMPDEST PUSH0 CALLER SWAP1 POP SWAP1 JUMP JUMPDEST PUSH0 DUP1 PUSH0 SWAP1 SLOAD SWAP1 PUSH2 0x100 EXP SWAP1 DIV PUSH20 0xFFFFFFFFFFFFFFFFFFFFFFFFFFFFFFFFFFFFFFFF AND SWAP1 POP SWAP1 JUMP JUMPDEST PUSH32 0x4E487B7100000000000000000000000000000000000000000000000000000000 PUSH0 MSTORE PUSH1 0x11 PUSH1 0x4 MSTORE PUSH1 0x24 PUSH0 REVERT JUMPDEST PUSH0 DUP2 PUSH1 0x1 SHR SWAP1 POP SWAP2 SWAP1 POP JUMP JUMPDEST PUSH0 DUP1 DUP3 SWAP2 POP DUP4 SWAP1 POP JUMPDEST PUSH1 0x1 DUP6 GT ISZERO PUSH3 0x4EA JUMPI DUP1 DUP7 DIV DUP2 GT ISZERO PUSH3 0x4C2 JUMPI PUSH3 0x4C1 PUSH3 0x460 JUMP JUMPDEST JUMPDEST PUSH1 0x1 DUP6 AND ISZERO PUSH3 0x4D2 JUMPI DUP1 DUP3 MUL SWAP2 POP JUMPDEST DUP1 DUP2 MUL SWAP1 POP PUSH3 0x4E2 DUP6 PUSH3 0x48D JUMP JUMPDEST SWAP5 POP PUSH3 0x4A2 JUMP JUMPDEST SWAP5 POP SWAP5 SWAP3 POP POP POP JUMP JUMPDEST PUSH0 DUP3 PUSH3 0x504 JUMPI PUSH1 0x1 SWAP1 POP PUSH3 0x5D6 JUMP JUMPDEST DUP2 PUSH3 0x513 JUMPI PUSH0 SWAP1 POP PUSH3 0x5D6 JUMP JUMPDEST DUP2 PUSH1 0x1 DUP2 EQ PUSH3 0x52C JUMPI PUSH1 0x2 DUP2 EQ PUSH3 0x537 JUMPI PUSH3 0x56D JUMP JUMPDEST PUSH1 0x1 SWAP2 POP POP PUSH3 0x5D6 JUMP JUMPDEST PUSH1 0xFF DUP5 GT ISZERO PUSH3 0x54C JUMPI PUSH3 0x54B PUSH3 0x460 JUMP JUMPDEST JUMPDEST DUP4 PUSH1 0x2 EXP SWAP2 POP DUP5 DUP3 GT ISZERO PUSH3 0x566 JUMPI PUSH3 0x565 PUSH3 0x460 JUMP JUMPDEST JUMPDEST POP PUSH3 0x5D6 JUMP JUMPDEST POP PUSH1 0x20 DUP4 LT PUSH2 0x133 DUP4 LT AND PUSH1 0x4E DUP5 LT PUSH1 0xB DUP5 LT AND OR ISZERO PUSH3 0x5A7 JUMPI DUP3 DUP3 EXP SWAP1 POP DUP4 DUP2 GT ISZERO PUSH3 0x5A1 JUMPI PUSH3 0x5A0 PUSH3 0x460 JUMP JUMPDEST JUMPDEST PUSH3 0x5D6 JUMP JUMPDEST PUSH3 0x5B6 DUP5 DUP5 DUP5 PUSH1 0x1 PUSH3 0x499 JUMP JUMPDEST SWAP3 POP SWAP1 POP DUP2 DUP5 DIV DUP2 GT ISZERO PUSH3 0x5D0 JUMPI PUSH3 0x5CF PUSH3 0x460 JUMP JUMPDEST JUMPDEST DUP2 DUP2 MUL SWAP1 POP JUMPDEST SWAP4 SWAP3 POP POP POP JUMP JUMPDEST PUSH0 DUP2 SWAP1 POP SWAP2 SWAP1 POP JUMP JUMPDEST PUSH0 PUSH1 0xFF DUP3 AND SWAP1 POP SWAP2 SWAP1 POP JUMP JUMPDEST PUSH0 PUSH3 0x5FE DUP3 PUSH3 0x5DD JUMP JUMPDEST SWAP2 POP PUSH3 0x60B DUP4 PUSH3 0x5E6 JUMP JUMPDEST SWAP3 POP PUSH3 0x63A PUSH32 0xFFFFFFFFFFFFFFFFFFFFFFFFFFFFFFFFFFFFFFFFFFFFFFFFFFFFFFFFFFFFFFFF DUP5 DUP5 PUSH3 0x4F3 JUMP JUMPDEST SWAP1 POP SWAP3 SWAP2 POP POP JUMP JUMPDEST PUSH0 PUSH3 0x64E DUP3 PUSH3 0x5DD JUMP JUMPDEST SWAP2 POP PUSH3 0x65B DUP4 PUSH3 0x5DD JUMP JUMPDEST SWAP3 POP DUP3 DUP3 MUL PUSH3 0x66B DUP2 PUSH3 0x5DD JUMP JUMPDEST SWAP2 POP DUP3 DUP3 DIV DUP5 EQ DUP4 ISZERO OR PUSH3 0x685 JUMPI PUSH3 0x684 PUSH3 0x460 JUMP JUMPDEST JUMPDEST POP SWAP3 SWAP2 POP POP JUMP JUMPDEST PUSH3 0x697 DUP2 PUSH3 0x5DD JUMP JUMPDEST DUP3 MSTORE POP POP JUMP JUMPDEST PUSH0 PUSH1 0x20 DUP3 ADD SWAP1 POP PUSH3 0x6B2 PUSH0 DUP4 ADD DUP5 PUSH3 0x68C JUMP JUMPDEST SWAP3 SWAP2 POP POP JUMP JUMPDEST PUSH2 0x3298 DUP1 PUSH3 0x6C6 PUSH0 CODECOPY PUSH0 RETURN INVALID PUSH1 0x80 PUSH1 0x40 MSTORE PUSH1 0x4 CALLDATASIZE LT PUSH2 0x122 JUMPI PUSH0 CALLDATALOAD PUSH1 0xE0 SHR DUP1 PUSH4 0x715018A6 GT PUSH2 0x9F JUMPI DUP1 PUSH4 0x95D89B41 GT PUSH2 0x63 JUMPI DUP1 PUSH4 0x95D89B41 EQ PUSH2 0x3AD JUMPI DUP1 PUSH4 0xA9059CBB EQ PUSH2 0x3D7 JUMPI DUP1 PUSH4 0xBF474BED EQ PUSH2 0x413 JUMPI DUP1 PUSH4 0xD34628CC EQ PUSH2 0x43D JUMPI DUP1 PUSH4 0xDD62ED3E EQ PUSH2 0x465 JUMPI PUSH2 0x129 JUMP JUMPDEST DUP1 PUSH4 0x715018A6 EQ PUSH2 0x303 JUMPI DUP1 PUSH4 0x751039FC EQ PUSH2 0x319 JUMPI DUP1 PUSH4 0x7D1DB4A5 EQ PUSH2 0x32F JUMPI DUP1 PUSH4 0x8DA5CB5B EQ PUSH2 0x359 JUMPI DUP1 PUSH4 0x8F9A55C0 EQ PUSH2 0x383 JUMPI PUSH2 0x129 JUMP JUMPDEST DUP1 PUSH4 0x313CE567 GT PUSH2 0xE6 JUMPI DUP1 PUSH4 0x313CE567 EQ PUSH2 0x223 JUMPI DUP1 PUSH4 0x31C2D847 EQ PUSH2 0x24D JUMPI DUP1 PUSH4 0x3BBAC579 EQ PUSH2 0x275 JUMPI DUP1 PUSH4 0x51CD7CC3 EQ PUSH2 0x2B1 JUMPI DUP1 PUSH4 0x70A08231 EQ PUSH2 0x2C7 JUMPI PUSH2 0x129 JUMP JUMPDEST DUP1 PUSH4 0x6FDDE03 EQ PUSH2 0x12D JUMPI DUP1 PUSH4 0x95EA7B3 EQ PUSH2 0x157 JUMPI DUP1 PUSH4 0xFAEE56F EQ PUSH2 0x193 JUMPI DUP1 PUSH4 0x18160DDD EQ PUSH2 0x1BD JUMPI DUP1 PUSH4 0x23B872DD EQ PUSH2 0x1E7 JUMPI PUSH2 0x129 JUMP JUMPDEST CALLDATASIZE PUSH2 0x129 JUMPI STOP JUMPDEST PUSH0 DUP1 REVERT JUMPDEST CALLVALUE DUP1 ISZERO PUSH2 0x138 JUMPI PUSH0 DUP1 REVERT JUMPDEST POP PUSH2 0x141 PUSH2 0x4A1 JUMP JUMPDEST PUSH1 0x40 MLOAD PUSH2 0x14E SWAP2 SWAP1 PUSH2 0x22D7 JUMP JUMPDEST PUSH1 0x40 MLOAD DUP1 SWAP2 SUB SWAP1 RETURN JUMPDEST CALLVALUE DUP1 ISZERO PUSH2 0x162 JUMPI PUSH0 DUP1 REVERT JUMPDEST POP PUSH2 0x17D PUSH1 0x4 DUP1 CALLDATASIZE SUB DUP2 ADD SWAP1 PUSH2 0x178 SWAP2 SWAP1 PUSH2 0x2395 JUMP JUMPDEST PUSH2 0x4DE JUMP JUMPDEST PUSH1 0x40 MLOAD PUSH2 0x18A SWAP2 SWAP1 PUSH2 0x23ED JUMP JUMPDEST PUSH1 0x40 MLOAD DUP1 SWAP2 SUB SWAP1 RETURN JUMPDEST CALLVALUE DUP1 ISZERO PUSH2 0x19E JUMPI PUSH0 DUP1 REVERT JUMPDEST POP PUSH2 0x1A7 PUSH2 0x4FB JUMP JUMPDEST PUSH1 0x40 MLOAD PUSH2 0x1B4 SWAP2 SWAP1 PUSH2 0x2415 JUMP JUMPDEST PUSH1 0x40 MLOAD DUP1 SWAP2 SUB SWAP1 RETURN JUMPDEST CALLVALUE DUP1 ISZERO PUSH2 0x1C8 JUMPI PUSH0 DUP1 REVERT JUMPDEST POP PUSH2 0x1D1 PUSH2 0x501 JUMP JUMPDEST PUSH1 0x40 MLOAD PUSH2 0x1DE SWAP2 SWAP1 PUSH2 0x2415 JUMP JUMPDEST PUSH1 0x40 MLOAD DUP1 SWAP2 SUB SWAP1 RETURN JUMPDEST CALLVALUE DUP1 ISZERO PUSH2 0x1F2 JUMPI PUSH0 DUP1 REVERT JUMPDEST POP PUSH2 0x20D PUSH1 0x4 DUP1 CALLDATASIZE SUB DUP2 ADD SWAP1 PUSH2 0x208 SWAP2 SWAP1 PUSH2 0x242E JUMP JUMPDEST PUSH2 0x525 JUMP JUMPDEST PUSH1 0x40 MLOAD PUSH2 0x21A SWAP2 SWAP1 PUSH2 0x23ED JUMP JUMPDEST PUSH1 0x40 MLOAD DUP1 SWAP2 SUB SWAP1 RETURN JUMPDEST CALLVALUE DUP1 ISZERO PUSH2 0x22E JUMPI PUSH0 DUP1 REVERT JUMPDEST POP PUSH2 0x237 PUSH2 0x5F9 JUMP JUMPDEST PUSH1 0x40 MLOAD PUSH2 0x244 SWAP2 SWAP1 PUSH2 0x2499 JUMP JUMPDEST PUSH1 0x40 MLOAD DUP1 SWAP2 SUB SWAP1 RETURN JUMPDEST CALLVALUE DUP1 ISZERO PUSH2 0x258 JUMPI PUSH0 DUP1 REVERT JUMPDEST POP PUSH2 0x273 PUSH1 0x4 DUP1 CALLDATASIZE SUB DUP2 ADD SWAP1 PUSH2 0x26E SWAP2 SWAP1 PUSH2 0x25F2 JUMP JUMPDEST PUSH2 0x601 JUMP JUMPDEST STOP JUMPDEST CALLVALUE DUP1 ISZERO PUSH2 0x280 JUMPI PUSH0 DUP1 REVERT JUMPDEST POP PUSH2 0x29B PUSH1 0x4 DUP1 CALLDATASIZE SUB DUP2 ADD SWAP1 PUSH2 0x296 SWAP2 SWAP1 PUSH2 0x2639 JUMP JUMPDEST PUSH2 0x725 JUMP JUMPDEST PUSH1 0x40 MLOAD PUSH2 0x2A8 SWAP2 SWAP1 PUSH2 0x23ED JUMP JUMPDEST PUSH1 0x40 MLOAD DUP1 SWAP2 SUB SWAP1 RETURN JUMPDEST CALLVALUE DUP1 ISZERO PUSH2 0x2BC JUMPI PUSH0 DUP1 REVERT JUMPDEST POP PUSH2 0x2C5 PUSH2 0x777 JUMP JUMPDEST STOP JUMPDEST CALLVALUE DUP1 ISZERO PUSH2 0x2D2 JUMPI PUSH0 DUP1 REVERT JUMPDEST POP PUSH2 0x2ED PUSH1 0x4 DUP1 CALLDATASIZE SUB DUP2 ADD SWAP1 PUSH2 0x2E8 SWAP2 SWAP1 PUSH2 0x2639 JUMP JUMPDEST PUSH2 0xC9E JUMP JUMPDEST PUSH1 0x40 MLOAD PUSH2 0x2FA SWAP2 SWAP1 PUSH2 0x2415 JUMP JUMPDEST PUSH1 0x40 MLOAD DUP1 SWAP2 SUB SWAP1 RETURN JUMPDEST CALLVALUE DUP1 ISZERO PUSH2 0x30E JUMPI PUSH0 DUP1 REVERT JUMPDEST POP PUSH2 0x317 PUSH2 0xCE4 JUMP JUMPDEST STOP JUMPDEST CALLVALUE DUP1 ISZERO PUSH2 0x324 JUMPI PUSH0 DUP1 REVERT JUMPDEST POP PUSH2 0x32D PUSH2 0xE32 JUMP JUMPDEST STOP JUMPDEST CALLVALUE DUP1 ISZERO PUSH2 0x33A JUMPI PUSH0 DUP1 REVERT JUMPDEST POP PUSH2 0x343 PUSH2 0xF64 JUMP JUMPDEST PUSH1 0x40 MLOAD PUSH2 0x350 SWAP2 SWAP1 PUSH2 0x2415 JUMP JUMPDEST PUSH1 0x40 MLOAD DUP1 SWAP2 SUB SWAP1 RETURN JUMPDEST CALLVALUE DUP1 ISZERO PUSH2 0x364 JUMPI PUSH0 DUP1 REVERT JUMPDEST POP PUSH2 0x36D PUSH2 0xF6A JUMP JUMPDEST PUSH1 0x40 MLOAD PUSH2 0x37A SWAP2 SWAP1 PUSH2 0x2673 JUMP JUMPDEST PUSH1 0x40 MLOAD DUP1 SWAP2 SUB SWAP1 RETURN JUMPDEST CALLVALUE DUP1 ISZERO PUSH2 0x38E JUMPI PUSH0 DUP1 REVERT JUMPDEST POP PUSH2 0x397 PUSH2 0xF91 JUMP JUMPDEST PUSH1 0x40 MLOAD PUSH2 0x3A4 SWAP2 SWAP1 PUSH2 0x2415 JUMP JUMPDEST PUSH1 0x40 MLOAD DUP1 SWAP2 SUB SWAP1 RETURN JUMPDEST CALLVALUE DUP1 ISZERO PUSH2 0x3B8 JUMPI PUSH0 DUP1 REVERT JUMPDEST POP PUSH2 0x3C1 PUSH2 0xF97 JUMP JUMPDEST PUSH1 0x40 MLOAD PUSH2 0x3CE SWAP2 SWAP1 PUSH2 0x22D7 JUMP JUMPDEST PUSH1 0x40 MLOAD DUP1 SWAP2 SUB SWAP1 RETURN JUMPDEST CALLVALUE DUP1 ISZERO PUSH2 0x3E2 JUMPI PUSH0 DUP1 REVERT JUMPDEST POP PUSH2 0x3FD PUSH1 0x4 DUP1 CALLDATASIZE SUB DUP2 ADD SWAP1 PUSH2 0x3F8 SWAP2 SWAP1 PUSH2 0x2395 JUMP JUMPDEST PUSH2 0xFD4 JUMP JUMPDEST PUSH1 0x40 MLOAD PUSH2 0x40A SWAP2 SWAP1 PUSH2 0x23ED JUMP JUMPDEST PUSH1 0x40 MLOAD DUP1 SWAP2 SUB SWAP1 RETURN JUMPDEST CALLVALUE DUP1 ISZERO PUSH2 0x41E JUMPI PUSH0 DUP1 REVERT JUMPDEST POP PUSH2 0x427 PUSH2 0xFF1 JUMP JUMPDEST PUSH1 0x40 MLOAD PUSH2 0x434 SWAP2 SWAP1 PUSH2 0x2415 JUMP JUMPDEST PUSH1 0x40 MLOAD DUP1 SWAP2 SUB SWAP1 RETURN JUMPDEST CALLVALUE DUP1 ISZERO PUSH2 0x448 JUMPI PUSH0 DUP1 REVERT JUMPDEST POP PUSH2 0x463 PUSH1 0x4 DUP1 CALLDATASIZE SUB DUP2 ADD SWAP1 PUSH2 0x45E SWAP2 SWAP1 PUSH2 0x25F2 JUMP JUMPDEST PUSH2 0xFF7 JUMP JUMPDEST STOP JUMPDEST CALLVALUE DUP1 ISZERO PUSH2 0x470 JUMPI PUSH0 DUP1 REVERT JUMPDEST POP PUSH2 0x48B PUSH1 0x4 DUP1 CALLDATASIZE SUB DUP2 ADD SWAP1 PUSH2 0x486 SWAP2 SWAP1 PUSH2 0x268C JUMP JUMPDEST PUSH2 0x111C JUMP JUMPDEST PUSH1 0x40 MLOAD PUSH2 0x498 SWAP2 SWAP1 PUSH2 0x2415 JUMP JUMPDEST PUSH1 0x40 MLOAD DUP1 SWAP2 SUB SWAP1 RETURN JUMPDEST PUSH1 0x60 PUSH1 0x40 MLOAD DUP1 PUSH1 0x40 ADD PUSH1 0x40 MSTORE DUP1 PUSH1 0xA DUP2 MSTORE PUSH1 0x20 ADD PUSH32 0x436F626120546F6B656E00000000000000000000000000000000000000000000 DUP2 MSTORE POP SWAP1 POP SWAP1 JUMP JUMPDEST PUSH0 PUSH2 0x4F1 PUSH2 0x4EA PUSH2 0x119E JUMP JUMPDEST DUP5 DUP5 PUSH2 0x11A5 JUMP JUMPDEST PUSH1 0x1 SWAP1 POP SWAP3 SWAP2 POP POP JUMP JUMPDEST PUSH1 0x12 SLOAD DUP2 JUMP JUMPDEST PUSH0 PUSH1 0x5 PUSH1 0xA PUSH2 0x510 SWAP2 SWAP1 PUSH2 0x2826 JUMP JUMPDEST PUSH5 0x174876E800 PUSH2 0x520 SWAP2 SWAP1 PUSH2 0x2870 JUMP JUMPDEST SWAP1 POP SWAP1 JUMP JUMPDEST PUSH0 PUSH2 0x531 DUP5 DUP5 DUP5 PUSH2 0x1368 JUMP JUMPDEST PUSH2 0x5EE DUP5 PUSH2 0x53D PUSH2 0x119E JUMP JUMPDEST PUSH2 0x5E9 DUP6 PUSH1 0x40 MLOAD DUP1 PUSH1 0x60 ADD PUSH1 0x40 MSTORE DUP1 PUSH1 0x28 DUP2 MSTORE PUSH1 0x20 ADD PUSH2 0x323B PUSH1 0x28 SWAP2 CODECOPY PUSH1 0x2 PUSH0 DUP12 PUSH20 0xFFFFFFFFFFFFFFFFFFFFFFFFFFFFFFFFFFFFFFFF AND PUSH20 0xFFFFFFFFFFFFFFFFFFFFFFFFFFFFFFFFFFFFFFFF AND DUP2 MSTORE PUSH1 0x20 ADD SWAP1 DUP2 MSTORE PUSH1 0x20 ADD PUSH0 KECCAK256 PUSH0 PUSH2 0x5A0 PUSH2 0x119E JUMP JUMPDEST PUSH20 0xFFFFFFFFFFFFFFFFFFFFFFFFFFFFFFFFFFFFFFFF AND PUSH20 0xFFFFFFFFFFFFFFFFFFFFFFFFFFFFFFFFFFFFFFFF AND DUP2 MSTORE PUSH1 0x20 ADD SWAP1 DUP2 MSTORE PUSH1 0x20 ADD PUSH0 KECCAK256 SLOAD PUSH2 0x1D28 SWAP1 SWAP3 SWAP2 SWAP1 PUSH4 0xFFFFFFFF AND JUMP JUMPDEST PUSH2 0x11A5 JUMP JUMPDEST PUSH1 0x1 SWAP1 POP SWAP4 SWAP3 POP POP POP JUMP JUMPDEST PUSH0 PUSH1 0x5 SWAP1 POP SWAP1 JUMP JUMPDEST PUSH2 0x609 PUSH2 0x119E JUMP JUMPDEST PUSH20 0xFFFFFFFFFFFFFFFFFFFFFFFFFFFFFFFFFFFFFFFF AND PUSH0 DUP1 SLOAD SWAP1 PUSH2 0x100 EXP SWAP1 DIV PUSH20 0xFFFFFFFFFFFFFFFFFFFFFFFFFFFFFFFFFFFFFFFF AND PUSH20 0xFFFFFFFFFFFFFFFFFFFFFFFFFFFFFFFFFFFFFFFF AND EQ PUSH2 0x695 JUMPI PUSH1 0x40 MLOAD PUSH32 0x8C379A000000000000000000000000000000000000000000000000000000000 DUP2 MSTORE PUSH1 0x4 ADD PUSH2 0x68C SWAP1 PUSH2 0x28FB JUMP JUMPDEST PUSH1 0x40 MLOAD DUP1 SWAP2 SUB SWAP1 REVERT JUMPDEST PUSH0 JUMPDEST DUP2 MLOAD DUP2 LT ISZERO PUSH2 0x721 JUMPI PUSH0 PUSH1 0x4 PUSH0 DUP5 DUP5 DUP2 MLOAD DUP2 LT PUSH2 0x6B7 JUMPI PUSH2 0x6B6 PUSH2 0x2919 JUMP JUMPDEST JUMPDEST PUSH1 0x20 MUL PUSH1 0x20 ADD ADD MLOAD PUSH20 0xFFFFFFFFFFFFFFFFFFFFFFFFFFFFFFFFFFFFFFFF AND PUSH20 0xFFFFFFFFFFFFFFFFFFFFFFFFFFFFFFFFFFFFFFFF AND DUP2 MSTORE PUSH1 0x20 ADD SWAP1 DUP2 MSTORE PUSH1 0x20 ADD PUSH0 KECCAK256 PUSH0 PUSH2 0x100 EXP DUP2 SLOAD DUP2 PUSH1 0xFF MUL NOT AND SWAP1 DUP4 ISZERO ISZERO MUL OR SWAP1 SSTORE POP DUP1 DUP1 PUSH2 0x719 SWAP1 PUSH2 0x2946 JUMP JUMPDEST SWAP2 POP POP PUSH2 0x697 JUMP JUMPDEST POP POP JUMP JUMPDEST PUSH0 PUSH1 0x4 PUSH0 DUP4 PUSH20 0xFFFFFFFFFFFFFFFFFFFFFFFFFFFFFFFFFFFFFFFF AND PUSH20 0xFFFFFFFFFFFFFFFFFFFFFFFFFFFFFFFFFFFFFFFF AND DUP2 MSTORE PUSH1 0x20 ADD SWAP1 DUP2 MSTORE PUSH1 0x20 ADD PUSH0 KECCAK256 PUSH0 SWAP1 SLOAD SWAP1 PUSH2 0x100 EXP SWAP1 DIV PUSH1 0xFF AND SWAP1 POP SWAP2 SWAP1 POP JUMP JUMPDEST PUSH2 0x77F PUSH2 0x119E JUMP JUMPDEST PUSH20 0xFFFFFFFFFFFFFFFFFFFFFFFFFFFFFFFFFFFFFFFF AND PUSH0 DUP1 SLOAD SWAP1 PUSH2 0x100 EXP SWAP1 DIV PUSH20 0xFFFFFFFFFFFFFFFFFFFFFFFFFFFFFFFFFFFFFFFF AND PUSH20 0xFFFFFFFFFFFFFFFFFFFFFFFFFFFFFFFFFFFFFFFF AND EQ PUSH2 0x80B JUMPI PUSH1 0x40 MLOAD PUSH32 0x8C379A000000000000000000000000000000000000000000000000000000000 DUP2 MSTORE PUSH1 0x4 ADD PUSH2 0x802 SWAP1 PUSH2 0x28FB JUMP JUMPDEST PUSH1 0x40 MLOAD DUP1 SWAP2 SUB SWAP1 REVERT JUMPDEST PUSH1 0x14 DUP1 SLOAD SWAP1 PUSH2 0x100 EXP SWAP1 DIV PUSH1 0xFF AND ISZERO PUSH2 0x859 JUMPI PUSH1 0x40 MLOAD PUSH32 0x8C379A000000000000000000000000000000000000000000000000000000000 DUP2 MSTORE PUSH1 0x4 ADD PUSH2 0x850 SWAP1 PUSH2 0x29D7 JUMP JUMPDEST PUSH1 0x40 MLOAD DUP1 SWAP2 SUB SWAP1 REVERT JUMPDEST PUSH20 0x7A250D5630B4CF539739DF2C5DACB4C659F2488D PUSH1 0x13 PUSH0 PUSH2 0x100 EXP DUP2 SLOAD DUP2 PUSH20 0xFFFFFFFFFFFFFFFFFFFFFFFFFFFFFFFFFFFFFFFF MUL NOT AND SWAP1 DUP4 PUSH20 0xFFFFFFFFFFFFFFFFFFFFFFFFFFFFFFFFFFFFFFFF AND MUL OR SWAP1 SSTORE POP PUSH2 0x8F6 ADDRESS PUSH1 0x13 PUSH0 SWAP1 SLOAD SWAP1 PUSH2 0x100 EXP SWAP1 DIV PUSH20 0xFFFFFFFFFFFFFFFFFFFFFFFFFFFFFFFFFFFFFFFF AND PUSH1 0x5 PUSH1 0xA PUSH2 0x8E1 SWAP2 SWAP1 PUSH2 0x2826 JUMP JUMPDEST PUSH5 0x174876E800 PUSH2 0x8F1 SWAP2 SWAP1 PUSH2 0x2870 JUMP JUMPDEST PUSH2 0x11A5 JUMP JUMPDEST PUSH1 0x13 PUSH0 SWAP1 SLOAD SWAP1 PUSH2 0x100 EXP SWAP1 DIV PUSH20 0xFFFFFFFFFFFFFFFFFFFFFFFFFFFFFFFFFFFFFFFF AND PUSH20 0xFFFFFFFFFFFFFFFFFFFFFFFFFFFFFFFFFFFFFFFF AND PUSH4 0xC45A0155 PUSH1 0x40 MLOAD DUP2 PUSH4 0xFFFFFFFF AND PUSH1 0xE0 SHL DUP2 MSTORE PUSH1 0x4 ADD PUSH1 0x20 PUSH1 0x40 MLOAD DUP1 DUP4 SUB DUP2 DUP7 GAS STATICCALL ISZERO DUP1 ISZERO PUSH2 0x960 JUMPI RETURNDATASIZE PUSH0 DUP1 RETURNDATACOPY RETURNDATASIZE PUSH0 REVERT JUMPDEST POP POP POP POP PUSH1 0x40 MLOAD RETURNDATASIZE PUSH1 0x1F NOT PUSH1 0x1F DUP3 ADD AND DUP3 ADD DUP1 PUSH1 0x40 MSTORE POP DUP2 ADD SWAP1 PUSH2 0x984 SWAP2 SWAP1 PUSH2 0x2A09 JUMP JUMPDEST PUSH20 0xFFFFFFFFFFFFFFFFFFFFFFFFFFFFFFFFFFFFFFFF AND PUSH4 0xC9C65396 ADDRESS PUSH1 0x13 PUSH0 SWAP1 SLOAD SWAP1 PUSH2 0x100 EXP SWAP1 DIV PUSH20 0xFFFFFFFFFFFFFFFFFFFFFFFFFFFFFFFFFFFFFFFF AND PUSH20 0xFFFFFFFFFFFFFFFFFFFFFFFFFFFFFFFFFFFFFFFF AND PUSH4 0xAD5C4648 PUSH1 0x40 MLOAD DUP2 PUSH4 0xFFFFFFFF AND PUSH1 0xE0 SHL DUP2 MSTORE PUSH1 0x4 ADD PUSH1 0x20 PUSH1 0x40 MLOAD DUP1 DUP4 SUB DUP2 DUP7 GAS STATICCALL ISZERO DUP1 ISZERO PUSH2 0xA0A JUMPI RETURNDATASIZE PUSH0 DUP1 RETURNDATACOPY RETURNDATASIZE PUSH0 REVERT JUMPDEST POP POP POP POP PUSH1 0x40 MLOAD RETURNDATASIZE PUSH1 0x1F NOT PUSH1 0x1F DUP3 ADD AND DUP3 ADD DUP1 PUSH1 0x40 MSTORE POP DUP2 ADD SWAP1 PUSH2 0xA2E SWAP2 SWAP1 PUSH2 0x2A09 JUMP JUMPDEST PUSH1 0x40 MLOAD DUP4 PUSH4 0xFFFFFFFF AND PUSH1 0xE0 SHL DUP2 MSTORE PUSH1 0x4 ADD PUSH2 0xA4B SWAP3 SWAP2 SWAP1 PUSH2 0x2A34 JUMP JUMPDEST PUSH1 0x20 PUSH1 0x40 MLOAD DUP1 DUP4 SUB DUP2 PUSH0 DUP8 GAS CALL ISZERO DUP1 ISZERO PUSH2 0xA67 JUMPI RETURNDATASIZE PUSH0 DUP1 RETURNDATACOPY RETURNDATASIZE PUSH0 REVERT JUMPDEST POP POP POP POP PUSH1 0x40 MLOAD RETURNDATASIZE PUSH1 0x1F NOT PUSH1 0x1F DUP3 ADD AND DUP3 ADD DUP1 PUSH1 0x40 MSTORE POP DUP2 ADD SWAP1 PUSH2 0xA8B SWAP2 SWAP1 PUSH2 0x2A09 JUMP JUMPDEST PUSH1 0x14 PUSH0 PUSH2 0x100 EXP DUP2 SLOAD DUP2 PUSH20 0xFFFFFFFFFFFFFFFFFFFFFFFFFFFFFFFFFFFFFFFF MUL NOT AND SWAP1 DUP4 PUSH20 0xFFFFFFFFFFFFFFFFFFFFFFFFFFFFFFFFFFFFFFFF AND MUL OR SWAP1 SSTORE POP PUSH1 0x13 PUSH0 SWAP1 SLOAD SWAP1 PUSH2 0x100 EXP SWAP1 DIV PUSH20 0xFFFFFFFFFFFFFFFFFFFFFFFFFFFFFFFFFFFFFFFF AND PUSH20 0xFFFFFFFFFFFFFFFFFFFFFFFFFFFFFFFFFFFFFFFF AND PUSH4 0xF305D719 SELFBALANCE ADDRESS PUSH2 0xB12 ADDRESS PUSH2 0xC9E JUMP JUMPDEST PUSH0 DUP1 PUSH2 0xB1C PUSH2 0xF6A JUMP JUMPDEST TIMESTAMP PUSH1 0x40 MLOAD DUP9 PUSH4 0xFFFFFFFF AND PUSH1 0xE0 SHL DUP2 MSTORE PUSH1 0x4 ADD PUSH2 0xB3E SWAP7 SWAP6 SWAP5 SWAP4 SWAP3 SWAP2 SWAP1 PUSH2 0x2A9D JUMP JUMPDEST PUSH1 0x60 PUSH1 0x40 MLOAD DUP1 DUP4 SUB DUP2 DUP6 DUP9 GAS CALL ISZERO DUP1 ISZERO PUSH2 0xB5A JUMPI RETURNDATASIZE PUSH0 DUP1 RETURNDATACOPY RETURNDATASIZE PUSH0 REVERT JUMPDEST POP POP POP POP POP PUSH1 0x40 MLOAD RETURNDATASIZE PUSH1 0x1F NOT PUSH1 0x1F DUP3 ADD AND DUP3 ADD DUP1 PUSH1 0x40 MSTORE POP DUP2 ADD SWAP1 PUSH2 0xB7F SWAP2 SWAP1 PUSH2 0x2B10 JUMP JUMPDEST POP POP POP PUSH1 0x14 PUSH0 SWAP1 SLOAD SWAP1 PUSH2 0x100 EXP SWAP1 DIV PUSH20 0xFFFFFFFFFFFFFFFFFFFFFFFFFFFFFFFFFFFFFFFF AND PUSH20 0xFFFFFFFFFFFFFFFFFFFFFFFFFFFFFFFFFFFFFFFF AND PUSH4 0x95EA7B3 PUSH1 0x13 PUSH0 SWAP1 SLOAD SWAP1 PUSH2 0x100 EXP SWAP1 DIV PUSH20 0xFFFFFFFFFFFFFFFFFFFFFFFFFFFFFFFFFFFFFFFF AND PUSH32 0xFFFFFFFFFFFFFFFFFFFFFFFFFFFFFFFFFFFFFFFFFFFFFFFFFFFFFFFFFFFFFFFF PUSH1 0x40 MLOAD DUP4 PUSH4 0xFFFFFFFF AND PUSH1 0xE0 SHL DUP2 MSTORE PUSH1 0x4 ADD PUSH2 0xC1F SWAP3 SWAP2 SWAP1 PUSH2 0x2B60 JUMP JUMPDEST PUSH1 0x20 PUSH1 0x40 MLOAD DUP1 DUP4 SUB DUP2 PUSH0 DUP8 GAS CALL ISZERO DUP1 ISZERO PUSH2 0xC3B JUMPI RETURNDATASIZE PUSH0 DUP1 RETURNDATACOPY RETURNDATASIZE PUSH0 REVERT JUMPDEST POP POP POP POP PUSH1 0x40 MLOAD RETURNDATASIZE PUSH1 0x1F NOT PUSH1 0x1F DUP3 ADD AND DUP3 ADD DUP1 PUSH1 0x40 MSTORE POP DUP2 ADD SWAP1 PUSH2 0xC5F SWAP2 SWAP1 PUSH2 0x2BB1 JUMP JUMPDEST POP PUSH1 0x1 PUSH1 0x14 PUSH1 0x16 PUSH2 0x100 EXP DUP2 SLOAD DUP2 PUSH1 0xFF MUL NOT AND SWAP1 DUP4 ISZERO ISZERO MUL OR SWAP1 SSTORE POP PUSH1 0x1 PUSH1 0x14 DUP1 PUSH2 0x100 EXP DUP2 SLOAD DUP2 PUSH1 0xFF MUL NOT AND SWAP1 DUP4 ISZERO ISZERO MUL OR SWAP1 SSTORE POP NUMBER PUSH1 0x6 DUP2 SWAP1 SSTORE POP JUMP JUMPDEST PUSH0 PUSH1 0x1 PUSH0 DUP4 PUSH20 0xFFFFFFFFFFFFFFFFFFFFFFFFFFFFFFFFFFFFFFFF AND PUSH20 0xFFFFFFFFFFFFFFFFFFFFFFFFFFFFFFFFFFFFFFFF AND DUP2 MSTORE PUSH1 0x20 ADD SWAP1 DUP2 MSTORE PUSH1 0x20 ADD PUSH0 KECCAK256 SLOAD SWAP1 POP SWAP2 SWAP1 POP JUMP JUMPDEST PUSH2 0xCEC PUSH2 0x119E JUMP JUMPDEST PUSH20 0xFFFFFFFFFFFFFFFFFFFFFFFFFFFFFFFFFFFFFFFF AND PUSH0 DUP1 SLOAD SWAP1 PUSH2 0x100 EXP SWAP1 DIV PUSH20 0xFFFFFFFFFFFFFFFFFFFFFFFFFFFFFFFFFFFFFFFF AND PUSH20 0xFFFFFFFFFFFFFFFFFFFFFFFFFFFFFFFFFFFFFFFF AND EQ PUSH2 0xD78 JUMPI PUSH1 0x40 MLOAD PUSH32 0x8C379A000000000000000000000000000000000000000000000000000000000 DUP2 MSTORE PUSH1 0x4 ADD PUSH2 0xD6F SWAP1 PUSH2 0x28FB JUMP JUMPDEST PUSH1 0x40 MLOAD DUP1 SWAP2 SUB SWAP1 REVERT JUMPDEST PUSH0 PUSH20 0xFFFFFFFFFFFFFFFFFFFFFFFFFFFFFFFFFFFFFFFF AND PUSH0 DUP1 SLOAD SWAP1 PUSH2 0x100 EXP SWAP1 DIV PUSH20 0xFFFFFFFFFFFFFFFFFFFFFFFFFFFFFFFFFFFFFFFF AND PUSH20 0xFFFFFFFFFFFFFFFFFFFFFFFFFFFFFFFFFFFFFFFF AND PUSH32 0x8BE0079C531659141344CD1FD0A4F28419497F9722A3DAAFE3B4186F6B6457E0 PUSH1 0x40 MLOAD PUSH1 0x40 MLOAD DUP1 SWAP2 SUB SWAP1 LOG3 PUSH0 DUP1 PUSH0 PUSH2 0x100 EXP DUP2 SLOAD DUP2 PUSH20 0xFFFFFFFFFFFFFFFFFFFFFFFFFFFFFFFFFFFFFFFF MUL NOT AND SWAP1 DUP4 PUSH20 0xFFFFFFFFFFFFFFFFFFFFFFFFFFFFFFFFFFFFFFFF AND MUL OR SWAP1 SSTORE POP JUMP JUMPDEST PUSH2 0xE3A PUSH2 0x119E JUMP JUMPDEST PUSH20 0xFFFFFFFFFFFFFFFFFFFFFFFFFFFFFFFFFFFFFFFF AND PUSH0 DUP1 SLOAD SWAP1 PUSH2 0x100 EXP SWAP1 DIV PUSH20 0xFFFFFFFFFFFFFFFFFFFFFFFFFFFFFFFFFFFFFFFF AND PUSH20 0xFFFFFFFFFFFFFFFFFFFFFFFFFFFFFFFFFFFFFFFF AND EQ PUSH2 0xEC6 JUMPI PUSH1 0x40 MLOAD PUSH32 0x8C379A000000000000000000000000000000000000000000000000000000000 DUP2 MSTORE PUSH1 0x4 ADD PUSH2 0xEBD SWAP1 PUSH2 0x28FB JUMP JUMPDEST PUSH1 0x40 MLOAD DUP1 SWAP2 SUB SWAP1 REVERT JUMPDEST PUSH1 0x5 PUSH1 0xA PUSH2 0xED4 SWAP2 SWAP1 PUSH2 0x2826 JUMP JUMPDEST PUSH5 0x174876E800 PUSH2 0xEE4 SWAP2 SWAP1 PUSH2 0x2870 JUMP JUMPDEST PUSH1 0xF DUP2 SWAP1 SSTORE POP PUSH1 0x5 PUSH1 0xA PUSH2 0xEF8 SWAP2 SWAP1 PUSH2 0x2826 JUMP JUMPDEST PUSH5 0x174876E800 PUSH2 0xF08 SWAP2 SWAP1 PUSH2 0x2870 JUMP JUMPDEST PUSH1 0x10 DUP2 SWAP1 SSTORE POP PUSH32 0x947F344D56E1E8C70DC492FB94C4DDDDD490C016AAB685F5E7E47B2E85CB44CF PUSH1 0x5 PUSH1 0xA PUSH2 0xF3D SWAP2 SWAP1 PUSH2 0x2826 JUMP JUMPDEST PUSH5 0x174876E800 PUSH2 0xF4D SWAP2 SWAP1 PUSH2 0x2870 JUMP JUMPDEST PUSH1 0x40 MLOAD PUSH2 0xF5A SWAP2 SWAP1 PUSH2 0x2415 JUMP JUMPDEST PUSH1 0x40 MLOAD DUP1 SWAP2 SUB SWAP1 LOG1 JUMP JUMPDEST PUSH1 0xF SLOAD DUP2 JUMP JUMPDEST PUSH0 DUP1 PUSH0 SWAP1 SLOAD SWAP1 PUSH2 0x100 EXP SWAP1 DIV PUSH20 0xFFFFFFFFFFFFFFFFFFFFFFFFFFFFFFFFFFFFFFFF AND SWAP1 POP SWAP1 JUMP JUMPDEST PUSH1 0x10 SLOAD DUP2 JUMP JUMPDEST PUSH1 0x60 PUSH1 0x40 MLOAD DUP1 PUSH1 0x40 ADD PUSH1 0x40 MSTORE DUP1 PUSH1 0x5 DUP2 MSTORE PUSH1 0x20 ADD PUSH32 0x434F424158000000000000000000000000000000000000000000000000000000 DUP2 MSTORE POP SWAP1 POP SWAP1 JUMP JUMPDEST PUSH0 PUSH2 0xFE7 PUSH2 0xFE0 PUSH2 0x119E JUMP JUMPDEST DUP5 DUP5 PUSH2 0x1368 JUMP JUMPDEST PUSH1 0x1 SWAP1 POP SWAP3 SWAP2 POP POP JUMP JUMPDEST PUSH1 0x11 SLOAD DUP2 JUMP JUMPDEST PUSH2 0xFFF PUSH2 0x119E JUMP JUMPDEST PUSH20 0xFFFFFFFFFFFFFFFFFFFFFFFFFFFFFFFFFFFFFFFF AND PUSH0 DUP1 SLOAD SWAP1 PUSH2 0x100 EXP SWAP1 DIV PUSH20 0xFFFFFFFFFFFFFFFFFFFFFFFFFFFFFFFFFFFFFFFF AND PUSH20 0xFFFFFFFFFFFFFFFFFFFFFFFFFFFFFFFFFFFFFFFF AND EQ PUSH2 0x108B JUMPI PUSH1 0x40 MLOAD PUSH32 0x8C379A000000000000000000000000000000000000000000000000000000000 DUP2 MSTORE PUSH1 0x4 ADD PUSH2 0x1082 SWAP1 PUSH2 0x28FB JUMP JUMPDEST PUSH1 0x40 MLOAD DUP1 SWAP2 SUB SWAP1 REVERT JUMPDEST PUSH0 JUMPDEST DUP2 MLOAD DUP2 LT ISZERO PUSH2 0x1118 JUMPI PUSH1 0x1 PUSH1 0x4 PUSH0 DUP5 DUP5 DUP2 MLOAD DUP2 LT PUSH2 0x10AE JUMPI PUSH2 0x10AD PUSH2 0x2919 JUMP JUMPDEST JUMPDEST PUSH1 0x20 MUL PUSH1 0x20 ADD ADD MLOAD PUSH20 0xFFFFFFFFFFFFFFFFFFFFFFFFFFFFFFFFFFFFFFFF AND PUSH20 0xFFFFFFFFFFFFFFFFFFFFFFFFFFFFFFFFFFFFFFFF AND DUP2 MSTORE PUSH1 0x20 ADD SWAP1 DUP2 MSTORE PUSH1 0x20 ADD PUSH0 KECCAK256 PUSH0 PUSH2 0x100 EXP DUP2 SLOAD DUP2 PUSH1 0xFF MUL NOT AND SWAP1 DUP4 ISZERO ISZERO MUL OR SWAP1 SSTORE POP DUP1 DUP1 PUSH2 0x1110 SWAP1 PUSH2 0x2946 JUMP JUMPDEST SWAP2 POP POP PUSH2 0x108D JUMP JUMPDEST POP POP JUMP JUMPDEST PUSH0 PUSH1 0x2 PUSH0 DUP5 PUSH20 0xFFFFFFFFFFFFFFFFFFFFFFFFFFFFFFFFFFFFFFFF AND PUSH20 0xFFFFFFFFFFFFFFFFFFFFFFFFFFFFFFFFFFFFFFFF AND DUP2 MSTORE PUSH1 0x20 ADD SWAP1 DUP2 MSTORE PUSH1 0x20 ADD PUSH0 KECCAK256 PUSH0 DUP4 PUSH20 0xFFFFFFFFFFFFFFFFFFFFFFFFFFFFFFFFFFFFFFFF AND PUSH20 0xFFFFFFFFFFFFFFFFFFFFFFFFFFFFFFFFFFFFFFFF AND DUP2 MSTORE PUSH1 0x20 ADD SWAP1 DUP2 MSTORE PUSH1 0x20 ADD PUSH0 KECCAK256 SLOAD SWAP1 POP SWAP3 SWAP2 POP POP JUMP JUMPDEST PUSH0 CALLER SWAP1 POP SWAP1 JUMP JUMPDEST PUSH0 PUSH20 0xFFFFFFFFFFFFFFFFFFFFFFFFFFFFFFFFFFFFFFFF AND DUP4 PUSH20 0xFFFFFFFFFFFFFFFFFFFFFFFFFFFFFFFFFFFFFFFF AND SUB PUSH2 0x1213 JUMPI PUSH1 0x40 MLOAD PUSH32 0x8C379A000000000000000000000000000000000000000000000000000000000 DUP2 MSTORE PUSH1 0x4 ADD PUSH2 0x120A SWAP1 PUSH2 0x2C4C JUMP JUMPDEST PUSH1 0x40 MLOAD DUP1 SWAP2 SUB SWAP1 REVERT JUMPDEST PUSH0 PUSH20 0xFFFFFFFFFFFFFFFFFFFFFFFFFFFFFFFFFFFFFFFF AND DUP3 PUSH20 0xFFFFFFFFFFFFFFFFFFFFFFFFFFFFFFFFFFFFFFFF AND SUB PUSH2 0x1281 JUMPI PUSH1 0x40 MLOAD PUSH32 0x8C379A000000000000000000000000000000000000000000000000000000000 DUP2 MSTORE PUSH1 0x4 ADD PUSH2 0x1278 SWAP1 PUSH2 0x2CDA JUMP JUMPDEST PUSH1 0x40 MLOAD DUP1 SWAP2 SUB SWAP1 REVERT JUMPDEST DUP1 PUSH1 0x2 PUSH0 DUP6 PUSH20 0xFFFFFFFFFFFFFFFFFFFFFFFFFFFFFFFFFFFFFFFF AND PUSH20 0xFFFFFFFFFFFFFFFFFFFFFFFFFFFFFFFFFFFFFFFF AND DUP2 MSTORE PUSH1 0x20 ADD SWAP1 DUP2 MSTORE PUSH1 0x20 ADD PUSH0 KECCAK256 PUSH0 DUP5 PUSH20 0xFFFFFFFFFFFFFFFFFFFFFFFFFFFFFFFFFFFFFFFF AND PUSH20 0xFFFFFFFFFFFFFFFFFFFFFFFFFFFFFFFFFFFFFFFF AND DUP2 MSTORE PUSH1 0x20 ADD SWAP1 DUP2 MSTORE PUSH1 0x20 ADD PUSH0 KECCAK256 DUP2 SWAP1 SSTORE POP DUP2 PUSH20 0xFFFFFFFFFFFFFFFFFFFFFFFFFFFFFFFFFFFFFFFF AND DUP4 PUSH20 0xFFFFFFFFFFFFFFFFFFFFFFFFFFFFFFFFFFFFFFFF AND PUSH32 0x8C5BE1E5EBEC7D5BD14F71427D1E84F3DD0314C0F7B2291E5B200AC8C7C3B925 DUP4 PUSH1 0x40 MLOAD PUSH2 0x135B SWAP2 SWAP1 PUSH2 0x2415 JUMP JUMPDEST PUSH1 0x40 MLOAD DUP1 SWAP2 SUB SWAP1 LOG3 POP POP POP JUMP JUMPDEST PUSH0 PUSH20 0xFFFFFFFFFFFFFFFFFFFFFFFFFFFFFFFFFFFFFFFF AND DUP4 PUSH20 0xFFFFFFFFFFFFFFFFFFFFFFFFFFFFFFFFFFFFFFFF AND SUB PUSH2 0x13D6 JUMPI PUSH1 0x40 MLOAD PUSH32 0x8C379A000000000000000000000000000000000000000000000000000000000 DUP2 MSTORE PUSH1 0x4 ADD PUSH2 0x13CD SWAP1 PUSH2 0x2D68 JUMP JUMPDEST PUSH1 0x40 MLOAD DUP1 SWAP2 SUB SWAP1 REVERT JUMPDEST PUSH0 PUSH20 0xFFFFFFFFFFFFFFFFFFFFFFFFFFFFFFFFFFFFFFFF AND DUP3 PUSH20 0xFFFFFFFFFFFFFFFFFFFFFFFFFFFFFFFFFFFFFFFF AND SUB PUSH2 0x1444 JUMPI PUSH1 0x40 MLOAD PUSH32 0x8C379A000000000000000000000000000000000000000000000000000000000 DUP2 MSTORE PUSH1 0x4 ADD PUSH2 0x143B SWAP1 PUSH2 0x2DF6 JUMP JUMPDEST PUSH1 0x40 MLOAD DUP1 SWAP2 SUB SWAP1 REVERT JUMPDEST PUSH0 DUP2 GT PUSH2 0x1486 JUMPI PUSH1 0x40 MLOAD PUSH32 0x8C379A000000000000000000000000000000000000000000000000000000000 DUP2 MSTORE PUSH1 0x4 ADD PUSH2 0x147D SWAP1 PUSH2 0x2E84 JUMP JUMPDEST PUSH1 0x40 MLOAD DUP1 SWAP2 SUB SWAP1 REVERT JUMPDEST PUSH0 PUSH2 0x148F PUSH2 0xF6A JUMP JUMPDEST PUSH20 0xFFFFFFFFFFFFFFFFFFFFFFFFFFFFFFFFFFFFFFFF AND DUP5 PUSH20 0xFFFFFFFFFFFFFFFFFFFFFFFFFFFFFFFFFFFFFFFF AND EQ ISZERO DUP1 ISZERO PUSH2 0x14FD JUMPI POP PUSH2 0x14CD PUSH2 0xF6A JUMP JUMPDEST PUSH20 0xFFFFFFFFFFFFFFFFFFFFFFFFFFFFFFFFFFFFFFFF AND DUP4 PUSH20 0xFFFFFFFFFFFFFFFFFFFFFFFFFFFFFFFFFFFFFFFF AND EQ ISZERO JUMPDEST ISZERO PUSH2 0x1A78 JUMPI PUSH1 0x4 PUSH0 DUP6 PUSH20 0xFFFFFFFFFFFFFFFFFFFFFFFFFFFFFFFFFFFFFFFF AND PUSH20 0xFFFFFFFFFFFFFFFFFFFFFFFFFFFFFFFFFFFFFFFF AND DUP2 MSTORE PUSH1 0x20 ADD SWAP1 DUP2 MSTORE PUSH1 0x20 ADD PUSH0 KECCAK256 PUSH0 SWAP1 SLOAD SWAP1 PUSH2 0x100 EXP SWAP1 DIV PUSH1 0xFF AND ISZERO DUP1 ISZERO PUSH2 0x15A0 JUMPI POP PUSH1 0x4 PUSH0 DUP5 PUSH20 0xFFFFFFFFFFFFFFFFFFFFFFFFFFFFFFFFFFFFFFFF AND PUSH20 0xFFFFFFFFFFFFFFFFFFFFFFFFFFFFFFFFFFFFFFFF AND DUP2 MSTORE PUSH1 0x20 ADD SWAP1 DUP2 MSTORE PUSH1 0x20 ADD PUSH0 KECCAK256 PUSH0 SWAP1 SLOAD SWAP1 PUSH2 0x100 EXP SWAP1 DIV PUSH1 0xFF AND ISZERO JUMPDEST PUSH2 0x15A8 JUMPI PUSH0 DUP1 REVERT JUMPDEST PUSH2 0x15E4 PUSH1 0x64 PUSH2 0x15D6 PUSH1 0xB SLOAD PUSH1 0xE SLOAD GT PUSH2 0x15C3 JUMPI PUSH1 0x7 SLOAD PUSH2 0x15C7 JUMP JUMPDEST PUSH1 0x9 SLOAD JUMPDEST DUP6 PUSH2 0x1D8A SWAP1 SWAP2 SWAP1 PUSH4 0xFFFFFFFF AND JUMP JUMPDEST PUSH2 0x1E01 SWAP1 SWAP2 SWAP1 PUSH4 0xFFFFFFFF AND JUMP JUMPDEST SWAP1 POP PUSH1 0x14 PUSH0 SWAP1 SLOAD SWAP1 PUSH2 0x100 EXP SWAP1 DIV PUSH20 0xFFFFFFFFFFFFFFFFFFFFFFFFFFFFFFFFFFFFFFFF AND PUSH20 0xFFFFFFFFFFFFFFFFFFFFFFFFFFFFFFFFFFFFFFFF AND DUP5 PUSH20 0xFFFFFFFFFFFFFFFFFFFFFFFFFFFFFFFFFFFFFFFF AND EQ DUP1 ISZERO PUSH2 0x168F JUMPI POP PUSH1 0x13 PUSH0 SWAP1 SLOAD SWAP1 PUSH2 0x100 EXP SWAP1 DIV PUSH20 0xFFFFFFFFFFFFFFFFFFFFFFFFFFFFFFFFFFFFFFFF AND PUSH20 0xFFFFFFFFFFFFFFFFFFFFFFFFFFFFFFFFFFFFFFFF AND DUP4 PUSH20 0xFFFFFFFFFFFFFFFFFFFFFFFFFFFFFFFFFFFFFFFF AND EQ ISZERO JUMPDEST DUP1 ISZERO PUSH2 0x16E2 JUMPI POP PUSH1 0x3 PUSH0 DUP5 PUSH20 0xFFFFFFFFFFFFFFFFFFFFFFFFFFFFFFFFFFFFFFFF AND PUSH20 0xFFFFFFFFFFFFFFFFFFFFFFFFFFFFFFFFFFFFFFFF AND DUP2 MSTORE PUSH1 0x20 ADD SWAP1 DUP2 MSTORE PUSH1 0x20 ADD PUSH0 KECCAK256 PUSH0 SWAP1 SLOAD SWAP1 PUSH2 0x100 EXP SWAP1 DIV PUSH1 0xFF AND ISZERO JUMPDEST ISZERO PUSH2 0x17C5 JUMPI PUSH1 0xF SLOAD DUP3 GT ISZERO PUSH2 0x172C JUMPI PUSH1 0x40 MLOAD PUSH32 0x8C379A000000000000000000000000000000000000000000000000000000000 DUP2 MSTORE PUSH1 0x4 ADD PUSH2 0x1723 SWAP1 PUSH2 0x2EEC JUMP JUMPDEST PUSH1 0x40 MLOAD DUP1 SWAP2 SUB SWAP1 REVERT JUMPDEST PUSH1 0x10 SLOAD DUP3 PUSH2 0x1739 DUP6 PUSH2 0xC9E JUMP JUMPDEST PUSH2 0x1743 SWAP2 SWAP1 PUSH2 0x2F0A JUMP JUMPDEST GT ISZERO PUSH2 0x1784 JUMPI PUSH1 0x40 MLOAD PUSH32 0x8C379A000000000000000000000000000000000000000000000000000000000 DUP2 MSTORE PUSH1 0x4 ADD PUSH2 0x177B SWAP1 PUSH2 0x2F87 JUMP JUMPDEST PUSH1 0x40 MLOAD DUP1 SWAP2 SUB SWAP1 REVERT JUMPDEST NUMBER PUSH1 0x3 PUSH1 0x6 SLOAD PUSH2 0x1794 SWAP2 SWAP1 PUSH2 0x2F0A JUMP JUMPDEST GT ISZERO PUSH2 0x17AD JUMPI PUSH2 0x17A3 DUP4 PUSH2 0x1E4A JUMP JUMPDEST ISZERO PUSH2 0x17AC JUMPI PUSH0 DUP1 REVERT JUMPDEST JUMPDEST PUSH1 0xE PUSH0 DUP2 SLOAD DUP1 SWAP3 SWAP2 SWAP1 PUSH2 0x17BF SWAP1 PUSH2 0x2946 JUMP JUMPDEST SWAP2 SWAP1 POP SSTORE POP JUMPDEST PUSH1 0x14 PUSH0 SWAP1 SLOAD SWAP1 PUSH2 0x100 EXP SWAP1 DIV PUSH20 0xFFFFFFFFFFFFFFFFFFFFFFFFFFFFFFFFFFFFFFFF AND PUSH20 0xFFFFFFFFFFFFFFFFFFFFFFFFFFFFFFFFFFFFFFFF AND DUP4 PUSH20 0xFFFFFFFFFFFFFFFFFFFFFFFFFFFFFFFFFFFFFFFF AND EQ ISZERO DUP1 ISZERO PUSH2 0x1869 JUMPI POP PUSH1 0x3 PUSH0 DUP5 PUSH20 0xFFFFFFFFFFFFFFFFFFFFFFFFFFFFFFFFFFFFFFFF AND PUSH20 0xFFFFFFFFFFFFFFFFFFFFFFFFFFFFFFFFFFFFFFFF AND DUP2 MSTORE PUSH1 0x20 ADD SWAP1 DUP2 MSTORE PUSH1 0x20 ADD PUSH0 KECCAK256 PUSH0 SWAP1 SLOAD SWAP1 PUSH2 0x100 EXP SWAP1 DIV PUSH1 0xFF AND ISZERO JUMPDEST ISZERO PUSH2 0x18C7 JUMPI PUSH1 0x10 SLOAD DUP3 PUSH2 0x187B DUP6 PUSH2 0xC9E JUMP JUMPDEST PUSH2 0x1885 SWAP2 SWAP1 PUSH2 0x2F0A JUMP JUMPDEST GT ISZERO PUSH2 0x18C6 JUMPI PUSH1 0x40 MLOAD PUSH32 0x8C379A000000000000000000000000000000000000000000000000000000000 DUP2 MSTORE PUSH1 0x4 ADD PUSH2 0x18BD SWAP1 PUSH2 0x2F87 JUMP JUMPDEST PUSH1 0x40 MLOAD DUP1 SWAP2 SUB SWAP1 REVERT JUMPDEST JUMPDEST PUSH1 0x14 PUSH0 SWAP1 SLOAD SWAP1 PUSH2 0x100 EXP SWAP1 DIV PUSH20 0xFFFFFFFFFFFFFFFFFFFFFFFFFFFFFFFFFFFFFFFF AND PUSH20 0xFFFFFFFFFFFFFFFFFFFFFFFFFFFFFFFFFFFFFFFF AND DUP4 PUSH20 0xFFFFFFFFFFFFFFFFFFFFFFFFFFFFFFFFFFFFFFFF AND EQ DUP1 ISZERO PUSH2 0x194F JUMPI POP ADDRESS PUSH20 0xFFFFFFFFFFFFFFFFFFFFFFFFFFFFFFFFFFFFFFFF AND DUP5 PUSH20 0xFFFFFFFFFFFFFFFFFFFFFFFFFFFFFFFFFFFFFFFF AND EQ ISZERO JUMPDEST ISZERO PUSH2 0x1993 JUMPI PUSH2 0x1990 PUSH1 0x64 PUSH2 0x1982 PUSH1 0xC SLOAD PUSH1 0xE SLOAD GT PUSH2 0x196F JUMPI PUSH1 0x8 SLOAD PUSH2 0x1973 JUMP JUMPDEST PUSH1 0xA SLOAD JUMPDEST DUP6 PUSH2 0x1D8A SWAP1 SWAP2 SWAP1 PUSH4 0xFFFFFFFF AND JUMP JUMPDEST PUSH2 0x1E01 SWAP1 SWAP2 SWAP1 PUSH4 0xFFFFFFFF AND JUMP JUMPDEST SWAP1 POP JUMPDEST PUSH0 PUSH2 0x199D ADDRESS PUSH2 0xC9E JUMP JUMPDEST SWAP1 POP PUSH1 0x14 PUSH1 0x15 SWAP1 SLOAD SWAP1 PUSH2 0x100 EXP SWAP1 DIV PUSH1 0xFF AND ISZERO DUP1 ISZERO PUSH2 0x1A08 JUMPI POP PUSH1 0x14 PUSH0 SWAP1 SLOAD SWAP1 PUSH2 0x100 EXP SWAP1 DIV PUSH20 0xFFFFFFFFFFFFFFFFFFFFFFFFFFFFFFFFFFFFFFFF AND PUSH20 0xFFFFFFFFFFFFFFFFFFFFFFFFFFFFFFFFFFFFFFFF AND DUP5 PUSH20 0xFFFFFFFFFFFFFFFFFFFFFFFFFFFFFFFFFFFFFFFF AND EQ JUMPDEST DUP1 ISZERO PUSH2 0x1A20 JUMPI POP PUSH1 0x14 PUSH1 0x16 SWAP1 SLOAD SWAP1 PUSH2 0x100 EXP SWAP1 DIV PUSH1 0xFF AND JUMPDEST DUP1 ISZERO PUSH2 0x1A2D JUMPI POP PUSH1 0x11 SLOAD DUP2 GT JUMPDEST DUP1 ISZERO PUSH2 0x1A3C JUMPI POP PUSH1 0xD SLOAD PUSH1 0xE SLOAD GT JUMPDEST ISZERO PUSH2 0x1A76 JUMPI PUSH2 0x1A5E PUSH2 0x1A59 DUP5 PUSH2 0x1A54 DUP5 PUSH1 0x12 SLOAD PUSH2 0x1E5B JUMP JUMPDEST PUSH2 0x1E5B JUMP JUMPDEST PUSH2 0x1E73 JUMP JUMPDEST PUSH0 SELFBALANCE SWAP1 POP PUSH0 DUP2 GT ISZERO PUSH2 0x1A74 JUMPI PUSH2 0x1A73 SELFBALANCE PUSH2 0x20DE JUMP JUMPDEST JUMPDEST POP JUMPDEST POP JUMPDEST PUSH0 DUP2 GT ISZERO PUSH2 0x1B77 JUMPI PUSH2 0x1AD0 DUP2 PUSH1 0x1 PUSH0 ADDRESS PUSH20 0xFFFFFFFFFFFFFFFFFFFFFFFFFFFFFFFFFFFFFFFF AND PUSH20 0xFFFFFFFFFFFFFFFFFFFFFFFFFFFFFFFFFFFFFFFF AND DUP2 MSTORE PUSH1 0x20 ADD SWAP1 DUP2 MSTORE PUSH1 0x20 ADD PUSH0 KECCAK256 SLOAD PUSH2 0x2146 SWAP1 SWAP2 SWAP1 PUSH4 0xFFFFFFFF AND JUMP JUMPDEST PUSH1 0x1 PUSH0 ADDRESS PUSH20 0xFFFFFFFFFFFFFFFFFFFFFFFFFFFFFFFFFFFFFFFF AND PUSH20 0xFFFFFFFFFFFFFFFFFFFFFFFFFFFFFFFFFFFFFFFF AND DUP2 MSTORE PUSH1 0x20 ADD SWAP1 DUP2 MSTORE PUSH1 0x20 ADD PUSH0 KECCAK256 DUP2 SWAP1 SSTORE POP ADDRESS PUSH20 0xFFFFFFFFFFFFFFFFFFFFFFFFFFFFFFFFFFFFFFFF AND DUP5 PUSH20 0xFFFFFFFFFFFFFFFFFFFFFFFFFFFFFFFFFFFFFFFF AND PUSH32 0xDDF252AD1BE2C89B69C2B068FC378DAA952BA7F163C4A11628F55A4DF523B3EF DUP4 PUSH1 0x40 MLOAD PUSH2 0x1B6E SWAP2 SWAP1 PUSH2 0x2415 JUMP JUMPDEST PUSH1 0x40 MLOAD DUP1 SWAP2 SUB SWAP1 LOG3 JUMPDEST PUSH2 0x1BC7 DUP3 PUSH1 0x1 PUSH0 DUP8 PUSH20 0xFFFFFFFFFFFFFFFFFFFFFFFFFFFFFFFFFFFFFFFF AND PUSH20 0xFFFFFFFFFFFFFFFFFFFFFFFFFFFFFFFFFFFFFFFF AND DUP2 MSTORE PUSH1 0x20 ADD SWAP1 DUP2 MSTORE PUSH1 0x20 ADD PUSH0 KECCAK256 SLOAD PUSH2 0x21A3 SWAP1 SWAP2 SWAP1 PUSH4 0xFFFFFFFF AND JUMP JUMPDEST PUSH1 0x1 PUSH0 DUP7 PUSH20 0xFFFFFFFFFFFFFFFFFFFFFFFFFFFFFFFFFFFFFFFF AND PUSH20 0xFFFFFFFFFFFFFFFFFFFFFFFFFFFFFFFFFFFFFFFF AND DUP2 MSTORE PUSH1 0x20 ADD SWAP1 DUP2 MSTORE PUSH1 0x20 ADD PUSH0 KECCAK256 DUP2 SWAP1 SSTORE POP PUSH2 0x1C6A PUSH2 0x1C1E DUP3 DUP5 PUSH2 0x21A3 SWAP1 SWAP2 SWAP1 PUSH4 0xFFFFFFFF AND JUMP JUMPDEST PUSH1 0x1 PUSH0 DUP7 PUSH20 0xFFFFFFFFFFFFFFFFFFFFFFFFFFFFFFFFFFFFFFFF AND PUSH20 0xFFFFFFFFFFFFFFFFFFFFFFFFFFFFFFFFFFFFFFFF AND DUP2 MSTORE PUSH1 0x20 ADD SWAP1 DUP2 MSTORE PUSH1 0x20 ADD PUSH0 KECCAK256 SLOAD PUSH2 0x2146 SWAP1 SWAP2 SWAP1 PUSH4 0xFFFFFFFF AND JUMP JUMPDEST PUSH1 0x1 PUSH0 DUP6 PUSH20 0xFFFFFFFFFFFFFFFFFFFFFFFFFFFFFFFFFFFFFFFF AND PUSH20 0xFFFFFFFFFFFFFFFFFFFFFFFFFFFFFFFFFFFFFFFF AND DUP2 MSTORE PUSH1 0x20 ADD SWAP1 DUP2 MSTORE PUSH1 0x20 ADD PUSH0 KECCAK256 DUP2 SWAP1 SSTORE POP DUP3 PUSH20 0xFFFFFFFFFFFFFFFFFFFFFFFFFFFFFFFFFFFFFFFF AND DUP5 PUSH20 0xFFFFFFFFFFFFFFFFFFFFFFFFFFFFFFFFFFFFFFFF AND PUSH32 0xDDF252AD1BE2C89B69C2B068FC378DAA952BA7F163C4A11628F55A4DF523B3EF PUSH2 0x1D0D DUP5 DUP7 PUSH2 0x21A3 SWAP1 SWAP2 SWAP1 PUSH4 0xFFFFFFFF AND JUMP JUMPDEST PUSH1 0x40 MLOAD PUSH2 0x1D1A SWAP2 SWAP1 PUSH2 0x2415 JUMP JUMPDEST PUSH1 0x40 MLOAD DUP1 SWAP2 SUB SWAP1 LOG3 POP POP POP POP JUMP JUMPDEST PUSH0 DUP4 DUP4 GT ISZERO DUP3 SWAP1 PUSH2 0x1D6F JUMPI PUSH1 0x40 MLOAD PUSH32 0x8C379A000000000000000000000000000000000000000000000000000000000 DUP2 MSTORE PUSH1 0x4 ADD PUSH2 0x1D66 SWAP2 SWAP1 PUSH2 0x22D7 JUMP JUMPDEST PUSH1 0x40 MLOAD DUP1 SWAP2 SUB SWAP1 REVERT JUMPDEST POP PUSH0 DUP4 DUP6 PUSH2 0x1D7D SWAP2 SWAP1 PUSH2 0x2FA5 JUMP JUMPDEST SWAP1 POP DUP1 SWAP2 POP POP SWAP4 SWAP3 POP POP POP JUMP JUMPDEST PUSH0 DUP1 DUP4 SUB PUSH2 0x1D9A JUMPI PUSH0 SWAP1 POP PUSH2 0x1DFB JUMP JUMPDEST PUSH0 DUP3 DUP5 PUSH2 0x1DA7 SWAP2 SWAP1 PUSH2 0x2870 JUMP JUMPDEST SWAP1 POP DUP3 DUP5 DUP3 PUSH2 0x1DB6 SWAP2 SWAP1 PUSH2 0x3005 JUMP JUMPDEST EQ PUSH2 0x1DF6 JUMPI PUSH1 0x40 MLOAD PUSH32 0x8C379A000000000000000000000000000000000000000000000000000000000 DUP2 MSTORE PUSH1 0x4 ADD PUSH2 0x1DED SWAP1 PUSH2 0x30A5 JUMP JUMPDEST PUSH1 0x40 MLOAD DUP1 SWAP2 SUB SWAP1 REVERT JUMPDEST DUP1 SWAP2 POP POP JUMPDEST SWAP3 SWAP2 POP POP JUMP JUMPDEST PUSH0 PUSH2 0x1E42 DUP4 DUP4 PUSH1 0x40 MLOAD DUP1 PUSH1 0x40 ADD PUSH1 0x40 MSTORE DUP1 PUSH1 0x1A DUP2 MSTORE PUSH1 0x20 ADD PUSH32 0x536166654D6174683A206469766973696F6E206279207A65726F000000000000 DUP2 MSTORE POP PUSH2 0x21EC JUMP JUMPDEST SWAP1 POP SWAP3 SWAP2 POP POP JUMP JUMPDEST PUSH0 DUP1 DUP3 EXTCODESIZE SWAP1 POP PUSH0 DUP2 GT SWAP2 POP POP SWAP2 SWAP1 POP JUMP JUMPDEST PUSH0 DUP2 DUP4 GT PUSH2 0x1E69 JUMPI DUP3 PUSH2 0x1E6B JUMP JUMPDEST DUP2 JUMPDEST SWAP1 POP SWAP3 SWAP2 POP POP JUMP JUMPDEST PUSH1 0x1 PUSH1 0x14 PUSH1 0x15 PUSH2 0x100 EXP DUP2 SLOAD DUP2 PUSH1 0xFF MUL NOT AND SWAP1 DUP4 ISZERO ISZERO MUL OR SWAP1 SSTORE POP PUSH0 PUSH1 0x2 PUSH8 0xFFFFFFFFFFFFFFFF DUP2 GT ISZERO PUSH2 0x1EAA JUMPI PUSH2 0x1EA9 PUSH2 0x24B6 JUMP JUMPDEST JUMPDEST PUSH1 0x40 MLOAD SWAP1 DUP1 DUP3 MSTORE DUP1 PUSH1 0x20 MUL PUSH1 0x20 ADD DUP3 ADD PUSH1 0x40 MSTORE DUP1 ISZERO PUSH2 0x1ED8 JUMPI DUP2 PUSH1 0x20 ADD PUSH1 0x20 DUP3 MUL DUP1 CALLDATASIZE DUP4 CALLDATACOPY DUP1 DUP3 ADD SWAP2 POP POP SWAP1 POP JUMPDEST POP SWAP1 POP ADDRESS DUP2 PUSH0 DUP2 MLOAD DUP2 LT PUSH2 0x1EEF JUMPI PUSH2 0x1EEE PUSH2 0x2919 JUMP JUMPDEST JUMPDEST PUSH1 0x20 MUL PUSH1 0x20 ADD ADD SWAP1 PUSH20 0xFFFFFFFFFFFFFFFFFFFFFFFFFFFFFFFFFFFFFFFF AND SWAP1 DUP2 PUSH20 0xFFFFFFFFFFFFFFFFFFFFFFFFFFFFFFFFFFFFFFFF AND DUP2 MSTORE POP POP PUSH1 0x13 PUSH0 SWAP1 SLOAD SWAP1 PUSH2 0x100 EXP SWAP1 DIV PUSH20 0xFFFFFFFFFFFFFFFFFFFFFFFFFFFFFFFFFFFFFFFF AND PUSH20 0xFFFFFFFFFFFFFFFFFFFFFFFFFFFFFFFFFFFFFFFF AND PUSH4 0xAD5C4648 PUSH1 0x40 MLOAD DUP2 PUSH4 0xFFFFFFFF AND PUSH1 0xE0 SHL DUP2 MSTORE PUSH1 0x4 ADD PUSH1 0x20 PUSH1 0x40 MLOAD DUP1 DUP4 SUB DUP2 DUP7 GAS STATICCALL ISZERO DUP1 ISZERO PUSH2 0x1F93 JUMPI RETURNDATASIZE PUSH0 DUP1 RETURNDATACOPY RETURNDATASIZE PUSH0 REVERT JUMPDEST POP POP POP POP PUSH1 0x40 MLOAD RETURNDATASIZE PUSH1 0x1F NOT PUSH1 0x1F DUP3 ADD AND DUP3 ADD DUP1 PUSH1 0x40 MSTORE POP DUP2 ADD SWAP1 PUSH2 0x1FB7 SWAP2 SWAP1 PUSH2 0x2A09 JUMP JUMPDEST DUP2 PUSH1 0x1 DUP2 MLOAD DUP2 LT PUSH2 0x1FCB JUMPI PUSH2 0x1FCA PUSH2 0x2919 JUMP JUMPDEST JUMPDEST PUSH1 0x20 MUL PUSH1 0x20 ADD ADD SWAP1 PUSH20 0xFFFFFFFFFFFFFFFFFFFFFFFFFFFFFFFFFFFFFFFF AND SWAP1 DUP2 PUSH20 0xFFFFFFFFFFFFFFFFFFFFFFFFFFFFFFFFFFFFFFFF AND DUP2 MSTORE POP POP PUSH2 0x2031 ADDRESS PUSH1 0x13 PUSH0 SWAP1 SLOAD SWAP1 PUSH2 0x100 EXP SWAP1 DIV PUSH20 0xFFFFFFFFFFFFFFFFFFFFFFFFFFFFFFFFFFFFFFFF AND DUP5 PUSH2 0x11A5 JUMP JUMPDEST PUSH1 0x13 PUSH0 SWAP1 SLOAD SWAP1 PUSH2 0x100 EXP SWAP1 DIV PUSH20 0xFFFFFFFFFFFFFFFFFFFFFFFFFFFFFFFFFFFFFFFF AND PUSH20 0xFFFFFFFFFFFFFFFFFFFFFFFFFFFFFFFFFFFFFFFF AND PUSH4 0x791AC947 DUP4 PUSH0 DUP5 ADDRESS TIMESTAMP PUSH1 0x40 MLOAD DUP7 PUSH4 0xFFFFFFFF AND PUSH1 0xE0 SHL DUP2 MSTORE PUSH1 0x4 ADD PUSH2 0x2093 SWAP6 SWAP5 SWAP4 SWAP3 SWAP2 SWAP1 PUSH2 0x317A JUMP JUMPDEST PUSH0 PUSH1 0x40 MLOAD DUP1 DUP4 SUB DUP2 PUSH0 DUP8 DUP1 EXTCODESIZE ISZERO DUP1 ISZERO PUSH2 0x20AA JUMPI PUSH0 DUP1 REVERT JUMPDEST POP GAS CALL ISZERO DUP1 ISZERO PUSH2 0x20BC JUMPI RETURNDATASIZE PUSH0 DUP1 RETURNDATACOPY RETURNDATASIZE PUSH0 REVERT JUMPDEST POP POP POP POP POP PUSH0 PUSH1 0x14 PUSH1 0x15 PUSH2 0x100 EXP DUP2 SLOAD DUP2 PUSH1 0xFF MUL NOT AND SWAP1 DUP4 ISZERO ISZERO MUL OR SWAP1 SSTORE POP POP JUMP JUMPDEST PUSH1 0x5 PUSH0 SWAP1 SLOAD SWAP1 PUSH2 0x100 EXP SWAP1 DIV PUSH20 0xFFFFFFFFFFFFFFFFFFFFFFFFFFFFFFFFFFFFFFFF AND PUSH20 0xFFFFFFFFFFFFFFFFFFFFFFFFFFFFFFFFFFFFFFFF AND PUSH2 0x8FC DUP3 SWAP1 DUP2 ISZERO MUL SWAP1 PUSH1 0x40 MLOAD PUSH0 PUSH1 0x40 MLOAD DUP1 DUP4 SUB DUP2 DUP6 DUP9 DUP9 CALL SWAP4 POP POP POP POP ISZERO DUP1 ISZERO PUSH2 0x2142 JUMPI RETURNDATASIZE PUSH0 DUP1 RETURNDATACOPY RETURNDATASIZE PUSH0 REVERT JUMPDEST POP POP JUMP JUMPDEST PUSH0 DUP1 DUP3 DUP5 PUSH2 0x2154 SWAP2 SWAP1 PUSH2 0x2F0A JUMP JUMPDEST SWAP1 POP DUP4 DUP2 LT ISZERO PUSH2 0x2199 JUMPI PUSH1 0x40 MLOAD PUSH32 0x8C379A000000000000000000000000000000000000000000000000000000000 DUP2 MSTORE PUSH1 0x4 ADD PUSH2 0x2190 SWAP1 PUSH2 0x321C JUMP JUMPDEST PUSH1 0x40 MLOAD DUP1 SWAP2 SUB SWAP1 REVERT JUMPDEST DUP1 SWAP2 POP POP SWAP3 SWAP2 POP POP JUMP JUMPDEST PUSH0 PUSH2 0x21E4 DUP4 DUP4 PUSH1 0x40 MLOAD DUP1 PUSH1 0x40 ADD PUSH1 0x40 MSTORE DUP1 PUSH1 0x1E DUP2 MSTORE PUSH1 0x20 ADD PUSH32 0x536166654D6174683A207375627472616374696F6E206F766572666C6F770000 DUP2 MSTORE POP PUSH2 0x1D28 JUMP JUMPDEST SWAP1 POP SWAP3 SWAP2 POP POP JUMP JUMPDEST PUSH0 DUP1 DUP4 GT DUP3 SWAP1 PUSH2 0x2232 JUMPI PUSH1 0x40 MLOAD PUSH32 0x8C379A000000000000000000000000000000000000000000000000000000000 DUP2 MSTORE PUSH1 0x4 ADD PUSH2 0x2229 SWAP2 SWAP1 PUSH2 0x22D7 JUMP JUMPDEST PUSH1 0x40 MLOAD DUP1 SWAP2 SUB SWAP1 REVERT JUMPDEST POP PUSH0 DUP4 DUP6 PUSH2 0x2240 SWAP2 SWAP1 PUSH2 0x3005 JUMP JUMPDEST SWAP1 POP DUP1 SWAP2 POP POP SWAP4 SWAP3 POP POP POP JUMP JUMPDEST PUSH0 DUP2 MLOAD SWAP1 POP SWAP2 SWAP1 POP JUMP JUMPDEST PUSH0 DUP3 DUP3 MSTORE PUSH1 0x20 DUP3 ADD SWAP1 POP SWAP3 SWAP2 POP POP JUMP JUMPDEST PUSH0 JUMPDEST DUP4 DUP2 LT ISZERO PUSH2 0x2284 JUMPI DUP1 DUP3 ADD MLOAD DUP2 DUP5 ADD MSTORE PUSH1 0x20 DUP2 ADD SWAP1 POP PUSH2 0x2269 JUMP JUMPDEST PUSH0 DUP5 DUP5 ADD MSTORE POP POP POP POP JUMP JUMPDEST PUSH0 PUSH1 0x1F NOT PUSH1 0x1F DUP4 ADD AND SWAP1 POP SWAP2 SWAP1 POP JUMP JUMPDEST PUSH0 PUSH2 0x22A9 DUP3 PUSH2 0x224D JUMP JUMPDEST PUSH2 0x22B3 DUP2 DUP6 PUSH2 0x2257 JUMP JUMPDEST SWAP4 POP PUSH2 0x22C3 DUP2 DUP6 PUSH1 0x20 DUP7 ADD PUSH2 0x2267 JUMP JUMPDEST PUSH2 0x22CC DUP2 PUSH2 0x228F JUMP JUMPDEST DUP5 ADD SWAP2 POP POP SWAP3 SWAP2 POP POP JUMP JUMPDEST PUSH0 PUSH1 0x20 DUP3 ADD SWAP1 POP DUP2 DUP2 SUB PUSH0 DUP4 ADD MSTORE PUSH2 0x22EF DUP2 DUP5 PUSH2 0x229F JUMP JUMPDEST SWAP1 POP SWAP3 SWAP2 POP POP JUMP JUMPDEST PUSH0 PUSH1 0x40 MLOAD SWAP1 POP SWAP1 JUMP JUMPDEST PUSH0 DUP1 REVERT JUMPDEST PUSH0 DUP1 REVERT JUMPDEST PUSH0 PUSH20 0xFFFFFFFFFFFFFFFFFFFFFFFFFFFFFFFFFFFFFFFF DUP3 AND SWAP1 POP SWAP2 SWAP1 POP JUMP JUMPDEST PUSH0 PUSH2 0x2331 DUP3 PUSH2 0x2308 JUMP JUMPDEST SWAP1 POP SWAP2 SWAP1 POP JUMP JUMPDEST PUSH2 0x2341 DUP2 PUSH2 0x2327 JUMP JUMPDEST DUP2 EQ PUSH2 0x234B JUMPI PUSH0 DUP1 REVERT JUMPDEST POP JUMP JUMPDEST PUSH0 DUP2 CALLDATALOAD SWAP1 POP PUSH2 0x235C DUP2 PUSH2 0x2338 JUMP JUMPDEST SWAP3 SWAP2 POP POP JUMP JUMPDEST PUSH0 DUP2 SWAP1 POP SWAP2 SWAP1 POP JUMP JUMPDEST PUSH2 0x2374 DUP2 PUSH2 0x2362 JUMP JUMPDEST DUP2 EQ PUSH2 0x237E JUMPI PUSH0 DUP1 REVERT JUMPDEST POP JUMP JUMPDEST PUSH0 DUP2 CALLDATALOAD SWAP1 POP PUSH2 0x238F DUP2 PUSH2 0x236B JUMP JUMPDEST SWAP3 SWAP2 POP POP JUMP JUMPDEST PUSH0 DUP1 PUSH1 0x40 DUP4 DUP6 SUB SLT ISZERO PUSH2 0x23AB JUMPI PUSH2 0x23AA PUSH2 0x2300 JUMP JUMPDEST JUMPDEST PUSH0 PUSH2 0x23B8 DUP6 DUP3 DUP7 ADD PUSH2 0x234E JUMP JUMPDEST SWAP3 POP POP PUSH1 0x20 PUSH2 0x23C9 DUP6 DUP3 DUP7 ADD PUSH2 0x2381 JUMP JUMPDEST SWAP2 POP POP SWAP3 POP SWAP3 SWAP1 POP JUMP JUMPDEST PUSH0 DUP2 ISZERO ISZERO SWAP1 POP SWAP2 SWAP1 POP JUMP JUMPDEST PUSH2 0x23E7 DUP2 PUSH2 0x23D3 JUMP JUMPDEST DUP3 MSTORE POP POP JUMP JUMPDEST PUSH0 PUSH1 0x20 DUP3 ADD SWAP1 POP PUSH2 0x2400 PUSH0 DUP4 ADD DUP5 PUSH2 0x23DE JUMP JUMPDEST SWAP3 SWAP2 POP POP JUMP JUMPDEST PUSH2 0x240F DUP2 PUSH2 0x2362 JUMP JUMPDEST DUP3 MSTORE POP POP JUMP JUMPDEST PUSH0 PUSH1 0x20 DUP3 ADD SWAP1 POP PUSH2 0x2428 PUSH0 DUP4 ADD DUP5 PUSH2 0x2406 JUMP JUMPDEST SWAP3 SWAP2 POP POP JUMP JUMPDEST PUSH0 DUP1 PUSH0 PUSH1 0x60 DUP5 DUP7 SUB SLT ISZERO PUSH2 0x2445 JUMPI PUSH2 0x2444 PUSH2 0x2300 JUMP JUMPDEST JUMPDEST PUSH0 PUSH2 0x2452 DUP7 DUP3 DUP8 ADD PUSH2 0x234E JUMP JUMPDEST SWAP4 POP POP PUSH1 0x20 PUSH2 0x2463 DUP7 DUP3 DUP8 ADD PUSH2 0x234E JUMP JUMPDEST SWAP3 POP POP PUSH1 0x40 PUSH2 0x2474 DUP7 DUP3 DUP8 ADD PUSH2 0x2381 JUMP JUMPDEST SWAP2 POP POP SWAP3 POP SWAP3 POP SWAP3 JUMP JUMPDEST PUSH0 PUSH1 0xFF DUP3 AND SWAP1 POP SWAP2 SWAP1 POP JUMP JUMPDEST PUSH2 0x2493 DUP2 PUSH2 0x247E JUMP JUMPDEST DUP3 MSTORE POP POP JUMP JUMPDEST PUSH0 PUSH1 0x20 DUP3 ADD SWAP1 POP PUSH2 0x24AC PUSH0 DUP4 ADD DUP5 PUSH2 0x248A JUMP JUMPDEST SWAP3 SWAP2 POP POP JUMP JUMPDEST PUSH0 DUP1 REVERT JUMPDEST PUSH32 0x4E487B7100000000000000000000000000000000000000000000000000000000 PUSH0 MSTORE PUSH1 0x41 PUSH1 0x4 MSTORE PUSH1 0x24 PUSH0 REVERT JUMPDEST PUSH2 0x24EC DUP3 PUSH2 0x228F JUMP JUMPDEST DUP2 ADD DUP2 DUP2 LT PUSH8 0xFFFFFFFFFFFFFFFF DUP3 GT OR ISZERO PUSH2 0x250B JUMPI PUSH2 0x250A PUSH2 0x24B6 JUMP JUMPDEST JUMPDEST DUP1 PUSH1 0x40 MSTORE POP POP POP JUMP JUMPDEST PUSH0 PUSH2 0x251D PUSH2 0x22F7 JUMP JUMPDEST SWAP1 POP PUSH2 0x2529 DUP3 DUP3 PUSH2 0x24E3 JUMP JUMPDEST SWAP2 SWAP1 POP JUMP JUMPDEST PUSH0 PUSH8 0xFFFFFFFFFFFFFFFF DUP3 GT ISZERO PUSH2 0x2548 JUMPI PUSH2 0x2547 PUSH2 0x24B6 JUMP JUMPDEST JUMPDEST PUSH1 0x20 DUP3 MUL SWAP1 POP PUSH1 0x20 DUP2 ADD SWAP1 POP SWAP2 SWAP1 POP JUMP JUMPDEST PUSH0 DUP1 REVERT JUMPDEST PUSH0 PUSH2 0x256F PUSH2 0x256A DUP5 PUSH2 0x252E JUMP JUMPDEST PUSH2 0x2514 JUMP JUMPDEST SWAP1 POP DUP1 DUP4 DUP3 MSTORE PUSH1 0x20 DUP3 ADD SWAP1 POP PUSH1 0x20 DUP5 MUL DUP4 ADD DUP6 DUP2 GT ISZERO PUSH2 0x2592 JUMPI PUSH2 0x2591 PUSH2 0x2559 JUMP JUMPDEST JUMPDEST DUP4 JUMPDEST DUP2 DUP2 LT ISZERO PUSH2 0x25BB JUMPI DUP1 PUSH2 0x25A7 DUP9 DUP3 PUSH2 0x234E JUMP JUMPDEST DUP5 MSTORE PUSH1 0x20 DUP5 ADD SWAP4 POP POP PUSH1 0x20 DUP2 ADD SWAP1 POP PUSH2 0x2594 JUMP JUMPDEST POP POP POP SWAP4 SWAP3 POP POP POP JUMP JUMPDEST PUSH0 DUP3 PUSH1 0x1F DUP4 ADD SLT PUSH2 0x25D9 JUMPI PUSH2 0x25D8 PUSH2 0x24B2 JUMP JUMPDEST JUMPDEST DUP2 CALLDATALOAD PUSH2 0x25E9 DUP5 DUP3 PUSH1 0x20 DUP7 ADD PUSH2 0x255D JUMP JUMPDEST SWAP2 POP POP SWAP3 SWAP2 POP POP JUMP JUMPDEST PUSH0 PUSH1 0x20 DUP3 DUP5 SUB SLT ISZERO PUSH2 0x2607 JUMPI PUSH2 0x2606 PUSH2 0x2300 JUMP JUMPDEST JUMPDEST PUSH0 DUP3 ADD CALLDATALOAD PUSH8 0xFFFFFFFFFFFFFFFF DUP2 GT ISZERO PUSH2 0x2624 JUMPI PUSH2 0x2623 PUSH2 0x2304 JUMP JUMPDEST JUMPDEST PUSH2 0x2630 DUP5 DUP3 DUP6 ADD PUSH2 0x25C5 JUMP JUMPDEST SWAP2 POP POP SWAP3 SWAP2 POP POP JUMP JUMPDEST PUSH0 PUSH1 0x20 DUP3 DUP5 SUB SLT ISZERO PUSH2 0x264E JUMPI PUSH2 0x264D PUSH2 0x2300 JUMP JUMPDEST JUMPDEST PUSH0 PUSH2 0x265B DUP5 DUP3 DUP6 ADD PUSH2 0x234E JUMP JUMPDEST SWAP2 POP POP SWAP3 SWAP2 POP POP JUMP JUMPDEST PUSH2 0x266D DUP2 PUSH2 0x2327 JUMP JUMPDEST DUP3 MSTORE POP POP JUMP JUMPDEST PUSH0 PUSH1 0x20 DUP3 ADD SWAP1 POP PUSH2 0x2686 PUSH0 DUP4 ADD DUP5 PUSH2 0x2664 JUMP JUMPDEST SWAP3 SWAP2 POP POP JUMP JUMPDEST PUSH0 DUP1 PUSH1 0x40 DUP4 DUP6 SUB SLT ISZERO PUSH2 0x26A2 JUMPI PUSH2 0x26A1 PUSH2 0x2300 JUMP JUMPDEST JUMPDEST PUSH0 PUSH2 0x26AF DUP6 DUP3 DUP7 ADD PUSH2 0x234E JUMP JUMPDEST SWAP3 POP POP PUSH1 0x20 PUSH2 0x26C0 DUP6 DUP3 DUP7 ADD PUSH2 0x234E JUMP JUMPDEST SWAP2 POP POP SWAP3 POP SWAP3 SWAP1 POP JUMP JUMPDEST PUSH32 0x4E487B7100000000000000000000000000000000000000000000000000000000 PUSH0 MSTORE PUSH1 0x11 PUSH1 0x4 MSTORE PUSH1 0x24 PUSH0 REVERT JUMPDEST PUSH0 DUP2 PUSH1 0x1 SHR SWAP1 POP SWAP2 SWAP1 POP JUMP JUMPDEST PUSH0 DUP1 DUP3 SWAP2 POP DUP4 SWAP1 POP JUMPDEST PUSH1 0x1 DUP6 GT ISZERO PUSH2 0x274C JUMPI DUP1 DUP7 DIV DUP2 GT ISZERO PUSH2 0x2728 JUMPI PUSH2 0x2727 PUSH2 0x26CA JUMP JUMPDEST JUMPDEST PUSH1 0x1 DUP6 AND ISZERO PUSH2 0x2737 JUMPI DUP1 DUP3 MUL SWAP2 POP JUMPDEST DUP1 DUP2 MUL SWAP1 POP PUSH2 0x2745 DUP6 PUSH2 0x26F7 JUMP JUMPDEST SWAP5 POP PUSH2 0x270C JUMP JUMPDEST SWAP5 POP SWAP5 SWAP3 POP POP POP JUMP JUMPDEST PUSH0 DUP3 PUSH2 0x2764 JUMPI PUSH1 0x1 SWAP1 POP PUSH2 0x281F JUMP JUMPDEST DUP2 PUSH2 0x2771 JUMPI PUSH0 SWAP1 POP PUSH2 0x281F JUMP JUMPDEST DUP2 PUSH1 0x1 DUP2 EQ PUSH2 0x2787 JUMPI PUSH1 0x2 DUP2 EQ PUSH2 0x2791 JUMPI PUSH2 0x27C0 JUMP JUMPDEST PUSH1 0x1 SWAP2 POP POP PUSH2 0x281F JUMP JUMPDEST PUSH1 0xFF DUP5 GT ISZERO PUSH2 0x27A3 JUMPI PUSH2 0x27A2 PUSH2 0x26CA JUMP JUMPDEST JUMPDEST DUP4 PUSH1 0x2 EXP SWAP2 POP DUP5 DUP3 GT ISZERO PUSH2 0x27BA JUMPI PUSH2 0x27B9 PUSH2 0x26CA JUMP JUMPDEST JUMPDEST POP PUSH2 0x281F JUMP JUMPDEST POP PUSH1 0x20 DUP4 LT PUSH2 0x133 DUP4 LT AND PUSH1 0x4E DUP5 LT PUSH1 0xB DUP5 LT AND OR ISZERO PUSH2 0x27F5 JUMPI DUP3 DUP3 EXP SWAP1 POP DUP4 DUP2 GT ISZERO PUSH2 0x27F0 JUMPI PUSH2 0x27EF PUSH2 0x26CA JUMP JUMPDEST JUMPDEST PUSH2 0x281F JUMP JUMPDEST PUSH2 0x2802 DUP5 DUP5 DUP5 PUSH1 0x1 PUSH2 0x2703 JUMP JUMPDEST SWAP3 POP SWAP1 POP DUP2 DUP5 DIV DUP2 GT ISZERO PUSH2 0x2819 JUMPI PUSH2 0x2818 PUSH2 0x26CA JUMP JUMPDEST JUMPDEST DUP2 DUP2 MUL SWAP1 POP JUMPDEST SWAP4 SWAP3 POP POP POP JUMP JUMPDEST PUSH0 PUSH2 0x2830 DUP3 PUSH2 0x2362 JUMP JUMPDEST SWAP2 POP PUSH2 0x283B DUP4 PUSH2 0x247E JUMP JUMPDEST SWAP3 POP PUSH2 0x2868 PUSH32 0xFFFFFFFFFFFFFFFFFFFFFFFFFFFFFFFFFFFFFFFFFFFFFFFFFFFFFFFFFFFFFFFF DUP5 DUP5 PUSH2 0x2755 JUMP JUMPDEST SWAP1 POP SWAP3 SWAP2 POP POP JUMP JUMPDEST PUSH0 PUSH2 0x287A DUP3 PUSH2 0x2362 JUMP JUMPDEST SWAP2 POP PUSH2 0x2885 DUP4 PUSH2 0x2362 JUMP JUMPDEST SWAP3 POP DUP3 DUP3 MUL PUSH2 0x2893 DUP2 PUSH2 0x2362 JUMP JUMPDEST SWAP2 POP DUP3 DUP3 DIV DUP5 EQ DUP4 ISZERO OR PUSH2 0x28AA JUMPI PUSH2 0x28A9 PUSH2 0x26CA JUMP JUMPDEST JUMPDEST POP SWAP3 SWAP2 POP POP JUMP JUMPDEST PUSH32 0x4F776E61626C653A2063616C6C6572206973206E6F7420746865206F776E6572 PUSH0 DUP3 ADD MSTORE POP JUMP JUMPDEST PUSH0 PUSH2 0x28E5 PUSH1 0x20 DUP4 PUSH2 0x2257 JUMP JUMPDEST SWAP2 POP PUSH2 0x28F0 DUP3 PUSH2 0x28B1 JUMP JUMPDEST PUSH1 0x20 DUP3 ADD SWAP1 POP SWAP2 SWAP1 POP JUMP JUMPDEST PUSH0 PUSH1 0x20 DUP3 ADD SWAP1 POP DUP2 DUP2 SUB PUSH0 DUP4 ADD MSTORE PUSH2 0x2912 DUP2 PUSH2 0x28D9 JUMP JUMPDEST SWAP1 POP SWAP2 SWAP1 POP JUMP JUMPDEST PUSH32 0x4E487B7100000000000000000000000000000000000000000000000000000000 PUSH0 MSTORE PUSH1 0x32 PUSH1 0x4 MSTORE PUSH1 0x24 PUSH0 REVERT JUMPDEST PUSH0 PUSH2 0x2950 DUP3 PUSH2 0x2362 JUMP JUMPDEST SWAP2 POP PUSH32 0xFFFFFFFFFFFFFFFFFFFFFFFFFFFFFFFFFFFFFFFFFFFFFFFFFFFFFFFFFFFFFFFF DUP3 SUB PUSH2 0x2982 JUMPI PUSH2 0x2981 PUSH2 0x26CA JUMP JUMPDEST JUMPDEST PUSH1 0x1 DUP3 ADD SWAP1 POP SWAP2 SWAP1 POP JUMP JUMPDEST PUSH32 0x74726164696E6720697320616C7265616479206F70656E000000000000000000 PUSH0 DUP3 ADD MSTORE POP JUMP JUMPDEST PUSH0 PUSH2 0x29C1 PUSH1 0x17 DUP4 PUSH2 0x2257 JUMP JUMPDEST SWAP2 POP PUSH2 0x29CC DUP3 PUSH2 0x298D JUMP JUMPDEST PUSH1 0x20 DUP3 ADD SWAP1 POP SWAP2 SWAP1 POP JUMP JUMPDEST PUSH0 PUSH1 0x20 DUP3 ADD SWAP1 POP DUP2 DUP2 SUB PUSH0 DUP4 ADD MSTORE PUSH2 0x29EE DUP2 PUSH2 0x29B5 JUMP JUMPDEST SWAP1 POP SWAP2 SWAP1 POP JUMP JUMPDEST PUSH0 DUP2 MLOAD SWAP1 POP PUSH2 0x2A03 DUP2 PUSH2 0x2338 JUMP JUMPDEST SWAP3 SWAP2 POP POP JUMP JUMPDEST PUSH0 PUSH1 0x20 DUP3 DUP5 SUB SLT ISZERO PUSH2 0x2A1E JUMPI PUSH2 0x2A1D PUSH2 0x2300 JUMP JUMPDEST JUMPDEST PUSH0 PUSH2 0x2A2B DUP5 DUP3 DUP6 ADD PUSH2 0x29F5 JUMP JUMPDEST SWAP2 POP POP SWAP3 SWAP2 POP POP JUMP JUMPDEST PUSH0 PUSH1 0x40 DUP3 ADD SWAP1 POP PUSH2 0x2A47 PUSH0 DUP4 ADD DUP6 PUSH2 0x2664 JUMP JUMPDEST PUSH2 0x2A54 PUSH1 0x20 DUP4 ADD DUP5 PUSH2 0x2664 JUMP JUMPDEST SWAP4 SWAP3 POP POP POP JUMP JUMPDEST PUSH0 DUP2 SWAP1 POP SWAP2 SWAP1 POP JUMP JUMPDEST PUSH0 DUP2 SWAP1 POP SWAP2 SWAP1 POP JUMP JUMPDEST PUSH0 PUSH2 0x2A87 PUSH2 0x2A82 PUSH2 0x2A7D DUP5 PUSH2 0x2A5B JUMP JUMPDEST PUSH2 0x2A64 JUMP JUMPDEST PUSH2 0x2362 JUMP JUMPDEST SWAP1 POP SWAP2 SWAP1 POP JUMP JUMPDEST PUSH2 0x2A97 DUP2 PUSH2 0x2A6D JUMP JUMPDEST DUP3 MSTORE POP POP JUMP JUMPDEST PUSH0 PUSH1 0xC0 DUP3 ADD SWAP1 POP PUSH2 0x2AB0 PUSH0 DUP4 ADD DUP10 PUSH2 0x2664 JUMP JUMPDEST PUSH2 0x2ABD PUSH1 0x20 DUP4 ADD DUP9 PUSH2 0x2406 JUMP JUMPDEST PUSH2 0x2ACA PUSH1 0x40 DUP4 ADD DUP8 PUSH2 0x2A8E JUMP JUMPDEST PUSH2 0x2AD7 PUSH1 0x60 DUP4 ADD DUP7 PUSH2 0x2A8E JUMP JUMPDEST PUSH2 0x2AE4 PUSH1 0x80 DUP4 ADD DUP6 PUSH2 0x2664 JUMP JUMPDEST PUSH2 0x2AF1 PUSH1 0xA0 DUP4 ADD DUP5 PUSH2 0x2406 JUMP JUMPDEST SWAP8 SWAP7 POP POP POP POP POP POP POP JUMP JUMPDEST PUSH0 DUP2 MLOAD SWAP1 POP PUSH2 0x2B0A DUP2 PUSH2 0x236B JUMP JUMPDEST SWAP3 SWAP2 POP POP JUMP JUMPDEST PUSH0 DUP1 PUSH0 PUSH1 0x60 DUP5 DUP7 SUB SLT ISZERO PUSH2 0x2B27 JUMPI PUSH2 0x2B26 PUSH2 0x2300 JUMP JUMPDEST JUMPDEST PUSH0 PUSH2 0x2B34 DUP7 DUP3 DUP8 ADD PUSH2 0x2AFC JUMP JUMPDEST SWAP4 POP POP PUSH1 0x20 PUSH2 0x2B45 DUP7 DUP3 DUP8 ADD PUSH2 0x2AFC JUMP JUMPDEST SWAP3 POP POP PUSH1 0x40 PUSH2 0x2B56 DUP7 DUP3 DUP8 ADD PUSH2 0x2AFC JUMP JUMPDEST SWAP2 POP POP SWAP3 POP SWAP3 POP SWAP3 JUMP JUMPDEST PUSH0 PUSH1 0x40 DUP3 ADD SWAP1 POP PUSH2 0x2B73 PUSH0 DUP4 ADD DUP6 PUSH2 0x2664 JUMP JUMPDEST PUSH2 0x2B80 PUSH1 0x20 DUP4 ADD DUP5 PUSH2 0x2406 JUMP JUMPDEST SWAP4 SWAP3 POP POP POP JUMP JUMPDEST PUSH2 0x2B90 DUP2 PUSH2 0x23D3 JUMP JUMPDEST DUP2 EQ PUSH2 0x2B9A JUMPI PUSH0 DUP1 REVERT JUMPDEST POP JUMP JUMPDEST PUSH0 DUP2 MLOAD SWAP1 POP PUSH2 0x2BAB DUP2 PUSH2 0x2B87 JUMP JUMPDEST SWAP3 SWAP2 POP POP JUMP JUMPDEST PUSH0 PUSH1 0x20 DUP3 DUP5 SUB SLT ISZERO PUSH2 0x2BC6 JUMPI PUSH2 0x2BC5 PUSH2 0x2300 JUMP JUMPDEST JUMPDEST PUSH0 PUSH2 0x2BD3 DUP5 DUP3 DUP6 ADD PUSH2 0x2B9D JUMP JUMPDEST SWAP2 POP POP SWAP3 SWAP2 POP POP JUMP JUMPDEST PUSH32 0x45524332303A20617070726F76652066726F6D20746865207A65726F20616464 PUSH0 DUP3 ADD MSTORE PUSH32 0x7265737300000000000000000000000000000000000000000000000000000000 PUSH1 0x20 DUP3 ADD MSTORE POP JUMP JUMPDEST PUSH0 PUSH2 0x2C36 PUSH1 0x24 DUP4 PUSH2 0x2257 JUMP JUMPDEST SWAP2 POP PUSH2 0x2C41 DUP3 PUSH2 0x2BDC JUMP JUMPDEST PUSH1 0x40 DUP3 ADD SWAP1 POP SWAP2 SWAP1 POP JUMP JUMPDEST PUSH0 PUSH1 0x20 DUP3 ADD SWAP1 POP DUP2 DUP2 SUB PUSH0 DUP4 ADD MSTORE PUSH2 0x2C63 DUP2 PUSH2 0x2C2A JUMP JUMPDEST SWAP1 POP SWAP2 SWAP1 POP JUMP JUMPDEST PUSH32 0x45524332303A20617070726F766520746F20746865207A65726F206164647265 PUSH0 DUP3 ADD MSTORE PUSH32 0x7373000000000000000000000000000000000000000000000000000000000000 PUSH1 0x20 DUP3 ADD MSTORE POP JUMP JUMPDEST PUSH0 PUSH2 0x2CC4 PUSH1 0x22 DUP4 PUSH2 0x2257 JUMP JUMPDEST SWAP2 POP PUSH2 0x2CCF DUP3 PUSH2 0x2C6A JUMP JUMPDEST PUSH1 0x40 DUP3 ADD SWAP1 POP SWAP2 SWAP1 POP JUMP JUMPDEST PUSH0 PUSH1 0x20 DUP3 ADD SWAP1 POP DUP2 DUP2 SUB PUSH0 DUP4 ADD MSTORE PUSH2 0x2CF1 DUP2 PUSH2 0x2CB8 JUMP JUMPDEST SWAP1 POP SWAP2 SWAP1 POP JUMP JUMPDEST PUSH32 0x45524332303A207472616E736665722066726F6D20746865207A65726F206164 PUSH0 DUP3 ADD MSTORE PUSH32 0x6472657373000000000000000000000000000000000000000000000000000000 PUSH1 0x20 DUP3 ADD MSTORE POP JUMP JUMPDEST PUSH0 PUSH2 0x2D52 PUSH1 0x25 DUP4 PUSH2 0x2257 JUMP JUMPDEST SWAP2 POP PUSH2 0x2D5D DUP3 PUSH2 0x2CF8 JUMP JUMPDEST PUSH1 0x40 DUP3 ADD SWAP1 POP SWAP2 SWAP1 POP JUMP JUMPDEST PUSH0 PUSH1 0x20 DUP3 ADD SWAP1 POP DUP2 DUP2 SUB PUSH0 DUP4 ADD MSTORE PUSH2 0x2D7F DUP2 PUSH2 0x2D46 JUMP JUMPDEST SWAP1 POP SWAP2 SWAP1 POP JUMP JUMPDEST PUSH32 0x45524332303A207472616E7366657220746F20746865207A65726F2061646472 PUSH0 DUP3 ADD MSTORE PUSH32 0x6573730000000000000000000000000000000000000000000000000000000000 PUSH1 0x20 DUP3 ADD MSTORE POP JUMP JUMPDEST PUSH0 PUSH2 0x2DE0 PUSH1 0x23 DUP4 PUSH2 0x2257 JUMP JUMPDEST SWAP2 POP PUSH2 0x2DEB DUP3 PUSH2 0x2D86 JUMP JUMPDEST PUSH1 0x40 DUP3 ADD SWAP1 POP SWAP2 SWAP1 POP JUMP JUMPDEST PUSH0 PUSH1 0x20 DUP3 ADD SWAP1 POP DUP2 DUP2 SUB PUSH0 DUP4 ADD MSTORE PUSH2 0x2E0D DUP2 PUSH2 0x2DD4 JUMP JUMPDEST SWAP1 POP SWAP2 SWAP1 POP JUMP JUMPDEST PUSH32 0x5472616E7366657220616D6F756E74206D757374206265206772656174657220 PUSH0 DUP3 ADD MSTORE PUSH32 0x7468616E207A65726F0000000000000000000000000000000000000000000000 PUSH1 0x20 DUP3 ADD MSTORE POP JUMP JUMPDEST PUSH0 PUSH2 0x2E6E PUSH1 0x29 DUP4 PUSH2 0x2257 JUMP JUMPDEST SWAP2 POP PUSH2 0x2E79 DUP3 PUSH2 0x2E14 JUMP JUMPDEST PUSH1 0x40 DUP3 ADD SWAP1 POP SWAP2 SWAP1 POP JUMP JUMPDEST PUSH0 PUSH1 0x20 DUP3 ADD SWAP1 POP DUP2 DUP2 SUB PUSH0 DUP4 ADD MSTORE PUSH2 0x2E9B DUP2 PUSH2 0x2E62 JUMP JUMPDEST SWAP1 POP SWAP2 SWAP1 POP JUMP JUMPDEST PUSH32 0x4578636565647320746865205F6D61785478416D6F756E742E00000000000000 PUSH0 DUP3 ADD MSTORE POP JUMP JUMPDEST PUSH0 PUSH2 0x2ED6 PUSH1 0x19 DUP4 PUSH2 0x2257 JUMP JUMPDEST SWAP2 POP PUSH2 0x2EE1 DUP3 PUSH2 0x2EA2 JUMP JUMPDEST PUSH1 0x20 DUP3 ADD SWAP1 POP SWAP2 SWAP1 POP JUMP JUMPDEST PUSH0 PUSH1 0x20 DUP3 ADD SWAP1 POP DUP2 DUP2 SUB PUSH0 DUP4 ADD MSTORE PUSH2 0x2F03 DUP2 PUSH2 0x2ECA JUMP JUMPDEST SWAP1 POP SWAP2 SWAP1 POP JUMP JUMPDEST PUSH0 PUSH2 0x2F14 DUP3 PUSH2 0x2362 JUMP JUMPDEST SWAP2 POP PUSH2 0x2F1F DUP4 PUSH2 0x2362 JUMP JUMPDEST SWAP3 POP DUP3 DUP3 ADD SWAP1 POP DUP1 DUP3 GT ISZERO PUSH2 0x2F37 JUMPI PUSH2 0x2F36 PUSH2 0x26CA JUMP JUMPDEST JUMPDEST SWAP3 SWAP2 POP POP JUMP JUMPDEST PUSH32 0x4578636565647320746865206D617857616C6C657453697A652E000000000000 PUSH0 DUP3 ADD MSTORE POP JUMP JUMPDEST PUSH0 PUSH2 0x2F71 PUSH1 0x1A DUP4 PUSH2 0x2257 JUMP JUMPDEST SWAP2 POP PUSH2 0x2F7C DUP3 PUSH2 0x2F3D JUMP JUMPDEST PUSH1 0x20 DUP3 ADD SWAP1 POP SWAP2 SWAP1 POP JUMP JUMPDEST PUSH0 PUSH1 0x20 DUP3 ADD SWAP1 POP DUP2 DUP2 SUB PUSH0 DUP4 ADD MSTORE PUSH2 0x2F9E DUP2 PUSH2 0x2F65 JUMP JUMPDEST SWAP1 POP SWAP2 SWAP1 POP JUMP JUMPDEST PUSH0 PUSH2 0x2FAF DUP3 PUSH2 0x2362 JUMP JUMPDEST SWAP2 POP PUSH2 0x2FBA DUP4 PUSH2 0x2362 JUMP JUMPDEST SWAP3 POP DUP3 DUP3 SUB SWAP1 POP DUP2 DUP2 GT ISZERO PUSH2 0x2FD2 JUMPI PUSH2 0x2FD1 PUSH2 0x26CA JUMP JUMPDEST JUMPDEST SWAP3 SWAP2 POP POP JUMP JUMPDEST PUSH32 0x4E487B7100000000000000000000000000000000000000000000000000000000 PUSH0 MSTORE PUSH1 0x12 PUSH1 0x4 MSTORE PUSH1 0x24 PUSH0 REVERT JUMPDEST PUSH0 PUSH2 0x300F DUP3 PUSH2 0x2362 JUMP JUMPDEST SWAP2 POP PUSH2 0x301A DUP4 PUSH2 0x2362 JUMP JUMPDEST SWAP3 POP DUP3 PUSH2 0x302A JUMPI PUSH2 0x3029 PUSH2 0x2FD8 JUMP JUMPDEST JUMPDEST DUP3 DUP3 DIV SWAP1 POP SWAP3 SWAP2 POP POP JUMP JUMPDEST PUSH32 0x536166654D6174683A206D756C7469706C69636174696F6E206F766572666C6F PUSH0 DUP3 ADD MSTORE PUSH32 0x7700000000000000000000000000000000000000000000000000000000000000 PUSH1 0x20 DUP3 ADD MSTORE POP JUMP JUMPDEST PUSH0 PUSH2 0x308F PUSH1 0x21 DUP4 PUSH2 0x2257 JUMP JUMPDEST SWAP2 POP PUSH2 0x309A DUP3 PUSH2 0x3035 JUMP JUMPDEST PUSH1 0x40 DUP3 ADD SWAP1 POP SWAP2 SWAP1 POP JUMP JUMPDEST PUSH0 PUSH1 0x20 DUP3 ADD SWAP1 POP DUP2 DUP2 SUB PUSH0 DUP4 ADD MSTORE PUSH2 0x30BC DUP2 PUSH2 0x3083 JUMP JUMPDEST SWAP1 POP SWAP2 SWAP1 POP JUMP JUMPDEST PUSH0 DUP2 MLOAD SWAP1 POP SWAP2 SWAP1 POP JUMP JUMPDEST PUSH0 DUP3 DUP3 MSTORE PUSH1 0x20 DUP3 ADD SWAP1 POP SWAP3 SWAP2 POP POP JUMP JUMPDEST PUSH0 DUP2 SWAP1 POP PUSH1 0x20 DUP3 ADD SWAP1 POP SWAP2 SWAP1 POP JUMP JUMPDEST PUSH2 0x30F5 DUP2 PUSH2 0x2327 JUMP JUMPDEST DUP3 MSTORE POP POP JUMP JUMPDEST PUSH0 PUSH2 0x3106 DUP4 DUP4 PUSH2 0x30EC JUMP JUMPDEST PUSH1 0x20 DUP4 ADD SWAP1 POP SWAP3 SWAP2 POP POP JUMP JUMPDEST PUSH0 PUSH1 0x20 DUP3 ADD SWAP1 POP SWAP2 SWAP1 POP JUMP JUMPDEST PUSH0 PUSH2 0x3128 DUP3 PUSH2 0x30C3 JUMP JUMPDEST PUSH2 0x3132 DUP2 DUP6 PUSH2 0x30CD JUMP JUMPDEST SWAP4 POP PUSH2 0x313D DUP4 PUSH2 0x30DD JUMP JUMPDEST DUP1 PUSH0 JUMPDEST DUP4 DUP2 LT ISZERO PUSH2 0x316D JUMPI DUP2 MLOAD PUSH2 0x3154 DUP9 DUP3 PUSH2 0x30FB JUMP JUMPDEST SWAP8 POP PUSH2 0x315F DUP4 PUSH2 0x3112 JUMP JUMPDEST SWAP3 POP POP PUSH1 0x1 DUP2 ADD SWAP1 POP PUSH2 0x3140 JUMP JUMPDEST POP DUP6 SWAP4 POP POP POP POP SWAP3 SWAP2 POP POP JUMP JUMPDEST PUSH0 PUSH1 0xA0 DUP3 ADD SWAP1 POP PUSH2 0x318D PUSH0 DUP4 ADD DUP9 PUSH2 0x2406 JUMP JUMPDEST PUSH2 0x319A PUSH1 0x20 DUP4 ADD DUP8 PUSH2 0x2A8E JUMP JUMPDEST DUP2 DUP2 SUB PUSH1 0x40 DUP4 ADD MSTORE PUSH2 0x31AC DUP2 DUP7 PUSH2 0x311E JUMP JUMPDEST SWAP1 POP PUSH2 0x31BB PUSH1 0x60 DUP4 ADD DUP6 PUSH2 0x2664 JUMP JUMPDEST PUSH2 0x31C8 PUSH1 0x80 DUP4 ADD DUP5 PUSH2 0x2406 JUMP JUMPDEST SWAP7 SWAP6 POP POP POP POP POP POP JUMP JUMPDEST PUSH32 0x536166654D6174683A206164646974696F6E206F766572666C6F770000000000 PUSH0 DUP3 ADD MSTORE POP JUMP JUMPDEST PUSH0 PUSH2 0x3206 PUSH1 0x1B DUP4 PUSH2 0x2257 JUMP JUMPDEST SWAP2 POP PUSH2 0x3211 DUP3 PUSH2 0x31D2 JUMP JUMPDEST PUSH1 0x20 DUP3 ADD SWAP1 POP SWAP2 SWAP1 POP JUMP JUMPDEST PUSH0 PUSH1 0x20 DUP3 ADD SWAP1 POP DUP2 DUP2 SUB PUSH0 DUP4 ADD MSTORE PUSH2 0x3233 DUP2 PUSH2 0x31FA JUMP JUMPDEST SWAP1 POP SWAP2 SWAP1 POP JUMP INVALID GASLIMIT MSTORE NUMBER ORIGIN ADDRESS GASPRICE KECCAK256 PUSH21 0x72616E7366657220616D6F756E7420657863656564 PUSH20 0x20616C6C6F77616E6365A2646970667358221220 EXTCODECOPY 0xF9 PUSH14 0xACE3BA41FF5BA42B9D87BA806E2F 0x2C 0x22 STATICCALL 0xCC GASLIMIT 0x24 0xBD 0xBB PUSH11 0x92F4380F74D364736F6C63 NUMBER STOP ADDMOD EQ STOP CALLER "
				},
				"gasEstimates": {
					"creation": {
						"codeDepositCost": "2590400",
						"executionCost": "infinite",
						"totalCost": "infinite"
					},
					"external": {
						"OpenTrading()": "infinite",
						"_maxTaxSwap()": "2493",
						"_maxTxAmount()": "2492",
						"_maxWalletSize()": "2536",
						"_taxSwapThreshold()": "2491",
						"addBots(address[])": "infinite",
						"allowance(address,address)": "infinite",
						"approve(address,uint256)": "infinite",
						"balanceOf(address)": "2940",
						"decimals()": "361",
						"delBots(address[])": "infinite",
						"isBot(address)": "2937",
						"name()": "infinite",
						"owner()": "2604",
						"removeLimits()": "infinite",
						"renounceOwnership()": "30307",
						"symbol()": "infinite",
						"totalSupply()": "infinite",
						"transfer(address,uint256)": "infinite",
						"transferFrom(address,address,uint256)": "infinite"
					},
					"internal": {
						"_approve(address,address,uint256)": "infinite",
						"_transfer(address,address,uint256)": "infinite",
						"isContract(address)": "2645",
						"min(uint256,uint256)": "63",
						"sendETHToFee(uint256)": "infinite",
						"swapTokensForEth(uint256)": "infinite"
					}
				},
				"methodIdentifiers": {
					"OpenTrading()": "51cd7cc3",
					"_maxTaxSwap()": "0faee56f",
					"_maxTxAmount()": "7d1db4a5",
					"_maxWalletSize()": "8f9a55c0",
					"_taxSwapThreshold()": "bf474bed",
					"addBots(address[])": "d34628cc",
					"allowance(address,address)": "dd62ed3e",
					"approve(address,uint256)": "095ea7b3",
					"balanceOf(address)": "70a08231",
					"decimals()": "313ce567",
					"delBots(address[])": "31c2d847",
					"isBot(address)": "3bbac579",
					"name()": "06fdde03",
					"owner()": "8da5cb5b",
					"removeLimits()": "751039fc",
					"renounceOwnership()": "715018a6",
					"symbol()": "95d89b41",
					"totalSupply()": "18160ddd",
					"transfer(address,uint256)": "a9059cbb",
					"transferFrom(address,address,uint256)": "23b872dd"
				}
			},
			"storageLayout": {
				"storage": [
					{
						"astId": 228,
						"contract": "Token_COBAX.sol:COBAX",
						"label": "_owner",
						"offset": 0,
						"slot": "0",
						"type": "t_address"
					},
					{
						"astId": 366,
						"contract": "Token_COBAX.sol:COBAX",
						"label": "_balances",
						"offset": 0,
						"slot": "1",
						"type": "t_mapping(t_address,t_uint256)"
					},
					{
						"astId": 372,
						"contract": "Token_COBAX.sol:COBAX",
						"label": "_allowances",
						"offset": 0,
						"slot": "2",
						"type": "t_mapping(t_address,t_mapping(t_address,t_uint256))"
					},
					{
						"astId": 376,
						"contract": "Token_COBAX.sol:COBAX",
						"label": "_isExcludedFromFee",
						"offset": 0,
						"slot": "3",
						"type": "t_mapping(t_address,t_bool)"
					},
					{
						"astId": 380,
						"contract": "Token_COBAX.sol:COBAX",
						"label": "bots",
						"offset": 0,
						"slot": "4",
						"type": "t_mapping(t_address,t_bool)"
					},
					{
						"astId": 382,
						"contract": "Token_COBAX.sol:COBAX",
						"label": "_taxWallet",
						"offset": 0,
						"slot": "5",
						"type": "t_address_payable"
					},
					{
						"astId": 384,
						"contract": "Token_COBAX.sol:COBAX",
						"label": "firstBlock",
						"offset": 0,
						"slot": "6",
						"type": "t_uint256"
					},
					{
						"astId": 387,
						"contract": "Token_COBAX.sol:COBAX",
						"label": "_initialBuyTax",
						"offset": 0,
						"slot": "7",
						"type": "t_uint256"
					},
					{
						"astId": 390,
						"contract": "Token_COBAX.sol:COBAX",
						"label": "_initialSellTax",
						"offset": 0,
						"slot": "8",
						"type": "t_uint256"
					},
					{
						"astId": 393,
						"contract": "Token_COBAX.sol:COBAX",
						"label": "_finalBuyTax",
						"offset": 0,
						"slot": "9",
						"type": "t_uint256"
					},
					{
						"astId": 396,
						"contract": "Token_COBAX.sol:COBAX",
						"label": "_finalSellTax",
						"offset": 0,
						"slot": "10",
						"type": "t_uint256"
					},
					{
						"astId": 399,
						"contract": "Token_COBAX.sol:COBAX",
						"label": "_reduceBuyTaxAt",
						"offset": 0,
						"slot": "11",
						"type": "t_uint256"
					},
					{
						"astId": 402,
						"contract": "Token_COBAX.sol:COBAX",
						"label": "_reduceSellTaxAt",
						"offset": 0,
						"slot": "12",
						"type": "t_uint256"
					},
					{
						"astId": 405,
						"contract": "Token_COBAX.sol:COBAX",
						"label": "_preventSwapBefore",
						"offset": 0,
						"slot": "13",
						"type": "t_uint256"
					},
					{
						"astId": 408,
						"contract": "Token_COBAX.sol:COBAX",
						"label": "_buyCount",
						"offset": 0,
						"slot": "14",
						"type": "t_uint256"
					},
					{
						"astId": 431,
						"contract": "Token_COBAX.sol:COBAX",
						"label": "_maxTxAmount",
						"offset": 0,
						"slot": "15",
						"type": "t_uint256"
					},
					{
						"astId": 438,
						"contract": "Token_COBAX.sol:COBAX",
						"label": "_maxWalletSize",
						"offset": 0,
						"slot": "16",
						"type": "t_uint256"
					},
					{
						"astId": 445,
						"contract": "Token_COBAX.sol:COBAX",
						"label": "_taxSwapThreshold",
						"offset": 0,
						"slot": "17",
						"type": "t_uint256"
					},
					{
						"astId": 452,
						"contract": "Token_COBAX.sol:COBAX",
						"label": "_maxTaxSwap",
						"offset": 0,
						"slot": "18",
						"type": "t_uint256"
					},
					{
						"astId": 455,
						"contract": "Token_COBAX.sol:COBAX",
						"label": "uniswapV2Router",
						"offset": 0,
						"slot": "19",
						"type": "t_contract(IUniswapV2Router02)353"
					},
					{
						"astId": 457,
						"contract": "Token_COBAX.sol:COBAX",
						"label": "uniswapV2Pair",
						"offset": 0,
						"slot": "20",
						"type": "t_address"
					},
					{
						"astId": 459,
						"contract": "Token_COBAX.sol:COBAX",
						"label": "tradingOpen",
						"offset": 20,
						"slot": "20",
						"type": "t_bool"
					},
					{
						"astId": 462,
						"contract": "Token_COBAX.sol:COBAX",
						"label": "inSwap",
						"offset": 21,
						"slot": "20",
						"type": "t_bool"
					},
					{
						"astId": 465,
						"contract": "Token_COBAX.sol:COBAX",
						"label": "swapEnabled",
						"offset": 22,
						"slot": "20",
						"type": "t_bool"
					}
				],
				"types": {
					"t_address": {
						"encoding": "inplace",
						"label": "address",
						"numberOfBytes": "20"
					},
					"t_address_payable": {
						"encoding": "inplace",
						"label": "address payable",
						"numberOfBytes": "20"
					},
					"t_bool": {
						"encoding": "inplace",
						"label": "bool",
						"numberOfBytes": "1"
					},
					"t_contract(IUniswapV2Router02)353": {
						"encoding": "inplace",
						"label": "contract IUniswapV2Router02",
						"numberOfBytes": "20"
					},
					"t_mapping(t_address,t_bool)": {
						"encoding": "mapping",
						"key": "t_address",
						"label": "mapping(address => bool)",
						"numberOfBytes": "32",
						"value": "t_bool"
					},
					"t_mapping(t_address,t_mapping(t_address,t_uint256))": {
						"encoding": "mapping",
						"key": "t_address",
						"label": "mapping(address => mapping(address => uint256))",
						"numberOfBytes": "32",
						"value": "t_mapping(t_address,t_uint256)"
					},
					"t_mapping(t_address,t_uint256)": {
						"encoding": "mapping",
						"key": "t_address",
						"label": "mapping(address => uint256)",
						"numberOfBytes": "32",
						"value": "t_uint256"
					},
					"t_uint256": {
						"encoding": "inplace",
						"label": "uint256",
						"numberOfBytes": "32"
					}
				}
			},
			"userdoc": {
				"kind": "user",
				"methods": {},
				"version": 1
			}
		}
	}
}